{
  "_format": "hh-sol-artifact-1",
  "contractName": "TokenPairConverter",
  "sourceName": "contracts/TokenPairConverter.sol",
  "abi": [
    {
      "anonymous": false,
      "inputs": [
        {
          "indexed": false,
          "internalType": "address",
          "name": "baseToken",
          "type": "address"
        },
        {
          "indexed": false,
          "internalType": "address",
          "name": "secondaryToken",
          "type": "address"
        }
      ],
      "name": "TokenPairDisabled",
      "type": "event"
    },
    {
      "anonymous": false,
      "inputs": [
        {
          "indexed": false,
          "internalType": "address",
          "name": "baseToken",
          "type": "address"
        },
        {
          "indexed": false,
          "internalType": "address",
          "name": "secondaryToken",
          "type": "address"
        }
      ],
      "name": "TokenPairEnabled",
      "type": "event"
    },
    {
      "inputs": [],
      "name": "PRECISION_SMOOTHING_FACTOR",
      "outputs": [
        {
          "internalType": "uint256",
          "name": "",
          "type": "uint256"
        }
      ],
      "stateMutability": "view",
      "type": "function"
    },
    {
      "inputs": [],
      "name": "SMOOTHING_FACTOR",
      "outputs": [
        {
          "internalType": "uint256",
          "name": "",
          "type": "uint256"
        }
      ],
      "stateMutability": "view",
      "type": "function"
    },
    {
      "inputs": [
        {
          "internalType": "address",
          "name": "_baseToken",
          "type": "address"
        },
        {
          "internalType": "address",
          "name": "_secondaryToken",
          "type": "address"
        },
        {
          "internalType": "address",
          "name": "_priceProvider",
          "type": "address"
        },
        {
          "internalType": "uint256",
          "name": "_priceComparisonPrecision",
          "type": "uint256"
        },
        {
          "internalType": "uint256",
          "name": "_initialPrice",
          "type": "uint256"
        }
      ],
      "name": "addTokenPair",
      "outputs": [],
      "stateMutability": "nonpayable",
      "type": "function"
    },
    {
      "inputs": [
        {
          "internalType": "contract IGovernor",
          "name": "newIGovernor",
          "type": "address"
        }
      ],
      "name": "changeIGovernor",
      "outputs": [],
      "stateMutability": "nonpayable",
      "type": "function"
    },
    {
      "inputs": [
        {
          "internalType": "address",
          "name": "_tokenAddress",
          "type": "address"
        },
        {
          "internalType": "uint256",
          "name": "_amount",
          "type": "uint256"
        },
        {
          "internalType": "address",
          "name": "_baseAddress",
          "type": "address"
        }
      ],
      "name": "convertTokenToCommonBase",
      "outputs": [
        {
          "internalType": "uint256",
          "name": "convertedAmount",
          "type": "uint256"
        }
      ],
      "stateMutability": "view",
      "type": "function"
    },
    {
      "inputs": [
        {
          "internalType": "address",
          "name": "_baseToken",
          "type": "address"
        },
        {
          "internalType": "address",
          "name": "_secondaryToken",
          "type": "address"
        }
      ],
      "name": "disableTokenPair",
      "outputs": [],
      "stateMutability": "nonpayable",
      "type": "function"
    },
    {
      "inputs": [
        {
          "internalType": "address",
          "name": "_baseToken",
          "type": "address"
        },
        {
          "internalType": "address",
          "name": "_secondaryToken",
          "type": "address"
        }
      ],
      "name": "enableTokenPair",
      "outputs": [],
      "stateMutability": "nonpayable",
      "type": "function"
    },
    {
      "inputs": [
        {
          "internalType": "address",
          "name": "_baseToken",
          "type": "address"
        },
        {
          "internalType": "address",
          "name": "_secondaryToken",
          "type": "address"
        }
      ],
      "name": "getNextTick",
      "outputs": [
        {
          "internalType": "uint64",
          "name": "tickNumber",
          "type": "uint64"
        },
        {
          "internalType": "uint256",
          "name": "nextTickBlock",
          "type": "uint256"
        },
        {
          "internalType": "uint256",
          "name": "lastTickBlock",
          "type": "uint256"
        }
      ],
      "stateMutability": "view",
      "type": "function"
    },
    {
      "inputs": [],
      "name": "getTokenPairs",
      "outputs": [
        {
          "internalType": "address[2][]",
          "name": "",
          "type": "address[2][]"
        }
      ],
      "stateMutability": "view",
      "type": "function"
    },
    {
      "inputs": [],
      "name": "governor",
      "outputs": [
        {
          "internalType": "contract IGovernor",
          "name": "",
          "type": "address"
        }
      ],
      "stateMutability": "view",
      "type": "function"
    },
    {
      "inputs": [
        {
          "internalType": "address",
          "name": "_baseToken",
          "type": "address"
        },
        {
          "internalType": "address",
          "name": "_secondaryToken",
          "type": "address"
        }
      ],
      "name": "hashAddresses",
      "outputs": [
        {
          "internalType": "bytes32",
          "name": "",
          "type": "bytes32"
        }
      ],
      "stateMutability": "pure",
      "type": "function"
    },
    {
      "inputs": [
        {
          "internalType": "address",
          "name": "_governor",
          "type": "address"
        }
      ],
      "name": "initialize",
      "outputs": [],
      "stateMutability": "nonpayable",
      "type": "function"
    },
    {
      "inputs": [
        {
          "internalType": "uint64",
          "name": "_expectedOrdersForTick",
          "type": "uint64"
        }
      ],
      "name": "setExpectedOrdersForTick",
      "outputs": [],
      "stateMutability": "nonpayable",
      "type": "function"
    },
    {
      "inputs": [
        {
          "internalType": "address",
          "name": "_baseToken",
          "type": "address"
        },
        {
          "internalType": "address",
          "name": "_secondaryToken",
          "type": "address"
        },
        {
          "internalType": "uint256",
          "name": "_price",
          "type": "uint256"
        }
      ],
      "name": "setLastClosingPrice",
      "outputs": [],
      "stateMutability": "nonpayable",
      "type": "function"
    },
    {
      "inputs": [
        {
          "internalType": "uint64",
          "name": "_maxBlocksForTick",
          "type": "uint64"
        }
      ],
      "name": "setMaxBlocksForTick",
      "outputs": [],
      "stateMutability": "nonpayable",
      "type": "function"
    },
    {
      "inputs": [
        {
          "internalType": "uint64",
          "name": "_minBlocksForTick",
          "type": "uint64"
        }
      ],
      "name": "setMinBlocksForTick",
      "outputs": [],
      "stateMutability": "nonpayable",
      "type": "function"
    },
    {
      "inputs": [
        {
          "internalType": "address",
          "name": "_baseToken",
          "type": "address"
        },
        {
          "internalType": "address",
          "name": "_secondaryToken",
          "type": "address"
        },
        {
          "internalType": "address",
          "name": "_priceProvider",
          "type": "address"
        }
      ],
      "name": "setPriceProvider",
      "outputs": [],
      "stateMutability": "nonpayable",
      "type": "function"
    },
    {
      "inputs": [
        {
          "internalType": "address",
          "name": "_baseToken",
          "type": "address"
        },
        {
          "internalType": "address",
          "name": "_secondaryToken",
          "type": "address"
        },
        {
          "internalType": "uint256",
          "name": "_emaPrice",
          "type": "uint256"
        }
      ],
      "name": "setTokenPairEmaPrice",
      "outputs": [],
      "stateMutability": "nonpayable",
      "type": "function"
    },
    {
      "inputs": [
        {
          "internalType": "address",
          "name": "_baseToken",
          "type": "address"
        },
        {
          "internalType": "address",
          "name": "_secondaryToken",
          "type": "address"
        },
        {
          "internalType": "uint256",
          "name": "_smoothingFactor",
          "type": "uint256"
        }
      ],
      "name": "setTokenPairSmoothingFactor",
      "outputs": [],
      "stateMutability": "nonpayable",
      "type": "function"
    },
    {
      "inputs": [],
      "name": "tickConfig",
      "outputs": [
        {
          "internalType": "uint256",
          "name": "expectedOrdersForTick",
          "type": "uint256"
        },
        {
          "internalType": "uint256",
          "name": "maxBlocksForTick",
          "type": "uint256"
        },
        {
          "internalType": "uint256",
          "name": "minBlocksForTick",
          "type": "uint256"
        }
      ],
      "stateMutability": "view",
      "type": "function"
    },
    {
      "inputs": [
        {
          "internalType": "uint256",
          "name": "",
          "type": "uint256"
        },
        {
          "internalType": "uint256",
          "name": "",
          "type": "uint256"
        }
      ],
      "name": "tokenPairAddresses",
      "outputs": [
        {
          "internalType": "address",
          "name": "",
          "type": "address"
        }
      ],
      "stateMutability": "view",
      "type": "function"
    },
    {
      "inputs": [],
      "name": "tokenPairCount",
      "outputs": [
        {
          "internalType": "uint256",
          "name": "",
          "type": "uint256"
        }
      ],
      "stateMutability": "view",
      "type": "function"
    }
  ],
  "bytecode": "0x608060405234801561001057600080fd5b506111f5806100206000396000f3fe608060405234801561001057600080fd5b50600436106101425760003560e01c806352826184116100b8578063c4d66de81161007c578063c4d66de8146102d0578063c520bc92146102e3578063df318d1b146102f6578063e24e4fdb14610309578063e3204b221461031e578063f2b24da31461033157600080fd5b806352826184146102365780639c27ee4c14610249578063ae06785414610276578063b6e0833014610284578063c227b51c1461029757600080fd5b8063324773801161010a57806332477380146101cf57806333ccf340146101e2578063340f965a146101f557806337db0273146102085780633991dfe81461021b5780634a2721321461022357600080fd5b80630c340a241461014757806314fced94146101775780631c5129e91461018c57806320aab0731461019f57806320ad3f01146101bc575b600080fd5b60335461015a906001600160a01b031681565b6040516001600160a01b0390911681526020015b60405180910390f35b61018a610185366004610ed3565b610344565b005b61018a61019a366004610ed3565b610405565b6101ae670de0b6b3a764000081565b60405190815260200161016e565b61015a6101ca366004610f0c565b6104b3565b61018a6101dd366004610f2e565b6104f1565b61018a6101f0366004610f2e565b61057b565b61018a610203366004610f6f565b61059b565b61018a610216366004610f99565b61060d565b609c546101ae565b61018a610231366004610f6f565b610700565b61018a610244366004610f2e565b610743565b60665460675460685461025b92919083565b6040805193845260208401929092529082015260600161016e565b6101ae663ab9f28a23200081565b61018a610292366004610fe4565b6107cc565b6102aa6102a5366004610ed3565b6107f6565b6040805167ffffffffffffffff909416845260208401929092529082015260600161016e565b61018a6102de366004610fe4565b61082f565b61018a6102f1366004611001565b610908565b6101ae61030436600461105c565b610984565b6103116109e5565b60405161016e9190611093565b61018a61032c366004610f6f565b610a6c565b6101ae61033f366004610ed3565b610aaf565b61034c610afa565b60006103588383610bb6565b603d81015490915060ff16156103ad5760405162461bcd60e51b815260206004820152601560248201527414185a5c88185b1c9958591e48191a5cd8589b1959605a1b60448201526064015b60405180910390fd5b603d8101805460ff19166001179055604080516001600160a01b038581168252841660208201527f71a055a513c927530cb6f44f826ef705d11b6b00e0912135c1f73796663138ed91015b60405180910390a1505050565b61040d610afa565b60006104198383610bb6565b603d81015490915060ff166104675760405162461bcd60e51b815260206004820152601460248201527314185a5c88185b1c9958591e48195b98589b195960621b60448201526064016103a4565b603d8101805460ff19169055604080516001600160a01b038086168252841660208201527f53affae818baf7c49a51b11722048f56b718a0eb3ea1e4e494915a852ead79b091016103f8565b609c82815481106104c357600080fd5b906000526020600020906002020181600281106104df57600080fd5b01546001600160a01b03169150829050565b6104f9610afa565b60006105058484610bb6565b9050670de0b6b3a76400008211156105735760405162461bcd60e51b815260206004820152602b60248201527f536d6f6f7468696e6720666163746f722073686f756c6420626520696e20726560448201526a6c6174696f6e20746f203160a81b60648201526084016103a4565b603f01555050565b610583610afa565b600061058f8484610bb6565b603e0191909155505050565b6105a3610afa565b60028167ffffffffffffffff1610156105fe5760405162461bcd60e51b815260206004820181905260248201527f4578706563746564206f726465727320666f72207469636b20746f6f206c6f7760448201526064016103a4565b67ffffffffffffffff16606655565b610615610afa565b61061f8383610c19565b61066b5760405162461bcd60e51b815260206004820152601760248201527f546865207061697220646f6573206e6f7420657869737400000000000000000060448201526064016103a4565b6001600160a01b0381166106cd5760405162461bcd60e51b8152602060048201526024808201527f50726963652070726f766964657220616464726573732063616e206e6f7420626044820152630ca4060f60e31b60648201526084016103a4565b60006106d98484610bb6565b601c0180546001600160a01b0319166001600160a01b039390931692909217909155505050565b610708610afa565b60685467ffffffffffffffff821610156107345760405162461bcd60e51b81526004016103a490611105565b67ffffffffffffffff16606755565b61074b610afa565b600081116107b45760405162461bcd60e51b815260206004820152603060248201527f54686520676976656e20696e697469616c2070726963652073686f756c64206260448201526f0652067726561746572207468616e20360841b60648201526084016103a4565b60006107c08484610bb6565b603c0191909155505050565b6107d4610afa565b603380546001600160a01b0319166001600160a01b0392909216919091179055565b6000806000806108068686610c2d565b6020810154601d820154601e9092015467ffffffffffffffff9091169891975095509350505050565b600054610100900460ff16806108445750303b155b80610852575060005460ff16155b6108b55760405162461bcd60e51b815260206004820152602e60248201527f436f6e747261637420696e7374616e63652068617320616c726561647920626560448201526d195b881a5b9a5d1a585b1a5e995960921b60648201526084016103a4565b600054610100900460ff161580156108d7576000805461ffff19166101011790555b603380546001600160a01b0319166001600160a01b0384161790558015610904576000805461ff00191690555b5050565b60cf546001600160a01b0386811691161480610935575060cf54610935906001600160a01b031686610c19565b6109705760405162461bcd60e51b815260206004820152600c60248201526b24b73b30b634b2102830b4b960a11b60448201526064016103a4565b61097d8585858585610c53565b5050505050565b60cf546000906001600160a01b03908116908516036109a45750816109de565b60cf546000906109bd906001600160a01b031686610c2d565b60cf549091506109d6906001600160a01b031684610c2d565b506000199150505b9392505050565b6060609c805480602002602001604051908101604052809291908181526020016000905b82821015610a635760008481526020902060408051808201918290529160028581029091019182845b81546001600160a01b03168152600190910190602001808311610a3257505050505081526020019060010190610a09565b50505050905090565b610a74610afa565b60675467ffffffffffffffff82161115610aa05760405162461bcd60e51b81526004016103a490611105565b67ffffffffffffffff16606855565b6040516bffffffffffffffffffffffff19606084811b8216602084015283901b1660348201526000906048016040516020818303038152906040528051906020012090505b92915050565b60335460405163d994d6d560e01b81523360048201526001600160a01b039091169063d994d6d590602401602060405180830381865afa158015610b42573d6000803e3d6000fd5b505050506040513d601f19601f82011682018060405250810190610b66919061114e565b604051806040016040528060168152602001753737ba2fb0baba3437b934bd32b22fb1b430b733b2b960511b81525090610bb35760405162461bcd60e51b81526004016103a49190611170565b50565b6000610bc28383610c2d565b9050610bcd81610e15565b610af45760405162461bcd60e51b815260206004820152601960248201527f546f6b656e207061697220646f6573206e6f742065786973740000000000000060448201526064016103a4565b60006109de610c288484610c2d565b610e15565b6000609b6000610c3d8585610aaf565b8152602001908152602001600020905092915050565b610c5b610afa565b8484610c678282610c19565b15610ca45760405162461bcd60e51b815260206004820152600d60248201526c22bc34b9ba32b73a103830b4b960991b60448201526064016103a4565b610cae8183610c19565b15610cf35760405162461bcd60e51b815260206004820152601560248201527422bc34b9ba32b73a1034b73b32b939b2903830b4b960591b60448201526064016103a4565b806001600160a01b0316826001600160a01b031603610d545760405162461bcd60e51b815260206004820152601760248201527f4261736520657175616c20746f207365636f6e6461727900000000000000000060448201526064016103a4565b60008311610d9b5760405162461bcd60e51b8152602060048201526014602482015273696e697469616c5072696365206e6f207a65726f60601b60448201526064016103a4565b6000610da78888610aaf565b604080518082019091526001600160a01b03808b16825289166020820152609c8054600181018255600091909152919250610e0a9160029081027faf85b9071dfafeac1409d3f1d19bafc9bc7c37974cde8df0ee6168f0086e539c019190610e51565b505050505050505050565b600d8101546000906001600160a01b031615801590610e405750601b8201546001600160a01b031615155b8015610af4575050603b0154151590565b8260028101928215610e99579160200282015b82811115610e9957825182546001600160a01b0319166001600160a01b03909116178255602090920191600190910190610e64565b50610ea5929150610ea9565b5090565b5b80821115610ea55760008155600101610eaa565b6001600160a01b0381168114610bb357600080fd5b60008060408385031215610ee657600080fd5b8235610ef181610ebe565b91506020830135610f0181610ebe565b809150509250929050565b60008060408385031215610f1f57600080fd5b50508035926020909101359150565b600080600060608486031215610f4357600080fd5b8335610f4e81610ebe565b92506020840135610f5e81610ebe565b929592945050506040919091013590565b600060208284031215610f8157600080fd5b813567ffffffffffffffff811681146109de57600080fd5b600080600060608486031215610fae57600080fd5b8335610fb981610ebe565b92506020840135610fc981610ebe565b91506040840135610fd981610ebe565b809150509250925092565b600060208284031215610ff657600080fd5b81356109de81610ebe565b600080600080600060a0868803121561101957600080fd5b853561102481610ebe565b9450602086013561103481610ebe565b9350604086013561104481610ebe565b94979396509394606081013594506080013592915050565b60008060006060848603121561107157600080fd5b833561107c81610ebe565b9250602084013591506040840135610fd981610ebe565b60208082528251828201819052600091906040908185019086840185805b838110156110f757825185835b60028110156110e45782516001600160a01b0316825291890191908901906001016110be565b50505093850193918601916001016110b1565b509298975050505050505050565b60208082526029908201527f6d696e20426c6f636b466f725469636b2073686f756c64206265206c6f776572604082015268040e8d0c2dc40dac2f60bb1b606082015260800190565b60006020828403121561116057600080fd5b815180151581146109de57600080fd5b60006020808352835180602085015260005b8181101561119e57858101830151858201604001528201611182565b506000604082860101526040601f19601f830116850101925050509291505056fea26469706673582212205542b465f97b9c2fd41a507f955ab5fca2402e7df084aca9e73bd778db5cde9364736f6c63430008180033",
  "linkReferences": {},
  "deployedLinkReferences": {}
}