{
  "_format": "hh-sol-artifact-1",
  "contractName": "UnityPriceProvider",
  "sourceName": "contracts/price-providers/UnityPriceProvider.sol",
  "abi": [
    {
      "inputs": [],
      "name": "peek",
      "outputs": [
        {
          "internalType": "bytes32",
          "name": "",
          "type": "bytes32"
        },
        {
          "internalType": "bool",
          "name": "",
          "type": "bool"
        }
      ],
      "stateMutability": "pure",
      "type": "function"
    }
  ],
  "bytecode": "0x6080604052348015600f57600080fd5b50608580601d6000396000f3fe6080604052348015600f57600080fd5b506004361060285760003560e01c806359e02dd714602d575b600080fd5b60408051670de0b6b3a764000081526001602082015281519081900390910190f3fea2646970667358221220c6c46eeba8bdd76705255418b429f0b5a201f49192011d05c670abe16b6b5ef164736f6c63430008180033",
  "linkReferences": {},
  "deployedLinkReferences": {}
}