{
  "_format": "hh-sol-artifact-1",
  "contractName": "TokenPriceProviderFake",
  "sourceName": "contracts/test/TokenPriceProviderFake.sol",
  "abi": [
    {
      "inputs": [],
      "stateMutability": "nonpayable",
      "type": "constructor"
    },
    {
      "inputs": [],
      "name": "peek",
      "outputs": [
        {
          "internalType": "bytes32",
          "name": "",
          "type": "bytes32"
        },
        {
          "internalType": "bool",
          "name": "",
          "type": "bool"
        }
      ],
      "stateMutability": "view",
      "type": "function"
    },
    {
      "inputs": [
        {
          "internalType": "uint256",
          "name": "_tokenPrice",
          "type": "uint256"
        }
      ],
      "name": "poke",
      "outputs": [],
      "stateMutability": "nonpayable",
      "type": "function"
    },
    {
      "inputs": [
        {
          "internalType": "bool",
          "name": "_has",
          "type": "bool"
        }
      ],
      "name": "pokeValidity",
      "outputs": [],
      "stateMutability": "nonpayable",
      "type": "function"
    }
  ],
  "bytecode": "0x608060405234801561001057600080fd5b50671bc16d674ec800006000556001805460ff191681179055610108806100386000396000f3fe6080604052348015600f57600080fd5b5060043610603c5760003560e01c806332145f9014604157806359e02dd7146053578063f68400b0146075575b600080fd5b6051604c3660046093565b600055565b005b60005460015460ff166040805192835290151560208301520160405180910390f35b6051608036600460ab565b6001805460ff1916911515919091179055565b60006020828403121560a457600080fd5b5035919050565b60006020828403121560bc57600080fd5b8135801515811460cb57600080fd5b939250505056fea264697066735822122038ad0f8a23c32999f1510608036947008aaa9b41d4d05ea04bcb6c013970e5a964736f6c63430008180033",
  "linkReferences": {},
  "deployedLinkReferences": {}
}