{
  "_format": "hh-sol-artifact-1",
  "contractName": "BlockableUpgradeDelegator",
  "sourceName": "contracts/Upgradeability/BlockableUpgradeDelegator.sol",
  "abi": [
    {
      "inputs": [
        {
          "internalType": "uint256",
          "name": "newUnblockDate",
          "type": "uint256"
        }
      ],
      "name": "blockUntil",
      "outputs": [],
      "stateMutability": "nonpayable",
      "type": "function"
    },
    {
      "inputs": [
        {
          "internalType": "contract IGovernor",
          "name": "newIGovernor",
          "type": "address"
        }
      ],
      "name": "changeIGovernor",
      "outputs": [],
      "stateMutability": "nonpayable",
      "type": "function"
    },
    {
      "inputs": [
        {
          "internalType": "contract AdminUpgradeabilityProxy",
          "name": "proxy",
          "type": "address"
        },
        {
          "internalType": "address",
          "name": "newAdmin",
          "type": "address"
        }
      ],
      "name": "changeProxyAdmin",
      "outputs": [],
      "stateMutability": "nonpayable",
      "type": "function"
    },
    {
      "inputs": [
        {
          "internalType": "contract AdminUpgradeabilityProxy",
          "name": "proxy",
          "type": "address"
        }
      ],
      "name": "getProxyAdmin",
      "outputs": [
        {
          "internalType": "address",
          "name": "",
          "type": "address"
        }
      ],
      "stateMutability": "view",
      "type": "function"
    },
    {
      "inputs": [
        {
          "internalType": "contract AdminUpgradeabilityProxy",
          "name": "proxy",
          "type": "address"
        }
      ],
      "name": "getProxyImplementation",
      "outputs": [
        {
          "internalType": "address",
          "name": "",
          "type": "address"
        }
      ],
      "stateMutability": "view",
      "type": "function"
    },
    {
      "inputs": [],
      "name": "governor",
      "outputs": [
        {
          "internalType": "contract IGovernor",
          "name": "",
          "type": "address"
        }
      ],
      "stateMutability": "view",
      "type": "function"
    },
    {
      "inputs": [
        {
          "internalType": "address",
          "name": "_governor",
          "type": "address"
        },
        {
          "internalType": "contract ProxyAdmin",
          "name": "_proxyAdmin",
          "type": "address"
        }
      ],
      "name": "initialize",
      "outputs": [],
      "stateMutability": "nonpayable",
      "type": "function"
    },
    {
      "inputs": [
        {
          "internalType": "address",
          "name": "_governor",
          "type": "address"
        }
      ],
      "name": "initialize",
      "outputs": [],
      "stateMutability": "nonpayable",
      "type": "function"
    },
    {
      "inputs": [
        {
          "internalType": "address",
          "name": "_owner",
          "type": "address"
        },
        {
          "internalType": "address",
          "name": "_governor",
          "type": "address"
        },
        {
          "internalType": "contract ProxyAdmin",
          "name": "_proxyAdmin",
          "type": "address"
        },
        {
          "internalType": "uint256",
          "name": "_firstUnblockDate",
          "type": "uint256"
        }
      ],
      "name": "initialize",
      "outputs": [],
      "stateMutability": "nonpayable",
      "type": "function"
    },
    {
      "inputs": [
        {
          "internalType": "uint256",
          "name": "_firstUnblockDate",
          "type": "uint256"
        }
      ],
      "name": "initialize",
      "outputs": [],
      "stateMutability": "nonpayable",
      "type": "function"
    },
    {
      "inputs": [
        {
          "internalType": "address",
          "name": "who",
          "type": "address"
        }
      ],
      "name": "isAuthorizedToBlock",
      "outputs": [
        {
          "internalType": "bool",
          "name": "",
          "type": "bool"
        }
      ],
      "stateMutability": "view",
      "type": "function"
    },
    {
      "inputs": [],
      "name": "isBlocked",
      "outputs": [
        {
          "internalType": "bool",
          "name": "",
          "type": "bool"
        }
      ],
      "stateMutability": "view",
      "type": "function"
    },
    {
      "inputs": [],
      "name": "proxyAdmin",
      "outputs": [
        {
          "internalType": "contract ProxyAdmin",
          "name": "",
          "type": "address"
        }
      ],
      "stateMutability": "view",
      "type": "function"
    },
    {
      "inputs": [],
      "name": "unblockDate",
      "outputs": [
        {
          "internalType": "uint256",
          "name": "",
          "type": "uint256"
        }
      ],
      "stateMutability": "view",
      "type": "function"
    },
    {
      "inputs": [
        {
          "internalType": "contract AdminUpgradeabilityProxy",
          "name": "proxy",
          "type": "address"
        },
        {
          "internalType": "address",
          "name": "implementation",
          "type": "address"
        }
      ],
      "name": "upgrade",
      "outputs": [],
      "stateMutability": "nonpayable",
      "type": "function"
    },
    {
      "inputs": [
        {
          "internalType": "contract AdminUpgradeabilityProxy",
          "name": "proxy",
          "type": "address"
        },
        {
          "internalType": "address",
          "name": "implementation",
          "type": "address"
        },
        {
          "internalType": "bytes",
          "name": "data",
          "type": "bytes"
        }
      ],
      "name": "upgradeAndCall",
      "outputs": [],
      "stateMutability": "payable",
      "type": "function"
    }
  ],
  "bytecode": "0x608060405234801561001057600080fd5b50610d82806100206000396000f3fe6080604052600436106100f35760003560e01c806399a88ec41161008a578063d75f0da711610059578063d75f0da71461029a578063f3b7dead146102b1578063f5691ef6146102d1578063fe4b84df146102f557600080fd5b806399a88ec41461021a578063b6e083301461023a578063c4d66de81461025a578063cf756fdf1461027a57600080fd5b80637eff275e116100c65780637eff275e14610197578063894a3d47146101b7578063924d7a2c146101d75780639623609d1461020757600080fd5b80630c340a24146100f8578063204e1c7a146101355780633e47158c14610155578063485cc95514610175575b600080fd5b34801561010457600080fd5b50603354610118906001600160a01b031681565b6040516001600160a01b0390911681526020015b60405180910390f35b34801561014157600080fd5b50610118610150366004610a7e565b610315565b34801561016157600080fd5b50606654610118906001600160a01b031681565b34801561018157600080fd5b50610195610190366004610aa2565b61038b565b005b3480156101a357600080fd5b506101956101b2366004610aa2565b610430565b3480156101c357600080fd5b506101956101d2366004610adb565b610483565b3480156101e357600080fd5b506101f76101f2366004610a7e565b610577565b604051901515815260200161012c565b610195610215366004610b0a565b6105e6565b34801561022657600080fd5b50610195610235366004610aa2565b610636565b34801561024657600080fd5b50610195610255366004610a7e565b610685565b34801561026657600080fd5b50610195610275366004610a7e565b6106af565b34801561028657600080fd5b50610195610295366004610be0565b610740565b3480156102a657600080fd5b5060675442106101f7565b3480156102bd57600080fd5b506101186102cc366004610a7e565b6107d6565b3480156102dd57600080fd5b506102e760675481565b60405190815260200161012c565b34801561030157600080fd5b50610195610310366004610adb565b610809565b6066546040516310270e3d60e11b81526001600160a01b038381166004830152600092169063204e1c7a906024015b602060405180830381865afa158015610361573d6000803e3d6000fd5b505050506040513d601f19601f820116820180604052508101906103859190610c31565b92915050565b600054610100900460ff16806103a05750303b155b806103ae575060005460ff16155b6103d35760405162461bcd60e51b81526004016103ca90610c4e565b60405180910390fd5b600054610100900460ff161580156103f5576000805461ffff19166101011790555b6103fe836106af565b606680546001600160a01b0319166001600160a01b038416179055801561042b576000805461ff00191690555b505050565b60675442101560405180604001604052806007815260200166189b1bd8dad95960ca1b815250906104745760405162461bcd60e51b81526004016103ca9190610ce2565b5061047f8282610884565b5050565b60675442101560405180604001604052806007815260200166189b1bd8dad95960ca1b815250906104c75760405162461bcd60e51b81526004016103ca9190610ce2565b506104d133610577565b6040518060400160405280601781526020017f6e6f745f617574686f72697a65645f746f5f626c6f636b000000000000000000815250906105255760405162461bcd60e51b81526004016103ca9190610ce2565b50804210604051806040016040528060118152602001707468726573686f6c645f746f6f5f6c6f7760781b815250906105715760405162461bcd60e51b81526004016103ca9190610ce2565b50606755565b60335460405163d994d6d560e01b81526001600160a01b038381166004830152600092169063d994d6d590602401602060405180830381865afa1580156105c2573d6000803e3d6000fd5b505050506040513d601f19601f820116820180604052508101906103859190610cf5565b60675442101560405180604001604052806007815260200166189b1bd8dad95960ca1b8152509061062a5760405162461bcd60e51b81526004016103ca9190610ce2565b5061042b8383836108f8565b60675442101560405180604001604052806007815260200166189b1bd8dad95960ca1b8152509061067a5760405162461bcd60e51b81526004016103ca9190610ce2565b5061047f828261096b565b61068d6109ad565b603380546001600160a01b0319166001600160a01b0392909216919091179055565b600054610100900460ff16806106c45750303b155b806106d2575060005460ff16155b6106ee5760405162461bcd60e51b81526004016103ca90610c4e565b600054610100900460ff16158015610710576000805461ffff19166101011790555b603380546001600160a01b0319166001600160a01b038416179055801561047f576000805461ff00191690555050565b600054610100900460ff16806107555750303b155b80610763575060005460ff16155b61077f5760405162461bcd60e51b81526004016103ca90610c4e565b600054610100900460ff161580156107a1576000805461ffff19166101011790555b6107aa856106af565b6107b4848461038b565b6107bd82610809565b80156107cf576000805461ff00191690555b5050505050565b60665460405163f3b7dead60e01b81526001600160a01b038381166004830152600092169063f3b7dead90602401610344565b600054610100900460ff168061081e5750303b155b8061082c575060005460ff16155b6108485760405162461bcd60e51b81526004016103ca90610c4e565b600054610100900460ff1615801561086a576000805461ffff19166101011790555b6067829055801561047f576000805461ff00191690555050565b61088c6109ad565b606654604051633f7f93af60e11b81526001600160a01b038481166004830152838116602483015290911690637eff275e906044015b600060405180830381600087803b1580156108dc57600080fd5b505af11580156108f0573d6000803e3d6000fd5b505050505050565b6109006109ad565b606654604051639623609d60e01b81526001600160a01b0390911690639623609d9061093490869086908690600401610d17565b600060405180830381600087803b15801561094e57600080fd5b505af1158015610962573d6000803e3d6000fd5b50505050505050565b6109736109ad565b60665460405163266a23b160e21b81526001600160a01b0384811660048301528381166024830152909116906399a88ec4906044016108c2565b60335460405163d994d6d560e01b81523360048201526001600160a01b039091169063d994d6d590602401602060405180830381865afa1580156109f5573d6000803e3d6000fd5b505050506040513d601f19601f82011682018060405250810190610a199190610cf5565b604051806040016040528060168152602001753737ba2fb0baba3437b934bd32b22fb1b430b733b2b960511b81525090610a665760405162461bcd60e51b81526004016103ca9190610ce2565b50565b6001600160a01b0381168114610a6657600080fd5b600060208284031215610a9057600080fd5b8135610a9b81610a69565b9392505050565b60008060408385031215610ab557600080fd5b8235610ac081610a69565b91506020830135610ad081610a69565b809150509250929050565b600060208284031215610aed57600080fd5b5035919050565b634e487b7160e01b600052604160045260246000fd5b600080600060608486031215610b1f57600080fd5b8335610b2a81610a69565b92506020840135610b3a81610a69565b9150604084013567ffffffffffffffff80821115610b5757600080fd5b818601915086601f830112610b6b57600080fd5b813581811115610b7d57610b7d610af4565b604051601f8201601f19908116603f01168101908382118183101715610ba557610ba5610af4565b81604052828152896020848701011115610bbe57600080fd5b8260208601602083013760006020848301015280955050505050509250925092565b60008060008060808587031215610bf657600080fd5b8435610c0181610a69565b93506020850135610c1181610a69565b92506040850135610c2181610a69565b9396929550929360600135925050565b600060208284031215610c4357600080fd5b8151610a9b81610a69565b6020808252602e908201527f436f6e747261637420696e7374616e63652068617320616c726561647920626560408201526d195b881a5b9a5d1a585b1a5e995960921b606082015260800190565b6000815180845260005b81811015610cc257602081850181015186830182015201610ca6565b506000602082860101526020601f19601f83011685010191505092915050565b602081526000610a9b6020830184610c9c565b600060208284031215610d0757600080fd5b81518015158114610a9b57600080fd5b6001600160a01b03848116825283166020820152606060408201819052600090610d4390830184610c9c565b9594505050505056fea2646970667358221220a549a604aa513ed9c82fd0cc9c2132737000d10e4020b874e2425e776d7936bc64736f6c63430008180033",
  "linkReferences": {},
  "deployedLinkReferences": {}
}