{
  "_format": "hh-sol-artifact-1",
  "contractName": "AddTokenPairChanger",
  "sourceName": "contracts/changers/AddTokenPairChanger.sol",
  "abi": [
    {
      "inputs": [
        {
          "internalType": "contract MoCDecentralizedExchange",
          "name": "_dex",
          "type": "address"
        },
        {
          "internalType": "address[]",
          "name": "_baseTokens",
          "type": "address[]"
        },
        {
          "internalType": "address[]",
          "name": "_secondaryTokens",
          "type": "address[]"
        },
        {
          "internalType": "address[]",
          "name": "_priceProviders",
          "type": "address[]"
        },
        {
          "internalType": "uint256[]",
          "name": "_precisions",
          "type": "uint256[]"
        },
        {
          "internalType": "uint256[]",
          "name": "_prices",
          "type": "uint256[]"
        }
      ],
      "stateMutability": "nonpayable",
      "type": "constructor"
    },
    {
      "inputs": [
        {
          "internalType": "uint256",
          "name": "",
          "type": "uint256"
        }
      ],
      "name": "baseTokens",
      "outputs": [
        {
          "internalType": "address",
          "name": "",
          "type": "address"
        }
      ],
      "stateMutability": "view",
      "type": "function"
    },
    {
      "inputs": [],
      "name": "dex",
      "outputs": [
        {
          "internalType": "contract MoCDecentralizedExchange",
          "name": "",
          "type": "address"
        }
      ],
      "stateMutability": "view",
      "type": "function"
    },
    {
      "inputs": [],
      "name": "execute",
      "outputs": [],
      "stateMutability": "nonpayable",
      "type": "function"
    },
    {
      "inputs": [
        {
          "internalType": "uint256",
          "name": "",
          "type": "uint256"
        }
      ],
      "name": "precisions",
      "outputs": [
        {
          "internalType": "uint256",
          "name": "",
          "type": "uint256"
        }
      ],
      "stateMutability": "view",
      "type": "function"
    },
    {
      "inputs": [
        {
          "internalType": "uint256",
          "name": "",
          "type": "uint256"
        }
      ],
      "name": "priceProviders",
      "outputs": [
        {
          "internalType": "address",
          "name": "",
          "type": "address"
        }
      ],
      "stateMutability": "view",
      "type": "function"
    },
    {
      "inputs": [
        {
          "internalType": "uint256",
          "name": "",
          "type": "uint256"
        }
      ],
      "name": "prices",
      "outputs": [
        {
          "internalType": "uint256",
          "name": "",
          "type": "uint256"
        }
      ],
      "stateMutability": "view",
      "type": "function"
    },
    {
      "inputs": [
        {
          "internalType": "uint256",
          "name": "",
          "type": "uint256"
        }
      ],
      "name": "secondaryTokens",
      "outputs": [
        {
          "internalType": "address",
          "name": "",
          "type": "address"
        }
      ],
      "stateMutability": "view",
      "type": "function"
    }
  ],
  "bytecode": "0x608060405234801561001057600080fd5b506040516107bc3803806107bc83398101604081905261002f91610358565b83518551148015610041575081518551145b801561004e575082518551145b6100b15760405162461bcd60e51b815260206004820152602a60248201527f416c6c20746872656520617272617973206d75737420686176652074686520736044820152690c2daca40d8cadccee8d60b31b606482015260840160405180910390fd5b600080546001600160a01b0319166001600160a01b03881617905584516100df90600190602088019061013b565b5083516100f390600290602087019061013b565b50825161010790600390602086019061013b565b50815161011b9060049060208501906101a0565b50805161012f9060059060208401906101a0565b50505050505050610439565b828054828255906000526020600020908101928215610190579160200282015b8281111561019057825182546001600160a01b0319166001600160a01b0390911617825560209092019160019091019061015b565b5061019c9291506101db565b5090565b828054828255906000526020600020908101928215610190579160200282015b828111156101905782518255916020019190600101906101c0565b5b8082111561019c57600081556001016101dc565b6001600160a01b038116811461020557600080fd5b50565b8051610213816101f0565b919050565b634e487b7160e01b600052604160045260246000fd5b604051601f8201601f191681016001600160401b038111828210171561025657610256610218565b604052919050565b60006001600160401b0382111561027757610277610218565b5060051b60200190565b600082601f83011261029257600080fd5b815160206102a76102a28361025e565b61022e565b8083825260208201915060208460051b8701019350868411156102c957600080fd5b602086015b848110156102ee5780516102e1816101f0565b83529183019183016102ce565b509695505050505050565b600082601f83011261030a57600080fd5b8151602061031a6102a28361025e565b8083825260208201915060208460051b87010193508684111561033c57600080fd5b602086015b848110156102ee5780518352918301918301610341565b60008060008060008060c0878903121561037157600080fd5b61037a87610208565b60208801519096506001600160401b038082111561039757600080fd5b6103a38a838b01610281565b965060408901519150808211156103b957600080fd5b6103c58a838b01610281565b955060608901519150808211156103db57600080fd5b6103e78a838b01610281565b945060808901519150808211156103fd57600080fd5b6104098a838b016102f9565b935060a089015191508082111561041f57600080fd5b5061042c89828a016102f9565b9150509295509295509295565b610374806104486000396000f3fe608060405234801561001057600080fd5b506004361061007d5760003560e01c8063692058c21161005b578063692058c2146100dd578063bc31c1c1146100f0578063fe6b802814610103578063fe706d7c1461011657600080fd5b8063328123a2146100825780633c09e2d4146100b257806361461954146100d3575b600080fd5b61009561009036600461030f565b610129565b6040516001600160a01b0390911681526020015b60405180910390f35b6100c56100c036600461030f565b610153565b6040519081526020016100a9565b6100db610174565b005b600054610095906001600160a01b031681565b6100c56100fe36600461030f565b6102df565b61009561011136600461030f565b6102ef565b61009561012436600461030f565b6102ff565b6001818154811061013957600080fd5b6000918252602090912001546001600160a01b0316905081565b6004818154811061016357600080fd5b600091825260209091200154905081565b60005b6001548110156102dc57600054600180546001600160a01b039092169163c520bc929190849081106101ab576101ab610328565b600091825260209091200154600280546001600160a01b0390921691859081106101d7576101d7610328565b600091825260209091200154600380546001600160a01b03909216918690811061020357610203610328565b600091825260209091200154600480546001600160a01b03909216918790811061022f5761022f610328565b90600052602060002001546005878154811061024d5761024d610328565b6000918252602090912001546040516001600160e01b031960e088901b1681526001600160a01b03958616600482015293851660248501529390911660448301526064820152608481019190915260a401600060405180830381600087803b1580156102b857600080fd5b505af11580156102cc573d6000803e3d6000fd5b5050600190920191506101779050565b50565b6005818154811061016357600080fd5b6003818154811061013957600080fd5b6002818154811061013957600080fd5b60006020828403121561032157600080fd5b5035919050565b634e487b7160e01b600052603260045260246000fdfea2646970667358221220e80a92bb0dd9336bc2258dd628b010c26c33f30b3cc7d907d0d7af2d9040728a64736f6c63430008180033",
  "linkReferences": {},
  "deployedLinkReferences": {}
}