{
  "_format": "hh-sol-artifact-1",
  "contractName": "MaxOrderLifespanChanger",
  "sourceName": "contracts/changers/MaxOrderLifespanChanger.sol",
  "abi": [
    {
      "inputs": [
        {
          "internalType": "contract RestrictiveOrderListing",
          "name": "_restrictiveOrderListing",
          "type": "address"
        },
        {
          "internalType": "uint64",
          "name": "_maxOrderLifespan",
          "type": "uint64"
        }
      ],
      "stateMutability": "nonpayable",
      "type": "constructor"
    },
    {
      "inputs": [],
      "name": "execute",
      "outputs": [],
      "stateMutability": "nonpayable",
      "type": "function"
    },
    {
      "inputs": [],
      "name": "maxOrderLifespan",
      "outputs": [
        {
          "internalType": "uint64",
          "name": "",
          "type": "uint64"
        }
      ],
      "stateMutability": "view",
      "type": "function"
    },
    {
      "inputs": [],
      "name": "restrictiveOrderListing",
      "outputs": [
        {
          "internalType": "contract RestrictiveOrderListing",
          "name": "",
          "type": "address"
        }
      ],
      "stateMutability": "view",
      "type": "function"
    }
  ],
  "bytecode": "0x608060405234801561001057600080fd5b5060405161022138038061022183398101604081905261002f91610067565b600080546001600160401b03909216600160a01b026001600160e01b03199092166001600160a01b03909316929092171790556100b9565b6000806040838503121561007a57600080fd5b82516001600160a01b038116811461009157600080fd5b60208401519092506001600160401b03811681146100ae57600080fd5b809150509250929050565b610159806100c86000396000f3fe608060405234801561001057600080fd5b50600436106100415760003560e01c8063237d9c8e14610046578063614619541461007f578063b293045e14610089575b600080fd5b60005461006190600160a01b900467ffffffffffffffff1681565b60405167ffffffffffffffff90911681526020015b60405180910390f35b6100876100b4565b005b60005461009c906001600160a01b031681565b6040516001600160a01b039091168152602001610076565b6000546040516389f1b1e360e01b8152600160a01b820467ffffffffffffffff1660048201526001600160a01b03909116906389f1b1e390602401600060405180830381600087803b15801561010957600080fd5b505af115801561011d573d6000803e3d6000fd5b5050505056fea2646970667358221220b975f50f5050b2b19ddd25688146778d007b14b0690d44beeee1e96b273e41a364736f6c63430008180033",
  "linkReferences": {},
  "deployedLinkReferences": {}
}