{"@openzeppelin/upgrades/contracts/upgradeability/BaseAdminUpgradeabilityProxy.sol":{"BaseAdminUpgradeabilityProxy":{"abi":[{"anonymous":false,"inputs":[{"indexed":false,"internalType":"address","name":"previousAdmin","type":"address"},{"indexed":false,"internalType":"address","name":"newAdmin","type":"address"}],"name":"AdminChanged","type":"event"},{"anonymous":false,"inputs":[{"indexed":true,"internalType":"address","name":"implementation","type":"address"}],"name":"Upgraded","type":"event"},{"inputs":[],"name":"_implementation","outputs":[{"internalType":"address","name":"impl","type":"address"}],"stateMutability":"view","type":"function"},{"inputs":[],"name":"admin","outputs":[{"internalType":"address","name":"","type":"address"}],"stateMutability":"nonpayable","type":"function"},{"inputs":[{"internalType":"address","name":"newAdmin","type":"address"}],"name":"changeAdmin","outputs":[],"stateMutability":"nonpayable","type":"function"},{"inputs":[],"name":"implementation","outputs":[{"internalType":"address","name":"","type":"address"}],"stateMutability":"nonpayable","type":"function"},{"inputs":[{"internalType":"address","name":"newImplementation","type":"address"}],"name":"upgradeTo","outputs":[],"stateMutability":"nonpayable","type":"function"},{"inputs":[{"internalType":"address","name":"newImplementation","type":"address"},{"internalType":"bytes","name":"data","type":"bytes"}],"name":"upgradeToAndCall","outputs":[],"stateMutability":"payable","type":"function"},{"stateMutability":"payable","type":"receive"}],"evm":{"bytecode":{"linkReferences":{},"object":"608060405234801561001057600080fd5b506105d6806100206000396000f3fe6080604052600436106100595760003560e01c80633659cfe61461006d5780634f1ef2861461008d57806359679b0f146100a05780635c60da1b146100da5780638f283970146100ef578063f851a4401461010f57600080fd5b3661006857610066610124565b005b600080fd5b34801561007957600080fd5b506100666100883660046104ab565b610144565b61006661009b3660046104cd565b610177565b3480156100ac57600080fd5b50600080516020610581833981519152545b6040516001600160a01b03909116815260200160405180910390f35b3480156100e657600080fd5b506100be61021c565b3480156100fb57600080fd5b5061006661010a3660046104ab565b610262565b34801561011b57600080fd5b506100be61036a565b61014261013d6000805160206105818339815191525490565b6103a5565b565b600080516020610561833981519152546001600160a01b0316330361016f5761016c816103c9565b50565b61016c610124565b600080516020610561833981519152546001600160a01b0316330361020f5761019f836103c9565b6000836001600160a01b031683836040516101bb929190610550565b600060405180830381855af49150503d80600081146101f6576040519150601f19603f3d011682016040523d82523d6000602084013e6101fb565b606091505b505090508061020957600080fd5b50505050565b610217610124565b505050565b60006102346000805160206105618339815191525490565b6001600160a01b0316330361025757506000805160206105818339815191525490565b61025f610124565b90565b600080516020610561833981519152546001600160a01b0316330361016f576001600160a01b0381166102fb5760405162461bcd60e51b815260206004820152603660248201527f43616e6e6f74206368616e6765207468652061646d696e206f6620612070726f604482015275787920746f20746865207a65726f206164647265737360501b60648201526084015b60405180910390fd5b7f7e644d79422f17c01e4894b5f4f588d331ebfa28653d42ae832dc59e38c9798f6103326000805160206105618339815191525490565b604080516001600160a01b03928316815291841660208301520160405180910390a161016c8160008051602061056183398151915255565b60006103826000805160206105618339815191525490565b6001600160a01b0316330361025757506000805160206105618339815191525490565b3660008037600080366000845af43d6000803e8080156103c4573d6000f35b3d6000fd5b6103d281610409565b6040516001600160a01b038216907fbc7cd75a20ee27fd9adebab32041f755214dbc6bffa90cc0225b39da2e5c2d3b90600090a250565b803b61047d5760405162461bcd60e51b815260206004820152603b60248201527f43616e6e6f742073657420612070726f787920696d706c656d656e746174696f60448201527f6e20746f2061206e6f6e2d636f6e74726163742061646472657373000000000060648201526084016102f2565b60008051602061058183398151915255565b80356001600160a01b03811681146104a657600080fd5b919050565b6000602082840312156104bd57600080fd5b6104c68261048f565b9392505050565b6000806000604084860312156104e257600080fd5b6104eb8461048f565b9250602084013567ffffffffffffffff8082111561050857600080fd5b818601915086601f83011261051c57600080fd5b81358181111561052b57600080fd5b87602082850101111561053d57600080fd5b6020830194508093505050509250925092565b818382376000910190815291905056feb53127684a568b3173ae13b9f8a6016e243e63b6e8ee1178d6a717850b5d6103360894a13ba1a3210667c828492db98dca3e2076cc3735a920a3ca505d382bbca2646970667358221220a7d7f79495b896ce0f001e0db1292ee318c5bea214b1a7126d73387ae9559b6e64736f6c63430008180033","opcodes":"PUSH1 0x80 PUSH1 0x40 MSTORE CALLVALUE DUP1 ISZERO PUSH2 0x10 JUMPI PUSH1 0x0 DUP1 REVERT JUMPDEST POP PUSH2 0x5D6 DUP1 PUSH2 0x20 PUSH1 0x0 CODECOPY PUSH1 0x0 RETURN INVALID PUSH1 0x80 PUSH1 0x40 MSTORE PUSH1 0x4 CALLDATASIZE LT PUSH2 0x59 JUMPI PUSH1 0x0 CALLDATALOAD PUSH1 0xE0 SHR DUP1 PUSH4 0x3659CFE6 EQ PUSH2 0x6D JUMPI DUP1 PUSH4 0x4F1EF286 EQ PUSH2 0x8D JUMPI DUP1 PUSH4 0x59679B0F EQ PUSH2 0xA0 JUMPI DUP1 PUSH4 0x5C60DA1B EQ PUSH2 0xDA JUMPI DUP1 PUSH4 0x8F283970 EQ PUSH2 0xEF JUMPI DUP1 PUSH4 0xF851A440 EQ PUSH2 0x10F JUMPI PUSH1 0x0 DUP1 REVERT JUMPDEST CALLDATASIZE PUSH2 0x68 JUMPI PUSH2 0x66 PUSH2 0x124 JUMP JUMPDEST STOP JUMPDEST PUSH1 0x0 DUP1 REVERT JUMPDEST CALLVALUE DUP1 ISZERO PUSH2 0x79 JUMPI PUSH1 0x0 DUP1 REVERT JUMPDEST POP PUSH2 0x66 PUSH2 0x88 CALLDATASIZE PUSH1 0x4 PUSH2 0x4AB JUMP JUMPDEST PUSH2 0x144 JUMP JUMPDEST PUSH2 0x66 PUSH2 0x9B CALLDATASIZE PUSH1 0x4 PUSH2 0x4CD JUMP JUMPDEST PUSH2 0x177 JUMP JUMPDEST CALLVALUE DUP1 ISZERO PUSH2 0xAC JUMPI PUSH1 0x0 DUP1 REVERT JUMPDEST POP PUSH1 0x0 DUP1 MLOAD PUSH1 0x20 PUSH2 0x581 DUP4 CODECOPY DUP2 MLOAD SWAP2 MSTORE SLOAD JUMPDEST PUSH1 0x40 MLOAD PUSH1 0x1 PUSH1 0x1 PUSH1 0xA0 SHL SUB SWAP1 SWAP2 AND DUP2 MSTORE PUSH1 0x20 ADD PUSH1 0x40 MLOAD DUP1 SWAP2 SUB SWAP1 RETURN JUMPDEST CALLVALUE DUP1 ISZERO PUSH2 0xE6 JUMPI PUSH1 0x0 DUP1 REVERT JUMPDEST POP PUSH2 0xBE PUSH2 0x21C JUMP JUMPDEST CALLVALUE DUP1 ISZERO PUSH2 0xFB JUMPI PUSH1 0x0 DUP1 REVERT JUMPDEST POP PUSH2 0x66 PUSH2 0x10A CALLDATASIZE PUSH1 0x4 PUSH2 0x4AB JUMP JUMPDEST PUSH2 0x262 JUMP JUMPDEST CALLVALUE DUP1 ISZERO PUSH2 0x11B JUMPI PUSH1 0x0 DUP1 REVERT JUMPDEST POP PUSH2 0xBE PUSH2 0x36A JUMP JUMPDEST PUSH2 0x142 PUSH2 0x13D PUSH1 0x0 DUP1 MLOAD PUSH1 0x20 PUSH2 0x581 DUP4 CODECOPY DUP2 MLOAD SWAP2 MSTORE SLOAD SWAP1 JUMP JUMPDEST PUSH2 0x3A5 JUMP JUMPDEST JUMP JUMPDEST PUSH1 0x0 DUP1 MLOAD PUSH1 0x20 PUSH2 0x561 DUP4 CODECOPY DUP2 MLOAD SWAP2 MSTORE SLOAD PUSH1 0x1 PUSH1 0x1 PUSH1 0xA0 SHL SUB AND CALLER SUB PUSH2 0x16F JUMPI PUSH2 0x16C DUP2 PUSH2 0x3C9 JUMP JUMPDEST POP JUMP JUMPDEST PUSH2 0x16C PUSH2 0x124 JUMP JUMPDEST PUSH1 0x0 DUP1 MLOAD PUSH1 0x20 PUSH2 0x561 DUP4 CODECOPY DUP2 MLOAD SWAP2 MSTORE SLOAD PUSH1 0x1 PUSH1 0x1 PUSH1 0xA0 SHL SUB AND CALLER SUB PUSH2 0x20F JUMPI PUSH2 0x19F DUP4 PUSH2 0x3C9 JUMP JUMPDEST PUSH1 0x0 DUP4 PUSH1 0x1 PUSH1 0x1 PUSH1 0xA0 SHL SUB AND DUP4 DUP4 PUSH1 0x40 MLOAD PUSH2 0x1BB SWAP3 SWAP2 SWAP1 PUSH2 0x550 JUMP JUMPDEST PUSH1 0x0 PUSH1 0x40 MLOAD DUP1 DUP4 SUB DUP2 DUP6 GAS DELEGATECALL SWAP2 POP POP RETURNDATASIZE DUP1 PUSH1 0x0 DUP2 EQ PUSH2 0x1F6 JUMPI PUSH1 0x40 MLOAD SWAP2 POP PUSH1 0x1F NOT PUSH1 0x3F RETURNDATASIZE ADD AND DUP3 ADD PUSH1 0x40 MSTORE RETURNDATASIZE DUP3 MSTORE RETURNDATASIZE PUSH1 0x0 PUSH1 0x20 DUP5 ADD RETURNDATACOPY PUSH2 0x1FB JUMP JUMPDEST PUSH1 0x60 SWAP2 POP JUMPDEST POP POP SWAP1 POP DUP1 PUSH2 0x209 JUMPI PUSH1 0x0 DUP1 REVERT JUMPDEST POP POP POP POP JUMP JUMPDEST PUSH2 0x217 PUSH2 0x124 JUMP JUMPDEST POP POP POP JUMP JUMPDEST PUSH1 0x0 PUSH2 0x234 PUSH1 0x0 DUP1 MLOAD PUSH1 0x20 PUSH2 0x561 DUP4 CODECOPY DUP2 MLOAD SWAP2 MSTORE SLOAD SWAP1 JUMP JUMPDEST PUSH1 0x1 PUSH1 0x1 PUSH1 0xA0 SHL SUB AND CALLER SUB PUSH2 0x257 JUMPI POP PUSH1 0x0 DUP1 MLOAD PUSH1 0x20 PUSH2 0x581 DUP4 CODECOPY DUP2 MLOAD SWAP2 MSTORE SLOAD SWAP1 JUMP JUMPDEST PUSH2 0x25F PUSH2 0x124 JUMP JUMPDEST SWAP1 JUMP JUMPDEST PUSH1 0x0 DUP1 MLOAD PUSH1 0x20 PUSH2 0x561 DUP4 CODECOPY DUP2 MLOAD SWAP2 MSTORE SLOAD PUSH1 0x1 PUSH1 0x1 PUSH1 0xA0 SHL SUB AND CALLER SUB PUSH2 0x16F JUMPI PUSH1 0x1 PUSH1 0x1 PUSH1 0xA0 SHL SUB DUP2 AND PUSH2 0x2FB JUMPI PUSH1 0x40 MLOAD PUSH3 0x461BCD PUSH1 0xE5 SHL DUP2 MSTORE PUSH1 0x20 PUSH1 0x4 DUP3 ADD MSTORE PUSH1 0x36 PUSH1 0x24 DUP3 ADD MSTORE PUSH32 0x43616E6E6F74206368616E6765207468652061646D696E206F6620612070726F PUSH1 0x44 DUP3 ADD MSTORE PUSH22 0x787920746F20746865207A65726F2061646472657373 PUSH1 0x50 SHL PUSH1 0x64 DUP3 ADD MSTORE PUSH1 0x84 ADD JUMPDEST PUSH1 0x40 MLOAD DUP1 SWAP2 SUB SWAP1 REVERT JUMPDEST PUSH32 0x7E644D79422F17C01E4894B5F4F588D331EBFA28653D42AE832DC59E38C9798F PUSH2 0x332 PUSH1 0x0 DUP1 MLOAD PUSH1 0x20 PUSH2 0x561 DUP4 CODECOPY DUP2 MLOAD SWAP2 MSTORE SLOAD SWAP1 JUMP JUMPDEST PUSH1 0x40 DUP1 MLOAD PUSH1 0x1 PUSH1 0x1 PUSH1 0xA0 SHL SUB SWAP3 DUP4 AND DUP2 MSTORE SWAP2 DUP5 AND PUSH1 0x20 DUP4 ADD MSTORE ADD PUSH1 0x40 MLOAD DUP1 SWAP2 SUB SWAP1 LOG1 PUSH2 0x16C DUP2 PUSH1 0x0 DUP1 MLOAD PUSH1 0x20 PUSH2 0x561 DUP4 CODECOPY DUP2 MLOAD SWAP2 MSTORE SSTORE JUMP JUMPDEST PUSH1 0x0 PUSH2 0x382 PUSH1 0x0 DUP1 MLOAD PUSH1 0x20 PUSH2 0x561 DUP4 CODECOPY DUP2 MLOAD SWAP2 MSTORE SLOAD SWAP1 JUMP JUMPDEST PUSH1 0x1 PUSH1 0x1 PUSH1 0xA0 SHL SUB AND CALLER SUB PUSH2 0x257 JUMPI POP PUSH1 0x0 DUP1 MLOAD PUSH1 0x20 PUSH2 0x561 DUP4 CODECOPY DUP2 MLOAD SWAP2 MSTORE SLOAD SWAP1 JUMP JUMPDEST CALLDATASIZE PUSH1 0x0 DUP1 CALLDATACOPY PUSH1 0x0 DUP1 CALLDATASIZE PUSH1 0x0 DUP5 GAS DELEGATECALL RETURNDATASIZE PUSH1 0x0 DUP1 RETURNDATACOPY DUP1 DUP1 ISZERO PUSH2 0x3C4 JUMPI RETURNDATASIZE PUSH1 0x0 RETURN JUMPDEST RETURNDATASIZE PUSH1 0x0 REVERT JUMPDEST PUSH2 0x3D2 DUP2 PUSH2 0x409 JUMP JUMPDEST PUSH1 0x40 MLOAD PUSH1 0x1 PUSH1 0x1 PUSH1 0xA0 SHL SUB DUP3 AND SWAP1 PUSH32 0xBC7CD75A20EE27FD9ADEBAB32041F755214DBC6BFFA90CC0225B39DA2E5C2D3B SWAP1 PUSH1 0x0 SWAP1 LOG2 POP JUMP JUMPDEST DUP1 EXTCODESIZE PUSH2 0x47D JUMPI PUSH1 0x40 MLOAD PUSH3 0x461BCD PUSH1 0xE5 SHL DUP2 MSTORE PUSH1 0x20 PUSH1 0x4 DUP3 ADD MSTORE PUSH1 0x3B PUSH1 0x24 DUP3 ADD MSTORE PUSH32 0x43616E6E6F742073657420612070726F787920696D706C656D656E746174696F PUSH1 0x44 DUP3 ADD MSTORE PUSH32 0x6E20746F2061206E6F6E2D636F6E747261637420616464726573730000000000 PUSH1 0x64 DUP3 ADD MSTORE PUSH1 0x84 ADD PUSH2 0x2F2 JUMP JUMPDEST PUSH1 0x0 DUP1 MLOAD PUSH1 0x20 PUSH2 0x581 DUP4 CODECOPY DUP2 MLOAD SWAP2 MSTORE SSTORE JUMP JUMPDEST DUP1 CALLDATALOAD PUSH1 0x1 PUSH1 0x1 PUSH1 0xA0 SHL SUB DUP2 AND DUP2 EQ PUSH2 0x4A6 JUMPI PUSH1 0x0 DUP1 REVERT JUMPDEST SWAP2 SWAP1 POP JUMP JUMPDEST PUSH1 0x0 PUSH1 0x20 DUP3 DUP5 SUB SLT ISZERO PUSH2 0x4BD JUMPI PUSH1 0x0 DUP1 REVERT JUMPDEST PUSH2 0x4C6 DUP3 PUSH2 0x48F JUMP JUMPDEST SWAP4 SWAP3 POP POP POP JUMP JUMPDEST PUSH1 0x0 DUP1 PUSH1 0x0 PUSH1 0x40 DUP5 DUP7 SUB SLT ISZERO PUSH2 0x4E2 JUMPI PUSH1 0x0 DUP1 REVERT JUMPDEST PUSH2 0x4EB DUP5 PUSH2 0x48F JUMP JUMPDEST SWAP3 POP PUSH1 0x20 DUP5 ADD CALLDATALOAD PUSH8 0xFFFFFFFFFFFFFFFF DUP1 DUP3 GT ISZERO PUSH2 0x508 JUMPI PUSH1 0x0 DUP1 REVERT JUMPDEST DUP2 DUP7 ADD SWAP2 POP DUP7 PUSH1 0x1F DUP4 ADD SLT PUSH2 0x51C JUMPI PUSH1 0x0 DUP1 REVERT JUMPDEST DUP2 CALLDATALOAD DUP2 DUP2 GT ISZERO PUSH2 0x52B JUMPI PUSH1 0x0 DUP1 REVERT JUMPDEST DUP8 PUSH1 0x20 DUP3 DUP6 ADD ADD GT ISZERO PUSH2 0x53D JUMPI PUSH1 0x0 DUP1 REVERT JUMPDEST PUSH1 0x20 DUP4 ADD SWAP5 POP DUP1 SWAP4 POP POP POP POP SWAP3 POP SWAP3 POP SWAP3 JUMP JUMPDEST DUP2 DUP4 DUP3 CALLDATACOPY PUSH1 0x0 SWAP2 ADD SWAP1 DUP2 MSTORE SWAP2 SWAP1 POP JUMP INVALID 0xB5 BALANCE 0x27 PUSH9 0x4A568B3173AE13B9F8 0xA6 ADD PUSH15 0x243E63B6E8EE1178D6A717850B5D61 SUB CALLDATASIZE ADDMOD SWAP5 LOG1 EXTCODESIZE LOG1 LOG3 0x21 MOD PUSH8 0xC828492DB98DCA3E KECCAK256 PUSH23 0xCC3735A920A3CA505D382BBCA2646970667358221220A7 0xD7 0xF7 SWAP5 SWAP6 0xB8 SWAP7 0xCE 0xF STOP 0x1E 0xD 0xB1 0x29 0x2E 0xE3 XOR 0xC5 0xBE LOG2 EQ 0xB1 0xA7 SLT PUSH14 0x73387AE9559B6E64736F6C634300 ADDMOD XOR STOP CALLER "},"methodIdentifiers":{"_implementation()":"59679b0f","admin()":"f851a440","changeAdmin(address)":"8f283970","implementation()":"5c60da1b","upgradeTo(address)":"3659cfe6","upgradeToAndCall(address,bytes)":"4f1ef286"}}}}}