{"@openzeppelin/upgrades/contracts/upgradeability/BaseUpgradeabilityProxy.sol":{"BaseUpgradeabilityProxy":{"abi":[{"anonymous":false,"inputs":[{"indexed":true,"internalType":"address","name":"implementation","type":"address"}],"name":"Upgraded","type":"event"},{"inputs":[],"name":"_implementation","outputs":[{"internalType":"address","name":"impl","type":"address"}],"stateMutability":"view","type":"function"},{"stateMutability":"payable","type":"receive"}],"evm":{"bytecode":{"linkReferences":{},"object":"608060405234801561001057600080fd5b50610103806100206000396000f3fe60806040526004361060205760003560e01c806359679b0f14603157600080fd5b36602c57602a607b565b005b600080fd5b348015603c57600080fd5b507f360894a13ba1a3210667c828492db98dca3e2076cc3735a920a3ca505d382bbc546040516001600160a01b03909116815260200160405180910390f35b60a860a47f360894a13ba1a3210667c828492db98dca3e2076cc3735a920a3ca505d382bbc5490565b60aa565b565b3660008037600080366000845af43d6000803e80801560c8573d6000f35b3d6000fdfea26469706673582212206e468d5af9f9291b9554d2235cf3a9dd0c12552a111ff69b58a97488dfc7652e64736f6c63430008180033","opcodes":"PUSH1 0x80 PUSH1 0x40 MSTORE CALLVALUE DUP1 ISZERO PUSH2 0x10 JUMPI PUSH1 0x0 DUP1 REVERT JUMPDEST POP PUSH2 0x103 DUP1 PUSH2 0x20 PUSH1 0x0 CODECOPY PUSH1 0x0 RETURN INVALID PUSH1 0x80 PUSH1 0x40 MSTORE PUSH1 0x4 CALLDATASIZE LT PUSH1 0x20 JUMPI PUSH1 0x0 CALLDATALOAD PUSH1 0xE0 SHR DUP1 PUSH4 0x59679B0F EQ PUSH1 0x31 JUMPI PUSH1 0x0 DUP1 REVERT JUMPDEST CALLDATASIZE PUSH1 0x2C JUMPI PUSH1 0x2A PUSH1 0x7B JUMP JUMPDEST STOP JUMPDEST PUSH1 0x0 DUP1 REVERT JUMPDEST CALLVALUE DUP1 ISZERO PUSH1 0x3C JUMPI PUSH1 0x0 DUP1 REVERT JUMPDEST POP PUSH32 0x360894A13BA1A3210667C828492DB98DCA3E2076CC3735A920A3CA505D382BBC SLOAD PUSH1 0x40 MLOAD PUSH1 0x1 PUSH1 0x1 PUSH1 0xA0 SHL SUB SWAP1 SWAP2 AND DUP2 MSTORE PUSH1 0x20 ADD PUSH1 0x40 MLOAD DUP1 SWAP2 SUB SWAP1 RETURN JUMPDEST PUSH1 0xA8 PUSH1 0xA4 PUSH32 0x360894A13BA1A3210667C828492DB98DCA3E2076CC3735A920A3CA505D382BBC SLOAD SWAP1 JUMP JUMPDEST PUSH1 0xAA JUMP JUMPDEST JUMP JUMPDEST CALLDATASIZE PUSH1 0x0 DUP1 CALLDATACOPY PUSH1 0x0 DUP1 CALLDATASIZE PUSH1 0x0 DUP5 GAS DELEGATECALL RETURNDATASIZE PUSH1 0x0 DUP1 RETURNDATACOPY DUP1 DUP1 ISZERO PUSH1 0xC8 JUMPI RETURNDATASIZE PUSH1 0x0 RETURN JUMPDEST RETURNDATASIZE PUSH1 0x0 REVERT INVALID LOG2 PUSH5 0x6970667358 0x22 SLT KECCAK256 PUSH15 0x468D5AF9F9291B9554D2235CF3A9DD 0xC SLT SSTORE 0x2A GT 0x1F 0xF6 SWAP12 PC 0xA9 PUSH21 0x88DFC7652E64736F6C634300081800330000000000 "},"methodIdentifiers":{"_implementation()":"59679b0f"}}}}}