{"contracts/Governance/BlockableGovernor.sol":{"BlockableGovernor":{"abi":[{"inputs":[{"internalType":"address","name":"owner","type":"address"}],"name":"OwnableInvalidOwner","type":"error"},{"inputs":[{"internalType":"address","name":"account","type":"address"}],"name":"OwnableUnauthorizedAccount","type":"error"},{"inputs":[],"name":"ReentrancyGuardReentrantCall","type":"error"},{"anonymous":false,"inputs":[{"indexed":true,"internalType":"address","name":"previousOwner","type":"address"},{"indexed":true,"internalType":"address","name":"newOwner","type":"address"}],"name":"OwnershipTransferred","type":"event"},{"inputs":[{"internalType":"uint256","name":"newUnblockDate","type":"uint256"}],"name":"blockUntil","outputs":[],"stateMutability":"nonpayable","type":"function"},{"inputs":[{"internalType":"contract ChangeContract","name":"changeContract","type":"address"}],"name":"executeChange","outputs":[],"stateMutability":"nonpayable","type":"function"},{"inputs":[{"internalType":"address","name":"_owner","type":"address"},{"internalType":"uint256","name":"_firstUnblockDate","type":"uint256"}],"name":"initialize","outputs":[],"stateMutability":"nonpayable","type":"function"},{"inputs":[{"internalType":"uint256","name":"_firstUnblockDate","type":"uint256"}],"name":"initialize","outputs":[],"stateMutability":"nonpayable","type":"function"},{"inputs":[{"internalType":"address","name":"_changer","type":"address"}],"name":"isAuthorizedChanger","outputs":[{"internalType":"bool","name":"","type":"bool"}],"stateMutability":"view","type":"function"},{"inputs":[{"internalType":"address","name":"who","type":"address"}],"name":"isAuthorizedToBlock","outputs":[{"internalType":"bool","name":"","type":"bool"}],"stateMutability":"view","type":"function"},{"inputs":[],"name":"isBlocked","outputs":[{"internalType":"bool","name":"","type":"bool"}],"stateMutability":"view","type":"function"},{"inputs":[],"name":"owner","outputs":[{"internalType":"address","name":"","type":"address"}],"stateMutability":"view","type":"function"},{"inputs":[],"name":"renounceOwnership","outputs":[],"stateMutability":"nonpayable","type":"function"},{"inputs":[{"internalType":"address","name":"newOwner","type":"address"}],"name":"transferOwnership","outputs":[],"stateMutability":"nonpayable","type":"function"},{"inputs":[],"name":"unblockDate","outputs":[{"internalType":"uint256","name":"","type":"uint256"}],"stateMutability":"view","type":"function"}],"evm":{"bytecode":{"linkReferences":{},"object":"608060405234801561001057600080fd5b506001600055338061003c57604051631e4fbdf760e01b81526000600482015260240160405180910390fd5b6100458161004b565b5061009d565b600180546001600160a01b038381166001600160a01b0319831681179093556040519116919082907f8be0079c531659141344cd1fd0a4f28419497f9722a3daafe3b4186f6b6457e090600090a35050565b6106c9806100ac6000396000f3fe608060405234801561001057600080fd5b50600436106100a95760003560e01c8063cd6dc68711610071578063cd6dc68714610130578063d75f0da714610143578063d994d6d5146100fe578063f2fde38b1461014d578063f5691ef614610160578063fe4b84df1461017757600080fd5b8063715018a6146100ae578063894a3d47146100b85780638c777e82146100cb5780638da5cb5b146100de578063924d7a2c146100fe575b600080fd5b6100b661018a565b005b6100b66100c6366004610578565b61019e565b6100b66100d93660046105a6565b6102a0565b6001546040516001600160a01b0390911681526020015b60405180910390f35b61012061010c3660046105a6565b6002546001600160a01b0390811691161490565b60405190151581526020016100f5565b6100b661013e3660046105ca565b6102f1565b6068544210610120565b6100b661015b3660046105a6565b61037b565b61016960685481565b6040519081526020016100f5565b6100b6610185366004610578565b6103b6565b610192610432565b61019c600061045f565b565b60685442101560405180604001604052806007815260200166189b1bd8dad95960ca1b815250906101eb5760405162461bcd60e51b81526004016101e291906105f6565b60405180910390fd5b506002546001600160a01b031633146040518060400160405280601781526020017f6e6f745f617574686f72697a65645f746f5f626c6f636b0000000000000000008152509061024e5760405162461bcd60e51b81526004016101e291906105f6565b50804210604051806040016040528060118152602001707468726573686f6c645f746f6f5f6c6f7760781b8152509061029a5760405162461bcd60e51b81526004016101e291906105f6565b50606855565b60685442101560405180604001604052806007815260200166189b1bd8dad95960ca1b815250906102e45760405162461bcd60e51b81526004016101e291906105f6565b506102ee816104b1565b50565b603554610100900460ff16806103065750303b155b80610314575060355460ff16155b6103305760405162461bcd60e51b81526004016101e290610645565b603554610100900460ff16158015610352576035805461ffff19166101011790555b61035b826103b6565b610364826103b6565b8015610376576035805461ff00191690555b505050565b610383610432565b6001600160a01b0381166103ad57604051631e4fbdf760e01b8152600060048201526024016101e2565b6102ee8161045f565b603554610100900460ff16806103cb5750303b155b806103d9575060355460ff16155b6103f55760405162461bcd60e51b81526004016101e290610645565b603554610100900460ff16158015610417576035805461ffff19166101011790555b6068829055801561042e576035805461ff00191690555b5050565b6001546001600160a01b0316331461019c5760405163118cdaa760e01b81523360048201526024016101e2565b600180546001600160a01b038381166001600160a01b0319831681179093556040519116919082907f8be0079c531659141344cd1fd0a4f28419497f9722a3daafe3b4186f6b6457e090600090a35050565b6104b961054e565b6104c1610432565b600280546001600160a01b0319166001600160a01b038316179055806001600160a01b031663614619546040518163ffffffff1660e01b8152600401600060405180830381600087803b15801561051757600080fd5b505af115801561052b573d6000803e3d6000fd5b50505050610544600280546001600160a01b0319169055565b6102ee6001600055565b60026000540361057157604051633ee5aeb560e01b815260040160405180910390fd5b6002600055565b60006020828403121561058a57600080fd5b5035919050565b6001600160a01b03811681146102ee57600080fd5b6000602082840312156105b857600080fd5b81356105c381610591565b9392505050565b600080604083850312156105dd57600080fd5b82356105e881610591565b946020939093013593505050565b60006020808352835180602085015260005b8181101561062457858101830151858201604001528201610608565b506000604082860101526040601f19601f8301168501019250505092915050565b6020808252602e908201527f436f6e747261637420696e7374616e63652068617320616c726561647920626560408201526d195b881a5b9a5d1a585b1a5e995960921b60608201526080019056fea264697066735822122087fe8e21093324e39e99dc0d14b8159de7ada03bdd73c6234c46a140d988951e64736f6c63430008180033","opcodes":"PUSH1 0x80 PUSH1 0x40 MSTORE CALLVALUE DUP1 ISZERO PUSH2 0x10 JUMPI PUSH1 0x0 DUP1 REVERT JUMPDEST POP PUSH1 0x1 PUSH1 0x0 SSTORE CALLER DUP1 PUSH2 0x3C JUMPI PUSH1 0x40 MLOAD PUSH4 0x1E4FBDF7 PUSH1 0xE0 SHL DUP2 MSTORE PUSH1 0x0 PUSH1 0x4 DUP3 ADD MSTORE PUSH1 0x24 ADD PUSH1 0x40 MLOAD DUP1 SWAP2 SUB SWAP1 REVERT JUMPDEST PUSH2 0x45 DUP2 PUSH2 0x4B JUMP JUMPDEST POP PUSH2 0x9D JUMP JUMPDEST PUSH1 0x1 DUP1 SLOAD PUSH1 0x1 PUSH1 0x1 PUSH1 0xA0 SHL SUB DUP4 DUP2 AND PUSH1 0x1 PUSH1 0x1 PUSH1 0xA0 SHL SUB NOT DUP4 AND DUP2 OR SWAP1 SWAP4 SSTORE PUSH1 0x40 MLOAD SWAP2 AND SWAP2 SWAP1 DUP3 SWAP1 PUSH32 0x8BE0079C531659141344CD1FD0A4F28419497F9722A3DAAFE3B4186F6B6457E0 SWAP1 PUSH1 0x0 SWAP1 LOG3 POP POP JUMP JUMPDEST PUSH2 0x6C9 DUP1 PUSH2 0xAC PUSH1 0x0 CODECOPY PUSH1 0x0 RETURN INVALID PUSH1 0x80 PUSH1 0x40 MSTORE CALLVALUE DUP1 ISZERO PUSH2 0x10 JUMPI PUSH1 0x0 DUP1 REVERT JUMPDEST POP PUSH1 0x4 CALLDATASIZE LT PUSH2 0xA9 JUMPI PUSH1 0x0 CALLDATALOAD PUSH1 0xE0 SHR DUP1 PUSH4 0xCD6DC687 GT PUSH2 0x71 JUMPI DUP1 PUSH4 0xCD6DC687 EQ PUSH2 0x130 JUMPI DUP1 PUSH4 0xD75F0DA7 EQ PUSH2 0x143 JUMPI DUP1 PUSH4 0xD994D6D5 EQ PUSH2 0xFE JUMPI DUP1 PUSH4 0xF2FDE38B EQ PUSH2 0x14D JUMPI DUP1 PUSH4 0xF5691EF6 EQ PUSH2 0x160 JUMPI DUP1 PUSH4 0xFE4B84DF EQ PUSH2 0x177 JUMPI PUSH1 0x0 DUP1 REVERT JUMPDEST DUP1 PUSH4 0x715018A6 EQ PUSH2 0xAE JUMPI DUP1 PUSH4 0x894A3D47 EQ PUSH2 0xB8 JUMPI DUP1 PUSH4 0x8C777E82 EQ PUSH2 0xCB JUMPI DUP1 PUSH4 0x8DA5CB5B EQ PUSH2 0xDE JUMPI DUP1 PUSH4 0x924D7A2C EQ PUSH2 0xFE JUMPI JUMPDEST PUSH1 0x0 DUP1 REVERT JUMPDEST PUSH2 0xB6 PUSH2 0x18A JUMP JUMPDEST STOP JUMPDEST PUSH2 0xB6 PUSH2 0xC6 CALLDATASIZE PUSH1 0x4 PUSH2 0x578 JUMP JUMPDEST PUSH2 0x19E JUMP JUMPDEST PUSH2 0xB6 PUSH2 0xD9 CALLDATASIZE PUSH1 0x4 PUSH2 0x5A6 JUMP JUMPDEST PUSH2 0x2A0 JUMP JUMPDEST PUSH1 0x1 SLOAD PUSH1 0x40 MLOAD PUSH1 0x1 PUSH1 0x1 PUSH1 0xA0 SHL SUB SWAP1 SWAP2 AND DUP2 MSTORE PUSH1 0x20 ADD JUMPDEST PUSH1 0x40 MLOAD DUP1 SWAP2 SUB SWAP1 RETURN JUMPDEST PUSH2 0x120 PUSH2 0x10C CALLDATASIZE PUSH1 0x4 PUSH2 0x5A6 JUMP JUMPDEST PUSH1 0x2 SLOAD PUSH1 0x1 PUSH1 0x1 PUSH1 0xA0 SHL SUB SWAP1 DUP2 AND SWAP2 AND EQ SWAP1 JUMP JUMPDEST PUSH1 0x40 MLOAD SWAP1 ISZERO ISZERO DUP2 MSTORE PUSH1 0x20 ADD PUSH2 0xF5 JUMP JUMPDEST PUSH2 0xB6 PUSH2 0x13E CALLDATASIZE PUSH1 0x4 PUSH2 0x5CA JUMP JUMPDEST PUSH2 0x2F1 JUMP JUMPDEST PUSH1 0x68 SLOAD TIMESTAMP LT PUSH2 0x120 JUMP JUMPDEST PUSH2 0xB6 PUSH2 0x15B CALLDATASIZE PUSH1 0x4 PUSH2 0x5A6 JUMP JUMPDEST PUSH2 0x37B JUMP JUMPDEST PUSH2 0x169 PUSH1 0x68 SLOAD DUP2 JUMP JUMPDEST PUSH1 0x40 MLOAD SWAP1 DUP2 MSTORE PUSH1 0x20 ADD PUSH2 0xF5 JUMP JUMPDEST PUSH2 0xB6 PUSH2 0x185 CALLDATASIZE PUSH1 0x4 PUSH2 0x578 JUMP JUMPDEST PUSH2 0x3B6 JUMP JUMPDEST PUSH2 0x192 PUSH2 0x432 JUMP JUMPDEST PUSH2 0x19C PUSH1 0x0 PUSH2 0x45F JUMP JUMPDEST JUMP JUMPDEST PUSH1 0x68 SLOAD TIMESTAMP LT ISZERO PUSH1 0x40 MLOAD DUP1 PUSH1 0x40 ADD PUSH1 0x40 MSTORE DUP1 PUSH1 0x7 DUP2 MSTORE PUSH1 0x20 ADD PUSH7 0x189B1BD8DAD959 PUSH1 0xCA SHL DUP2 MSTORE POP SWAP1 PUSH2 0x1EB JUMPI PUSH1 0x40 MLOAD PUSH3 0x461BCD PUSH1 0xE5 SHL DUP2 MSTORE PUSH1 0x4 ADD PUSH2 0x1E2 SWAP2 SWAP1 PUSH2 0x5F6 JUMP JUMPDEST PUSH1 0x40 MLOAD DUP1 SWAP2 SUB SWAP1 REVERT JUMPDEST POP PUSH1 0x2 SLOAD PUSH1 0x1 PUSH1 0x1 PUSH1 0xA0 SHL SUB AND CALLER EQ PUSH1 0x40 MLOAD DUP1 PUSH1 0x40 ADD PUSH1 0x40 MSTORE DUP1 PUSH1 0x17 DUP2 MSTORE PUSH1 0x20 ADD PUSH32 0x6E6F745F617574686F72697A65645F746F5F626C6F636B000000000000000000 DUP2 MSTORE POP SWAP1 PUSH2 0x24E JUMPI PUSH1 0x40 MLOAD PUSH3 0x461BCD PUSH1 0xE5 SHL DUP2 MSTORE PUSH1 0x4 ADD PUSH2 0x1E2 SWAP2 SWAP1 PUSH2 0x5F6 JUMP JUMPDEST POP DUP1 TIMESTAMP LT PUSH1 0x40 MLOAD DUP1 PUSH1 0x40 ADD PUSH1 0x40 MSTORE DUP1 PUSH1 0x11 DUP2 MSTORE PUSH1 0x20 ADD PUSH17 0x7468726573686F6C645F746F6F5F6C6F77 PUSH1 0x78 SHL DUP2 MSTORE POP SWAP1 PUSH2 0x29A JUMPI PUSH1 0x40 MLOAD PUSH3 0x461BCD PUSH1 0xE5 SHL DUP2 MSTORE PUSH1 0x4 ADD PUSH2 0x1E2 SWAP2 SWAP1 PUSH2 0x5F6 JUMP JUMPDEST POP PUSH1 0x68 SSTORE JUMP JUMPDEST PUSH1 0x68 SLOAD TIMESTAMP LT ISZERO PUSH1 0x40 MLOAD DUP1 PUSH1 0x40 ADD PUSH1 0x40 MSTORE DUP1 PUSH1 0x7 DUP2 MSTORE PUSH1 0x20 ADD PUSH7 0x189B1BD8DAD959 PUSH1 0xCA SHL DUP2 MSTORE POP SWAP1 PUSH2 0x2E4 JUMPI PUSH1 0x40 MLOAD PUSH3 0x461BCD PUSH1 0xE5 SHL DUP2 MSTORE PUSH1 0x4 ADD PUSH2 0x1E2 SWAP2 SWAP1 PUSH2 0x5F6 JUMP JUMPDEST POP PUSH2 0x2EE DUP2 PUSH2 0x4B1 JUMP JUMPDEST POP JUMP JUMPDEST PUSH1 0x35 SLOAD PUSH2 0x100 SWAP1 DIV PUSH1 0xFF AND DUP1 PUSH2 0x306 JUMPI POP ADDRESS EXTCODESIZE ISZERO JUMPDEST DUP1 PUSH2 0x314 JUMPI POP PUSH1 0x35 SLOAD PUSH1 0xFF AND ISZERO JUMPDEST PUSH2 0x330 JUMPI PUSH1 0x40 MLOAD PUSH3 0x461BCD PUSH1 0xE5 SHL DUP2 MSTORE PUSH1 0x4 ADD PUSH2 0x1E2 SWAP1 PUSH2 0x645 JUMP JUMPDEST PUSH1 0x35 SLOAD PUSH2 0x100 SWAP1 DIV PUSH1 0xFF AND ISZERO DUP1 ISZERO PUSH2 0x352 JUMPI PUSH1 0x35 DUP1 SLOAD PUSH2 0xFFFF NOT AND PUSH2 0x101 OR SWAP1 SSTORE JUMPDEST PUSH2 0x35B DUP3 PUSH2 0x3B6 JUMP JUMPDEST PUSH2 0x364 DUP3 PUSH2 0x3B6 JUMP JUMPDEST DUP1 ISZERO PUSH2 0x376 JUMPI PUSH1 0x35 DUP1 SLOAD PUSH2 0xFF00 NOT AND SWAP1 SSTORE JUMPDEST POP POP POP JUMP JUMPDEST PUSH2 0x383 PUSH2 0x432 JUMP JUMPDEST PUSH1 0x1 PUSH1 0x1 PUSH1 0xA0 SHL SUB DUP2 AND PUSH2 0x3AD JUMPI PUSH1 0x40 MLOAD PUSH4 0x1E4FBDF7 PUSH1 0xE0 SHL DUP2 MSTORE PUSH1 0x0 PUSH1 0x4 DUP3 ADD MSTORE PUSH1 0x24 ADD PUSH2 0x1E2 JUMP JUMPDEST PUSH2 0x2EE DUP2 PUSH2 0x45F JUMP JUMPDEST PUSH1 0x35 SLOAD PUSH2 0x100 SWAP1 DIV PUSH1 0xFF AND DUP1 PUSH2 0x3CB JUMPI POP ADDRESS EXTCODESIZE ISZERO JUMPDEST DUP1 PUSH2 0x3D9 JUMPI POP PUSH1 0x35 SLOAD PUSH1 0xFF AND ISZERO JUMPDEST PUSH2 0x3F5 JUMPI PUSH1 0x40 MLOAD PUSH3 0x461BCD PUSH1 0xE5 SHL DUP2 MSTORE PUSH1 0x4 ADD PUSH2 0x1E2 SWAP1 PUSH2 0x645 JUMP JUMPDEST PUSH1 0x35 SLOAD PUSH2 0x100 SWAP1 DIV PUSH1 0xFF AND ISZERO DUP1 ISZERO PUSH2 0x417 JUMPI PUSH1 0x35 DUP1 SLOAD PUSH2 0xFFFF NOT AND PUSH2 0x101 OR SWAP1 SSTORE JUMPDEST PUSH1 0x68 DUP3 SWAP1 SSTORE DUP1 ISZERO PUSH2 0x42E JUMPI PUSH1 0x35 DUP1 SLOAD PUSH2 0xFF00 NOT AND SWAP1 SSTORE JUMPDEST POP POP JUMP JUMPDEST PUSH1 0x1 SLOAD PUSH1 0x1 PUSH1 0x1 PUSH1 0xA0 SHL SUB AND CALLER EQ PUSH2 0x19C JUMPI PUSH1 0x40 MLOAD PUSH4 0x118CDAA7 PUSH1 0xE0 SHL DUP2 MSTORE CALLER PUSH1 0x4 DUP3 ADD MSTORE PUSH1 0x24 ADD PUSH2 0x1E2 JUMP JUMPDEST PUSH1 0x1 DUP1 SLOAD PUSH1 0x1 PUSH1 0x1 PUSH1 0xA0 SHL SUB DUP4 DUP2 AND PUSH1 0x1 PUSH1 0x1 PUSH1 0xA0 SHL SUB NOT DUP4 AND DUP2 OR SWAP1 SWAP4 SSTORE PUSH1 0x40 MLOAD SWAP2 AND SWAP2 SWAP1 DUP3 SWAP1 PUSH32 0x8BE0079C531659141344CD1FD0A4F28419497F9722A3DAAFE3B4186F6B6457E0 SWAP1 PUSH1 0x0 SWAP1 LOG3 POP POP JUMP JUMPDEST PUSH2 0x4B9 PUSH2 0x54E JUMP JUMPDEST PUSH2 0x4C1 PUSH2 0x432 JUMP JUMPDEST PUSH1 0x2 DUP1 SLOAD PUSH1 0x1 PUSH1 0x1 PUSH1 0xA0 SHL SUB NOT AND PUSH1 0x1 PUSH1 0x1 PUSH1 0xA0 SHL SUB DUP4 AND OR SWAP1 SSTORE DUP1 PUSH1 0x1 PUSH1 0x1 PUSH1 0xA0 SHL SUB AND PUSH4 0x61461954 PUSH1 0x40 MLOAD DUP2 PUSH4 0xFFFFFFFF AND PUSH1 0xE0 SHL DUP2 MSTORE PUSH1 0x4 ADD PUSH1 0x0 PUSH1 0x40 MLOAD DUP1 DUP4 SUB DUP2 PUSH1 0x0 DUP8 DUP1 EXTCODESIZE ISZERO DUP1 ISZERO PUSH2 0x517 JUMPI PUSH1 0x0 DUP1 REVERT JUMPDEST POP GAS CALL ISZERO DUP1 ISZERO PUSH2 0x52B JUMPI RETURNDATASIZE PUSH1 0x0 DUP1 RETURNDATACOPY RETURNDATASIZE PUSH1 0x0 REVERT JUMPDEST POP POP POP POP PUSH2 0x544 PUSH1 0x2 DUP1 SLOAD PUSH1 0x1 PUSH1 0x1 PUSH1 0xA0 SHL SUB NOT AND SWAP1 SSTORE JUMP JUMPDEST PUSH2 0x2EE PUSH1 0x1 PUSH1 0x0 SSTORE JUMP JUMPDEST PUSH1 0x2 PUSH1 0x0 SLOAD SUB PUSH2 0x571 JUMPI PUSH1 0x40 MLOAD PUSH4 0x3EE5AEB5 PUSH1 0xE0 SHL DUP2 MSTORE PUSH1 0x4 ADD PUSH1 0x40 MLOAD DUP1 SWAP2 SUB SWAP1 REVERT JUMPDEST PUSH1 0x2 PUSH1 0x0 SSTORE JUMP JUMPDEST PUSH1 0x0 PUSH1 0x20 DUP3 DUP5 SUB SLT ISZERO PUSH2 0x58A JUMPI PUSH1 0x0 DUP1 REVERT JUMPDEST POP CALLDATALOAD SWAP2 SWAP1 POP JUMP JUMPDEST PUSH1 0x1 PUSH1 0x1 PUSH1 0xA0 SHL SUB DUP2 AND DUP2 EQ PUSH2 0x2EE JUMPI PUSH1 0x0 DUP1 REVERT JUMPDEST PUSH1 0x0 PUSH1 0x20 DUP3 DUP5 SUB SLT ISZERO PUSH2 0x5B8 JUMPI PUSH1 0x0 DUP1 REVERT JUMPDEST DUP2 CALLDATALOAD PUSH2 0x5C3 DUP2 PUSH2 0x591 JUMP JUMPDEST SWAP4 SWAP3 POP POP POP JUMP JUMPDEST PUSH1 0x0 DUP1 PUSH1 0x40 DUP4 DUP6 SUB SLT ISZERO PUSH2 0x5DD JUMPI PUSH1 0x0 DUP1 REVERT JUMPDEST DUP3 CALLDATALOAD PUSH2 0x5E8 DUP2 PUSH2 0x591 JUMP JUMPDEST SWAP5 PUSH1 0x20 SWAP4 SWAP1 SWAP4 ADD CALLDATALOAD SWAP4 POP POP POP JUMP JUMPDEST PUSH1 0x0 PUSH1 0x20 DUP1 DUP4 MSTORE DUP4 MLOAD DUP1 PUSH1 0x20 DUP6 ADD MSTORE PUSH1 0x0 JUMPDEST DUP2 DUP2 LT ISZERO PUSH2 0x624 JUMPI DUP6 DUP2 ADD DUP4 ADD MLOAD DUP6 DUP3 ADD PUSH1 0x40 ADD MSTORE DUP3 ADD PUSH2 0x608 JUMP JUMPDEST POP PUSH1 0x0 PUSH1 0x40 DUP3 DUP7 ADD ADD MSTORE PUSH1 0x40 PUSH1 0x1F NOT PUSH1 0x1F DUP4 ADD AND DUP6 ADD ADD SWAP3 POP POP POP SWAP3 SWAP2 POP POP JUMP JUMPDEST PUSH1 0x20 DUP1 DUP3 MSTORE PUSH1 0x2E SWAP1 DUP3 ADD MSTORE PUSH32 0x436F6E747261637420696E7374616E63652068617320616C7265616479206265 PUSH1 0x40 DUP3 ADD MSTORE PUSH14 0x195B881A5B9A5D1A585B1A5E9959 PUSH1 0x92 SHL PUSH1 0x60 DUP3 ADD MSTORE PUSH1 0x80 ADD SWAP1 JUMP INVALID LOG2 PUSH5 0x6970667358 0x22 SLT KECCAK256 DUP8 INVALID DUP15 0x21 MULMOD CALLER 0x24 0xE3 SWAP15 SWAP10 0xDC 0xD EQ 0xB8 ISZERO SWAP14 0xE7 0xAD LOG0 EXTCODESIZE 0xDD PUSH20 0xC6234C46A140D988951E64736F6C634300081800 CALLER "},"methodIdentifiers":{"blockUntil(uint256)":"894a3d47","executeChange(address)":"8c777e82","initialize(address,uint256)":"cd6dc687","initialize(uint256)":"fe4b84df","isAuthorizedChanger(address)":"d994d6d5","isAuthorizedToBlock(address)":"924d7a2c","isBlocked()":"d75f0da7","owner()":"8da5cb5b","renounceOwnership()":"715018a6","transferOwnership(address)":"f2fde38b","unblockDate()":"f5691ef6"}}}}}