{"contracts/CommissionManager.sol":{"CommissionManager":{"abi":[{"inputs":[],"stateMutability":"nonpayable","type":"constructor"},{"inputs":[{"internalType":"address","name":"owner","type":"address"}],"name":"OwnableInvalidOwner","type":"error"},{"inputs":[{"internalType":"address","name":"account","type":"address"}],"name":"OwnableUnauthorizedAccount","type":"error"},{"anonymous":false,"inputs":[{"indexed":true,"internalType":"address","name":"previousOwner","type":"address"},{"indexed":true,"internalType":"address","name":"newOwner","type":"address"}],"name":"OwnershipTransferred","type":"event"},{"inputs":[],"name":"RATE_PRECISION","outputs":[{"internalType":"uint256","name":"","type":"uint256"}],"stateMutability":"view","type":"function"},{"inputs":[],"name":"beneficiaryAddress","outputs":[{"internalType":"address","name":"","type":"address"}],"stateMutability":"view","type":"function"},{"inputs":[{"internalType":"uint256","name":"_amount","type":"uint256"},{"internalType":"uint256","name":"_price","type":"uint256"}],"name":"calculateInitialFee","outputs":[{"internalType":"uint256","name":"","type":"uint256"}],"stateMutability":"view","type":"function"},{"inputs":[],"name":"cancelationPenaltyRate","outputs":[{"internalType":"uint256","name":"","type":"uint256"}],"stateMutability":"view","type":"function"},{"inputs":[{"internalType":"contract IGovernor","name":"newIGovernor","type":"address"}],"name":"changeIGovernor","outputs":[],"stateMutability":"nonpayable","type":"function"},{"inputs":[{"internalType":"uint256","name":"_orderAmount","type":"uint256"},{"internalType":"uint256","name":"_matchedAmount","type":"uint256"},{"internalType":"uint256","name":"_commission","type":"uint256"},{"internalType":"address","name":"_tokenAddress","type":"address"}],"name":"chargeCommissionForMatch","outputs":[{"internalType":"uint256","name":"","type":"uint256"}],"stateMutability":"nonpayable","type":"function"},{"inputs":[{"internalType":"uint256","name":"_commission","type":"uint256"},{"internalType":"address","name":"_tokenAddress","type":"address"},{"internalType":"bool","name":"_isExpiration","type":"bool"}],"name":"chargeExceptionalCommission","outputs":[{"internalType":"uint256","name":"","type":"uint256"}],"stateMutability":"nonpayable","type":"function"},{"inputs":[{"internalType":"address","name":"_tokenAddress","type":"address"}],"name":"clearExchangeCommissions","outputs":[],"stateMutability":"nonpayable","type":"function"},{"inputs":[],"name":"commissionRate","outputs":[{"internalType":"uint256","name":"","type":"uint256"}],"stateMutability":"view","type":"function"},{"inputs":[{"internalType":"address","name":"","type":"address"}],"name":"exchangeCommissions","outputs":[{"internalType":"uint256","name":"","type":"uint256"}],"stateMutability":"view","type":"function"},{"inputs":[],"name":"expirationPenaltyRate","outputs":[{"internalType":"uint256","name":"","type":"uint256"}],"stateMutability":"view","type":"function"},{"inputs":[],"name":"governor","outputs":[{"internalType":"contract IGovernor","name":"","type":"address"}],"stateMutability":"view","type":"function"},{"inputs":[{"internalType":"address","name":"_governor","type":"address"}],"name":"initialize","outputs":[],"stateMutability":"nonpayable","type":"function"},{"inputs":[{"internalType":"address","name":"_beneficiaryAddress","type":"address"},{"internalType":"uint256","name":"_commissionRate","type":"uint256"},{"internalType":"uint256","name":"_cancelationPenaltyRate","type":"uint256"},{"internalType":"uint256","name":"_expirationPenaltyRate","type":"uint256"},{"internalType":"address","name":"_governor","type":"address"},{"internalType":"address","name":"_owner","type":"address"},{"internalType":"uint256","name":"_minimumCommission","type":"uint256"}],"name":"initialize","outputs":[],"stateMutability":"nonpayable","type":"function"},{"inputs":[],"name":"minimumCommission","outputs":[{"internalType":"uint256","name":"","type":"uint256"}],"stateMutability":"view","type":"function"},{"inputs":[],"name":"owner","outputs":[{"internalType":"address","name":"","type":"address"}],"stateMutability":"view","type":"function"},{"inputs":[],"name":"renounceOwnership","outputs":[],"stateMutability":"nonpayable","type":"function"},{"inputs":[{"internalType":"address","name":"_beneficiaryAddress","type":"address"}],"name":"setBeneficiaryAddress","outputs":[],"stateMutability":"nonpayable","type":"function"},{"inputs":[{"internalType":"uint256","name":"_cancelationPenaltyRate","type":"uint256"}],"name":"setCancelationPenaltyRate","outputs":[],"stateMutability":"nonpayable","type":"function"},{"inputs":[{"internalType":"uint256","name":"_commissionRate","type":"uint256"}],"name":"setCommissionRate","outputs":[],"stateMutability":"nonpayable","type":"function"},{"inputs":[{"internalType":"uint256","name":"_expirationPenaltyRate","type":"uint256"}],"name":"setExpirationPenaltyRate","outputs":[],"stateMutability":"nonpayable","type":"function"},{"inputs":[{"internalType":"uint256","name":"_minimumCommission","type":"uint256"}],"name":"setMinimumCommission","outputs":[],"stateMutability":"nonpayable","type":"function"},{"inputs":[{"internalType":"address","name":"newOwner","type":"address"}],"name":"transferOwnership","outputs":[],"stateMutability":"nonpayable","type":"function"}],"evm":{"bytecode":{"linkReferences":{},"object":"608060405234801561001057600080fd5b50338061003757604051631e4fbdf760e01b81526000600482015260240160405180910390fd5b61004081610046565b50610098565b606680546001600160a01b038381166001600160a01b0319831681179093556040519116919082907f8be0079c531659141344cd1fd0a4f28419497f9722a3daafe3b4186f6b6457e090600090a35050565b610edb806100a76000396000f3fe608060405234801561001057600080fd5b506004361061014d5760003560e01c8063715018a6116100c3578063cb5f03481161007c578063cb5f034814610289578063d9c4870e1461029c578063e3866c9a146102af578063ec6be06e146102c2578063ed25c27a146102d5578063f2fde38b146102f557600080fd5b8063715018a61461022457806378b298f41461022c5780638da5cb5b1461023f578063b6e0833014610250578063c4d66de814610263578063ca1fa2fd1461027657600080fd5b80632b3ba681116101155780632b3ba681146101ca578063315959e3146101d9578063478dedbb146101ec5780635ea1d6f8146101ff5780636514aaca14610208578063698f313e1461021157600080fd5b806305bfe69514610152578063084cb5dc1461016e5780630b78716a146101775780630c340a241461018a57806319fac8fd146101b5575b600080fd5b61015b606b5481565b6040519081526020015b60405180910390f35b61015b606a5481565b61015b610185366004610bb5565b610308565b60335461019d906001600160a01b031681565b6040516001600160a01b039091168152602001610165565b6101c86101c3366004610bf6565b610381565b005b61015b670de0b6b3a764000081565b6101c86101e7366004610bf6565b6103c1565b61015b6101fa366004610c1d565b6103f8565b61015b60695481565b61015b606c5481565b6101c861021f366004610bf6565b610425565b6101c8610432565b61015b61023a366004610c5f565b610446565b6066546001600160a01b031661019d565b6101c861025e366004610c81565b6104a6565b6101c8610271366004610c81565b6104d0565b6101c8610284366004610c81565b610562565b6101c8610297366004610bf6565b610584565b60685461019d906001600160a01b031681565b6101c86102bd366004610c9e565b6105bb565b6101c86102d0366004610c81565b6108d8565b61015b6102e3366004610c81565b60676020526000908152604090205481565b6101c8610303366004610c81565b610962565b60006103126109a0565b8385101561032257610322610d10565b60006103388661033287876109cd565b90610a03565b6001600160a01b03841660009081526067602052604090205490915061035e9082610a16565b6001600160a01b0384166000908152606760205260409020559050949350505050565b610389610a34565b80670de0b6b3a76400008111156103bb5760405162461bcd60e51b81526004016103b290610d26565b60405180910390fd5b50606955565b6103c9610a34565b80670de0b6b3a76400008111156103f25760405162461bcd60e51b81526004016103b290610d26565b50606b55565b60006104026109a0565b61041d848361041357606a54610417565b606b545b85610aed565b949350505050565b61042d610a34565b606c55565b61043a6109a0565b6104446000610b4e565b565b60008061046a83610332670de0b6b3a7640000606c546109cd90919063ffffffff16565b9050600061048f670de0b6b3a7640000610332606954886109cd90919063ffffffff16565b905061049b8282610a16565b925050505b92915050565b6104ae610a34565b603380546001600160a01b0319166001600160a01b0392909216919091179055565b600054610100900460ff16806104e55750303b155b806104f3575060005460ff16155b61050f5760405162461bcd60e51b81526004016103b290610d68565b600054610100900460ff16158015610531576000805461ffff19166101011790555b603380546001600160a01b0319166001600160a01b038416179055801561055e576000805461ff00191690555b5050565b61056a6109a0565b6001600160a01b0316600090815260676020526040812055565b61058c610a34565b80670de0b6b3a76400008111156105b55760405162461bcd60e51b81526004016103b290610d26565b50606a55565b600054610100900460ff16806105d05750303b155b806105de575060005460ff16155b6105fa5760405162461bcd60e51b81526004016103b290610d68565b600054610100900460ff1615801561061c576000805461ffff19166101011790555b87604051806060016040528060218152602001610e8560219139806001600160a01b03831661065e5760405162461bcd60e51b81526004016103b29190610db6565b5060408051808201909152601781527f676f7665726e6f722063616e6e6f74206265206e756c6c00000000000000000060208201528690806001600160a01b0383166106bd5760405162461bcd60e51b81526004016103b29190610db6565b506040805180820190915260148152731bdddb995c8818d85b9b9bdd081899481b9d5b1b60621b60208201528790806001600160a01b0383166107135760405162461bcd60e51b81526004016103b29190610db6565b50670de0b6b3a76400008d11156107815760405162461bcd60e51b815260206004820152602c60248201527f636f6d6d697373696f6e526174652073686f756c6420746f20626520696e207260448201526b656c6174696f6e20746f203160a01b60648201526084016103b2565b670de0b6b3a76400008c11156107f65760405162461bcd60e51b815260206004820152603460248201527f63616e63656c6174696f6e50656e616c7479526174652073686f756c6420746f60448201527320626520696e2072656c6174696f6e20746f203160601b60648201526084016103b2565b670de0b6b3a76400008b111561086a5760405162461bcd60e51b815260206004820152603360248201527f65787069726174696f6e50656e616c7479526174652073686f756c6420746f20604482015272626520696e2072656c6174696f6e20746f203160681b60648201526084016103b2565b8d606860006101000a8154816001600160a01b0302191690836001600160a01b031602179055508c60698190555087606c819055508b606a819055508a606b819055506108b68a6104d0565b50505050505080156108ce576000805461ff00191690555b5050505050505050565b6108e0610a34565b6001600160a01b0381166109405760405162461bcd60e51b815260206004820152602160248201527f62656e6566696369617279416464726573732063616e6e6f74206265206e756c6044820152601b60fa1b60648201526084016103b2565b606880546001600160a01b0319166001600160a01b0392909216919091179055565b61096a6109a0565b6001600160a01b03811661099457604051631e4fbdf760e01b8152600060048201526024016103b2565b61099d81610b4e565b50565b6066546001600160a01b031633146104445760405163118cdaa760e01b81523360048201526024016103b2565b6000826000036109df575060006104a0565b6109e98284610e1b565b9050816109f68483610e32565b146104a0576104a0610d10565b6000610a0f8284610e32565b9392505050565b6000610a228284610e54565b9050828110156104a0576104a0610d10565b60335460405163d994d6d560e01b81523360048201526001600160a01b039091169063d994d6d590602401602060405180830381865afa158015610a7c573d6000803e3d6000fd5b505050506040513d601f19601f82011682018060405250810190610aa09190610e67565b604051806040016040528060168152602001753737ba2fb0baba3437b934bd32b22fb1b430b733b2b960511b8152509061099d5760405162461bcd60e51b81526004016103b29190610db6565b600080610b06670de0b6b3a764000061033287876109cd565b6001600160a01b038416600090815260676020526040902054909150610b2c9082610a16565b6001600160a01b03841660009081526067602052604090205590509392505050565b606680546001600160a01b038381166001600160a01b0319831681179093556040519116919082907f8be0079c531659141344cd1fd0a4f28419497f9722a3daafe3b4186f6b6457e090600090a35050565b6001600160a01b038116811461099d57600080fd5b60008060008060808587031215610bcb57600080fd5b8435935060208501359250604085013591506060850135610beb81610ba0565b939692955090935050565b600060208284031215610c0857600080fd5b5035919050565b801515811461099d57600080fd5b600080600060608486031215610c3257600080fd5b833592506020840135610c4481610ba0565b91506040840135610c5481610c0f565b809150509250925092565b60008060408385031215610c7257600080fd5b50508035926020909101359150565b600060208284031215610c9357600080fd5b8135610a0f81610ba0565b600080600080600080600060e0888a031215610cb957600080fd5b8735610cc481610ba0565b96506020880135955060408801359450606088013593506080880135610ce981610ba0565b925060a0880135610cf981610ba0565b8092505060c0880135905092959891949750929550565b634e487b7160e01b600052600160045260246000fd5b60208082526022908201527f726174652073686f756c6420746f20626520696e2072656c6174696f6e20746f604082015261203160f01b606082015260800190565b6020808252602e908201527f436f6e747261637420696e7374616e63652068617320616c726561647920626560408201526d195b881a5b9a5d1a585b1a5e995960921b606082015260800190565b60006020808352835180602085015260005b81811015610de457858101830151858201604001528201610dc8565b506000604082860101526040601f19601f8301168501019250505092915050565b634e487b7160e01b600052601160045260246000fd5b80820281158282048414176104a0576104a0610e05565b600082610e4f57634e487b7160e01b600052601260045260246000fd5b500490565b808201808211156104a0576104a0610e05565b600060208284031215610e7957600080fd5b8151610a0f81610c0f56fe62656e6566696369617279416464726573732063616e6e6f74206265206e756c6ca2646970667358221220a1bb444d8cf9c84f4a2dffe132f88b0ca36c403ccb52164b24df60b578977a4064736f6c63430008180033","opcodes":"PUSH1 0x80 PUSH1 0x40 MSTORE CALLVALUE DUP1 ISZERO PUSH2 0x10 JUMPI PUSH1 0x0 DUP1 REVERT JUMPDEST POP CALLER DUP1 PUSH2 0x37 JUMPI PUSH1 0x40 MLOAD PUSH4 0x1E4FBDF7 PUSH1 0xE0 SHL DUP2 MSTORE PUSH1 0x0 PUSH1 0x4 DUP3 ADD MSTORE PUSH1 0x24 ADD PUSH1 0x40 MLOAD DUP1 SWAP2 SUB SWAP1 REVERT JUMPDEST PUSH2 0x40 DUP2 PUSH2 0x46 JUMP JUMPDEST POP PUSH2 0x98 JUMP JUMPDEST PUSH1 0x66 DUP1 SLOAD PUSH1 0x1 PUSH1 0x1 PUSH1 0xA0 SHL SUB DUP4 DUP2 AND PUSH1 0x1 PUSH1 0x1 PUSH1 0xA0 SHL SUB NOT DUP4 AND DUP2 OR SWAP1 SWAP4 SSTORE PUSH1 0x40 MLOAD SWAP2 AND SWAP2 SWAP1 DUP3 SWAP1 PUSH32 0x8BE0079C531659141344CD1FD0A4F28419497F9722A3DAAFE3B4186F6B6457E0 SWAP1 PUSH1 0x0 SWAP1 LOG3 POP POP JUMP JUMPDEST PUSH2 0xEDB DUP1 PUSH2 0xA7 PUSH1 0x0 CODECOPY PUSH1 0x0 RETURN INVALID PUSH1 0x80 PUSH1 0x40 MSTORE CALLVALUE DUP1 ISZERO PUSH2 0x10 JUMPI PUSH1 0x0 DUP1 REVERT JUMPDEST POP PUSH1 0x4 CALLDATASIZE LT PUSH2 0x14D JUMPI PUSH1 0x0 CALLDATALOAD PUSH1 0xE0 SHR DUP1 PUSH4 0x715018A6 GT PUSH2 0xC3 JUMPI DUP1 PUSH4 0xCB5F0348 GT PUSH2 0x7C JUMPI DUP1 PUSH4 0xCB5F0348 EQ PUSH2 0x289 JUMPI DUP1 PUSH4 0xD9C4870E EQ PUSH2 0x29C JUMPI DUP1 PUSH4 0xE3866C9A EQ PUSH2 0x2AF JUMPI DUP1 PUSH4 0xEC6BE06E EQ PUSH2 0x2C2 JUMPI DUP1 PUSH4 0xED25C27A EQ PUSH2 0x2D5 JUMPI DUP1 PUSH4 0xF2FDE38B EQ PUSH2 0x2F5 JUMPI PUSH1 0x0 DUP1 REVERT JUMPDEST DUP1 PUSH4 0x715018A6 EQ PUSH2 0x224 JUMPI DUP1 PUSH4 0x78B298F4 EQ PUSH2 0x22C JUMPI DUP1 PUSH4 0x8DA5CB5B EQ PUSH2 0x23F JUMPI DUP1 PUSH4 0xB6E08330 EQ PUSH2 0x250 JUMPI DUP1 PUSH4 0xC4D66DE8 EQ PUSH2 0x263 JUMPI DUP1 PUSH4 0xCA1FA2FD EQ PUSH2 0x276 JUMPI PUSH1 0x0 DUP1 REVERT JUMPDEST DUP1 PUSH4 0x2B3BA681 GT PUSH2 0x115 JUMPI DUP1 PUSH4 0x2B3BA681 EQ PUSH2 0x1CA JUMPI DUP1 PUSH4 0x315959E3 EQ PUSH2 0x1D9 JUMPI DUP1 PUSH4 0x478DEDBB EQ PUSH2 0x1EC JUMPI DUP1 PUSH4 0x5EA1D6F8 EQ PUSH2 0x1FF JUMPI DUP1 PUSH4 0x6514AACA EQ PUSH2 0x208 JUMPI DUP1 PUSH4 0x698F313E EQ PUSH2 0x211 JUMPI PUSH1 0x0 DUP1 REVERT JUMPDEST DUP1 PUSH4 0x5BFE695 EQ PUSH2 0x152 JUMPI DUP1 PUSH4 0x84CB5DC EQ PUSH2 0x16E JUMPI DUP1 PUSH4 0xB78716A EQ PUSH2 0x177 JUMPI DUP1 PUSH4 0xC340A24 EQ PUSH2 0x18A JUMPI DUP1 PUSH4 0x19FAC8FD EQ PUSH2 0x1B5 JUMPI JUMPDEST PUSH1 0x0 DUP1 REVERT JUMPDEST PUSH2 0x15B PUSH1 0x6B SLOAD DUP2 JUMP JUMPDEST PUSH1 0x40 MLOAD SWAP1 DUP2 MSTORE PUSH1 0x20 ADD JUMPDEST PUSH1 0x40 MLOAD DUP1 SWAP2 SUB SWAP1 RETURN JUMPDEST PUSH2 0x15B PUSH1 0x6A SLOAD DUP2 JUMP JUMPDEST PUSH2 0x15B PUSH2 0x185 CALLDATASIZE PUSH1 0x4 PUSH2 0xBB5 JUMP JUMPDEST PUSH2 0x308 JUMP JUMPDEST PUSH1 0x33 SLOAD PUSH2 0x19D SWAP1 PUSH1 0x1 PUSH1 0x1 PUSH1 0xA0 SHL SUB AND DUP2 JUMP JUMPDEST PUSH1 0x40 MLOAD PUSH1 0x1 PUSH1 0x1 PUSH1 0xA0 SHL SUB SWAP1 SWAP2 AND DUP2 MSTORE PUSH1 0x20 ADD PUSH2 0x165 JUMP JUMPDEST PUSH2 0x1C8 PUSH2 0x1C3 CALLDATASIZE PUSH1 0x4 PUSH2 0xBF6 JUMP JUMPDEST PUSH2 0x381 JUMP JUMPDEST STOP JUMPDEST PUSH2 0x15B PUSH8 0xDE0B6B3A7640000 DUP2 JUMP JUMPDEST PUSH2 0x1C8 PUSH2 0x1E7 CALLDATASIZE PUSH1 0x4 PUSH2 0xBF6 JUMP JUMPDEST PUSH2 0x3C1 JUMP JUMPDEST PUSH2 0x15B PUSH2 0x1FA CALLDATASIZE PUSH1 0x4 PUSH2 0xC1D JUMP JUMPDEST PUSH2 0x3F8 JUMP JUMPDEST PUSH2 0x15B PUSH1 0x69 SLOAD DUP2 JUMP JUMPDEST PUSH2 0x15B PUSH1 0x6C SLOAD DUP2 JUMP JUMPDEST PUSH2 0x1C8 PUSH2 0x21F CALLDATASIZE PUSH1 0x4 PUSH2 0xBF6 JUMP JUMPDEST PUSH2 0x425 JUMP JUMPDEST PUSH2 0x1C8 PUSH2 0x432 JUMP JUMPDEST PUSH2 0x15B PUSH2 0x23A CALLDATASIZE PUSH1 0x4 PUSH2 0xC5F JUMP JUMPDEST PUSH2 0x446 JUMP JUMPDEST PUSH1 0x66 SLOAD PUSH1 0x1 PUSH1 0x1 PUSH1 0xA0 SHL SUB AND PUSH2 0x19D JUMP JUMPDEST PUSH2 0x1C8 PUSH2 0x25E CALLDATASIZE PUSH1 0x4 PUSH2 0xC81 JUMP JUMPDEST PUSH2 0x4A6 JUMP JUMPDEST PUSH2 0x1C8 PUSH2 0x271 CALLDATASIZE PUSH1 0x4 PUSH2 0xC81 JUMP JUMPDEST PUSH2 0x4D0 JUMP JUMPDEST PUSH2 0x1C8 PUSH2 0x284 CALLDATASIZE PUSH1 0x4 PUSH2 0xC81 JUMP JUMPDEST PUSH2 0x562 JUMP JUMPDEST PUSH2 0x1C8 PUSH2 0x297 CALLDATASIZE PUSH1 0x4 PUSH2 0xBF6 JUMP JUMPDEST PUSH2 0x584 JUMP JUMPDEST PUSH1 0x68 SLOAD PUSH2 0x19D SWAP1 PUSH1 0x1 PUSH1 0x1 PUSH1 0xA0 SHL SUB AND DUP2 JUMP JUMPDEST PUSH2 0x1C8 PUSH2 0x2BD CALLDATASIZE PUSH1 0x4 PUSH2 0xC9E JUMP JUMPDEST PUSH2 0x5BB JUMP JUMPDEST PUSH2 0x1C8 PUSH2 0x2D0 CALLDATASIZE PUSH1 0x4 PUSH2 0xC81 JUMP JUMPDEST PUSH2 0x8D8 JUMP JUMPDEST PUSH2 0x15B PUSH2 0x2E3 CALLDATASIZE PUSH1 0x4 PUSH2 0xC81 JUMP JUMPDEST PUSH1 0x67 PUSH1 0x20 MSTORE PUSH1 0x0 SWAP1 DUP2 MSTORE PUSH1 0x40 SWAP1 KECCAK256 SLOAD DUP2 JUMP JUMPDEST PUSH2 0x1C8 PUSH2 0x303 CALLDATASIZE PUSH1 0x4 PUSH2 0xC81 JUMP JUMPDEST PUSH2 0x962 JUMP JUMPDEST PUSH1 0x0 PUSH2 0x312 PUSH2 0x9A0 JUMP JUMPDEST DUP4 DUP6 LT ISZERO PUSH2 0x322 JUMPI PUSH2 0x322 PUSH2 0xD10 JUMP JUMPDEST PUSH1 0x0 PUSH2 0x338 DUP7 PUSH2 0x332 DUP8 DUP8 PUSH2 0x9CD JUMP JUMPDEST SWAP1 PUSH2 0xA03 JUMP JUMPDEST PUSH1 0x1 PUSH1 0x1 PUSH1 0xA0 SHL SUB DUP5 AND PUSH1 0x0 SWAP1 DUP2 MSTORE PUSH1 0x67 PUSH1 0x20 MSTORE PUSH1 0x40 SWAP1 KECCAK256 SLOAD SWAP1 SWAP2 POP PUSH2 0x35E SWAP1 DUP3 PUSH2 0xA16 JUMP JUMPDEST PUSH1 0x1 PUSH1 0x1 PUSH1 0xA0 SHL SUB DUP5 AND PUSH1 0x0 SWAP1 DUP2 MSTORE PUSH1 0x67 PUSH1 0x20 MSTORE PUSH1 0x40 SWAP1 KECCAK256 SSTORE SWAP1 POP SWAP5 SWAP4 POP POP POP POP JUMP JUMPDEST PUSH2 0x389 PUSH2 0xA34 JUMP JUMPDEST DUP1 PUSH8 0xDE0B6B3A7640000 DUP2 GT ISZERO PUSH2 0x3BB JUMPI PUSH1 0x40 MLOAD PUSH3 0x461BCD PUSH1 0xE5 SHL DUP2 MSTORE PUSH1 0x4 ADD PUSH2 0x3B2 SWAP1 PUSH2 0xD26 JUMP JUMPDEST PUSH1 0x40 MLOAD DUP1 SWAP2 SUB SWAP1 REVERT JUMPDEST POP PUSH1 0x69 SSTORE JUMP JUMPDEST PUSH2 0x3C9 PUSH2 0xA34 JUMP JUMPDEST DUP1 PUSH8 0xDE0B6B3A7640000 DUP2 GT ISZERO PUSH2 0x3F2 JUMPI PUSH1 0x40 MLOAD PUSH3 0x461BCD PUSH1 0xE5 SHL DUP2 MSTORE PUSH1 0x4 ADD PUSH2 0x3B2 SWAP1 PUSH2 0xD26 JUMP JUMPDEST POP PUSH1 0x6B SSTORE JUMP JUMPDEST PUSH1 0x0 PUSH2 0x402 PUSH2 0x9A0 JUMP JUMPDEST PUSH2 0x41D DUP5 DUP4 PUSH2 0x413 JUMPI PUSH1 0x6A SLOAD PUSH2 0x417 JUMP JUMPDEST PUSH1 0x6B SLOAD JUMPDEST DUP6 PUSH2 0xAED JUMP JUMPDEST SWAP5 SWAP4 POP POP POP POP JUMP JUMPDEST PUSH2 0x42D PUSH2 0xA34 JUMP JUMPDEST PUSH1 0x6C SSTORE JUMP JUMPDEST PUSH2 0x43A PUSH2 0x9A0 JUMP JUMPDEST PUSH2 0x444 PUSH1 0x0 PUSH2 0xB4E JUMP JUMPDEST JUMP JUMPDEST PUSH1 0x0 DUP1 PUSH2 0x46A DUP4 PUSH2 0x332 PUSH8 0xDE0B6B3A7640000 PUSH1 0x6C SLOAD PUSH2 0x9CD SWAP1 SWAP2 SWAP1 PUSH4 0xFFFFFFFF AND JUMP JUMPDEST SWAP1 POP PUSH1 0x0 PUSH2 0x48F PUSH8 0xDE0B6B3A7640000 PUSH2 0x332 PUSH1 0x69 SLOAD DUP9 PUSH2 0x9CD SWAP1 SWAP2 SWAP1 PUSH4 0xFFFFFFFF AND JUMP JUMPDEST SWAP1 POP PUSH2 0x49B DUP3 DUP3 PUSH2 0xA16 JUMP JUMPDEST SWAP3 POP POP POP JUMPDEST SWAP3 SWAP2 POP POP JUMP JUMPDEST PUSH2 0x4AE PUSH2 0xA34 JUMP JUMPDEST PUSH1 0x33 DUP1 SLOAD PUSH1 0x1 PUSH1 0x1 PUSH1 0xA0 SHL SUB NOT AND PUSH1 0x1 PUSH1 0x1 PUSH1 0xA0 SHL SUB SWAP3 SWAP1 SWAP3 AND SWAP2 SWAP1 SWAP2 OR SWAP1 SSTORE JUMP JUMPDEST PUSH1 0x0 SLOAD PUSH2 0x100 SWAP1 DIV PUSH1 0xFF AND DUP1 PUSH2 0x4E5 JUMPI POP ADDRESS EXTCODESIZE ISZERO JUMPDEST DUP1 PUSH2 0x4F3 JUMPI POP PUSH1 0x0 SLOAD PUSH1 0xFF AND ISZERO JUMPDEST PUSH2 0x50F JUMPI PUSH1 0x40 MLOAD PUSH3 0x461BCD PUSH1 0xE5 SHL DUP2 MSTORE PUSH1 0x4 ADD PUSH2 0x3B2 SWAP1 PUSH2 0xD68 JUMP JUMPDEST PUSH1 0x0 SLOAD PUSH2 0x100 SWAP1 DIV PUSH1 0xFF AND ISZERO DUP1 ISZERO PUSH2 0x531 JUMPI PUSH1 0x0 DUP1 SLOAD PUSH2 0xFFFF NOT AND PUSH2 0x101 OR SWAP1 SSTORE JUMPDEST PUSH1 0x33 DUP1 SLOAD PUSH1 0x1 PUSH1 0x1 PUSH1 0xA0 SHL SUB NOT AND PUSH1 0x1 PUSH1 0x1 PUSH1 0xA0 SHL SUB DUP5 AND OR SWAP1 SSTORE DUP1 ISZERO PUSH2 0x55E JUMPI PUSH1 0x0 DUP1 SLOAD PUSH2 0xFF00 NOT AND SWAP1 SSTORE JUMPDEST POP POP JUMP JUMPDEST PUSH2 0x56A PUSH2 0x9A0 JUMP JUMPDEST PUSH1 0x1 PUSH1 0x1 PUSH1 0xA0 SHL SUB AND PUSH1 0x0 SWAP1 DUP2 MSTORE PUSH1 0x67 PUSH1 0x20 MSTORE PUSH1 0x40 DUP2 KECCAK256 SSTORE JUMP JUMPDEST PUSH2 0x58C PUSH2 0xA34 JUMP JUMPDEST DUP1 PUSH8 0xDE0B6B3A7640000 DUP2 GT ISZERO PUSH2 0x5B5 JUMPI PUSH1 0x40 MLOAD PUSH3 0x461BCD PUSH1 0xE5 SHL DUP2 MSTORE PUSH1 0x4 ADD PUSH2 0x3B2 SWAP1 PUSH2 0xD26 JUMP JUMPDEST POP PUSH1 0x6A SSTORE JUMP JUMPDEST PUSH1 0x0 SLOAD PUSH2 0x100 SWAP1 DIV PUSH1 0xFF AND DUP1 PUSH2 0x5D0 JUMPI POP ADDRESS EXTCODESIZE ISZERO JUMPDEST DUP1 PUSH2 0x5DE JUMPI POP PUSH1 0x0 SLOAD PUSH1 0xFF AND ISZERO JUMPDEST PUSH2 0x5FA JUMPI PUSH1 0x40 MLOAD PUSH3 0x461BCD PUSH1 0xE5 SHL DUP2 MSTORE PUSH1 0x4 ADD PUSH2 0x3B2 SWAP1 PUSH2 0xD68 JUMP JUMPDEST PUSH1 0x0 SLOAD PUSH2 0x100 SWAP1 DIV PUSH1 0xFF AND ISZERO DUP1 ISZERO PUSH2 0x61C JUMPI PUSH1 0x0 DUP1 SLOAD PUSH2 0xFFFF NOT AND PUSH2 0x101 OR SWAP1 SSTORE JUMPDEST DUP8 PUSH1 0x40 MLOAD DUP1 PUSH1 0x60 ADD PUSH1 0x40 MSTORE DUP1 PUSH1 0x21 DUP2 MSTORE PUSH1 0x20 ADD PUSH2 0xE85 PUSH1 0x21 SWAP2 CODECOPY DUP1 PUSH1 0x1 PUSH1 0x1 PUSH1 0xA0 SHL SUB DUP4 AND PUSH2 0x65E JUMPI PUSH1 0x40 MLOAD PUSH3 0x461BCD PUSH1 0xE5 SHL DUP2 MSTORE PUSH1 0x4 ADD PUSH2 0x3B2 SWAP2 SWAP1 PUSH2 0xDB6 JUMP JUMPDEST POP PUSH1 0x40 DUP1 MLOAD DUP1 DUP3 ADD SWAP1 SWAP2 MSTORE PUSH1 0x17 DUP2 MSTORE PUSH32 0x676F7665726E6F722063616E6E6F74206265206E756C6C000000000000000000 PUSH1 0x20 DUP3 ADD MSTORE DUP7 SWAP1 DUP1 PUSH1 0x1 PUSH1 0x1 PUSH1 0xA0 SHL SUB DUP4 AND PUSH2 0x6BD JUMPI PUSH1 0x40 MLOAD PUSH3 0x461BCD PUSH1 0xE5 SHL DUP2 MSTORE PUSH1 0x4 ADD PUSH2 0x3B2 SWAP2 SWAP1 PUSH2 0xDB6 JUMP JUMPDEST POP PUSH1 0x40 DUP1 MLOAD DUP1 DUP3 ADD SWAP1 SWAP2 MSTORE PUSH1 0x14 DUP2 MSTORE PUSH20 0x1BDDDB995C8818D85B9B9BDD081899481B9D5B1B PUSH1 0x62 SHL PUSH1 0x20 DUP3 ADD MSTORE DUP8 SWAP1 DUP1 PUSH1 0x1 PUSH1 0x1 PUSH1 0xA0 SHL SUB DUP4 AND PUSH2 0x713 JUMPI PUSH1 0x40 MLOAD PUSH3 0x461BCD PUSH1 0xE5 SHL DUP2 MSTORE PUSH1 0x4 ADD PUSH2 0x3B2 SWAP2 SWAP1 PUSH2 0xDB6 JUMP JUMPDEST POP PUSH8 0xDE0B6B3A7640000 DUP14 GT ISZERO PUSH2 0x781 JUMPI PUSH1 0x40 MLOAD PUSH3 0x461BCD PUSH1 0xE5 SHL DUP2 MSTORE PUSH1 0x20 PUSH1 0x4 DUP3 ADD MSTORE PUSH1 0x2C PUSH1 0x24 DUP3 ADD MSTORE PUSH32 0x636F6D6D697373696F6E526174652073686F756C6420746F20626520696E2072 PUSH1 0x44 DUP3 ADD MSTORE PUSH12 0x656C6174696F6E20746F2031 PUSH1 0xA0 SHL PUSH1 0x64 DUP3 ADD MSTORE PUSH1 0x84 ADD PUSH2 0x3B2 JUMP JUMPDEST PUSH8 0xDE0B6B3A7640000 DUP13 GT ISZERO PUSH2 0x7F6 JUMPI PUSH1 0x40 MLOAD PUSH3 0x461BCD PUSH1 0xE5 SHL DUP2 MSTORE PUSH1 0x20 PUSH1 0x4 DUP3 ADD MSTORE PUSH1 0x34 PUSH1 0x24 DUP3 ADD MSTORE PUSH32 0x63616E63656C6174696F6E50656E616C7479526174652073686F756C6420746F PUSH1 0x44 DUP3 ADD MSTORE PUSH20 0x20626520696E2072656C6174696F6E20746F2031 PUSH1 0x60 SHL PUSH1 0x64 DUP3 ADD MSTORE PUSH1 0x84 ADD PUSH2 0x3B2 JUMP JUMPDEST PUSH8 0xDE0B6B3A7640000 DUP12 GT ISZERO PUSH2 0x86A JUMPI PUSH1 0x40 MLOAD PUSH3 0x461BCD PUSH1 0xE5 SHL DUP2 MSTORE PUSH1 0x20 PUSH1 0x4 DUP3 ADD MSTORE PUSH1 0x33 PUSH1 0x24 DUP3 ADD MSTORE PUSH32 0x65787069726174696F6E50656E616C7479526174652073686F756C6420746F20 PUSH1 0x44 DUP3 ADD MSTORE PUSH19 0x626520696E2072656C6174696F6E20746F2031 PUSH1 0x68 SHL PUSH1 0x64 DUP3 ADD MSTORE PUSH1 0x84 ADD PUSH2 0x3B2 JUMP JUMPDEST DUP14 PUSH1 0x68 PUSH1 0x0 PUSH2 0x100 EXP DUP2 SLOAD DUP2 PUSH1 0x1 PUSH1 0x1 PUSH1 0xA0 SHL SUB MUL NOT AND SWAP1 DUP4 PUSH1 0x1 PUSH1 0x1 PUSH1 0xA0 SHL SUB AND MUL OR SWAP1 SSTORE POP DUP13 PUSH1 0x69 DUP2 SWAP1 SSTORE POP DUP8 PUSH1 0x6C DUP2 SWAP1 SSTORE POP DUP12 PUSH1 0x6A DUP2 SWAP1 SSTORE POP DUP11 PUSH1 0x6B DUP2 SWAP1 SSTORE POP PUSH2 0x8B6 DUP11 PUSH2 0x4D0 JUMP JUMPDEST POP POP POP POP POP POP DUP1 ISZERO PUSH2 0x8CE JUMPI PUSH1 0x0 DUP1 SLOAD PUSH2 0xFF00 NOT AND SWAP1 SSTORE JUMPDEST POP POP POP POP POP POP POP POP JUMP JUMPDEST PUSH2 0x8E0 PUSH2 0xA34 JUMP JUMPDEST PUSH1 0x1 PUSH1 0x1 PUSH1 0xA0 SHL SUB DUP2 AND PUSH2 0x940 JUMPI PUSH1 0x40 MLOAD PUSH3 0x461BCD PUSH1 0xE5 SHL DUP2 MSTORE PUSH1 0x20 PUSH1 0x4 DUP3 ADD MSTORE PUSH1 0x21 PUSH1 0x24 DUP3 ADD MSTORE PUSH32 0x62656E6566696369617279416464726573732063616E6E6F74206265206E756C PUSH1 0x44 DUP3 ADD MSTORE PUSH1 0x1B PUSH1 0xFA SHL PUSH1 0x64 DUP3 ADD MSTORE PUSH1 0x84 ADD PUSH2 0x3B2 JUMP JUMPDEST PUSH1 0x68 DUP1 SLOAD PUSH1 0x1 PUSH1 0x1 PUSH1 0xA0 SHL SUB NOT AND PUSH1 0x1 PUSH1 0x1 PUSH1 0xA0 SHL SUB SWAP3 SWAP1 SWAP3 AND SWAP2 SWAP1 SWAP2 OR SWAP1 SSTORE JUMP JUMPDEST PUSH2 0x96A PUSH2 0x9A0 JUMP JUMPDEST PUSH1 0x1 PUSH1 0x1 PUSH1 0xA0 SHL SUB DUP2 AND PUSH2 0x994 JUMPI PUSH1 0x40 MLOAD PUSH4 0x1E4FBDF7 PUSH1 0xE0 SHL DUP2 MSTORE PUSH1 0x0 PUSH1 0x4 DUP3 ADD MSTORE PUSH1 0x24 ADD PUSH2 0x3B2 JUMP JUMPDEST PUSH2 0x99D DUP2 PUSH2 0xB4E JUMP JUMPDEST POP JUMP JUMPDEST PUSH1 0x66 SLOAD PUSH1 0x1 PUSH1 0x1 PUSH1 0xA0 SHL SUB AND CALLER EQ PUSH2 0x444 JUMPI PUSH1 0x40 MLOAD PUSH4 0x118CDAA7 PUSH1 0xE0 SHL DUP2 MSTORE CALLER PUSH1 0x4 DUP3 ADD MSTORE PUSH1 0x24 ADD PUSH2 0x3B2 JUMP JUMPDEST PUSH1 0x0 DUP3 PUSH1 0x0 SUB PUSH2 0x9DF JUMPI POP PUSH1 0x0 PUSH2 0x4A0 JUMP JUMPDEST PUSH2 0x9E9 DUP3 DUP5 PUSH2 0xE1B JUMP JUMPDEST SWAP1 POP DUP2 PUSH2 0x9F6 DUP5 DUP4 PUSH2 0xE32 JUMP JUMPDEST EQ PUSH2 0x4A0 JUMPI PUSH2 0x4A0 PUSH2 0xD10 JUMP JUMPDEST PUSH1 0x0 PUSH2 0xA0F DUP3 DUP5 PUSH2 0xE32 JUMP JUMPDEST SWAP4 SWAP3 POP POP POP JUMP JUMPDEST PUSH1 0x0 PUSH2 0xA22 DUP3 DUP5 PUSH2 0xE54 JUMP JUMPDEST SWAP1 POP DUP3 DUP2 LT ISZERO PUSH2 0x4A0 JUMPI PUSH2 0x4A0 PUSH2 0xD10 JUMP JUMPDEST PUSH1 0x33 SLOAD PUSH1 0x40 MLOAD PUSH4 0xD994D6D5 PUSH1 0xE0 SHL DUP2 MSTORE CALLER PUSH1 0x4 DUP3 ADD MSTORE PUSH1 0x1 PUSH1 0x1 PUSH1 0xA0 SHL SUB SWAP1 SWAP2 AND SWAP1 PUSH4 0xD994D6D5 SWAP1 PUSH1 0x24 ADD PUSH1 0x20 PUSH1 0x40 MLOAD DUP1 DUP4 SUB DUP2 DUP7 GAS STATICCALL ISZERO DUP1 ISZERO PUSH2 0xA7C JUMPI RETURNDATASIZE PUSH1 0x0 DUP1 RETURNDATACOPY RETURNDATASIZE PUSH1 0x0 REVERT JUMPDEST POP POP POP POP PUSH1 0x40 MLOAD RETURNDATASIZE PUSH1 0x1F NOT PUSH1 0x1F DUP3 ADD AND DUP3 ADD DUP1 PUSH1 0x40 MSTORE POP DUP2 ADD SWAP1 PUSH2 0xAA0 SWAP2 SWAP1 PUSH2 0xE67 JUMP JUMPDEST PUSH1 0x40 MLOAD DUP1 PUSH1 0x40 ADD PUSH1 0x40 MSTORE DUP1 PUSH1 0x16 DUP2 MSTORE PUSH1 0x20 ADD PUSH22 0x3737BA2FB0BABA3437B934BD32B22FB1B430B733B2B9 PUSH1 0x51 SHL DUP2 MSTORE POP SWAP1 PUSH2 0x99D JUMPI PUSH1 0x40 MLOAD PUSH3 0x461BCD PUSH1 0xE5 SHL DUP2 MSTORE PUSH1 0x4 ADD PUSH2 0x3B2 SWAP2 SWAP1 PUSH2 0xDB6 JUMP JUMPDEST PUSH1 0x0 DUP1 PUSH2 0xB06 PUSH8 0xDE0B6B3A7640000 PUSH2 0x332 DUP8 DUP8 PUSH2 0x9CD JUMP JUMPDEST PUSH1 0x1 PUSH1 0x1 PUSH1 0xA0 SHL SUB DUP5 AND PUSH1 0x0 SWAP1 DUP2 MSTORE PUSH1 0x67 PUSH1 0x20 MSTORE PUSH1 0x40 SWAP1 KECCAK256 SLOAD SWAP1 SWAP2 POP PUSH2 0xB2C SWAP1 DUP3 PUSH2 0xA16 JUMP JUMPDEST PUSH1 0x1 PUSH1 0x1 PUSH1 0xA0 SHL SUB DUP5 AND PUSH1 0x0 SWAP1 DUP2 MSTORE PUSH1 0x67 PUSH1 0x20 MSTORE PUSH1 0x40 SWAP1 KECCAK256 SSTORE SWAP1 POP SWAP4 SWAP3 POP POP POP JUMP JUMPDEST PUSH1 0x66 DUP1 SLOAD PUSH1 0x1 PUSH1 0x1 PUSH1 0xA0 SHL SUB DUP4 DUP2 AND PUSH1 0x1 PUSH1 0x1 PUSH1 0xA0 SHL SUB NOT DUP4 AND DUP2 OR SWAP1 SWAP4 SSTORE PUSH1 0x40 MLOAD SWAP2 AND SWAP2 SWAP1 DUP3 SWAP1 PUSH32 0x8BE0079C531659141344CD1FD0A4F28419497F9722A3DAAFE3B4186F6B6457E0 SWAP1 PUSH1 0x0 SWAP1 LOG3 POP POP JUMP JUMPDEST PUSH1 0x1 PUSH1 0x1 PUSH1 0xA0 SHL SUB DUP2 AND DUP2 EQ PUSH2 0x99D JUMPI PUSH1 0x0 DUP1 REVERT JUMPDEST PUSH1 0x0 DUP1 PUSH1 0x0 DUP1 PUSH1 0x80 DUP6 DUP8 SUB SLT ISZERO PUSH2 0xBCB JUMPI PUSH1 0x0 DUP1 REVERT JUMPDEST DUP5 CALLDATALOAD SWAP4 POP PUSH1 0x20 DUP6 ADD CALLDATALOAD SWAP3 POP PUSH1 0x40 DUP6 ADD CALLDATALOAD SWAP2 POP PUSH1 0x60 DUP6 ADD CALLDATALOAD PUSH2 0xBEB DUP2 PUSH2 0xBA0 JUMP JUMPDEST SWAP4 SWAP7 SWAP3 SWAP6 POP SWAP1 SWAP4 POP POP JUMP JUMPDEST PUSH1 0x0 PUSH1 0x20 DUP3 DUP5 SUB SLT ISZERO PUSH2 0xC08 JUMPI PUSH1 0x0 DUP1 REVERT JUMPDEST POP CALLDATALOAD SWAP2 SWAP1 POP JUMP JUMPDEST DUP1 ISZERO ISZERO DUP2 EQ PUSH2 0x99D JUMPI PUSH1 0x0 DUP1 REVERT JUMPDEST PUSH1 0x0 DUP1 PUSH1 0x0 PUSH1 0x60 DUP5 DUP7 SUB SLT ISZERO PUSH2 0xC32 JUMPI PUSH1 0x0 DUP1 REVERT JUMPDEST DUP4 CALLDATALOAD SWAP3 POP PUSH1 0x20 DUP5 ADD CALLDATALOAD PUSH2 0xC44 DUP2 PUSH2 0xBA0 JUMP JUMPDEST SWAP2 POP PUSH1 0x40 DUP5 ADD CALLDATALOAD PUSH2 0xC54 DUP2 PUSH2 0xC0F JUMP JUMPDEST DUP1 SWAP2 POP POP SWAP3 POP SWAP3 POP SWAP3 JUMP JUMPDEST PUSH1 0x0 DUP1 PUSH1 0x40 DUP4 DUP6 SUB SLT ISZERO PUSH2 0xC72 JUMPI PUSH1 0x0 DUP1 REVERT JUMPDEST POP POP DUP1 CALLDATALOAD SWAP3 PUSH1 0x20 SWAP1 SWAP2 ADD CALLDATALOAD SWAP2 POP JUMP JUMPDEST PUSH1 0x0 PUSH1 0x20 DUP3 DUP5 SUB SLT ISZERO PUSH2 0xC93 JUMPI PUSH1 0x0 DUP1 REVERT JUMPDEST DUP2 CALLDATALOAD PUSH2 0xA0F DUP2 PUSH2 0xBA0 JUMP JUMPDEST PUSH1 0x0 DUP1 PUSH1 0x0 DUP1 PUSH1 0x0 DUP1 PUSH1 0x0 PUSH1 0xE0 DUP9 DUP11 SUB SLT ISZERO PUSH2 0xCB9 JUMPI PUSH1 0x0 DUP1 REVERT JUMPDEST DUP8 CALLDATALOAD PUSH2 0xCC4 DUP2 PUSH2 0xBA0 JUMP JUMPDEST SWAP7 POP PUSH1 0x20 DUP9 ADD CALLDATALOAD SWAP6 POP PUSH1 0x40 DUP9 ADD CALLDATALOAD SWAP5 POP PUSH1 0x60 DUP9 ADD CALLDATALOAD SWAP4 POP PUSH1 0x80 DUP9 ADD CALLDATALOAD PUSH2 0xCE9 DUP2 PUSH2 0xBA0 JUMP JUMPDEST SWAP3 POP PUSH1 0xA0 DUP9 ADD CALLDATALOAD PUSH2 0xCF9 DUP2 PUSH2 0xBA0 JUMP JUMPDEST DUP1 SWAP3 POP POP PUSH1 0xC0 DUP9 ADD CALLDATALOAD SWAP1 POP SWAP3 SWAP6 SWAP9 SWAP2 SWAP5 SWAP8 POP SWAP3 SWAP6 POP JUMP JUMPDEST PUSH4 0x4E487B71 PUSH1 0xE0 SHL PUSH1 0x0 MSTORE PUSH1 0x1 PUSH1 0x4 MSTORE PUSH1 0x24 PUSH1 0x0 REVERT JUMPDEST PUSH1 0x20 DUP1 DUP3 MSTORE PUSH1 0x22 SWAP1 DUP3 ADD MSTORE PUSH32 0x726174652073686F756C6420746F20626520696E2072656C6174696F6E20746F PUSH1 0x40 DUP3 ADD MSTORE PUSH2 0x2031 PUSH1 0xF0 SHL PUSH1 0x60 DUP3 ADD MSTORE PUSH1 0x80 ADD SWAP1 JUMP JUMPDEST PUSH1 0x20 DUP1 DUP3 MSTORE PUSH1 0x2E SWAP1 DUP3 ADD MSTORE PUSH32 0x436F6E747261637420696E7374616E63652068617320616C7265616479206265 PUSH1 0x40 DUP3 ADD MSTORE PUSH14 0x195B881A5B9A5D1A585B1A5E9959 PUSH1 0x92 SHL PUSH1 0x60 DUP3 ADD MSTORE PUSH1 0x80 ADD SWAP1 JUMP JUMPDEST PUSH1 0x0 PUSH1 0x20 DUP1 DUP4 MSTORE DUP4 MLOAD DUP1 PUSH1 0x20 DUP6 ADD MSTORE PUSH1 0x0 JUMPDEST DUP2 DUP2 LT ISZERO PUSH2 0xDE4 JUMPI DUP6 DUP2 ADD DUP4 ADD MLOAD DUP6 DUP3 ADD PUSH1 0x40 ADD MSTORE DUP3 ADD PUSH2 0xDC8 JUMP JUMPDEST POP PUSH1 0x0 PUSH1 0x40 DUP3 DUP7 ADD ADD MSTORE PUSH1 0x40 PUSH1 0x1F NOT PUSH1 0x1F DUP4 ADD AND DUP6 ADD ADD SWAP3 POP POP POP SWAP3 SWAP2 POP POP JUMP JUMPDEST PUSH4 0x4E487B71 PUSH1 0xE0 SHL PUSH1 0x0 MSTORE PUSH1 0x11 PUSH1 0x4 MSTORE PUSH1 0x24 PUSH1 0x0 REVERT JUMPDEST DUP1 DUP3 MUL DUP2 ISZERO DUP3 DUP3 DIV DUP5 EQ OR PUSH2 0x4A0 JUMPI PUSH2 0x4A0 PUSH2 0xE05 JUMP JUMPDEST PUSH1 0x0 DUP3 PUSH2 0xE4F JUMPI PUSH4 0x4E487B71 PUSH1 0xE0 SHL PUSH1 0x0 MSTORE PUSH1 0x12 PUSH1 0x4 MSTORE PUSH1 0x24 PUSH1 0x0 REVERT JUMPDEST POP DIV SWAP1 JUMP JUMPDEST DUP1 DUP3 ADD DUP1 DUP3 GT ISZERO PUSH2 0x4A0 JUMPI PUSH2 0x4A0 PUSH2 0xE05 JUMP JUMPDEST PUSH1 0x0 PUSH1 0x20 DUP3 DUP5 SUB SLT ISZERO PUSH2 0xE79 JUMPI PUSH1 0x0 DUP1 REVERT JUMPDEST DUP2 MLOAD PUSH2 0xA0F DUP2 PUSH2 0xC0F JUMP INVALID PUSH3 0x656E65 PUSH7 0x69636961727941 PUSH5 0x6472657373 KECCAK256 PUSH4 0x616E6E6F PUSH21 0x206265206E756C6CA2646970667358221220A1BB44 0x4D DUP13 0xF9 0xC8 0x4F BLOBBASEFEE 0x2D SELFDESTRUCT 0xE1 ORIGIN 0xF8 DUP12 0xC LOG3 PUSH13 0x403CCB52164B24DF60B578977A BLOCKHASH PUSH5 0x736F6C6343 STOP ADDMOD XOR STOP CALLER "},"methodIdentifiers":{"RATE_PRECISION()":"2b3ba681","beneficiaryAddress()":"d9c4870e","calculateInitialFee(uint256,uint256)":"78b298f4","cancelationPenaltyRate()":"084cb5dc","changeIGovernor(address)":"b6e08330","chargeCommissionForMatch(uint256,uint256,uint256,address)":"0b78716a","chargeExceptionalCommission(uint256,address,bool)":"478dedbb","clearExchangeCommissions(address)":"ca1fa2fd","commissionRate()":"5ea1d6f8","exchangeCommissions(address)":"ed25c27a","expirationPenaltyRate()":"05bfe695","governor()":"0c340a24","initialize(address)":"c4d66de8","initialize(address,uint256,uint256,uint256,address,address,uint256)":"e3866c9a","minimumCommission()":"6514aaca","owner()":"8da5cb5b","renounceOwnership()":"715018a6","setBeneficiaryAddress(address)":"ec6be06e","setCancelationPenaltyRate(uint256)":"cb5f0348","setCommissionRate(uint256)":"19fac8fd","setExpirationPenaltyRate(uint256)":"315959e3","setMinimumCommission(uint256)":"698f313e","transferOwnership(address)":"f2fde38b"}}}}}