{"contracts/libs/MoCExchangeLib.sol":{"MoCExchangeLib":{"abi":[{"anonymous":false,"inputs":[{"indexed":true,"internalType":"uint256","name":"orderId","type":"uint256"},{"indexed":false,"internalType":"uint256","name":"amountSent","type":"uint256"},{"indexed":false,"internalType":"uint256","name":"commission","type":"uint256"},{"indexed":false,"internalType":"uint256","name":"change","type":"uint256"},{"indexed":false,"internalType":"uint256","name":"received","type":"uint256"},{"indexed":false,"internalType":"uint256","name":"remainingAmount","type":"uint256"},{"indexed":false,"internalType":"uint256","name":"matchPrice","type":"uint256"},{"indexed":false,"internalType":"uint64","name":"tickNumber","type":"uint64"}],"name":"BuyerMatch","type":"event"},{"anonymous":false,"inputs":[{"indexed":false,"internalType":"address","name":"token","type":"address"},{"indexed":false,"internalType":"address","name":"commissionBeneficiary","type":"address"},{"indexed":false,"internalType":"uint256","name":"withdrawnAmount","type":"uint256"}],"name":"CommissionWithdrawn","type":"event"},{"anonymous":false,"inputs":[{"indexed":true,"internalType":"uint256","name":"orderId","type":"uint256"},{"indexed":true,"internalType":"address","name":"owner","type":"address"},{"indexed":false,"internalType":"uint256","name":"returnedAmount","type":"uint256"},{"indexed":false,"internalType":"uint256","name":"commission","type":"uint256"},{"indexed":false,"internalType":"uint256","name":"returnedCommission","type":"uint256"}],"name":"ExpiredOrderProcessed","type":"event"},{"anonymous":false,"inputs":[{"indexed":true,"internalType":"uint256","name":"id","type":"uint256"},{"indexed":false,"internalType":"uint256","name":"notIndexedArgumentSoTheThingDoesntBreak","type":"uint256"}],"name":"NewOrderAddedToPendingQueue","type":"event"},{"anonymous":false,"inputs":[{"indexed":true,"internalType":"uint256","name":"id","type":"uint256"},{"indexed":true,"internalType":"address","name":"sender","type":"address"},{"indexed":false,"internalType":"address","name":"baseTokenAddress","type":"address"},{"indexed":false,"internalType":"address","name":"secondaryTokenAddress","type":"address"},{"indexed":false,"internalType":"uint256","name":"exchangeableAmount","type":"uint256"},{"indexed":false,"internalType":"uint256","name":"reservedCommission","type":"uint256"},{"indexed":false,"internalType":"uint256","name":"price","type":"uint256"},{"indexed":false,"internalType":"uint256","name":"multiplyFactor","type":"uint256"},{"indexed":false,"internalType":"uint64","name":"expiresInTick","type":"uint64"},{"indexed":false,"internalType":"bool","name":"isBuy","type":"bool"},{"indexed":false,"internalType":"enum MoCExchangeLib.OrderType","name":"orderType","type":"uint8"}],"name":"NewOrderInserted","type":"event"},{"anonymous":false,"inputs":[{"indexed":true,"internalType":"uint256","name":"orderId","type":"uint256"},{"indexed":false,"internalType":"uint256","name":"amountSent","type":"uint256"},{"indexed":false,"internalType":"uint256","name":"commission","type":"uint256"},{"indexed":false,"internalType":"uint256","name":"received","type":"uint256"},{"indexed":false,"internalType":"uint256","name":"surplus","type":"uint256"},{"indexed":false,"internalType":"uint256","name":"remainingAmount","type":"uint256"},{"indexed":false,"internalType":"uint256","name":"matchPrice","type":"uint256"},{"indexed":false,"internalType":"uint64","name":"tickNumber","type":"uint64"}],"name":"SellerMatch","type":"event"},{"anonymous":false,"inputs":[{"indexed":true,"internalType":"address","name":"baseTokenAddress","type":"address"},{"indexed":true,"internalType":"address","name":"secondaryTokenAddress","type":"address"},{"indexed":true,"internalType":"uint64","name":"number","type":"uint64"},{"indexed":false,"internalType":"uint256","name":"nextTickBlock","type":"uint256"},{"indexed":false,"internalType":"uint256","name":"closingPrice","type":"uint256"}],"name":"TickEnd","type":"event"},{"inputs":[{"internalType":"uint256","name":"_oldEMA","type":"uint256"},{"internalType":"uint256","name":"_newValue","type":"uint256"},{"internalType":"uint256","name":"_smoothingFactor","type":"uint256"},{"internalType":"uint256","name":"_factorPrecision","type":"uint256"}],"name":"calculateNewEMA","outputs":[{"internalType":"uint256","name":"","type":"uint256"}],"stateMutability":"pure","type":"function"},{"inputs":[{"internalType":"uint256","name":"_buyAmount","type":"uint256"},{"internalType":"uint256","name":"_buyPrice","type":"uint256"},{"internalType":"uint256","name":"_sellAmount","type":"uint256"},{"internalType":"uint256","name":"_priceComparisonPrecision","type":"uint256"}],"name":"compareIntents","outputs":[{"internalType":"uint256","name":"limitingAmount","type":"uint256"},{"internalType":"enum MoCExchangeLib.MatchType","name":"matchType","type":"MoCExchangeLib.MatchType"}],"stateMutability":"pure","type":"function"}],"evm":{"bytecode":{"linkReferences":{},"object":"61422d61003a600b82828239805160001a60731461002d57634e487b7160e01b600052600060045260246000fd5b30600052607381538281f3fe730000000000000000000000000000000000000000301460806040526004361061021b5760003560e01c80639feb85471161012f578063d0553f66116100b7578063e9322fe111610086578063e9322fe1146105a4578063ea850a41146105c4578063ef6d501c146105d7578063f786a140146105f7578063fcd240031461062a57600080fd5b8063d0553f6614610531578063d50d46a414610551578063d83fd36a14610571578063e71df4281461059157600080fd5b8063af533178116100fe578063af533178146104a3578063c0898481146104c3578063c62347f0146104d6578063c8b8dded146104e9578063cf1ba066146104fc57600080fd5b80639feb854714610426578063a2737a2e14610450578063a433a92a14610463578063aab4ca7e1461048357600080fd5b8063323bfe21116101b2578063582e61a911610181578063582e61a9146103925780636c8b5798146103b257806370f7d79b146103d257806392e7f04e146103f25780639ac754fd1461040557600080fd5b8063323bfe211461033957806341ff14441461034c57806342d6fd321461036c5780634356154a1461037f57600080fd5b806325242cf5116101ee57806325242cf5146102b85780632bc769f4146102d85780632e3c578f146103065780632f554eb91461032657600080fd5b80630f0ea5af14610220578063126fd5b41461025557806317b445f4146102835780631defbdbf14610298575b600080fd5b81801561022c57600080fd5b5061024061023b366004613afb565b61064a565b60405190151581526020015b60405180910390f35b81801561026157600080fd5b50610275610270366004613b55565b610ac4565b60405190815260200161024c565b610296610291366004613bd7565b610e44565b005b8180156102a457600080fd5b506102966102b3366004613c03565b610e66565b8180156102c457600080fd5b506102966102d3366004613afb565b610e94565b6102eb6102e6366004613c5f565b610f1f565b6040805193845260208401929092529082015260600161024c565b81801561031257600080fd5b50610296610321366004613c9c565b610f68565b6102eb610334366004613cff565b61107e565b610275610347366004613afb565b611103565b81801561035857600080fd5b50610240610367366004613d45565b6111ce565b61027561037a366004613da0565b61132c565b61029661038d366004613bd7565b61137b565b81801561039e57600080fd5b506102966103ad366004613afb565b611398565b8180156103be57600080fd5b506102406103cd366004613d45565b611471565b8180156103de57600080fd5b506102966103ed366004613dd2565b6115a9565b610275610400366004613da0565b6115c4565b610418610413366004613da0565b61166f565b60405161024c929190613e39565b610439610434366004613bd7565b6116bd565b60408051921515835260208301919091520161024c565b61027561045e366004613e5d565b611767565b81801561046f57600080fd5b5061024061047e366004613afb565b6117eb565b81801561048f57600080fd5b5061029661049e366004613c9c565b61183c565b8180156104af57600080fd5b506102966104be366004613c9c565b611850565b6102756104d1366004613e5d565b61195e565b6102eb6104e4366004613e92565b6119d7565b6102756104f7366004613ec2565b611a56565b81801561050857600080fd5b5061051c610517366004613ee4565b611b35565b6040805192835260208301919091520161024c565b81801561053d57600080fd5b5061029661054c366004613f25565b611c1f565b81801561055d57600080fd5b5061029661056c366004613afb565b611c4e565b81801561057d57600080fd5b5061029661058c366004613afb565b611e16565b61024061059f366004613e92565b611e9d565b8180156105b057600080fd5b506102756105bf366004613f92565b611f1a565b6102756105d2366004613ec2565b61213c565b8180156105e357600080fd5b506102966105f2366004613ec2565b61220d565b61060a610605366004613afb565b612375565b60408051948552602085019390935291830152606082015260800161024c565b81801561063657600080fd5b50610296610645366004613bd7565b61242f565b60006001603a83015460ff16600381111561066757610667613e23565b1461067457610674614026565b603b820154603983015460358401546036850154603786015460388701546025880195602d89019590949093909290916106af85898961256e565b6106c3575060009998505050505050505050565b6040805161012081019091528854600091610773918891908c90829060ff1660018111156106f3576106f3613e23565b600181111561070457610704613e23565b815260018201546020820152600282015460408201526003820154606082015260048201546080820152600582015460a0820152600682015460c08201526007909101546001600160a01b03811660e0830152600160a01b90046001600160401b0316610100909101526125f1565b905060008061078c8b60020154848c600201548c61166f565b909250905060028160028111156107a5576107a5613e23565b036107d3576107b58d60016119d7565b919c50975095506107c78d60006119d7565b919b5095509350610875565b60008160028111156107e7576107e7613e23565b03610818576107f78d60016119d7565b60028d0154929d50909850965061080e9083612629565b60028b0155610875565b600181600281111561082c5761082c613e23565b0361086d57600061083e83858c612687565b905061084b8e60006119d7565b60028f0154929d5090975095506108629082612629565b60028d015550610875565b610875614026565b6000600282600281111561088b5761088b613e23565b1461089757600161089a565b60025b60228f015460ff9190911691506108b19082612697565b60228f01556108c1898d8d61256e565b15610ab0578b5460258f0180548e9260ff1690829060ff1916600183818111156108ed576108ed613e23565b02179055506001820154816001015560028201548160020155600382015481600301556004820154816004015560058201548160050155600682015481600601556007820160009054906101000a90046001600160a01b03168160070160006101000a8154816001600160a01b0302191690836001600160a01b031602179055506007820160149054906101000a90046001600160401b03168160070160146101000a8154816001600160401b0302191690836001600160401b031602179055509050508a8e602101600c016000820160009054906101000a900460ff168160000160006101000a81548160ff021916908360018111156109f0576109f0613e23565b0217905550600182810154828201556002808401549083015560038084015490830155600480840154908301556005808401549083015560068084015490830155600792830180549390920180546001600160a01b031981166001600160a01b03909516948517825592546001600160401b03600160a01b9182900416026001600160e01b03199093169093179190911790915560358f01989098555050505060368a019290925560378901556038909701969096555093949350505050565b5060009d9c50505050505050505050505050565b603d89015460009060ff1615610b1a5760405162461bcd60e51b815260206004820152601660248201527514185a5c881a185cc81899595b88191a5cd8589b195960521b60448201526064015b60405180910390fd5b85600003610b6a5760405162461bcd60e51b815260206004820152601d60248201527f4d756c7469706c79466163746f722063616e6e6f74206265207a65726f0000006044820152606401610b11565b87600003610bc55760405162461bcd60e51b815260206004820152602260248201527f45786368616e676561626c6520616d6f756e742063616e6e6f74206265207a65604482015261726f60f01b6064820152608401610b11565b600082610bd5578a600e01610bd7565b8a5b90506000610be58a8a612697565b600d830154604051636eb1769f60e11b81526001600160a01b03888116600483015230602483015292935083929091169063dd62ed3e90604401602060405180830381865afa158015610c3c573d6000803e3d6000fd5b505050506040513d601f19601f82011682018060405250810190610c60919061403c565b1015610ca25760405162461bcd60e51b8152602060048201526011602482015270416c6c6f77616e636520746f6f206c6f7760781b6044820152606401610b11565b600d8201546040516323b872dd60e01b81526001600160a01b03878116600483015230602483015260448201849052909116906323b872dd906064016020604051808303816000875af1158015610cfd573d6000803e3d6000fd5b505050506040513d601f19601f82011682018060405250810190610d219190614055565b610d655760405162461bcd60e51b8152602060048201526015602482015274151bdad95b881d1c985b9cd9995c8819985a5b1959605a1b6044820152606401610b11565b600080603a8e015460ff166003811115610d8157610d81613e23565b60208f01549114159150600090610da2908a906001600160401b0316614088565b90508115610df957610db9848e898f8f8f87610f68565b8c7fc74df9a166181f1bd5d8a749d06b749b580e9a56e8b68530dc79d79eef0ca55b6000604051610dec91815260200190565b60405180910390a2610e33565b60018801610e1457610e0f848e8e8e8e866115a9565b610e23565b610e23848e8e8e8e868e610e66565b610e338d8f898f8f8f878d6126f6565b505050509998505050505050505050565b80600003610e5b57610e568383612754565b505050565b610e568382846127ce565b610e7187848361137b565b610e8087873388888888612963565b610e8b878783612a78565b50505050505050565b6003603a82015460ff166003811115610eaf57610eaf613e23565b14610ebc57610ebc614026565b600d810154601b820154600091610ee891849160218301916001600160a01b03918216911660016111ce565b905080610f1b57600d820154601b830154610e5691600e85019160218601916001600160a01b03908116911660006111ce565b5050565b60008060008086610f3357600e8801610f35565b875b6020890154909150610f579082906001600160401b031688886103348d611103565b935093509350509450945094915050565b6040805161012081019091528060018152602080820189905260408083018890526060830187905260006080840181905260a0840187905260c084018190526001600160a01b038a1660e08501526001600160401b03861661010090940193909352898352908a9052902081518154829060ff191660018381811115610ff057610ff0613e23565b02179055506020820151600182015560408201516002820155606082015160038201556080820151600482015560a0820151600582015560c0820151600682015560e082015160079091018054610100909301516001600160401b0316600160a01b026001600160e01b03199093166001600160a01b0390921691909117919091179055610e8b8787612af0565b60008060008061108f898989611767565b9050600061109e8a8a8961195e565b905060006110ae878c85856115c4565b905060008080835460ff1660018111156110ca576110ca613e23565b146110da578a83600101546110e1565b82600101548a5b915091506110f1898e87876115c4565b9d919c509a5098505050505050505050565b600080600083601c0160009054906101000a90046001600160a01b03166001600160a01b03166359e02dd76040518163ffffffff1660e01b81526004016040805180830381865afa15801561115c573d6000803e3d6000fd5b505050506040513d601f19601f8201168201806040525081019061118091906140a8565b91509150806111c75760405162461bcd60e51b81526020600482015260136024820152725072696365206e6f7420617661696c61626c6560681b6044820152606401610b11565b5092915050565b600b85015460009081036111e457506000611323565b60088601805460009081526020889052604090206006810154909155600b870154611210906001612629565b600b880155600286015460038701546000911115611276576003870180546002890191600061123e836140cd565b9190505581548110611252576112526140e6565b906000526020600020015490506112718860000183600501548361137b565b61128a565b611287886000018360050154611a56565b90505b8160070160009054906101000a90046001600160a01b03166001600160a01b031682600101546000805160206141d8833981519152888886600201548760030154600089600501548a60070160149054906101000a90046001600160401b03168d600160405161130299989796959493929190614110565b60405180910390a361131c88600001836001015483612a78565b6001925050505b95945050505050565b6000806113438361133d8787612ba8565b90612c2a565b9050600061135f8461133d6113588289612629565b8a90612ba8565b9050600061136d8284612697565b93505050505b949350505050565b8060000361138d57610e568383612c87565b610e56838284612d10565b670de0b6b3a76400006001603a83015460ff1660038111156113bc576113bc613e23565b146113c9576113c9614026565b602282015415610f1b5760398201546040805161012081019091526025840180546114459361140c9390929091829060ff1660018111156106f3576106f3613e23565b6039840154604080516101208101909152602d8601805461144093929190829060ff1660018111156106f3576106f3613e23565b612ebb565b60218301819055603c8301819055603e830154603f84015461146892908461132c565b603e8301555050565b600a850154600090810361148757506000611323565b600686810180546000908152602089905260409020918201549055600a8701546114b2906001612629565b600a88015560028601546003870154600091111561151857600387018054600289019160006114e0836140cd565b91905055815481106114f4576114f46140e6565b9060005260206000200154905061151388600001836004015483610e44565b61152c565b61152988600001836004015461213c565b90505b600782015460018301546002840154600385015460048601546040516001600160a01b038616956000805160206141d88339815191529461158f948e948e94929391929091600091600160a01b9091046001600160401b0316908f908390614110565b60405180910390a361131c88600001836001015483612ed6565b6115bc8686868686866102b38d8a611a56565b505050505050565b6000826001015460001480156115dc57506001820154155b156115e8575081611373565b6001830154158015906115fd57506001820154155b15611609575081611373565b600183015415801561161e5750600182015415155b1561162a575080611373565b600061163a868460050154612f3b565b90508084600401541480611658575061165885856004015483612f53565b156116665783915050611373565b82915050611373565b600080806116818661133d8987612ba8565b905080851115611696579150600090506116b4565b808510156116ab5784600192509250506116b4565b84600292509250505b94509492505050565b6000808080855460ff1660018111156116d8576116d8613e23565b146116e75785600201546116ed565b85600101545b9050600084156116fd57846116ff565b815b6000818152602089905260409020600188015460068201541495509091505b8415801561172f5750600681015415155b1561175b576006810154600090815260208990526040902090508660010154816006015414945061171e565b92505050935093915050565b600080821561178c5760008381526020869052604080822060060154825290206117a0565b600185015460009081526020869052604090205b90508060010154600014806117c557506117c381856001600160401b0316612f86565b155b156117d15790506117e4565b6117e085858360010154611767565b9150505b9392505050565b60006117f682611e16565b600a82015460009015158061180e5750601883015415155b9050806118365761181e83610e94565b600b8301541515806118335750601983015415155b90505b92915050565b610e8b8787878787878761054c8f8b61213c565b6040805161012081018252600080825260208083018a9052828401889052606083018790526080830186905260a0830182905260c083018290526001600160a01b03891660e08401526001600160401b0385166101008401528982528a90529190912081518154829060ff1916600183818111156118d0576118d0613e23565b02179055506020820151600182015560408201516002820155606082015160038201556080820151600482015560a0820151600582015560c0820151600682015560e082015160079091018054610100909301516001600160401b0316600160a01b026001600160e01b03199093166001600160a01b0390921691909117919091179055610e8b878761301f565b6000808215611983576000838152602086905260408082206006015482529020611997565b600285015460009081526020869052604090205b90508060010154600014806119bc57506119ba81856001600160401b0316612f86565b155b156119c85790506117e4565b6117e08585836001015461195e565b6020820154600090819081906001600160401b031681856119fb57600e87016119fd565b865b9050600086611a10576037880154611a16565b60358801545b9050600087611a29576038890154611a2f565b60368901545b9050611a45838584848d6021016018015461107e565b965096509650505050509250925092565b60008260040154600003611a6c57506000611836565b6002830154600090815260208490526040812090506000611a9285858460050154612f53565b90508015611aa557600092505050611836565b600682015415611b2957600682015460009081526020869052604081209050611ad386868360050154612f53565b91505b81158015611ae75750600683015415155b15611b27578092508260060154600014611b2257600683015460009081526020879052604090209050611b1f86868360050154612f53565b91505b611ad6565b505b50600101549392505050565b600080600083611b485786600e01611b4a565b865b6000878152602082905260408120919250508060010154600003611ba25760405162461bcd60e51b815260206004820152600f60248201526e13dc99195c881b9bdd08199bdd5b99608a1b6044820152606401610b11565b6002810154600382015460078301546001600160a01b0316611bc585858b61242f565b6001600160a01b0381163314611c0f5760405162461bcd60e51b815260206004820152600f60248201526e2737ba1037b93232b91037bbb732b960891b6044820152606401610b11565b5090999098509650505050505050565b611c2a888483610e44565b611c39888888888888886130cf565b611c44888883612ed6565b5050505050505050565b603a8101805460ff19166001179055611c6681611103565b6039820155611c768160016119d7565b60368401819055603584018290558254602585018054859260ff1690829060ff191660018381811115611cab57611cab613e23565b0217905550600182810154908201556002808301549082015560038083015490820155600480830154908201556005808301549082015560068083015490820155600791820180549290910180546001600160a01b031981166001600160a01b03909416938417825591546001600160401b03600160a01b9182900416026001600160e01b031990921690921717905550611d4b915082905060006119d7565b60388401819055603784018290558254602d85018054859260ff1690829060ff191660018381811115611d8057611d80613e23565b0217905550600182810154908201556002808301549082015560038083015490820155600480830154908201556005808301549082015560068083015490820155600791820180549290910180546001600160a01b031981166001600160a01b03909416938417825591546001600160401b03600160a01b9182900416026001600160e01b031990921690921717905550505050565b6003603a82015460ff166003811115611e3157611e31613e23565b14611e3e57611e3e614026565b600d810154601b820154600091611e6a91849160218301916001600160a01b0391821691166001611471565b905080610f1b57600d820154601b830154610e5691600e85019160218601916001600160a01b0390811691166000611471565b60008082611eae5783600e01611eb0565b835b6020850154909150611ee6906001600160401b031682611ee181600181015460009081526020919091526040902090565b61314f565b8061137357506020840154611373906001600160401b031682611ee181600281015460009081526020919091526040902090565b603d8a015460009060ff1615611f6b5760405162461bcd60e51b815260206004820152601660248201527514185a5c881a185cc81899595b88191a5cd8589b195960521b6044820152606401610b11565b600082611f7b578b600e01611f7d565b8b5b600d8101549091506001600160a01b03166323b872dd8686611f9f8e8e612697565b6040516001600160e01b031960e086901b1681526001600160a01b03938416600482015292909116602483015260448201526064016020604051808303816000875af1158015611ff3573d6000803e3d6000fd5b505050506040513d601f19601f820116820180604052508101906120179190614055565b61205b5760405162461bcd60e51b8152602060048201526015602482015274151bdad95b881d1c985b9cd9995c8819985a5b1959605a1b6044820152606401610b11565b600080603a8e015460ff16600381111561207757612077613e23565b60208f01549114159150600090612098908a906001600160401b0316614088565b905081156120ef576120af838e898f8f8f87611850565b8c7fc74df9a166181f1bd5d8a749d06b749b580e9a56e8b68530dc79d79eef0ca55b60006040516120e291815260200190565b60405180910390a261212b565b6001880161210b57612106838e898f8f8f8761183c565b61211b565b61211b838e898f8f8f878f611c1f565b61212b8d8f898f8f8f878c61319d565b5050509a9950505050505050505050565b6000826005015460000361215257506000611836565b600183015460009081526020849052604081209050600061217885858460040154612f53565b9050801561218b57600092505050611836565b600682015415611b29576006820154600090815260208690526040812090506121b986868360040154612f53565b91505b811580156121cd5750600683015415155b15611b275780925082600601546000146122085760068301546000908152602087905260409020905061220586868360040154612f53565b91505b6121bc565b6003603a83015460ff16600381111561222857612228613e23565b1461223557612235614026565b603a8201805460ff19169055600d820154601b8301546040805160608101825284548152600185015460208201526002850154918101919091526021850154602286015461229894601d8801946001600160a01b039182169491169290916131e8565b60006021830181815560228401829055906122b66023850182613a62565b5060006003820181905560048201805460ff199081169091556005830182905560068301829055600783018290556008830182905560098301829055600a8301829055600b830180546001600160e01b0319908116909155600c84018054909216909155600d8301829055600e8301829055600f83018290556010830182905560118301829055601283018290556013830180549091169055601482018190556015820181905560168201819055601782018190556018909101555050565b600080600080600080612387876132fa565b600082815260208a81526040808320848452600e8d01909252822060018201549496509294509290036123cb57600080600080975097509750975050505050612428565b61240c6124006123da8b611103565b60408051610120810190915285548690829060ff1660018111156106f3576106f3613e23565b6114406123da8c611103565b6001808401546002909401549201549098509196509450925050505b9193509193565b61243983836138cf565b1561244d57600682015460018401556124ed565b61245783836138fe565b1561246b57600682015460028401556124ed565b6000806124798585856116bd565b91509150816124ca5760405162461bcd60e51b815260206004820152601860248201527f50726576696f7573206f72646572206e6f7420666f756e6400000000000000006044820152606401610b11565b60068401546124df57600060068201556124ea565b600680850154908201555b50505b60006001835460ff16600181111561250757612507613e23565b6001808601546000908152602088905260408120805460ff1916815591820181905560028201819055600382018190556004820181905560058201819055600682015560070180546001600160e01b0319169055149050612568848261392f565b50505050565b600081600101546000141580156125885750600183015415155b8015611373575060408051610120810190915282546125bb9186918590829060ff1660018111156106f3576106f3613e23565b60408051610120810190915284546125e79187918790829060ff1660018111156106f3576106f3613e23565b1015949350505050565b6000808251600181111561260757612607613e23565b1461261f5761261a838360a00151612f3b565b611833565b5060800151919050565b60008282111561267b5760405162461bcd60e51b815260206004820152601e60248201527f536166654d6174683a207375627472616374696f6e206f766572666c6f7700006044820152606401610b11565b60006113738385614178565b60006113738261133d8686612ba8565b6000806126a4838561418b565b9050838110156118335760405162461bcd60e51b815260206004820152601b60248201527f536166654d6174683a206164646974696f6e206f766572666c6f7700000000006044820152606401610b11565b600d870154601b8801546040516001600160a01b03898116938c936000805160206141d8833981519152936127429392831692909116908b908b906000908c908c908c90600190614110565b60405180910390a35050505050505050565b600582015415610f1b5760018201546000908152602083905260408120905061278283838360040154612f53565b610e565760405162461bcd60e51b815260206004820152601c60248201527f507269636520646f65736e742062656c6f6e6720746f207374617274000000006044820152606401610b11565b600082815260208490526040812060018101549091036128305760405162461bcd60e51b815260206004820152601a60248201527f50726576696f75734f7264657220646f65736e742065786973740000000000006044820152606401610b11565b6000815460ff16600181111561284857612848613e23565b146128955760405162461bcd60e51b815260206004820152601760248201527f48696e74206973206e6f74206c696d6974206f726465720000000000000000006044820152606401610b11565b6128a484838360040154612f53565b156128ea5760405162461bcd60e51b81526020600482015260166024820152754f726465722073686f756c6420676f206265666f726560501b6044820152606401610b11565b6006810154600090815260208590526040902060018101541580612918575061291885848360040154612f53565b61295c5760405162461bcd60e51b815260206004820152601560248201527427b93232b91039b437bab6321033b79030b33a32b960591b6044820152606401610b11565b5050505050565b6040805161012081019091528060018152602080820189905260408083018890526060830187905260006080840181905260a0840187905260c084018190526001600160a01b038a1660e08501526001600160401b03861661010090940193909352898352908a9052902081518154829060ff1916600183818111156129eb576129eb613e23565b02179055506020820151600182015560408201516002820155606082015160038201556080820151600482015560a0820151600582015560c0820151600682015560e082015160079091018054610100909301516001600160401b0316600160a01b026001600160e01b03199093166001600160a01b039092169190911791909117905550505050505050565b60008281526020849052604090206003840154612a96906001612697565b60038501556004840154612aab906001612697565b60048501558115612adc5760008281526020859052604081205b600690810180549184019190915584905550612568565b600284018054600683015583905550505050565b600b82015415612b7d57600982015460009081526020839052604090206001815460ff166001811115612b2557612b25613e23565b14612b725760405162461bcd60e51b815260206004820152601760248201527f49742069736e27742061206d61726b6574206f726465720000000000000000006044820152606401610b11565b600601819055612b85565b600882018190555b60098201819055600b820154612b9c906001612697565b82600b01819055505050565b600082600003612bba57506000611836565b6000612bc6838561419e565b905082612bd385836141b5565b146118335760405162461bcd60e51b815260206004820152602160248201527f536166654d6174683a206d756c7469706c69636174696f6e206f766572666c6f6044820152607760f81b6064820152608401610b11565b6000808211612c7b5760405162461bcd60e51b815260206004820152601a60248201527f536166654d6174683a206469766973696f6e206279207a65726f0000000000006044820152606401610b11565b600061137383856141b5565b600482015415610f1b57600282015460009081526020839052604081209050612cb583838360050154612f53565b610e565760405162461bcd60e51b815260206004820152602660248201527f4d756c7469706c7920666163746f7220646f65736e742062656c6f6e6720746f604482015265081cdd185c9d60d21b6064820152608401610b11565b60008281526020849052604081206001810154909103612d725760405162461bcd60e51b815260206004820152601a60248201527f50726576696f75734f7264657220646f65736e742065786973740000000000006044820152606401610b11565b60008381526020859052604090206001905460ff166001811115612d9857612d98613e23565b14612de55760405162461bcd60e51b815260206004820152601860248201527f48696e74206973206e6f74206d61726b6574206f7264657200000000000000006044820152606401610b11565b612df484838360050154612f53565b15612e415760405162461bcd60e51b815260206004820152601d60248201527f4d61726b6574204f726465722073686f756c6420676f206265666f72650000006044820152606401610b11565b6006810154600090815260208590526040902060018101541580612e6f5750612e6f85848360050154612f53565b61295c5760405162461bcd60e51b815260206004820152601c60248201527f4d61726b6574204f726465722073686f756c6420676f206166746572000000006044820152606401610b11565b6000612eca60028484186141b5565b6118339084841661418b565b60008281526020849052604090206003840154612ef4906001612697565b60038501556005840154612f09906001612697565b60058501558115612f27576000828152602085905260408120612ac5565b600184018054600683015583905550505050565b6000611833670de0b6b3a764000061133d8486612ba8565b600c83015460009060ff168015612f6957508183115b806113735750600c84015460ff1615801561137357505011919050565b60008260010154600003612fec5760405162461bcd60e51b815260206004820152602760248201527f747269656420746f207365652065787069726174696f6e206f662061206e756c604482015266361037b93232b960c91b6064820152608401610b11565b50600791909101546fffffffffffffffffffffffffffffffff91909116600160a01b9091046001600160401b0316111590565b600a820154156130a4576007820154600090815260208390526040812090815460ff16600181111561305357613053613e23565b146130995760405162461bcd60e51b815260206004820152601660248201527524ba1034b9b713ba1030903634b6b4ba1037b93232b960511b6044820152606401610b11565b6006018190556130ac565b600682018190555b60078201819055600a8201546130c3906001612697565b82600a01819055505050565b6040805161012081018252600080825260208083018a9052828401889052606083018790526080830186905260a0830182905260c083018290526001600160a01b03891660e08401526001600160401b0385166101008401528982528a90529190912081518154829060ff1916600183818111156129eb576129eb613e23565b600081815b600182015415613191576131688287612f86565b15613178576001925050506117e4565b5060060154600081815260208590526040902090613154565b50600095945050505050565b600d870154601b8801546040516001600160a01b03898116938c936000805160206141d8833981519152936127429392831692909116908b908b908b906000908c908c908390614110565b85600201546000036131fc576131fc614026565b60008660030160009054906101000a90046001600160401b031690506000613246856000015189600101548760200151886040015161323c88600161397c565b8d60020154613992565b600289015460018a0181905590915061326090829061418b565b8855600388015461327b906001600160401b03166001614088565b60038901805467ffffffffffffffff19166001600160401b03928316179055600060028a015588546040805191825260208201879052918416916001600160a01b0389811692908b16917f23842ef287c228d5716d3763dbe31967fde900e7f446d625d51f6579f4d18a87910160405180910390a45050505050505050565b600080613305613a83565b61330d613a83565b600061331886611103565b9050613322613a83565b61332a613a83565b60008060008060008c603b015490506133468d60018787610f1f565b60408051610120810190915283548490829060ff16600181111561336c5761336c613e23565b600181111561337d5761337d613e23565b815260018201546020820152600282015460408201526003820154606082015260048201546080820152600582015460a0820152600682015460c08201526007909101546001600160a01b03811660e0830152600160a01b90046001600160401b031661010090910152995090965094506133fd90508d60008585610f1f565b60408051610120810190915283548490829060ff16600181111561342357613423613e23565b600181111561343457613434613e23565b815260018201546020820152600282015460408201526003820154606082015260048201546080820152600582015460a0820152600682015460c08201526007909101546001600160a01b03811660e0830152600160a01b90046001600160401b03166101009091015298509094509250505b6134b28888886139dc565b156138b2578699508598506000806134dd89604001516134d28c8c6125f1565b8a604001518661166f565b909250905060028160028111156134f6576134f6613e23565b0361366e576135088f60018989610f1f565b60408051610120810190915283548490829060ff16600181111561352e5761352e613e23565b600181111561353f5761353f613e23565b815260018201546020820152600282015460408201526003820154606082015260048201546080820152600582015460a0820152600682015460c08201526007909101546001600160a01b03811660e0830152600160a01b90046001600160401b0316610100909101529b5090985096506135bf90508f60008787610f1f565b60408051610120810190915283548490829060ff1660018111156135e5576135e5613e23565b60018111156135f6576135f6613e23565b815260018201546020820152600282015460408201526003820154606082015260048201546080820152600582015460a0820152600682015460c08201526007909101546001600160a01b03811660e0830152600160a01b90046001600160401b0316610100909101529a5090965094506138ab9050565b600081600281111561368257613682613e23565b03613759576136948f60018989610f1f565b60408051610120810190915283548490829060ff1660018111156136ba576136ba613e23565b60018111156136cb576136cb613e23565b81526001820154602082015260028201546040808301919091526003830154606083015260048301546080830152600583015460a0830152600683015460c08301526007909201546001600160a01b03811660e0830152600160a01b90046001600160401b0316610100909101528c0151909c50919950975061374f915083612629565b60408901526138ab565b600181600281111561376d5761376d613e23565b036138635761377f8f60008787610f1f565b60408051610120810190915283548490829060ff1660018111156137a5576137a5613e23565b60018111156137b6576137b6613e23565b815260018201546020820152600282015460408201526003820154606082015260048201546080820152600582015460a0820152600682015460c08201526007909101546001600160a01b03811660e0830152600160a01b90046001600160401b0316610100909101529a509096509450600090506138358b8b6125f1565b90506000613844848387612687565b60408c01519091506138569082612629565b60408c0152506138ab9050565b60405162461bcd60e51b815260206004820181905260248201527f776f77207468697320697320612062616420696d706c656d656e746174696f6e6044820152606401610b11565b50506134a7565b896020015189602001519b509b5050505050505050505050915091565b600080825460ff1660018111156138e8576138e8613e23565b1480156118335750506001908101549101541490565b60006001825460ff16600181111561391857613918613e23565b148015611833575050600101546002909101541490565b600382015461393f906001612629565b6003830155801561396357600482015461395a906001612629565b60048301555050565b6005820154613973906001612629565b60058301555050565b600081831161398b5781611833565b5090919050565b60008061399f8784614178565b905060006139b7856139b18b85613a11565b90613a47565b90506139c38188613a53565b90506139cf818761397c565b9998505050505050505050565b600081602001516000141580156139f65750602083015115155b80156113735750613a0784836125f1565b6125e785856125f1565b600082600003613a2357506000611836565b613a2d828461419e565b905081613a3a84836141b5565b1461183657611836614026565b600061183382846141b5565b600081831061398b5781611833565b5080546000825590600052602060002090810190613a809190613ae2565b50565b604080516101208101909152806000815260200160008152602001600081526020016000815260200160008152602001600081526020016000815260200160006001600160a01b0316815260200160006001600160401b031681525090565b5b80821115613af75760008155600101613ae3565b5090565b600060208284031215613b0d57600080fd5b5035919050565b80356001600160401b0381168114613b2b57600080fd5b919050565b80356001600160a01b0381168114613b2b57600080fd5b8015158114613a8057600080fd5b60008060008060008060008060006101208a8c031215613b7457600080fd5b8935985060208a0135975060408a0135965060608a0135955060808a01359450613ba060a08b01613b14565b935060c08a01359250613bb560e08b01613b30565b91506101008a0135613bc681613b47565b809150509295985092959850929598565b600080600060608486031215613bec57600080fd5b505081359360208301359350604090920135919050565b600080600080600080600060e0888a031215613c1e57600080fd5b8735965060208801359550604088013594506060880135935060808801359250613c4a60a08901613b14565b915060c0880135905092959891949750929550565b60008060008060808587031215613c7557600080fd5b843593506020850135613c8781613b47565b93969395505050506040820135916060013590565b600080600080600080600060e0888a031215613cb757600080fd5b8735965060208801359550613cce60408901613b30565b9450606088013593506080880135925060a08801359150613cf160c08901613b14565b905092959891949750929550565b600080600080600060a08688031215613d1757600080fd5b85359450613d2760208701613b14565b94979496505050506040830135926060810135926080909101359150565b600080600080600060a08688031215613d5d57600080fd5b8535945060208601359350613d7460408701613b30565b9250613d8260608701613b30565b91506080860135613d9281613b47565b809150509295509295909350565b60008060008060808587031215613db657600080fd5b5050823594602084013594506040840135936060013592509050565b60008060008060008060c08789031215613deb57600080fd5b8635955060208701359450604087013593506060870135925060808701359150613e1760a08801613b14565b90509295509295509295565b634e487b7160e01b600052602160045260246000fd5b8281526040810160038310613e5057613e50613e23565b8260208301529392505050565b600080600060608486031215613e7257600080fd5b83359250613e8260208501613b14565b9150604084013590509250925092565b60008060408385031215613ea557600080fd5b823591506020830135613eb781613b47565b809150509250929050565b60008060408385031215613ed557600080fd5b50508035926020909101359150565b60008060008060808587031215613efa57600080fd5b8435935060208501359250604085013591506060850135613f1a81613b47565b939692955090935050565b600080600080600080600080610100898b031215613f4257600080fd5b8835975060208901359650613f5960408a01613b30565b9550606089013594506080890135935060a08901359250613f7c60c08a01613b14565b915060e089013590509295985092959890939650565b6000806000806000806000806000806101408b8d031215613fb257600080fd5b8a35995060208b0135985060408b0135975060608b0135965060808b01359550613fde60a08c01613b14565b945060c08b01359350613ff360e08c01613b30565b92506140026101008c01613b30565b91506101208b013561401381613b47565b809150509295989b9194979a5092959850565b634e487b7160e01b600052600160045260246000fd5b60006020828403121561404e57600080fd5b5051919050565b60006020828403121561406757600080fd5b815161183381613b47565b634e487b7160e01b600052601160045260246000fd5b6001600160401b038181168382160190808211156111c7576111c7614072565b600080604083850312156140bb57600080fd5b825191506020830151613eb781613b47565b6000600182016140df576140df614072565b5060010190565b634e487b7160e01b600052603260045260246000fd5b6002811061410c5761410c613e23565b9052565b6001600160a01b038a811682528916602082015260408101889052606081018790526080810186905260a081018590526001600160401b03841660c082015282151560e0820152610120810161416a6101008301846140fc565b9a9950505050505050505050565b8181038181111561183657611836614072565b8082018082111561183657611836614072565b808202811582820484141761183657611836614072565b6000826141d257634e487b7160e01b600052601260045260246000fd5b50049056fe21fa44f85b5f9a70042f003c7b845bdcf692df1e4359b995f95ebecf05ba48e7a26469706673582212208f8a3181366d63c83cfb3688a6f5d0298a4ea8f94f57720f1c1332be7a9d9ec564736f6c63430008180033","opcodes":"PUSH2 0x422D PUSH2 0x3A PUSH1 0xB DUP3 DUP3 DUP3 CODECOPY DUP1 MLOAD PUSH1 0x0 BYTE PUSH1 0x73 EQ PUSH2 0x2D JUMPI PUSH4 0x4E487B71 PUSH1 0xE0 SHL PUSH1 0x0 MSTORE PUSH1 0x0 PUSH1 0x4 MSTORE PUSH1 0x24 PUSH1 0x0 REVERT JUMPDEST ADDRESS PUSH1 0x0 MSTORE PUSH1 0x73 DUP2 MSTORE8 DUP3 DUP2 RETURN INVALID PUSH20 0x0 ADDRESS EQ PUSH1 0x80 PUSH1 0x40 MSTORE PUSH1 0x4 CALLDATASIZE LT PUSH2 0x21B JUMPI PUSH1 0x0 CALLDATALOAD PUSH1 0xE0 SHR DUP1 PUSH4 0x9FEB8547 GT PUSH2 0x12F JUMPI DUP1 PUSH4 0xD0553F66 GT PUSH2 0xB7 JUMPI DUP1 PUSH4 0xE9322FE1 GT PUSH2 0x86 JUMPI DUP1 PUSH4 0xE9322FE1 EQ PUSH2 0x5A4 JUMPI DUP1 PUSH4 0xEA850A41 EQ PUSH2 0x5C4 JUMPI DUP1 PUSH4 0xEF6D501C EQ PUSH2 0x5D7 JUMPI DUP1 PUSH4 0xF786A140 EQ PUSH2 0x5F7 JUMPI DUP1 PUSH4 0xFCD24003 EQ PUSH2 0x62A JUMPI PUSH1 0x0 DUP1 REVERT JUMPDEST DUP1 PUSH4 0xD0553F66 EQ PUSH2 0x531 JUMPI DUP1 PUSH4 0xD50D46A4 EQ PUSH2 0x551 JUMPI DUP1 PUSH4 0xD83FD36A EQ PUSH2 0x571 JUMPI DUP1 PUSH4 0xE71DF428 EQ PUSH2 0x591 JUMPI PUSH1 0x0 DUP1 REVERT JUMPDEST DUP1 PUSH4 0xAF533178 GT PUSH2 0xFE JUMPI DUP1 PUSH4 0xAF533178 EQ PUSH2 0x4A3 JUMPI DUP1 PUSH4 0xC0898481 EQ PUSH2 0x4C3 JUMPI DUP1 PUSH4 0xC62347F0 EQ PUSH2 0x4D6 JUMPI DUP1 PUSH4 0xC8B8DDED EQ PUSH2 0x4E9 JUMPI DUP1 PUSH4 0xCF1BA066 EQ PUSH2 0x4FC JUMPI PUSH1 0x0 DUP1 REVERT JUMPDEST DUP1 PUSH4 0x9FEB8547 EQ PUSH2 0x426 JUMPI DUP1 PUSH4 0xA2737A2E EQ PUSH2 0x450 JUMPI DUP1 PUSH4 0xA433A92A EQ PUSH2 0x463 JUMPI DUP1 PUSH4 0xAAB4CA7E EQ PUSH2 0x483 JUMPI PUSH1 0x0 DUP1 REVERT JUMPDEST DUP1 PUSH4 0x323BFE21 GT PUSH2 0x1B2 JUMPI DUP1 PUSH4 0x582E61A9 GT PUSH2 0x181 JUMPI DUP1 PUSH4 0x582E61A9 EQ PUSH2 0x392 JUMPI DUP1 PUSH4 0x6C8B5798 EQ PUSH2 0x3B2 JUMPI DUP1 PUSH4 0x70F7D79B EQ PUSH2 0x3D2 JUMPI DUP1 PUSH4 0x92E7F04E EQ PUSH2 0x3F2 JUMPI DUP1 PUSH4 0x9AC754FD EQ PUSH2 0x405 JUMPI PUSH1 0x0 DUP1 REVERT JUMPDEST DUP1 PUSH4 0x323BFE21 EQ PUSH2 0x339 JUMPI DUP1 PUSH4 0x41FF1444 EQ PUSH2 0x34C JUMPI DUP1 PUSH4 0x42D6FD32 EQ PUSH2 0x36C JUMPI DUP1 PUSH4 0x4356154A EQ PUSH2 0x37F JUMPI PUSH1 0x0 DUP1 REVERT JUMPDEST DUP1 PUSH4 0x25242CF5 GT PUSH2 0x1EE JUMPI DUP1 PUSH4 0x25242CF5 EQ PUSH2 0x2B8 JUMPI DUP1 PUSH4 0x2BC769F4 EQ PUSH2 0x2D8 JUMPI DUP1 PUSH4 0x2E3C578F EQ PUSH2 0x306 JUMPI DUP1 PUSH4 0x2F554EB9 EQ PUSH2 0x326 JUMPI PUSH1 0x0 DUP1 REVERT JUMPDEST DUP1 PUSH4 0xF0EA5AF EQ PUSH2 0x220 JUMPI DUP1 PUSH4 0x126FD5B4 EQ PUSH2 0x255 JUMPI DUP1 PUSH4 0x17B445F4 EQ PUSH2 0x283 JUMPI DUP1 PUSH4 0x1DEFBDBF EQ PUSH2 0x298 JUMPI JUMPDEST PUSH1 0x0 DUP1 REVERT JUMPDEST DUP2 DUP1 ISZERO PUSH2 0x22C JUMPI PUSH1 0x0 DUP1 REVERT JUMPDEST POP PUSH2 0x240 PUSH2 0x23B CALLDATASIZE PUSH1 0x4 PUSH2 0x3AFB JUMP JUMPDEST PUSH2 0x64A JUMP JUMPDEST PUSH1 0x40 MLOAD SWAP1 ISZERO ISZERO DUP2 MSTORE PUSH1 0x20 ADD JUMPDEST PUSH1 0x40 MLOAD DUP1 SWAP2 SUB SWAP1 RETURN JUMPDEST DUP2 DUP1 ISZERO PUSH2 0x261 JUMPI PUSH1 0x0 DUP1 REVERT JUMPDEST POP PUSH2 0x275 PUSH2 0x270 CALLDATASIZE PUSH1 0x4 PUSH2 0x3B55 JUMP JUMPDEST PUSH2 0xAC4 JUMP JUMPDEST PUSH1 0x40 MLOAD SWAP1 DUP2 MSTORE PUSH1 0x20 ADD PUSH2 0x24C JUMP JUMPDEST PUSH2 0x296 PUSH2 0x291 CALLDATASIZE PUSH1 0x4 PUSH2 0x3BD7 JUMP JUMPDEST PUSH2 0xE44 JUMP JUMPDEST STOP JUMPDEST DUP2 DUP1 ISZERO PUSH2 0x2A4 JUMPI PUSH1 0x0 DUP1 REVERT JUMPDEST POP PUSH2 0x296 PUSH2 0x2B3 CALLDATASIZE PUSH1 0x4 PUSH2 0x3C03 JUMP JUMPDEST PUSH2 0xE66 JUMP JUMPDEST DUP2 DUP1 ISZERO PUSH2 0x2C4 JUMPI PUSH1 0x0 DUP1 REVERT JUMPDEST POP PUSH2 0x296 PUSH2 0x2D3 CALLDATASIZE PUSH1 0x4 PUSH2 0x3AFB JUMP JUMPDEST PUSH2 0xE94 JUMP JUMPDEST PUSH2 0x2EB PUSH2 0x2E6 CALLDATASIZE PUSH1 0x4 PUSH2 0x3C5F JUMP JUMPDEST PUSH2 0xF1F JUMP JUMPDEST PUSH1 0x40 DUP1 MLOAD SWAP4 DUP5 MSTORE PUSH1 0x20 DUP5 ADD SWAP3 SWAP1 SWAP3 MSTORE SWAP1 DUP3 ADD MSTORE PUSH1 0x60 ADD PUSH2 0x24C JUMP JUMPDEST DUP2 DUP1 ISZERO PUSH2 0x312 JUMPI PUSH1 0x0 DUP1 REVERT JUMPDEST POP PUSH2 0x296 PUSH2 0x321 CALLDATASIZE PUSH1 0x4 PUSH2 0x3C9C JUMP JUMPDEST PUSH2 0xF68 JUMP JUMPDEST PUSH2 0x2EB PUSH2 0x334 CALLDATASIZE PUSH1 0x4 PUSH2 0x3CFF JUMP JUMPDEST PUSH2 0x107E JUMP JUMPDEST PUSH2 0x275 PUSH2 0x347 CALLDATASIZE PUSH1 0x4 PUSH2 0x3AFB JUMP JUMPDEST PUSH2 0x1103 JUMP JUMPDEST DUP2 DUP1 ISZERO PUSH2 0x358 JUMPI PUSH1 0x0 DUP1 REVERT JUMPDEST POP PUSH2 0x240 PUSH2 0x367 CALLDATASIZE PUSH1 0x4 PUSH2 0x3D45 JUMP JUMPDEST PUSH2 0x11CE JUMP JUMPDEST PUSH2 0x275 PUSH2 0x37A CALLDATASIZE PUSH1 0x4 PUSH2 0x3DA0 JUMP JUMPDEST PUSH2 0x132C JUMP JUMPDEST PUSH2 0x296 PUSH2 0x38D CALLDATASIZE PUSH1 0x4 PUSH2 0x3BD7 JUMP JUMPDEST PUSH2 0x137B JUMP JUMPDEST DUP2 DUP1 ISZERO PUSH2 0x39E JUMPI PUSH1 0x0 DUP1 REVERT JUMPDEST POP PUSH2 0x296 PUSH2 0x3AD CALLDATASIZE PUSH1 0x4 PUSH2 0x3AFB JUMP JUMPDEST PUSH2 0x1398 JUMP JUMPDEST DUP2 DUP1 ISZERO PUSH2 0x3BE JUMPI PUSH1 0x0 DUP1 REVERT JUMPDEST POP PUSH2 0x240 PUSH2 0x3CD CALLDATASIZE PUSH1 0x4 PUSH2 0x3D45 JUMP JUMPDEST PUSH2 0x1471 JUMP JUMPDEST DUP2 DUP1 ISZERO PUSH2 0x3DE JUMPI PUSH1 0x0 DUP1 REVERT JUMPDEST POP PUSH2 0x296 PUSH2 0x3ED CALLDATASIZE PUSH1 0x4 PUSH2 0x3DD2 JUMP JUMPDEST PUSH2 0x15A9 JUMP JUMPDEST PUSH2 0x275 PUSH2 0x400 CALLDATASIZE PUSH1 0x4 PUSH2 0x3DA0 JUMP JUMPDEST PUSH2 0x15C4 JUMP JUMPDEST PUSH2 0x418 PUSH2 0x413 CALLDATASIZE PUSH1 0x4 PUSH2 0x3DA0 JUMP JUMPDEST PUSH2 0x166F JUMP JUMPDEST PUSH1 0x40 MLOAD PUSH2 0x24C SWAP3 SWAP2 SWAP1 PUSH2 0x3E39 JUMP JUMPDEST PUSH2 0x439 PUSH2 0x434 CALLDATASIZE PUSH1 0x4 PUSH2 0x3BD7 JUMP JUMPDEST PUSH2 0x16BD JUMP JUMPDEST PUSH1 0x40 DUP1 MLOAD SWAP3 ISZERO ISZERO DUP4 MSTORE PUSH1 0x20 DUP4 ADD SWAP2 SWAP1 SWAP2 MSTORE ADD PUSH2 0x24C JUMP JUMPDEST PUSH2 0x275 PUSH2 0x45E CALLDATASIZE PUSH1 0x4 PUSH2 0x3E5D JUMP JUMPDEST PUSH2 0x1767 JUMP JUMPDEST DUP2 DUP1 ISZERO PUSH2 0x46F JUMPI PUSH1 0x0 DUP1 REVERT JUMPDEST POP PUSH2 0x240 PUSH2 0x47E CALLDATASIZE PUSH1 0x4 PUSH2 0x3AFB JUMP JUMPDEST PUSH2 0x17EB JUMP JUMPDEST DUP2 DUP1 ISZERO PUSH2 0x48F JUMPI PUSH1 0x0 DUP1 REVERT JUMPDEST POP PUSH2 0x296 PUSH2 0x49E CALLDATASIZE PUSH1 0x4 PUSH2 0x3C9C JUMP JUMPDEST PUSH2 0x183C JUMP JUMPDEST DUP2 DUP1 ISZERO PUSH2 0x4AF JUMPI PUSH1 0x0 DUP1 REVERT JUMPDEST POP PUSH2 0x296 PUSH2 0x4BE CALLDATASIZE PUSH1 0x4 PUSH2 0x3C9C JUMP JUMPDEST PUSH2 0x1850 JUMP JUMPDEST PUSH2 0x275 PUSH2 0x4D1 CALLDATASIZE PUSH1 0x4 PUSH2 0x3E5D JUMP JUMPDEST PUSH2 0x195E JUMP JUMPDEST PUSH2 0x2EB PUSH2 0x4E4 CALLDATASIZE PUSH1 0x4 PUSH2 0x3E92 JUMP JUMPDEST PUSH2 0x19D7 JUMP JUMPDEST PUSH2 0x275 PUSH2 0x4F7 CALLDATASIZE PUSH1 0x4 PUSH2 0x3EC2 JUMP JUMPDEST PUSH2 0x1A56 JUMP JUMPDEST DUP2 DUP1 ISZERO PUSH2 0x508 JUMPI PUSH1 0x0 DUP1 REVERT JUMPDEST POP PUSH2 0x51C PUSH2 0x517 CALLDATASIZE PUSH1 0x4 PUSH2 0x3EE4 JUMP JUMPDEST PUSH2 0x1B35 JUMP JUMPDEST PUSH1 0x40 DUP1 MLOAD SWAP3 DUP4 MSTORE PUSH1 0x20 DUP4 ADD SWAP2 SWAP1 SWAP2 MSTORE ADD PUSH2 0x24C JUMP JUMPDEST DUP2 DUP1 ISZERO PUSH2 0x53D JUMPI PUSH1 0x0 DUP1 REVERT JUMPDEST POP PUSH2 0x296 PUSH2 0x54C CALLDATASIZE PUSH1 0x4 PUSH2 0x3F25 JUMP JUMPDEST PUSH2 0x1C1F JUMP JUMPDEST DUP2 DUP1 ISZERO PUSH2 0x55D JUMPI PUSH1 0x0 DUP1 REVERT JUMPDEST POP PUSH2 0x296 PUSH2 0x56C CALLDATASIZE PUSH1 0x4 PUSH2 0x3AFB JUMP JUMPDEST PUSH2 0x1C4E JUMP JUMPDEST DUP2 DUP1 ISZERO PUSH2 0x57D JUMPI PUSH1 0x0 DUP1 REVERT JUMPDEST POP PUSH2 0x296 PUSH2 0x58C CALLDATASIZE PUSH1 0x4 PUSH2 0x3AFB JUMP JUMPDEST PUSH2 0x1E16 JUMP JUMPDEST PUSH2 0x240 PUSH2 0x59F CALLDATASIZE PUSH1 0x4 PUSH2 0x3E92 JUMP JUMPDEST PUSH2 0x1E9D JUMP JUMPDEST DUP2 DUP1 ISZERO PUSH2 0x5B0 JUMPI PUSH1 0x0 DUP1 REVERT JUMPDEST POP PUSH2 0x275 PUSH2 0x5BF CALLDATASIZE PUSH1 0x4 PUSH2 0x3F92 JUMP JUMPDEST PUSH2 0x1F1A JUMP JUMPDEST PUSH2 0x275 PUSH2 0x5D2 CALLDATASIZE PUSH1 0x4 PUSH2 0x3EC2 JUMP JUMPDEST PUSH2 0x213C JUMP JUMPDEST DUP2 DUP1 ISZERO PUSH2 0x5E3 JUMPI PUSH1 0x0 DUP1 REVERT JUMPDEST POP PUSH2 0x296 PUSH2 0x5F2 CALLDATASIZE PUSH1 0x4 PUSH2 0x3EC2 JUMP JUMPDEST PUSH2 0x220D JUMP JUMPDEST PUSH2 0x60A PUSH2 0x605 CALLDATASIZE PUSH1 0x4 PUSH2 0x3AFB JUMP JUMPDEST PUSH2 0x2375 JUMP JUMPDEST PUSH1 0x40 DUP1 MLOAD SWAP5 DUP6 MSTORE PUSH1 0x20 DUP6 ADD SWAP4 SWAP1 SWAP4 MSTORE SWAP2 DUP4 ADD MSTORE PUSH1 0x60 DUP3 ADD MSTORE PUSH1 0x80 ADD PUSH2 0x24C JUMP JUMPDEST DUP2 DUP1 ISZERO PUSH2 0x636 JUMPI PUSH1 0x0 DUP1 REVERT JUMPDEST POP PUSH2 0x296 PUSH2 0x645 CALLDATASIZE PUSH1 0x4 PUSH2 0x3BD7 JUMP JUMPDEST PUSH2 0x242F JUMP JUMPDEST PUSH1 0x0 PUSH1 0x1 PUSH1 0x3A DUP4 ADD SLOAD PUSH1 0xFF AND PUSH1 0x3 DUP2 GT ISZERO PUSH2 0x667 JUMPI PUSH2 0x667 PUSH2 0x3E23 JUMP JUMPDEST EQ PUSH2 0x674 JUMPI PUSH2 0x674 PUSH2 0x4026 JUMP JUMPDEST PUSH1 0x3B DUP3 ADD SLOAD PUSH1 0x39 DUP4 ADD SLOAD PUSH1 0x35 DUP5 ADD SLOAD PUSH1 0x36 DUP6 ADD SLOAD PUSH1 0x37 DUP7 ADD SLOAD PUSH1 0x38 DUP8 ADD SLOAD PUSH1 0x25 DUP9 ADD SWAP6 PUSH1 0x2D DUP10 ADD SWAP6 SWAP1 SWAP5 SWAP1 SWAP4 SWAP1 SWAP3 SWAP1 SWAP2 PUSH2 0x6AF DUP6 DUP10 DUP10 PUSH2 0x256E JUMP JUMPDEST PUSH2 0x6C3 JUMPI POP PUSH1 0x0 SWAP10 SWAP9 POP POP POP POP POP POP POP POP POP JUMP JUMPDEST PUSH1 0x40 DUP1 MLOAD PUSH2 0x120 DUP2 ADD SWAP1 SWAP2 MSTORE DUP9 SLOAD PUSH1 0x0 SWAP2 PUSH2 0x773 SWAP2 DUP9 SWAP2 SWAP1 DUP13 SWAP1 DUP3 SWAP1 PUSH1 0xFF AND PUSH1 0x1 DUP2 GT ISZERO PUSH2 0x6F3 JUMPI PUSH2 0x6F3 PUSH2 0x3E23 JUMP JUMPDEST PUSH1 0x1 DUP2 GT ISZERO PUSH2 0x704 JUMPI PUSH2 0x704 PUSH2 0x3E23 JUMP JUMPDEST DUP2 MSTORE PUSH1 0x1 DUP3 ADD SLOAD PUSH1 0x20 DUP3 ADD MSTORE PUSH1 0x2 DUP3 ADD SLOAD PUSH1 0x40 DUP3 ADD MSTORE PUSH1 0x3 DUP3 ADD SLOAD PUSH1 0x60 DUP3 ADD MSTORE PUSH1 0x4 DUP3 ADD SLOAD PUSH1 0x80 DUP3 ADD MSTORE PUSH1 0x5 DUP3 ADD SLOAD PUSH1 0xA0 DUP3 ADD MSTORE PUSH1 0x6 DUP3 ADD SLOAD PUSH1 0xC0 DUP3 ADD MSTORE PUSH1 0x7 SWAP1 SWAP2 ADD SLOAD PUSH1 0x1 PUSH1 0x1 PUSH1 0xA0 SHL SUB DUP2 AND PUSH1 0xE0 DUP4 ADD MSTORE PUSH1 0x1 PUSH1 0xA0 SHL SWAP1 DIV PUSH1 0x1 PUSH1 0x1 PUSH1 0x40 SHL SUB AND PUSH2 0x100 SWAP1 SWAP2 ADD MSTORE PUSH2 0x25F1 JUMP JUMPDEST SWAP1 POP PUSH1 0x0 DUP1 PUSH2 0x78C DUP12 PUSH1 0x2 ADD SLOAD DUP5 DUP13 PUSH1 0x2 ADD SLOAD DUP13 PUSH2 0x166F JUMP JUMPDEST SWAP1 SWAP3 POP SWAP1 POP PUSH1 0x2 DUP2 PUSH1 0x2 DUP2 GT ISZERO PUSH2 0x7A5 JUMPI PUSH2 0x7A5 PUSH2 0x3E23 JUMP JUMPDEST SUB PUSH2 0x7D3 JUMPI PUSH2 0x7B5 DUP14 PUSH1 0x1 PUSH2 0x19D7 JUMP JUMPDEST SWAP2 SWAP13 POP SWAP8 POP SWAP6 POP PUSH2 0x7C7 DUP14 PUSH1 0x0 PUSH2 0x19D7 JUMP JUMPDEST SWAP2 SWAP12 POP SWAP6 POP SWAP4 POP PUSH2 0x875 JUMP JUMPDEST PUSH1 0x0 DUP2 PUSH1 0x2 DUP2 GT ISZERO PUSH2 0x7E7 JUMPI PUSH2 0x7E7 PUSH2 0x3E23 JUMP JUMPDEST SUB PUSH2 0x818 JUMPI PUSH2 0x7F7 DUP14 PUSH1 0x1 PUSH2 0x19D7 JUMP JUMPDEST PUSH1 0x2 DUP14 ADD SLOAD SWAP3 SWAP14 POP SWAP1 SWAP9 POP SWAP7 POP PUSH2 0x80E SWAP1 DUP4 PUSH2 0x2629 JUMP JUMPDEST PUSH1 0x2 DUP12 ADD SSTORE PUSH2 0x875 JUMP JUMPDEST PUSH1 0x1 DUP2 PUSH1 0x2 DUP2 GT ISZERO PUSH2 0x82C JUMPI PUSH2 0x82C PUSH2 0x3E23 JUMP JUMPDEST SUB PUSH2 0x86D JUMPI PUSH1 0x0 PUSH2 0x83E DUP4 DUP6 DUP13 PUSH2 0x2687 JUMP JUMPDEST SWAP1 POP PUSH2 0x84B DUP15 PUSH1 0x0 PUSH2 0x19D7 JUMP JUMPDEST PUSH1 0x2 DUP16 ADD SLOAD SWAP3 SWAP14 POP SWAP1 SWAP8 POP SWAP6 POP PUSH2 0x862 SWAP1 DUP3 PUSH2 0x2629 JUMP JUMPDEST PUSH1 0x2 DUP14 ADD SSTORE POP PUSH2 0x875 JUMP JUMPDEST PUSH2 0x875 PUSH2 0x4026 JUMP JUMPDEST PUSH1 0x0 PUSH1 0x2 DUP3 PUSH1 0x2 DUP2 GT ISZERO PUSH2 0x88B JUMPI PUSH2 0x88B PUSH2 0x3E23 JUMP JUMPDEST EQ PUSH2 0x897 JUMPI PUSH1 0x1 PUSH2 0x89A JUMP JUMPDEST PUSH1 0x2 JUMPDEST PUSH1 0x22 DUP16 ADD SLOAD PUSH1 0xFF SWAP2 SWAP1 SWAP2 AND SWAP2 POP PUSH2 0x8B1 SWAP1 DUP3 PUSH2 0x2697 JUMP JUMPDEST PUSH1 0x22 DUP16 ADD SSTORE PUSH2 0x8C1 DUP10 DUP14 DUP14 PUSH2 0x256E JUMP JUMPDEST ISZERO PUSH2 0xAB0 JUMPI DUP12 SLOAD PUSH1 0x25 DUP16 ADD DUP1 SLOAD DUP15 SWAP3 PUSH1 0xFF AND SWAP1 DUP3 SWAP1 PUSH1 0xFF NOT AND PUSH1 0x1 DUP4 DUP2 DUP2 GT ISZERO PUSH2 0x8ED JUMPI PUSH2 0x8ED PUSH2 0x3E23 JUMP JUMPDEST MUL OR SWAP1 SSTORE POP PUSH1 0x1 DUP3 ADD SLOAD DUP2 PUSH1 0x1 ADD SSTORE PUSH1 0x2 DUP3 ADD SLOAD DUP2 PUSH1 0x2 ADD SSTORE PUSH1 0x3 DUP3 ADD SLOAD DUP2 PUSH1 0x3 ADD SSTORE PUSH1 0x4 DUP3 ADD SLOAD DUP2 PUSH1 0x4 ADD SSTORE PUSH1 0x5 DUP3 ADD SLOAD DUP2 PUSH1 0x5 ADD SSTORE PUSH1 0x6 DUP3 ADD SLOAD DUP2 PUSH1 0x6 ADD SSTORE PUSH1 0x7 DUP3 ADD PUSH1 0x0 SWAP1 SLOAD SWAP1 PUSH2 0x100 EXP SWAP1 DIV PUSH1 0x1 PUSH1 0x1 PUSH1 0xA0 SHL SUB AND DUP2 PUSH1 0x7 ADD PUSH1 0x0 PUSH2 0x100 EXP DUP2 SLOAD DUP2 PUSH1 0x1 PUSH1 0x1 PUSH1 0xA0 SHL SUB MUL NOT AND SWAP1 DUP4 PUSH1 0x1 PUSH1 0x1 PUSH1 0xA0 SHL SUB AND MUL OR SWAP1 SSTORE POP PUSH1 0x7 DUP3 ADD PUSH1 0x14 SWAP1 SLOAD SWAP1 PUSH2 0x100 EXP SWAP1 DIV PUSH1 0x1 PUSH1 0x1 PUSH1 0x40 SHL SUB AND DUP2 PUSH1 0x7 ADD PUSH1 0x14 PUSH2 0x100 EXP DUP2 SLOAD DUP2 PUSH1 0x1 PUSH1 0x1 PUSH1 0x40 SHL SUB MUL NOT AND SWAP1 DUP4 PUSH1 0x1 PUSH1 0x1 PUSH1 0x40 SHL SUB AND MUL OR SWAP1 SSTORE POP SWAP1 POP POP DUP11 DUP15 PUSH1 0x21 ADD PUSH1 0xC ADD PUSH1 0x0 DUP3 ADD PUSH1 0x0 SWAP1 SLOAD SWAP1 PUSH2 0x100 EXP SWAP1 DIV PUSH1 0xFF AND DUP2 PUSH1 0x0 ADD PUSH1 0x0 PUSH2 0x100 EXP DUP2 SLOAD DUP2 PUSH1 0xFF MUL NOT AND SWAP1 DUP4 PUSH1 0x1 DUP2 GT ISZERO PUSH2 0x9F0 JUMPI PUSH2 0x9F0 PUSH2 0x3E23 JUMP JUMPDEST MUL OR SWAP1 SSTORE POP PUSH1 0x1 DUP3 DUP2 ADD SLOAD DUP3 DUP3 ADD SSTORE PUSH1 0x2 DUP1 DUP5 ADD SLOAD SWAP1 DUP4 ADD SSTORE PUSH1 0x3 DUP1 DUP5 ADD SLOAD SWAP1 DUP4 ADD SSTORE PUSH1 0x4 DUP1 DUP5 ADD SLOAD SWAP1 DUP4 ADD SSTORE PUSH1 0x5 DUP1 DUP5 ADD SLOAD SWAP1 DUP4 ADD SSTORE PUSH1 0x6 DUP1 DUP5 ADD SLOAD SWAP1 DUP4 ADD SSTORE PUSH1 0x7 SWAP3 DUP4 ADD DUP1 SLOAD SWAP4 SWAP1 SWAP3 ADD DUP1 SLOAD PUSH1 0x1 PUSH1 0x1 PUSH1 0xA0 SHL SUB NOT DUP2 AND PUSH1 0x1 PUSH1 0x1 PUSH1 0xA0 SHL SUB SWAP1 SWAP6 AND SWAP5 DUP6 OR DUP3 SSTORE SWAP3 SLOAD PUSH1 0x1 PUSH1 0x1 PUSH1 0x40 SHL SUB PUSH1 0x1 PUSH1 0xA0 SHL SWAP2 DUP3 SWAP1 DIV AND MUL PUSH1 0x1 PUSH1 0x1 PUSH1 0xE0 SHL SUB NOT SWAP1 SWAP4 AND SWAP1 SWAP4 OR SWAP2 SWAP1 SWAP2 OR SWAP1 SWAP2 SSTORE PUSH1 0x35 DUP16 ADD SWAP9 SWAP1 SWAP9 SSTORE POP POP POP POP PUSH1 0x36 DUP11 ADD SWAP3 SWAP1 SWAP3 SSTORE PUSH1 0x37 DUP10 ADD SSTORE PUSH1 0x38 SWAP1 SWAP8 ADD SWAP7 SWAP1 SWAP7 SSTORE POP SWAP4 SWAP5 SWAP4 POP POP POP POP JUMP JUMPDEST POP PUSH1 0x0 SWAP14 SWAP13 POP POP POP POP POP POP POP POP POP POP POP POP POP JUMP JUMPDEST PUSH1 0x3D DUP10 ADD SLOAD PUSH1 0x0 SWAP1 PUSH1 0xFF AND ISZERO PUSH2 0xB1A JUMPI PUSH1 0x40 MLOAD PUSH3 0x461BCD PUSH1 0xE5 SHL DUP2 MSTORE PUSH1 0x20 PUSH1 0x4 DUP3 ADD MSTORE PUSH1 0x16 PUSH1 0x24 DUP3 ADD MSTORE PUSH22 0x14185A5C881A185CC81899595B88191A5CD8589B1959 PUSH1 0x52 SHL PUSH1 0x44 DUP3 ADD MSTORE PUSH1 0x64 ADD JUMPDEST PUSH1 0x40 MLOAD DUP1 SWAP2 SUB SWAP1 REVERT JUMPDEST DUP6 PUSH1 0x0 SUB PUSH2 0xB6A JUMPI PUSH1 0x40 MLOAD PUSH3 0x461BCD PUSH1 0xE5 SHL DUP2 MSTORE PUSH1 0x20 PUSH1 0x4 DUP3 ADD MSTORE PUSH1 0x1D PUSH1 0x24 DUP3 ADD MSTORE PUSH32 0x4D756C7469706C79466163746F722063616E6E6F74206265207A65726F000000 PUSH1 0x44 DUP3 ADD MSTORE PUSH1 0x64 ADD PUSH2 0xB11 JUMP JUMPDEST DUP8 PUSH1 0x0 SUB PUSH2 0xBC5 JUMPI PUSH1 0x40 MLOAD PUSH3 0x461BCD PUSH1 0xE5 SHL DUP2 MSTORE PUSH1 0x20 PUSH1 0x4 DUP3 ADD MSTORE PUSH1 0x22 PUSH1 0x24 DUP3 ADD MSTORE PUSH32 0x45786368616E676561626C6520616D6F756E742063616E6E6F74206265207A65 PUSH1 0x44 DUP3 ADD MSTORE PUSH2 0x726F PUSH1 0xF0 SHL PUSH1 0x64 DUP3 ADD MSTORE PUSH1 0x84 ADD PUSH2 0xB11 JUMP JUMPDEST PUSH1 0x0 DUP3 PUSH2 0xBD5 JUMPI DUP11 PUSH1 0xE ADD PUSH2 0xBD7 JUMP JUMPDEST DUP11 JUMPDEST SWAP1 POP PUSH1 0x0 PUSH2 0xBE5 DUP11 DUP11 PUSH2 0x2697 JUMP JUMPDEST PUSH1 0xD DUP4 ADD SLOAD PUSH1 0x40 MLOAD PUSH4 0x6EB1769F PUSH1 0xE1 SHL DUP2 MSTORE PUSH1 0x1 PUSH1 0x1 PUSH1 0xA0 SHL SUB DUP9 DUP2 AND PUSH1 0x4 DUP4 ADD MSTORE ADDRESS PUSH1 0x24 DUP4 ADD MSTORE SWAP3 SWAP4 POP DUP4 SWAP3 SWAP1 SWAP2 AND SWAP1 PUSH4 0xDD62ED3E SWAP1 PUSH1 0x44 ADD PUSH1 0x20 PUSH1 0x40 MLOAD DUP1 DUP4 SUB DUP2 DUP7 GAS STATICCALL ISZERO DUP1 ISZERO PUSH2 0xC3C JUMPI RETURNDATASIZE PUSH1 0x0 DUP1 RETURNDATACOPY RETURNDATASIZE PUSH1 0x0 REVERT JUMPDEST POP POP POP POP PUSH1 0x40 MLOAD RETURNDATASIZE PUSH1 0x1F NOT PUSH1 0x1F DUP3 ADD AND DUP3 ADD DUP1 PUSH1 0x40 MSTORE POP DUP2 ADD SWAP1 PUSH2 0xC60 SWAP2 SWAP1 PUSH2 0x403C JUMP JUMPDEST LT ISZERO PUSH2 0xCA2 JUMPI PUSH1 0x40 MLOAD PUSH3 0x461BCD PUSH1 0xE5 SHL DUP2 MSTORE PUSH1 0x20 PUSH1 0x4 DUP3 ADD MSTORE PUSH1 0x11 PUSH1 0x24 DUP3 ADD MSTORE PUSH17 0x416C6C6F77616E636520746F6F206C6F77 PUSH1 0x78 SHL PUSH1 0x44 DUP3 ADD MSTORE PUSH1 0x64 ADD PUSH2 0xB11 JUMP JUMPDEST PUSH1 0xD DUP3 ADD SLOAD PUSH1 0x40 MLOAD PUSH4 0x23B872DD PUSH1 0xE0 SHL DUP2 MSTORE PUSH1 0x1 PUSH1 0x1 PUSH1 0xA0 SHL SUB DUP8 DUP2 AND PUSH1 0x4 DUP4 ADD MSTORE ADDRESS PUSH1 0x24 DUP4 ADD MSTORE PUSH1 0x44 DUP3 ADD DUP5 SWAP1 MSTORE SWAP1 SWAP2 AND SWAP1 PUSH4 0x23B872DD SWAP1 PUSH1 0x64 ADD PUSH1 0x20 PUSH1 0x40 MLOAD DUP1 DUP4 SUB DUP2 PUSH1 0x0 DUP8 GAS CALL ISZERO DUP1 ISZERO PUSH2 0xCFD JUMPI RETURNDATASIZE PUSH1 0x0 DUP1 RETURNDATACOPY RETURNDATASIZE PUSH1 0x0 REVERT JUMPDEST POP POP POP POP PUSH1 0x40 MLOAD RETURNDATASIZE PUSH1 0x1F NOT PUSH1 0x1F DUP3 ADD AND DUP3 ADD DUP1 PUSH1 0x40 MSTORE POP DUP2 ADD SWAP1 PUSH2 0xD21 SWAP2 SWAP1 PUSH2 0x4055 JUMP JUMPDEST PUSH2 0xD65 JUMPI PUSH1 0x40 MLOAD PUSH3 0x461BCD PUSH1 0xE5 SHL DUP2 MSTORE PUSH1 0x20 PUSH1 0x4 DUP3 ADD MSTORE PUSH1 0x15 PUSH1 0x24 DUP3 ADD MSTORE PUSH21 0x151BDAD95B881D1C985B9CD9995C8819985A5B1959 PUSH1 0x5A SHL PUSH1 0x44 DUP3 ADD MSTORE PUSH1 0x64 ADD PUSH2 0xB11 JUMP JUMPDEST PUSH1 0x0 DUP1 PUSH1 0x3A DUP15 ADD SLOAD PUSH1 0xFF AND PUSH1 0x3 DUP2 GT ISZERO PUSH2 0xD81 JUMPI PUSH2 0xD81 PUSH2 0x3E23 JUMP JUMPDEST PUSH1 0x20 DUP16 ADD SLOAD SWAP2 EQ ISZERO SWAP2 POP PUSH1 0x0 SWAP1 PUSH2 0xDA2 SWAP1 DUP11 SWAP1 PUSH1 0x1 PUSH1 0x1 PUSH1 0x40 SHL SUB AND PUSH2 0x4088 JUMP JUMPDEST SWAP1 POP DUP2 ISZERO PUSH2 0xDF9 JUMPI PUSH2 0xDB9 DUP5 DUP15 DUP10 DUP16 DUP16 DUP16 DUP8 PUSH2 0xF68 JUMP JUMPDEST DUP13 PUSH32 0xC74DF9A166181F1BD5D8A749D06B749B580E9A56E8B68530DC79D79EEF0CA55B PUSH1 0x0 PUSH1 0x40 MLOAD PUSH2 0xDEC SWAP2 DUP2 MSTORE PUSH1 0x20 ADD SWAP1 JUMP JUMPDEST PUSH1 0x40 MLOAD DUP1 SWAP2 SUB SWAP1 LOG2 PUSH2 0xE33 JUMP JUMPDEST PUSH1 0x1 DUP9 ADD PUSH2 0xE14 JUMPI PUSH2 0xE0F DUP5 DUP15 DUP15 DUP15 DUP15 DUP7 PUSH2 0x15A9 JUMP JUMPDEST PUSH2 0xE23 JUMP JUMPDEST PUSH2 0xE23 DUP5 DUP15 DUP15 DUP15 DUP15 DUP7 DUP15 PUSH2 0xE66 JUMP JUMPDEST PUSH2 0xE33 DUP14 DUP16 DUP10 DUP16 DUP16 DUP16 DUP8 DUP14 PUSH2 0x26F6 JUMP JUMPDEST POP POP POP POP SWAP10 SWAP9 POP POP POP POP POP POP POP POP POP JUMP JUMPDEST DUP1 PUSH1 0x0 SUB PUSH2 0xE5B JUMPI PUSH2 0xE56 DUP4 DUP4 PUSH2 0x2754 JUMP JUMPDEST POP POP POP JUMP JUMPDEST PUSH2 0xE56 DUP4 DUP3 DUP5 PUSH2 0x27CE JUMP JUMPDEST PUSH2 0xE71 DUP8 DUP5 DUP4 PUSH2 0x137B JUMP JUMPDEST PUSH2 0xE80 DUP8 DUP8 CALLER DUP9 DUP9 DUP9 DUP9 PUSH2 0x2963 JUMP JUMPDEST PUSH2 0xE8B DUP8 DUP8 DUP4 PUSH2 0x2A78 JUMP JUMPDEST POP POP POP POP POP POP POP JUMP JUMPDEST PUSH1 0x3 PUSH1 0x3A DUP3 ADD SLOAD PUSH1 0xFF AND PUSH1 0x3 DUP2 GT ISZERO PUSH2 0xEAF JUMPI PUSH2 0xEAF PUSH2 0x3E23 JUMP JUMPDEST EQ PUSH2 0xEBC JUMPI PUSH2 0xEBC PUSH2 0x4026 JUMP JUMPDEST PUSH1 0xD DUP2 ADD SLOAD PUSH1 0x1B DUP3 ADD SLOAD PUSH1 0x0 SWAP2 PUSH2 0xEE8 SWAP2 DUP5 SWAP2 PUSH1 0x21 DUP4 ADD SWAP2 PUSH1 0x1 PUSH1 0x1 PUSH1 0xA0 SHL SUB SWAP2 DUP3 AND SWAP2 AND PUSH1 0x1 PUSH2 0x11CE JUMP JUMPDEST SWAP1 POP DUP1 PUSH2 0xF1B JUMPI PUSH1 0xD DUP3 ADD SLOAD PUSH1 0x1B DUP4 ADD SLOAD PUSH2 0xE56 SWAP2 PUSH1 0xE DUP6 ADD SWAP2 PUSH1 0x21 DUP7 ADD SWAP2 PUSH1 0x1 PUSH1 0x1 PUSH1 0xA0 SHL SUB SWAP1 DUP2 AND SWAP2 AND PUSH1 0x0 PUSH2 0x11CE JUMP JUMPDEST POP POP JUMP JUMPDEST PUSH1 0x0 DUP1 PUSH1 0x0 DUP1 DUP7 PUSH2 0xF33 JUMPI PUSH1 0xE DUP9 ADD PUSH2 0xF35 JUMP JUMPDEST DUP8 JUMPDEST PUSH1 0x20 DUP10 ADD SLOAD SWAP1 SWAP2 POP PUSH2 0xF57 SWAP1 DUP3 SWAP1 PUSH1 0x1 PUSH1 0x1 PUSH1 0x40 SHL SUB AND DUP9 DUP9 PUSH2 0x334 DUP14 PUSH2 0x1103 JUMP JUMPDEST SWAP4 POP SWAP4 POP SWAP4 POP POP SWAP5 POP SWAP5 POP SWAP5 SWAP2 POP POP JUMP JUMPDEST PUSH1 0x40 DUP1 MLOAD PUSH2 0x120 DUP2 ADD SWAP1 SWAP2 MSTORE DUP1 PUSH1 0x1 DUP2 MSTORE PUSH1 0x20 DUP1 DUP3 ADD DUP10 SWAP1 MSTORE PUSH1 0x40 DUP1 DUP4 ADD DUP9 SWAP1 MSTORE PUSH1 0x60 DUP4 ADD DUP8 SWAP1 MSTORE PUSH1 0x0 PUSH1 0x80 DUP5 ADD DUP2 SWAP1 MSTORE PUSH1 0xA0 DUP5 ADD DUP8 SWAP1 MSTORE PUSH1 0xC0 DUP5 ADD DUP2 SWAP1 MSTORE PUSH1 0x1 PUSH1 0x1 PUSH1 0xA0 SHL SUB DUP11 AND PUSH1 0xE0 DUP6 ADD MSTORE PUSH1 0x1 PUSH1 0x1 PUSH1 0x40 SHL SUB DUP7 AND PUSH2 0x100 SWAP1 SWAP5 ADD SWAP4 SWAP1 SWAP4 MSTORE DUP10 DUP4 MSTORE SWAP1 DUP11 SWAP1 MSTORE SWAP1 KECCAK256 DUP2 MLOAD DUP2 SLOAD DUP3 SWAP1 PUSH1 0xFF NOT AND PUSH1 0x1 DUP4 DUP2 DUP2 GT ISZERO PUSH2 0xFF0 JUMPI PUSH2 0xFF0 PUSH2 0x3E23 JUMP JUMPDEST MUL OR SWAP1 SSTORE POP PUSH1 0x20 DUP3 ADD MLOAD PUSH1 0x1 DUP3 ADD SSTORE PUSH1 0x40 DUP3 ADD MLOAD PUSH1 0x2 DUP3 ADD SSTORE PUSH1 0x60 DUP3 ADD MLOAD PUSH1 0x3 DUP3 ADD SSTORE PUSH1 0x80 DUP3 ADD MLOAD PUSH1 0x4 DUP3 ADD SSTORE PUSH1 0xA0 DUP3 ADD MLOAD PUSH1 0x5 DUP3 ADD SSTORE PUSH1 0xC0 DUP3 ADD MLOAD PUSH1 0x6 DUP3 ADD SSTORE PUSH1 0xE0 DUP3 ADD MLOAD PUSH1 0x7 SWAP1 SWAP2 ADD DUP1 SLOAD PUSH2 0x100 SWAP1 SWAP4 ADD MLOAD PUSH1 0x1 PUSH1 0x1 PUSH1 0x40 SHL SUB AND PUSH1 0x1 PUSH1 0xA0 SHL MUL PUSH1 0x1 PUSH1 0x1 PUSH1 0xE0 SHL SUB NOT SWAP1 SWAP4 AND PUSH1 0x1 PUSH1 0x1 PUSH1 0xA0 SHL SUB SWAP1 SWAP3 AND SWAP2 SWAP1 SWAP2 OR SWAP2 SWAP1 SWAP2 OR SWAP1 SSTORE PUSH2 0xE8B DUP8 DUP8 PUSH2 0x2AF0 JUMP JUMPDEST PUSH1 0x0 DUP1 PUSH1 0x0 DUP1 PUSH2 0x108F DUP10 DUP10 DUP10 PUSH2 0x1767 JUMP JUMPDEST SWAP1 POP PUSH1 0x0 PUSH2 0x109E DUP11 DUP11 DUP10 PUSH2 0x195E JUMP JUMPDEST SWAP1 POP PUSH1 0x0 PUSH2 0x10AE DUP8 DUP13 DUP6 DUP6 PUSH2 0x15C4 JUMP JUMPDEST SWAP1 POP PUSH1 0x0 DUP1 DUP1 DUP4 SLOAD PUSH1 0xFF AND PUSH1 0x1 DUP2 GT ISZERO PUSH2 0x10CA JUMPI PUSH2 0x10CA PUSH2 0x3E23 JUMP JUMPDEST EQ PUSH2 0x10DA JUMPI DUP11 DUP4 PUSH1 0x1 ADD SLOAD PUSH2 0x10E1 JUMP JUMPDEST DUP3 PUSH1 0x1 ADD SLOAD DUP11 JUMPDEST SWAP2 POP SWAP2 POP PUSH2 0x10F1 DUP10 DUP15 DUP8 DUP8 PUSH2 0x15C4 JUMP JUMPDEST SWAP14 SWAP2 SWAP13 POP SWAP11 POP SWAP9 POP POP POP POP POP POP POP POP POP JUMP JUMPDEST PUSH1 0x0 DUP1 PUSH1 0x0 DUP4 PUSH1 0x1C ADD PUSH1 0x0 SWAP1 SLOAD SWAP1 PUSH2 0x100 EXP SWAP1 DIV PUSH1 0x1 PUSH1 0x1 PUSH1 0xA0 SHL SUB AND PUSH1 0x1 PUSH1 0x1 PUSH1 0xA0 SHL SUB AND PUSH4 0x59E02DD7 PUSH1 0x40 MLOAD DUP2 PUSH4 0xFFFFFFFF AND PUSH1 0xE0 SHL DUP2 MSTORE PUSH1 0x4 ADD PUSH1 0x40 DUP1 MLOAD DUP1 DUP4 SUB DUP2 DUP7 GAS STATICCALL ISZERO DUP1 ISZERO PUSH2 0x115C JUMPI RETURNDATASIZE PUSH1 0x0 DUP1 RETURNDATACOPY RETURNDATASIZE PUSH1 0x0 REVERT JUMPDEST POP POP POP POP PUSH1 0x40 MLOAD RETURNDATASIZE PUSH1 0x1F NOT PUSH1 0x1F DUP3 ADD AND DUP3 ADD DUP1 PUSH1 0x40 MSTORE POP DUP2 ADD SWAP1 PUSH2 0x1180 SWAP2 SWAP1 PUSH2 0x40A8 JUMP JUMPDEST SWAP2 POP SWAP2 POP DUP1 PUSH2 0x11C7 JUMPI PUSH1 0x40 MLOAD PUSH3 0x461BCD PUSH1 0xE5 SHL DUP2 MSTORE PUSH1 0x20 PUSH1 0x4 DUP3 ADD MSTORE PUSH1 0x13 PUSH1 0x24 DUP3 ADD MSTORE PUSH19 0x5072696365206E6F7420617661696C61626C65 PUSH1 0x68 SHL PUSH1 0x44 DUP3 ADD MSTORE PUSH1 0x64 ADD PUSH2 0xB11 JUMP JUMPDEST POP SWAP3 SWAP2 POP POP JUMP JUMPDEST PUSH1 0xB DUP6 ADD SLOAD PUSH1 0x0 SWAP1 DUP2 SUB PUSH2 0x11E4 JUMPI POP PUSH1 0x0 PUSH2 0x1323 JUMP JUMPDEST PUSH1 0x8 DUP7 ADD DUP1 SLOAD PUSH1 0x0 SWAP1 DUP2 MSTORE PUSH1 0x20 DUP9 SWAP1 MSTORE PUSH1 0x40 SWAP1 KECCAK256 PUSH1 0x6 DUP2 ADD SLOAD SWAP1 SWAP2 SSTORE PUSH1 0xB DUP8 ADD SLOAD PUSH2 0x1210 SWAP1 PUSH1 0x1 PUSH2 0x2629 JUMP JUMPDEST PUSH1 0xB DUP9 ADD SSTORE PUSH1 0x2 DUP7 ADD SLOAD PUSH1 0x3 DUP8 ADD SLOAD PUSH1 0x0 SWAP2 GT ISZERO PUSH2 0x1276 JUMPI PUSH1 0x3 DUP8 ADD DUP1 SLOAD PUSH1 0x2 DUP10 ADD SWAP2 PUSH1 0x0 PUSH2 0x123E DUP4 PUSH2 0x40CD JUMP JUMPDEST SWAP2 SWAP1 POP SSTORE DUP2 SLOAD DUP2 LT PUSH2 0x1252 JUMPI PUSH2 0x1252 PUSH2 0x40E6 JUMP JUMPDEST SWAP1 PUSH1 0x0 MSTORE PUSH1 0x20 PUSH1 0x0 KECCAK256 ADD SLOAD SWAP1 POP PUSH2 0x1271 DUP9 PUSH1 0x0 ADD DUP4 PUSH1 0x5 ADD SLOAD DUP4 PUSH2 0x137B JUMP JUMPDEST PUSH2 0x128A JUMP JUMPDEST PUSH2 0x1287 DUP9 PUSH1 0x0 ADD DUP4 PUSH1 0x5 ADD SLOAD PUSH2 0x1A56 JUMP JUMPDEST SWAP1 POP JUMPDEST DUP2 PUSH1 0x7 ADD PUSH1 0x0 SWAP1 SLOAD SWAP1 PUSH2 0x100 EXP SWAP1 DIV PUSH1 0x1 PUSH1 0x1 PUSH1 0xA0 SHL SUB AND PUSH1 0x1 PUSH1 0x1 PUSH1 0xA0 SHL SUB AND DUP3 PUSH1 0x1 ADD SLOAD PUSH1 0x0 DUP1 MLOAD PUSH1 0x20 PUSH2 0x41D8 DUP4 CODECOPY DUP2 MLOAD SWAP2 MSTORE DUP9 DUP9 DUP7 PUSH1 0x2 ADD SLOAD DUP8 PUSH1 0x3 ADD SLOAD PUSH1 0x0 DUP10 PUSH1 0x5 ADD SLOAD DUP11 PUSH1 0x7 ADD PUSH1 0x14 SWAP1 SLOAD SWAP1 PUSH2 0x100 EXP SWAP1 DIV PUSH1 0x1 PUSH1 0x1 PUSH1 0x40 SHL SUB AND DUP14 PUSH1 0x1 PUSH1 0x40 MLOAD PUSH2 0x1302 SWAP10 SWAP9 SWAP8 SWAP7 SWAP6 SWAP5 SWAP4 SWAP3 SWAP2 SWAP1 PUSH2 0x4110 JUMP JUMPDEST PUSH1 0x40 MLOAD DUP1 SWAP2 SUB SWAP1 LOG3 PUSH2 0x131C DUP9 PUSH1 0x0 ADD DUP4 PUSH1 0x1 ADD SLOAD DUP4 PUSH2 0x2A78 JUMP JUMPDEST PUSH1 0x1 SWAP3 POP POP POP JUMPDEST SWAP6 SWAP5 POP POP POP POP POP JUMP JUMPDEST PUSH1 0x0 DUP1 PUSH2 0x1343 DUP4 PUSH2 0x133D DUP8 DUP8 PUSH2 0x2BA8 JUMP JUMPDEST SWAP1 PUSH2 0x2C2A JUMP JUMPDEST SWAP1 POP PUSH1 0x0 PUSH2 0x135F DUP5 PUSH2 0x133D PUSH2 0x1358 DUP3 DUP10 PUSH2 0x2629 JUMP JUMPDEST DUP11 SWAP1 PUSH2 0x2BA8 JUMP JUMPDEST SWAP1 POP PUSH1 0x0 PUSH2 0x136D DUP3 DUP5 PUSH2 0x2697 JUMP JUMPDEST SWAP4 POP POP POP POP JUMPDEST SWAP5 SWAP4 POP POP POP POP JUMP JUMPDEST DUP1 PUSH1 0x0 SUB PUSH2 0x138D JUMPI PUSH2 0xE56 DUP4 DUP4 PUSH2 0x2C87 JUMP JUMPDEST PUSH2 0xE56 DUP4 DUP3 DUP5 PUSH2 0x2D10 JUMP JUMPDEST PUSH8 0xDE0B6B3A7640000 PUSH1 0x1 PUSH1 0x3A DUP4 ADD SLOAD PUSH1 0xFF AND PUSH1 0x3 DUP2 GT ISZERO PUSH2 0x13BC JUMPI PUSH2 0x13BC PUSH2 0x3E23 JUMP JUMPDEST EQ PUSH2 0x13C9 JUMPI PUSH2 0x13C9 PUSH2 0x4026 JUMP JUMPDEST PUSH1 0x22 DUP3 ADD SLOAD ISZERO PUSH2 0xF1B JUMPI PUSH1 0x39 DUP3 ADD SLOAD PUSH1 0x40 DUP1 MLOAD PUSH2 0x120 DUP2 ADD SWAP1 SWAP2 MSTORE PUSH1 0x25 DUP5 ADD DUP1 SLOAD PUSH2 0x1445 SWAP4 PUSH2 0x140C SWAP4 SWAP1 SWAP3 SWAP1 SWAP2 DUP3 SWAP1 PUSH1 0xFF AND PUSH1 0x1 DUP2 GT ISZERO PUSH2 0x6F3 JUMPI PUSH2 0x6F3 PUSH2 0x3E23 JUMP JUMPDEST PUSH1 0x39 DUP5 ADD SLOAD PUSH1 0x40 DUP1 MLOAD PUSH2 0x120 DUP2 ADD SWAP1 SWAP2 MSTORE PUSH1 0x2D DUP7 ADD DUP1 SLOAD PUSH2 0x1440 SWAP4 SWAP3 SWAP2 SWAP1 DUP3 SWAP1 PUSH1 0xFF AND PUSH1 0x1 DUP2 GT ISZERO PUSH2 0x6F3 JUMPI PUSH2 0x6F3 PUSH2 0x3E23 JUMP JUMPDEST PUSH2 0x2EBB JUMP JUMPDEST PUSH1 0x21 DUP4 ADD DUP2 SWAP1 SSTORE PUSH1 0x3C DUP4 ADD DUP2 SWAP1 SSTORE PUSH1 0x3E DUP4 ADD SLOAD PUSH1 0x3F DUP5 ADD SLOAD PUSH2 0x1468 SWAP3 SWAP1 DUP5 PUSH2 0x132C JUMP JUMPDEST PUSH1 0x3E DUP4 ADD SSTORE POP POP JUMP JUMPDEST PUSH1 0xA DUP6 ADD SLOAD PUSH1 0x0 SWAP1 DUP2 SUB PUSH2 0x1487 JUMPI POP PUSH1 0x0 PUSH2 0x1323 JUMP JUMPDEST PUSH1 0x6 DUP7 DUP2 ADD DUP1 SLOAD PUSH1 0x0 SWAP1 DUP2 MSTORE PUSH1 0x20 DUP10 SWAP1 MSTORE PUSH1 0x40 SWAP1 KECCAK256 SWAP2 DUP3 ADD SLOAD SWAP1 SSTORE PUSH1 0xA DUP8 ADD SLOAD PUSH2 0x14B2 SWAP1 PUSH1 0x1 PUSH2 0x2629 JUMP JUMPDEST PUSH1 0xA DUP9 ADD SSTORE PUSH1 0x2 DUP7 ADD SLOAD PUSH1 0x3 DUP8 ADD SLOAD PUSH1 0x0 SWAP2 GT ISZERO PUSH2 0x1518 JUMPI PUSH1 0x3 DUP8 ADD DUP1 SLOAD PUSH1 0x2 DUP10 ADD SWAP2 PUSH1 0x0 PUSH2 0x14E0 DUP4 PUSH2 0x40CD JUMP JUMPDEST SWAP2 SWAP1 POP SSTORE DUP2 SLOAD DUP2 LT PUSH2 0x14F4 JUMPI PUSH2 0x14F4 PUSH2 0x40E6 JUMP JUMPDEST SWAP1 PUSH1 0x0 MSTORE PUSH1 0x20 PUSH1 0x0 KECCAK256 ADD SLOAD SWAP1 POP PUSH2 0x1513 DUP9 PUSH1 0x0 ADD DUP4 PUSH1 0x4 ADD SLOAD DUP4 PUSH2 0xE44 JUMP JUMPDEST PUSH2 0x152C JUMP JUMPDEST PUSH2 0x1529 DUP9 PUSH1 0x0 ADD DUP4 PUSH1 0x4 ADD SLOAD PUSH2 0x213C JUMP JUMPDEST SWAP1 POP JUMPDEST PUSH1 0x7 DUP3 ADD SLOAD PUSH1 0x1 DUP4 ADD SLOAD PUSH1 0x2 DUP5 ADD SLOAD PUSH1 0x3 DUP6 ADD SLOAD PUSH1 0x4 DUP7 ADD SLOAD PUSH1 0x40 MLOAD PUSH1 0x1 PUSH1 0x1 PUSH1 0xA0 SHL SUB DUP7 AND SWAP6 PUSH1 0x0 DUP1 MLOAD PUSH1 0x20 PUSH2 0x41D8 DUP4 CODECOPY DUP2 MLOAD SWAP2 MSTORE SWAP5 PUSH2 0x158F SWAP5 DUP15 SWAP5 DUP15 SWAP5 SWAP3 SWAP4 SWAP2 SWAP3 SWAP1 SWAP2 PUSH1 0x0 SWAP2 PUSH1 0x1 PUSH1 0xA0 SHL SWAP1 SWAP2 DIV PUSH1 0x1 PUSH1 0x1 PUSH1 0x40 SHL SUB AND SWAP1 DUP16 SWAP1 DUP4 SWAP1 PUSH2 0x4110 JUMP JUMPDEST PUSH1 0x40 MLOAD DUP1 SWAP2 SUB SWAP1 LOG3 PUSH2 0x131C DUP9 PUSH1 0x0 ADD DUP4 PUSH1 0x1 ADD SLOAD DUP4 PUSH2 0x2ED6 JUMP JUMPDEST PUSH2 0x15BC DUP7 DUP7 DUP7 DUP7 DUP7 DUP7 PUSH2 0x2B3 DUP14 DUP11 PUSH2 0x1A56 JUMP JUMPDEST POP POP POP POP POP POP JUMP JUMPDEST PUSH1 0x0 DUP3 PUSH1 0x1 ADD SLOAD PUSH1 0x0 EQ DUP1 ISZERO PUSH2 0x15DC JUMPI POP PUSH1 0x1 DUP3 ADD SLOAD ISZERO JUMPDEST ISZERO PUSH2 0x15E8 JUMPI POP DUP2 PUSH2 0x1373 JUMP JUMPDEST PUSH1 0x1 DUP4 ADD SLOAD ISZERO DUP1 ISZERO SWAP1 PUSH2 0x15FD JUMPI POP PUSH1 0x1 DUP3 ADD SLOAD ISZERO JUMPDEST ISZERO PUSH2 0x1609 JUMPI POP DUP2 PUSH2 0x1373 JUMP JUMPDEST PUSH1 0x1 DUP4 ADD SLOAD ISZERO DUP1 ISZERO PUSH2 0x161E JUMPI POP PUSH1 0x1 DUP3 ADD SLOAD ISZERO ISZERO JUMPDEST ISZERO PUSH2 0x162A JUMPI POP DUP1 PUSH2 0x1373 JUMP JUMPDEST PUSH1 0x0 PUSH2 0x163A DUP7 DUP5 PUSH1 0x5 ADD SLOAD PUSH2 0x2F3B JUMP JUMPDEST SWAP1 POP DUP1 DUP5 PUSH1 0x4 ADD SLOAD EQ DUP1 PUSH2 0x1658 JUMPI POP PUSH2 0x1658 DUP6 DUP6 PUSH1 0x4 ADD SLOAD DUP4 PUSH2 0x2F53 JUMP JUMPDEST ISZERO PUSH2 0x1666 JUMPI DUP4 SWAP2 POP POP PUSH2 0x1373 JUMP JUMPDEST DUP3 SWAP2 POP POP PUSH2 0x1373 JUMP JUMPDEST PUSH1 0x0 DUP1 DUP1 PUSH2 0x1681 DUP7 PUSH2 0x133D DUP10 DUP8 PUSH2 0x2BA8 JUMP JUMPDEST SWAP1 POP DUP1 DUP6 GT ISZERO PUSH2 0x1696 JUMPI SWAP2 POP PUSH1 0x0 SWAP1 POP PUSH2 0x16B4 JUMP JUMPDEST DUP1 DUP6 LT ISZERO PUSH2 0x16AB JUMPI DUP5 PUSH1 0x1 SWAP3 POP SWAP3 POP POP PUSH2 0x16B4 JUMP JUMPDEST DUP5 PUSH1 0x2 SWAP3 POP SWAP3 POP POP JUMPDEST SWAP5 POP SWAP5 SWAP3 POP POP POP JUMP JUMPDEST PUSH1 0x0 DUP1 DUP1 DUP1 DUP6 SLOAD PUSH1 0xFF AND PUSH1 0x1 DUP2 GT ISZERO PUSH2 0x16D8 JUMPI PUSH2 0x16D8 PUSH2 0x3E23 JUMP JUMPDEST EQ PUSH2 0x16E7 JUMPI DUP6 PUSH1 0x2 ADD SLOAD PUSH2 0x16ED JUMP JUMPDEST DUP6 PUSH1 0x1 ADD SLOAD JUMPDEST SWAP1 POP PUSH1 0x0 DUP5 ISZERO PUSH2 0x16FD JUMPI DUP5 PUSH2 0x16FF JUMP JUMPDEST DUP2 JUMPDEST PUSH1 0x0 DUP2 DUP2 MSTORE PUSH1 0x20 DUP10 SWAP1 MSTORE PUSH1 0x40 SWAP1 KECCAK256 PUSH1 0x1 DUP9 ADD SLOAD PUSH1 0x6 DUP3 ADD SLOAD EQ SWAP6 POP SWAP1 SWAP2 POP JUMPDEST DUP5 ISZERO DUP1 ISZERO PUSH2 0x172F JUMPI POP PUSH1 0x6 DUP2 ADD SLOAD ISZERO ISZERO JUMPDEST ISZERO PUSH2 0x175B JUMPI PUSH1 0x6 DUP2 ADD SLOAD PUSH1 0x0 SWAP1 DUP2 MSTORE PUSH1 0x20 DUP10 SWAP1 MSTORE PUSH1 0x40 SWAP1 KECCAK256 SWAP1 POP DUP7 PUSH1 0x1 ADD SLOAD DUP2 PUSH1 0x6 ADD SLOAD EQ SWAP5 POP PUSH2 0x171E JUMP JUMPDEST SWAP3 POP POP POP SWAP4 POP SWAP4 SWAP2 POP POP JUMP JUMPDEST PUSH1 0x0 DUP1 DUP3 ISZERO PUSH2 0x178C JUMPI PUSH1 0x0 DUP4 DUP2 MSTORE PUSH1 0x20 DUP7 SWAP1 MSTORE PUSH1 0x40 DUP1 DUP3 KECCAK256 PUSH1 0x6 ADD SLOAD DUP3 MSTORE SWAP1 KECCAK256 PUSH2 0x17A0 JUMP JUMPDEST PUSH1 0x1 DUP6 ADD SLOAD PUSH1 0x0 SWAP1 DUP2 MSTORE PUSH1 0x20 DUP7 SWAP1 MSTORE PUSH1 0x40 SWAP1 KECCAK256 JUMPDEST SWAP1 POP DUP1 PUSH1 0x1 ADD SLOAD PUSH1 0x0 EQ DUP1 PUSH2 0x17C5 JUMPI POP PUSH2 0x17C3 DUP2 DUP6 PUSH1 0x1 PUSH1 0x1 PUSH1 0x40 SHL SUB AND PUSH2 0x2F86 JUMP JUMPDEST ISZERO JUMPDEST ISZERO PUSH2 0x17D1 JUMPI SWAP1 POP PUSH2 0x17E4 JUMP JUMPDEST PUSH2 0x17E0 DUP6 DUP6 DUP4 PUSH1 0x1 ADD SLOAD PUSH2 0x1767 JUMP JUMPDEST SWAP2 POP POP JUMPDEST SWAP4 SWAP3 POP POP POP JUMP JUMPDEST PUSH1 0x0 PUSH2 0x17F6 DUP3 PUSH2 0x1E16 JUMP JUMPDEST PUSH1 0xA DUP3 ADD SLOAD PUSH1 0x0 SWAP1 ISZERO ISZERO DUP1 PUSH2 0x180E JUMPI POP PUSH1 0x18 DUP4 ADD SLOAD ISZERO ISZERO JUMPDEST SWAP1 POP DUP1 PUSH2 0x1836 JUMPI PUSH2 0x181E DUP4 PUSH2 0xE94 JUMP JUMPDEST PUSH1 0xB DUP4 ADD SLOAD ISZERO ISZERO DUP1 PUSH2 0x1833 JUMPI POP PUSH1 0x19 DUP4 ADD SLOAD ISZERO ISZERO JUMPDEST SWAP1 POP JUMPDEST SWAP3 SWAP2 POP POP JUMP JUMPDEST PUSH2 0xE8B DUP8 DUP8 DUP8 DUP8 DUP8 DUP8 DUP8 PUSH2 0x54C DUP16 DUP12 PUSH2 0x213C JUMP JUMPDEST PUSH1 0x40 DUP1 MLOAD PUSH2 0x120 DUP2 ADD DUP3 MSTORE PUSH1 0x0 DUP1 DUP3 MSTORE PUSH1 0x20 DUP1 DUP4 ADD DUP11 SWAP1 MSTORE DUP3 DUP5 ADD DUP9 SWAP1 MSTORE PUSH1 0x60 DUP4 ADD DUP8 SWAP1 MSTORE PUSH1 0x80 DUP4 ADD DUP7 SWAP1 MSTORE PUSH1 0xA0 DUP4 ADD DUP3 SWAP1 MSTORE PUSH1 0xC0 DUP4 ADD DUP3 SWAP1 MSTORE PUSH1 0x1 PUSH1 0x1 PUSH1 0xA0 SHL SUB DUP10 AND PUSH1 0xE0 DUP5 ADD MSTORE PUSH1 0x1 PUSH1 0x1 PUSH1 0x40 SHL SUB DUP6 AND PUSH2 0x100 DUP5 ADD MSTORE DUP10 DUP3 MSTORE DUP11 SWAP1 MSTORE SWAP2 SWAP1 SWAP2 KECCAK256 DUP2 MLOAD DUP2 SLOAD DUP3 SWAP1 PUSH1 0xFF NOT AND PUSH1 0x1 DUP4 DUP2 DUP2 GT ISZERO PUSH2 0x18D0 JUMPI PUSH2 0x18D0 PUSH2 0x3E23 JUMP JUMPDEST MUL OR SWAP1 SSTORE POP PUSH1 0x20 DUP3 ADD MLOAD PUSH1 0x1 DUP3 ADD SSTORE PUSH1 0x40 DUP3 ADD MLOAD PUSH1 0x2 DUP3 ADD SSTORE PUSH1 0x60 DUP3 ADD MLOAD PUSH1 0x3 DUP3 ADD SSTORE PUSH1 0x80 DUP3 ADD MLOAD PUSH1 0x4 DUP3 ADD SSTORE PUSH1 0xA0 DUP3 ADD MLOAD PUSH1 0x5 DUP3 ADD SSTORE PUSH1 0xC0 DUP3 ADD MLOAD PUSH1 0x6 DUP3 ADD SSTORE PUSH1 0xE0 DUP3 ADD MLOAD PUSH1 0x7 SWAP1 SWAP2 ADD DUP1 SLOAD PUSH2 0x100 SWAP1 SWAP4 ADD MLOAD PUSH1 0x1 PUSH1 0x1 PUSH1 0x40 SHL SUB AND PUSH1 0x1 PUSH1 0xA0 SHL MUL PUSH1 0x1 PUSH1 0x1 PUSH1 0xE0 SHL SUB NOT SWAP1 SWAP4 AND PUSH1 0x1 PUSH1 0x1 PUSH1 0xA0 SHL SUB SWAP1 SWAP3 AND SWAP2 SWAP1 SWAP2 OR SWAP2 SWAP1 SWAP2 OR SWAP1 SSTORE PUSH2 0xE8B DUP8 DUP8 PUSH2 0x301F JUMP JUMPDEST PUSH1 0x0 DUP1 DUP3 ISZERO PUSH2 0x1983 JUMPI PUSH1 0x0 DUP4 DUP2 MSTORE PUSH1 0x20 DUP7 SWAP1 MSTORE PUSH1 0x40 DUP1 DUP3 KECCAK256 PUSH1 0x6 ADD SLOAD DUP3 MSTORE SWAP1 KECCAK256 PUSH2 0x1997 JUMP JUMPDEST PUSH1 0x2 DUP6 ADD SLOAD PUSH1 0x0 SWAP1 DUP2 MSTORE PUSH1 0x20 DUP7 SWAP1 MSTORE PUSH1 0x40 SWAP1 KECCAK256 JUMPDEST SWAP1 POP DUP1 PUSH1 0x1 ADD SLOAD PUSH1 0x0 EQ DUP1 PUSH2 0x19BC JUMPI POP PUSH2 0x19BA DUP2 DUP6 PUSH1 0x1 PUSH1 0x1 PUSH1 0x40 SHL SUB AND PUSH2 0x2F86 JUMP JUMPDEST ISZERO JUMPDEST ISZERO PUSH2 0x19C8 JUMPI SWAP1 POP PUSH2 0x17E4 JUMP JUMPDEST PUSH2 0x17E0 DUP6 DUP6 DUP4 PUSH1 0x1 ADD SLOAD PUSH2 0x195E JUMP JUMPDEST PUSH1 0x20 DUP3 ADD SLOAD PUSH1 0x0 SWAP1 DUP2 SWAP1 DUP2 SWAP1 PUSH1 0x1 PUSH1 0x1 PUSH1 0x40 SHL SUB AND DUP2 DUP6 PUSH2 0x19FB JUMPI PUSH1 0xE DUP8 ADD PUSH2 0x19FD JUMP JUMPDEST DUP7 JUMPDEST SWAP1 POP PUSH1 0x0 DUP7 PUSH2 0x1A10 JUMPI PUSH1 0x37 DUP9 ADD SLOAD PUSH2 0x1A16 JUMP JUMPDEST PUSH1 0x35 DUP9 ADD SLOAD JUMPDEST SWAP1 POP PUSH1 0x0 DUP8 PUSH2 0x1A29 JUMPI PUSH1 0x38 DUP10 ADD SLOAD PUSH2 0x1A2F JUMP JUMPDEST PUSH1 0x36 DUP10 ADD SLOAD JUMPDEST SWAP1 POP PUSH2 0x1A45 DUP4 DUP6 DUP5 DUP5 DUP14 PUSH1 0x21 ADD PUSH1 0x18 ADD SLOAD PUSH2 0x107E JUMP JUMPDEST SWAP7 POP SWAP7 POP SWAP7 POP POP POP POP POP SWAP3 POP SWAP3 POP SWAP3 JUMP JUMPDEST PUSH1 0x0 DUP3 PUSH1 0x4 ADD SLOAD PUSH1 0x0 SUB PUSH2 0x1A6C JUMPI POP PUSH1 0x0 PUSH2 0x1836 JUMP JUMPDEST PUSH1 0x2 DUP4 ADD SLOAD PUSH1 0x0 SWAP1 DUP2 MSTORE PUSH1 0x20 DUP5 SWAP1 MSTORE PUSH1 0x40 DUP2 KECCAK256 SWAP1 POP PUSH1 0x0 PUSH2 0x1A92 DUP6 DUP6 DUP5 PUSH1 0x5 ADD SLOAD PUSH2 0x2F53 JUMP JUMPDEST SWAP1 POP DUP1 ISZERO PUSH2 0x1AA5 JUMPI PUSH1 0x0 SWAP3 POP POP POP PUSH2 0x1836 JUMP JUMPDEST PUSH1 0x6 DUP3 ADD SLOAD ISZERO PUSH2 0x1B29 JUMPI PUSH1 0x6 DUP3 ADD SLOAD PUSH1 0x0 SWAP1 DUP2 MSTORE PUSH1 0x20 DUP7 SWAP1 MSTORE PUSH1 0x40 DUP2 KECCAK256 SWAP1 POP PUSH2 0x1AD3 DUP7 DUP7 DUP4 PUSH1 0x5 ADD SLOAD PUSH2 0x2F53 JUMP JUMPDEST SWAP2 POP JUMPDEST DUP2 ISZERO DUP1 ISZERO PUSH2 0x1AE7 JUMPI POP PUSH1 0x6 DUP4 ADD SLOAD ISZERO ISZERO JUMPDEST ISZERO PUSH2 0x1B27 JUMPI DUP1 SWAP3 POP DUP3 PUSH1 0x6 ADD SLOAD PUSH1 0x0 EQ PUSH2 0x1B22 JUMPI PUSH1 0x6 DUP4 ADD SLOAD PUSH1 0x0 SWAP1 DUP2 MSTORE PUSH1 0x20 DUP8 SWAP1 MSTORE PUSH1 0x40 SWAP1 KECCAK256 SWAP1 POP PUSH2 0x1B1F DUP7 DUP7 DUP4 PUSH1 0x5 ADD SLOAD PUSH2 0x2F53 JUMP JUMPDEST SWAP2 POP JUMPDEST PUSH2 0x1AD6 JUMP JUMPDEST POP JUMPDEST POP PUSH1 0x1 ADD SLOAD SWAP4 SWAP3 POP POP POP JUMP JUMPDEST PUSH1 0x0 DUP1 PUSH1 0x0 DUP4 PUSH2 0x1B48 JUMPI DUP7 PUSH1 0xE ADD PUSH2 0x1B4A JUMP JUMPDEST DUP7 JUMPDEST PUSH1 0x0 DUP8 DUP2 MSTORE PUSH1 0x20 DUP3 SWAP1 MSTORE PUSH1 0x40 DUP2 KECCAK256 SWAP2 SWAP3 POP POP DUP1 PUSH1 0x1 ADD SLOAD PUSH1 0x0 SUB PUSH2 0x1BA2 JUMPI PUSH1 0x40 MLOAD PUSH3 0x461BCD PUSH1 0xE5 SHL DUP2 MSTORE PUSH1 0x20 PUSH1 0x4 DUP3 ADD MSTORE PUSH1 0xF PUSH1 0x24 DUP3 ADD MSTORE PUSH15 0x13DC99195C881B9BDD08199BDD5B99 PUSH1 0x8A SHL PUSH1 0x44 DUP3 ADD MSTORE PUSH1 0x64 ADD PUSH2 0xB11 JUMP JUMPDEST PUSH1 0x2 DUP2 ADD SLOAD PUSH1 0x3 DUP3 ADD SLOAD PUSH1 0x7 DUP4 ADD SLOAD PUSH1 0x1 PUSH1 0x1 PUSH1 0xA0 SHL SUB AND PUSH2 0x1BC5 DUP6 DUP6 DUP12 PUSH2 0x242F JUMP JUMPDEST PUSH1 0x1 PUSH1 0x1 PUSH1 0xA0 SHL SUB DUP2 AND CALLER EQ PUSH2 0x1C0F JUMPI PUSH1 0x40 MLOAD PUSH3 0x461BCD PUSH1 0xE5 SHL DUP2 MSTORE PUSH1 0x20 PUSH1 0x4 DUP3 ADD MSTORE PUSH1 0xF PUSH1 0x24 DUP3 ADD MSTORE PUSH15 0x2737BA1037B93232B91037BBB732B9 PUSH1 0x89 SHL PUSH1 0x44 DUP3 ADD MSTORE PUSH1 0x64 ADD PUSH2 0xB11 JUMP JUMPDEST POP SWAP1 SWAP10 SWAP1 SWAP9 POP SWAP7 POP POP POP POP POP POP POP JUMP JUMPDEST PUSH2 0x1C2A DUP9 DUP5 DUP4 PUSH2 0xE44 JUMP JUMPDEST PUSH2 0x1C39 DUP9 DUP9 DUP9 DUP9 DUP9 DUP9 DUP9 PUSH2 0x30CF JUMP JUMPDEST PUSH2 0x1C44 DUP9 DUP9 DUP4 PUSH2 0x2ED6 JUMP JUMPDEST POP POP POP POP POP POP POP POP JUMP JUMPDEST PUSH1 0x3A DUP2 ADD DUP1 SLOAD PUSH1 0xFF NOT AND PUSH1 0x1 OR SWAP1 SSTORE PUSH2 0x1C66 DUP2 PUSH2 0x1103 JUMP JUMPDEST PUSH1 0x39 DUP3 ADD SSTORE PUSH2 0x1C76 DUP2 PUSH1 0x1 PUSH2 0x19D7 JUMP JUMPDEST PUSH1 0x36 DUP5 ADD DUP2 SWAP1 SSTORE PUSH1 0x35 DUP5 ADD DUP3 SWAP1 SSTORE DUP3 SLOAD PUSH1 0x25 DUP6 ADD DUP1 SLOAD DUP6 SWAP3 PUSH1 0xFF AND SWAP1 DUP3 SWAP1 PUSH1 0xFF NOT AND PUSH1 0x1 DUP4 DUP2 DUP2 GT ISZERO PUSH2 0x1CAB JUMPI PUSH2 0x1CAB PUSH2 0x3E23 JUMP JUMPDEST MUL OR SWAP1 SSTORE POP PUSH1 0x1 DUP3 DUP2 ADD SLOAD SWAP1 DUP3 ADD SSTORE PUSH1 0x2 DUP1 DUP4 ADD SLOAD SWAP1 DUP3 ADD SSTORE PUSH1 0x3 DUP1 DUP4 ADD SLOAD SWAP1 DUP3 ADD SSTORE PUSH1 0x4 DUP1 DUP4 ADD SLOAD SWAP1 DUP3 ADD SSTORE PUSH1 0x5 DUP1 DUP4 ADD SLOAD SWAP1 DUP3 ADD SSTORE PUSH1 0x6 DUP1 DUP4 ADD SLOAD SWAP1 DUP3 ADD SSTORE PUSH1 0x7 SWAP2 DUP3 ADD DUP1 SLOAD SWAP3 SWAP1 SWAP2 ADD DUP1 SLOAD PUSH1 0x1 PUSH1 0x1 PUSH1 0xA0 SHL SUB NOT DUP2 AND PUSH1 0x1 PUSH1 0x1 PUSH1 0xA0 SHL SUB SWAP1 SWAP5 AND SWAP4 DUP5 OR DUP3 SSTORE SWAP2 SLOAD PUSH1 0x1 PUSH1 0x1 PUSH1 0x40 SHL SUB PUSH1 0x1 PUSH1 0xA0 SHL SWAP2 DUP3 SWAP1 DIV AND MUL PUSH1 0x1 PUSH1 0x1 PUSH1 0xE0 SHL SUB NOT SWAP1 SWAP3 AND SWAP1 SWAP3 OR OR SWAP1 SSTORE POP PUSH2 0x1D4B SWAP2 POP DUP3 SWAP1 POP PUSH1 0x0 PUSH2 0x19D7 JUMP JUMPDEST PUSH1 0x38 DUP5 ADD DUP2 SWAP1 SSTORE PUSH1 0x37 DUP5 ADD DUP3 SWAP1 SSTORE DUP3 SLOAD PUSH1 0x2D DUP6 ADD DUP1 SLOAD DUP6 SWAP3 PUSH1 0xFF AND SWAP1 DUP3 SWAP1 PUSH1 0xFF NOT AND PUSH1 0x1 DUP4 DUP2 DUP2 GT ISZERO PUSH2 0x1D80 JUMPI PUSH2 0x1D80 PUSH2 0x3E23 JUMP JUMPDEST MUL OR SWAP1 SSTORE POP PUSH1 0x1 DUP3 DUP2 ADD SLOAD SWAP1 DUP3 ADD SSTORE PUSH1 0x2 DUP1 DUP4 ADD SLOAD SWAP1 DUP3 ADD SSTORE PUSH1 0x3 DUP1 DUP4 ADD SLOAD SWAP1 DUP3 ADD SSTORE PUSH1 0x4 DUP1 DUP4 ADD SLOAD SWAP1 DUP3 ADD SSTORE PUSH1 0x5 DUP1 DUP4 ADD SLOAD SWAP1 DUP3 ADD SSTORE PUSH1 0x6 DUP1 DUP4 ADD SLOAD SWAP1 DUP3 ADD SSTORE PUSH1 0x7 SWAP2 DUP3 ADD DUP1 SLOAD SWAP3 SWAP1 SWAP2 ADD DUP1 SLOAD PUSH1 0x1 PUSH1 0x1 PUSH1 0xA0 SHL SUB NOT DUP2 AND PUSH1 0x1 PUSH1 0x1 PUSH1 0xA0 SHL SUB SWAP1 SWAP5 AND SWAP4 DUP5 OR DUP3 SSTORE SWAP2 SLOAD PUSH1 0x1 PUSH1 0x1 PUSH1 0x40 SHL SUB PUSH1 0x1 PUSH1 0xA0 SHL SWAP2 DUP3 SWAP1 DIV AND MUL PUSH1 0x1 PUSH1 0x1 PUSH1 0xE0 SHL SUB NOT SWAP1 SWAP3 AND SWAP1 SWAP3 OR OR SWAP1 SSTORE POP POP POP POP JUMP JUMPDEST PUSH1 0x3 PUSH1 0x3A DUP3 ADD SLOAD PUSH1 0xFF AND PUSH1 0x3 DUP2 GT ISZERO PUSH2 0x1E31 JUMPI PUSH2 0x1E31 PUSH2 0x3E23 JUMP JUMPDEST EQ PUSH2 0x1E3E JUMPI PUSH2 0x1E3E PUSH2 0x4026 JUMP JUMPDEST PUSH1 0xD DUP2 ADD SLOAD PUSH1 0x1B DUP3 ADD SLOAD PUSH1 0x0 SWAP2 PUSH2 0x1E6A SWAP2 DUP5 SWAP2 PUSH1 0x21 DUP4 ADD SWAP2 PUSH1 0x1 PUSH1 0x1 PUSH1 0xA0 SHL SUB SWAP2 DUP3 AND SWAP2 AND PUSH1 0x1 PUSH2 0x1471 JUMP JUMPDEST SWAP1 POP DUP1 PUSH2 0xF1B JUMPI PUSH1 0xD DUP3 ADD SLOAD PUSH1 0x1B DUP4 ADD SLOAD PUSH2 0xE56 SWAP2 PUSH1 0xE DUP6 ADD SWAP2 PUSH1 0x21 DUP7 ADD SWAP2 PUSH1 0x1 PUSH1 0x1 PUSH1 0xA0 SHL SUB SWAP1 DUP2 AND SWAP2 AND PUSH1 0x0 PUSH2 0x1471 JUMP JUMPDEST PUSH1 0x0 DUP1 DUP3 PUSH2 0x1EAE JUMPI DUP4 PUSH1 0xE ADD PUSH2 0x1EB0 JUMP JUMPDEST DUP4 JUMPDEST PUSH1 0x20 DUP6 ADD SLOAD SWAP1 SWAP2 POP PUSH2 0x1EE6 SWAP1 PUSH1 0x1 PUSH1 0x1 PUSH1 0x40 SHL SUB AND DUP3 PUSH2 0x1EE1 DUP2 PUSH1 0x1 DUP2 ADD SLOAD PUSH1 0x0 SWAP1 DUP2 MSTORE PUSH1 0x20 SWAP2 SWAP1 SWAP2 MSTORE PUSH1 0x40 SWAP1 KECCAK256 SWAP1 JUMP JUMPDEST PUSH2 0x314F JUMP JUMPDEST DUP1 PUSH2 0x1373 JUMPI POP PUSH1 0x20 DUP5 ADD SLOAD PUSH2 0x1373 SWAP1 PUSH1 0x1 PUSH1 0x1 PUSH1 0x40 SHL SUB AND DUP3 PUSH2 0x1EE1 DUP2 PUSH1 0x2 DUP2 ADD SLOAD PUSH1 0x0 SWAP1 DUP2 MSTORE PUSH1 0x20 SWAP2 SWAP1 SWAP2 MSTORE PUSH1 0x40 SWAP1 KECCAK256 SWAP1 JUMP JUMPDEST PUSH1 0x3D DUP11 ADD SLOAD PUSH1 0x0 SWAP1 PUSH1 0xFF AND ISZERO PUSH2 0x1F6B JUMPI PUSH1 0x40 MLOAD PUSH3 0x461BCD PUSH1 0xE5 SHL DUP2 MSTORE PUSH1 0x20 PUSH1 0x4 DUP3 ADD MSTORE PUSH1 0x16 PUSH1 0x24 DUP3 ADD MSTORE PUSH22 0x14185A5C881A185CC81899595B88191A5CD8589B1959 PUSH1 0x52 SHL PUSH1 0x44 DUP3 ADD MSTORE PUSH1 0x64 ADD PUSH2 0xB11 JUMP JUMPDEST PUSH1 0x0 DUP3 PUSH2 0x1F7B JUMPI DUP12 PUSH1 0xE ADD PUSH2 0x1F7D JUMP JUMPDEST DUP12 JUMPDEST PUSH1 0xD DUP2 ADD SLOAD SWAP1 SWAP2 POP PUSH1 0x1 PUSH1 0x1 PUSH1 0xA0 SHL SUB AND PUSH4 0x23B872DD DUP7 DUP7 PUSH2 0x1F9F DUP15 DUP15 PUSH2 0x2697 JUMP JUMPDEST PUSH1 0x40 MLOAD PUSH1 0x1 PUSH1 0x1 PUSH1 0xE0 SHL SUB NOT PUSH1 0xE0 DUP7 SWAP1 SHL AND DUP2 MSTORE PUSH1 0x1 PUSH1 0x1 PUSH1 0xA0 SHL SUB SWAP4 DUP5 AND PUSH1 0x4 DUP3 ADD MSTORE SWAP3 SWAP1 SWAP2 AND PUSH1 0x24 DUP4 ADD MSTORE PUSH1 0x44 DUP3 ADD MSTORE PUSH1 0x64 ADD PUSH1 0x20 PUSH1 0x40 MLOAD DUP1 DUP4 SUB DUP2 PUSH1 0x0 DUP8 GAS CALL ISZERO DUP1 ISZERO PUSH2 0x1FF3 JUMPI RETURNDATASIZE PUSH1 0x0 DUP1 RETURNDATACOPY RETURNDATASIZE PUSH1 0x0 REVERT JUMPDEST POP POP POP POP PUSH1 0x40 MLOAD RETURNDATASIZE PUSH1 0x1F NOT PUSH1 0x1F DUP3 ADD AND DUP3 ADD DUP1 PUSH1 0x40 MSTORE POP DUP2 ADD SWAP1 PUSH2 0x2017 SWAP2 SWAP1 PUSH2 0x4055 JUMP JUMPDEST PUSH2 0x205B JUMPI PUSH1 0x40 MLOAD PUSH3 0x461BCD PUSH1 0xE5 SHL DUP2 MSTORE PUSH1 0x20 PUSH1 0x4 DUP3 ADD MSTORE PUSH1 0x15 PUSH1 0x24 DUP3 ADD MSTORE PUSH21 0x151BDAD95B881D1C985B9CD9995C8819985A5B1959 PUSH1 0x5A SHL PUSH1 0x44 DUP3 ADD MSTORE PUSH1 0x64 ADD PUSH2 0xB11 JUMP JUMPDEST PUSH1 0x0 DUP1 PUSH1 0x3A DUP15 ADD SLOAD PUSH1 0xFF AND PUSH1 0x3 DUP2 GT ISZERO PUSH2 0x2077 JUMPI PUSH2 0x2077 PUSH2 0x3E23 JUMP JUMPDEST PUSH1 0x20 DUP16 ADD SLOAD SWAP2 EQ ISZERO SWAP2 POP PUSH1 0x0 SWAP1 PUSH2 0x2098 SWAP1 DUP11 SWAP1 PUSH1 0x1 PUSH1 0x1 PUSH1 0x40 SHL SUB AND PUSH2 0x4088 JUMP JUMPDEST SWAP1 POP DUP2 ISZERO PUSH2 0x20EF JUMPI PUSH2 0x20AF DUP4 DUP15 DUP10 DUP16 DUP16 DUP16 DUP8 PUSH2 0x1850 JUMP JUMPDEST DUP13 PUSH32 0xC74DF9A166181F1BD5D8A749D06B749B580E9A56E8B68530DC79D79EEF0CA55B PUSH1 0x0 PUSH1 0x40 MLOAD PUSH2 0x20E2 SWAP2 DUP2 MSTORE PUSH1 0x20 ADD SWAP1 JUMP JUMPDEST PUSH1 0x40 MLOAD DUP1 SWAP2 SUB SWAP1 LOG2 PUSH2 0x212B JUMP JUMPDEST PUSH1 0x1 DUP9 ADD PUSH2 0x210B JUMPI PUSH2 0x2106 DUP4 DUP15 DUP10 DUP16 DUP16 DUP16 DUP8 PUSH2 0x183C JUMP JUMPDEST PUSH2 0x211B JUMP JUMPDEST PUSH2 0x211B DUP4 DUP15 DUP10 DUP16 DUP16 DUP16 DUP8 DUP16 PUSH2 0x1C1F JUMP JUMPDEST PUSH2 0x212B DUP14 DUP16 DUP10 DUP16 DUP16 DUP16 DUP8 DUP13 PUSH2 0x319D JUMP JUMPDEST POP POP POP SWAP11 SWAP10 POP POP POP POP POP POP POP POP POP POP JUMP JUMPDEST PUSH1 0x0 DUP3 PUSH1 0x5 ADD SLOAD PUSH1 0x0 SUB PUSH2 0x2152 JUMPI POP PUSH1 0x0 PUSH2 0x1836 JUMP JUMPDEST PUSH1 0x1 DUP4 ADD SLOAD PUSH1 0x0 SWAP1 DUP2 MSTORE PUSH1 0x20 DUP5 SWAP1 MSTORE PUSH1 0x40 DUP2 KECCAK256 SWAP1 POP PUSH1 0x0 PUSH2 0x2178 DUP6 DUP6 DUP5 PUSH1 0x4 ADD SLOAD PUSH2 0x2F53 JUMP JUMPDEST SWAP1 POP DUP1 ISZERO PUSH2 0x218B JUMPI PUSH1 0x0 SWAP3 POP POP POP PUSH2 0x1836 JUMP JUMPDEST PUSH1 0x6 DUP3 ADD SLOAD ISZERO PUSH2 0x1B29 JUMPI PUSH1 0x6 DUP3 ADD SLOAD PUSH1 0x0 SWAP1 DUP2 MSTORE PUSH1 0x20 DUP7 SWAP1 MSTORE PUSH1 0x40 DUP2 KECCAK256 SWAP1 POP PUSH2 0x21B9 DUP7 DUP7 DUP4 PUSH1 0x4 ADD SLOAD PUSH2 0x2F53 JUMP JUMPDEST SWAP2 POP JUMPDEST DUP2 ISZERO DUP1 ISZERO PUSH2 0x21CD JUMPI POP PUSH1 0x6 DUP4 ADD SLOAD ISZERO ISZERO JUMPDEST ISZERO PUSH2 0x1B27 JUMPI DUP1 SWAP3 POP DUP3 PUSH1 0x6 ADD SLOAD PUSH1 0x0 EQ PUSH2 0x2208 JUMPI PUSH1 0x6 DUP4 ADD SLOAD PUSH1 0x0 SWAP1 DUP2 MSTORE PUSH1 0x20 DUP8 SWAP1 MSTORE PUSH1 0x40 SWAP1 KECCAK256 SWAP1 POP PUSH2 0x2205 DUP7 DUP7 DUP4 PUSH1 0x4 ADD SLOAD PUSH2 0x2F53 JUMP JUMPDEST SWAP2 POP JUMPDEST PUSH2 0x21BC JUMP JUMPDEST PUSH1 0x3 PUSH1 0x3A DUP4 ADD SLOAD PUSH1 0xFF AND PUSH1 0x3 DUP2 GT ISZERO PUSH2 0x2228 JUMPI PUSH2 0x2228 PUSH2 0x3E23 JUMP JUMPDEST EQ PUSH2 0x2235 JUMPI PUSH2 0x2235 PUSH2 0x4026 JUMP JUMPDEST PUSH1 0x3A DUP3 ADD DUP1 SLOAD PUSH1 0xFF NOT AND SWAP1 SSTORE PUSH1 0xD DUP3 ADD SLOAD PUSH1 0x1B DUP4 ADD SLOAD PUSH1 0x40 DUP1 MLOAD PUSH1 0x60 DUP2 ADD DUP3 MSTORE DUP5 SLOAD DUP2 MSTORE PUSH1 0x1 DUP6 ADD SLOAD PUSH1 0x20 DUP3 ADD MSTORE PUSH1 0x2 DUP6 ADD SLOAD SWAP2 DUP2 ADD SWAP2 SWAP1 SWAP2 MSTORE PUSH1 0x21 DUP6 ADD SLOAD PUSH1 0x22 DUP7 ADD SLOAD PUSH2 0x2298 SWAP5 PUSH1 0x1D DUP9 ADD SWAP5 PUSH1 0x1 PUSH1 0x1 PUSH1 0xA0 SHL SUB SWAP2 DUP3 AND SWAP5 SWAP2 AND SWAP3 SWAP1 SWAP2 PUSH2 0x31E8 JUMP JUMPDEST PUSH1 0x0 PUSH1 0x21 DUP4 ADD DUP2 DUP2 SSTORE PUSH1 0x22 DUP5 ADD DUP3 SWAP1 SSTORE SWAP1 PUSH2 0x22B6 PUSH1 0x23 DUP6 ADD DUP3 PUSH2 0x3A62 JUMP JUMPDEST POP PUSH1 0x0 PUSH1 0x3 DUP3 ADD DUP2 SWAP1 SSTORE PUSH1 0x4 DUP3 ADD DUP1 SLOAD PUSH1 0xFF NOT SWAP1 DUP2 AND SWAP1 SWAP2 SSTORE PUSH1 0x5 DUP4 ADD DUP3 SWAP1 SSTORE PUSH1 0x6 DUP4 ADD DUP3 SWAP1 SSTORE PUSH1 0x7 DUP4 ADD DUP3 SWAP1 SSTORE PUSH1 0x8 DUP4 ADD DUP3 SWAP1 SSTORE PUSH1 0x9 DUP4 ADD DUP3 SWAP1 SSTORE PUSH1 0xA DUP4 ADD DUP3 SWAP1 SSTORE PUSH1 0xB DUP4 ADD DUP1 SLOAD PUSH1 0x1 PUSH1 0x1 PUSH1 0xE0 SHL SUB NOT SWAP1 DUP2 AND SWAP1 SWAP2 SSTORE PUSH1 0xC DUP5 ADD DUP1 SLOAD SWAP1 SWAP3 AND SWAP1 SWAP2 SSTORE PUSH1 0xD DUP4 ADD DUP3 SWAP1 SSTORE PUSH1 0xE DUP4 ADD DUP3 SWAP1 SSTORE PUSH1 0xF DUP4 ADD DUP3 SWAP1 SSTORE PUSH1 0x10 DUP4 ADD DUP3 SWAP1 SSTORE PUSH1 0x11 DUP4 ADD DUP3 SWAP1 SSTORE PUSH1 0x12 DUP4 ADD DUP3 SWAP1 SSTORE PUSH1 0x13 DUP4 ADD DUP1 SLOAD SWAP1 SWAP2 AND SWAP1 SSTORE PUSH1 0x14 DUP3 ADD DUP2 SWAP1 SSTORE PUSH1 0x15 DUP3 ADD DUP2 SWAP1 SSTORE PUSH1 0x16 DUP3 ADD DUP2 SWAP1 SSTORE PUSH1 0x17 DUP3 ADD DUP2 SWAP1 SSTORE PUSH1 0x18 SWAP1 SWAP2 ADD SSTORE POP POP JUMP JUMPDEST PUSH1 0x0 DUP1 PUSH1 0x0 DUP1 PUSH1 0x0 DUP1 PUSH2 0x2387 DUP8 PUSH2 0x32FA JUMP JUMPDEST PUSH1 0x0 DUP3 DUP2 MSTORE PUSH1 0x20 DUP11 DUP2 MSTORE PUSH1 0x40 DUP1 DUP4 KECCAK256 DUP5 DUP5 MSTORE PUSH1 0xE DUP14 ADD SWAP1 SWAP3 MSTORE DUP3 KECCAK256 PUSH1 0x1 DUP3 ADD SLOAD SWAP5 SWAP7 POP SWAP3 SWAP5 POP SWAP3 SWAP1 SUB PUSH2 0x23CB JUMPI PUSH1 0x0 DUP1 PUSH1 0x0 DUP1 SWAP8 POP SWAP8 POP SWAP8 POP SWAP8 POP POP POP POP POP PUSH2 0x2428 JUMP JUMPDEST PUSH2 0x240C PUSH2 0x2400 PUSH2 0x23DA DUP12 PUSH2 0x1103 JUMP JUMPDEST PUSH1 0x40 DUP1 MLOAD PUSH2 0x120 DUP2 ADD SWAP1 SWAP2 MSTORE DUP6 SLOAD DUP7 SWAP1 DUP3 SWAP1 PUSH1 0xFF AND PUSH1 0x1 DUP2 GT ISZERO PUSH2 0x6F3 JUMPI PUSH2 0x6F3 PUSH2 0x3E23 JUMP JUMPDEST PUSH2 0x1440 PUSH2 0x23DA DUP13 PUSH2 0x1103 JUMP JUMPDEST PUSH1 0x1 DUP1 DUP5 ADD SLOAD PUSH1 0x2 SWAP1 SWAP5 ADD SLOAD SWAP3 ADD SLOAD SWAP1 SWAP9 POP SWAP2 SWAP7 POP SWAP5 POP SWAP3 POP POP POP JUMPDEST SWAP2 SWAP4 POP SWAP2 SWAP4 JUMP JUMPDEST PUSH2 0x2439 DUP4 DUP4 PUSH2 0x38CF JUMP JUMPDEST ISZERO PUSH2 0x244D JUMPI PUSH1 0x6 DUP3 ADD SLOAD PUSH1 0x1 DUP5 ADD SSTORE PUSH2 0x24ED JUMP JUMPDEST PUSH2 0x2457 DUP4 DUP4 PUSH2 0x38FE JUMP JUMPDEST ISZERO PUSH2 0x246B JUMPI PUSH1 0x6 DUP3 ADD SLOAD PUSH1 0x2 DUP5 ADD SSTORE PUSH2 0x24ED JUMP JUMPDEST PUSH1 0x0 DUP1 PUSH2 0x2479 DUP6 DUP6 DUP6 PUSH2 0x16BD JUMP JUMPDEST SWAP2 POP SWAP2 POP DUP2 PUSH2 0x24CA JUMPI PUSH1 0x40 MLOAD PUSH3 0x461BCD PUSH1 0xE5 SHL DUP2 MSTORE PUSH1 0x20 PUSH1 0x4 DUP3 ADD MSTORE PUSH1 0x18 PUSH1 0x24 DUP3 ADD MSTORE PUSH32 0x50726576696F7573206F72646572206E6F7420666F756E640000000000000000 PUSH1 0x44 DUP3 ADD MSTORE PUSH1 0x64 ADD PUSH2 0xB11 JUMP JUMPDEST PUSH1 0x6 DUP5 ADD SLOAD PUSH2 0x24DF JUMPI PUSH1 0x0 PUSH1 0x6 DUP3 ADD SSTORE PUSH2 0x24EA JUMP JUMPDEST PUSH1 0x6 DUP1 DUP6 ADD SLOAD SWAP1 DUP3 ADD SSTORE JUMPDEST POP POP JUMPDEST PUSH1 0x0 PUSH1 0x1 DUP4 SLOAD PUSH1 0xFF AND PUSH1 0x1 DUP2 GT ISZERO PUSH2 0x2507 JUMPI PUSH2 0x2507 PUSH2 0x3E23 JUMP JUMPDEST PUSH1 0x1 DUP1 DUP7 ADD SLOAD PUSH1 0x0 SWAP1 DUP2 MSTORE PUSH1 0x20 DUP9 SWAP1 MSTORE PUSH1 0x40 DUP2 KECCAK256 DUP1 SLOAD PUSH1 0xFF NOT AND DUP2 SSTORE SWAP2 DUP3 ADD DUP2 SWAP1 SSTORE PUSH1 0x2 DUP3 ADD DUP2 SWAP1 SSTORE PUSH1 0x3 DUP3 ADD DUP2 SWAP1 SSTORE PUSH1 0x4 DUP3 ADD DUP2 SWAP1 SSTORE PUSH1 0x5 DUP3 ADD DUP2 SWAP1 SSTORE PUSH1 0x6 DUP3 ADD SSTORE PUSH1 0x7 ADD DUP1 SLOAD PUSH1 0x1 PUSH1 0x1 PUSH1 0xE0 SHL SUB NOT AND SWAP1 SSTORE EQ SWAP1 POP PUSH2 0x2568 DUP5 DUP3 PUSH2 0x392F JUMP JUMPDEST POP POP POP POP JUMP JUMPDEST PUSH1 0x0 DUP2 PUSH1 0x1 ADD SLOAD PUSH1 0x0 EQ ISZERO DUP1 ISZERO PUSH2 0x2588 JUMPI POP PUSH1 0x1 DUP4 ADD SLOAD ISZERO ISZERO JUMPDEST DUP1 ISZERO PUSH2 0x1373 JUMPI POP PUSH1 0x40 DUP1 MLOAD PUSH2 0x120 DUP2 ADD SWAP1 SWAP2 MSTORE DUP3 SLOAD PUSH2 0x25BB SWAP2 DUP7 SWAP2 DUP6 SWAP1 DUP3 SWAP1 PUSH1 0xFF AND PUSH1 0x1 DUP2 GT ISZERO PUSH2 0x6F3 JUMPI PUSH2 0x6F3 PUSH2 0x3E23 JUMP JUMPDEST PUSH1 0x40 DUP1 MLOAD PUSH2 0x120 DUP2 ADD SWAP1 SWAP2 MSTORE DUP5 SLOAD PUSH2 0x25E7 SWAP2 DUP8 SWAP2 DUP8 SWAP1 DUP3 SWAP1 PUSH1 0xFF AND PUSH1 0x1 DUP2 GT ISZERO PUSH2 0x6F3 JUMPI PUSH2 0x6F3 PUSH2 0x3E23 JUMP JUMPDEST LT ISZERO SWAP5 SWAP4 POP POP POP POP JUMP JUMPDEST PUSH1 0x0 DUP1 DUP3 MLOAD PUSH1 0x1 DUP2 GT ISZERO PUSH2 0x2607 JUMPI PUSH2 0x2607 PUSH2 0x3E23 JUMP JUMPDEST EQ PUSH2 0x261F JUMPI PUSH2 0x261A DUP4 DUP4 PUSH1 0xA0 ADD MLOAD PUSH2 0x2F3B JUMP JUMPDEST PUSH2 0x1833 JUMP JUMPDEST POP PUSH1 0x80 ADD MLOAD SWAP2 SWAP1 POP JUMP JUMPDEST PUSH1 0x0 DUP3 DUP3 GT ISZERO PUSH2 0x267B JUMPI PUSH1 0x40 MLOAD PUSH3 0x461BCD PUSH1 0xE5 SHL DUP2 MSTORE PUSH1 0x20 PUSH1 0x4 DUP3 ADD MSTORE PUSH1 0x1E PUSH1 0x24 DUP3 ADD MSTORE PUSH32 0x536166654D6174683A207375627472616374696F6E206F766572666C6F770000 PUSH1 0x44 DUP3 ADD MSTORE PUSH1 0x64 ADD PUSH2 0xB11 JUMP JUMPDEST PUSH1 0x0 PUSH2 0x1373 DUP4 DUP6 PUSH2 0x4178 JUMP JUMPDEST PUSH1 0x0 PUSH2 0x1373 DUP3 PUSH2 0x133D DUP7 DUP7 PUSH2 0x2BA8 JUMP JUMPDEST PUSH1 0x0 DUP1 PUSH2 0x26A4 DUP4 DUP6 PUSH2 0x418B JUMP JUMPDEST SWAP1 POP DUP4 DUP2 LT ISZERO PUSH2 0x1833 JUMPI PUSH1 0x40 MLOAD PUSH3 0x461BCD PUSH1 0xE5 SHL DUP2 MSTORE PUSH1 0x20 PUSH1 0x4 DUP3 ADD MSTORE PUSH1 0x1B PUSH1 0x24 DUP3 ADD MSTORE PUSH32 0x536166654D6174683A206164646974696F6E206F766572666C6F770000000000 PUSH1 0x44 DUP3 ADD MSTORE PUSH1 0x64 ADD PUSH2 0xB11 JUMP JUMPDEST PUSH1 0xD DUP8 ADD SLOAD PUSH1 0x1B DUP9 ADD SLOAD PUSH1 0x40 MLOAD PUSH1 0x1 PUSH1 0x1 PUSH1 0xA0 SHL SUB DUP10 DUP2 AND SWAP4 DUP13 SWAP4 PUSH1 0x0 DUP1 MLOAD PUSH1 0x20 PUSH2 0x41D8 DUP4 CODECOPY DUP2 MLOAD SWAP2 MSTORE SWAP4 PUSH2 0x2742 SWAP4 SWAP3 DUP4 AND SWAP3 SWAP1 SWAP2 AND SWAP1 DUP12 SWAP1 DUP12 SWAP1 PUSH1 0x0 SWAP1 DUP13 SWAP1 DUP13 SWAP1 DUP13 SWAP1 PUSH1 0x1 SWAP1 PUSH2 0x4110 JUMP JUMPDEST PUSH1 0x40 MLOAD DUP1 SWAP2 SUB SWAP1 LOG3 POP POP POP POP POP POP POP POP JUMP JUMPDEST PUSH1 0x5 DUP3 ADD SLOAD ISZERO PUSH2 0xF1B JUMPI PUSH1 0x1 DUP3 ADD SLOAD PUSH1 0x0 SWAP1 DUP2 MSTORE PUSH1 0x20 DUP4 SWAP1 MSTORE PUSH1 0x40 DUP2 KECCAK256 SWAP1 POP PUSH2 0x2782 DUP4 DUP4 DUP4 PUSH1 0x4 ADD SLOAD PUSH2 0x2F53 JUMP JUMPDEST PUSH2 0xE56 JUMPI PUSH1 0x40 MLOAD PUSH3 0x461BCD PUSH1 0xE5 SHL DUP2 MSTORE PUSH1 0x20 PUSH1 0x4 DUP3 ADD MSTORE PUSH1 0x1C PUSH1 0x24 DUP3 ADD MSTORE PUSH32 0x507269636520646F65736E742062656C6F6E6720746F20737461727400000000 PUSH1 0x44 DUP3 ADD MSTORE PUSH1 0x64 ADD PUSH2 0xB11 JUMP JUMPDEST PUSH1 0x0 DUP3 DUP2 MSTORE PUSH1 0x20 DUP5 SWAP1 MSTORE PUSH1 0x40 DUP2 KECCAK256 PUSH1 0x1 DUP2 ADD SLOAD SWAP1 SWAP2 SUB PUSH2 0x2830 JUMPI PUSH1 0x40 MLOAD PUSH3 0x461BCD PUSH1 0xE5 SHL DUP2 MSTORE PUSH1 0x20 PUSH1 0x4 DUP3 ADD MSTORE PUSH1 0x1A PUSH1 0x24 DUP3 ADD MSTORE PUSH32 0x50726576696F75734F7264657220646F65736E74206578697374000000000000 PUSH1 0x44 DUP3 ADD MSTORE PUSH1 0x64 ADD PUSH2 0xB11 JUMP JUMPDEST PUSH1 0x0 DUP2 SLOAD PUSH1 0xFF AND PUSH1 0x1 DUP2 GT ISZERO PUSH2 0x2848 JUMPI PUSH2 0x2848 PUSH2 0x3E23 JUMP JUMPDEST EQ PUSH2 0x2895 JUMPI PUSH1 0x40 MLOAD PUSH3 0x461BCD PUSH1 0xE5 SHL DUP2 MSTORE PUSH1 0x20 PUSH1 0x4 DUP3 ADD MSTORE PUSH1 0x17 PUSH1 0x24 DUP3 ADD MSTORE PUSH32 0x48696E74206973206E6F74206C696D6974206F72646572000000000000000000 PUSH1 0x44 DUP3 ADD MSTORE PUSH1 0x64 ADD PUSH2 0xB11 JUMP JUMPDEST PUSH2 0x28A4 DUP5 DUP4 DUP4 PUSH1 0x4 ADD SLOAD PUSH2 0x2F53 JUMP JUMPDEST ISZERO PUSH2 0x28EA JUMPI PUSH1 0x40 MLOAD PUSH3 0x461BCD PUSH1 0xE5 SHL DUP2 MSTORE PUSH1 0x20 PUSH1 0x4 DUP3 ADD MSTORE PUSH1 0x16 PUSH1 0x24 DUP3 ADD MSTORE PUSH22 0x4F726465722073686F756C6420676F206265666F7265 PUSH1 0x50 SHL PUSH1 0x44 DUP3 ADD MSTORE PUSH1 0x64 ADD PUSH2 0xB11 JUMP JUMPDEST PUSH1 0x6 DUP2 ADD SLOAD PUSH1 0x0 SWAP1 DUP2 MSTORE PUSH1 0x20 DUP6 SWAP1 MSTORE PUSH1 0x40 SWAP1 KECCAK256 PUSH1 0x1 DUP2 ADD SLOAD ISZERO DUP1 PUSH2 0x2918 JUMPI POP PUSH2 0x2918 DUP6 DUP5 DUP4 PUSH1 0x4 ADD SLOAD PUSH2 0x2F53 JUMP JUMPDEST PUSH2 0x295C JUMPI PUSH1 0x40 MLOAD PUSH3 0x461BCD PUSH1 0xE5 SHL DUP2 MSTORE PUSH1 0x20 PUSH1 0x4 DUP3 ADD MSTORE PUSH1 0x15 PUSH1 0x24 DUP3 ADD MSTORE PUSH21 0x27B93232B91039B437BAB6321033B79030B33A32B9 PUSH1 0x59 SHL PUSH1 0x44 DUP3 ADD MSTORE PUSH1 0x64 ADD PUSH2 0xB11 JUMP JUMPDEST POP POP POP POP POP JUMP JUMPDEST PUSH1 0x40 DUP1 MLOAD PUSH2 0x120 DUP2 ADD SWAP1 SWAP2 MSTORE DUP1 PUSH1 0x1 DUP2 MSTORE PUSH1 0x20 DUP1 DUP3 ADD DUP10 SWAP1 MSTORE PUSH1 0x40 DUP1 DUP4 ADD DUP9 SWAP1 MSTORE PUSH1 0x60 DUP4 ADD DUP8 SWAP1 MSTORE PUSH1 0x0 PUSH1 0x80 DUP5 ADD DUP2 SWAP1 MSTORE PUSH1 0xA0 DUP5 ADD DUP8 SWAP1 MSTORE PUSH1 0xC0 DUP5 ADD DUP2 SWAP1 MSTORE PUSH1 0x1 PUSH1 0x1 PUSH1 0xA0 SHL SUB DUP11 AND PUSH1 0xE0 DUP6 ADD MSTORE PUSH1 0x1 PUSH1 0x1 PUSH1 0x40 SHL SUB DUP7 AND PUSH2 0x100 SWAP1 SWAP5 ADD SWAP4 SWAP1 SWAP4 MSTORE DUP10 DUP4 MSTORE SWAP1 DUP11 SWAP1 MSTORE SWAP1 KECCAK256 DUP2 MLOAD DUP2 SLOAD DUP3 SWAP1 PUSH1 0xFF NOT AND PUSH1 0x1 DUP4 DUP2 DUP2 GT ISZERO PUSH2 0x29EB JUMPI PUSH2 0x29EB PUSH2 0x3E23 JUMP JUMPDEST MUL OR SWAP1 SSTORE POP PUSH1 0x20 DUP3 ADD MLOAD PUSH1 0x1 DUP3 ADD SSTORE PUSH1 0x40 DUP3 ADD MLOAD PUSH1 0x2 DUP3 ADD SSTORE PUSH1 0x60 DUP3 ADD MLOAD PUSH1 0x3 DUP3 ADD SSTORE PUSH1 0x80 DUP3 ADD MLOAD PUSH1 0x4 DUP3 ADD SSTORE PUSH1 0xA0 DUP3 ADD MLOAD PUSH1 0x5 DUP3 ADD SSTORE PUSH1 0xC0 DUP3 ADD MLOAD PUSH1 0x6 DUP3 ADD SSTORE PUSH1 0xE0 DUP3 ADD MLOAD PUSH1 0x7 SWAP1 SWAP2 ADD DUP1 SLOAD PUSH2 0x100 SWAP1 SWAP4 ADD MLOAD PUSH1 0x1 PUSH1 0x1 PUSH1 0x40 SHL SUB AND PUSH1 0x1 PUSH1 0xA0 SHL MUL PUSH1 0x1 PUSH1 0x1 PUSH1 0xE0 SHL SUB NOT SWAP1 SWAP4 AND PUSH1 0x1 PUSH1 0x1 PUSH1 0xA0 SHL SUB SWAP1 SWAP3 AND SWAP2 SWAP1 SWAP2 OR SWAP2 SWAP1 SWAP2 OR SWAP1 SSTORE POP POP POP POP POP POP POP JUMP JUMPDEST PUSH1 0x0 DUP3 DUP2 MSTORE PUSH1 0x20 DUP5 SWAP1 MSTORE PUSH1 0x40 SWAP1 KECCAK256 PUSH1 0x3 DUP5 ADD SLOAD PUSH2 0x2A96 SWAP1 PUSH1 0x1 PUSH2 0x2697 JUMP JUMPDEST PUSH1 0x3 DUP6 ADD SSTORE PUSH1 0x4 DUP5 ADD SLOAD PUSH2 0x2AAB SWAP1 PUSH1 0x1 PUSH2 0x2697 JUMP JUMPDEST PUSH1 0x4 DUP6 ADD SSTORE DUP2 ISZERO PUSH2 0x2ADC JUMPI PUSH1 0x0 DUP3 DUP2 MSTORE PUSH1 0x20 DUP6 SWAP1 MSTORE PUSH1 0x40 DUP2 KECCAK256 JUMPDEST PUSH1 0x6 SWAP1 DUP2 ADD DUP1 SLOAD SWAP2 DUP5 ADD SWAP2 SWAP1 SWAP2 SSTORE DUP5 SWAP1 SSTORE POP PUSH2 0x2568 JUMP JUMPDEST PUSH1 0x2 DUP5 ADD DUP1 SLOAD PUSH1 0x6 DUP4 ADD SSTORE DUP4 SWAP1 SSTORE POP POP POP POP JUMP JUMPDEST PUSH1 0xB DUP3 ADD SLOAD ISZERO PUSH2 0x2B7D JUMPI PUSH1 0x9 DUP3 ADD SLOAD PUSH1 0x0 SWAP1 DUP2 MSTORE PUSH1 0x20 DUP4 SWAP1 MSTORE PUSH1 0x40 SWAP1 KECCAK256 PUSH1 0x1 DUP2 SLOAD PUSH1 0xFF AND PUSH1 0x1 DUP2 GT ISZERO PUSH2 0x2B25 JUMPI PUSH2 0x2B25 PUSH2 0x3E23 JUMP JUMPDEST EQ PUSH2 0x2B72 JUMPI PUSH1 0x40 MLOAD PUSH3 0x461BCD PUSH1 0xE5 SHL DUP2 MSTORE PUSH1 0x20 PUSH1 0x4 DUP3 ADD MSTORE PUSH1 0x17 PUSH1 0x24 DUP3 ADD MSTORE PUSH32 0x49742069736E27742061206D61726B6574206F72646572000000000000000000 PUSH1 0x44 DUP3 ADD MSTORE PUSH1 0x64 ADD PUSH2 0xB11 JUMP JUMPDEST PUSH1 0x6 ADD DUP2 SWAP1 SSTORE PUSH2 0x2B85 JUMP JUMPDEST PUSH1 0x8 DUP3 ADD DUP2 SWAP1 SSTORE JUMPDEST PUSH1 0x9 DUP3 ADD DUP2 SWAP1 SSTORE PUSH1 0xB DUP3 ADD SLOAD PUSH2 0x2B9C SWAP1 PUSH1 0x1 PUSH2 0x2697 JUMP JUMPDEST DUP3 PUSH1 0xB ADD DUP2 SWAP1 SSTORE POP POP POP JUMP JUMPDEST PUSH1 0x0 DUP3 PUSH1 0x0 SUB PUSH2 0x2BBA JUMPI POP PUSH1 0x0 PUSH2 0x1836 JUMP JUMPDEST PUSH1 0x0 PUSH2 0x2BC6 DUP4 DUP6 PUSH2 0x419E JUMP JUMPDEST SWAP1 POP DUP3 PUSH2 0x2BD3 DUP6 DUP4 PUSH2 0x41B5 JUMP JUMPDEST EQ PUSH2 0x1833 JUMPI PUSH1 0x40 MLOAD PUSH3 0x461BCD PUSH1 0xE5 SHL DUP2 MSTORE PUSH1 0x20 PUSH1 0x4 DUP3 ADD MSTORE PUSH1 0x21 PUSH1 0x24 DUP3 ADD MSTORE PUSH32 0x536166654D6174683A206D756C7469706C69636174696F6E206F766572666C6F PUSH1 0x44 DUP3 ADD MSTORE PUSH1 0x77 PUSH1 0xF8 SHL PUSH1 0x64 DUP3 ADD MSTORE PUSH1 0x84 ADD PUSH2 0xB11 JUMP JUMPDEST PUSH1 0x0 DUP1 DUP3 GT PUSH2 0x2C7B JUMPI PUSH1 0x40 MLOAD PUSH3 0x461BCD PUSH1 0xE5 SHL DUP2 MSTORE PUSH1 0x20 PUSH1 0x4 DUP3 ADD MSTORE PUSH1 0x1A PUSH1 0x24 DUP3 ADD MSTORE PUSH32 0x536166654D6174683A206469766973696F6E206279207A65726F000000000000 PUSH1 0x44 DUP3 ADD MSTORE PUSH1 0x64 ADD PUSH2 0xB11 JUMP JUMPDEST PUSH1 0x0 PUSH2 0x1373 DUP4 DUP6 PUSH2 0x41B5 JUMP JUMPDEST PUSH1 0x4 DUP3 ADD SLOAD ISZERO PUSH2 0xF1B JUMPI PUSH1 0x2 DUP3 ADD SLOAD PUSH1 0x0 SWAP1 DUP2 MSTORE PUSH1 0x20 DUP4 SWAP1 MSTORE PUSH1 0x40 DUP2 KECCAK256 SWAP1 POP PUSH2 0x2CB5 DUP4 DUP4 DUP4 PUSH1 0x5 ADD SLOAD PUSH2 0x2F53 JUMP JUMPDEST PUSH2 0xE56 JUMPI PUSH1 0x40 MLOAD PUSH3 0x461BCD PUSH1 0xE5 SHL DUP2 MSTORE PUSH1 0x20 PUSH1 0x4 DUP3 ADD MSTORE PUSH1 0x26 PUSH1 0x24 DUP3 ADD MSTORE PUSH32 0x4D756C7469706C7920666163746F7220646F65736E742062656C6F6E6720746F PUSH1 0x44 DUP3 ADD MSTORE PUSH6 0x81CDD185C9D PUSH1 0xD2 SHL PUSH1 0x64 DUP3 ADD MSTORE PUSH1 0x84 ADD PUSH2 0xB11 JUMP JUMPDEST PUSH1 0x0 DUP3 DUP2 MSTORE PUSH1 0x20 DUP5 SWAP1 MSTORE PUSH1 0x40 DUP2 KECCAK256 PUSH1 0x1 DUP2 ADD SLOAD SWAP1 SWAP2 SUB PUSH2 0x2D72 JUMPI PUSH1 0x40 MLOAD PUSH3 0x461BCD PUSH1 0xE5 SHL DUP2 MSTORE PUSH1 0x20 PUSH1 0x4 DUP3 ADD MSTORE PUSH1 0x1A PUSH1 0x24 DUP3 ADD MSTORE PUSH32 0x50726576696F75734F7264657220646F65736E74206578697374000000000000 PUSH1 0x44 DUP3 ADD MSTORE PUSH1 0x64 ADD PUSH2 0xB11 JUMP JUMPDEST PUSH1 0x0 DUP4 DUP2 MSTORE PUSH1 0x20 DUP6 SWAP1 MSTORE PUSH1 0x40 SWAP1 KECCAK256 PUSH1 0x1 SWAP1 SLOAD PUSH1 0xFF AND PUSH1 0x1 DUP2 GT ISZERO PUSH2 0x2D98 JUMPI PUSH2 0x2D98 PUSH2 0x3E23 JUMP JUMPDEST EQ PUSH2 0x2DE5 JUMPI PUSH1 0x40 MLOAD PUSH3 0x461BCD PUSH1 0xE5 SHL DUP2 MSTORE PUSH1 0x20 PUSH1 0x4 DUP3 ADD MSTORE PUSH1 0x18 PUSH1 0x24 DUP3 ADD MSTORE PUSH32 0x48696E74206973206E6F74206D61726B6574206F726465720000000000000000 PUSH1 0x44 DUP3 ADD MSTORE PUSH1 0x64 ADD PUSH2 0xB11 JUMP JUMPDEST PUSH2 0x2DF4 DUP5 DUP4 DUP4 PUSH1 0x5 ADD SLOAD PUSH2 0x2F53 JUMP JUMPDEST ISZERO PUSH2 0x2E41 JUMPI PUSH1 0x40 MLOAD PUSH3 0x461BCD PUSH1 0xE5 SHL DUP2 MSTORE PUSH1 0x20 PUSH1 0x4 DUP3 ADD MSTORE PUSH1 0x1D PUSH1 0x24 DUP3 ADD MSTORE PUSH32 0x4D61726B6574204F726465722073686F756C6420676F206265666F7265000000 PUSH1 0x44 DUP3 ADD MSTORE PUSH1 0x64 ADD PUSH2 0xB11 JUMP JUMPDEST PUSH1 0x6 DUP2 ADD SLOAD PUSH1 0x0 SWAP1 DUP2 MSTORE PUSH1 0x20 DUP6 SWAP1 MSTORE PUSH1 0x40 SWAP1 KECCAK256 PUSH1 0x1 DUP2 ADD SLOAD ISZERO DUP1 PUSH2 0x2E6F JUMPI POP PUSH2 0x2E6F DUP6 DUP5 DUP4 PUSH1 0x5 ADD SLOAD PUSH2 0x2F53 JUMP JUMPDEST PUSH2 0x295C JUMPI PUSH1 0x40 MLOAD PUSH3 0x461BCD PUSH1 0xE5 SHL DUP2 MSTORE PUSH1 0x20 PUSH1 0x4 DUP3 ADD MSTORE PUSH1 0x1C PUSH1 0x24 DUP3 ADD MSTORE PUSH32 0x4D61726B6574204F726465722073686F756C6420676F20616674657200000000 PUSH1 0x44 DUP3 ADD MSTORE PUSH1 0x64 ADD PUSH2 0xB11 JUMP JUMPDEST PUSH1 0x0 PUSH2 0x2ECA PUSH1 0x2 DUP5 DUP5 XOR PUSH2 0x41B5 JUMP JUMPDEST PUSH2 0x1833 SWAP1 DUP5 DUP5 AND PUSH2 0x418B JUMP JUMPDEST PUSH1 0x0 DUP3 DUP2 MSTORE PUSH1 0x20 DUP5 SWAP1 MSTORE PUSH1 0x40 SWAP1 KECCAK256 PUSH1 0x3 DUP5 ADD SLOAD PUSH2 0x2EF4 SWAP1 PUSH1 0x1 PUSH2 0x2697 JUMP JUMPDEST PUSH1 0x3 DUP6 ADD SSTORE PUSH1 0x5 DUP5 ADD SLOAD PUSH2 0x2F09 SWAP1 PUSH1 0x1 PUSH2 0x2697 JUMP JUMPDEST PUSH1 0x5 DUP6 ADD SSTORE DUP2 ISZERO PUSH2 0x2F27 JUMPI PUSH1 0x0 DUP3 DUP2 MSTORE PUSH1 0x20 DUP6 SWAP1 MSTORE PUSH1 0x40 DUP2 KECCAK256 PUSH2 0x2AC5 JUMP JUMPDEST PUSH1 0x1 DUP5 ADD DUP1 SLOAD PUSH1 0x6 DUP4 ADD SSTORE DUP4 SWAP1 SSTORE POP POP POP POP JUMP JUMPDEST PUSH1 0x0 PUSH2 0x1833 PUSH8 0xDE0B6B3A7640000 PUSH2 0x133D DUP5 DUP7 PUSH2 0x2BA8 JUMP JUMPDEST PUSH1 0xC DUP4 ADD SLOAD PUSH1 0x0 SWAP1 PUSH1 0xFF AND DUP1 ISZERO PUSH2 0x2F69 JUMPI POP DUP2 DUP4 GT JUMPDEST DUP1 PUSH2 0x1373 JUMPI POP PUSH1 0xC DUP5 ADD SLOAD PUSH1 0xFF AND ISZERO DUP1 ISZERO PUSH2 0x1373 JUMPI POP POP GT SWAP2 SWAP1 POP JUMP JUMPDEST PUSH1 0x0 DUP3 PUSH1 0x1 ADD SLOAD PUSH1 0x0 SUB PUSH2 0x2FEC JUMPI PUSH1 0x40 MLOAD PUSH3 0x461BCD PUSH1 0xE5 SHL DUP2 MSTORE PUSH1 0x20 PUSH1 0x4 DUP3 ADD MSTORE PUSH1 0x27 PUSH1 0x24 DUP3 ADD MSTORE PUSH32 0x747269656420746F207365652065787069726174696F6E206F662061206E756C PUSH1 0x44 DUP3 ADD MSTORE PUSH7 0x361037B93232B9 PUSH1 0xC9 SHL PUSH1 0x64 DUP3 ADD MSTORE PUSH1 0x84 ADD PUSH2 0xB11 JUMP JUMPDEST POP PUSH1 0x7 SWAP2 SWAP1 SWAP2 ADD SLOAD PUSH16 0xFFFFFFFFFFFFFFFFFFFFFFFFFFFFFFFF SWAP2 SWAP1 SWAP2 AND PUSH1 0x1 PUSH1 0xA0 SHL SWAP1 SWAP2 DIV PUSH1 0x1 PUSH1 0x1 PUSH1 0x40 SHL SUB AND GT ISZERO SWAP1 JUMP JUMPDEST PUSH1 0xA DUP3 ADD SLOAD ISZERO PUSH2 0x30A4 JUMPI PUSH1 0x7 DUP3 ADD SLOAD PUSH1 0x0 SWAP1 DUP2 MSTORE PUSH1 0x20 DUP4 SWAP1 MSTORE PUSH1 0x40 DUP2 KECCAK256 SWAP1 DUP2 SLOAD PUSH1 0xFF AND PUSH1 0x1 DUP2 GT ISZERO PUSH2 0x3053 JUMPI PUSH2 0x3053 PUSH2 0x3E23 JUMP JUMPDEST EQ PUSH2 0x3099 JUMPI PUSH1 0x40 MLOAD PUSH3 0x461BCD PUSH1 0xE5 SHL DUP2 MSTORE PUSH1 0x20 PUSH1 0x4 DUP3 ADD MSTORE PUSH1 0x16 PUSH1 0x24 DUP3 ADD MSTORE PUSH22 0x24BA1034B9B713BA1030903634B6B4BA1037B93232B9 PUSH1 0x51 SHL PUSH1 0x44 DUP3 ADD MSTORE PUSH1 0x64 ADD PUSH2 0xB11 JUMP JUMPDEST PUSH1 0x6 ADD DUP2 SWAP1 SSTORE PUSH2 0x30AC JUMP JUMPDEST PUSH1 0x6 DUP3 ADD DUP2 SWAP1 SSTORE JUMPDEST PUSH1 0x7 DUP3 ADD DUP2 SWAP1 SSTORE PUSH1 0xA DUP3 ADD SLOAD PUSH2 0x30C3 SWAP1 PUSH1 0x1 PUSH2 0x2697 JUMP JUMPDEST DUP3 PUSH1 0xA ADD DUP2 SWAP1 SSTORE POP POP POP JUMP JUMPDEST PUSH1 0x40 DUP1 MLOAD PUSH2 0x120 DUP2 ADD DUP3 MSTORE PUSH1 0x0 DUP1 DUP3 MSTORE PUSH1 0x20 DUP1 DUP4 ADD DUP11 SWAP1 MSTORE DUP3 DUP5 ADD DUP9 SWAP1 MSTORE PUSH1 0x60 DUP4 ADD DUP8 SWAP1 MSTORE PUSH1 0x80 DUP4 ADD DUP7 SWAP1 MSTORE PUSH1 0xA0 DUP4 ADD DUP3 SWAP1 MSTORE PUSH1 0xC0 DUP4 ADD DUP3 SWAP1 MSTORE PUSH1 0x1 PUSH1 0x1 PUSH1 0xA0 SHL SUB DUP10 AND PUSH1 0xE0 DUP5 ADD MSTORE PUSH1 0x1 PUSH1 0x1 PUSH1 0x40 SHL SUB DUP6 AND PUSH2 0x100 DUP5 ADD MSTORE DUP10 DUP3 MSTORE DUP11 SWAP1 MSTORE SWAP2 SWAP1 SWAP2 KECCAK256 DUP2 MLOAD DUP2 SLOAD DUP3 SWAP1 PUSH1 0xFF NOT AND PUSH1 0x1 DUP4 DUP2 DUP2 GT ISZERO PUSH2 0x29EB JUMPI PUSH2 0x29EB PUSH2 0x3E23 JUMP JUMPDEST PUSH1 0x0 DUP2 DUP2 JUMPDEST PUSH1 0x1 DUP3 ADD SLOAD ISZERO PUSH2 0x3191 JUMPI PUSH2 0x3168 DUP3 DUP8 PUSH2 0x2F86 JUMP JUMPDEST ISZERO PUSH2 0x3178 JUMPI PUSH1 0x1 SWAP3 POP POP POP PUSH2 0x17E4 JUMP JUMPDEST POP PUSH1 0x6 ADD SLOAD PUSH1 0x0 DUP2 DUP2 MSTORE PUSH1 0x20 DUP6 SWAP1 MSTORE PUSH1 0x40 SWAP1 KECCAK256 SWAP1 PUSH2 0x3154 JUMP JUMPDEST POP PUSH1 0x0 SWAP6 SWAP5 POP POP POP POP POP JUMP JUMPDEST PUSH1 0xD DUP8 ADD SLOAD PUSH1 0x1B DUP9 ADD SLOAD PUSH1 0x40 MLOAD PUSH1 0x1 PUSH1 0x1 PUSH1 0xA0 SHL SUB DUP10 DUP2 AND SWAP4 DUP13 SWAP4 PUSH1 0x0 DUP1 MLOAD PUSH1 0x20 PUSH2 0x41D8 DUP4 CODECOPY DUP2 MLOAD SWAP2 MSTORE SWAP4 PUSH2 0x2742 SWAP4 SWAP3 DUP4 AND SWAP3 SWAP1 SWAP2 AND SWAP1 DUP12 SWAP1 DUP12 SWAP1 DUP12 SWAP1 PUSH1 0x0 SWAP1 DUP13 SWAP1 DUP13 SWAP1 DUP4 SWAP1 PUSH2 0x4110 JUMP JUMPDEST DUP6 PUSH1 0x2 ADD SLOAD PUSH1 0x0 SUB PUSH2 0x31FC JUMPI PUSH2 0x31FC PUSH2 0x4026 JUMP JUMPDEST PUSH1 0x0 DUP7 PUSH1 0x3 ADD PUSH1 0x0 SWAP1 SLOAD SWAP1 PUSH2 0x100 EXP SWAP1 DIV PUSH1 0x1 PUSH1 0x1 PUSH1 0x40 SHL SUB AND SWAP1 POP PUSH1 0x0 PUSH2 0x3246 DUP6 PUSH1 0x0 ADD MLOAD DUP10 PUSH1 0x1 ADD SLOAD DUP8 PUSH1 0x20 ADD MLOAD DUP9 PUSH1 0x40 ADD MLOAD PUSH2 0x323C DUP9 PUSH1 0x1 PUSH2 0x397C JUMP JUMPDEST DUP14 PUSH1 0x2 ADD SLOAD PUSH2 0x3992 JUMP JUMPDEST PUSH1 0x2 DUP10 ADD SLOAD PUSH1 0x1 DUP11 ADD DUP2 SWAP1 SSTORE SWAP1 SWAP2 POP PUSH2 0x3260 SWAP1 DUP3 SWAP1 PUSH2 0x418B JUMP JUMPDEST DUP9 SSTORE PUSH1 0x3 DUP9 ADD SLOAD PUSH2 0x327B SWAP1 PUSH1 0x1 PUSH1 0x1 PUSH1 0x40 SHL SUB AND PUSH1 0x1 PUSH2 0x4088 JUMP JUMPDEST PUSH1 0x3 DUP10 ADD DUP1 SLOAD PUSH8 0xFFFFFFFFFFFFFFFF NOT AND PUSH1 0x1 PUSH1 0x1 PUSH1 0x40 SHL SUB SWAP3 DUP4 AND OR SWAP1 SSTORE PUSH1 0x0 PUSH1 0x2 DUP11 ADD SSTORE DUP9 SLOAD PUSH1 0x40 DUP1 MLOAD SWAP2 DUP3 MSTORE PUSH1 0x20 DUP3 ADD DUP8 SWAP1 MSTORE SWAP2 DUP5 AND SWAP2 PUSH1 0x1 PUSH1 0x1 PUSH1 0xA0 SHL SUB DUP10 DUP2 AND SWAP3 SWAP1 DUP12 AND SWAP2 PUSH32 0x23842EF287C228D5716D3763DBE31967FDE900E7F446D625D51F6579F4D18A87 SWAP2 ADD PUSH1 0x40 MLOAD DUP1 SWAP2 SUB SWAP1 LOG4 POP POP POP POP POP POP POP POP JUMP JUMPDEST PUSH1 0x0 DUP1 PUSH2 0x3305 PUSH2 0x3A83 JUMP JUMPDEST PUSH2 0x330D PUSH2 0x3A83 JUMP JUMPDEST PUSH1 0x0 PUSH2 0x3318 DUP7 PUSH2 0x1103 JUMP JUMPDEST SWAP1 POP PUSH2 0x3322 PUSH2 0x3A83 JUMP JUMPDEST PUSH2 0x332A PUSH2 0x3A83 JUMP JUMPDEST PUSH1 0x0 DUP1 PUSH1 0x0 DUP1 PUSH1 0x0 DUP13 PUSH1 0x3B ADD SLOAD SWAP1 POP PUSH2 0x3346 DUP14 PUSH1 0x1 DUP8 DUP8 PUSH2 0xF1F JUMP JUMPDEST PUSH1 0x40 DUP1 MLOAD PUSH2 0x120 DUP2 ADD SWAP1 SWAP2 MSTORE DUP4 SLOAD DUP5 SWAP1 DUP3 SWAP1 PUSH1 0xFF AND PUSH1 0x1 DUP2 GT ISZERO PUSH2 0x336C JUMPI PUSH2 0x336C PUSH2 0x3E23 JUMP JUMPDEST PUSH1 0x1 DUP2 GT ISZERO PUSH2 0x337D JUMPI PUSH2 0x337D PUSH2 0x3E23 JUMP JUMPDEST DUP2 MSTORE PUSH1 0x1 DUP3 ADD SLOAD PUSH1 0x20 DUP3 ADD MSTORE PUSH1 0x2 DUP3 ADD SLOAD PUSH1 0x40 DUP3 ADD MSTORE PUSH1 0x3 DUP3 ADD SLOAD PUSH1 0x60 DUP3 ADD MSTORE PUSH1 0x4 DUP3 ADD SLOAD PUSH1 0x80 DUP3 ADD MSTORE PUSH1 0x5 DUP3 ADD SLOAD PUSH1 0xA0 DUP3 ADD MSTORE PUSH1 0x6 DUP3 ADD SLOAD PUSH1 0xC0 DUP3 ADD MSTORE PUSH1 0x7 SWAP1 SWAP2 ADD SLOAD PUSH1 0x1 PUSH1 0x1 PUSH1 0xA0 SHL SUB DUP2 AND PUSH1 0xE0 DUP4 ADD MSTORE PUSH1 0x1 PUSH1 0xA0 SHL SWAP1 DIV PUSH1 0x1 PUSH1 0x1 PUSH1 0x40 SHL SUB AND PUSH2 0x100 SWAP1 SWAP2 ADD MSTORE SWAP10 POP SWAP1 SWAP7 POP SWAP5 POP PUSH2 0x33FD SWAP1 POP DUP14 PUSH1 0x0 DUP6 DUP6 PUSH2 0xF1F JUMP JUMPDEST PUSH1 0x40 DUP1 MLOAD PUSH2 0x120 DUP2 ADD SWAP1 SWAP2 MSTORE DUP4 SLOAD DUP5 SWAP1 DUP3 SWAP1 PUSH1 0xFF AND PUSH1 0x1 DUP2 GT ISZERO PUSH2 0x3423 JUMPI PUSH2 0x3423 PUSH2 0x3E23 JUMP JUMPDEST PUSH1 0x1 DUP2 GT ISZERO PUSH2 0x3434 JUMPI PUSH2 0x3434 PUSH2 0x3E23 JUMP JUMPDEST DUP2 MSTORE PUSH1 0x1 DUP3 ADD SLOAD PUSH1 0x20 DUP3 ADD MSTORE PUSH1 0x2 DUP3 ADD SLOAD PUSH1 0x40 DUP3 ADD MSTORE PUSH1 0x3 DUP3 ADD SLOAD PUSH1 0x60 DUP3 ADD MSTORE PUSH1 0x4 DUP3 ADD SLOAD PUSH1 0x80 DUP3 ADD MSTORE PUSH1 0x5 DUP3 ADD SLOAD PUSH1 0xA0 DUP3 ADD MSTORE PUSH1 0x6 DUP3 ADD SLOAD PUSH1 0xC0 DUP3 ADD MSTORE PUSH1 0x7 SWAP1 SWAP2 ADD SLOAD PUSH1 0x1 PUSH1 0x1 PUSH1 0xA0 SHL SUB DUP2 AND PUSH1 0xE0 DUP4 ADD MSTORE PUSH1 0x1 PUSH1 0xA0 SHL SWAP1 DIV PUSH1 0x1 PUSH1 0x1 PUSH1 0x40 SHL SUB AND PUSH2 0x100 SWAP1 SWAP2 ADD MSTORE SWAP9 POP SWAP1 SWAP5 POP SWAP3 POP POP JUMPDEST PUSH2 0x34B2 DUP9 DUP9 DUP9 PUSH2 0x39DC JUMP JUMPDEST ISZERO PUSH2 0x38B2 JUMPI DUP7 SWAP10 POP DUP6 SWAP9 POP PUSH1 0x0 DUP1 PUSH2 0x34DD DUP10 PUSH1 0x40 ADD MLOAD PUSH2 0x34D2 DUP13 DUP13 PUSH2 0x25F1 JUMP JUMPDEST DUP11 PUSH1 0x40 ADD MLOAD DUP7 PUSH2 0x166F JUMP JUMPDEST SWAP1 SWAP3 POP SWAP1 POP PUSH1 0x2 DUP2 PUSH1 0x2 DUP2 GT ISZERO PUSH2 0x34F6 JUMPI PUSH2 0x34F6 PUSH2 0x3E23 JUMP JUMPDEST SUB PUSH2 0x366E JUMPI PUSH2 0x3508 DUP16 PUSH1 0x1 DUP10 DUP10 PUSH2 0xF1F JUMP JUMPDEST PUSH1 0x40 DUP1 MLOAD PUSH2 0x120 DUP2 ADD SWAP1 SWAP2 MSTORE DUP4 SLOAD DUP5 SWAP1 DUP3 SWAP1 PUSH1 0xFF AND PUSH1 0x1 DUP2 GT ISZERO PUSH2 0x352E JUMPI PUSH2 0x352E PUSH2 0x3E23 JUMP JUMPDEST PUSH1 0x1 DUP2 GT ISZERO PUSH2 0x353F JUMPI PUSH2 0x353F PUSH2 0x3E23 JUMP JUMPDEST DUP2 MSTORE PUSH1 0x1 DUP3 ADD SLOAD PUSH1 0x20 DUP3 ADD MSTORE PUSH1 0x2 DUP3 ADD SLOAD PUSH1 0x40 DUP3 ADD MSTORE PUSH1 0x3 DUP3 ADD SLOAD PUSH1 0x60 DUP3 ADD MSTORE PUSH1 0x4 DUP3 ADD SLOAD PUSH1 0x80 DUP3 ADD MSTORE PUSH1 0x5 DUP3 ADD SLOAD PUSH1 0xA0 DUP3 ADD MSTORE PUSH1 0x6 DUP3 ADD SLOAD PUSH1 0xC0 DUP3 ADD MSTORE PUSH1 0x7 SWAP1 SWAP2 ADD SLOAD PUSH1 0x1 PUSH1 0x1 PUSH1 0xA0 SHL SUB DUP2 AND PUSH1 0xE0 DUP4 ADD MSTORE PUSH1 0x1 PUSH1 0xA0 SHL SWAP1 DIV PUSH1 0x1 PUSH1 0x1 PUSH1 0x40 SHL SUB AND PUSH2 0x100 SWAP1 SWAP2 ADD MSTORE SWAP12 POP SWAP1 SWAP9 POP SWAP7 POP PUSH2 0x35BF SWAP1 POP DUP16 PUSH1 0x0 DUP8 DUP8 PUSH2 0xF1F JUMP JUMPDEST PUSH1 0x40 DUP1 MLOAD PUSH2 0x120 DUP2 ADD SWAP1 SWAP2 MSTORE DUP4 SLOAD DUP5 SWAP1 DUP3 SWAP1 PUSH1 0xFF AND PUSH1 0x1 DUP2 GT ISZERO PUSH2 0x35E5 JUMPI PUSH2 0x35E5 PUSH2 0x3E23 JUMP JUMPDEST PUSH1 0x1 DUP2 GT ISZERO PUSH2 0x35F6 JUMPI PUSH2 0x35F6 PUSH2 0x3E23 JUMP JUMPDEST DUP2 MSTORE PUSH1 0x1 DUP3 ADD SLOAD PUSH1 0x20 DUP3 ADD MSTORE PUSH1 0x2 DUP3 ADD SLOAD PUSH1 0x40 DUP3 ADD MSTORE PUSH1 0x3 DUP3 ADD SLOAD PUSH1 0x60 DUP3 ADD MSTORE PUSH1 0x4 DUP3 ADD SLOAD PUSH1 0x80 DUP3 ADD MSTORE PUSH1 0x5 DUP3 ADD SLOAD PUSH1 0xA0 DUP3 ADD MSTORE PUSH1 0x6 DUP3 ADD SLOAD PUSH1 0xC0 DUP3 ADD MSTORE PUSH1 0x7 SWAP1 SWAP2 ADD SLOAD PUSH1 0x1 PUSH1 0x1 PUSH1 0xA0 SHL SUB DUP2 AND PUSH1 0xE0 DUP4 ADD MSTORE PUSH1 0x1 PUSH1 0xA0 SHL SWAP1 DIV PUSH1 0x1 PUSH1 0x1 PUSH1 0x40 SHL SUB AND PUSH2 0x100 SWAP1 SWAP2 ADD MSTORE SWAP11 POP SWAP1 SWAP7 POP SWAP5 POP PUSH2 0x38AB SWAP1 POP JUMP JUMPDEST PUSH1 0x0 DUP2 PUSH1 0x2 DUP2 GT ISZERO PUSH2 0x3682 JUMPI PUSH2 0x3682 PUSH2 0x3E23 JUMP JUMPDEST SUB PUSH2 0x3759 JUMPI PUSH2 0x3694 DUP16 PUSH1 0x1 DUP10 DUP10 PUSH2 0xF1F JUMP JUMPDEST PUSH1 0x40 DUP1 MLOAD PUSH2 0x120 DUP2 ADD SWAP1 SWAP2 MSTORE DUP4 SLOAD DUP5 SWAP1 DUP3 SWAP1 PUSH1 0xFF AND PUSH1 0x1 DUP2 GT ISZERO PUSH2 0x36BA JUMPI PUSH2 0x36BA PUSH2 0x3E23 JUMP JUMPDEST PUSH1 0x1 DUP2 GT ISZERO PUSH2 0x36CB JUMPI PUSH2 0x36CB PUSH2 0x3E23 JUMP JUMPDEST DUP2 MSTORE PUSH1 0x1 DUP3 ADD SLOAD PUSH1 0x20 DUP3 ADD MSTORE PUSH1 0x2 DUP3 ADD SLOAD PUSH1 0x40 DUP1 DUP4 ADD SWAP2 SWAP1 SWAP2 MSTORE PUSH1 0x3 DUP4 ADD SLOAD PUSH1 0x60 DUP4 ADD MSTORE PUSH1 0x4 DUP4 ADD SLOAD PUSH1 0x80 DUP4 ADD MSTORE PUSH1 0x5 DUP4 ADD SLOAD PUSH1 0xA0 DUP4 ADD MSTORE PUSH1 0x6 DUP4 ADD SLOAD PUSH1 0xC0 DUP4 ADD MSTORE PUSH1 0x7 SWAP1 SWAP3 ADD SLOAD PUSH1 0x1 PUSH1 0x1 PUSH1 0xA0 SHL SUB DUP2 AND PUSH1 0xE0 DUP4 ADD MSTORE PUSH1 0x1 PUSH1 0xA0 SHL SWAP1 DIV PUSH1 0x1 PUSH1 0x1 PUSH1 0x40 SHL SUB AND PUSH2 0x100 SWAP1 SWAP2 ADD MSTORE DUP13 ADD MLOAD SWAP1 SWAP13 POP SWAP2 SWAP10 POP SWAP8 POP PUSH2 0x374F SWAP2 POP DUP4 PUSH2 0x2629 JUMP JUMPDEST PUSH1 0x40 DUP10 ADD MSTORE PUSH2 0x38AB JUMP JUMPDEST PUSH1 0x1 DUP2 PUSH1 0x2 DUP2 GT ISZERO PUSH2 0x376D JUMPI PUSH2 0x376D PUSH2 0x3E23 JUMP JUMPDEST SUB PUSH2 0x3863 JUMPI PUSH2 0x377F DUP16 PUSH1 0x0 DUP8 DUP8 PUSH2 0xF1F JUMP JUMPDEST PUSH1 0x40 DUP1 MLOAD PUSH2 0x120 DUP2 ADD SWAP1 SWAP2 MSTORE DUP4 SLOAD DUP5 SWAP1 DUP3 SWAP1 PUSH1 0xFF AND PUSH1 0x1 DUP2 GT ISZERO PUSH2 0x37A5 JUMPI PUSH2 0x37A5 PUSH2 0x3E23 JUMP JUMPDEST PUSH1 0x1 DUP2 GT ISZERO PUSH2 0x37B6 JUMPI PUSH2 0x37B6 PUSH2 0x3E23 JUMP JUMPDEST DUP2 MSTORE PUSH1 0x1 DUP3 ADD SLOAD PUSH1 0x20 DUP3 ADD MSTORE PUSH1 0x2 DUP3 ADD SLOAD PUSH1 0x40 DUP3 ADD MSTORE PUSH1 0x3 DUP3 ADD SLOAD PUSH1 0x60 DUP3 ADD MSTORE PUSH1 0x4 DUP3 ADD SLOAD PUSH1 0x80 DUP3 ADD MSTORE PUSH1 0x5 DUP3 ADD SLOAD PUSH1 0xA0 DUP3 ADD MSTORE PUSH1 0x6 DUP3 ADD SLOAD PUSH1 0xC0 DUP3 ADD MSTORE PUSH1 0x7 SWAP1 SWAP2 ADD SLOAD PUSH1 0x1 PUSH1 0x1 PUSH1 0xA0 SHL SUB DUP2 AND PUSH1 0xE0 DUP4 ADD MSTORE PUSH1 0x1 PUSH1 0xA0 SHL SWAP1 DIV PUSH1 0x1 PUSH1 0x1 PUSH1 0x40 SHL SUB AND PUSH2 0x100 SWAP1 SWAP2 ADD MSTORE SWAP11 POP SWAP1 SWAP7 POP SWAP5 POP PUSH1 0x0 SWAP1 POP PUSH2 0x3835 DUP12 DUP12 PUSH2 0x25F1 JUMP JUMPDEST SWAP1 POP PUSH1 0x0 PUSH2 0x3844 DUP5 DUP4 DUP8 PUSH2 0x2687 JUMP JUMPDEST PUSH1 0x40 DUP13 ADD MLOAD SWAP1 SWAP2 POP PUSH2 0x3856 SWAP1 DUP3 PUSH2 0x2629 JUMP JUMPDEST PUSH1 0x40 DUP13 ADD MSTORE POP PUSH2 0x38AB SWAP1 POP JUMP JUMPDEST PUSH1 0x40 MLOAD PUSH3 0x461BCD PUSH1 0xE5 SHL DUP2 MSTORE PUSH1 0x20 PUSH1 0x4 DUP3 ADD DUP2 SWAP1 MSTORE PUSH1 0x24 DUP3 ADD MSTORE PUSH32 0x776F77207468697320697320612062616420696D706C656D656E746174696F6E PUSH1 0x44 DUP3 ADD MSTORE PUSH1 0x64 ADD PUSH2 0xB11 JUMP JUMPDEST POP POP PUSH2 0x34A7 JUMP JUMPDEST DUP10 PUSH1 0x20 ADD MLOAD DUP10 PUSH1 0x20 ADD MLOAD SWAP12 POP SWAP12 POP POP POP POP POP POP POP POP POP POP POP SWAP2 POP SWAP2 JUMP JUMPDEST PUSH1 0x0 DUP1 DUP3 SLOAD PUSH1 0xFF AND PUSH1 0x1 DUP2 GT ISZERO PUSH2 0x38E8 JUMPI PUSH2 0x38E8 PUSH2 0x3E23 JUMP JUMPDEST EQ DUP1 ISZERO PUSH2 0x1833 JUMPI POP POP PUSH1 0x1 SWAP1 DUP2 ADD SLOAD SWAP2 ADD SLOAD EQ SWAP1 JUMP JUMPDEST PUSH1 0x0 PUSH1 0x1 DUP3 SLOAD PUSH1 0xFF AND PUSH1 0x1 DUP2 GT ISZERO PUSH2 0x3918 JUMPI PUSH2 0x3918 PUSH2 0x3E23 JUMP JUMPDEST EQ DUP1 ISZERO PUSH2 0x1833 JUMPI POP POP PUSH1 0x1 ADD SLOAD PUSH1 0x2 SWAP1 SWAP2 ADD SLOAD EQ SWAP1 JUMP JUMPDEST PUSH1 0x3 DUP3 ADD SLOAD PUSH2 0x393F SWAP1 PUSH1 0x1 PUSH2 0x2629 JUMP JUMPDEST PUSH1 0x3 DUP4 ADD SSTORE DUP1 ISZERO PUSH2 0x3963 JUMPI PUSH1 0x4 DUP3 ADD SLOAD PUSH2 0x395A SWAP1 PUSH1 0x1 PUSH2 0x2629 JUMP JUMPDEST PUSH1 0x4 DUP4 ADD SSTORE POP POP JUMP JUMPDEST PUSH1 0x5 DUP3 ADD SLOAD PUSH2 0x3973 SWAP1 PUSH1 0x1 PUSH2 0x2629 JUMP JUMPDEST PUSH1 0x5 DUP4 ADD SSTORE POP POP JUMP JUMPDEST PUSH1 0x0 DUP2 DUP4 GT PUSH2 0x398B JUMPI DUP2 PUSH2 0x1833 JUMP JUMPDEST POP SWAP1 SWAP2 SWAP1 POP JUMP JUMPDEST PUSH1 0x0 DUP1 PUSH2 0x399F DUP8 DUP5 PUSH2 0x4178 JUMP JUMPDEST SWAP1 POP PUSH1 0x0 PUSH2 0x39B7 DUP6 PUSH2 0x39B1 DUP12 DUP6 PUSH2 0x3A11 JUMP JUMPDEST SWAP1 PUSH2 0x3A47 JUMP JUMPDEST SWAP1 POP PUSH2 0x39C3 DUP2 DUP9 PUSH2 0x3A53 JUMP JUMPDEST SWAP1 POP PUSH2 0x39CF DUP2 DUP8 PUSH2 0x397C JUMP JUMPDEST SWAP10 SWAP9 POP POP POP POP POP POP POP POP POP JUMP JUMPDEST PUSH1 0x0 DUP2 PUSH1 0x20 ADD MLOAD PUSH1 0x0 EQ ISZERO DUP1 ISZERO PUSH2 0x39F6 JUMPI POP PUSH1 0x20 DUP4 ADD MLOAD ISZERO ISZERO JUMPDEST DUP1 ISZERO PUSH2 0x1373 JUMPI POP PUSH2 0x3A07 DUP5 DUP4 PUSH2 0x25F1 JUMP JUMPDEST PUSH2 0x25E7 DUP6 DUP6 PUSH2 0x25F1 JUMP JUMPDEST PUSH1 0x0 DUP3 PUSH1 0x0 SUB PUSH2 0x3A23 JUMPI POP PUSH1 0x0 PUSH2 0x1836 JUMP JUMPDEST PUSH2 0x3A2D DUP3 DUP5 PUSH2 0x419E JUMP JUMPDEST SWAP1 POP DUP2 PUSH2 0x3A3A DUP5 DUP4 PUSH2 0x41B5 JUMP JUMPDEST EQ PUSH2 0x1836 JUMPI PUSH2 0x1836 PUSH2 0x4026 JUMP JUMPDEST PUSH1 0x0 PUSH2 0x1833 DUP3 DUP5 PUSH2 0x41B5 JUMP JUMPDEST PUSH1 0x0 DUP2 DUP4 LT PUSH2 0x398B JUMPI DUP2 PUSH2 0x1833 JUMP JUMPDEST POP DUP1 SLOAD PUSH1 0x0 DUP3 SSTORE SWAP1 PUSH1 0x0 MSTORE PUSH1 0x20 PUSH1 0x0 KECCAK256 SWAP1 DUP2 ADD SWAP1 PUSH2 0x3A80 SWAP2 SWAP1 PUSH2 0x3AE2 JUMP JUMPDEST POP JUMP JUMPDEST PUSH1 0x40 DUP1 MLOAD PUSH2 0x120 DUP2 ADD SWAP1 SWAP2 MSTORE DUP1 PUSH1 0x0 DUP2 MSTORE PUSH1 0x20 ADD PUSH1 0x0 DUP2 MSTORE PUSH1 0x20 ADD PUSH1 0x0 DUP2 MSTORE PUSH1 0x20 ADD PUSH1 0x0 DUP2 MSTORE PUSH1 0x20 ADD PUSH1 0x0 DUP2 MSTORE PUSH1 0x20 ADD PUSH1 0x0 DUP2 MSTORE PUSH1 0x20 ADD PUSH1 0x0 DUP2 MSTORE PUSH1 0x20 ADD PUSH1 0x0 PUSH1 0x1 PUSH1 0x1 PUSH1 0xA0 SHL SUB AND DUP2 MSTORE PUSH1 0x20 ADD PUSH1 0x0 PUSH1 0x1 PUSH1 0x1 PUSH1 0x40 SHL SUB AND DUP2 MSTORE POP SWAP1 JUMP JUMPDEST JUMPDEST DUP1 DUP3 GT ISZERO PUSH2 0x3AF7 JUMPI PUSH1 0x0 DUP2 SSTORE PUSH1 0x1 ADD PUSH2 0x3AE3 JUMP JUMPDEST POP SWAP1 JUMP JUMPDEST PUSH1 0x0 PUSH1 0x20 DUP3 DUP5 SUB SLT ISZERO PUSH2 0x3B0D JUMPI PUSH1 0x0 DUP1 REVERT JUMPDEST POP CALLDATALOAD SWAP2 SWAP1 POP JUMP JUMPDEST DUP1 CALLDATALOAD PUSH1 0x1 PUSH1 0x1 PUSH1 0x40 SHL SUB DUP2 AND DUP2 EQ PUSH2 0x3B2B JUMPI PUSH1 0x0 DUP1 REVERT JUMPDEST SWAP2 SWAP1 POP JUMP JUMPDEST DUP1 CALLDATALOAD PUSH1 0x1 PUSH1 0x1 PUSH1 0xA0 SHL SUB DUP2 AND DUP2 EQ PUSH2 0x3B2B JUMPI PUSH1 0x0 DUP1 REVERT JUMPDEST DUP1 ISZERO ISZERO DUP2 EQ PUSH2 0x3A80 JUMPI PUSH1 0x0 DUP1 REVERT JUMPDEST PUSH1 0x0 DUP1 PUSH1 0x0 DUP1 PUSH1 0x0 DUP1 PUSH1 0x0 DUP1 PUSH1 0x0 PUSH2 0x120 DUP11 DUP13 SUB SLT ISZERO PUSH2 0x3B74 JUMPI PUSH1 0x0 DUP1 REVERT JUMPDEST DUP10 CALLDATALOAD SWAP9 POP PUSH1 0x20 DUP11 ADD CALLDATALOAD SWAP8 POP PUSH1 0x40 DUP11 ADD CALLDATALOAD SWAP7 POP PUSH1 0x60 DUP11 ADD CALLDATALOAD SWAP6 POP PUSH1 0x80 DUP11 ADD CALLDATALOAD SWAP5 POP PUSH2 0x3BA0 PUSH1 0xA0 DUP12 ADD PUSH2 0x3B14 JUMP JUMPDEST SWAP4 POP PUSH1 0xC0 DUP11 ADD CALLDATALOAD SWAP3 POP PUSH2 0x3BB5 PUSH1 0xE0 DUP12 ADD PUSH2 0x3B30 JUMP JUMPDEST SWAP2 POP PUSH2 0x100 DUP11 ADD CALLDATALOAD PUSH2 0x3BC6 DUP2 PUSH2 0x3B47 JUMP JUMPDEST DUP1 SWAP2 POP POP SWAP3 SWAP6 SWAP9 POP SWAP3 SWAP6 SWAP9 POP SWAP3 SWAP6 SWAP9 JUMP JUMPDEST PUSH1 0x0 DUP1 PUSH1 0x0 PUSH1 0x60 DUP5 DUP7 SUB SLT ISZERO PUSH2 0x3BEC JUMPI PUSH1 0x0 DUP1 REVERT JUMPDEST POP POP DUP2 CALLDATALOAD SWAP4 PUSH1 0x20 DUP4 ADD CALLDATALOAD SWAP4 POP PUSH1 0x40 SWAP1 SWAP3 ADD CALLDATALOAD SWAP2 SWAP1 POP JUMP JUMPDEST PUSH1 0x0 DUP1 PUSH1 0x0 DUP1 PUSH1 0x0 DUP1 PUSH1 0x0 PUSH1 0xE0 DUP9 DUP11 SUB SLT ISZERO PUSH2 0x3C1E JUMPI PUSH1 0x0 DUP1 REVERT JUMPDEST DUP8 CALLDATALOAD SWAP7 POP PUSH1 0x20 DUP9 ADD CALLDATALOAD SWAP6 POP PUSH1 0x40 DUP9 ADD CALLDATALOAD SWAP5 POP PUSH1 0x60 DUP9 ADD CALLDATALOAD SWAP4 POP PUSH1 0x80 DUP9 ADD CALLDATALOAD SWAP3 POP PUSH2 0x3C4A PUSH1 0xA0 DUP10 ADD PUSH2 0x3B14 JUMP JUMPDEST SWAP2 POP PUSH1 0xC0 DUP9 ADD CALLDATALOAD SWAP1 POP SWAP3 SWAP6 SWAP9 SWAP2 SWAP5 SWAP8 POP SWAP3 SWAP6 POP JUMP JUMPDEST PUSH1 0x0 DUP1 PUSH1 0x0 DUP1 PUSH1 0x80 DUP6 DUP8 SUB SLT ISZERO PUSH2 0x3C75 JUMPI PUSH1 0x0 DUP1 REVERT JUMPDEST DUP5 CALLDATALOAD SWAP4 POP PUSH1 0x20 DUP6 ADD CALLDATALOAD PUSH2 0x3C87 DUP2 PUSH2 0x3B47 JUMP JUMPDEST SWAP4 SWAP7 SWAP4 SWAP6 POP POP POP POP PUSH1 0x40 DUP3 ADD CALLDATALOAD SWAP2 PUSH1 0x60 ADD CALLDATALOAD SWAP1 JUMP JUMPDEST PUSH1 0x0 DUP1 PUSH1 0x0 DUP1 PUSH1 0x0 DUP1 PUSH1 0x0 PUSH1 0xE0 DUP9 DUP11 SUB SLT ISZERO PUSH2 0x3CB7 JUMPI PUSH1 0x0 DUP1 REVERT JUMPDEST DUP8 CALLDATALOAD SWAP7 POP PUSH1 0x20 DUP9 ADD CALLDATALOAD SWAP6 POP PUSH2 0x3CCE PUSH1 0x40 DUP10 ADD PUSH2 0x3B30 JUMP JUMPDEST SWAP5 POP PUSH1 0x60 DUP9 ADD CALLDATALOAD SWAP4 POP PUSH1 0x80 DUP9 ADD CALLDATALOAD SWAP3 POP PUSH1 0xA0 DUP9 ADD CALLDATALOAD SWAP2 POP PUSH2 0x3CF1 PUSH1 0xC0 DUP10 ADD PUSH2 0x3B14 JUMP JUMPDEST SWAP1 POP SWAP3 SWAP6 SWAP9 SWAP2 SWAP5 SWAP8 POP SWAP3 SWAP6 POP JUMP JUMPDEST PUSH1 0x0 DUP1 PUSH1 0x0 DUP1 PUSH1 0x0 PUSH1 0xA0 DUP7 DUP9 SUB SLT ISZERO PUSH2 0x3D17 JUMPI PUSH1 0x0 DUP1 REVERT JUMPDEST DUP6 CALLDATALOAD SWAP5 POP PUSH2 0x3D27 PUSH1 0x20 DUP8 ADD PUSH2 0x3B14 JUMP JUMPDEST SWAP5 SWAP8 SWAP5 SWAP7 POP POP POP POP PUSH1 0x40 DUP4 ADD CALLDATALOAD SWAP3 PUSH1 0x60 DUP2 ADD CALLDATALOAD SWAP3 PUSH1 0x80 SWAP1 SWAP2 ADD CALLDATALOAD SWAP2 POP JUMP JUMPDEST PUSH1 0x0 DUP1 PUSH1 0x0 DUP1 PUSH1 0x0 PUSH1 0xA0 DUP7 DUP9 SUB SLT ISZERO PUSH2 0x3D5D JUMPI PUSH1 0x0 DUP1 REVERT JUMPDEST DUP6 CALLDATALOAD SWAP5 POP PUSH1 0x20 DUP7 ADD CALLDATALOAD SWAP4 POP PUSH2 0x3D74 PUSH1 0x40 DUP8 ADD PUSH2 0x3B30 JUMP JUMPDEST SWAP3 POP PUSH2 0x3D82 PUSH1 0x60 DUP8 ADD PUSH2 0x3B30 JUMP JUMPDEST SWAP2 POP PUSH1 0x80 DUP7 ADD CALLDATALOAD PUSH2 0x3D92 DUP2 PUSH2 0x3B47 JUMP JUMPDEST DUP1 SWAP2 POP POP SWAP3 SWAP6 POP SWAP3 SWAP6 SWAP1 SWAP4 POP JUMP JUMPDEST PUSH1 0x0 DUP1 PUSH1 0x0 DUP1 PUSH1 0x80 DUP6 DUP8 SUB SLT ISZERO PUSH2 0x3DB6 JUMPI PUSH1 0x0 DUP1 REVERT JUMPDEST POP POP DUP3 CALLDATALOAD SWAP5 PUSH1 0x20 DUP5 ADD CALLDATALOAD SWAP5 POP PUSH1 0x40 DUP5 ADD CALLDATALOAD SWAP4 PUSH1 0x60 ADD CALLDATALOAD SWAP3 POP SWAP1 POP JUMP JUMPDEST PUSH1 0x0 DUP1 PUSH1 0x0 DUP1 PUSH1 0x0 DUP1 PUSH1 0xC0 DUP8 DUP10 SUB SLT ISZERO PUSH2 0x3DEB JUMPI PUSH1 0x0 DUP1 REVERT JUMPDEST DUP7 CALLDATALOAD SWAP6 POP PUSH1 0x20 DUP8 ADD CALLDATALOAD SWAP5 POP PUSH1 0x40 DUP8 ADD CALLDATALOAD SWAP4 POP PUSH1 0x60 DUP8 ADD CALLDATALOAD SWAP3 POP PUSH1 0x80 DUP8 ADD CALLDATALOAD SWAP2 POP PUSH2 0x3E17 PUSH1 0xA0 DUP9 ADD PUSH2 0x3B14 JUMP JUMPDEST SWAP1 POP SWAP3 SWAP6 POP SWAP3 SWAP6 POP SWAP3 SWAP6 JUMP JUMPDEST PUSH4 0x4E487B71 PUSH1 0xE0 SHL PUSH1 0x0 MSTORE PUSH1 0x21 PUSH1 0x4 MSTORE PUSH1 0x24 PUSH1 0x0 REVERT JUMPDEST DUP3 DUP2 MSTORE PUSH1 0x40 DUP2 ADD PUSH1 0x3 DUP4 LT PUSH2 0x3E50 JUMPI PUSH2 0x3E50 PUSH2 0x3E23 JUMP JUMPDEST DUP3 PUSH1 0x20 DUP4 ADD MSTORE SWAP4 SWAP3 POP POP POP JUMP JUMPDEST PUSH1 0x0 DUP1 PUSH1 0x0 PUSH1 0x60 DUP5 DUP7 SUB SLT ISZERO PUSH2 0x3E72 JUMPI PUSH1 0x0 DUP1 REVERT JUMPDEST DUP4 CALLDATALOAD SWAP3 POP PUSH2 0x3E82 PUSH1 0x20 DUP6 ADD PUSH2 0x3B14 JUMP JUMPDEST SWAP2 POP PUSH1 0x40 DUP5 ADD CALLDATALOAD SWAP1 POP SWAP3 POP SWAP3 POP SWAP3 JUMP JUMPDEST PUSH1 0x0 DUP1 PUSH1 0x40 DUP4 DUP6 SUB SLT ISZERO PUSH2 0x3EA5 JUMPI PUSH1 0x0 DUP1 REVERT JUMPDEST DUP3 CALLDATALOAD SWAP2 POP PUSH1 0x20 DUP4 ADD CALLDATALOAD PUSH2 0x3EB7 DUP2 PUSH2 0x3B47 JUMP JUMPDEST DUP1 SWAP2 POP POP SWAP3 POP SWAP3 SWAP1 POP JUMP JUMPDEST PUSH1 0x0 DUP1 PUSH1 0x40 DUP4 DUP6 SUB SLT ISZERO PUSH2 0x3ED5 JUMPI PUSH1 0x0 DUP1 REVERT JUMPDEST POP POP DUP1 CALLDATALOAD SWAP3 PUSH1 0x20 SWAP1 SWAP2 ADD CALLDATALOAD SWAP2 POP JUMP JUMPDEST PUSH1 0x0 DUP1 PUSH1 0x0 DUP1 PUSH1 0x80 DUP6 DUP8 SUB SLT ISZERO PUSH2 0x3EFA JUMPI PUSH1 0x0 DUP1 REVERT JUMPDEST DUP5 CALLDATALOAD SWAP4 POP PUSH1 0x20 DUP6 ADD CALLDATALOAD SWAP3 POP PUSH1 0x40 DUP6 ADD CALLDATALOAD SWAP2 POP PUSH1 0x60 DUP6 ADD CALLDATALOAD PUSH2 0x3F1A DUP2 PUSH2 0x3B47 JUMP JUMPDEST SWAP4 SWAP7 SWAP3 SWAP6 POP SWAP1 SWAP4 POP POP JUMP JUMPDEST PUSH1 0x0 DUP1 PUSH1 0x0 DUP1 PUSH1 0x0 DUP1 PUSH1 0x0 DUP1 PUSH2 0x100 DUP10 DUP12 SUB SLT ISZERO PUSH2 0x3F42 JUMPI PUSH1 0x0 DUP1 REVERT JUMPDEST DUP9 CALLDATALOAD SWAP8 POP PUSH1 0x20 DUP10 ADD CALLDATALOAD SWAP7 POP PUSH2 0x3F59 PUSH1 0x40 DUP11 ADD PUSH2 0x3B30 JUMP JUMPDEST SWAP6 POP PUSH1 0x60 DUP10 ADD CALLDATALOAD SWAP5 POP PUSH1 0x80 DUP10 ADD CALLDATALOAD SWAP4 POP PUSH1 0xA0 DUP10 ADD CALLDATALOAD SWAP3 POP PUSH2 0x3F7C PUSH1 0xC0 DUP11 ADD PUSH2 0x3B14 JUMP JUMPDEST SWAP2 POP PUSH1 0xE0 DUP10 ADD CALLDATALOAD SWAP1 POP SWAP3 SWAP6 SWAP9 POP SWAP3 SWAP6 SWAP9 SWAP1 SWAP4 SWAP7 POP JUMP JUMPDEST PUSH1 0x0 DUP1 PUSH1 0x0 DUP1 PUSH1 0x0 DUP1 PUSH1 0x0 DUP1 PUSH1 0x0 DUP1 PUSH2 0x140 DUP12 DUP14 SUB SLT ISZERO PUSH2 0x3FB2 JUMPI PUSH1 0x0 DUP1 REVERT JUMPDEST DUP11 CALLDATALOAD SWAP10 POP PUSH1 0x20 DUP12 ADD CALLDATALOAD SWAP9 POP PUSH1 0x40 DUP12 ADD CALLDATALOAD SWAP8 POP PUSH1 0x60 DUP12 ADD CALLDATALOAD SWAP7 POP PUSH1 0x80 DUP12 ADD CALLDATALOAD SWAP6 POP PUSH2 0x3FDE PUSH1 0xA0 DUP13 ADD PUSH2 0x3B14 JUMP JUMPDEST SWAP5 POP PUSH1 0xC0 DUP12 ADD CALLDATALOAD SWAP4 POP PUSH2 0x3FF3 PUSH1 0xE0 DUP13 ADD PUSH2 0x3B30 JUMP JUMPDEST SWAP3 POP PUSH2 0x4002 PUSH2 0x100 DUP13 ADD PUSH2 0x3B30 JUMP JUMPDEST SWAP2 POP PUSH2 0x120 DUP12 ADD CALLDATALOAD PUSH2 0x4013 DUP2 PUSH2 0x3B47 JUMP JUMPDEST DUP1 SWAP2 POP POP SWAP3 SWAP6 SWAP9 SWAP12 SWAP2 SWAP5 SWAP8 SWAP11 POP SWAP3 SWAP6 SWAP9 POP JUMP JUMPDEST PUSH4 0x4E487B71 PUSH1 0xE0 SHL PUSH1 0x0 MSTORE PUSH1 0x1 PUSH1 0x4 MSTORE PUSH1 0x24 PUSH1 0x0 REVERT JUMPDEST PUSH1 0x0 PUSH1 0x20 DUP3 DUP5 SUB SLT ISZERO PUSH2 0x404E JUMPI PUSH1 0x0 DUP1 REVERT JUMPDEST POP MLOAD SWAP2 SWAP1 POP JUMP JUMPDEST PUSH1 0x0 PUSH1 0x20 DUP3 DUP5 SUB SLT ISZERO PUSH2 0x4067 JUMPI PUSH1 0x0 DUP1 REVERT JUMPDEST DUP2 MLOAD PUSH2 0x1833 DUP2 PUSH2 0x3B47 JUMP JUMPDEST PUSH4 0x4E487B71 PUSH1 0xE0 SHL PUSH1 0x0 MSTORE PUSH1 0x11 PUSH1 0x4 MSTORE PUSH1 0x24 PUSH1 0x0 REVERT JUMPDEST PUSH1 0x1 PUSH1 0x1 PUSH1 0x40 SHL SUB DUP2 DUP2 AND DUP4 DUP3 AND ADD SWAP1 DUP1 DUP3 GT ISZERO PUSH2 0x11C7 JUMPI PUSH2 0x11C7 PUSH2 0x4072 JUMP JUMPDEST PUSH1 0x0 DUP1 PUSH1 0x40 DUP4 DUP6 SUB SLT ISZERO PUSH2 0x40BB JUMPI PUSH1 0x0 DUP1 REVERT JUMPDEST DUP3 MLOAD SWAP2 POP PUSH1 0x20 DUP4 ADD MLOAD PUSH2 0x3EB7 DUP2 PUSH2 0x3B47 JUMP JUMPDEST PUSH1 0x0 PUSH1 0x1 DUP3 ADD PUSH2 0x40DF JUMPI PUSH2 0x40DF PUSH2 0x4072 JUMP JUMPDEST POP PUSH1 0x1 ADD SWAP1 JUMP JUMPDEST PUSH4 0x4E487B71 PUSH1 0xE0 SHL PUSH1 0x0 MSTORE PUSH1 0x32 PUSH1 0x4 MSTORE PUSH1 0x24 PUSH1 0x0 REVERT JUMPDEST PUSH1 0x2 DUP2 LT PUSH2 0x410C JUMPI PUSH2 0x410C PUSH2 0x3E23 JUMP JUMPDEST SWAP1 MSTORE JUMP JUMPDEST PUSH1 0x1 PUSH1 0x1 PUSH1 0xA0 SHL SUB DUP11 DUP2 AND DUP3 MSTORE DUP10 AND PUSH1 0x20 DUP3 ADD MSTORE PUSH1 0x40 DUP2 ADD DUP9 SWAP1 MSTORE PUSH1 0x60 DUP2 ADD DUP8 SWAP1 MSTORE PUSH1 0x80 DUP2 ADD DUP7 SWAP1 MSTORE PUSH1 0xA0 DUP2 ADD DUP6 SWAP1 MSTORE PUSH1 0x1 PUSH1 0x1 PUSH1 0x40 SHL SUB DUP5 AND PUSH1 0xC0 DUP3 ADD MSTORE DUP3 ISZERO ISZERO PUSH1 0xE0 DUP3 ADD MSTORE PUSH2 0x120 DUP2 ADD PUSH2 0x416A PUSH2 0x100 DUP4 ADD DUP5 PUSH2 0x40FC JUMP JUMPDEST SWAP11 SWAP10 POP POP POP POP POP POP POP POP POP POP JUMP JUMPDEST DUP2 DUP2 SUB DUP2 DUP2 GT ISZERO PUSH2 0x1836 JUMPI PUSH2 0x1836 PUSH2 0x4072 JUMP JUMPDEST DUP1 DUP3 ADD DUP1 DUP3 GT ISZERO PUSH2 0x1836 JUMPI PUSH2 0x1836 PUSH2 0x4072 JUMP JUMPDEST DUP1 DUP3 MUL DUP2 ISZERO DUP3 DUP3 DIV DUP5 EQ OR PUSH2 0x1836 JUMPI PUSH2 0x1836 PUSH2 0x4072 JUMP JUMPDEST PUSH1 0x0 DUP3 PUSH2 0x41D2 JUMPI PUSH4 0x4E487B71 PUSH1 0xE0 SHL PUSH1 0x0 MSTORE PUSH1 0x12 PUSH1 0x4 MSTORE PUSH1 0x24 PUSH1 0x0 REVERT JUMPDEST POP DIV SWAP1 JUMP INVALID 0x21 STATICCALL PREVRANDAO 0xF8 JUMPDEST PUSH0 SWAP11 PUSH17 0x42F003C7B845BDCF692DF1E4359B995F9 MCOPY 0xBE 0xCF SDIV 0xBA BASEFEE 0xE7 LOG2 PUSH5 0x6970667358 0x22 SLT KECCAK256 DUP16 DUP11 BALANCE DUP2 CALLDATASIZE PUSH14 0x63C83CFB3688A6F5D0298A4EA8F9 0x4F JUMPI PUSH19 0xF1C1332BE7A9D9EC564736F6C634300081800 CALLER "},"methodIdentifiers":{"areOrdersToExpire(MoCExchangeLib.Pair storage,bool)":"e71df428","calculateNewEMA(uint256,uint256,uint256,uint256)":"42d6fd32","compareIntents(uint256,uint256,uint256,uint256)":"9ac754fd","doCancelOrder(MoCExchangeLib.Pair storage,uint256,uint256,bool)":"cf1ba066","doInsertLimitOrder(MoCExchangeLib.Pair storage,uint256,uint256,uint256,uint256,uint64,uint256,address,address,bool)":"e9322fe1","doInsertMarketOrder(MoCExchangeLib.Pair storage,uint256,uint256,uint256,uint256,uint64,uint256,address,bool)":"126fd5b4","findPreviousMarketOrderToMultiplyFactor(MoCExchangeLib.Data storage,uint256)":"c8b8dded","findPreviousOrder(MoCExchangeLib.Data storage,MoCExchangeLib.Order storage,uint256)":"9feb8547","findPreviousOrderToPrice(MoCExchangeLib.Data storage,uint256)":"ea850a41","getEmergentPrice(MoCExchangeLib.Pair storage)":"f786a140","getMarketPrice(MoCExchangeLib.Pair storage)":"323bfe21","getNextValidLimitOrder(MoCExchangeLib.Data storage,uint64,uint256)":"a2737a2e","getNextValidMarketOrder(MoCExchangeLib.Data storage,uint64,uint256)":"c0898481","getNextValidOrder(MoCExchangeLib.Data storage,uint64,uint256,uint256,uint256)":"2f554eb9","getNextValidOrder(MoCExchangeLib.Pair storage,bool)":"c62347f0","getNextValidOrderEP(MoCExchangeLib.Pair storage,bool,uint256,uint256)":"2bc769f4","insertLimitOrder(MoCExchangeLib.Data storage,uint256,address,uint256,uint256,uint256,uint64)":"aab4ca7e","insertLimitOrder(MoCExchangeLib.Data storage,uint256,address,uint256,uint256,uint256,uint64,uint256)":"d0553f66","insertLimitOrderAsPending(MoCExchangeLib.Data storage,uint256,address,uint256,uint256,uint256,uint64)":"af533178","insertMarketOrder(MoCExchangeLib.Data storage,uint256,uint256,uint256,uint256,uint64)":"70f7d79b","insertMarketOrder(MoCExchangeLib.Data storage,uint256,uint256,uint256,uint256,uint64,uint256)":"1defbdbf","insertMarketOrderAsPending(MoCExchangeLib.Data storage,uint256,address,uint256,uint256,uint256,uint64)":"2e3c578f","mostCompetitiveOrder(uint256,MoCExchangeLib.Data storage,MoCExchangeLib.Order storage,MoCExchangeLib.Order storage)":"92e7f04e","movePendingLimitOrderFrom(MoCExchangeLib.Token storage,MoCExchangeLib.TickPaginationMemory storage,address,address,bool)":"6c8b5798","movePendingLimitOrdersStepFunction(MoCExchangeLib.Pair storage)":"d83fd36a","movePendingMarketOrderFrom(MoCExchangeLib.Token storage,MoCExchangeLib.TickPaginationMemory storage,address,address,bool)":"41ff1444","movePendingMarketOrdersStepFunction(MoCExchangeLib.Pair storage)":"25242cf5","movePendingOrdersStepFunction(MoCExchangeLib.Pair storage)":"a433a92a","onSimulationFinish(MoCExchangeLib.Pair storage)":"582e61a9","onSimulationStart(MoCExchangeLib.Pair storage)":"d50d46a4","onTickFinish(MoCExchangeLib.Pair storage,TickState.Config storage)":"ef6d501c","removeOrder(MoCExchangeLib.Data storage,MoCExchangeLib.Order storage,uint256)":"fcd24003","simulateMatchingStep(MoCExchangeLib.Pair storage)":"0f0ea5af","validatePreviousMarketOrder(MoCExchangeLib.Data storage,uint256,uint256)":"4356154a","validatePreviousOrder(MoCExchangeLib.Data storage,uint256,uint256)":"17b445f4"}}}}}