{
  "_format": "hh-sol-artifact-1",
  "contractName": "RestrictiveOrderListing",
  "sourceName": "contracts/RestrictiveOrderListing.sol",
  "abi": [
    {
      "inputs": [],
      "name": "ReentrancyGuardReentrantCall",
      "type": "error"
    },
    {
      "anonymous": false,
      "inputs": [
        {
          "indexed": true,
          "internalType": "uint256",
          "name": "id",
          "type": "uint256"
        },
        {
          "indexed": true,
          "internalType": "address",
          "name": "sender",
          "type": "address"
        },
        {
          "indexed": false,
          "internalType": "address",
          "name": "baseTokenAddress",
          "type": "address"
        },
        {
          "indexed": false,
          "internalType": "address",
          "name": "secondaryTokenAddress",
          "type": "address"
        },
        {
          "indexed": false,
          "internalType": "uint256",
          "name": "exchangeableAmount",
          "type": "uint256"
        },
        {
          "indexed": false,
          "internalType": "uint256",
          "name": "reservedCommission",
          "type": "uint256"
        },
        {
          "indexed": false,
          "internalType": "uint256",
          "name": "price",
          "type": "uint256"
        },
        {
          "indexed": false,
          "internalType": "uint256",
          "name": "multiplyFactor",
          "type": "uint256"
        },
        {
          "indexed": false,
          "internalType": "uint64",
          "name": "expiresInTick",
          "type": "uint64"
        },
        {
          "indexed": false,
          "internalType": "bool",
          "name": "isBuy",
          "type": "bool"
        },
        {
          "indexed": false,
          "internalType": "enum MoCExchangeLib.OrderType",
          "name": "orderType",
          "type": "uint8"
        }
      ],
      "name": "NewOrderInserted",
      "type": "event"
    },
    {
      "anonymous": false,
      "inputs": [
        {
          "indexed": true,
          "internalType": "uint256",
          "name": "id",
          "type": "uint256"
        },
        {
          "indexed": true,
          "internalType": "address",
          "name": "sender",
          "type": "address"
        },
        {
          "indexed": false,
          "internalType": "uint256",
          "name": "returnedAmount",
          "type": "uint256"
        },
        {
          "indexed": false,
          "internalType": "uint256",
          "name": "commission",
          "type": "uint256"
        },
        {
          "indexed": false,
          "internalType": "uint256",
          "name": "returnedCommission",
          "type": "uint256"
        },
        {
          "indexed": false,
          "internalType": "bool",
          "name": "isBuy",
          "type": "bool"
        }
      ],
      "name": "OrderCancelled",
      "type": "event"
    },
    {
      "anonymous": false,
      "inputs": [
        {
          "indexed": false,
          "internalType": "address",
          "name": "account",
          "type": "address"
        }
      ],
      "name": "Paused",
      "type": "event"
    },
    {
      "anonymous": false,
      "inputs": [
        {
          "indexed": false,
          "internalType": "address",
          "name": "baseToken",
          "type": "address"
        },
        {
          "indexed": false,
          "internalType": "address",
          "name": "secondaryToken",
          "type": "address"
        }
      ],
      "name": "TokenPairDisabled",
      "type": "event"
    },
    {
      "anonymous": false,
      "inputs": [
        {
          "indexed": false,
          "internalType": "address",
          "name": "baseToken",
          "type": "address"
        },
        {
          "indexed": false,
          "internalType": "address",
          "name": "secondaryToken",
          "type": "address"
        }
      ],
      "name": "TokenPairEnabled",
      "type": "event"
    },
    {
      "anonymous": false,
      "inputs": [
        {
          "indexed": true,
          "internalType": "address",
          "name": "_tokenAddress",
          "type": "address"
        },
        {
          "indexed": true,
          "internalType": "address",
          "name": "_to",
          "type": "address"
        },
        {
          "indexed": false,
          "internalType": "uint256",
          "name": "_amount",
          "type": "uint256"
        },
        {
          "indexed": false,
          "internalType": "bool",
          "name": "_isRevert",
          "type": "bool"
        }
      ],
      "name": "TransferFailed",
      "type": "event"
    },
    {
      "anonymous": false,
      "inputs": [
        {
          "indexed": false,
          "internalType": "address",
          "name": "account",
          "type": "address"
        }
      ],
      "name": "Unpaused",
      "type": "event"
    },
    {
      "inputs": [],
      "name": "PRECISION_SMOOTHING_FACTOR",
      "outputs": [
        {
          "internalType": "uint256",
          "name": "",
          "type": "uint256"
        }
      ],
      "stateMutability": "view",
      "type": "function"
    },
    {
      "inputs": [],
      "name": "SMOOTHING_FACTOR",
      "outputs": [
        {
          "internalType": "uint256",
          "name": "",
          "type": "uint256"
        }
      ],
      "stateMutability": "view",
      "type": "function"
    },
    {
      "inputs": [
        {
          "internalType": "address",
          "name": "_baseToken",
          "type": "address"
        },
        {
          "internalType": "address",
          "name": "_secondaryToken",
          "type": "address"
        },
        {
          "internalType": "address",
          "name": "_priceProvider",
          "type": "address"
        },
        {
          "internalType": "uint256",
          "name": "_priceComparisonPrecision",
          "type": "uint256"
        },
        {
          "internalType": "uint256",
          "name": "_initialPrice",
          "type": "uint256"
        }
      ],
      "name": "addTokenPair",
      "outputs": [],
      "stateMutability": "nonpayable",
      "type": "function"
    },
    {
      "inputs": [
        {
          "internalType": "address",
          "name": "_baseToken",
          "type": "address"
        },
        {
          "internalType": "address",
          "name": "_secondaryToken",
          "type": "address"
        }
      ],
      "name": "buyOrdersLength",
      "outputs": [
        {
          "internalType": "uint256",
          "name": "",
          "type": "uint256"
        }
      ],
      "stateMutability": "view",
      "type": "function"
    },
    {
      "inputs": [
        {
          "internalType": "address",
          "name": "_baseToken",
          "type": "address"
        },
        {
          "internalType": "address",
          "name": "_secondaryToken",
          "type": "address"
        },
        {
          "internalType": "uint256",
          "name": "_orderId",
          "type": "uint256"
        },
        {
          "internalType": "uint256",
          "name": "_previousOrderIdHint",
          "type": "uint256"
        }
      ],
      "name": "cancelBuyOrder",
      "outputs": [],
      "stateMutability": "nonpayable",
      "type": "function"
    },
    {
      "inputs": [
        {
          "internalType": "address",
          "name": "_baseToken",
          "type": "address"
        },
        {
          "internalType": "address",
          "name": "_secondaryToken",
          "type": "address"
        },
        {
          "internalType": "uint256",
          "name": "_orderId",
          "type": "uint256"
        },
        {
          "internalType": "uint256",
          "name": "_previousOrderIdHint",
          "type": "uint256"
        }
      ],
      "name": "cancelSellOrder",
      "outputs": [],
      "stateMutability": "nonpayable",
      "type": "function"
    },
    {
      "inputs": [
        {
          "internalType": "contract IGovernor",
          "name": "newIGovernor",
          "type": "address"
        }
      ],
      "name": "changeIGovernor",
      "outputs": [],
      "stateMutability": "nonpayable",
      "type": "function"
    },
    {
      "inputs": [],
      "name": "commissionManager",
      "outputs": [
        {
          "internalType": "contract CommissionManager",
          "name": "",
          "type": "address"
        }
      ],
      "stateMutability": "view",
      "type": "function"
    },
    {
      "inputs": [
        {
          "internalType": "address",
          "name": "_tokenAddress",
          "type": "address"
        },
        {
          "internalType": "uint256",
          "name": "_amount",
          "type": "uint256"
        },
        {
          "internalType": "address",
          "name": "_baseAddress",
          "type": "address"
        }
      ],
      "name": "convertTokenToCommonBase",
      "outputs": [
        {
          "internalType": "uint256",
          "name": "convertedAmount",
          "type": "uint256"
        }
      ],
      "stateMutability": "view",
      "type": "function"
    },
    {
      "inputs": [
        {
          "internalType": "address",
          "name": "_baseToken",
          "type": "address"
        },
        {
          "internalType": "address",
          "name": "_secondaryToken",
          "type": "address"
        }
      ],
      "name": "disableTokenPair",
      "outputs": [],
      "stateMutability": "nonpayable",
      "type": "function"
    },
    {
      "inputs": [
        {
          "internalType": "address",
          "name": "_baseToken",
          "type": "address"
        },
        {
          "internalType": "address",
          "name": "_secondaryToken",
          "type": "address"
        }
      ],
      "name": "enableTokenPair",
      "outputs": [],
      "stateMutability": "nonpayable",
      "type": "function"
    },
    {
      "inputs": [
        {
          "internalType": "address",
          "name": "_baseToken",
          "type": "address"
        },
        {
          "internalType": "address",
          "name": "_secondaryToken",
          "type": "address"
        }
      ],
      "name": "getNextTick",
      "outputs": [
        {
          "internalType": "uint64",
          "name": "tickNumber",
          "type": "uint64"
        },
        {
          "internalType": "uint256",
          "name": "nextTickBlock",
          "type": "uint256"
        },
        {
          "internalType": "uint256",
          "name": "lastTickBlock",
          "type": "uint256"
        }
      ],
      "stateMutability": "view",
      "type": "function"
    },
    {
      "inputs": [
        {
          "internalType": "address",
          "name": "_baseToken",
          "type": "address"
        },
        {
          "internalType": "address",
          "name": "_secondaryToken",
          "type": "address"
        }
      ],
      "name": "getPriceProvider",
      "outputs": [
        {
          "internalType": "address",
          "name": "",
          "type": "address"
        }
      ],
      "stateMutability": "view",
      "type": "function"
    },
    {
      "inputs": [],
      "name": "getTokenPairs",
      "outputs": [
        {
          "internalType": "address[2][]",
          "name": "",
          "type": "address[2][]"
        }
      ],
      "stateMutability": "view",
      "type": "function"
    },
    {
      "inputs": [],
      "name": "governor",
      "outputs": [
        {
          "internalType": "contract IGovernor",
          "name": "",
          "type": "address"
        }
      ],
      "stateMutability": "view",
      "type": "function"
    },
    {
      "inputs": [
        {
          "internalType": "address",
          "name": "_baseToken",
          "type": "address"
        },
        {
          "internalType": "address",
          "name": "_secondaryToken",
          "type": "address"
        }
      ],
      "name": "hashAddresses",
      "outputs": [
        {
          "internalType": "bytes32",
          "name": "",
          "type": "bytes32"
        }
      ],
      "stateMutability": "pure",
      "type": "function"
    },
    {
      "inputs": [
        {
          "internalType": "address",
          "name": "_stopper",
          "type": "address"
        },
        {
          "internalType": "address",
          "name": "_governor",
          "type": "address"
        }
      ],
      "name": "initialize",
      "outputs": [],
      "stateMutability": "nonpayable",
      "type": "function"
    },
    {
      "inputs": [
        {
          "internalType": "address",
          "name": "_commonBaseTokenAddress",
          "type": "address"
        },
        {
          "internalType": "contract CommissionManager",
          "name": "_commissionManager",
          "type": "address"
        },
        {
          "internalType": "uint64",
          "name": "_expectedOrdersForTick",
          "type": "uint64"
        },
        {
          "internalType": "uint64",
          "name": "_maxBlocksForTick",
          "type": "uint64"
        },
        {
          "internalType": "uint64",
          "name": "_minBlocksForTick",
          "type": "uint64"
        },
        {
          "internalType": "uint256",
          "name": "_minOrderAmount",
          "type": "uint256"
        },
        {
          "internalType": "uint256",
          "name": "_minMultiplyFactor",
          "type": "uint256"
        },
        {
          "internalType": "uint256",
          "name": "_maxMultiplyFactor",
          "type": "uint256"
        },
        {
          "internalType": "uint64",
          "name": "_maxOrderLifespan",
          "type": "uint64"
        },
        {
          "internalType": "address",
          "name": "_governor",
          "type": "address"
        },
        {
          "internalType": "address",
          "name": "_stopper",
          "type": "address"
        }
      ],
      "name": "initialize",
      "outputs": [],
      "stateMutability": "nonpayable",
      "type": "function"
    },
    {
      "inputs": [
        {
          "internalType": "address",
          "name": "_governor",
          "type": "address"
        }
      ],
      "name": "initialize",
      "outputs": [],
      "stateMutability": "nonpayable",
      "type": "function"
    },
    {
      "inputs": [
        {
          "internalType": "address",
          "name": "_stopper",
          "type": "address"
        },
        {
          "internalType": "address",
          "name": "_governor",
          "type": "address"
        },
        {
          "internalType": "bool",
          "name": "_stoppable",
          "type": "bool"
        }
      ],
      "name": "initialize",
      "outputs": [],
      "stateMutability": "nonpayable",
      "type": "function"
    },
    {
      "inputs": [
        {
          "internalType": "address",
          "name": "_baseToken",
          "type": "address"
        },
        {
          "internalType": "address",
          "name": "_secondaryToken",
          "type": "address"
        },
        {
          "internalType": "uint256",
          "name": "_amount",
          "type": "uint256"
        },
        {
          "internalType": "uint256",
          "name": "_price",
          "type": "uint256"
        },
        {
          "internalType": "uint64",
          "name": "_lifespan",
          "type": "uint64"
        }
      ],
      "name": "insertBuyLimitOrder",
      "outputs": [],
      "stateMutability": "nonpayable",
      "type": "function"
    },
    {
      "inputs": [
        {
          "internalType": "address",
          "name": "_baseToken",
          "type": "address"
        },
        {
          "internalType": "address",
          "name": "_secondaryToken",
          "type": "address"
        },
        {
          "internalType": "uint256",
          "name": "_amount",
          "type": "uint256"
        },
        {
          "internalType": "uint256",
          "name": "_price",
          "type": "uint256"
        },
        {
          "internalType": "uint64",
          "name": "_lifespan",
          "type": "uint64"
        },
        {
          "internalType": "uint256",
          "name": "_previousOrderIdHint",
          "type": "uint256"
        }
      ],
      "name": "insertBuyLimitOrderAfter",
      "outputs": [],
      "stateMutability": "nonpayable",
      "type": "function"
    },
    {
      "inputs": [
        {
          "internalType": "address",
          "name": "_baseToken",
          "type": "address"
        },
        {
          "internalType": "address",
          "name": "_secondaryToken",
          "type": "address"
        },
        {
          "internalType": "uint256",
          "name": "_amount",
          "type": "uint256"
        },
        {
          "internalType": "uint256",
          "name": "_multiplyFactor",
          "type": "uint256"
        },
        {
          "internalType": "uint64",
          "name": "_lifespan",
          "type": "uint64"
        },
        {
          "internalType": "bool",
          "name": "_isBuy",
          "type": "bool"
        }
      ],
      "name": "insertMarketOrder",
      "outputs": [],
      "stateMutability": "nonpayable",
      "type": "function"
    },
    {
      "inputs": [
        {
          "internalType": "address",
          "name": "_baseToken",
          "type": "address"
        },
        {
          "internalType": "address",
          "name": "_secondaryToken",
          "type": "address"
        },
        {
          "internalType": "uint256",
          "name": "_amount",
          "type": "uint256"
        },
        {
          "internalType": "uint256",
          "name": "_price",
          "type": "uint256"
        },
        {
          "internalType": "uint64",
          "name": "_lifespan",
          "type": "uint64"
        }
      ],
      "name": "insertSellLimitOrder",
      "outputs": [],
      "stateMutability": "nonpayable",
      "type": "function"
    },
    {
      "inputs": [
        {
          "internalType": "address",
          "name": "_baseToken",
          "type": "address"
        },
        {
          "internalType": "address",
          "name": "_secondaryToken",
          "type": "address"
        },
        {
          "internalType": "uint256",
          "name": "_amount",
          "type": "uint256"
        },
        {
          "internalType": "uint256",
          "name": "_price",
          "type": "uint256"
        },
        {
          "internalType": "uint64",
          "name": "_lifespan",
          "type": "uint64"
        },
        {
          "internalType": "uint256",
          "name": "_previousOrderIdHint",
          "type": "uint256"
        }
      ],
      "name": "insertSellLimitOrderAfter",
      "outputs": [],
      "stateMutability": "nonpayable",
      "type": "function"
    },
    {
      "inputs": [],
      "name": "makeStoppable",
      "outputs": [],
      "stateMutability": "nonpayable",
      "type": "function"
    },
    {
      "inputs": [],
      "name": "makeUnstoppable",
      "outputs": [],
      "stateMutability": "nonpayable",
      "type": "function"
    },
    {
      "inputs": [],
      "name": "maxMultiplyFactor",
      "outputs": [
        {
          "internalType": "uint256",
          "name": "",
          "type": "uint256"
        }
      ],
      "stateMutability": "view",
      "type": "function"
    },
    {
      "inputs": [],
      "name": "maxOrderLifespan",
      "outputs": [
        {
          "internalType": "uint64",
          "name": "",
          "type": "uint64"
        }
      ],
      "stateMutability": "view",
      "type": "function"
    },
    {
      "inputs": [],
      "name": "minMultiplyFactor",
      "outputs": [
        {
          "internalType": "uint256",
          "name": "",
          "type": "uint256"
        }
      ],
      "stateMutability": "view",
      "type": "function"
    },
    {
      "inputs": [],
      "name": "minOrderAmount",
      "outputs": [
        {
          "internalType": "uint256",
          "name": "",
          "type": "uint256"
        }
      ],
      "stateMutability": "view",
      "type": "function"
    },
    {
      "inputs": [],
      "name": "pause",
      "outputs": [],
      "stateMutability": "nonpayable",
      "type": "function"
    },
    {
      "inputs": [],
      "name": "paused",
      "outputs": [
        {
          "internalType": "bool",
          "name": "",
          "type": "bool"
        }
      ],
      "stateMutability": "view",
      "type": "function"
    },
    {
      "inputs": [
        {
          "internalType": "address",
          "name": "_baseToken",
          "type": "address"
        },
        {
          "internalType": "address",
          "name": "_secondaryToken",
          "type": "address"
        }
      ],
      "name": "pendingBuyOrdersLength",
      "outputs": [
        {
          "internalType": "uint256",
          "name": "",
          "type": "uint256"
        }
      ],
      "stateMutability": "view",
      "type": "function"
    },
    {
      "inputs": [
        {
          "internalType": "address",
          "name": "_baseToken",
          "type": "address"
        },
        {
          "internalType": "address",
          "name": "_secondaryToken",
          "type": "address"
        },
        {
          "internalType": "bool",
          "name": "_isBuy",
          "type": "bool"
        }
      ],
      "name": "pendingMarketOrdersLength",
      "outputs": [
        {
          "internalType": "uint256",
          "name": "",
          "type": "uint256"
        }
      ],
      "stateMutability": "view",
      "type": "function"
    },
    {
      "inputs": [
        {
          "internalType": "address",
          "name": "_baseToken",
          "type": "address"
        },
        {
          "internalType": "address",
          "name": "_secondaryToken",
          "type": "address"
        }
      ],
      "name": "pendingSellOrdersLength",
      "outputs": [
        {
          "internalType": "uint256",
          "name": "",
          "type": "uint256"
        }
      ],
      "stateMutability": "view",
      "type": "function"
    },
    {
      "inputs": [
        {
          "internalType": "address",
          "name": "_baseToken",
          "type": "address"
        },
        {
          "internalType": "address",
          "name": "_secondaryToken",
          "type": "address"
        }
      ],
      "name": "sellOrdersLength",
      "outputs": [
        {
          "internalType": "uint256",
          "name": "",
          "type": "uint256"
        }
      ],
      "stateMutability": "view",
      "type": "function"
    },
    {
      "inputs": [
        {
          "internalType": "uint64",
          "name": "_expectedOrdersForTick",
          "type": "uint64"
        }
      ],
      "name": "setExpectedOrdersForTick",
      "outputs": [],
      "stateMutability": "nonpayable",
      "type": "function"
    },
    {
      "inputs": [
        {
          "internalType": "address",
          "name": "_baseToken",
          "type": "address"
        },
        {
          "internalType": "address",
          "name": "_secondaryToken",
          "type": "address"
        },
        {
          "internalType": "uint256",
          "name": "_price",
          "type": "uint256"
        }
      ],
      "name": "setLastClosingPrice",
      "outputs": [],
      "stateMutability": "nonpayable",
      "type": "function"
    },
    {
      "inputs": [
        {
          "internalType": "uint64",
          "name": "_maxBlocksForTick",
          "type": "uint64"
        }
      ],
      "name": "setMaxBlocksForTick",
      "outputs": [],
      "stateMutability": "nonpayable",
      "type": "function"
    },
    {
      "inputs": [
        {
          "internalType": "uint256",
          "name": "_maxMultiplyFactor",
          "type": "uint256"
        }
      ],
      "name": "setMaxMultiplyFactor",
      "outputs": [],
      "stateMutability": "nonpayable",
      "type": "function"
    },
    {
      "inputs": [
        {
          "internalType": "uint64",
          "name": "_maxOrderLifespan",
          "type": "uint64"
        }
      ],
      "name": "setMaxOrderLifespan",
      "outputs": [],
      "stateMutability": "nonpayable",
      "type": "function"
    },
    {
      "inputs": [
        {
          "internalType": "uint64",
          "name": "_minBlocksForTick",
          "type": "uint64"
        }
      ],
      "name": "setMinBlocksForTick",
      "outputs": [],
      "stateMutability": "nonpayable",
      "type": "function"
    },
    {
      "inputs": [
        {
          "internalType": "uint256",
          "name": "_minMultiplyFactor",
          "type": "uint256"
        }
      ],
      "name": "setMinMultiplyFactor",
      "outputs": [],
      "stateMutability": "nonpayable",
      "type": "function"
    },
    {
      "inputs": [
        {
          "internalType": "uint256",
          "name": "_minOrderAmount",
          "type": "uint256"
        }
      ],
      "name": "setMinOrderAmount",
      "outputs": [],
      "stateMutability": "nonpayable",
      "type": "function"
    },
    {
      "inputs": [
        {
          "internalType": "address",
          "name": "_baseToken",
          "type": "address"
        },
        {
          "internalType": "address",
          "name": "_secondaryToken",
          "type": "address"
        },
        {
          "internalType": "address",
          "name": "_priceProvider",
          "type": "address"
        }
      ],
      "name": "setPriceProvider",
      "outputs": [],
      "stateMutability": "nonpayable",
      "type": "function"
    },
    {
      "inputs": [
        {
          "internalType": "address",
          "name": "newStopper",
          "type": "address"
        }
      ],
      "name": "setStopper",
      "outputs": [],
      "stateMutability": "nonpayable",
      "type": "function"
    },
    {
      "inputs": [
        {
          "internalType": "address",
          "name": "_baseToken",
          "type": "address"
        },
        {
          "internalType": "address",
          "name": "_secondaryToken",
          "type": "address"
        },
        {
          "internalType": "uint256",
          "name": "_emaPrice",
          "type": "uint256"
        }
      ],
      "name": "setTokenPairEmaPrice",
      "outputs": [],
      "stateMutability": "nonpayable",
      "type": "function"
    },
    {
      "inputs": [
        {
          "internalType": "address",
          "name": "_baseToken",
          "type": "address"
        },
        {
          "internalType": "address",
          "name": "_secondaryToken",
          "type": "address"
        },
        {
          "internalType": "uint256",
          "name": "_smoothingFactor",
          "type": "uint256"
        }
      ],
      "name": "setTokenPairSmoothingFactor",
      "outputs": [],
      "stateMutability": "nonpayable",
      "type": "function"
    },
    {
      "inputs": [],
      "name": "stoppable",
      "outputs": [
        {
          "internalType": "bool",
          "name": "",
          "type": "bool"
        }
      ],
      "stateMutability": "view",
      "type": "function"
    },
    {
      "inputs": [],
      "name": "stopper",
      "outputs": [
        {
          "internalType": "address",
          "name": "",
          "type": "address"
        }
      ],
      "stateMutability": "view",
      "type": "function"
    },
    {
      "inputs": [],
      "name": "tickConfig",
      "outputs": [
        {
          "internalType": "uint256",
          "name": "expectedOrdersForTick",
          "type": "uint256"
        },
        {
          "internalType": "uint256",
          "name": "maxBlocksForTick",
          "type": "uint256"
        },
        {
          "internalType": "uint256",
          "name": "minBlocksForTick",
          "type": "uint256"
        }
      ],
      "stateMutability": "view",
      "type": "function"
    },
    {
      "inputs": [
        {
          "internalType": "uint256",
          "name": "",
          "type": "uint256"
        },
        {
          "internalType": "uint256",
          "name": "",
          "type": "uint256"
        }
      ],
      "name": "tokenPairAddresses",
      "outputs": [
        {
          "internalType": "address",
          "name": "",
          "type": "address"
        }
      ],
      "stateMutability": "view",
      "type": "function"
    },
    {
      "inputs": [],
      "name": "tokenPairCount",
      "outputs": [
        {
          "internalType": "uint256",
          "name": "",
          "type": "uint256"
        }
      ],
      "stateMutability": "view",
      "type": "function"
    },
    {
      "inputs": [],
      "name": "unpause",
      "outputs": [],
      "stateMutability": "nonpayable",
      "type": "function"
    },
    {
      "inputs": [
        {
          "internalType": "address",
          "name": "token",
          "type": "address"
        }
      ],
      "name": "withdrawCommissions",
      "outputs": [],
      "stateMutability": "nonpayable",
      "type": "function"
    }
  ],
  "bytecode": "0x608060405234801561001057600080fd5b50600161016855612cd9806100266000396000f3fe608060405234801561001057600080fd5b50600436106103785760003560e01c806380446d87116101d3578063bb4872de11610104578063df318d1b116100a2578063e4bbb5a81161007c578063e4bbb5a814610797578063ec62d9ef146107aa578063f2b24da3146107bd578063fc3a4962146107d057600080fd5b8063df318d1b1461075c578063e24e4fdb1461076f578063e3204b221461078457600080fd5b8063c4d66de8116100de578063c4d66de814610709578063c4e82c1a1461071c578063c520bc921461072f578063d1a767141461074257600080fd5b8063bb4872de146106b0578063bbc92f50146106be578063c227b51c146106d157600080fd5b8063a268e21211610171578063afac413f1161014b578063afac413f14610676578063b232634c14610680578063b5febde014610693578063b6e083301461069d57600080fd5b8063a268e21214610642578063a3b8ef0414610655578063ae0678541461066857600080fd5b80638dfc0439116101ad5780638dfc0439146105dc57806391988cb8146105ef5780639c27ee4c146106025780639df64e1e1461062f57600080fd5b806380446d87146105ae5780638456cb59146105c157806389f1b1e3146105c957600080fd5b80633f4ba83a116102ad5780635210570c1161024b5780635a3970b1116102255780635a3970b1146105635780635c975abb1461057657806364ce594c1461059357806368274357146105a657600080fd5b80635210570c14610535578063528261841461053d5780635394e8e61461055057600080fd5b8063485cc95511610287578063485cc955146104e95780634a272132146104fc5780634e420fd41461050f57806351f7a8541461052257600080fd5b80633f4ba83a146104c457806341f3844d146104cc57806346b62c4a146104df57600080fd5b806320ad3f011161031a57806333ccf340116102f457806333ccf34014610483578063340f965a1461049657806337db0273146104a95780633991dfe8146104bc57600080fd5b806320ad3f0114610431578063237d9c8e14610444578063324773801461047057600080fd5b806314fced941161035657806314fced94146103db5780631617b922146103ee5780631c5129e91461040157806320aab0731461041457600080fd5b80630a58f47a1461037d5780630c340a24146103925780630ef51d0d146103c2575b600080fd5b61039061038b366004612620565b6107e3565b005b6033546103a5906001600160a01b031681565b6040516001600160a01b0390911681526020015b60405180910390f35b610169546103a59061010090046001600160a01b031681565b6103906103e936600461263d565b610816565b6103906103fc366004612676565b6108d7565b61039061040f36600461263d565b610948565b610423670de0b6b3a764000081565b6040519081526020016103b9565b6103a561043f3660046126bc565b6109f6565b61019f54610458906001600160401b031681565b6040516001600160401b0390911681526020016103b9565b61039061047e3660046126de565b610a34565b6103906104913660046126de565b610abe565b6103906104a436600461273b565b610ade565b6103906104b7366004612756565b610b4e565b609c54610423565b610390610c41565b6104236104da36600461263d565b610d2d565b61042361019c5481565b6103906104f736600461263d565b610d46565b61039061050a36600461273b565b610dca565b61039061051d3660046127a1565b610e0b565b610390610530366004612620565b610eae565b610390610f42565b61039061054b3660046126de565b610f57565b61042361055e36600461263d565b610fe0565b6103a561057136600461263d565b610ffd565b61013554610100900460ff165b60405190151581526020016103b9565b6103906105a1366004612812565b61101f565b610390611083565b6104236105bc366004612880565b61109b565b6103906110b8565b6103906105d736600461273b565b6111eb565b6103906105ea3660046128c0565b611217565b6103906105fd366004612676565b6112d6565b60665460675460685461061492919083565b604080519384526020840192909252908201526060016103b9565b61042361063d36600461263d565b611341565b610390610650366004612981565b611358565b6103906106633660046129dc565b61136f565b610423663ab9f28a23200081565b61042361019e5481565b61039061068e366004612981565b61137d565b61042361019d5481565b6103906106ab366004612620565b61138d565b610135546105839060ff1681565b6103906106cc3660046129dc565b6113b7565b6106e46106df36600461263d565b6113c5565b604080516001600160401b0390941684526020840192909252908201526060016103b9565b610390610717366004612620565b6113fd565b61039061072a3660046129dc565b61148f565b61039061073d3660046129f5565b61149d565b610135546103a5906201000090046001600160a01b031681565b61042361076a366004612a50565b611512565b610777611571565b6040516103b99190612a87565b61039061079236600461273b565b6115f8565b6103906107a5366004612880565b611639565b6103906107b83660046127a1565b6116ec565b6104236107cb36600461263d565b611782565b6104236107de36600461263d565b6117cc565b6107eb6117e2565b61013580546001600160a01b03909216620100000262010000600160b01b0319909216919091179055565b61081e6117e2565b600061082a838361189b565b603d81015490915060ff161561087f5760405162461bcd60e51b815260206004820152601560248201527414185a5c88185b1c9958591e48191a5cd8589b1959605a1b60448201526064015b60405180910390fd5b603d8101805460ff19166001179055604080516001600160a01b038581168252841660208201527f71a055a513c927530cb6f44f826ef705d11b6b00e0912135c1f73796663138ed91015b60405180910390a1505050565b6101355460408051808201909152601281527118dbdb9d1c9858dd17da5cd7dc185d5cd95960721b602082015290610100900460ff161561092b5760405162461bcd60e51b81526004016108769190612af9565b50610942610939858561189b565b838360016118fe565b50505050565b6109506117e2565b600061095c838361189b565b603d81015490915060ff166109aa5760405162461bcd60e51b815260206004820152601460248201527314185a5c88185b1c9958591e48195b98589b195960621b6044820152606401610876565b603d8101805460ff19169055604080516001600160a01b038086168252841660208201527f53affae818baf7c49a51b11722048f56b718a0eb3ea1e4e494915a852ead79b091016108ca565b609c8281548110610a0657600080fd5b90600052602060002090600202018160028110610a2257600080fd5b01546001600160a01b03169150829050565b610a3c6117e2565b6000610a48848461189b565b9050670de0b6b3a7640000821115610ab65760405162461bcd60e51b815260206004820152602b60248201527f536d6f6f7468696e6720666163746f722073686f756c6420626520696e20726560448201526a6c6174696f6e20746f203160a81b6064820152608401610876565b603f01555050565b610ac66117e2565b6000610ad2848461189b565b603e0191909155505050565b610ae66117e2565b6002816001600160401b03161015610b405760405162461bcd60e51b815260206004820181905260248201527f4578706563746564206f726465727320666f72207469636b20746f6f206c6f776044820152606401610876565b6001600160401b0316606655565b610b566117e2565b610b608383611b03565b610bac5760405162461bcd60e51b815260206004820152601760248201527f546865207061697220646f6573206e6f742065786973740000000000000000006044820152606401610876565b6001600160a01b038116610c0e5760405162461bcd60e51b8152602060048201526024808201527f50726963652070726f766964657220616464726573732063616e206e6f7420626044820152630ca4060f60e31b6064820152608401610876565b6000610c1a848461189b565b601c0180546001600160a01b0319166001600160a01b039390931692909217909155505050565b6101355460408051808201909152600b81526a3737ba2fb9ba37b83832b960a91b6020820152906201000090046001600160a01b03163314610c965760405162461bcd60e51b81526004016108769190612af9565b5061013554604080518082019091526012815271636f6e74726163745f69735f61637469766560701b602082015290610100900460ff16610cea5760405162461bcd60e51b81526004016108769190612af9565b50610135805461ff00191690556040513381527f5db9ee0a495bf2e6ff9c91a7834c1ba4fdd244a5e8aa4e537bd38aeae4b073aa906020015b60405180910390a1565b6000610d398383611b17565b6003015490505b92915050565b600054610100900460ff1680610d5b5750303b155b80610d69575060005460ff16155b610d855760405162461bcd60e51b815260040161087690612b48565b600054610100900460ff16158015610da7576000805461ffff19166101011790555b610db383836001611639565b8015610dc5576000805461ff00191690555b505050565b610dd26117e2565b6068546001600160401b0382161015610dfd5760405162461bcd60e51b815260040161087690612b96565b6001600160401b0316606755565b848487610e19838383611b3d565b61019f5485906001600160401b039081169082161115610e4b5760405162461bcd60e51b815260040161087690612bdf565b8680600003610e935760405162461bcd60e51b815260206004820152601460248201527350726963652063616e6e6f74206265207a65726f60601b6044820152606401610876565b610ea18b8b8b8b8b8b611b90565b5050505050505050505050565b610eb6611c03565b6101695460405163a82a575960e01b81526001600160a01b038084166004830152610100909204909116602482015273__$4a165dabbfd6ff3f3f3890617dd1870b68$__9063a82a57599060440160006040518083038186803b158015610f1c57600080fd5b505af4158015610f30573d6000803e3d6000fd5b50505050610f3f600161016855565b50565b610f4a6117e2565b610135805460ff19169055565b610f5f6117e2565b60008111610fc85760405162461bcd60e51b815260206004820152603060248201527f54686520676976656e20696e697469616c2070726963652073686f756c64206260448201526f0652067726561746572207468616e20360841b6064820152608401610876565b6000610fd4848461189b565b603c0191909155505050565b6000610ff6610fef8484611b17565b6018015490565b9392505050565b60008061100a8484611b17565b601c01546001600160a01b0316949350505050565b61019f5482906001600160401b0390811690821611156110515760405162461bcd60e51b815260040161087690612bdf565b8361105b81611c2f565b826110665786611068565b875b8689611075838383611b3d565b610ea18b8b8b8b8b8b611d09565b61108b6117e2565b610135805460ff19166001179055565b60006110b06110aa8585611b17565b83611d6f565b949350505050565b6101355460408051808201909152600b81526a756e73746f707061626c6560a81b60208201529060ff166110ff5760405162461bcd60e51b81526004016108769190612af9565b506101355460408051808201909152600b81526a3737ba2fb9ba37b83832b960a91b6020820152906201000090046001600160a01b031633146111555760405162461bcd60e51b81526004016108769190612af9565b506101355460408051808201909152601281527118dbdb9d1c9858dd17da5cd7dc185d5cd95960721b602082015290610100900460ff16156111aa5760405162461bcd60e51b81526004016108769190612af9565b50610135805461ff0019166101001790556040513381527f62e78cea01bee320cd4e420270b5ea74000d11b0c9f74754ebdbfc544b05a25890602001610d23565b6111f36117e2565b61019f805467ffffffffffffffff19166001600160401b0392909216919091179055565b600054610100900460ff168061122c5750303b155b8061123a575060005460ff16155b6112565760405162461bcd60e51b815260040161087690612b48565b600054610100900460ff16158015611278576000805461ffff19166101011790555b6112878c8c8c8c8c8888611d89565b61019c87905561019f805467ffffffffffffffff19166001600160401b03861617905561019d86905561019e85905580156112c8576000805461ff00191690555b505050505050505050505050565b6101355460408051808201909152601281527118dbdb9d1c9858dd17da5cd7dc185d5cd95960721b602082015290610100900460ff161561132a5760405162461bcd60e51b81526004016108769190612af9565b50610942611338858561189b565b838360006118fe565b600061134d8383611b17565b601101549392505050565b61136885858585856000196116ec565b5050505050565b6113776117e2565b61019c55565b6113688585858585600019610e0b565b6113956117e2565b603380546001600160a01b0319166001600160a01b0392909216919091179055565b6113bf6117e2565b61019d55565b6000806000806113d58686611b17565b6020810154601d820154601e909201546001600160401b039091169891975095509350505050565b600054610100900460ff16806114125750303b155b80611420575060005460ff16155b61143c5760405162461bcd60e51b815260040161087690612b48565b600054610100900460ff1615801561145e576000805461ffff19166101011790555b603380546001600160a01b0319166001600160a01b038416179055801561148b576000805461ff00191690555b5050565b6114976117e2565b61019e55565b60cf546001600160a01b03868116911614806114ca575060cf546114ca906001600160a01b031686611b03565b6115055760405162461bcd60e51b815260206004820152600c60248201526b24b73b30b634b2102830b4b960a11b6044820152606401610876565b6113688585858585611e49565b60cf546000906001600160a01b0390811690851603611532575081610ff6565b60cf5460009061154b906001600160a01b031686611b17565b60cf54909150611564906001600160a01b031684611b17565b5060001995945050505050565b6060609c805480602002602001604051908101604052809291908181526020016000905b828210156115ef5760008481526020902060408051808201918290529160028581029091019182845b81546001600160a01b031681526001909101906020018083116115be57505050505081526020019060010190611595565b50505050905090565b6116006117e2565b6067546001600160401b038216111561162b5760405162461bcd60e51b815260040161087690612b96565b6001600160401b0316606855565b600054610100900460ff168061164e5750303b155b8061165c575060005460ff16155b6116785760405162461bcd60e51b815260040161087690612b48565b600054610100900460ff1615801561169a576000805461ffff19166101011790555b610135805461ff01600160b01b03191683151562010000600160b01b03191617620100006001600160a01b038716021790556116d5836113fd565b8015610942576000805461ff001916905550505050565b8584876116fa838383611b3d565b61019f5485906001600160401b03908116908216111561172c5760405162461bcd60e51b815260040161087690612bdf565b86806000036117745760405162461bcd60e51b815260206004820152601460248201527350726963652063616e6e6f74206265207a65726f60601b6044820152606401610876565b610ea18b8b8b8b8b8b61200b565b6040516bffffffffffffffffffffffff19606084811b8216602084015283901b16603482015260009060480160405160208183030381529060405280519060200120905092915050565b6000610ff66117db8484611b17565b600a015490565b60335460405163d994d6d560e01b81523360048201526001600160a01b039091169063d994d6d590602401602060405180830381865afa15801561182a573d6000803e3d6000fd5b505050506040513d601f19601f8201168201806040525081019061184e9190612c0a565b604051806040016040528060168152602001753737ba2fb0baba3437b934bd32b22fb1b430b733b2b960511b81525090610f3f5760405162461bcd60e51b81526004016108769190612af9565b60006118a78383611b17565b90506118b281612076565b610d405760405162461bcd60e51b815260206004820152601960248201527f546f6b656e207061697220646f6573206e6f74206578697374000000000000006044820152606401610876565b60008161190e5784600e01611910565b845b60405163678dd03360e11b81526004810187905260248101869052604481018590528315156064820152909150600090819073__$4a165dabbfd6ff3f3f3890617dd1870b68$__9063cf1ba066906084016040805180830381865af415801561197d573d6000803e3d6000fd5b505050506040513d601f19601f820116820180604052508101906119a19190612c27565b61016954600d86015460405163332d3ca560e01b81526101009092046001600160a01b0390811660048401521660248201526044810183905260648101829052336084820152600060a4820181905292945090925081908190819073__$4a165dabbfd6ff3f3f3890617dd1870b68$__9063332d3ca59060c401608060405180830381865af4158015611a38573d6000803e3d6000fd5b505050506040513d601f19601f82011682018060405250810190611a5c9190612c4b565b935093509350935083611aa95760405162461bcd60e51b8152602060048201526015602482015274151bdad95b881d1c985b9cd9995c8819985a5b1959605a1b6044820152606401610876565b6040805184815260208101849052908101829052881515606082015233908b907fd975b60b6329c797ae584f3af10b37331736bff9e1e5c69342394824d8c19b819060800160405180910390a35050505050505050505050565b6000610ff6611b128484611b17565b612076565b6000609b6000611b278585611782565b8152602001908152602001600020905092915050565b6000611b4a848484611512565b905061019c548110156109425760405162461bcd60e51b815260206004820152600e60248201526d416d6f756e7420746f6f206c6f7760901b6044820152606401610876565b6101355460408051808201909152601281527118dbdb9d1c9858dd17da5cd7dc185d5cd95960721b602082015290610100900460ff1615611be45760405162461bcd60e51b81526004016108769190612af9565b50611bfb611bf2878761189b565b858585856120b2565b505050505050565b60026101685403611c2757604051633ee5aeb560e01b815260040160405180910390fd5b600261016855565b80600003611c785760405162461bcd60e51b81526020600482015260166024820152754d756c7469706c79466163746f72206973207a65726f60501b6044820152606401610876565b61019d54811015611cc05760405162461bcd60e51b81526020600482015260126024820152712637bb9026bab63a34b8363ca330b1ba37b960711b6044820152606401610876565b61019e54811115610f3f5760405162461bcd60e51b81526020600482015260136024820152722434b3b41026bab63a34b8363ca330b1ba37b960691b6044820152606401610876565b6101355460408051808201909152601281527118dbdb9d1c9858dd17da5cd7dc185d5cd95960721b602082015290610100900460ff1615611d5d5760405162461bcd60e51b81526004016108769190612af9565b50611bfb8686868660001987876121b9565b600081611d80576019830154610ff6565b5050600b015490565b600054610100900460ff1680611d9e5750303b155b80611dac575060005460ff16155b611dc85760405162461bcd60e51b815260040161087690612b48565b600054610100900460ff16158015611dea576000805461ffff19166101011790555b611df78887878787612325565b611e02600061010255565b6101698054610100600160a81b0319166101006001600160a01b038a1602179055611e2d8284610d46565b8015611e3f576000805461ff00191690555b5050505050505050565b611e516117e2565b8484611e5d8282611b03565b15611e9a5760405162461bcd60e51b815260206004820152600d60248201526c22bc34b9ba32b73a103830b4b960991b6044820152606401610876565b611ea48183611b03565b15611ee95760405162461bcd60e51b815260206004820152601560248201527422bc34b9ba32b73a1034b73b32b939b2903830b4b960591b6044820152606401610876565b806001600160a01b0316826001600160a01b031603611f4a5760405162461bcd60e51b815260206004820152601760248201527f4261736520657175616c20746f207365636f6e646172790000000000000000006044820152606401610876565b60008311611f915760405162461bcd60e51b8152602060048201526014602482015273696e697469616c5072696365206e6f207a65726f60601b6044820152606401610876565b6000611f9d8888611782565b604080518082019091526001600160a01b03808b16825289166020820152609c80546001810182556000919091529192506120009160029081027faf85b9071dfafeac1409d3f1d19bafc9bc7c37974cde8df0ee6168f0086e539c01919061259e565b505050505050505050565b6101355460408051808201909152601281527118dbdb9d1c9858dd17da5cd7dc185d5cd95960721b602082015290610100900460ff161561205f5760405162461bcd60e51b81526004016108769190612af9565b50611bfb61206d878761189b565b85858585612428565b600d8101546000906001600160a01b0316158015906120a15750601b8201546001600160a01b031615155b8015610d40575050603b0154151590565b601b850154600d8601546000916120df916001600160a01b0391821691670de0b6b3a76400009116611512565b61016954604051631e2ca63d60e21b815260048101889052602481018390529192506000916101009091046001600160a01b0316906378b298f490604401602060405180830381865afa15801561213a573d6000803e3d6000fd5b505050506040513d601f19601f8201168201806040525081019061215e9190612c8a565b9050858111156121b05760405162461bcd60e51b815260206004820152601a60248201527f416d6f756e742069732067726561746572207468616e204665650000000000006044820152606401610876565b50505050505050565b6101355460408051808201909152601281527118dbdb9d1c9858dd17da5cd7dc185d5cd95960721b602082015290610100900460ff161561220d5760405162461bcd60e51b81526004016108769190612af9565b50600061221a888861189b565b905060006122488361222c578861222e565b895b670de0b6b3a764000085612242578b611512565b8a611512565b61016954604051631e2ca63d60e21b8152600481018a9052602481018390529192506000916101009091046001600160a01b0316906378b298f490604401602060405180830381865afa1580156122a3573d6000803e3d6000fd5b505050506040513d601f19601f820116820180604052508101906122c79190612c8a565b9050878111156123195760405162461bcd60e51b815260206004820152601a60248201527f416d6f756e742069732067726561746572207468616e204665650000000000006044820152606401610876565b50505050505050505050565b600054610100900460ff168061233a5750303b155b80612348575060005460ff16155b6123645760405162461bcd60e51b815260040161087690612b48565b600054610100900460ff16158015612386576000805461ffff19166101011790555b6001600160a01b0386166123e85760405162461bcd60e51b8152602060048201526024808201527f636f6d6d6f42617365546f6b656e416464726573732063616e6e6f74206265206044820152631b9d5b1b60e21b6064820152608401610876565b60cf80546001600160a01b0319166001600160a01b03881617905561240f85858585612455565b8015611bfb576000805461ff0019169055505050505050565b600d850154601b8601546000916120df916001600160a01b0391821691670de0b6b3a76400009116611512565b600054610100900460ff168061246a5750303b155b80612478575060005460ff16155b6124945760405162461bcd60e51b815260040161087690612b48565b600054610100900460ff161580156124b6576000805461ffff19166101011790555b6002856001600160401b031610156125105760405162461bcd60e51b815260206004820181905260248201527f4578706563746564206f726465727320666f72207469636b20746f6f206c6f776044820152606401610876565b826001600160401b0316846001600160401b031610156125425760405162461bcd60e51b815260040161087690612b96565b604080516060810182526001600160401b038088168083528782166020840181905291871692909301829052606692909255606791909155606855612586826113fd565b8015611368576000805461ff00191690555050505050565b82600281019282156125e6579160200282015b828111156125e657825182546001600160a01b0319166001600160a01b039091161782556020909201916001909101906125b1565b506125f29291506125f6565b5090565b5b808211156125f257600081556001016125f7565b6001600160a01b0381168114610f3f57600080fd5b60006020828403121561263257600080fd5b8135610ff68161260b565b6000806040838503121561265057600080fd5b823561265b8161260b565b9150602083013561266b8161260b565b809150509250929050565b6000806000806080858703121561268c57600080fd5b84356126978161260b565b935060208501356126a78161260b565b93969395505050506040820135916060013590565b600080604083850312156126cf57600080fd5b50508035926020909101359150565b6000806000606084860312156126f357600080fd5b83356126fe8161260b565b9250602084013561270e8161260b565b929592945050506040919091013590565b80356001600160401b038116811461273657600080fd5b919050565b60006020828403121561274d57600080fd5b610ff68261271f565b60008060006060848603121561276b57600080fd5b83356127768161260b565b925060208401356127868161260b565b915060408401356127968161260b565b809150509250925092565b60008060008060008060c087890312156127ba57600080fd5b86356127c58161260b565b955060208701356127d58161260b565b945060408701359350606087013592506127f16080880161271f565b915060a087013590509295509295509295565b8015158114610f3f57600080fd5b60008060008060008060c0878903121561282b57600080fd5b86356128368161260b565b955060208701356128468161260b565b945060408701359350606087013592506128626080880161271f565b915060a087013561287281612804565b809150509295509295509295565b60008060006060848603121561289557600080fd5b83356128a08161260b565b925060208401356128b08161260b565b9150604084013561279681612804565b60008060008060008060008060008060006101608c8e0312156128e257600080fd5b8b356128ed8161260b565b9a5060208c01356128fd8161260b565b995061290b60408d0161271f565b985061291960608d0161271f565b975061292760808d0161271f565b965060a08c0135955060c08c0135945060e08c0135935061294b6101008d0161271f565b92506101208c013561295c8161260b565b91506101408c013561296d8161260b565b809150509295989b509295989b9093969950565b600080600080600060a0868803121561299957600080fd5b85356129a48161260b565b945060208601356129b48161260b565b935060408601359250606086013591506129d06080870161271f565b90509295509295909350565b6000602082840312156129ee57600080fd5b5035919050565b600080600080600060a08688031215612a0d57600080fd5b8535612a188161260b565b94506020860135612a288161260b565b93506040860135612a388161260b565b94979396509394606081013594506080013592915050565b600080600060608486031215612a6557600080fd5b8335612a708161260b565b92506020840135915060408401356127968161260b565b60208082528251828201819052600091906040908185019086840185805b83811015612aeb57825185835b6002811015612ad85782516001600160a01b031682529189019190890190600101612ab2565b5050509385019391860191600101612aa5565b509298975050505050505050565b60006020808352835180602085015260005b81811015612b2757858101830151858201604001528201612b0b565b506000604082860101526040601f19601f8301168501019250505092915050565b6020808252602e908201527f436f6e747261637420696e7374616e63652068617320616c726561647920626560408201526d195b881a5b9a5d1a585b1a5e995960921b606082015260800190565b60208082526029908201527f6d696e20426c6f636b466f725469636b2073686f756c64206265206c6f776572604082015268040e8d0c2dc40dac2f60bb1b606082015260800190565b602080825260119082015270098d2cccae6e0c2dc40e8dede40d0d2ced607b1b604082015260600190565b600060208284031215612c1c57600080fd5b8151610ff681612804565b60008060408385031215612c3a57600080fd5b505080516020909101519092909150565b60008060008060808587031215612c6157600080fd5b8451612c6c81612804565b60208601516040870151606090970151919890975090945092505050565b600060208284031215612c9c57600080fd5b505191905056fea26469706673582212204039900a17acebf881b0d6e747f61015dfe2bc61924ea2ad729bb0bd79131aa764736f6c63430008180033",
  "linkReferences": {
    "contracts/libs/MoCExchangeLib.sol": {
      "MoCExchangeLib": [
        {
          "length": 20,
          "start": 3853
        },
        {
          "length": 20,
          "start": 6506
        },
        {
          "length": 20,
          "start": 6692
        }
      ]
    }
  },
  "deployedLinkReferences": {
    "contracts/libs/MoCExchangeLib.sol": {
      "MoCExchangeLib": [
        {
          "length": 20,
          "start": 3815
        },
        {
          "length": 20,
          "start": 6468
        },
        {
          "length": 20,
          "start": 6654
        }
      ]
    }
  }
}