{
  "_format": "hh-sol-artifact-1",
  "contractName": "RestrictiveOrderListing",
  "sourceName": "contracts/RestrictiveOrderListing.sol",
  "abi": [
    {
      "inputs": [],
      "name": "ReentrancyGuardReentrantCall",
      "type": "error"
    },
    {
      "anonymous": false,
      "inputs": [
        {
          "indexed": true,
          "internalType": "uint256",
          "name": "id",
          "type": "uint256"
        },
        {
          "indexed": true,
          "internalType": "address",
          "name": "sender",
          "type": "address"
        },
        {
          "indexed": false,
          "internalType": "address",
          "name": "baseTokenAddress",
          "type": "address"
        },
        {
          "indexed": false,
          "internalType": "address",
          "name": "secondaryTokenAddress",
          "type": "address"
        },
        {
          "indexed": false,
          "internalType": "uint256",
          "name": "exchangeableAmount",
          "type": "uint256"
        },
        {
          "indexed": false,
          "internalType": "uint256",
          "name": "reservedCommission",
          "type": "uint256"
        },
        {
          "indexed": false,
          "internalType": "uint256",
          "name": "price",
          "type": "uint256"
        },
        {
          "indexed": false,
          "internalType": "uint256",
          "name": "multiplyFactor",
          "type": "uint256"
        },
        {
          "indexed": false,
          "internalType": "uint64",
          "name": "expiresInTick",
          "type": "uint64"
        },
        {
          "indexed": false,
          "internalType": "bool",
          "name": "isBuy",
          "type": "bool"
        },
        {
          "indexed": false,
          "internalType": "enum MoCExchangeLib.OrderType",
          "name": "orderType",
          "type": "uint8"
        }
      ],
      "name": "NewOrderInserted",
      "type": "event"
    },
    {
      "anonymous": false,
      "inputs": [
        {
          "indexed": true,
          "internalType": "uint256",
          "name": "id",
          "type": "uint256"
        },
        {
          "indexed": true,
          "internalType": "address",
          "name": "sender",
          "type": "address"
        },
        {
          "indexed": false,
          "internalType": "uint256",
          "name": "returnedAmount",
          "type": "uint256"
        },
        {
          "indexed": false,
          "internalType": "uint256",
          "name": "commission",
          "type": "uint256"
        },
        {
          "indexed": false,
          "internalType": "uint256",
          "name": "returnedCommission",
          "type": "uint256"
        },
        {
          "indexed": false,
          "internalType": "bool",
          "name": "isBuy",
          "type": "bool"
        }
      ],
      "name": "OrderCancelled",
      "type": "event"
    },
    {
      "anonymous": false,
      "inputs": [
        {
          "indexed": false,
          "internalType": "address",
          "name": "account",
          "type": "address"
        }
      ],
      "name": "Paused",
      "type": "event"
    },
    {
      "anonymous": false,
      "inputs": [
        {
          "indexed": false,
          "internalType": "address",
          "name": "baseToken",
          "type": "address"
        },
        {
          "indexed": false,
          "internalType": "address",
          "name": "secondaryToken",
          "type": "address"
        }
      ],
      "name": "TokenPairDisabled",
      "type": "event"
    },
    {
      "anonymous": false,
      "inputs": [
        {
          "indexed": false,
          "internalType": "address",
          "name": "baseToken",
          "type": "address"
        },
        {
          "indexed": false,
          "internalType": "address",
          "name": "secondaryToken",
          "type": "address"
        }
      ],
      "name": "TokenPairEnabled",
      "type": "event"
    },
    {
      "anonymous": false,
      "inputs": [
        {
          "indexed": true,
          "internalType": "address",
          "name": "_tokenAddress",
          "type": "address"
        },
        {
          "indexed": true,
          "internalType": "address",
          "name": "_to",
          "type": "address"
        },
        {
          "indexed": false,
          "internalType": "uint256",
          "name": "_amount",
          "type": "uint256"
        },
        {
          "indexed": false,
          "internalType": "bool",
          "name": "_isRevert",
          "type": "bool"
        }
      ],
      "name": "TransferFailed",
      "type": "event"
    },
    {
      "anonymous": false,
      "inputs": [
        {
          "indexed": false,
          "internalType": "address",
          "name": "account",
          "type": "address"
        }
      ],
      "name": "Unpaused",
      "type": "event"
    },
    {
      "inputs": [],
      "name": "PRECISION_SMOOTHING_FACTOR",
      "outputs": [
        {
          "internalType": "uint256",
          "name": "",
          "type": "uint256"
        }
      ],
      "stateMutability": "view",
      "type": "function"
    },
    {
      "inputs": [],
      "name": "SMOOTHING_FACTOR",
      "outputs": [
        {
          "internalType": "uint256",
          "name": "",
          "type": "uint256"
        }
      ],
      "stateMutability": "view",
      "type": "function"
    },
    {
      "inputs": [
        {
          "internalType": "address",
          "name": "_baseToken",
          "type": "address"
        },
        {
          "internalType": "address",
          "name": "_secondaryToken",
          "type": "address"
        },
        {
          "internalType": "address",
          "name": "_priceProvider",
          "type": "address"
        },
        {
          "internalType": "uint256",
          "name": "_priceComparisonPrecision",
          "type": "uint256"
        },
        {
          "internalType": "uint256",
          "name": "_initialPrice",
          "type": "uint256"
        }
      ],
      "name": "addTokenPair",
      "outputs": [],
      "stateMutability": "nonpayable",
      "type": "function"
    },
    {
      "inputs": [
        {
          "internalType": "address",
          "name": "_baseToken",
          "type": "address"
        },
        {
          "internalType": "address",
          "name": "_secondaryToken",
          "type": "address"
        }
      ],
      "name": "buyOrdersLength",
      "outputs": [
        {
          "internalType": "uint256",
          "name": "",
          "type": "uint256"
        }
      ],
      "stateMutability": "view",
      "type": "function"
    },
    {
      "inputs": [
        {
          "internalType": "address",
          "name": "_baseToken",
          "type": "address"
        },
        {
          "internalType": "address",
          "name": "_secondaryToken",
          "type": "address"
        },
        {
          "internalType": "uint256",
          "name": "_orderId",
          "type": "uint256"
        },
        {
          "internalType": "uint256",
          "name": "_previousOrderIdHint",
          "type": "uint256"
        }
      ],
      "name": "cancelBuyOrder",
      "outputs": [],
      "stateMutability": "nonpayable",
      "type": "function"
    },
    {
      "inputs": [
        {
          "internalType": "address",
          "name": "_baseToken",
          "type": "address"
        },
        {
          "internalType": "address",
          "name": "_secondaryToken",
          "type": "address"
        },
        {
          "internalType": "uint256",
          "name": "_orderId",
          "type": "uint256"
        },
        {
          "internalType": "uint256",
          "name": "_previousOrderIdHint",
          "type": "uint256"
        }
      ],
      "name": "cancelSellOrder",
      "outputs": [],
      "stateMutability": "nonpayable",
      "type": "function"
    },
    {
      "inputs": [
        {
          "internalType": "contract IGovernor",
          "name": "newIGovernor",
          "type": "address"
        }
      ],
      "name": "changeIGovernor",
      "outputs": [],
      "stateMutability": "nonpayable",
      "type": "function"
    },
    {
      "inputs": [],
      "name": "commissionManager",
      "outputs": [
        {
          "internalType": "contract CommissionManager",
          "name": "",
          "type": "address"
        }
      ],
      "stateMutability": "view",
      "type": "function"
    },
    {
      "inputs": [
        {
          "internalType": "address",
          "name": "_tokenAddress",
          "type": "address"
        },
        {
          "internalType": "uint256",
          "name": "_amount",
          "type": "uint256"
        },
        {
          "internalType": "address",
          "name": "_baseAddress",
          "type": "address"
        }
      ],
      "name": "convertTokenToCommonBase",
      "outputs": [
        {
          "internalType": "uint256",
          "name": "convertedAmount",
          "type": "uint256"
        }
      ],
      "stateMutability": "view",
      "type": "function"
    },
    {
      "inputs": [
        {
          "internalType": "address",
          "name": "_baseToken",
          "type": "address"
        },
        {
          "internalType": "address",
          "name": "_secondaryToken",
          "type": "address"
        }
      ],
      "name": "disableTokenPair",
      "outputs": [],
      "stateMutability": "nonpayable",
      "type": "function"
    },
    {
      "inputs": [
        {
          "internalType": "address",
          "name": "_baseToken",
          "type": "address"
        },
        {
          "internalType": "address",
          "name": "_secondaryToken",
          "type": "address"
        }
      ],
      "name": "enableTokenPair",
      "outputs": [],
      "stateMutability": "nonpayable",
      "type": "function"
    },
    {
      "inputs": [
        {
          "internalType": "address",
          "name": "_baseToken",
          "type": "address"
        },
        {
          "internalType": "address",
          "name": "_secondaryToken",
          "type": "address"
        }
      ],
      "name": "getNextTick",
      "outputs": [
        {
          "internalType": "uint64",
          "name": "tickNumber",
          "type": "uint64"
        },
        {
          "internalType": "uint256",
          "name": "nextTickBlock",
          "type": "uint256"
        },
        {
          "internalType": "uint256",
          "name": "lastTickBlock",
          "type": "uint256"
        }
      ],
      "stateMutability": "view",
      "type": "function"
    },
    {
      "inputs": [
        {
          "internalType": "address",
          "name": "_baseToken",
          "type": "address"
        },
        {
          "internalType": "address",
          "name": "_secondaryToken",
          "type": "address"
        }
      ],
      "name": "getPriceProvider",
      "outputs": [
        {
          "internalType": "address",
          "name": "",
          "type": "address"
        }
      ],
      "stateMutability": "view",
      "type": "function"
    },
    {
      "inputs": [],
      "name": "getTokenPairs",
      "outputs": [
        {
          "internalType": "address[2][]",
          "name": "",
          "type": "address[2][]"
        }
      ],
      "stateMutability": "view",
      "type": "function"
    },
    {
      "inputs": [],
      "name": "governor",
      "outputs": [
        {
          "internalType": "contract IGovernor",
          "name": "",
          "type": "address"
        }
      ],
      "stateMutability": "view",
      "type": "function"
    },
    {
      "inputs": [
        {
          "internalType": "address",
          "name": "_baseToken",
          "type": "address"
        },
        {
          "internalType": "address",
          "name": "_secondaryToken",
          "type": "address"
        }
      ],
      "name": "hashAddresses",
      "outputs": [
        {
          "internalType": "bytes32",
          "name": "",
          "type": "bytes32"
        }
      ],
      "stateMutability": "pure",
      "type": "function"
    },
    {
      "inputs": [
        {
          "internalType": "address",
          "name": "_stopper",
          "type": "address"
        },
        {
          "internalType": "address",
          "name": "_governor",
          "type": "address"
        }
      ],
      "name": "initialize",
      "outputs": [],
      "stateMutability": "nonpayable",
      "type": "function"
    },
    {
      "inputs": [
        {
          "internalType": "address",
          "name": "_commonBaseTokenAddress",
          "type": "address"
        },
        {
          "internalType": "contract CommissionManager",
          "name": "_commissionManager",
          "type": "address"
        },
        {
          "internalType": "uint64",
          "name": "_expectedOrdersForTick",
          "type": "uint64"
        },
        {
          "internalType": "uint64",
          "name": "_maxBlocksForTick",
          "type": "uint64"
        },
        {
          "internalType": "uint64",
          "name": "_minBlocksForTick",
          "type": "uint64"
        },
        {
          "internalType": "uint256",
          "name": "_minOrderAmount",
          "type": "uint256"
        },
        {
          "internalType": "uint256",
          "name": "_minMultiplyFactor",
          "type": "uint256"
        },
        {
          "internalType": "uint256",
          "name": "_maxMultiplyFactor",
          "type": "uint256"
        },
        {
          "internalType": "uint64",
          "name": "_maxOrderLifespan",
          "type": "uint64"
        },
        {
          "internalType": "address",
          "name": "_governor",
          "type": "address"
        },
        {
          "internalType": "address",
          "name": "_stopper",
          "type": "address"
        }
      ],
      "name": "initialize",
      "outputs": [],
      "stateMutability": "nonpayable",
      "type": "function"
    },
    {
      "inputs": [
        {
          "internalType": "address",
          "name": "_governor",
          "type": "address"
        }
      ],
      "name": "initialize",
      "outputs": [],
      "stateMutability": "nonpayable",
      "type": "function"
    },
    {
      "inputs": [
        {
          "internalType": "address",
          "name": "_stopper",
          "type": "address"
        },
        {
          "internalType": "address",
          "name": "_governor",
          "type": "address"
        },
        {
          "internalType": "bool",
          "name": "_stoppable",
          "type": "bool"
        }
      ],
      "name": "initialize",
      "outputs": [],
      "stateMutability": "nonpayable",
      "type": "function"
    },
    {
      "inputs": [
        {
          "internalType": "address",
          "name": "_baseToken",
          "type": "address"
        },
        {
          "internalType": "address",
          "name": "_secondaryToken",
          "type": "address"
        },
        {
          "internalType": "uint256",
          "name": "_amount",
          "type": "uint256"
        },
        {
          "internalType": "uint256",
          "name": "_price",
          "type": "uint256"
        },
        {
          "internalType": "uint64",
          "name": "_lifespan",
          "type": "uint64"
        }
      ],
      "name": "insertBuyLimitOrder",
      "outputs": [],
      "stateMutability": "nonpayable",
      "type": "function"
    },
    {
      "inputs": [
        {
          "internalType": "address",
          "name": "_baseToken",
          "type": "address"
        },
        {
          "internalType": "address",
          "name": "_secondaryToken",
          "type": "address"
        },
        {
          "internalType": "uint256",
          "name": "_amount",
          "type": "uint256"
        },
        {
          "internalType": "uint256",
          "name": "_price",
          "type": "uint256"
        },
        {
          "internalType": "uint64",
          "name": "_lifespan",
          "type": "uint64"
        },
        {
          "internalType": "uint256",
          "name": "_previousOrderIdHint",
          "type": "uint256"
        }
      ],
      "name": "insertBuyLimitOrderAfter",
      "outputs": [],
      "stateMutability": "nonpayable",
      "type": "function"
    },
    {
      "inputs": [
        {
          "internalType": "address",
          "name": "_baseToken",
          "type": "address"
        },
        {
          "internalType": "address",
          "name": "_secondaryToken",
          "type": "address"
        },
        {
          "internalType": "uint256",
          "name": "_amount",
          "type": "uint256"
        },
        {
          "internalType": "uint256",
          "name": "_multiplyFactor",
          "type": "uint256"
        },
        {
          "internalType": "uint64",
          "name": "_lifespan",
          "type": "uint64"
        },
        {
          "internalType": "bool",
          "name": "_isBuy",
          "type": "bool"
        }
      ],
      "name": "insertMarketOrder",
      "outputs": [],
      "stateMutability": "nonpayable",
      "type": "function"
    },
    {
      "inputs": [
        {
          "internalType": "address",
          "name": "_baseToken",
          "type": "address"
        },
        {
          "internalType": "address",
          "name": "_secondaryToken",
          "type": "address"
        },
        {
          "internalType": "uint256",
          "name": "_amount",
          "type": "uint256"
        },
        {
          "internalType": "uint256",
          "name": "_price",
          "type": "uint256"
        },
        {
          "internalType": "uint64",
          "name": "_lifespan",
          "type": "uint64"
        }
      ],
      "name": "insertSellLimitOrder",
      "outputs": [],
      "stateMutability": "nonpayable",
      "type": "function"
    },
    {
      "inputs": [
        {
          "internalType": "address",
          "name": "_baseToken",
          "type": "address"
        },
        {
          "internalType": "address",
          "name": "_secondaryToken",
          "type": "address"
        },
        {
          "internalType": "uint256",
          "name": "_amount",
          "type": "uint256"
        },
        {
          "internalType": "uint256",
          "name": "_price",
          "type": "uint256"
        },
        {
          "internalType": "uint64",
          "name": "_lifespan",
          "type": "uint64"
        },
        {
          "internalType": "uint256",
          "name": "_previousOrderIdHint",
          "type": "uint256"
        }
      ],
      "name": "insertSellLimitOrderAfter",
      "outputs": [],
      "stateMutability": "nonpayable",
      "type": "function"
    },
    {
      "inputs": [],
      "name": "makeStoppable",
      "outputs": [],
      "stateMutability": "nonpayable",
      "type": "function"
    },
    {
      "inputs": [],
      "name": "makeUnstoppable",
      "outputs": [],
      "stateMutability": "nonpayable",
      "type": "function"
    },
    {
      "inputs": [],
      "name": "maxMultiplyFactor",
      "outputs": [
        {
          "internalType": "uint256",
          "name": "",
          "type": "uint256"
        }
      ],
      "stateMutability": "view",
      "type": "function"
    },
    {
      "inputs": [],
      "name": "maxOrderLifespan",
      "outputs": [
        {
          "internalType": "uint64",
          "name": "",
          "type": "uint64"
        }
      ],
      "stateMutability": "view",
      "type": "function"
    },
    {
      "inputs": [],
      "name": "minMultiplyFactor",
      "outputs": [
        {
          "internalType": "uint256",
          "name": "",
          "type": "uint256"
        }
      ],
      "stateMutability": "view",
      "type": "function"
    },
    {
      "inputs": [],
      "name": "minOrderAmount",
      "outputs": [
        {
          "internalType": "uint256",
          "name": "",
          "type": "uint256"
        }
      ],
      "stateMutability": "view",
      "type": "function"
    },
    {
      "inputs": [],
      "name": "pause",
      "outputs": [],
      "stateMutability": "nonpayable",
      "type": "function"
    },
    {
      "inputs": [],
      "name": "paused",
      "outputs": [
        {
          "internalType": "bool",
          "name": "",
          "type": "bool"
        }
      ],
      "stateMutability": "view",
      "type": "function"
    },
    {
      "inputs": [
        {
          "internalType": "address",
          "name": "_baseToken",
          "type": "address"
        },
        {
          "internalType": "address",
          "name": "_secondaryToken",
          "type": "address"
        }
      ],
      "name": "pendingBuyOrdersLength",
      "outputs": [
        {
          "internalType": "uint256",
          "name": "",
          "type": "uint256"
        }
      ],
      "stateMutability": "view",
      "type": "function"
    },
    {
      "inputs": [
        {
          "internalType": "address",
          "name": "_baseToken",
          "type": "address"
        },
        {
          "internalType": "address",
          "name": "_secondaryToken",
          "type": "address"
        },
        {
          "internalType": "bool",
          "name": "_isBuy",
          "type": "bool"
        }
      ],
      "name": "pendingMarketOrdersLength",
      "outputs": [
        {
          "internalType": "uint256",
          "name": "",
          "type": "uint256"
        }
      ],
      "stateMutability": "view",
      "type": "function"
    },
    {
      "inputs": [
        {
          "internalType": "address",
          "name": "_baseToken",
          "type": "address"
        },
        {
          "internalType": "address",
          "name": "_secondaryToken",
          "type": "address"
        }
      ],
      "name": "pendingSellOrdersLength",
      "outputs": [
        {
          "internalType": "uint256",
          "name": "",
          "type": "uint256"
        }
      ],
      "stateMutability": "view",
      "type": "function"
    },
    {
      "inputs": [
        {
          "internalType": "address",
          "name": "_baseToken",
          "type": "address"
        },
        {
          "internalType": "address",
          "name": "_secondaryToken",
          "type": "address"
        }
      ],
      "name": "sellOrdersLength",
      "outputs": [
        {
          "internalType": "uint256",
          "name": "",
          "type": "uint256"
        }
      ],
      "stateMutability": "view",
      "type": "function"
    },
    {
      "inputs": [
        {
          "internalType": "uint64",
          "name": "_expectedOrdersForTick",
          "type": "uint64"
        }
      ],
      "name": "setExpectedOrdersForTick",
      "outputs": [],
      "stateMutability": "nonpayable",
      "type": "function"
    },
    {
      "inputs": [
        {
          "internalType": "address",
          "name": "_baseToken",
          "type": "address"
        },
        {
          "internalType": "address",
          "name": "_secondaryToken",
          "type": "address"
        },
        {
          "internalType": "uint256",
          "name": "_price",
          "type": "uint256"
        }
      ],
      "name": "setLastClosingPrice",
      "outputs": [],
      "stateMutability": "nonpayable",
      "type": "function"
    },
    {
      "inputs": [
        {
          "internalType": "uint64",
          "name": "_maxBlocksForTick",
          "type": "uint64"
        }
      ],
      "name": "setMaxBlocksForTick",
      "outputs": [],
      "stateMutability": "nonpayable",
      "type": "function"
    },
    {
      "inputs": [
        {
          "internalType": "uint256",
          "name": "_maxMultiplyFactor",
          "type": "uint256"
        }
      ],
      "name": "setMaxMultiplyFactor",
      "outputs": [],
      "stateMutability": "nonpayable",
      "type": "function"
    },
    {
      "inputs": [
        {
          "internalType": "uint64",
          "name": "_maxOrderLifespan",
          "type": "uint64"
        }
      ],
      "name": "setMaxOrderLifespan",
      "outputs": [],
      "stateMutability": "nonpayable",
      "type": "function"
    },
    {
      "inputs": [
        {
          "internalType": "uint64",
          "name": "_minBlocksForTick",
          "type": "uint64"
        }
      ],
      "name": "setMinBlocksForTick",
      "outputs": [],
      "stateMutability": "nonpayable",
      "type": "function"
    },
    {
      "inputs": [
        {
          "internalType": "uint256",
          "name": "_minMultiplyFactor",
          "type": "uint256"
        }
      ],
      "name": "setMinMultiplyFactor",
      "outputs": [],
      "stateMutability": "nonpayable",
      "type": "function"
    },
    {
      "inputs": [
        {
          "internalType": "uint256",
          "name": "_minOrderAmount",
          "type": "uint256"
        }
      ],
      "name": "setMinOrderAmount",
      "outputs": [],
      "stateMutability": "nonpayable",
      "type": "function"
    },
    {
      "inputs": [
        {
          "internalType": "address",
          "name": "_baseToken",
          "type": "address"
        },
        {
          "internalType": "address",
          "name": "_secondaryToken",
          "type": "address"
        },
        {
          "internalType": "address",
          "name": "_priceProvider",
          "type": "address"
        }
      ],
      "name": "setPriceProvider",
      "outputs": [],
      "stateMutability": "nonpayable",
      "type": "function"
    },
    {
      "inputs": [
        {
          "internalType": "address",
          "name": "newStopper",
          "type": "address"
        }
      ],
      "name": "setStopper",
      "outputs": [],
      "stateMutability": "nonpayable",
      "type": "function"
    },
    {
      "inputs": [
        {
          "internalType": "address",
          "name": "_baseToken",
          "type": "address"
        },
        {
          "internalType": "address",
          "name": "_secondaryToken",
          "type": "address"
        },
        {
          "internalType": "uint256",
          "name": "_emaPrice",
          "type": "uint256"
        }
      ],
      "name": "setTokenPairEmaPrice",
      "outputs": [],
      "stateMutability": "nonpayable",
      "type": "function"
    },
    {
      "inputs": [
        {
          "internalType": "address",
          "name": "_baseToken",
          "type": "address"
        },
        {
          "internalType": "address",
          "name": "_secondaryToken",
          "type": "address"
        },
        {
          "internalType": "uint256",
          "name": "_smoothingFactor",
          "type": "uint256"
        }
      ],
      "name": "setTokenPairSmoothingFactor",
      "outputs": [],
      "stateMutability": "nonpayable",
      "type": "function"
    },
    {
      "inputs": [],
      "name": "stoppable",
      "outputs": [
        {
          "internalType": "bool",
          "name": "",
          "type": "bool"
        }
      ],
      "stateMutability": "view",
      "type": "function"
    },
    {
      "inputs": [],
      "name": "stopper",
      "outputs": [
        {
          "internalType": "address",
          "name": "",
          "type": "address"
        }
      ],
      "stateMutability": "view",
      "type": "function"
    },
    {
      "inputs": [],
      "name": "tickConfig",
      "outputs": [
        {
          "internalType": "uint256",
          "name": "expectedOrdersForTick",
          "type": "uint256"
        },
        {
          "internalType": "uint256",
          "name": "maxBlocksForTick",
          "type": "uint256"
        },
        {
          "internalType": "uint256",
          "name": "minBlocksForTick",
          "type": "uint256"
        }
      ],
      "stateMutability": "view",
      "type": "function"
    },
    {
      "inputs": [
        {
          "internalType": "uint256",
          "name": "",
          "type": "uint256"
        },
        {
          "internalType": "uint256",
          "name": "",
          "type": "uint256"
        }
      ],
      "name": "tokenPairAddresses",
      "outputs": [
        {
          "internalType": "address",
          "name": "",
          "type": "address"
        }
      ],
      "stateMutability": "view",
      "type": "function"
    },
    {
      "inputs": [],
      "name": "tokenPairCount",
      "outputs": [
        {
          "internalType": "uint256",
          "name": "",
          "type": "uint256"
        }
      ],
      "stateMutability": "view",
      "type": "function"
    },
    {
      "inputs": [],
      "name": "unpause",
      "outputs": [],
      "stateMutability": "nonpayable",
      "type": "function"
    },
    {
      "inputs": [
        {
          "internalType": "address",
          "name": "token",
          "type": "address"
        }
      ],
      "name": "withdrawCommissions",
      "outputs": [],
      "stateMutability": "nonpayable",
      "type": "function"
    }
  ],
  "bytecode": "0x608060405234801561001057600080fd5b50600161016855612cbc806100266000396000f3fe608060405234801561001057600080fd5b50600436106103785760003560e01c806380446d87116101d3578063bb4872de11610104578063df318d1b116100a2578063e4bbb5a81161007c578063e4bbb5a814610792578063ec62d9ef146107a5578063f2b24da3146107b8578063fc3a4962146107cb57600080fd5b8063df318d1b14610757578063e24e4fdb1461076a578063e3204b221461077f57600080fd5b8063c4d66de8116100de578063c4d66de814610704578063c4e82c1a14610717578063c520bc921461072a578063d1a767141461073d57600080fd5b8063bb4872de146106ab578063bbc92f50146106b9578063c227b51c146106cc57600080fd5b8063a268e21211610171578063afac413f1161014b578063afac413f14610671578063b232634c1461067b578063b5febde01461068e578063b6e083301461069857600080fd5b8063a268e2121461063d578063a3b8ef0414610650578063ae0678541461066357600080fd5b80638dfc0439116101ad5780638dfc0439146105d757806391988cb8146105ea5780639c27ee4c146105fd5780639df64e1e1461062a57600080fd5b806380446d87146105a95780638456cb59146105bc57806389f1b1e3146105c457600080fd5b80633f4ba83a116102ad5780635210570c1161024b5780635a3970b1116102255780635a3970b11461055e5780635c975abb1461057157806364ce594c1461058e57806368274357146105a157600080fd5b80635210570c1461053057806352826184146105385780635394e8e61461054b57600080fd5b8063485cc95511610287578063485cc955146104e45780634a272132146104f75780634e420fd41461050a57806351f7a8541461051d57600080fd5b80633f4ba83a146104bf57806341f3844d146104c757806346b62c4a146104da57600080fd5b806320ad3f011161031a57806333ccf340116102f457806333ccf3401461047e578063340f965a1461049157806337db0273146104a45780633991dfe8146104b757600080fd5b806320ad3f011461042c578063237d9c8e1461043f578063324773801461046b57600080fd5b806314fced941161035657806314fced94146103d65780631617b922146103e95780631c5129e9146103fc57806320aab0731461040f57600080fd5b80630a58f47a1461037d5780630c340a24146103925780630ef51d0d146103c2575b600080fd5b61039061038b366004612603565b6107de565b005b6033546103a5906001600160a01b031681565b6040516001600160a01b0390911681526020015b60405180910390f35b610169546103a5906001600160a01b031681565b6103906103e4366004612620565b610811565b6103906103f7366004612659565b6108d2565b61039061040a366004612620565b610943565b61041e670de0b6b3a764000081565b6040519081526020016103b9565b6103a561043a36600461269f565b6109f1565b61019f54610453906001600160401b031681565b6040516001600160401b0390911681526020016103b9565b6103906104793660046126c1565b610a2f565b61039061048c3660046126c1565b610ab9565b61039061049f36600461271e565b610ad9565b6103906104b2366004612739565b610b49565b609c5461041e565b610390610c3c565b61041e6104d5366004612620565b610d28565b61041e61019c5481565b6103906104f2366004612620565b610d41565b61039061050536600461271e565b610dc5565b610390610518366004612784565b610e06565b61039061052b366004612603565b610ea9565b610390610f37565b6103906105463660046126c1565b610f4c565b61041e610559366004612620565b610fd5565b6103a561056c366004612620565b610ff2565b61013554610100900460ff165b60405190151581526020016103b9565b61039061059c3660046127f5565b611014565b610390611078565b61041e6105b7366004612863565b611090565b6103906110ad565b6103906105d236600461271e565b6111e0565b6103906105e53660046128a3565b61120c565b6103906105f8366004612659565b6112cb565b60665460675460685461060f92919083565b604080519384526020840192909252908201526060016103b9565b61041e610638366004612620565b611336565b61039061064b366004612964565b61134d565b61039061065e3660046129bf565b611364565b61041e663ab9f28a23200081565b61041e61019e5481565b610390610689366004612964565b611372565b61041e61019d5481565b6103906106a6366004612603565b611382565b6101355461057e9060ff1681565b6103906106c73660046129bf565b6113ac565b6106df6106da366004612620565b6113ba565b604080516001600160401b0390941684526020840192909252908201526060016103b9565b610390610712366004612603565b6113f2565b6103906107253660046129bf565b611484565b6103906107383660046129d8565b611492565b610135546103a5906201000090046001600160a01b031681565b61041e610765366004612a33565b611507565b610772611566565b6040516103b99190612a6a565b61039061078d36600461271e565b6115ed565b6103906107a0366004612863565b61162e565b6103906107b3366004612784565b6116e1565b61041e6107c6366004612620565b611777565b61041e6107d9366004612620565b6117c1565b6107e66117d7565b61013580546001600160a01b03909216620100000262010000600160b01b0319909216919091179055565b6108196117d7565b60006108258383611890565b603d81015490915060ff161561087a5760405162461bcd60e51b815260206004820152601560248201527414185a5c88185b1c9958591e48191a5cd8589b1959605a1b60448201526064015b60405180910390fd5b603d8101805460ff19166001179055604080516001600160a01b038581168252841660208201527f71a055a513c927530cb6f44f826ef705d11b6b00e0912135c1f73796663138ed91015b60405180910390a1505050565b6101355460408051808201909152601281527118dbdb9d1c9858dd17da5cd7dc185d5cd95960721b602082015290610100900460ff16156109265760405162461bcd60e51b81526004016108719190612adc565b5061093d6109348585611890565b838360016118f3565b50505050565b61094b6117d7565b60006109578383611890565b603d81015490915060ff166109a55760405162461bcd60e51b815260206004820152601460248201527314185a5c88185b1c9958591e48195b98589b195960621b6044820152606401610871565b603d8101805460ff19169055604080516001600160a01b038086168252841660208201527f53affae818baf7c49a51b11722048f56b718a0eb3ea1e4e494915a852ead79b091016108c5565b609c8281548110610a0157600080fd5b90600052602060002090600202018160028110610a1d57600080fd5b01546001600160a01b03169150829050565b610a376117d7565b6000610a438484611890565b9050670de0b6b3a7640000821115610ab15760405162461bcd60e51b815260206004820152602b60248201527f536d6f6f7468696e6720666163746f722073686f756c6420626520696e20726560448201526a6c6174696f6e20746f203160a81b6064820152608401610871565b603f01555050565b610ac16117d7565b6000610acd8484611890565b603e0191909155505050565b610ae16117d7565b6002816001600160401b03161015610b3b5760405162461bcd60e51b815260206004820181905260248201527f4578706563746564206f726465727320666f72207469636b20746f6f206c6f776044820152606401610871565b6001600160401b0316606655565b610b516117d7565b610b5b8383611af3565b610ba75760405162461bcd60e51b815260206004820152601760248201527f546865207061697220646f6573206e6f742065786973740000000000000000006044820152606401610871565b6001600160a01b038116610c095760405162461bcd60e51b8152602060048201526024808201527f50726963652070726f766964657220616464726573732063616e206e6f7420626044820152630ca4060f60e31b6064820152608401610871565b6000610c158484611890565b601c0180546001600160a01b0319166001600160a01b039390931692909217909155505050565b6101355460408051808201909152600b81526a3737ba2fb9ba37b83832b960a91b6020820152906201000090046001600160a01b03163314610c915760405162461bcd60e51b81526004016108719190612adc565b5061013554604080518082019091526012815271636f6e74726163745f69735f61637469766560701b602082015290610100900460ff16610ce55760405162461bcd60e51b81526004016108719190612adc565b50610135805461ff00191690556040513381527f5db9ee0a495bf2e6ff9c91a7834c1ba4fdd244a5e8aa4e537bd38aeae4b073aa906020015b60405180910390a1565b6000610d348383611b07565b6003015490505b92915050565b600054610100900460ff1680610d565750303b155b80610d64575060005460ff16155b610d805760405162461bcd60e51b815260040161087190612b2b565b600054610100900460ff16158015610da2576000805461ffff19166101011790555b610dae8383600161162e565b8015610dc0576000805461ff00191690555b505050565b610dcd6117d7565b6068546001600160401b0382161015610df85760405162461bcd60e51b815260040161087190612b79565b6001600160401b0316606755565b848487610e14838383611b2d565b61019f5485906001600160401b039081169082161115610e465760405162461bcd60e51b815260040161087190612bc2565b8680600003610e8e5760405162461bcd60e51b815260206004820152601460248201527350726963652063616e6e6f74206265207a65726f60601b6044820152606401610871565b610e9c8b8b8b8b8b8b611b80565b5050505050505050505050565b610eb1611bf3565b6101695460405163a82a575960e01b81526001600160a01b038084166004830152909116602482015273__$4a165dabbfd6ff3f3f3890617dd1870b68$__9063a82a57599060440160006040518083038186803b158015610f1157600080fd5b505af4158015610f25573d6000803e3d6000fd5b50505050610f34600161016855565b50565b610f3f6117d7565b610135805460ff19169055565b610f546117d7565b60008111610fbd5760405162461bcd60e51b815260206004820152603060248201527f54686520676976656e20696e697469616c2070726963652073686f756c64206260448201526f0652067726561746572207468616e20360841b6064820152608401610871565b6000610fc98484611890565b603c0191909155505050565b6000610feb610fe48484611b07565b6018015490565b9392505050565b600080610fff8484611b07565b601c01546001600160a01b0316949350505050565b61019f5482906001600160401b0390811690821611156110465760405162461bcd60e51b815260040161087190612bc2565b8361105081611c1f565b8261105b578661105d565b875b868961106a838383611b2d565b610e9c8b8b8b8b8b8b611cf9565b6110806117d7565b610135805460ff19166001179055565b60006110a561109f8585611b07565b83611d5f565b949350505050565b6101355460408051808201909152600b81526a756e73746f707061626c6560a81b60208201529060ff166110f45760405162461bcd60e51b81526004016108719190612adc565b506101355460408051808201909152600b81526a3737ba2fb9ba37b83832b960a91b6020820152906201000090046001600160a01b0316331461114a5760405162461bcd60e51b81526004016108719190612adc565b506101355460408051808201909152601281527118dbdb9d1c9858dd17da5cd7dc185d5cd95960721b602082015290610100900460ff161561119f5760405162461bcd60e51b81526004016108719190612adc565b50610135805461ff0019166101001790556040513381527f62e78cea01bee320cd4e420270b5ea74000d11b0c9f74754ebdbfc544b05a25890602001610d1e565b6111e86117d7565b61019f805467ffffffffffffffff19166001600160401b0392909216919091179055565b600054610100900460ff16806112215750303b155b8061122f575060005460ff16155b61124b5760405162461bcd60e51b815260040161087190612b2b565b600054610100900460ff1615801561126d576000805461ffff19166101011790555b61127c8c8c8c8c8c8888611d79565b61019c87905561019f805467ffffffffffffffff19166001600160401b03861617905561019d86905561019e85905580156112bd576000805461ff00191690555b505050505050505050505050565b6101355460408051808201909152601281527118dbdb9d1c9858dd17da5cd7dc185d5cd95960721b602082015290610100900460ff161561131f5760405162461bcd60e51b81526004016108719190612adc565b5061093d61132d8585611890565b838360006118f3565b60006113428383611b07565b601101549392505050565b61135d85858585856000196116e1565b5050505050565b61136c6117d7565b61019c55565b61135d8585858585600019610e06565b61138a6117d7565b603380546001600160a01b0319166001600160a01b0392909216919091179055565b6113b46117d7565b61019d55565b6000806000806113ca8686611b07565b6020810154601d820154601e909201546001600160401b039091169891975095509350505050565b600054610100900460ff16806114075750303b155b80611415575060005460ff16155b6114315760405162461bcd60e51b815260040161087190612b2b565b600054610100900460ff16158015611453576000805461ffff19166101011790555b603380546001600160a01b0319166001600160a01b0384161790558015611480576000805461ff00191690555b5050565b61148c6117d7565b61019e55565b60cf546001600160a01b03868116911614806114bf575060cf546114bf906001600160a01b031686611af3565b6114fa5760405162461bcd60e51b815260206004820152600c60248201526b24b73b30b634b2102830b4b960a11b6044820152606401610871565b61135d8585858585611e34565b60cf546000906001600160a01b0390811690851603611527575081610feb565b60cf54600090611540906001600160a01b031686611b07565b60cf54909150611559906001600160a01b031684611b07565b5060001995945050505050565b6060609c805480602002602001604051908101604052809291908181526020016000905b828210156115e45760008481526020902060408051808201918290529160028581029091019182845b81546001600160a01b031681526001909101906020018083116115b35750505050508152602001906001019061158a565b50505050905090565b6115f56117d7565b6067546001600160401b03821611156116205760405162461bcd60e51b815260040161087190612b79565b6001600160401b0316606855565b600054610100900460ff16806116435750303b155b80611651575060005460ff16155b61166d5760405162461bcd60e51b815260040161087190612b2b565b600054610100900460ff1615801561168f576000805461ffff19166101011790555b610135805461ff01600160b01b03191683151562010000600160b01b03191617620100006001600160a01b038716021790556116ca836113f2565b801561093d576000805461ff001916905550505050565b8584876116ef838383611b2d565b61019f5485906001600160401b0390811690821611156117215760405162461bcd60e51b815260040161087190612bc2565b86806000036117695760405162461bcd60e51b815260206004820152601460248201527350726963652063616e6e6f74206265207a65726f60601b6044820152606401610871565b610e9c8b8b8b8b8b8b611ff6565b6040516bffffffffffffffffffffffff19606084811b8216602084015283901b16603482015260009060480160405160208183030381529060405280519060200120905092915050565b6000610feb6117d08484611b07565b600a015490565b60335460405163d994d6d560e01b81523360048201526001600160a01b039091169063d994d6d590602401602060405180830381865afa15801561181f573d6000803e3d6000fd5b505050506040513d601f19601f820116820180604052508101906118439190612bed565b604051806040016040528060168152602001753737ba2fb0baba3437b934bd32b22fb1b430b733b2b960511b81525090610f345760405162461bcd60e51b81526004016108719190612adc565b600061189c8383611b07565b90506118a781612061565b610d3b5760405162461bcd60e51b815260206004820152601960248201527f546f6b656e207061697220646f6573206e6f74206578697374000000000000006044820152606401610871565b6000816119035784600e01611905565b845b60405163678dd03360e11b81526004810187905260248101869052604481018590528315156064820152909150600090819073__$4a165dabbfd6ff3f3f3890617dd1870b68$__9063cf1ba066906084016040805180830381865af4158015611972573d6000803e3d6000fd5b505050506040513d601f19601f820116820180604052508101906119969190612c0a565b61016954600d86015460405163332d3ca560e01b81526001600160a01b039283166004820152911660248201526044810183905260648101829052336084820152600060a4820181905292945090925081908190819073__$4a165dabbfd6ff3f3f3890617dd1870b68$__9063332d3ca59060c401608060405180830381865af4158015611a28573d6000803e3d6000fd5b505050506040513d601f19601f82011682018060405250810190611a4c9190612c2e565b935093509350935083611a995760405162461bcd60e51b8152602060048201526015602482015274151bdad95b881d1c985b9cd9995c8819985a5b1959605a1b6044820152606401610871565b6040805184815260208101849052908101829052881515606082015233908b907fd975b60b6329c797ae584f3af10b37331736bff9e1e5c69342394824d8c19b819060800160405180910390a35050505050505050505050565b6000610feb611b028484611b07565b612061565b6000609b6000611b178585611777565b8152602001908152602001600020905092915050565b6000611b3a848484611507565b905061019c5481101561093d5760405162461bcd60e51b815260206004820152600e60248201526d416d6f756e7420746f6f206c6f7760901b6044820152606401610871565b6101355460408051808201909152601281527118dbdb9d1c9858dd17da5cd7dc185d5cd95960721b602082015290610100900460ff1615611bd45760405162461bcd60e51b81526004016108719190612adc565b50611beb611be28787611890565b8585858561209d565b505050505050565b60026101685403611c1757604051633ee5aeb560e01b815260040160405180910390fd5b600261016855565b80600003611c685760405162461bcd60e51b81526020600482015260166024820152754d756c7469706c79466163746f72206973207a65726f60501b6044820152606401610871565b61019d54811015611cb05760405162461bcd60e51b81526020600482015260126024820152712637bb9026bab63a34b8363ca330b1ba37b960711b6044820152606401610871565b61019e54811115610f345760405162461bcd60e51b81526020600482015260136024820152722434b3b41026bab63a34b8363ca330b1ba37b960691b6044820152606401610871565b6101355460408051808201909152601281527118dbdb9d1c9858dd17da5cd7dc185d5cd95960721b602082015290610100900460ff1615611d4d5760405162461bcd60e51b81526004016108719190612adc565b50611beb8686868660001987876121a0565b600081611d70576019830154610feb565b5050600b015490565b600054610100900460ff1680611d8e5750303b155b80611d9c575060005460ff16155b611db85760405162461bcd60e51b815260040161087190612b2b565b600054610100900460ff16158015611dda576000805461ffff19166101011790555b611de78887878787612308565b611df2600061010255565b61016980546001600160a01b0319166001600160a01b038916179055611e188284610d41565b8015611e2a576000805461ff00191690555b5050505050505050565b611e3c6117d7565b8484611e488282611af3565b15611e855760405162461bcd60e51b815260206004820152600d60248201526c22bc34b9ba32b73a103830b4b960991b6044820152606401610871565b611e8f8183611af3565b15611ed45760405162461bcd60e51b815260206004820152601560248201527422bc34b9ba32b73a1034b73b32b939b2903830b4b960591b6044820152606401610871565b806001600160a01b0316826001600160a01b031603611f355760405162461bcd60e51b815260206004820152601760248201527f4261736520657175616c20746f207365636f6e646172790000000000000000006044820152606401610871565b60008311611f7c5760405162461bcd60e51b8152602060048201526014602482015273696e697469616c5072696365206e6f207a65726f60601b6044820152606401610871565b6000611f888888611777565b604080518082019091526001600160a01b03808b16825289166020820152609c8054600181018255600091909152919250611feb9160029081027faf85b9071dfafeac1409d3f1d19bafc9bc7c37974cde8df0ee6168f0086e539c019190612581565b505050505050505050565b6101355460408051808201909152601281527118dbdb9d1c9858dd17da5cd7dc185d5cd95960721b602082015290610100900460ff161561204a5760405162461bcd60e51b81526004016108719190612adc565b50611beb6120588787611890565b8585858561240b565b600d8101546000906001600160a01b03161580159061208c5750601b8201546001600160a01b031615155b8015610d3b575050603b0154151590565b601b850154600d8601546000916120ca916001600160a01b0391821691670de0b6b3a76400009116611507565b61016954604051631e2ca63d60e21b815260048101889052602481018390529192506000916001600160a01b03909116906378b298f490604401602060405180830381865afa158015612121573d6000803e3d6000fd5b505050506040513d601f19601f820116820180604052508101906121459190612c6d565b9050858111156121975760405162461bcd60e51b815260206004820152601a60248201527f416d6f756e742069732067726561746572207468616e204665650000000000006044820152606401610871565b50505050505050565b6101355460408051808201909152601281527118dbdb9d1c9858dd17da5cd7dc185d5cd95960721b602082015290610100900460ff16156121f45760405162461bcd60e51b81526004016108719190612adc565b5060006122018888611890565b9050600061222f836122135788612215565b895b670de0b6b3a764000085612229578b611507565b8a611507565b61016954604051631e2ca63d60e21b8152600481018a9052602481018390529192506000916001600160a01b03909116906378b298f490604401602060405180830381865afa158015612286573d6000803e3d6000fd5b505050506040513d601f19601f820116820180604052508101906122aa9190612c6d565b9050878111156122fc5760405162461bcd60e51b815260206004820152601a60248201527f416d6f756e742069732067726561746572207468616e204665650000000000006044820152606401610871565b50505050505050505050565b600054610100900460ff168061231d5750303b155b8061232b575060005460ff16155b6123475760405162461bcd60e51b815260040161087190612b2b565b600054610100900460ff16158015612369576000805461ffff19166101011790555b6001600160a01b0386166123cb5760405162461bcd60e51b8152602060048201526024808201527f636f6d6d6f42617365546f6b656e416464726573732063616e6e6f74206265206044820152631b9d5b1b60e21b6064820152608401610871565b60cf80546001600160a01b0319166001600160a01b0388161790556123f285858585612438565b8015611beb576000805461ff0019169055505050505050565b600d850154601b8601546000916120ca916001600160a01b0391821691670de0b6b3a76400009116611507565b600054610100900460ff168061244d5750303b155b8061245b575060005460ff16155b6124775760405162461bcd60e51b815260040161087190612b2b565b600054610100900460ff16158015612499576000805461ffff19166101011790555b6002856001600160401b031610156124f35760405162461bcd60e51b815260206004820181905260248201527f4578706563746564206f726465727320666f72207469636b20746f6f206c6f776044820152606401610871565b826001600160401b0316846001600160401b031610156125255760405162461bcd60e51b815260040161087190612b79565b604080516060810182526001600160401b038088168083528782166020840181905291871692909301829052606692909255606791909155606855612569826113f2565b801561135d576000805461ff00191690555050505050565b82600281019282156125c9579160200282015b828111156125c957825182546001600160a01b0319166001600160a01b03909116178255602090920191600190910190612594565b506125d59291506125d9565b5090565b5b808211156125d557600081556001016125da565b6001600160a01b0381168114610f3457600080fd5b60006020828403121561261557600080fd5b8135610feb816125ee565b6000806040838503121561263357600080fd5b823561263e816125ee565b9150602083013561264e816125ee565b809150509250929050565b6000806000806080858703121561266f57600080fd5b843561267a816125ee565b9350602085013561268a816125ee565b93969395505050506040820135916060013590565b600080604083850312156126b257600080fd5b50508035926020909101359150565b6000806000606084860312156126d657600080fd5b83356126e1816125ee565b925060208401356126f1816125ee565b929592945050506040919091013590565b80356001600160401b038116811461271957600080fd5b919050565b60006020828403121561273057600080fd5b610feb82612702565b60008060006060848603121561274e57600080fd5b8335612759816125ee565b92506020840135612769816125ee565b91506040840135612779816125ee565b809150509250925092565b60008060008060008060c0878903121561279d57600080fd5b86356127a8816125ee565b955060208701356127b8816125ee565b945060408701359350606087013592506127d460808801612702565b915060a087013590509295509295509295565b8015158114610f3457600080fd5b60008060008060008060c0878903121561280e57600080fd5b8635612819816125ee565b95506020870135612829816125ee565b9450604087013593506060870135925061284560808801612702565b915060a0870135612855816127e7565b809150509295509295509295565b60008060006060848603121561287857600080fd5b8335612883816125ee565b92506020840135612893816125ee565b91506040840135612779816127e7565b60008060008060008060008060008060006101608c8e0312156128c557600080fd5b8b356128d0816125ee565b9a5060208c01356128e0816125ee565b99506128ee60408d01612702565b98506128fc60608d01612702565b975061290a60808d01612702565b965060a08c0135955060c08c0135945060e08c0135935061292e6101008d01612702565b92506101208c013561293f816125ee565b91506101408c0135612950816125ee565b809150509295989b509295989b9093969950565b600080600080600060a0868803121561297c57600080fd5b8535612987816125ee565b94506020860135612997816125ee565b935060408601359250606086013591506129b360808701612702565b90509295509295909350565b6000602082840312156129d157600080fd5b5035919050565b600080600080600060a086880312156129f057600080fd5b85356129fb816125ee565b94506020860135612a0b816125ee565b93506040860135612a1b816125ee565b94979396509394606081013594506080013592915050565b600080600060608486031215612a4857600080fd5b8335612a53816125ee565b9250602084013591506040840135612779816125ee565b60208082528251828201819052600091906040908185019086840185805b83811015612ace57825185835b6002811015612abb5782516001600160a01b031682529189019190890190600101612a95565b5050509385019391860191600101612a88565b509298975050505050505050565b60006020808352835180602085015260005b81811015612b0a57858101830151858201604001528201612aee565b506000604082860101526040601f19601f8301168501019250505092915050565b6020808252602e908201527f436f6e747261637420696e7374616e63652068617320616c726561647920626560408201526d195b881a5b9a5d1a585b1a5e995960921b606082015260800190565b60208082526029908201527f6d696e20426c6f636b466f725469636b2073686f756c64206265206c6f776572604082015268040e8d0c2dc40dac2f60bb1b606082015260800190565b602080825260119082015270098d2cccae6e0c2dc40e8dede40d0d2ced607b1b604082015260600190565b600060208284031215612bff57600080fd5b8151610feb816127e7565b60008060408385031215612c1d57600080fd5b505080516020909101519092909150565b60008060008060808587031215612c4457600080fd5b8451612c4f816127e7565b60208601516040870151606090970151919890975090945092505050565b600060208284031215612c7f57600080fd5b505191905056fea26469706673582212203b6e8682f6fd060cce8b3b05a2792b96bc618ff69177d0d5b8a72bc19dbdc0f864736f6c63430008180033",
  "linkReferences": {
    "contracts/libs/MoCExchangeLib.sol": {
      "MoCExchangeLib": [
        {
          "length": 20,
          "start": 3842
        },
        {
          "length": 20,
          "start": 6495
        },
        {
          "length": 20,
          "start": 6676
        }
      ]
    }
  },
  "deployedLinkReferences": {
    "contracts/libs/MoCExchangeLib.sol": {
      "MoCExchangeLib": [
        {
          "length": 20,
          "start": 3804
        },
        {
          "length": 20,
          "start": 6457
        },
        {
          "length": 20,
          "start": 6638
        }
      ]
    }
  }
}