{
  "_format": "hh-sol-artifact-1",
  "contractName": "TexMocBtcPriceProviderFallback",
  "sourceName": "contracts/price-providers/TexMocBtcPriceProviderFallback.sol",
  "abi": [
    {
      "inputs": [
        {
          "internalType": "contract IMocState",
          "name": "_mocState",
          "type": "address"
        },
        {
          "internalType": "contract IMoCDecentralizedExchange",
          "name": "_dex",
          "type": "address"
        },
        {
          "internalType": "address",
          "name": "_baseToken",
          "type": "address"
        },
        {
          "internalType": "address",
          "name": "_secondaryToken",
          "type": "address"
        },
        {
          "internalType": "address",
          "name": "_baseTokenDocMoc",
          "type": "address"
        },
        {
          "internalType": "address",
          "name": "_secondaryTokenDocMoc",
          "type": "address"
        }
      ],
      "stateMutability": "nonpayable",
      "type": "constructor"
    },
    {
      "inputs": [],
      "name": "RATE_PRECISION",
      "outputs": [
        {
          "internalType": "uint256",
          "name": "",
          "type": "uint256"
        }
      ],
      "stateMutability": "view",
      "type": "function"
    },
    {
      "inputs": [],
      "name": "baseToken",
      "outputs": [
        {
          "internalType": "address",
          "name": "",
          "type": "address"
        }
      ],
      "stateMutability": "view",
      "type": "function"
    },
    {
      "inputs": [],
      "name": "baseTokenDocMoc",
      "outputs": [
        {
          "internalType": "address",
          "name": "",
          "type": "address"
        }
      ],
      "stateMutability": "view",
      "type": "function"
    },
    {
      "inputs": [],
      "name": "dex",
      "outputs": [
        {
          "internalType": "contract IMoCDecentralizedExchange",
          "name": "",
          "type": "address"
        }
      ],
      "stateMutability": "view",
      "type": "function"
    },
    {
      "inputs": [],
      "name": "mocState",
      "outputs": [
        {
          "internalType": "contract IMocState",
          "name": "",
          "type": "address"
        }
      ],
      "stateMutability": "view",
      "type": "function"
    },
    {
      "inputs": [],
      "name": "peek",
      "outputs": [
        {
          "internalType": "bytes32",
          "name": "",
          "type": "bytes32"
        },
        {
          "internalType": "bool",
          "name": "",
          "type": "bool"
        }
      ],
      "stateMutability": "view",
      "type": "function"
    },
    {
      "inputs": [],
      "name": "secondaryToken",
      "outputs": [
        {
          "internalType": "address",
          "name": "",
          "type": "address"
        }
      ],
      "stateMutability": "view",
      "type": "function"
    },
    {
      "inputs": [],
      "name": "secondaryTokenDocMoc",
      "outputs": [
        {
          "internalType": "address",
          "name": "",
          "type": "address"
        }
      ],
      "stateMutability": "view",
      "type": "function"
    }
  ],
  "bytecode": "0x608060405234801561001057600080fd5b5060405161066838038061066883398101604081905261002f916100bc565b600080546001600160a01b03199081166001600160a01b0397881617909155600180548216958716959095179094556002805485169386169390931790925560038054841695851695909517909455600480548316948416949094179093556005805490911692909116919091179055610143565b6001600160a01b03811681146100b957600080fd5b50565b60008060008060008060c087890312156100d557600080fd5b86516100e0816100a4565b60208801519096506100f1816100a4565b6040880151909550610102816100a4565b6060880151909450610113816100a4565b6080880151909350610124816100a4565b60a0880151909250610135816100a4565b809150509295509295509295565b610516806101526000396000f3fe608060405234801561001057600080fd5b50600436106100885760003560e01c806359e02dd71161005b57806359e02dd714610100578063692058c21461011d578063c55dae6314610130578063f4eb08db1461014357600080fd5b80630cd8f7b41461008d57806312529f1f146100bd578063169e0bdf146100d05780632b3ba681146100e3575b600080fd5b6005546100a0906001600160a01b031681565b6040516001600160a01b0390911681526020015b60405180910390f35b6003546100a0906001600160a01b031681565b6004546100a0906001600160a01b031681565b6100f2670de0b6b3a764000081565b6040519081526020016100b4565b610108610156565b604080519283529015156020830152016100b4565b6000546100a0906001600160a01b031681565b6001546100a0906001600160a01b031681565b6002546100a0906001600160a01b031681565b60008060008061016461018b565b9150915060008161017c5761017761033d565b61017e565b825b9586151595509350505050565b6000806000600360009054906101000a90046001600160a01b03166001600160a01b031663d298d9c96040518163ffffffff1660e01b8152600401602060405180830381865afa1580156101e3573d6000803e3d6000fd5b505050506040513d601f19601f82011682018060405250810190610207919061040c565b9050600080826001600160a01b03166359e02dd76040518163ffffffff1660e01b81526004016040805180830381865afa158015610249573d6000803e3d6000fd5b505050506040513d601f19601f8201168201806040525081019061026d9190610435565b9150915080801561027d57508115155b156103305760008054600480546005546040516350090c6b60e01b81526001600160a01b039283169381019390935281166024830152909116906350090c6b90604401602060405180830381865afa1580156102dd573d6000803e3d6000fd5b505050506040513d601f19601f82011682018060405250810190610301919061046a565b905060006103218461031b84670de0b6b3a76400006103c3565b906103f9565b97881515975095505050505050565b5060009485945092505050565b600080546001546002546040516350090c6b60e01b81526001600160a01b0392831660048201529082166024820152839291909116906350090c6b90604401602060405180830381865afa158015610399573d6000803e3d6000fd5b505050506040513d601f19601f820116820180604052508101906103bd919061046a565b92915050565b6000826000036103d5575060006103bd565b6103df8284610483565b9050816103ec84836104a8565b146103bd576103bd6104ca565b600061040582846104a8565b9392505050565b60006020828403121561041e57600080fd5b81516001600160a01b038116811461040557600080fd5b6000806040838503121561044857600080fd5b825191506020830151801515811461045f57600080fd5b809150509250929050565b60006020828403121561047c57600080fd5b5051919050565b80820281158282048414176103bd57634e487b7160e01b600052601160045260246000fd5b6000826104c557634e487b7160e01b600052601260045260246000fd5b500490565b634e487b7160e01b600052600160045260246000fdfea2646970667358221220fdfb5a3300a62aa1cf99fe5559d5628ea20d67ff5f094a5e72e32545892ef2f464736f6c63430008180033",
  "linkReferences": {},
  "deployedLinkReferences": {}
}