{
  "_format": "hh-sol-artifact-1",
  "contractName": "ConfigurableTick",
  "sourceName": "contracts/ConfigurableTick.sol",
  "abi": [
    {
      "inputs": [
        {
          "internalType": "contract IGovernor",
          "name": "newIGovernor",
          "type": "address"
        }
      ],
      "name": "changeIGovernor",
      "outputs": [],
      "stateMutability": "nonpayable",
      "type": "function"
    },
    {
      "inputs": [],
      "name": "governor",
      "outputs": [
        {
          "internalType": "contract IGovernor",
          "name": "",
          "type": "address"
        }
      ],
      "stateMutability": "view",
      "type": "function"
    },
    {
      "inputs": [
        {
          "internalType": "address",
          "name": "_governor",
          "type": "address"
        }
      ],
      "name": "initialize",
      "outputs": [],
      "stateMutability": "nonpayable",
      "type": "function"
    },
    {
      "inputs": [
        {
          "internalType": "uint64",
          "name": "_expectedOrdersForTick",
          "type": "uint64"
        }
      ],
      "name": "setExpectedOrdersForTick",
      "outputs": [],
      "stateMutability": "nonpayable",
      "type": "function"
    },
    {
      "inputs": [
        {
          "internalType": "uint64",
          "name": "_maxBlocksForTick",
          "type": "uint64"
        }
      ],
      "name": "setMaxBlocksForTick",
      "outputs": [],
      "stateMutability": "nonpayable",
      "type": "function"
    },
    {
      "inputs": [
        {
          "internalType": "uint64",
          "name": "_minBlocksForTick",
          "type": "uint64"
        }
      ],
      "name": "setMinBlocksForTick",
      "outputs": [],
      "stateMutability": "nonpayable",
      "type": "function"
    },
    {
      "inputs": [],
      "name": "tickConfig",
      "outputs": [
        {
          "internalType": "uint256",
          "name": "expectedOrdersForTick",
          "type": "uint256"
        },
        {
          "internalType": "uint256",
          "name": "maxBlocksForTick",
          "type": "uint256"
        },
        {
          "internalType": "uint256",
          "name": "minBlocksForTick",
          "type": "uint256"
        }
      ],
      "stateMutability": "view",
      "type": "function"
    }
  ],
  "bytecode": "0x608060405234801561001057600080fd5b5061054f806100206000396000f3fe608060405234801561001057600080fd5b506004361061007d5760003560e01c80639c27ee4c1161005b5780639c27ee4c146100da578063b6e0833014610107578063c4d66de81461011a578063e3204b221461012d57600080fd5b80630c340a2414610082578063340f965a146100b25780634a272132146100c7575b600080fd5b603354610095906001600160a01b031681565b6040516001600160a01b0390911681526020015b60405180910390f35b6100c56100c03660046103fc565b610140565b005b6100c56100d53660046103fc565b6101b7565b6066546067546068546100ec92919083565b604080519384526020840192909252908201526060016100a9565b6100c5610115366004610442565b6101fa565b6100c5610128366004610442565b610224565b6100c561013b3660046103fc565b6102fd565b610148610340565b60028167ffffffffffffffff1610156101a85760405162461bcd60e51b815260206004820181905260248201527f4578706563746564206f726465727320666f72207469636b20746f6f206c6f7760448201526064015b60405180910390fd5b67ffffffffffffffff16606655565b6101bf610340565b60685467ffffffffffffffff821610156101eb5760405162461bcd60e51b815260040161019f9061045f565b67ffffffffffffffff16606755565b610202610340565b603380546001600160a01b0319166001600160a01b0392909216919091179055565b600054610100900460ff16806102395750303b155b80610247575060005460ff16155b6102aa5760405162461bcd60e51b815260206004820152602e60248201527f436f6e747261637420696e7374616e63652068617320616c726561647920626560448201526d195b881a5b9a5d1a585b1a5e995960921b606482015260840161019f565b600054610100900460ff161580156102cc576000805461ffff19166101011790555b603380546001600160a01b0319166001600160a01b03841617905580156102f9576000805461ff00191690555b5050565b610305610340565b60675467ffffffffffffffff821611156103315760405162461bcd60e51b815260040161019f9061045f565b67ffffffffffffffff16606855565b60335460405163d994d6d560e01b81523360048201526001600160a01b039091169063d994d6d590602401602060405180830381865afa158015610388573d6000803e3d6000fd5b505050506040513d601f19601f820116820180604052508101906103ac91906104a8565b604051806040016040528060168152602001753737ba2fb0baba3437b934bd32b22fb1b430b733b2b960511b815250906103f95760405162461bcd60e51b815260040161019f91906104ca565b50565b60006020828403121561040e57600080fd5b813567ffffffffffffffff8116811461042657600080fd5b9392505050565b6001600160a01b03811681146103f957600080fd5b60006020828403121561045457600080fd5b81356104268161042d565b60208082526029908201527f6d696e20426c6f636b466f725469636b2073686f756c64206265206c6f776572604082015268040e8d0c2dc40dac2f60bb1b606082015260800190565b6000602082840312156104ba57600080fd5b8151801515811461042657600080fd5b60006020808352835180602085015260005b818110156104f8578581018301518582016040015282016104dc565b506000604082860101526040601f19601f830116850101925050509291505056fea264697066735822122024ff5227fec12299bb4183f75d735189665989d3e97c3a949548c43d8dd8aa2864736f6c63430008180033",
  "linkReferences": {},
  "deployedLinkReferences": {}
}