{
  "_format": "hh-sol-artifact-1",
  "contractName": "AdminUpgradeabilityProxy",
  "sourceName": "@openzeppelin/upgrades/contracts/upgradeability/AdminUpgradeabilityProxy.sol",
  "abi": [
    {
      "inputs": [
        {
          "internalType": "address",
          "name": "_logic",
          "type": "address"
        },
        {
          "internalType": "address",
          "name": "_admin",
          "type": "address"
        },
        {
          "internalType": "bytes",
          "name": "_data",
          "type": "bytes"
        }
      ],
      "stateMutability": "payable",
      "type": "constructor"
    },
    {
      "anonymous": false,
      "inputs": [
        {
          "indexed": false,
          "internalType": "address",
          "name": "previousAdmin",
          "type": "address"
        },
        {
          "indexed": false,
          "internalType": "address",
          "name": "newAdmin",
          "type": "address"
        }
      ],
      "name": "AdminChanged",
      "type": "event"
    },
    {
      "anonymous": false,
      "inputs": [
        {
          "indexed": true,
          "internalType": "address",
          "name": "implementation",
          "type": "address"
        }
      ],
      "name": "Upgraded",
      "type": "event"
    },
    {
      "inputs": [],
      "name": "_implementation",
      "outputs": [
        {
          "internalType": "address",
          "name": "impl",
          "type": "address"
        }
      ],
      "stateMutability": "view",
      "type": "function"
    },
    {
      "inputs": [],
      "name": "admin",
      "outputs": [
        {
          "internalType": "address",
          "name": "",
          "type": "address"
        }
      ],
      "stateMutability": "nonpayable",
      "type": "function"
    },
    {
      "inputs": [
        {
          "internalType": "address",
          "name": "newAdmin",
          "type": "address"
        }
      ],
      "name": "changeAdmin",
      "outputs": [],
      "stateMutability": "nonpayable",
      "type": "function"
    },
    {
      "inputs": [],
      "name": "implementation",
      "outputs": [
        {
          "internalType": "address",
          "name": "",
          "type": "address"
        }
      ],
      "stateMutability": "nonpayable",
      "type": "function"
    },
    {
      "inputs": [
        {
          "internalType": "address",
          "name": "newImplementation",
          "type": "address"
        }
      ],
      "name": "upgradeTo",
      "outputs": [],
      "stateMutability": "nonpayable",
      "type": "function"
    },
    {
      "inputs": [
        {
          "internalType": "address",
          "name": "newImplementation",
          "type": "address"
        },
        {
          "internalType": "bytes",
          "name": "data",
          "type": "bytes"
        }
      ],
      "name": "upgradeToAndCall",
      "outputs": [],
      "stateMutability": "payable",
      "type": "function"
    },
    {
      "stateMutability": "payable",
      "type": "receive"
    }
  ],
  "bytecode": "0x6080604052604051620009af380380620009af83398101604081905262000026916200024d565b82816200005560017f360894a13ba1a3210667c828492db98dca3e2076cc3735a920a3ca505d382bbd6200032d565b6000805160206200098f8339815191521462000075576200007562000355565b620000808262000168565b805115620000f7576000826001600160a01b031682604051620000a491906200036b565b600060405180830381855af49150503d8060008114620000e1576040519150601f19603f3d011682016040523d82523d6000602084013e620000e6565b606091505b5050905080620000f557600080fd5b505b5062000127905060017fb53127684a568b3173ae13b9f8a6016e243e63b6e8ee1178d6a717850b5d61046200032d565b6000805160206200096f8339815191521462000147576200014762000355565b6200015f826000805160206200096f83398151915255565b50505062000389565b803b620001e15760405162461bcd60e51b815260206004820152603b60248201527f43616e6e6f742073657420612070726f787920696d706c656d656e746174696f60448201527f6e20746f2061206e6f6e2d636f6e747261637420616464726573730000000000606482015260840160405180910390fd5b6000805160206200098f83398151915255565b80516001600160a01b03811681146200020c57600080fd5b919050565b634e487b7160e01b600052604160045260246000fd5b60005b83811015620002445781810151838201526020016200022a565b50506000910152565b6000806000606084860312156200026357600080fd5b6200026e84620001f4565b92506200027e60208501620001f4565b60408501519092506001600160401b03808211156200029c57600080fd5b818601915086601f830112620002b157600080fd5b815181811115620002c657620002c662000211565b604051601f8201601f19908116603f01168101908382118183101715620002f157620002f162000211565b816040528281528960208487010111156200030b57600080fd5b6200031e83602083016020880162000227565b80955050505050509250925092565b818103818111156200034f57634e487b7160e01b600052601160045260246000fd5b92915050565b634e487b7160e01b600052600160045260246000fd5b600082516200037f81846020870162000227565b9190910192915050565b6105d680620003996000396000f3fe6080604052600436106100595760003560e01c80633659cfe61461006d5780634f1ef2861461008d57806359679b0f146100a05780635c60da1b146100da5780638f283970146100ef578063f851a4401461010f57600080fd5b3661006857610066610124565b005b600080fd5b34801561007957600080fd5b506100666100883660046104ab565b610144565b61006661009b3660046104cd565b610177565b3480156100ac57600080fd5b50600080516020610581833981519152545b6040516001600160a01b03909116815260200160405180910390f35b3480156100e657600080fd5b506100be61021c565b3480156100fb57600080fd5b5061006661010a3660046104ab565b610262565b34801561011b57600080fd5b506100be61036a565b61014261013d6000805160206105818339815191525490565b6103a5565b565b600080516020610561833981519152546001600160a01b0316330361016f5761016c816103c9565b50565b61016c610124565b600080516020610561833981519152546001600160a01b0316330361020f5761019f836103c9565b6000836001600160a01b031683836040516101bb929190610550565b600060405180830381855af49150503d80600081146101f6576040519150601f19603f3d011682016040523d82523d6000602084013e6101fb565b606091505b505090508061020957600080fd5b50505050565b610217610124565b505050565b60006102346000805160206105618339815191525490565b6001600160a01b0316330361025757506000805160206105818339815191525490565b61025f610124565b90565b600080516020610561833981519152546001600160a01b0316330361016f576001600160a01b0381166102fb5760405162461bcd60e51b815260206004820152603660248201527f43616e6e6f74206368616e6765207468652061646d696e206f6620612070726f604482015275787920746f20746865207a65726f206164647265737360501b60648201526084015b60405180910390fd5b7f7e644d79422f17c01e4894b5f4f588d331ebfa28653d42ae832dc59e38c9798f6103326000805160206105618339815191525490565b604080516001600160a01b03928316815291841660208301520160405180910390a161016c8160008051602061056183398151915255565b60006103826000805160206105618339815191525490565b6001600160a01b0316330361025757506000805160206105618339815191525490565b3660008037600080366000845af43d6000803e8080156103c4573d6000f35b3d6000fd5b6103d281610409565b6040516001600160a01b038216907fbc7cd75a20ee27fd9adebab32041f755214dbc6bffa90cc0225b39da2e5c2d3b90600090a250565b803b61047d5760405162461bcd60e51b815260206004820152603b60248201527f43616e6e6f742073657420612070726f787920696d706c656d656e746174696f60448201527f6e20746f2061206e6f6e2d636f6e74726163742061646472657373000000000060648201526084016102f2565b60008051602061058183398151915255565b80356001600160a01b03811681146104a657600080fd5b919050565b6000602082840312156104bd57600080fd5b6104c68261048f565b9392505050565b6000806000604084860312156104e257600080fd5b6104eb8461048f565b9250602084013567ffffffffffffffff8082111561050857600080fd5b818601915086601f83011261051c57600080fd5b81358181111561052b57600080fd5b87602082850101111561053d57600080fd5b6020830194508093505050509250925092565b818382376000910190815291905056feb53127684a568b3173ae13b9f8a6016e243e63b6e8ee1178d6a717850b5d6103360894a13ba1a3210667c828492db98dca3e2076cc3735a920a3ca505d382bbca2646970667358221220c802084e024013405d528f82c5d3306729fc515e17cc07215595d009d091abeb64736f6c63430008180033b53127684a568b3173ae13b9f8a6016e243e63b6e8ee1178d6a717850b5d6103360894a13ba1a3210667c828492db98dca3e2076cc3735a920a3ca505d382bbc",
  "linkReferences": {},
  "deployedLinkReferences": {}
}