{
  "_format": "hh-sol-artifact-1",
  "contractName": "BlockableGovernor",
  "sourceName": "contracts/Governance/BlockableGovernor.sol",
  "abi": [
    {
      "inputs": [
        {
          "internalType": "address",
          "name": "owner",
          "type": "address"
        }
      ],
      "name": "OwnableInvalidOwner",
      "type": "error"
    },
    {
      "inputs": [
        {
          "internalType": "address",
          "name": "account",
          "type": "address"
        }
      ],
      "name": "OwnableUnauthorizedAccount",
      "type": "error"
    },
    {
      "inputs": [],
      "name": "ReentrancyGuardReentrantCall",
      "type": "error"
    },
    {
      "anonymous": false,
      "inputs": [
        {
          "indexed": true,
          "internalType": "address",
          "name": "previousOwner",
          "type": "address"
        },
        {
          "indexed": true,
          "internalType": "address",
          "name": "newOwner",
          "type": "address"
        }
      ],
      "name": "OwnershipTransferred",
      "type": "event"
    },
    {
      "inputs": [
        {
          "internalType": "uint256",
          "name": "newUnblockDate",
          "type": "uint256"
        }
      ],
      "name": "blockUntil",
      "outputs": [],
      "stateMutability": "nonpayable",
      "type": "function"
    },
    {
      "inputs": [
        {
          "internalType": "contract ChangeContract",
          "name": "changeContract",
          "type": "address"
        }
      ],
      "name": "executeChange",
      "outputs": [],
      "stateMutability": "nonpayable",
      "type": "function"
    },
    {
      "inputs": [
        {
          "internalType": "uint256",
          "name": "_firstUnblockDate",
          "type": "uint256"
        }
      ],
      "name": "initialize",
      "outputs": [],
      "stateMutability": "nonpayable",
      "type": "function"
    },
    {
      "inputs": [
        {
          "internalType": "address",
          "name": "_changer",
          "type": "address"
        }
      ],
      "name": "isAuthorizedChanger",
      "outputs": [
        {
          "internalType": "bool",
          "name": "",
          "type": "bool"
        }
      ],
      "stateMutability": "view",
      "type": "function"
    },
    {
      "inputs": [
        {
          "internalType": "address",
          "name": "who",
          "type": "address"
        }
      ],
      "name": "isAuthorizedToBlock",
      "outputs": [
        {
          "internalType": "bool",
          "name": "",
          "type": "bool"
        }
      ],
      "stateMutability": "view",
      "type": "function"
    },
    {
      "inputs": [],
      "name": "isBlocked",
      "outputs": [
        {
          "internalType": "bool",
          "name": "",
          "type": "bool"
        }
      ],
      "stateMutability": "view",
      "type": "function"
    },
    {
      "inputs": [],
      "name": "owner",
      "outputs": [
        {
          "internalType": "address",
          "name": "",
          "type": "address"
        }
      ],
      "stateMutability": "view",
      "type": "function"
    },
    {
      "inputs": [],
      "name": "renounceOwnership",
      "outputs": [],
      "stateMutability": "nonpayable",
      "type": "function"
    },
    {
      "inputs": [
        {
          "internalType": "address",
          "name": "newOwner",
          "type": "address"
        }
      ],
      "name": "transferOwnership",
      "outputs": [],
      "stateMutability": "nonpayable",
      "type": "function"
    },
    {
      "inputs": [],
      "name": "unblockDate",
      "outputs": [
        {
          "internalType": "uint256",
          "name": "",
          "type": "uint256"
        }
      ],
      "stateMutability": "view",
      "type": "function"
    }
  ],
  "bytecode": "0x608060405234801561001057600080fd5b506001600055338061003c57604051631e4fbdf760e01b81526000600482015260240160405180910390fd5b6100458161004b565b5061009d565b600180546001600160a01b038381166001600160a01b0319831681179093556040519116919082907f8be0079c531659141344cd1fd0a4f28419497f9722a3daafe3b4186f6b6457e090600090a35050565b61067d806100ac6000396000f3fe608060405234801561001057600080fd5b506004361061009e5760003560e01c8063d75f0da711610066578063d75f0da714610125578063d994d6d5146100f3578063f2fde38b1461012f578063f5691ef614610142578063fe4b84df1461015957600080fd5b8063715018a6146100a3578063894a3d47146100ad5780638c777e82146100c05780638da5cb5b146100d3578063924d7a2c146100f3575b600080fd5b6100ab61016c565b005b6100ab6100bb366004610558565b610180565b6100ab6100ce366004610586565b610282565b6001546040516001600160a01b0390911681526020015b60405180910390f35b610115610101366004610586565b6002546001600160a01b0390811691161490565b60405190151581526020016100ea565b6068544210610115565b6100ab61013d366004610586565b6102d3565b61014b60685481565b6040519081526020016100ea565b6100ab610167366004610558565b61030e565b610174610397565b61017e60006103c4565b565b60685442101560405180604001604052806007815260200166189b1bd8dad95960ca1b815250906101cd5760405162461bcd60e51b81526004016101c491906105aa565b60405180910390fd5b506002546001600160a01b031633146040518060400160405280601781526020017f6e6f745f617574686f72697a65645f746f5f626c6f636b000000000000000000815250906102305760405162461bcd60e51b81526004016101c491906105aa565b50804210604051806040016040528060118152602001707468726573686f6c645f746f6f5f6c6f7760781b8152509061027c5760405162461bcd60e51b81526004016101c491906105aa565b50606855565b60685442101560405180604001604052806007815260200166189b1bd8dad95960ca1b815250906102c65760405162461bcd60e51b81526004016101c491906105aa565b506102d081610416565b50565b6102db610397565b6001600160a01b03811661030557604051631e4fbdf760e01b8152600060048201526024016101c4565b6102d0816103c4565b603554610100900460ff16806103235750303b155b80610331575060355460ff16155b61034d5760405162461bcd60e51b81526004016101c4906105f9565b603554610100900460ff1615801561036f576035805461ffff19166101011790555b610378826104b3565b610381826104b3565b8015610393576035805461ff00191690555b5050565b6001546001600160a01b0316331461017e5760405163118cdaa760e01b81523360048201526024016101c4565b600180546001600160a01b038381166001600160a01b0319831681179093556040519116919082907f8be0079c531659141344cd1fd0a4f28419497f9722a3daafe3b4186f6b6457e090600090a35050565b61041e61052e565b610426610397565b600280546001600160a01b0319166001600160a01b038316179055806001600160a01b031663614619546040518163ffffffff1660e01b8152600401600060405180830381600087803b15801561047c57600080fd5b505af1158015610490573d6000803e3d6000fd5b505050506104a9600280546001600160a01b0319169055565b6102d06001600055565b603554610100900460ff16806104c85750303b155b806104d6575060355460ff16155b6104f25760405162461bcd60e51b81526004016101c4906105f9565b603554610100900460ff16158015610514576035805461ffff19166101011790555b60688290558015610393576035805461ff00191690555050565b60026000540361055157604051633ee5aeb560e01b815260040160405180910390fd5b6002600055565b60006020828403121561056a57600080fd5b5035919050565b6001600160a01b03811681146102d057600080fd5b60006020828403121561059857600080fd5b81356105a381610571565b9392505050565b60006020808352835180602085015260005b818110156105d8578581018301518582016040015282016105bc565b506000604082860101526040601f19601f8301168501019250505092915050565b6020808252602e908201527f436f6e747261637420696e7374616e63652068617320616c726561647920626560408201526d195b881a5b9a5d1a585b1a5e995960921b60608201526080019056fea264697066735822122021803a6649388eee9a3e2ce34f64978b06e51ef929a20b2840af0161ae25992064736f6c63430008180033",
  "linkReferences": {},
  "deployedLinkReferences": {}
}