{
  "_format": "hh-sol-artifact-1",
  "contractName": "BlockableGovernor",
  "sourceName": "contracts/Governance/BlockableGovernor.sol",
  "abi": [
    {
      "inputs": [
        {
          "internalType": "address",
          "name": "owner",
          "type": "address"
        }
      ],
      "name": "OwnableInvalidOwner",
      "type": "error"
    },
    {
      "inputs": [
        {
          "internalType": "address",
          "name": "account",
          "type": "address"
        }
      ],
      "name": "OwnableUnauthorizedAccount",
      "type": "error"
    },
    {
      "inputs": [],
      "name": "ReentrancyGuardReentrantCall",
      "type": "error"
    },
    {
      "anonymous": false,
      "inputs": [
        {
          "indexed": true,
          "internalType": "address",
          "name": "previousOwner",
          "type": "address"
        },
        {
          "indexed": true,
          "internalType": "address",
          "name": "newOwner",
          "type": "address"
        }
      ],
      "name": "OwnershipTransferred",
      "type": "event"
    },
    {
      "inputs": [
        {
          "internalType": "uint256",
          "name": "newUnblockDate",
          "type": "uint256"
        }
      ],
      "name": "blockUntil",
      "outputs": [],
      "stateMutability": "nonpayable",
      "type": "function"
    },
    {
      "inputs": [
        {
          "internalType": "contract ChangeContract",
          "name": "changeContract",
          "type": "address"
        }
      ],
      "name": "executeChange",
      "outputs": [],
      "stateMutability": "nonpayable",
      "type": "function"
    },
    {
      "inputs": [
        {
          "internalType": "uint256",
          "name": "_firstUnblockDate",
          "type": "uint256"
        }
      ],
      "name": "initialize",
      "outputs": [],
      "stateMutability": "nonpayable",
      "type": "function"
    },
    {
      "inputs": [
        {
          "internalType": "address",
          "name": "_changer",
          "type": "address"
        }
      ],
      "name": "isAuthorizedChanger",
      "outputs": [
        {
          "internalType": "bool",
          "name": "",
          "type": "bool"
        }
      ],
      "stateMutability": "view",
      "type": "function"
    },
    {
      "inputs": [
        {
          "internalType": "address",
          "name": "who",
          "type": "address"
        }
      ],
      "name": "isAuthorizedToBlock",
      "outputs": [
        {
          "internalType": "bool",
          "name": "",
          "type": "bool"
        }
      ],
      "stateMutability": "view",
      "type": "function"
    },
    {
      "inputs": [],
      "name": "isBlocked",
      "outputs": [
        {
          "internalType": "bool",
          "name": "",
          "type": "bool"
        }
      ],
      "stateMutability": "view",
      "type": "function"
    },
    {
      "inputs": [],
      "name": "owner",
      "outputs": [
        {
          "internalType": "address",
          "name": "",
          "type": "address"
        }
      ],
      "stateMutability": "view",
      "type": "function"
    },
    {
      "inputs": [],
      "name": "renounceOwnership",
      "outputs": [],
      "stateMutability": "nonpayable",
      "type": "function"
    },
    {
      "inputs": [
        {
          "internalType": "address",
          "name": "newOwner",
          "type": "address"
        }
      ],
      "name": "transferOwnership",
      "outputs": [],
      "stateMutability": "nonpayable",
      "type": "function"
    },
    {
      "inputs": [],
      "name": "unblockDate",
      "outputs": [
        {
          "internalType": "uint256",
          "name": "",
          "type": "uint256"
        }
      ],
      "stateMutability": "view",
      "type": "function"
    }
  ],
  "bytecode": "0x608060405234801561001057600080fd5b506001600055338061003c57604051631e4fbdf760e01b81526000600482015260240160405180910390fd5b6100458161004b565b506100a5565b600180546001600160a01b03838116610100818102610100600160a81b031985161790945560405193909204169182907f8be0079c531659141344cd1fd0a4f28419497f9722a3daafe3b4186f6b6457e090600090a35050565b610699806100b46000396000f3fe608060405234801561001057600080fd5b506004361061009e5760003560e01c8063d75f0da711610066578063d75f0da714610133578063d994d6d514610101578063f2fde38b1461013d578063f5691ef614610150578063fe4b84df1461016757600080fd5b8063715018a6146100a3578063894a3d47146100ad5780638c777e82146100c05780638da5cb5b146100d3578063924d7a2c14610101575b600080fd5b6100ab61017a565b005b6100ab6100bb366004610574565b61018e565b6100ab6100ce3660046105a2565b610290565b60015461010090046001600160a01b03166040516001600160a01b0390911681526020015b60405180910390f35b61012361010f3660046105a2565b6002546001600160a01b0390811691161490565b60405190151581526020016100f8565b6068544210610123565b6100ab61014b3660046105a2565b6102e1565b61015960685481565b6040519081526020016100f8565b6100ab610175366004610574565b61031c565b6101826103a5565b61018c60006103d8565b565b60685442101560405180604001604052806007815260200166189b1bd8dad95960ca1b815250906101db5760405162461bcd60e51b81526004016101d291906105c6565b60405180910390fd5b506002546001600160a01b031633146040518060400160405280601781526020017f6e6f745f617574686f72697a65645f746f5f626c6f636b0000000000000000008152509061023e5760405162461bcd60e51b81526004016101d291906105c6565b50804210604051806040016040528060118152602001707468726573686f6c645f746f6f5f6c6f7760781b8152509061028a5760405162461bcd60e51b81526004016101d291906105c6565b50606855565b60685442101560405180604001604052806007815260200166189b1bd8dad95960ca1b815250906102d45760405162461bcd60e51b81526004016101d291906105c6565b506102de81610432565b50565b6102e96103a5565b6001600160a01b03811661031357604051631e4fbdf760e01b8152600060048201526024016101d2565b6102de816103d8565b603554610100900460ff16806103315750303b155b8061033f575060355460ff16155b61035b5760405162461bcd60e51b81526004016101d290610615565b603554610100900460ff1615801561037d576035805461ffff19166101011790555b610386826104cf565b61038f826104cf565b80156103a1576035805461ff00191690555b5050565b6001546001600160a01b0361010090910416331461018c5760405163118cdaa760e01b81523360048201526024016101d2565b600180546001600160a01b03838116610100818102610100600160a81b031985161790945560405193909204169182907f8be0079c531659141344cd1fd0a4f28419497f9722a3daafe3b4186f6b6457e090600090a35050565b61043a61054a565b6104426103a5565b600280546001600160a01b0319166001600160a01b038316179055806001600160a01b031663614619546040518163ffffffff1660e01b8152600401600060405180830381600087803b15801561049857600080fd5b505af11580156104ac573d6000803e3d6000fd5b505050506104c5600280546001600160a01b0319169055565b6102de6001600055565b603554610100900460ff16806104e45750303b155b806104f2575060355460ff16155b61050e5760405162461bcd60e51b81526004016101d290610615565b603554610100900460ff16158015610530576035805461ffff19166101011790555b606882905580156103a1576035805461ff00191690555050565b60026000540361056d57604051633ee5aeb560e01b815260040160405180910390fd5b6002600055565b60006020828403121561058657600080fd5b5035919050565b6001600160a01b03811681146102de57600080fd5b6000602082840312156105b457600080fd5b81356105bf8161058d565b9392505050565b60006020808352835180602085015260005b818110156105f4578581018301518582016040015282016105d8565b506000604082860101526040601f19601f8301168501019250505092915050565b6020808252602e908201527f436f6e747261637420696e7374616e63652068617320616c726561647920626560408201526d195b881a5b9a5d1a585b1a5e995960921b60608201526080019056fea2646970667358221220c82db2c2485b8c393431ec35391a49c37ba81e2a9f535468bac618771024cc2864736f6c63430008180033",
  "linkReferences": {},
  "deployedLinkReferences": {}
}