{
  "_format": "hh-sol-artifact-1",
  "contractName": "SmoothingFactorChanger",
  "sourceName": "contracts/changers/SmoothingFactorChanger.sol",
  "abi": [
    {
      "inputs": [
        {
          "internalType": "contract TokenPairListing",
          "name": "_tokenPairListing",
          "type": "address"
        },
        {
          "internalType": "address",
          "name": "_baseToken",
          "type": "address"
        },
        {
          "internalType": "address",
          "name": "_secondaryToken",
          "type": "address"
        },
        {
          "internalType": "uint256",
          "name": "_smoothingFactor",
          "type": "uint256"
        }
      ],
      "stateMutability": "nonpayable",
      "type": "constructor"
    },
    {
      "inputs": [],
      "name": "baseToken",
      "outputs": [
        {
          "internalType": "address",
          "name": "",
          "type": "address"
        }
      ],
      "stateMutability": "view",
      "type": "function"
    },
    {
      "inputs": [],
      "name": "execute",
      "outputs": [],
      "stateMutability": "nonpayable",
      "type": "function"
    },
    {
      "inputs": [],
      "name": "secondaryToken",
      "outputs": [
        {
          "internalType": "address",
          "name": "",
          "type": "address"
        }
      ],
      "stateMutability": "view",
      "type": "function"
    },
    {
      "inputs": [],
      "name": "smoothingFactor",
      "outputs": [
        {
          "internalType": "uint256",
          "name": "",
          "type": "uint256"
        }
      ],
      "stateMutability": "view",
      "type": "function"
    },
    {
      "inputs": [],
      "name": "tokenPairListing",
      "outputs": [
        {
          "internalType": "contract TokenPairListing",
          "name": "",
          "type": "address"
        }
      ],
      "stateMutability": "view",
      "type": "function"
    }
  ],
  "bytecode": "0x608060405234801561001057600080fd5b5060405161026c38038061026c83398101604081905261002f9161008c565b600080546001600160a01b03199081166001600160a01b03968716179091556001805482169486169490941790935560028054909316919093161790556003556100df565b6001600160a01b038116811461008957600080fd5b50565b600080600080608085870312156100a257600080fd5b84516100ad81610074565b60208601519094506100be81610074565b60408601519093506100cf81610074565b6060959095015193969295505050565b61017e806100ee6000396000f3fe608060405234801561001057600080fd5b50600436106100575760003560e01c80630d9c71aa1461005c57806333fe4f751461007857806361461954146100a3578063c55dae63146100ad578063f4eb08db146100c0575b600080fd5b61006560035481565b6040519081526020015b60405180910390f35b60005461008b906001600160a01b031681565b6040516001600160a01b03909116815260200161006f565b6100ab6100d3565b005b60015461008b906001600160a01b031681565b60025461008b906001600160a01b031681565b60005460015460025460035460405162648ee760e71b81526001600160a01b03938416600482015291831660248301526044820152911690633247738090606401600060405180830381600087803b15801561012e57600080fd5b505af1158015610142573d6000803e3d6000fd5b5050505056fea26469706673582212207cb443661fc02f8e0372e5d9acde216deb17d6f461ec6e0f91d4bfe381af9d6164736f6c63430008180033",
  "linkReferences": {},
  "deployedLinkReferences": {}
}