{
  "_format": "hh-sol-artifact-1",
  "contractName": "UpgradeabilityProxy",
  "sourceName": "@openzeppelin/upgrades/contracts/upgradeability/UpgradeabilityProxy.sol",
  "abi": [
    {
      "inputs": [
        {
          "internalType": "address",
          "name": "_logic",
          "type": "address"
        },
        {
          "internalType": "bytes",
          "name": "_data",
          "type": "bytes"
        }
      ],
      "stateMutability": "payable",
      "type": "constructor"
    },
    {
      "anonymous": false,
      "inputs": [
        {
          "indexed": true,
          "internalType": "address",
          "name": "implementation",
          "type": "address"
        }
      ],
      "name": "Upgraded",
      "type": "event"
    },
    {
      "inputs": [],
      "name": "_implementation",
      "outputs": [
        {
          "internalType": "address",
          "name": "impl",
          "type": "address"
        }
      ],
      "stateMutability": "view",
      "type": "function"
    },
    {
      "stateMutability": "payable",
      "type": "receive"
    }
  ],
  "bytecode": "0x6080604052604051610407380380610407833981016040819052610022916101ae565b61004d60017f360894a13ba1a3210667c828492db98dca3e2076cc3735a920a3ca505d382bbd61027c565b6000805160206103e783398151915214610069576100696102a3565b610072826100ea565b8051156100e3576000826001600160a01b03168260405161009391906102b9565b600060405180830381855af49150503d80600081146100ce576040519150601f19603f3d011682016040523d82523d6000602084013e6100d3565b606091505b50509050806100e157600080fd5b505b50506102d5565b803b6101625760405162461bcd60e51b815260206004820152603b60248201527f43616e6e6f742073657420612070726f787920696d706c656d656e746174696f60448201527f6e20746f2061206e6f6e2d636f6e747261637420616464726573730000000000606482015260840160405180910390fd5b6000805160206103e783398151915255565b634e487b7160e01b600052604160045260246000fd5b60005b838110156101a557818101518382015260200161018d565b50506000910152565b600080604083850312156101c157600080fd5b82516001600160a01b03811681146101d857600080fd5b60208401519092506001600160401b03808211156101f557600080fd5b818501915085601f83011261020957600080fd5b81518181111561021b5761021b610174565b604051601f8201601f19908116603f0116810190838211818310171561024357610243610174565b8160405282815288602084870101111561025c57600080fd5b61026d83602083016020880161018a565b80955050505050509250929050565b8181038181111561029d57634e487b7160e01b600052601160045260246000fd5b92915050565b634e487b7160e01b600052600160045260246000fd5b600082516102cb81846020870161018a565b9190910192915050565b610103806102e46000396000f3fe60806040526004361060205760003560e01c806359679b0f14603157600080fd5b36602c57602a607b565b005b600080fd5b348015603c57600080fd5b507f360894a13ba1a3210667c828492db98dca3e2076cc3735a920a3ca505d382bbc546040516001600160a01b03909116815260200160405180910390f35b60a860a47f360894a13ba1a3210667c828492db98dca3e2076cc3735a920a3ca505d382bbc5490565b60aa565b565b3660008037600080366000845af43d6000803e80801560c8573d6000f35b3d6000fdfea2646970667358221220724b7b6c1a6acfb81aa6221dcc6625998c26ba165e46aa1f37fd6d95642fb6ea64736f6c63430008180033360894a13ba1a3210667c828492db98dca3e2076cc3735a920a3ca505d382bbc",
  "linkReferences": {},
  "deployedLinkReferences": {}
}