{
  "_format": "hh-sol-artifact-1",
  "contractName": "Governed",
  "sourceName": "contracts/Governance/Governed.sol",
  "abi": [
    {
      "inputs": [
        {
          "internalType": "contract IGovernor",
          "name": "newIGovernor",
          "type": "address"
        }
      ],
      "name": "changeIGovernor",
      "outputs": [],
      "stateMutability": "nonpayable",
      "type": "function"
    },
    {
      "inputs": [],
      "name": "governor",
      "outputs": [
        {
          "internalType": "contract IGovernor",
          "name": "",
          "type": "address"
        }
      ],
      "stateMutability": "view",
      "type": "function"
    },
    {
      "inputs": [
        {
          "internalType": "address",
          "name": "_governor",
          "type": "address"
        }
      ],
      "name": "initialize",
      "outputs": [],
      "stateMutability": "nonpayable",
      "type": "function"
    }
  ],
  "bytecode": "0x608060405234801561001057600080fd5b50610341806100206000396000f3fe608060405234801561001057600080fd5b50600436106100415760003560e01c80630c340a2414610046578063b6e0833014610075578063c4d66de81461008a575b600080fd5b603354610059906001600160a01b031681565b6040516001600160a01b03909116815260200160405180910390f35b610088610083366004610276565b61009d565b005b610088610098366004610276565b6100c7565b6100a56101a5565b603380546001600160a01b0319166001600160a01b0392909216919091179055565b600054610100900460ff16806100dc5750303b155b806100ea575060005460ff16155b6101525760405162461bcd60e51b815260206004820152602e60248201527f436f6e747261637420696e7374616e63652068617320616c726561647920626560448201526d195b881a5b9a5d1a585b1a5e995960921b60648201526084015b60405180910390fd5b600054610100900460ff16158015610174576000805461ffff19166101011790555b603380546001600160a01b0319166001600160a01b03841617905580156101a1576000805461ff00191690555b5050565b60335460405163d994d6d560e01b81523360048201526001600160a01b039091169063d994d6d590602401602060405180830381865afa1580156101ed573d6000803e3d6000fd5b505050506040513d601f19601f82011682018060405250810190610211919061029a565b604051806040016040528060168152602001753737ba2fb0baba3437b934bd32b22fb1b430b733b2b960511b8152509061025e5760405162461bcd60e51b815260040161014991906102bc565b50565b6001600160a01b038116811461025e57600080fd5b60006020828403121561028857600080fd5b813561029381610261565b9392505050565b6000602082840312156102ac57600080fd5b8151801515811461029357600080fd5b60006020808352835180602085015260005b818110156102ea578581018301518582016040015282016102ce565b506000604082860101526040601f19601f830116850101925050509291505056fea26469706673582212204c12366baa6d5f6267aa41903ebd5afde27bc9b461a1fe006b91f36c99d2760864736f6c63430008180033",
  "linkReferences": {},
  "deployedLinkReferences": {}
}