{
  "_format": "hh-sol-artifact-1",
  "contractName": "TokenPairEnabler",
  "sourceName": "contracts/changers/TokenPairEnabler.sol",
  "abi": [
    {
      "inputs": [
        {
          "internalType": "contract TokenPairListing",
          "name": "_tokenPairListing",
          "type": "address"
        },
        {
          "internalType": "address",
          "name": "_baseToken",
          "type": "address"
        },
        {
          "internalType": "address",
          "name": "_secondaryToken",
          "type": "address"
        }
      ],
      "stateMutability": "nonpayable",
      "type": "constructor"
    },
    {
      "inputs": [],
      "name": "baseToken",
      "outputs": [
        {
          "internalType": "address",
          "name": "",
          "type": "address"
        }
      ],
      "stateMutability": "view",
      "type": "function"
    },
    {
      "inputs": [],
      "name": "execute",
      "outputs": [],
      "stateMutability": "nonpayable",
      "type": "function"
    },
    {
      "inputs": [],
      "name": "secondaryToken",
      "outputs": [
        {
          "internalType": "address",
          "name": "",
          "type": "address"
        }
      ],
      "stateMutability": "view",
      "type": "function"
    },
    {
      "inputs": [],
      "name": "tokenPairListing",
      "outputs": [
        {
          "internalType": "contract TokenPairListing",
          "name": "",
          "type": "address"
        }
      ],
      "stateMutability": "view",
      "type": "function"
    }
  ],
  "bytecode": "0x608060405234801561001057600080fd5b5060405161023938038061023983398101604081905261002f91610089565b600080546001600160a01b039485166001600160a01b0319918216179091556001805493851693821693909317909255600280549190931691161790556100d6565b6001600160a01b038116811461008657600080fd5b50565b60008060006060848603121561009e57600080fd5b83516100a981610071565b60208501519093506100ba81610071565b60408501519092506100cb81610071565b809150509250925092565b610154806100e56000396000f3fe608060405234801561001057600080fd5b506004361061004c5760003560e01c806333fe4f75146100515780636146195414610080578063c55dae631461008a578063f4eb08db1461009d575b600080fd5b600054610064906001600160a01b031681565b6040516001600160a01b03909116815260200160405180910390f35b6100886100b0565b005b600154610064906001600160a01b031681565b600254610064906001600160a01b031681565b600054600154600254604051631c5129e960e01b81526001600160a01b0392831660048201529082166024820152911690631c5129e990604401600060405180830381600087803b15801561010457600080fd5b505af1158015610118573d6000803e3d6000fd5b5050505056fea264697066735822122083da54399ee55efe80dad10b99b8be4eefb8d2962330982b19b607895d0dd7c564736f6c63430008180033",
  "linkReferences": {},
  "deployedLinkReferences": {}
}