{
  "_format": "hh-sol-artifact-1",
  "contractName": "CommissionRateChanger",
  "sourceName": "contracts/changers/CommissionRateChanger.sol",
  "abi": [
    {
      "inputs": [
        {
          "internalType": "contract CommissionManager",
          "name": "_commissionManager",
          "type": "address"
        },
        {
          "internalType": "uint256",
          "name": "_commissionRate",
          "type": "uint256"
        }
      ],
      "stateMutability": "nonpayable",
      "type": "constructor"
    },
    {
      "inputs": [],
      "name": "commissionManager",
      "outputs": [
        {
          "internalType": "contract CommissionManager",
          "name": "",
          "type": "address"
        }
      ],
      "stateMutability": "view",
      "type": "function"
    },
    {
      "inputs": [],
      "name": "commissionRate",
      "outputs": [
        {
          "internalType": "uint256",
          "name": "",
          "type": "uint256"
        }
      ],
      "stateMutability": "view",
      "type": "function"
    },
    {
      "inputs": [],
      "name": "execute",
      "outputs": [],
      "stateMutability": "nonpayable",
      "type": "function"
    }
  ],
  "bytecode": "0x608060405234801561001057600080fd5b506040516101ca3803806101ca83398101604081905261002f91610058565b600080546001600160a01b0319166001600160a01b039390931692909217909155600155610092565b6000806040838503121561006b57600080fd5b82516001600160a01b038116811461008257600080fd5b6020939093015192949293505050565b610129806100a16000396000f3fe6080604052348015600f57600080fd5b5060043610603c5760003560e01c80630ef51d0d1460415780635ea1d6f814607057806361461954146085575b600080fd5b6000546053906001600160a01b031681565b6040516001600160a01b0390911681526020015b60405180910390f35b607860015481565b6040519081526020016067565b608b608d565b005b6000546001546040516319fac8fd60e01b81526001600160a01b03909216916319fac8fd9160c19160040190815260200190565b600060405180830381600087803b15801560da57600080fd5b505af115801560ed573d6000803e3d6000fd5b5050505056fea2646970667358221220568451368b1c2a333257bb02a4930e70190abcf93dc1531b479c709d8ed3d0e364736f6c63430008180033",
  "linkReferences": {},
  "deployedLinkReferences": {}
}