{
  "_format": "hh-sol-artifact-1",
  "contractName": "CommissionManager",
  "sourceName": "contracts/CommissionManager.sol",
  "abi": [
    {
      "inputs": [],
      "stateMutability": "nonpayable",
      "type": "constructor"
    },
    {
      "inputs": [
        {
          "internalType": "address",
          "name": "owner",
          "type": "address"
        }
      ],
      "name": "OwnableInvalidOwner",
      "type": "error"
    },
    {
      "inputs": [
        {
          "internalType": "address",
          "name": "account",
          "type": "address"
        }
      ],
      "name": "OwnableUnauthorizedAccount",
      "type": "error"
    },
    {
      "anonymous": false,
      "inputs": [
        {
          "indexed": true,
          "internalType": "address",
          "name": "previousOwner",
          "type": "address"
        },
        {
          "indexed": true,
          "internalType": "address",
          "name": "newOwner",
          "type": "address"
        }
      ],
      "name": "OwnershipTransferred",
      "type": "event"
    },
    {
      "inputs": [],
      "name": "RATE_PRECISION",
      "outputs": [
        {
          "internalType": "uint256",
          "name": "",
          "type": "uint256"
        }
      ],
      "stateMutability": "view",
      "type": "function"
    },
    {
      "inputs": [],
      "name": "beneficiaryAddress",
      "outputs": [
        {
          "internalType": "address",
          "name": "",
          "type": "address"
        }
      ],
      "stateMutability": "view",
      "type": "function"
    },
    {
      "inputs": [
        {
          "internalType": "uint256",
          "name": "_amount",
          "type": "uint256"
        },
        {
          "internalType": "uint256",
          "name": "_price",
          "type": "uint256"
        }
      ],
      "name": "calculateInitialFee",
      "outputs": [
        {
          "internalType": "uint256",
          "name": "",
          "type": "uint256"
        }
      ],
      "stateMutability": "view",
      "type": "function"
    },
    {
      "inputs": [],
      "name": "cancelationPenaltyRate",
      "outputs": [
        {
          "internalType": "uint256",
          "name": "",
          "type": "uint256"
        }
      ],
      "stateMutability": "view",
      "type": "function"
    },
    {
      "inputs": [
        {
          "internalType": "contract IGovernor",
          "name": "newIGovernor",
          "type": "address"
        }
      ],
      "name": "changeIGovernor",
      "outputs": [],
      "stateMutability": "nonpayable",
      "type": "function"
    },
    {
      "inputs": [
        {
          "internalType": "uint256",
          "name": "_orderAmount",
          "type": "uint256"
        },
        {
          "internalType": "uint256",
          "name": "_matchedAmount",
          "type": "uint256"
        },
        {
          "internalType": "uint256",
          "name": "_commission",
          "type": "uint256"
        },
        {
          "internalType": "address",
          "name": "_tokenAddress",
          "type": "address"
        }
      ],
      "name": "chargeCommissionForMatch",
      "outputs": [
        {
          "internalType": "uint256",
          "name": "",
          "type": "uint256"
        }
      ],
      "stateMutability": "nonpayable",
      "type": "function"
    },
    {
      "inputs": [
        {
          "internalType": "uint256",
          "name": "_commission",
          "type": "uint256"
        },
        {
          "internalType": "address",
          "name": "_tokenAddress",
          "type": "address"
        },
        {
          "internalType": "bool",
          "name": "_isExpiration",
          "type": "bool"
        }
      ],
      "name": "chargeExceptionalCommission",
      "outputs": [
        {
          "internalType": "uint256",
          "name": "",
          "type": "uint256"
        }
      ],
      "stateMutability": "nonpayable",
      "type": "function"
    },
    {
      "inputs": [
        {
          "internalType": "address",
          "name": "_tokenAddress",
          "type": "address"
        }
      ],
      "name": "clearExchangeCommissions",
      "outputs": [],
      "stateMutability": "nonpayable",
      "type": "function"
    },
    {
      "inputs": [],
      "name": "commissionRate",
      "outputs": [
        {
          "internalType": "uint256",
          "name": "",
          "type": "uint256"
        }
      ],
      "stateMutability": "view",
      "type": "function"
    },
    {
      "inputs": [
        {
          "internalType": "address",
          "name": "",
          "type": "address"
        }
      ],
      "name": "exchangeCommissions",
      "outputs": [
        {
          "internalType": "uint256",
          "name": "",
          "type": "uint256"
        }
      ],
      "stateMutability": "view",
      "type": "function"
    },
    {
      "inputs": [],
      "name": "expirationPenaltyRate",
      "outputs": [
        {
          "internalType": "uint256",
          "name": "",
          "type": "uint256"
        }
      ],
      "stateMutability": "view",
      "type": "function"
    },
    {
      "inputs": [],
      "name": "governor",
      "outputs": [
        {
          "internalType": "contract IGovernor",
          "name": "",
          "type": "address"
        }
      ],
      "stateMutability": "view",
      "type": "function"
    },
    {
      "inputs": [
        {
          "internalType": "address",
          "name": "_governor",
          "type": "address"
        }
      ],
      "name": "initialize",
      "outputs": [],
      "stateMutability": "nonpayable",
      "type": "function"
    },
    {
      "inputs": [
        {
          "internalType": "address",
          "name": "_beneficiaryAddress",
          "type": "address"
        },
        {
          "internalType": "uint256",
          "name": "_commissionRate",
          "type": "uint256"
        },
        {
          "internalType": "uint256",
          "name": "_cancelationPenaltyRate",
          "type": "uint256"
        },
        {
          "internalType": "uint256",
          "name": "_expirationPenaltyRate",
          "type": "uint256"
        },
        {
          "internalType": "address",
          "name": "_governor",
          "type": "address"
        },
        {
          "internalType": "address",
          "name": "_owner",
          "type": "address"
        },
        {
          "internalType": "uint256",
          "name": "_minimumCommission",
          "type": "uint256"
        }
      ],
      "name": "initialize",
      "outputs": [],
      "stateMutability": "nonpayable",
      "type": "function"
    },
    {
      "inputs": [],
      "name": "minimumCommission",
      "outputs": [
        {
          "internalType": "uint256",
          "name": "",
          "type": "uint256"
        }
      ],
      "stateMutability": "view",
      "type": "function"
    },
    {
      "inputs": [],
      "name": "owner",
      "outputs": [
        {
          "internalType": "address",
          "name": "",
          "type": "address"
        }
      ],
      "stateMutability": "view",
      "type": "function"
    },
    {
      "inputs": [],
      "name": "renounceOwnership",
      "outputs": [],
      "stateMutability": "nonpayable",
      "type": "function"
    },
    {
      "inputs": [
        {
          "internalType": "address",
          "name": "_beneficiaryAddress",
          "type": "address"
        }
      ],
      "name": "setBeneficiaryAddress",
      "outputs": [],
      "stateMutability": "nonpayable",
      "type": "function"
    },
    {
      "inputs": [
        {
          "internalType": "uint256",
          "name": "_cancelationPenaltyRate",
          "type": "uint256"
        }
      ],
      "name": "setCancelationPenaltyRate",
      "outputs": [],
      "stateMutability": "nonpayable",
      "type": "function"
    },
    {
      "inputs": [
        {
          "internalType": "uint256",
          "name": "_commissionRate",
          "type": "uint256"
        }
      ],
      "name": "setCommissionRate",
      "outputs": [],
      "stateMutability": "nonpayable",
      "type": "function"
    },
    {
      "inputs": [
        {
          "internalType": "uint256",
          "name": "_expirationPenaltyRate",
          "type": "uint256"
        }
      ],
      "name": "setExpirationPenaltyRate",
      "outputs": [],
      "stateMutability": "nonpayable",
      "type": "function"
    },
    {
      "inputs": [
        {
          "internalType": "uint256",
          "name": "_minimumCommission",
          "type": "uint256"
        }
      ],
      "name": "setMinimumCommission",
      "outputs": [],
      "stateMutability": "nonpayable",
      "type": "function"
    },
    {
      "inputs": [
        {
          "internalType": "address",
          "name": "newOwner",
          "type": "address"
        }
      ],
      "name": "transferOwnership",
      "outputs": [],
      "stateMutability": "nonpayable",
      "type": "function"
    }
  ],
  "bytecode": "0x608060405234801561001057600080fd5b50338061003757604051631e4fbdf760e01b81526000600482015260240160405180910390fd5b61004081610046565b50610098565b606680546001600160a01b038381166001600160a01b0319831681179093556040519116919082907f8be0079c531659141344cd1fd0a4f28419497f9722a3daafe3b4186f6b6457e090600090a35050565b610edb806100a76000396000f3fe608060405234801561001057600080fd5b506004361061014d5760003560e01c8063715018a6116100c3578063cb5f03481161007c578063cb5f034814610289578063d9c4870e1461029c578063e3866c9a146102af578063ec6be06e146102c2578063ed25c27a146102d5578063f2fde38b146102f557600080fd5b8063715018a61461022457806378b298f41461022c5780638da5cb5b1461023f578063b6e0833014610250578063c4d66de814610263578063ca1fa2fd1461027657600080fd5b80632b3ba681116101155780632b3ba681146101ca578063315959e3146101d9578063478dedbb146101ec5780635ea1d6f8146101ff5780636514aaca14610208578063698f313e1461021157600080fd5b806305bfe69514610152578063084cb5dc1461016e5780630b78716a146101775780630c340a241461018a57806319fac8fd146101b5575b600080fd5b61015b606b5481565b6040519081526020015b60405180910390f35b61015b606a5481565b61015b610185366004610bb5565b610308565b60335461019d906001600160a01b031681565b6040516001600160a01b039091168152602001610165565b6101c86101c3366004610bf6565b610381565b005b61015b670de0b6b3a764000081565b6101c86101e7366004610bf6565b6103c1565b61015b6101fa366004610c1d565b6103f8565b61015b60695481565b61015b606c5481565b6101c861021f366004610bf6565b610425565b6101c8610432565b61015b61023a366004610c5f565b610446565b6066546001600160a01b031661019d565b6101c861025e366004610c81565b6104a6565b6101c8610271366004610c81565b6104d0565b6101c8610284366004610c81565b610562565b6101c8610297366004610bf6565b610584565b60685461019d906001600160a01b031681565b6101c86102bd366004610c9e565b6105bb565b6101c86102d0366004610c81565b6108d8565b61015b6102e3366004610c81565b60676020526000908152604090205481565b6101c8610303366004610c81565b610962565b60006103126109a0565b8385101561032257610322610d10565b60006103388661033287876109cd565b90610a03565b6001600160a01b03841660009081526067602052604090205490915061035e9082610a16565b6001600160a01b0384166000908152606760205260409020559050949350505050565b610389610a34565b80670de0b6b3a76400008111156103bb5760405162461bcd60e51b81526004016103b290610d26565b60405180910390fd5b50606955565b6103c9610a34565b80670de0b6b3a76400008111156103f25760405162461bcd60e51b81526004016103b290610d26565b50606b55565b60006104026109a0565b61041d848361041357606a54610417565b606b545b85610aed565b949350505050565b61042d610a34565b606c55565b61043a6109a0565b6104446000610b4e565b565b60008061046a83610332670de0b6b3a7640000606c546109cd90919063ffffffff16565b9050600061048f670de0b6b3a7640000610332606954886109cd90919063ffffffff16565b905061049b8282610a16565b925050505b92915050565b6104ae610a34565b603380546001600160a01b0319166001600160a01b0392909216919091179055565b600054610100900460ff16806104e55750303b155b806104f3575060005460ff16155b61050f5760405162461bcd60e51b81526004016103b290610d68565b600054610100900460ff16158015610531576000805461ffff19166101011790555b603380546001600160a01b0319166001600160a01b038416179055801561055e576000805461ff00191690555b5050565b61056a6109a0565b6001600160a01b0316600090815260676020526040812055565b61058c610a34565b80670de0b6b3a76400008111156105b55760405162461bcd60e51b81526004016103b290610d26565b50606a55565b600054610100900460ff16806105d05750303b155b806105de575060005460ff16155b6105fa5760405162461bcd60e51b81526004016103b290610d68565b600054610100900460ff1615801561061c576000805461ffff19166101011790555b87604051806060016040528060218152602001610e8560219139806001600160a01b03831661065e5760405162461bcd60e51b81526004016103b29190610db6565b5060408051808201909152601781527f676f7665726e6f722063616e6e6f74206265206e756c6c00000000000000000060208201528690806001600160a01b0383166106bd5760405162461bcd60e51b81526004016103b29190610db6565b506040805180820190915260148152731bdddb995c8818d85b9b9bdd081899481b9d5b1b60621b60208201528790806001600160a01b0383166107135760405162461bcd60e51b81526004016103b29190610db6565b50670de0b6b3a76400008d11156107815760405162461bcd60e51b815260206004820152602c60248201527f636f6d6d697373696f6e526174652073686f756c6420746f20626520696e207260448201526b656c6174696f6e20746f203160a01b60648201526084016103b2565b670de0b6b3a76400008c11156107f65760405162461bcd60e51b815260206004820152603460248201527f63616e63656c6174696f6e50656e616c7479526174652073686f756c6420746f60448201527320626520696e2072656c6174696f6e20746f203160601b60648201526084016103b2565b670de0b6b3a76400008b111561086a5760405162461bcd60e51b815260206004820152603360248201527f65787069726174696f6e50656e616c7479526174652073686f756c6420746f20604482015272626520696e2072656c6174696f6e20746f203160681b60648201526084016103b2565b8d606860006101000a8154816001600160a01b0302191690836001600160a01b031602179055508c60698190555087606c819055508b606a819055508a606b819055506108b68a6104d0565b50505050505080156108ce576000805461ff00191690555b5050505050505050565b6108e0610a34565b6001600160a01b0381166109405760405162461bcd60e51b815260206004820152602160248201527f62656e6566696369617279416464726573732063616e6e6f74206265206e756c6044820152601b60fa1b60648201526084016103b2565b606880546001600160a01b0319166001600160a01b0392909216919091179055565b61096a6109a0565b6001600160a01b03811661099457604051631e4fbdf760e01b8152600060048201526024016103b2565b61099d81610b4e565b50565b6066546001600160a01b031633146104445760405163118cdaa760e01b81523360048201526024016103b2565b6000826000036109df575060006104a0565b6109e98284610e1b565b9050816109f68483610e32565b146104a0576104a0610d10565b6000610a0f8284610e32565b9392505050565b6000610a228284610e54565b9050828110156104a0576104a0610d10565b60335460405163d994d6d560e01b81523360048201526001600160a01b039091169063d994d6d590602401602060405180830381865afa158015610a7c573d6000803e3d6000fd5b505050506040513d601f19601f82011682018060405250810190610aa09190610e67565b604051806040016040528060168152602001753737ba2fb0baba3437b934bd32b22fb1b430b733b2b960511b8152509061099d5760405162461bcd60e51b81526004016103b29190610db6565b600080610b06670de0b6b3a764000061033287876109cd565b6001600160a01b038416600090815260676020526040902054909150610b2c9082610a16565b6001600160a01b03841660009081526067602052604090205590509392505050565b606680546001600160a01b038381166001600160a01b0319831681179093556040519116919082907f8be0079c531659141344cd1fd0a4f28419497f9722a3daafe3b4186f6b6457e090600090a35050565b6001600160a01b038116811461099d57600080fd5b60008060008060808587031215610bcb57600080fd5b8435935060208501359250604085013591506060850135610beb81610ba0565b939692955090935050565b600060208284031215610c0857600080fd5b5035919050565b801515811461099d57600080fd5b600080600060608486031215610c3257600080fd5b833592506020840135610c4481610ba0565b91506040840135610c5481610c0f565b809150509250925092565b60008060408385031215610c7257600080fd5b50508035926020909101359150565b600060208284031215610c9357600080fd5b8135610a0f81610ba0565b600080600080600080600060e0888a031215610cb957600080fd5b8735610cc481610ba0565b96506020880135955060408801359450606088013593506080880135610ce981610ba0565b925060a0880135610cf981610ba0565b8092505060c0880135905092959891949750929550565b634e487b7160e01b600052600160045260246000fd5b60208082526022908201527f726174652073686f756c6420746f20626520696e2072656c6174696f6e20746f604082015261203160f01b606082015260800190565b6020808252602e908201527f436f6e747261637420696e7374616e63652068617320616c726561647920626560408201526d195b881a5b9a5d1a585b1a5e995960921b606082015260800190565b60006020808352835180602085015260005b81811015610de457858101830151858201604001528201610dc8565b506000604082860101526040601f19601f8301168501019250505092915050565b634e487b7160e01b600052601160045260246000fd5b80820281158282048414176104a0576104a0610e05565b600082610e4f57634e487b7160e01b600052601260045260246000fd5b500490565b808201808211156104a0576104a0610e05565b600060208284031215610e7957600080fd5b8151610a0f81610c0f56fe62656e6566696369617279416464726573732063616e6e6f74206265206e756c6ca264697066735822122044bad5b82e9ded6320b26ae9dd0477260509f1d7883eb12ce7376d9dcbb45d7164736f6c63430008180033",
  "linkReferences": {},
  "deployedLinkReferences": {}
}