{
  "_format": "hh-sol-artifact-1",
  "contractName": "Governor",
  "sourceName": "contracts/Governance/Governor.sol",
  "abi": [
    {
      "inputs": [],
      "stateMutability": "nonpayable",
      "type": "constructor"
    },
    {
      "inputs": [
        {
          "internalType": "address",
          "name": "owner",
          "type": "address"
        }
      ],
      "name": "OwnableInvalidOwner",
      "type": "error"
    },
    {
      "inputs": [
        {
          "internalType": "address",
          "name": "account",
          "type": "address"
        }
      ],
      "name": "OwnableUnauthorizedAccount",
      "type": "error"
    },
    {
      "inputs": [],
      "name": "ReentrancyGuardReentrantCall",
      "type": "error"
    },
    {
      "anonymous": false,
      "inputs": [
        {
          "indexed": true,
          "internalType": "address",
          "name": "previousOwner",
          "type": "address"
        },
        {
          "indexed": true,
          "internalType": "address",
          "name": "newOwner",
          "type": "address"
        }
      ],
      "name": "OwnershipTransferred",
      "type": "event"
    },
    {
      "inputs": [
        {
          "internalType": "contract ChangeContract",
          "name": "changeContract",
          "type": "address"
        }
      ],
      "name": "executeChange",
      "outputs": [],
      "stateMutability": "nonpayable",
      "type": "function"
    },
    {
      "inputs": [
        {
          "internalType": "address",
          "name": "_changer",
          "type": "address"
        }
      ],
      "name": "isAuthorizedChanger",
      "outputs": [
        {
          "internalType": "bool",
          "name": "",
          "type": "bool"
        }
      ],
      "stateMutability": "view",
      "type": "function"
    },
    {
      "inputs": [],
      "name": "owner",
      "outputs": [
        {
          "internalType": "address",
          "name": "",
          "type": "address"
        }
      ],
      "stateMutability": "view",
      "type": "function"
    },
    {
      "inputs": [],
      "name": "renounceOwnership",
      "outputs": [],
      "stateMutability": "nonpayable",
      "type": "function"
    },
    {
      "inputs": [
        {
          "internalType": "address",
          "name": "newOwner",
          "type": "address"
        }
      ],
      "name": "transferOwnership",
      "outputs": [],
      "stateMutability": "nonpayable",
      "type": "function"
    }
  ],
  "bytecode": "0x608060405234801561001057600080fd5b506001600055338061003c57604051631e4fbdf760e01b81526000600482015260240160405180910390fd5b6100458161004b565b5061009d565b600180546001600160a01b038381166001600160a01b0319831681179093556040519116919082907f8be0079c531659141344cd1fd0a4f28419497f9722a3daafe3b4186f6b6457e090600090a35050565b6102f3806100ac6000396000f3fe608060405234801561001057600080fd5b50600436106100575760003560e01c8063715018a61461005c5780638c777e82146100665780638da5cb5b14610079578063d994d6d514610099578063f2fde38b146100cb575b600080fd5b6100646100de565b005b610064610074366004610299565b6100f2565b6001546040516001600160a01b0390911681526020015b60405180910390f35b6100bb6100a7366004610299565b6002546001600160a01b0390811691161490565b6040519015158152602001610090565b6100646100d9366004610299565b6100fe565b6100e661013e565b6100f0600061016b565b565b6100fb816101bd565b50565b61010661013e565b6001600160a01b03811661013557604051631e4fbdf760e01b8152600060048201526024015b60405180910390fd5b6100fb8161016b565b6001546001600160a01b031633146100f05760405163118cdaa760e01b815233600482015260240161012c565b600180546001600160a01b038381166001600160a01b0319831681179093556040519116919082907f8be0079c531659141344cd1fd0a4f28419497f9722a3daafe3b4186f6b6457e090600090a35050565b6101c561025a565b6101cd61013e565b600280546001600160a01b0319166001600160a01b038316179055806001600160a01b031663614619546040518163ffffffff1660e01b8152600401600060405180830381600087803b15801561022357600080fd5b505af1158015610237573d6000803e3d6000fd5b50505050610250600280546001600160a01b0319169055565b6100fb6001600055565b60026000540361027d57604051633ee5aeb560e01b815260040160405180910390fd5b6002600055565b6001600160a01b03811681146100fb57600080fd5b6000602082840312156102ab57600080fd5b81356102b681610284565b939250505056fea2646970667358221220c628c702ed33d044842dffe4d02ae3718946d2c919a5229b915c1944a8d1681064736f6c63430008180033",
  "linkReferences": {},
  "deployedLinkReferences": {}
}