{
  "_format": "hh-sol-artifact-1",
  "contractName": "Governor",
  "sourceName": "contracts/Governance/Governor.sol",
  "abi": [
    {
      "inputs": [],
      "stateMutability": "nonpayable",
      "type": "constructor"
    },
    {
      "inputs": [
        {
          "internalType": "address",
          "name": "owner",
          "type": "address"
        }
      ],
      "name": "OwnableInvalidOwner",
      "type": "error"
    },
    {
      "inputs": [
        {
          "internalType": "address",
          "name": "account",
          "type": "address"
        }
      ],
      "name": "OwnableUnauthorizedAccount",
      "type": "error"
    },
    {
      "inputs": [],
      "name": "ReentrancyGuardReentrantCall",
      "type": "error"
    },
    {
      "anonymous": false,
      "inputs": [
        {
          "indexed": true,
          "internalType": "address",
          "name": "previousOwner",
          "type": "address"
        },
        {
          "indexed": true,
          "internalType": "address",
          "name": "newOwner",
          "type": "address"
        }
      ],
      "name": "OwnershipTransferred",
      "type": "event"
    },
    {
      "inputs": [
        {
          "internalType": "contract ChangeContract",
          "name": "changeContract",
          "type": "address"
        }
      ],
      "name": "executeChange",
      "outputs": [],
      "stateMutability": "nonpayable",
      "type": "function"
    },
    {
      "inputs": [
        {
          "internalType": "address",
          "name": "_changer",
          "type": "address"
        }
      ],
      "name": "isAuthorizedChanger",
      "outputs": [
        {
          "internalType": "bool",
          "name": "",
          "type": "bool"
        }
      ],
      "stateMutability": "view",
      "type": "function"
    },
    {
      "inputs": [],
      "name": "owner",
      "outputs": [
        {
          "internalType": "address",
          "name": "",
          "type": "address"
        }
      ],
      "stateMutability": "view",
      "type": "function"
    },
    {
      "inputs": [],
      "name": "renounceOwnership",
      "outputs": [],
      "stateMutability": "nonpayable",
      "type": "function"
    },
    {
      "inputs": [
        {
          "internalType": "address",
          "name": "newOwner",
          "type": "address"
        }
      ],
      "name": "transferOwnership",
      "outputs": [],
      "stateMutability": "nonpayable",
      "type": "function"
    }
  ],
  "bytecode": "0x608060405234801561001057600080fd5b506001600055338061003c57604051631e4fbdf760e01b81526000600482015260240160405180910390fd5b6100458161004b565b506100a5565b600180546001600160a01b03838116610100818102610100600160a81b031985161790945560405193909204169182907f8be0079c531659141344cd1fd0a4f28419497f9722a3daafe3b4186f6b6457e090600090a35050565b61030f806100b46000396000f3fe608060405234801561001057600080fd5b50600436106100575760003560e01c8063715018a61461005c5780638c777e82146100665780638da5cb5b14610079578063d994d6d5146100a7578063f2fde38b146100d9575b600080fd5b6100646100ec565b005b6100646100743660046102b5565b610100565b60015461010090046001600160a01b03166040516001600160a01b0390911681526020015b60405180910390f35b6100c96100b53660046102b5565b6002546001600160a01b0390811691161490565b604051901515815260200161009e565b6100646100e73660046102b5565b61010c565b6100f461014c565b6100fe600061017f565b565b610109816101d9565b50565b61011461014c565b6001600160a01b03811661014357604051631e4fbdf760e01b8152600060048201526024015b60405180910390fd5b6101098161017f565b6001546001600160a01b036101009091041633146100fe5760405163118cdaa760e01b815233600482015260240161013a565b600180546001600160a01b03838116610100818102610100600160a81b031985161790945560405193909204169182907f8be0079c531659141344cd1fd0a4f28419497f9722a3daafe3b4186f6b6457e090600090a35050565b6101e1610276565b6101e961014c565b600280546001600160a01b0319166001600160a01b038316179055806001600160a01b031663614619546040518163ffffffff1660e01b8152600401600060405180830381600087803b15801561023f57600080fd5b505af1158015610253573d6000803e3d6000fd5b5050505061026c600280546001600160a01b0319169055565b6101096001600055565b60026000540361029957604051633ee5aeb560e01b815260040160405180910390fd5b6002600055565b6001600160a01b038116811461010957600080fd5b6000602082840312156102c757600080fd5b81356102d2816102a0565b939250505056fea2646970667358221220e4d8be14630cb89543175bd87180f4865123e85b974b786306e770a33f67ecfb64736f6c63430008180033",
  "linkReferences": {},
  "deployedLinkReferences": {}
}