{
  "_format": "hh-sol-artifact-1",
  "contractName": "PriceProviderChanger",
  "sourceName": "contracts/changers/PriceProviderChanger.sol",
  "abi": [
    {
      "inputs": [
        {
          "internalType": "contract TokenPairListing",
          "name": "_tokenPairListing",
          "type": "address"
        },
        {
          "internalType": "address",
          "name": "_baseToken",
          "type": "address"
        },
        {
          "internalType": "address",
          "name": "_secondaryToken",
          "type": "address"
        },
        {
          "internalType": "address",
          "name": "_priceProvider",
          "type": "address"
        }
      ],
      "stateMutability": "nonpayable",
      "type": "constructor"
    },
    {
      "inputs": [],
      "name": "baseToken",
      "outputs": [
        {
          "internalType": "address",
          "name": "",
          "type": "address"
        }
      ],
      "stateMutability": "view",
      "type": "function"
    },
    {
      "inputs": [],
      "name": "execute",
      "outputs": [],
      "stateMutability": "nonpayable",
      "type": "function"
    },
    {
      "inputs": [],
      "name": "priceProvider",
      "outputs": [
        {
          "internalType": "address",
          "name": "",
          "type": "address"
        }
      ],
      "stateMutability": "view",
      "type": "function"
    },
    {
      "inputs": [],
      "name": "secondaryToken",
      "outputs": [
        {
          "internalType": "address",
          "name": "",
          "type": "address"
        }
      ],
      "stateMutability": "view",
      "type": "function"
    },
    {
      "inputs": [],
      "name": "tokenPairListing",
      "outputs": [
        {
          "internalType": "contract TokenPairListing",
          "name": "",
          "type": "address"
        }
      ],
      "stateMutability": "view",
      "type": "function"
    }
  ],
  "bytecode": "0x608060405234801561001057600080fd5b5060405161028438038061028483398101604081905261002f9161009a565b600080546001600160a01b039586166001600160a01b03199182161790915560018054948616948216949094179093556002805492851692841692909217909155600380549190931691161790556100f9565b6001600160a01b038116811461009757600080fd5b50565b600080600080608085870312156100b057600080fd5b84516100bb81610082565b60208601519094506100cc81610082565b60408601519093506100dd81610082565b60608601519092506100ee81610082565b939692955090935050565b61017c806101086000396000f3fe608060405234801561001057600080fd5b50600436106100575760003560e01c806333fe4f751461005c578063614619541461008b578063b888879e14610095578063c55dae63146100a8578063f4eb08db146100bb575b600080fd5b60005461006f906001600160a01b031681565b6040516001600160a01b03909116815260200160405180910390f35b6100936100ce565b005b60035461006f906001600160a01b031681565b60015461006f906001600160a01b031681565b60025461006f906001600160a01b031681565b6000546001546002546003546040516337db027360e01b81526001600160a01b0393841660048201529183166024830152821660448201529116906337db027390606401600060405180830381600087803b15801561012c57600080fd5b505af1158015610140573d6000803e3d6000fd5b5050505056fea264697066735822122084170adaac5ba92e2a056b7222cb8882030900c1c2ae5580fdc3b0c996b653bc64736f6c63430008180033",
  "linkReferences": {},
  "deployedLinkReferences": {}
}