{
  "_format": "hh-sol-artifact-1",
  "contractName": "MocRiskProUsdPriceProviderFallback",
  "sourceName": "contracts/price-providers/MocRiskProUsdPriceProviderFallback.sol",
  "abi": [
    {
      "inputs": [
        {
          "internalType": "contract IRRC20State",
          "name": "_mocState",
          "type": "address"
        },
        {
          "internalType": "contract IMoCDecentralizedExchange",
          "name": "_dex",
          "type": "address"
        },
        {
          "internalType": "address",
          "name": "_baseToken",
          "type": "address"
        },
        {
          "internalType": "address",
          "name": "_secondaryToken",
          "type": "address"
        }
      ],
      "stateMutability": "nonpayable",
      "type": "constructor"
    },
    {
      "inputs": [],
      "name": "baseToken",
      "outputs": [
        {
          "internalType": "address",
          "name": "",
          "type": "address"
        }
      ],
      "stateMutability": "view",
      "type": "function"
    },
    {
      "inputs": [],
      "name": "dex",
      "outputs": [
        {
          "internalType": "contract IMoCDecentralizedExchange",
          "name": "",
          "type": "address"
        }
      ],
      "stateMutability": "view",
      "type": "function"
    },
    {
      "inputs": [],
      "name": "mocState",
      "outputs": [
        {
          "internalType": "contract IRRC20State",
          "name": "",
          "type": "address"
        }
      ],
      "stateMutability": "view",
      "type": "function"
    },
    {
      "inputs": [],
      "name": "peek",
      "outputs": [
        {
          "internalType": "bytes32",
          "name": "",
          "type": "bytes32"
        },
        {
          "internalType": "bool",
          "name": "",
          "type": "bool"
        }
      ],
      "stateMutability": "view",
      "type": "function"
    },
    {
      "inputs": [],
      "name": "secondaryToken",
      "outputs": [
        {
          "internalType": "address",
          "name": "",
          "type": "address"
        }
      ],
      "stateMutability": "view",
      "type": "function"
    }
  ],
  "bytecode": "0x608060405234801561001057600080fd5b506040516104d83803806104d883398101604081905261002f9161009b565b600080546001600160a01b03199081166001600160a01b03958616179091556001805482169385169390931790925560028054831691841691909117905560038054909116929091169190911790556100fa565b6001600160a01b038116811461009857600080fd5b50565b600080600080608085870312156100b157600080fd5b84516100bc81610083565b60208601519094506100cd81610083565b60408601519093506100de81610083565b60608601519092506100ef81610083565b939692955090935050565b6103cf806101096000396000f3fe608060405234801561001057600080fd5b50600436106100575760003560e01c806312529f1f1461005c57806359e02dd71461008c578063692058c2146100a9578063c55dae63146100bc578063f4eb08db146100cf575b600080fd5b60035461006f906001600160a01b031681565b6040516001600160a01b0390911681526020015b60405180910390f35b6100946100e2565b60408051928352901515602083015201610083565b60005461006f906001600160a01b031681565b60015461006f906001600160a01b031681565b60025461006f906001600160a01b031681565b6000806000806100f0610117565b9150915060008161010857610103610295565b61010a565b825b9586151595509350505050565b6000806000600360009054906101000a90046001600160a01b03166001600160a01b0316630a065fb66040518163ffffffff1660e01b8152600401602060405180830381865afa15801561016f573d6000803e3d6000fd5b505050506040513d601f19601f82011682018060405250810190610193919061031b565b9050600080826001600160a01b03166359e02dd76040518163ffffffff1660e01b81526004016040805180830381865afa1580156101d5573d6000803e3d6000fd5b505050506040513d601f19601f820116820180604052508101906101f9919061034b565b9150915080801561020957508115155b1561028a576003546040805163424ebf4360e11b815290516000926001600160a01b03169163849d7e869160048083019260209291908290030181865afa158015610258573d6000803e3d6000fd5b505050506040513d601f19601f8201168201806040525081019061027c9190610380565b968715159650945050505050565b509360009350915050565b600080546001546002546040516350090c6b60e01b81526001600160a01b0392831660048201529082166024820152839291909116906350090c6b90604401602060405180830381865afa1580156102f1573d6000803e3d6000fd5b505050506040513d601f19601f820116820180604052508101906103159190610380565b92915050565b60006020828403121561032d57600080fd5b81516001600160a01b038116811461034457600080fd5b9392505050565b6000806040838503121561035e57600080fd5b825191506020830151801515811461037557600080fd5b809150509250929050565b60006020828403121561039257600080fd5b505191905056fea26469706673582212207044b103bb7ded892e8ec08a086ff8b1e9d378f258a78cbececbc0012a82f6c464736f6c63430008180033",
  "linkReferences": {},
  "deployedLinkReferences": {}
}