{
  "_format": "hh-sol-artifact-1",
  "contractName": "MoCExchangeLib",
  "sourceName": "contracts/libs/MoCExchangeLib.sol",
  "abi": [
    {
      "anonymous": false,
      "inputs": [
        {
          "indexed": true,
          "internalType": "uint256",
          "name": "orderId",
          "type": "uint256"
        },
        {
          "indexed": false,
          "internalType": "uint256",
          "name": "amountSent",
          "type": "uint256"
        },
        {
          "indexed": false,
          "internalType": "uint256",
          "name": "commission",
          "type": "uint256"
        },
        {
          "indexed": false,
          "internalType": "uint256",
          "name": "change",
          "type": "uint256"
        },
        {
          "indexed": false,
          "internalType": "uint256",
          "name": "received",
          "type": "uint256"
        },
        {
          "indexed": false,
          "internalType": "uint256",
          "name": "remainingAmount",
          "type": "uint256"
        },
        {
          "indexed": false,
          "internalType": "uint256",
          "name": "matchPrice",
          "type": "uint256"
        },
        {
          "indexed": false,
          "internalType": "uint64",
          "name": "tickNumber",
          "type": "uint64"
        }
      ],
      "name": "BuyerMatch",
      "type": "event"
    },
    {
      "anonymous": false,
      "inputs": [
        {
          "indexed": false,
          "internalType": "address",
          "name": "token",
          "type": "address"
        },
        {
          "indexed": false,
          "internalType": "address",
          "name": "commissionBeneficiary",
          "type": "address"
        },
        {
          "indexed": false,
          "internalType": "uint256",
          "name": "withdrawnAmount",
          "type": "uint256"
        }
      ],
      "name": "CommissionWithdrawn",
      "type": "event"
    },
    {
      "anonymous": false,
      "inputs": [
        {
          "indexed": true,
          "internalType": "uint256",
          "name": "orderId",
          "type": "uint256"
        },
        {
          "indexed": true,
          "internalType": "address",
          "name": "owner",
          "type": "address"
        },
        {
          "indexed": false,
          "internalType": "uint256",
          "name": "returnedAmount",
          "type": "uint256"
        },
        {
          "indexed": false,
          "internalType": "uint256",
          "name": "commission",
          "type": "uint256"
        },
        {
          "indexed": false,
          "internalType": "uint256",
          "name": "returnedCommission",
          "type": "uint256"
        }
      ],
      "name": "ExpiredOrderProcessed",
      "type": "event"
    },
    {
      "anonymous": false,
      "inputs": [
        {
          "indexed": true,
          "internalType": "uint256",
          "name": "id",
          "type": "uint256"
        },
        {
          "indexed": false,
          "internalType": "uint256",
          "name": "notIndexedArgumentSoTheThingDoesntBreak",
          "type": "uint256"
        }
      ],
      "name": "NewOrderAddedToPendingQueue",
      "type": "event"
    },
    {
      "anonymous": false,
      "inputs": [
        {
          "indexed": true,
          "internalType": "uint256",
          "name": "id",
          "type": "uint256"
        },
        {
          "indexed": true,
          "internalType": "address",
          "name": "sender",
          "type": "address"
        },
        {
          "indexed": false,
          "internalType": "address",
          "name": "baseTokenAddress",
          "type": "address"
        },
        {
          "indexed": false,
          "internalType": "address",
          "name": "secondaryTokenAddress",
          "type": "address"
        },
        {
          "indexed": false,
          "internalType": "uint256",
          "name": "exchangeableAmount",
          "type": "uint256"
        },
        {
          "indexed": false,
          "internalType": "uint256",
          "name": "reservedCommission",
          "type": "uint256"
        },
        {
          "indexed": false,
          "internalType": "uint256",
          "name": "price",
          "type": "uint256"
        },
        {
          "indexed": false,
          "internalType": "uint256",
          "name": "multiplyFactor",
          "type": "uint256"
        },
        {
          "indexed": false,
          "internalType": "uint64",
          "name": "expiresInTick",
          "type": "uint64"
        },
        {
          "indexed": false,
          "internalType": "bool",
          "name": "isBuy",
          "type": "bool"
        },
        {
          "indexed": false,
          "internalType": "enum MoCExchangeLib.OrderType",
          "name": "orderType",
          "type": "uint8"
        }
      ],
      "name": "NewOrderInserted",
      "type": "event"
    },
    {
      "anonymous": false,
      "inputs": [
        {
          "indexed": true,
          "internalType": "uint256",
          "name": "orderId",
          "type": "uint256"
        },
        {
          "indexed": false,
          "internalType": "uint256",
          "name": "amountSent",
          "type": "uint256"
        },
        {
          "indexed": false,
          "internalType": "uint256",
          "name": "commission",
          "type": "uint256"
        },
        {
          "indexed": false,
          "internalType": "uint256",
          "name": "received",
          "type": "uint256"
        },
        {
          "indexed": false,
          "internalType": "uint256",
          "name": "surplus",
          "type": "uint256"
        },
        {
          "indexed": false,
          "internalType": "uint256",
          "name": "remainingAmount",
          "type": "uint256"
        },
        {
          "indexed": false,
          "internalType": "uint256",
          "name": "matchPrice",
          "type": "uint256"
        },
        {
          "indexed": false,
          "internalType": "uint64",
          "name": "tickNumber",
          "type": "uint64"
        }
      ],
      "name": "SellerMatch",
      "type": "event"
    },
    {
      "anonymous": false,
      "inputs": [
        {
          "indexed": true,
          "internalType": "address",
          "name": "baseTokenAddress",
          "type": "address"
        },
        {
          "indexed": true,
          "internalType": "address",
          "name": "secondaryTokenAddress",
          "type": "address"
        },
        {
          "indexed": true,
          "internalType": "uint64",
          "name": "number",
          "type": "uint64"
        },
        {
          "indexed": false,
          "internalType": "uint256",
          "name": "nextTickBlock",
          "type": "uint256"
        },
        {
          "indexed": false,
          "internalType": "uint256",
          "name": "closingPrice",
          "type": "uint256"
        }
      ],
      "name": "TickEnd",
      "type": "event"
    },
    {
      "anonymous": false,
      "inputs": [
        {
          "indexed": true,
          "internalType": "address",
          "name": "_tokenAddress",
          "type": "address"
        },
        {
          "indexed": true,
          "internalType": "address",
          "name": "_to",
          "type": "address"
        },
        {
          "indexed": false,
          "internalType": "uint256",
          "name": "_amount",
          "type": "uint256"
        },
        {
          "indexed": false,
          "internalType": "bool",
          "name": "_isRevert",
          "type": "bool"
        }
      ],
      "name": "TransferFailed",
      "type": "event"
    },
    {
      "inputs": [
        {
          "internalType": "uint256",
          "name": "_oldEMA",
          "type": "uint256"
        },
        {
          "internalType": "uint256",
          "name": "_newValue",
          "type": "uint256"
        },
        {
          "internalType": "uint256",
          "name": "_smoothingFactor",
          "type": "uint256"
        },
        {
          "internalType": "uint256",
          "name": "_factorPrecision",
          "type": "uint256"
        }
      ],
      "name": "calculateNewEMA",
      "outputs": [
        {
          "internalType": "uint256",
          "name": "",
          "type": "uint256"
        }
      ],
      "stateMutability": "pure",
      "type": "function"
    },
    {
      "inputs": [
        {
          "internalType": "uint256",
          "name": "_buyAmount",
          "type": "uint256"
        },
        {
          "internalType": "uint256",
          "name": "_buyPrice",
          "type": "uint256"
        },
        {
          "internalType": "uint256",
          "name": "_sellAmount",
          "type": "uint256"
        },
        {
          "internalType": "uint256",
          "name": "_priceComparisonPrecision",
          "type": "uint256"
        }
      ],
      "name": "compareIntents",
      "outputs": [
        {
          "internalType": "uint256",
          "name": "limitingAmount",
          "type": "uint256"
        },
        {
          "internalType": "enum MoCExchangeLib.MatchType",
          "name": "matchType",
          "type": "MoCExchangeLib.MatchType"
        }
      ],
      "stateMutability": "pure",
      "type": "function"
    }
  ],
  "bytecode": "0x61551f61003a600b82828239805160001a60731461002d57634e487b7160e01b600052600060045260246000fd5b30600052607381538281f3fe73000000000000000000000000000000000000000030146080604052600436106102525760003560e01c8063a433a92a11610145578063d34e59d8116100c2578063e9322fe111610086578063e9322fe11461069d578063ea850a41146106bd578063ef6d501c146106d0578063f786a140146106f0578063fcd240031461072357600080fd5b8063d34e59d81461060a578063d4b21bd21461062a578063d50d46a41461064a578063d83fd36a1461066a578063e71df4281461068a57600080fd5b8063c089848111610109578063c08984811461057c578063c62347f01461058f578063c8b8dded146105a2578063cf1ba066146105b5578063d0553f66146105ea57600080fd5b8063a433a92a146104dc578063a82a5759146104fc578063aab4ca7e1461051c578063ab6250321461053c578063af5331781461055c57600080fd5b806341ff1444116101d357806370f7d79b1161019757806370f7d79b1461044b57806392e7f04e1461046b5780639ac754fd1461047e5780639feb85471461049f578063a2737a2e146104c957600080fd5b806341ff1444146103c557806342d6fd32146103e55780634356154a146103f8578063582e61a91461040b5780636c8b57981461042b57600080fd5b80632bc769f41161021a5780632bc769f41461030f5780632e3c578f1461033d5780632f554eb91461035d578063323bfe2114610370578063332d3ca51461038357600080fd5b80630f0ea5af14610257578063126fd5b41461028c57806317b445f4146102ba5780631defbdbf146102cf57806325242cf5146102ef575b600080fd5b81801561026357600080fd5b50610277610272366004614be3565b610743565b60405190151581526020015b60405180910390f35b81801561029857600080fd5b506102ac6102a7366004614c3b565b610bbd565b604051908152602001610283565b6102cd6102c8366004614cbf565b610f3d565b005b8180156102db57600080fd5b506102cd6102ea366004614ceb565b610f5f565b8180156102fb57600080fd5b506102cd61030a366004614be3565b610f8d565b61032261031d366004614d47565b611018565b60408051938452602084019290925290820152606001610283565b81801561034957600080fd5b506102cd610358366004614d84565b611061565b61032261036b366004614de9565b611177565b6102ac61037e366004614be3565b6111fc565b81801561038f57600080fd5b506103a361039e366004614e2f565b6112c7565b6040805194151585526020850193909352918301526060820152608001610283565b8180156103d157600080fd5b506102776103e0366004614e9f565b611387565b6102ac6103f3366004614efe565b6114e5565b6102cd610406366004614cbf565b611534565b81801561041757600080fd5b506102cd610426366004614be3565b611551565b81801561043757600080fd5b50610277610446366004614e9f565b61162a565b81801561045757600080fd5b506102cd610466366004614f30565b611762565b6102ac610479366004614efe565b61177d565b61049161048c366004614efe565b611828565b604051610283929190614f97565b6104b26104ad366004614cbf565b611876565b604080519215158352602083019190915201610283565b6102ac6104d7366004614fbb565b611920565b8180156104e857600080fd5b506102776104f7366004614be3565b6119a4565b81801561050857600080fd5b506102cd610517366004614ff0565b6119f5565b81801561052857600080fd5b506102cd610537366004614d84565b611c32565b81801561054857600080fd5b50610277610557366004615029565b611c46565b81801561056857600080fd5b506102cd610577366004614d84565b611e18565b6102ac61058a366004614fbb565b611f26565b61032261059d36600461504e565b611f9f565b6102ac6105b0366004615073565b61201e565b8180156105c157600080fd5b506105d56105d0366004615095565b6120fd565b60408051928352602083019190915201610283565b8180156105f657600080fd5b506102cd6106053660046150d6565b6121e7565b81801561061657600080fd5b506102cd610625366004615145565b612216565b81801561063657600080fd5b506102776106453660046151bb565b612492565b81801561065657600080fd5b506102cd610665366004614be3565b61252f565b81801561067657600080fd5b506102cd610685366004614be3565b6126f7565b61027761069836600461504e565b61277e565b8180156106a957600080fd5b506102ac6106b836600461520b565b6127fb565b6102ac6106cb366004615073565b612a1d565b8180156106dc57600080fd5b506102cd6106eb366004615073565b612aee565b6107036106fe366004614be3565b612c56565b604080519485526020850193909352918301526060820152608001610283565b81801561072f57600080fd5b506102cd61073e366004614cbf565b612d10565b60006001603a83015460ff16600381111561076057610760614f81565b1461076d5761076d6152a3565b603b820154603983015460358401546036850154603786015460388701546025880195602d89019590949093909290916107a8858989612e4f565b6107bc575060009998505050505050505050565b604080516101208101909152885460009161086c918891908c90829060ff1660018111156107ec576107ec614f81565b60018111156107fd576107fd614f81565b815260018201546020820152600282015460408201526003820154606082015260048201546080820152600582015460a0820152600682015460c08201526007909101546001600160a01b03811660e0830152600160a01b90046001600160401b031661010090910152612ed2565b90506000806108858b60020154848c600201548c611828565b9092509050600281600281111561089e5761089e614f81565b036108cc576108ae8d6001611f9f565b919c50975095506108c08d6000611f9f565b919b509550935061096e565b60008160028111156108e0576108e0614f81565b03610911576108f08d6001611f9f565b60028d0154929d5090985096506109079083612f0a565b60028b015561096e565b600181600281111561092557610925614f81565b0361096657600061093783858c612f26565b90506109448e6000611f9f565b60028f0154929d50909750955061095b9082612f0a565b60028d01555061096e565b61096e6152a3565b6000600282600281111561098457610984614f81565b14610990576001610993565b60025b60228f015460ff9190911691506109aa9082612f36565b60228f01556109ba898d8d612e4f565b15610ba9578b5460258f0180548e9260ff1690829060ff1916600183818111156109e6576109e6614f81565b02179055506001820154816001015560028201548160020155600382015481600301556004820154816004015560058201548160050155600682015481600601556007820160009054906101000a90046001600160a01b03168160070160006101000a8154816001600160a01b0302191690836001600160a01b031602179055506007820160149054906101000a90046001600160401b03168160070160146101000a8154816001600160401b0302191690836001600160401b031602179055509050508a8e602101600c016000820160009054906101000a900460ff168160000160006101000a81548160ff02191690836001811115610ae957610ae9614f81565b0217905550600182810154828201556002808401549083015560038084015490830155600480840154908301556005808401549083015560068084015490830155600792830180549390920180546001600160a01b031981166001600160a01b03909516948517825592546001600160401b03600160a01b9182900416026001600160e01b03199093169093179190911790915560358f01989098555050505060368a019290925560378901556038909701969096555093949350505050565b5060009d9c50505050505050505050505050565b603d89015460009060ff1615610c135760405162461bcd60e51b815260206004820152601660248201527514185a5c881a185cc81899595b88191a5cd8589b195960521b60448201526064015b60405180910390fd5b85600003610c635760405162461bcd60e51b815260206004820152601d60248201527f4d756c7469706c79466163746f722063616e6e6f74206265207a65726f0000006044820152606401610c0a565b87600003610cbe5760405162461bcd60e51b815260206004820152602260248201527f45786368616e676561626c6520616d6f756e742063616e6e6f74206265207a65604482015261726f60f01b6064820152608401610c0a565b600082610cce578a600e01610cd0565b8a5b90506000610cde8a8a612f36565b600d830154604051636eb1769f60e11b81526001600160a01b03888116600483015230602483015292935083929091169063dd62ed3e90604401602060405180830381865afa158015610d35573d6000803e3d6000fd5b505050506040513d601f19601f82011682018060405250810190610d5991906152b9565b1015610d9b5760405162461bcd60e51b8152602060048201526011602482015270416c6c6f77616e636520746f6f206c6f7760781b6044820152606401610c0a565b600d8201546040516323b872dd60e01b81526001600160a01b03878116600483015230602483015260448201849052909116906323b872dd906064016020604051808303816000875af1158015610df6573d6000803e3d6000fd5b505050506040513d601f19601f82011682018060405250810190610e1a91906152d2565b610e5e5760405162461bcd60e51b8152602060048201526015602482015274151bdad95b881d1c985b9cd9995c8819985a5b1959605a1b6044820152606401610c0a565b600080603a8e015460ff166003811115610e7a57610e7a614f81565b60208f01549114159150600090610e9b908a906001600160401b0316615305565b90508115610ef257610eb2848e898f8f8f87611061565b8c7fc74df9a166181f1bd5d8a749d06b749b580e9a56e8b68530dc79d79eef0ca55b6000604051610ee591815260200190565b60405180910390a2610f2c565b60018801610f0d57610f08848e8e8e8e86611762565b610f1c565b610f1c848e8e8e8e868e610f5f565b610f2c8d8f898f8f8f878d612f54565b505050509998505050505050505050565b80600003610f5457610f4f8383612fb2565b505050565b610f4f83828461302c565b610f6a878483611534565b610f79878733888888886131c1565b610f848787836132d6565b50505050505050565b6003603a82015460ff166003811115610fa857610fa8614f81565b14610fb557610fb56152a3565b600d810154601b820154600091610fe191849160218301916001600160a01b0391821691166001611387565b90508061101457600d820154601b830154610f4f91600e85019160218601916001600160a01b0390811691166000611387565b5050565b6000806000808661102c57600e880161102e565b875b60208901549091506110509082906001600160401b0316888861036b8d6111fc565b935093509350509450945094915050565b6040805161012081019091528060018152602080820189905260408083018890526060830187905260006080840181905260a0840187905260c084018190526001600160a01b038a1660e08501526001600160401b03861661010090940193909352898352908a9052902081518154829060ff1916600183818111156110e9576110e9614f81565b02179055506020820151600182015560408201516002820155606082015160038201556080820151600482015560a0820151600582015560c0820151600682015560e082015160079091018054610100909301516001600160401b0316600160a01b026001600160e01b03199093166001600160a01b0390921691909117919091179055610f84878761334e565b600080600080611188898989611920565b905060006111978a8a89611f26565b905060006111a7878c858561177d565b905060008080835460ff1660018111156111c3576111c3614f81565b146111d3578a83600101546111da565b82600101548a5b915091506111ea898e878761177d565b9d919c509a5098505050505050505050565b600080600083601c0160009054906101000a90046001600160a01b03166001600160a01b03166359e02dd76040518163ffffffff1660e01b81526004016040805180830381865afa158015611255573d6000803e3d6000fd5b505050506040513d601f19601f820116820180604052508101906112799190615325565b91509150806112c05760405162461bcd60e51b81526020600482015260136024820152725072696365206e6f7420617661696c61626c6560681b6044820152606401610c0a565b5092915050565b60405163478dedbb60e01b8152600481018490526001600160a01b03868116602483015282151560448301526000918291829182918291908c169063478dedbb906064016020604051808303816000875af115801561132a573d6000803e3d6000fd5b505050506040513d601f19601f8201168201806040525081019061134e91906152b9565b9050600061135c8983612f0a565b905060006113748c8a61136f8e86612f36565b613406565b9d9a9c50919a5098975050505050505050565b600b850154600090810361139d575060006114dc565b60088601805460009081526020889052604090206006810154909155600b8701546113c9906001612f0a565b600b88015560028601546003870154600091111561142f57600387018054600289019160006113f78361534a565b919050558154811061140b5761140b615363565b9060005260206000200154905061142a88600001836005015483611534565b611443565b61144088600001836005015461201e565b90505b8160070160009054906101000a90046001600160a01b03166001600160a01b031682600101546000805160206154ca833981519152888886600201548760030154600089600501548a60070160149054906101000a90046001600160401b03168d60016040516114bb9998979695949392919061538d565b60405180910390a36114d5886000018360010154836132d6565b6001925050505b95945050505050565b6000806114fc836114f6878761357c565b906135b2565b90506000611518846114f66115118289612f0a565b8a9061357c565b905060006115268284612f36565b93505050505b949350505050565b8060000361154657610f4f83836135be565b610f4f838284613647565b670de0b6b3a76400006001603a83015460ff16600381111561157557611575614f81565b14611582576115826152a3565b6022820154156110145760398201546040805161012081019091526025840180546115fe936115c59390929091829060ff1660018111156107ec576107ec614f81565b6039840154604080516101208101909152602d860180546115f993929190829060ff1660018111156107ec576107ec614f81565b6137f2565b60218301819055603c8301819055603e830154603f8401546116219290846114e5565b603e8301555050565b600a8501546000908103611640575060006114dc565b600686810180546000908152602089905260409020918201549055600a87015461166b906001612f0a565b600a8801556002860154600387015460009111156116d157600387018054600289019160006116998361534a565b91905055815481106116ad576116ad615363565b906000526020600020015490506116cc88600001836004015483610f3d565b6116e5565b6116e2886000018360040154612a1d565b90505b600782015460018301546002840154600385015460048601546040516001600160a01b038616956000805160206154ca83398151915294611748948e948e94929391929091600091600160a01b9091046001600160401b0316908f90839061538d565b60405180910390a36114d58860000183600101548361380d565b6117758686868686866102ea8d8a61201e565b505050505050565b60008260010154600014801561179557506001820154155b156117a157508161152c565b6001830154158015906117b657506001820154155b156117c257508161152c565b60018301541580156117d75750600182015415155b156117e357508061152c565b60006117f3868460050154613872565b9050808460040154148061181157506118118585600401548361388a565b1561181f578391505061152c565b8291505061152c565b6000808061183a866114f6898761357c565b90508085111561184f5791506000905061186d565b8085101561186457846001925092505061186d565b84600292509250505b94509492505050565b6000808080855460ff16600181111561189157611891614f81565b146118a05785600201546118a6565b85600101545b9050600084156118b657846118b8565b815b6000818152602089905260409020600188015460068201541495509091505b841580156118e85750600681015415155b1561191457600681015460009081526020899052604090209050866001015481600601541494506118d7565b92505050935093915050565b6000808215611945576000838152602086905260408082206006015482529020611959565b600185015460009081526020869052604090205b905080600101546000148061197e575061197c81856001600160401b03166138bd565b155b1561198a57905061199d565b61199985858360010154611920565b9150505b9392505050565b60006119af826126f7565b600a8201546000901515806119c75750601883015415155b9050806119ef576119d783610f8d565b600b8301541515806119ec5750601983015415155b90505b92915050565b604051637692e13d60e11b81526001600160a01b0383811660048301526000919083169063ed25c27a90602401602060405180830381865afa158015611a3f573d6000803e3d6000fd5b505050506040513d601f19601f82011682018060405250810190611a6391906152b9565b60405163ca1fa2fd60e01b81526001600160a01b0385811660048301529192509083169063ca1fa2fd90602401600060405180830381600087803b158015611aaa57600080fd5b505af1158015611abe573d6000803e3d6000fd5b505050506000826001600160a01b031663d9c4870e6040518163ffffffff1660e01b8152600401602060405180830381865afa158015611b02573d6000803e3d6000fd5b505050506040513d601f19601f82011682018060405250810190611b2691906153f5565b60405163a9059cbb60e01b81526001600160a01b0380831660048301526024820185905291925060009186169063a9059cbb906044016020604051808303816000875af1158015611b7b573d6000803e3d6000fd5b505050506040513d601f19601f82011682018060405250810190611b9f91906152d2565b905080611be05760405162461bcd60e51b815260206004820152600f60248201526e151c985b9cd9995c8819985a5b1959608a1b6044820152606401610c0a565b604080516001600160a01b038088168252841660208201529081018490527fda3da7ef213249c303e6466cfa54d115ebc17e8a517bb9f0ee1ba2e72a1e4cb39060600160405180910390a15050505050565b610f84878787878787876106058f8b612a1d565b60228201546000908103611c5c575060006119ef565b6020830154600090611c7c908590859082906001600160401b0316613956565b6020850154909150600090611ca29086908690600e8301906001600160401b0316613956565b60268601546001840154919250600091148015611cc65750602e8601546001830154145b6002840154603988015460408051610120810190915286549394506000938493611d17939092611d08928a90829060ff1660018111156107ec576107ec614f81565b86600201548b603b0154611828565b91509150611d5787898787868d6021016000015460016002811115611d3e57611d3e614f81565b886002811115611d5057611d50614f81565b14156139f2565b6002816002811115611d6b57611d6b614f81565b03611d8c57611d7a8880613a0d565b611d878889600e01613a0d565b611e0c565b6000816002811115611da057611da0614f81565b03611daf57611d878880613a0d565b6001816002811115611dc357611dc3614f81565b03611dd557611d878889600e01613a0d565b60405162461bcd60e51b815260206004820152600c60248201526b556e6b6e6f776e207479706560a01b6044820152606401610c0a565b50501595945050505050565b6040805161012081018252600080825260208083018a9052828401889052606083018790526080830186905260a0830182905260c083018290526001600160a01b03891660e08401526001600160401b0385166101008401528982528a90529190912081518154829060ff191660018381811115611e9857611e98614f81565b02179055506020820151600182015560408201516002820155606082015160038201556080820151600482015560a0820151600582015560c0820151600682015560e082015160079091018054610100909301516001600160401b0316600160a01b026001600160e01b03199093166001600160a01b0390921691909117919091179055610f848787613afd565b6000808215611f4b576000838152602086905260408082206006015482529020611f5f565b600285015460009081526020869052604090205b9050806001015460001480611f845750611f8281856001600160401b03166138bd565b155b15611f9057905061199d565b61199985858360010154611f26565b6020820154600090819081906001600160401b03168185611fc357600e8701611fc5565b865b9050600086611fd8576037880154611fde565b60358801545b9050600087611ff1576038890154611ff7565b60368901545b905061200d838584848d60210160180154611177565b965096509650505050509250925092565b60008260040154600003612034575060006119ef565b600283015460009081526020849052604081209050600061205a8585846005015461388a565b9050801561206d576000925050506119ef565b6006820154156120f15760068201546000908152602086905260408120905061209b8686836005015461388a565b91505b811580156120af5750600683015415155b156120ef5780925082600601546000146120ea576006830154600090815260208790526040902090506120e78686836005015461388a565b91505b61209e565b505b50600101549392505050565b6000806000836121105786600e01612112565b865b600087815260208290526040812091925050806001015460000361216a5760405162461bcd60e51b815260206004820152600f60248201526e13dc99195c881b9bdd08199bdd5b99608a1b6044820152606401610c0a565b6002810154600382015460078301546001600160a01b031661218d85858b612d10565b6001600160a01b03811633146121d75760405162461bcd60e51b815260206004820152600f60248201526e2737ba1037b93232b91037bbb732b960891b6044820152606401610c0a565b5090999098509650505050505050565b6121f2888483610f3d565b61220188888888888888613bad565b61220c88888361380d565b5050505050505050565b600081600181111561222a5761222a614f81565b14806122475750600181600181111561224557612245614f81565b145b6122935760405162461bcd60e51b815260206004820152601c60248201527f496e76616c6964206f72646572207479706520746f20657870697265000000006044820152606401610c0a565b6000856122a35787600e016122a5565b875b9050600085156122c25760008681526020839052604090206122cc565b6122cc8284613c2d565b90508060010154600014612380578260018111156122ec576122ec614f81565b815460ff16600181111561230257612302614f81565b146123805760405162461bcd60e51b815260206004820152604260248201527f546865206f7264657220746f2065787069726520646f6573206e6f7420636f7260448201527f726573706f6e6420746f2074686520737065636966696564204f726465725479606482015261706560f01b608482015260a401610c0a565b6006810154856000805b878210801561239c5750600185015415155b1561243d57816123ab8161534a565b60208f01549093506123c8915086906001600160401b03166138bd565b15612419576123fe8c878760010154886002015489600301548a60070160009054906101000a90046001600160a01b0316612492565b5060068501549350612411868685612d10565b506001612428565b84600101549250846006015493505b6000848152602087905260409020945061238a565b806124835760405162461bcd60e51b8152602060048201526016602482015275139bc8195e1c1a5c9959081bdc99195c88199bdd5b9960521b6044820152606401610c0a565b50505050505050505050505050565b60008060008060006124c08b8b600d0160009054906101000a90046001600160a01b03168a8a8a60016112c7565b9350935093509350836124d257600092505b60408051848152602081018490529081018290526001600160a01b038716908a907fabcec6b064992cec629a2717ab4ac28152285b1641499154f6fd08eac55df3ca9060600160405180910390a350919998505050505050505050565b603a8101805460ff19166001179055612547816111fc565b6039820155612557816001611f9f565b60368401819055603584018290558254602585018054859260ff1690829060ff19166001838181111561258c5761258c614f81565b0217905550600182810154908201556002808301549082015560038083015490820155600480830154908201556005808301549082015560068083015490820155600791820180549290910180546001600160a01b031981166001600160a01b03909416938417825591546001600160401b03600160a01b9182900416026001600160e01b03199092169092171790555061262c91508290506000611f9f565b60388401819055603784018290558254602d85018054859260ff1690829060ff19166001838181111561266157612661614f81565b0217905550600182810154908201556002808301549082015560038083015490820155600480830154908201556005808301549082015560068083015490820155600791820180549290910180546001600160a01b031981166001600160a01b03909416938417825591546001600160401b03600160a01b9182900416026001600160e01b031990921690921717905550505050565b6003603a82015460ff16600381111561271257612712614f81565b1461271f5761271f6152a3565b600d810154601b82015460009161274b91849160218301916001600160a01b039182169116600161162a565b90508061101457600d820154601b830154610f4f91600e85019160218601916001600160a01b039081169116600061162a565b6000808261278f5783600e01612791565b835b60208501549091506127c7906001600160401b0316826127c281600181015460009081526020919091526040902090565b613c79565b8061152c5750602084015461152c906001600160401b0316826127c281600281015460009081526020919091526040902090565b603d8a015460009060ff161561284c5760405162461bcd60e51b815260206004820152601660248201527514185a5c881a185cc81899595b88191a5cd8589b195960521b6044820152606401610c0a565b60008261285c578b600e0161285e565b8b5b600d8101549091506001600160a01b03166323b872dd86866128808e8e612f36565b6040516001600160e01b031960e086901b1681526001600160a01b03938416600482015292909116602483015260448201526064016020604051808303816000875af11580156128d4573d6000803e3d6000fd5b505050506040513d601f19601f820116820180604052508101906128f891906152d2565b61293c5760405162461bcd60e51b8152602060048201526015602482015274151bdad95b881d1c985b9cd9995c8819985a5b1959605a1b6044820152606401610c0a565b600080603a8e015460ff16600381111561295857612958614f81565b60208f01549114159150600090612979908a906001600160401b0316615305565b905081156129d057612990838e898f8f8f87611e18565b8c7fc74df9a166181f1bd5d8a749d06b749b580e9a56e8b68530dc79d79eef0ca55b60006040516129c391815260200190565b60405180910390a2612a0c565b600188016129ec576129e7838e898f8f8f87611c32565b6129fc565b6129fc838e898f8f8f878f6121e7565b612a0c8d8f898f8f8f878c613cc7565b5050509a9950505050505050505050565b60008260050154600003612a33575060006119ef565b6001830154600090815260208490526040812090506000612a598585846004015461388a565b90508015612a6c576000925050506119ef565b6006820154156120f157600682015460009081526020869052604081209050612a9a8686836004015461388a565b91505b81158015612aae5750600683015415155b156120ef578092508260060154600014612ae957600683015460009081526020879052604090209050612ae68686836004015461388a565b91505b612a9d565b6003603a83015460ff166003811115612b0957612b09614f81565b14612b1657612b166152a3565b603a8201805460ff19169055600d820154601b83015460408051606081018252845481526001850154602082015260028501549181019190915260218501546022860154612b7994601d8801946001600160a01b03918216949116929091613d12565b6000602183018181556022840182905590612b976023850182614b4a565b5060006003820181905560048201805460ff199081169091556005830182905560068301829055600783018290556008830182905560098301829055600a8301829055600b830180546001600160e01b0319908116909155600c84018054909216909155600d8301829055600e8301829055600f83018290556010830182905560118301829055601283018290556013830180549091169055601482018190556015820181905560168201819055601782018190556018909101555050565b600080600080600080612c6887613e24565b600082815260208a81526040808320848452600e8d0190925282206001820154949650929450929003612cac57600080600080975097509750975050505050612d09565b612ced612ce1612cbb8b6111fc565b60408051610120810190915285548690829060ff1660018111156107ec576107ec614f81565b6115f9612cbb8c6111fc565b6001808401546002909401549201549098509196509450925050505b9193509193565b612d1a83836143f9565b15612d2e5760068201546001840155612dce565b612d388383614428565b15612d4c5760068201546002840155612dce565b600080612d5a858585611876565b9150915081612dab5760405162461bcd60e51b815260206004820152601860248201527f50726576696f7573206f72646572206e6f7420666f756e6400000000000000006044820152606401610c0a565b6006840154612dc05760006006820155612dcb565b600680850154908201555b50505b60006001835460ff166001811115612de857612de8614f81565b6001808601546000908152602088905260408120805460ff1916815591820181905560028201819055600382018190556004820181905560058201819055600682015560070180546001600160e01b0319169055149050612e498482614459565b50505050565b60008160010154600014158015612e695750600183015415155b801561152c57506040805161012081019091528254612e9c9186918590829060ff1660018111156107ec576107ec614f81565b6040805161012081019091528454612ec89187918790829060ff1660018111156107ec576107ec614f81565b1015949350505050565b60008082516001811115612ee857612ee8614f81565b14612f0057612efb838360a00151613872565b6119ec565b5060800151919050565b600082821115612f1c57612f1c6152a3565b6119ec8284615412565b600061152c826114f6868661357c565b6000612f428284615425565b9050828110156119ef576119ef6152a3565b600d870154601b8801546040516001600160a01b03898116938c936000805160206154ca83398151915293612fa09392831692909116908b908b906000908c908c908c9060019061538d565b60405180910390a35050505050505050565b60058201541561101457600182015460009081526020839052604081209050612fe08383836004015461388a565b610f4f5760405162461bcd60e51b815260206004820152601c60248201527f507269636520646f65736e742062656c6f6e6720746f207374617274000000006044820152606401610c0a565b6000828152602084905260408120600181015490910361308e5760405162461bcd60e51b815260206004820152601a60248201527f50726576696f75734f7264657220646f65736e742065786973740000000000006044820152606401610c0a565b6000815460ff1660018111156130a6576130a6614f81565b146130f35760405162461bcd60e51b815260206004820152601760248201527f48696e74206973206e6f74206c696d6974206f726465720000000000000000006044820152606401610c0a565b6131028483836004015461388a565b156131485760405162461bcd60e51b81526020600482015260166024820152754f726465722073686f756c6420676f206265666f726560501b6044820152606401610c0a565b600681015460009081526020859052604090206001810154158061317657506131768584836004015461388a565b6131ba5760405162461bcd60e51b815260206004820152601560248201527427b93232b91039b437bab6321033b79030b33a32b960591b6044820152606401610c0a565b5050505050565b6040805161012081019091528060018152602080820189905260408083018890526060830187905260006080840181905260a0840187905260c084018190526001600160a01b038a1660e08501526001600160401b03861661010090940193909352898352908a9052902081518154829060ff19166001838181111561324957613249614f81565b02179055506020820151600182015560408201516002820155606082015160038201556080820151600482015560a0820151600582015560c0820151600682015560e082015160079091018054610100909301516001600160401b0316600160a01b026001600160e01b03199093166001600160a01b039092169190911791909117905550505050505050565b600082815260208490526040902060038401546132f4906001612f36565b60038501556004840154613309906001612f36565b6004850155811561333a5760008281526020859052604081205b600690810180549184019190915584905550612e49565b600284018054600683015583905550505050565b600b820154156133db57600982015460009081526020839052604090206001815460ff16600181111561338357613383614f81565b146133d05760405162461bcd60e51b815260206004820152601760248201527f49742069736e27742061206d61726b6574206f726465720000000000000000006044820152606401610c0a565b6006018190556133e3565b600882018190555b60098201819055600b8201546133fa906001612f36565b82600b01819055505050565b604080516001600160a01b03848116602083015281830184905282518083038401815260608301909352600092839283928816916134509163a9059cbb60e01b9190608001615468565b60408051601f198184030181529082905261346a91615484565b6000604051808303816000865af19150503d80600081146134a7576040519150601f19603f3d011682016040523d82523d6000602084013e6134ac565b606091505b50915091508115613528576000818060200190518101906134cd91906152d2565b90508061351e5760408051868152600060208201526001600160a01b0380891692908a16917f8bbddc8cb50f31d5dc8adaec627c2da3941128931d3d8834fb6eba0d40f89baa910160405180910390a35b925061199d915050565b60408051858152600160208201526001600160a01b0380881692908916917f8bbddc8cb50f31d5dc8adaec627c2da3941128931d3d8834fb6eba0d40f89baa910160405180910390a360009250505061199d565b60008260000361358e575060006119ef565b6135988284615490565b9050816135a584836154a7565b146119ef576119ef6152a3565b60006119ec82846154a7565b600482015415611014576002820154600090815260208390526040812090506135ec8383836005015461388a565b610f4f5760405162461bcd60e51b815260206004820152602660248201527f4d756c7469706c7920666163746f7220646f65736e742062656c6f6e6720746f604482015265081cdd185c9d60d21b6064820152608401610c0a565b600082815260208490526040812060018101549091036136a95760405162461bcd60e51b815260206004820152601a60248201527f50726576696f75734f7264657220646f65736e742065786973740000000000006044820152606401610c0a565b60008381526020859052604090206001905460ff1660018111156136cf576136cf614f81565b1461371c5760405162461bcd60e51b815260206004820152601860248201527f48696e74206973206e6f74206d61726b6574206f7264657200000000000000006044820152606401610c0a565b61372b8483836005015461388a565b156137785760405162461bcd60e51b815260206004820152601d60248201527f4d61726b6574204f726465722073686f756c6420676f206265666f72650000006044820152606401610c0a565b60068101546000908152602085905260409020600181015415806137a657506137a68584836005015461388a565b6131ba5760405162461bcd60e51b815260206004820152601c60248201527f4d61726b6574204f726465722073686f756c6420676f206166746572000000006044820152606401610c0a565b600061380160028484186154a7565b6119ec90848416615425565b6000828152602084905260409020600384015461382b906001612f36565b60038501556005840154613840906001612f36565b6005850155811561385e576000828152602085905260408120613323565b600184018054600683015583905550505050565b60006119ec670de0b6b3a76400006114f6848661357c565b600c83015460009060ff1680156138a057508183115b8061152c5750600c84015460ff1615801561152c57505011919050565b600082600101546000036139235760405162461bcd60e51b815260206004820152602760248201527f747269656420746f207365652065787069726174696f6e206f662061206e756c604482015266361037b93232b960c91b6064820152608401610c0a565b50600791909101546fffffffffffffffffffffffffffffffff91909116600160a01b9091046001600160401b0316111590565b60398401546001830154600090815260208490526040812090918291613992919086905b6002880154600090815260208990526040902061177d565b90506139a781846001600160401b03166138bd565b156114dc576139dd85858360010154846002015485600301548660070160009054906101000a90046001600160a01b0316612492565b506139ea868686866144a6565b91505061152c565b613a00818888888787614515565b610f84878786868661469e565b60398201546001820154600090815260208390526040808220600285015483529082209192613a3f929091859161177d565b6006810154600090815260208490526040812082549293509160ff166001811115613a6c57613a6c614f81565b03613a8b5760018082015490840155613a86836000614459565b613aa1565b6001808201546002850155613aa1908490614459565b50600190810154600090815260209290925260408220805460ff1916815590810182905560028101829055600381018290556004810182905560058101829055600681019190915560070180546001600160e01b031916905550565b600a82015415613b82576007820154600090815260208390526040812090815460ff166001811115613b3157613b31614f81565b14613b775760405162461bcd60e51b815260206004820152601660248201527524ba1034b9b713ba1030903634b6b4ba1037b93232b960511b6044820152606401610c0a565b600601819055613b8a565b600682018190555b60078201819055600a820154613ba1906001612f36565b82600a01819055505050565b6040805161012081018252600080825260208083018a9052828401889052606083018790526080830186905260a0830182905260c083018290526001600160a01b03891660e08401526001600160401b0385166101008401528982528a90529190912081518154829060ff19166001838181111561324957613249614f81565b60006001826001811115613c4357613c43614f81565b03613c615750600282015460009081526020839052604090206119ef565b600183015460009081526020849052604090206119ec565b600081815b600182015415613cbb57613c9282876138bd565b15613ca25760019250505061199d565b5060060154600081815260208590526040902090613c7e565b50600095945050505050565b600d870154601b8801546040516001600160a01b03898116938c936000805160206154ca83398151915293612fa09392831692909116908b908b908b906000908c908c90839061538d565b8560020154600003613d2657613d266152a3565b60008660030160009054906101000a90046001600160401b031690506000613d708560000151896001015487602001518860400151613d6688600161484f565b8d60020154614865565b600289015460018a01819055909150613d8a908290615425565b88556003880154613da5906001600160401b03166001615305565b60038901805467ffffffffffffffff19166001600160401b03928316179055600060028a015588546040805191825260208201879052918416916001600160a01b0389811692908b16917f23842ef287c228d5716d3763dbe31967fde900e7f446d625d51f6579f4d18a87910160405180910390a45050505050505050565b600080613e2f614b6b565b613e37614b6b565b6000613e42866111fc565b9050613e4c614b6b565b613e54614b6b565b60008060008060008c603b01549050613e708d60018787611018565b60408051610120810190915283548490829060ff166001811115613e9657613e96614f81565b6001811115613ea757613ea7614f81565b815260018201546020820152600282015460408201526003820154606082015260048201546080820152600582015460a0820152600682015460c08201526007909101546001600160a01b03811660e0830152600160a01b90046001600160401b03166101009091015299509096509450613f2790508d60008585611018565b60408051610120810190915283548490829060ff166001811115613f4d57613f4d614f81565b6001811115613f5e57613f5e614f81565b815260018201546020820152600282015460408201526003820154606082015260048201546080820152600582015460a0820152600682015460c08201526007909101546001600160a01b03811660e0830152600160a01b90046001600160401b03166101009091015298509094509250505b613fdc8888886148a9565b156143dc578699508598506000806140078960400151613ffc8c8c612ed2565b8a6040015186611828565b9092509050600281600281111561402057614020614f81565b03614198576140328f60018989611018565b60408051610120810190915283548490829060ff16600181111561405857614058614f81565b600181111561406957614069614f81565b815260018201546020820152600282015460408201526003820154606082015260048201546080820152600582015460a0820152600682015460c08201526007909101546001600160a01b03811660e0830152600160a01b90046001600160401b0316610100909101529b5090985096506140e990508f60008787611018565b60408051610120810190915283548490829060ff16600181111561410f5761410f614f81565b600181111561412057614120614f81565b815260018201546020820152600282015460408201526003820154606082015260048201546080820152600582015460a0820152600682015460c08201526007909101546001600160a01b03811660e0830152600160a01b90046001600160401b0316610100909101529a5090965094506143d59050565b60008160028111156141ac576141ac614f81565b03614283576141be8f60018989611018565b60408051610120810190915283548490829060ff1660018111156141e4576141e4614f81565b60018111156141f5576141f5614f81565b81526001820154602082015260028201546040808301919091526003830154606083015260048301546080830152600583015460a0830152600683015460c08301526007909201546001600160a01b03811660e0830152600160a01b90046001600160401b0316610100909101528c0151909c509199509750614279915083612f0a565b60408901526143d5565b600181600281111561429757614297614f81565b0361438d576142a98f60008787611018565b60408051610120810190915283548490829060ff1660018111156142cf576142cf614f81565b60018111156142e0576142e0614f81565b815260018201546020820152600282015460408201526003820154606082015260048201546080820152600582015460a0820152600682015460c08201526007909101546001600160a01b03811660e0830152600160a01b90046001600160401b0316610100909101529a5090965094506000905061435f8b8b612ed2565b9050600061436e848387612f26565b60408c01519091506143809082612f0a565b60408c0152506143d59050565b60405162461bcd60e51b815260206004820181905260248201527f776f77207468697320697320612062616420696d706c656d656e746174696f6e6044820152606401610c0a565b5050613fd1565b896020015189602001519b509b5050505050505050505050915091565b600080825460ff16600181111561441257614412614f81565b1480156119ec5750506001908101549101541490565b60006001825460ff16600181111561444257614442614f81565b1480156119ec575050600101546002909101541490565b6003820154614469906001612f0a565b6003830155801561448d576004820154614484906001612f0a565b60048301555050565b600582015461449d906001612f0a565b60058301555050565b6000806144b386856148de565b90508060010154600014806144d857506144d681846001600160401b03166138bd565b155b156144e457905061152c565b6139dd85858360010154846002015485600301548660070160009054906101000a90046001600160a01b0316612492565b600080614524868686866149ff565b91509150876145335781614539565b84600201545b60028601546003870154600d8901546040516305bc38b560e11b815260048101939093526024830185905260448301919091526001600160a01b039081166064830152919350600091891690630b78716a906084016020604051808303816000875af11580156145ad573d6000803e3d6000fd5b505050506040513d601f19601f820116820180604052508101906145d191906152b9565b905060006145e28888858786614a67565b90506145ee8785614ae7565b6001870154601b89015460078901547f498bb9197f7c8d2c1e7a94047a70d27c0557ec3a9dbbc21395fddc14ba1da5e19186918691869161463c916001600160a01b0390811691168d613406565b614647576000614649565b8a5b60028d015460208f81015460408051978852918701959095528501929092526060840152608083015260a082018990526001600160401b031660c082015260e00160405180910390a250505050505050505050565b60028301546003840154601b8601546040516305bc38b560e11b815260048101939093526024830185905260448301919091526001600160a01b03908116606483015260009190871690630b78716a906084016020604051808303816000875af1158015614710573d6000803e3d6000fd5b505050506040513d601f19601f8201168201806040525081019061473491906152b9565b6039860154604080516101208101909152865492935060009261477992879261476f928a90829060ff1660018111156107ec576107ec614f81565b88603b0154612f26565b9050600061478c858589603b0154612f26565b9050600061479a8284612f0a565b600d89015460078901549192506147be916001600160a01b03918216911684613406565b6147c757600091505b6147d18787614ae7565b6001870154600288015460208a810154604080518b815292830189905282810187905260608301869052608083019390935260a082018990526001600160401b031660c082015290517f3177584a10eadb753ce5fb71f236a7ff8fafe5df8f885e1aaf42b57c0f214cd39181900360e00190a2505050505050505050565b600081831161485e57816119ec565b5090919050565b6000806148728784615412565b90506000614884856114f68b8561357c565b90506148908188614b3b565b905061489c818761484f565b9998505050505050505050565b600081602001516000141580156148c35750602083015115155b801561152c57506148d48483612ed2565b612ec88585612ed2565b60008061492084602101601801548461490886600181015460009081526020919091526040902090565b6002870154600090815260208890526040902061177d565b6006810154600090815260208590526040812082549293509160ff16600181111561494d5761494d614f81565b03614961576001808201549085015561496c565b600181015460028501555b61498f846000845460ff16600181111561498857614988614f81565b1415614459565b600182810154600090815260208690526040808220805460ff19168155808401839055600281018390556003810183905560048101839055600581018390556006810183905560070180546001600160e01b0319169055603988015492870154825290206114dc9190869061397a565b6039840154604080516101208101909152845460009283928392614a45928892614a3b928b90829060ff1660018111156107ec576107ec614f81565b89603b0154612f26565b90506000614a5886868a603b0154612f26565b91989197509095505050505050565b600080614a8986600201546114f688600301548761357c90919063ffffffff16565b90506000614aaa614a9a8386612f0a565b614aa48789612f0a565b90612f36565b600d8901546007890154919250614ace916001600160a01b03918216911683613406565b614ad9576000614adb565b805b98975050505050505050565b6000614b0883600201546114f685600301548561357c90919063ffffffff16565b6003840154909150614b1a9082612f0a565b60038401556002830154614b2e9083612f0a565b8360020181905550505050565b600081831061485e57816119ec565b5080546000825590600052602060002090810190614b689190614bca565b50565b604080516101208101909152806000815260200160008152602001600081526020016000815260200160008152602001600081526020016000815260200160006001600160a01b0316815260200160006001600160401b031681525090565b5b80821115614bdf5760008155600101614bcb565b5090565b600060208284031215614bf557600080fd5b5035919050565b80356001600160401b0381168114614c1357600080fd5b919050565b6001600160a01b0381168114614b6857600080fd5b8015158114614b6857600080fd5b60008060008060008060008060006101208a8c031215614c5a57600080fd5b8935985060208a0135975060408a0135965060608a0135955060808a01359450614c8660a08b01614bfc565b935060c08a0135925060e08a0135614c9d81614c18565b91506101008a0135614cae81614c2d565b809150509295985092959850929598565b600080600060608486031215614cd457600080fd5b505081359360208301359350604090920135919050565b600080600080600080600060e0888a031215614d0657600080fd5b8735965060208801359550604088013594506060880135935060808801359250614d3260a08901614bfc565b915060c0880135905092959891949750929550565b60008060008060808587031215614d5d57600080fd5b843593506020850135614d6f81614c2d565b93969395505050506040820135916060013590565b600080600080600080600060e0888a031215614d9f57600080fd5b87359650602088013595506040880135614db881614c18565b9450606088013593506080880135925060a08801359150614ddb60c08901614bfc565b905092959891949750929550565b600080600080600060a08688031215614e0157600080fd5b85359450614e1160208701614bfc565b94979496505050506040830135926060810135926080909101359150565b60008060008060008060c08789031215614e4857600080fd5b8635614e5381614c18565b95506020870135614e6381614c18565b945060408701359350606087013592506080870135614e8181614c18565b915060a0870135614e9181614c2d565b809150509295509295509295565b600080600080600060a08688031215614eb757600080fd5b85359450602086013593506040860135614ed081614c18565b92506060860135614ee081614c18565b91506080860135614ef081614c2d565b809150509295509295909350565b60008060008060808587031215614f1457600080fd5b5050823594602084013594506040840135936060013592509050565b60008060008060008060c08789031215614f4957600080fd5b8635955060208701359450604087013593506060870135925060808701359150614f7560a08801614bfc565b90509295509295509295565b634e487b7160e01b600052602160045260246000fd5b8281526040810160038310614fae57614fae614f81565b8260208301529392505050565b600080600060608486031215614fd057600080fd5b83359250614fe060208501614bfc565b9150604084013590509250925092565b6000806040838503121561500357600080fd5b823561500e81614c18565b9150602083013561501e81614c18565b809150509250929050565b6000806040838503121561503c57600080fd5b82359150602083013561501e81614c18565b6000806040838503121561506157600080fd5b82359150602083013561501e81614c2d565b6000806040838503121561508657600080fd5b50508035926020909101359150565b600080600080608085870312156150ab57600080fd5b84359350602085013592506040850135915060608501356150cb81614c2d565b939692955090935050565b600080600080600080600080610100898b0312156150f357600080fd5b8835975060208901359650604089013561510c81614c18565b9550606089013594506080890135935060a0890135925061512f60c08a01614bfc565b915060e089013590509295985092959890939650565b600080600080600080600060e0888a03121561516057600080fd5b87359650602088013561517281614c18565b9550604088013561518281614c2d565b9450606088013593506080880135925060a0880135915060c0880135600281106151ab57600080fd5b8091505092959891949750929550565b60008060008060008060c087890312156151d457600080fd5b86356151df81614c18565b95506020870135945060408701359350606087013592506080870135915060a0870135614e9181614c18565b6000806000806000806000806000806101408b8d03121561522b57600080fd5b8a35995060208b0135985060408b0135975060608b0135965060808b0135955061525760a08c01614bfc565b945060c08b0135935060e08b013561526e81614c18565b92506101008b013561527f81614c18565b91506101208b013561529081614c2d565b809150509295989b9194979a5092959850565b634e487b7160e01b600052600160045260246000fd5b6000602082840312156152cb57600080fd5b5051919050565b6000602082840312156152e457600080fd5b815161199d81614c2d565b634e487b7160e01b600052601160045260246000fd5b6001600160401b038181168382160190808211156112c0576112c06152ef565b6000806040838503121561533857600080fd5b82519150602083015161501e81614c2d565b60006001820161535c5761535c6152ef565b5060010190565b634e487b7160e01b600052603260045260246000fd5b6002811061538957615389614f81565b9052565b6001600160a01b038a811682528916602082015260408101889052606081018790526080810186905260a081018590526001600160401b03841660c082015282151560e082015261012081016153e7610100830184615379565b9a9950505050505050505050565b60006020828403121561540757600080fd5b815161199d81614c18565b818103818111156119ef576119ef6152ef565b808201808211156119ef576119ef6152ef565b6000815160005b81811015615459576020818501810151868301520161543f565b50600093019283525090919050565b6001600160e01b031983168152600061152c6004830184615438565b60006119ec8284615438565b80820281158282048414176119ef576119ef6152ef565b6000826154c457634e487b7160e01b600052601260045260246000fd5b50049056fe21fa44f85b5f9a70042f003c7b845bdcf692df1e4359b995f95ebecf05ba48e7a26469706673582212204450da8a5ce69f4ece2c4dac7fc87c8d9b2ea57494add1f1a65685d7a2f019cf64736f6c63430008180033",
  "linkReferences": {},
  "deployedLinkReferences": {}
}