{
  "_format": "hh-sol-artifact-1",
  "contractName": "MocStateFake",
  "sourceName": "contracts/test/MocStateFake.sol",
  "abi": [
    {
      "inputs": [
        {
          "internalType": "address",
          "name": "_btcPriceProvider",
          "type": "address"
        },
        {
          "internalType": "uint256",
          "name": "_nB",
          "type": "uint256"
        },
        {
          "internalType": "uint256",
          "name": "_nDoc",
          "type": "uint256"
        },
        {
          "internalType": "uint256",
          "name": "_nTP",
          "type": "uint256"
        }
      ],
      "stateMutability": "nonpayable",
      "type": "constructor"
    },
    {
      "inputs": [],
      "name": "bproTecPrice",
      "outputs": [
        {
          "internalType": "uint256",
          "name": "",
          "type": "uint256"
        }
      ],
      "stateMutability": "view",
      "type": "function"
    },
    {
      "inputs": [],
      "name": "bproUsdPrice",
      "outputs": [
        {
          "internalType": "uint256",
          "name": "",
          "type": "uint256"
        }
      ],
      "stateMutability": "view",
      "type": "function"
    },
    {
      "inputs": [],
      "name": "getBitcoinPrice",
      "outputs": [
        {
          "internalType": "uint256",
          "name": "",
          "type": "uint256"
        }
      ],
      "stateMutability": "view",
      "type": "function"
    },
    {
      "inputs": [],
      "name": "getBtcPriceProvider",
      "outputs": [
        {
          "internalType": "address",
          "name": "",
          "type": "address"
        }
      ],
      "stateMutability": "view",
      "type": "function"
    },
    {
      "inputs": [],
      "name": "lockedBitcoin",
      "outputs": [
        {
          "internalType": "uint256",
          "name": "",
          "type": "uint256"
        }
      ],
      "stateMutability": "view",
      "type": "function"
    },
    {
      "inputs": [],
      "name": "nB",
      "outputs": [
        {
          "internalType": "uint256",
          "name": "",
          "type": "uint256"
        }
      ],
      "stateMutability": "view",
      "type": "function"
    },
    {
      "inputs": [],
      "name": "nDoc",
      "outputs": [
        {
          "internalType": "uint256",
          "name": "",
          "type": "uint256"
        }
      ],
      "stateMutability": "view",
      "type": "function"
    },
    {
      "inputs": [],
      "name": "nTP",
      "outputs": [
        {
          "internalType": "uint256",
          "name": "",
          "type": "uint256"
        }
      ],
      "stateMutability": "view",
      "type": "function"
    },
    {
      "inputs": [
        {
          "internalType": "uint256",
          "name": "_nB",
          "type": "uint256"
        }
      ],
      "name": "setNB",
      "outputs": [],
      "stateMutability": "nonpayable",
      "type": "function"
    }
  ],
  "bytecode": "0x608060405234801561001057600080fd5b506040516104d83803806104d883398101604081905261002f91610061565b600380546001600160a01b0319166001600160a01b0395909516949094179093556000919091556001556002556100ac565b6000806000806080858703121561007757600080fd5b84516001600160a01b038116811461008e57600080fd5b60208601516040870151606090970151919890975090945092505050565b61041d806100bb6000396000f3fe608060405234801561001057600080fd5b50600436106100935760003560e01c80639b80d3fa116100665780639b80d3fa146100d8578063c35a8bc6146100e1578063c4f709ea146100ea578063d298d9c9146100f2578063db8909161461010d57600080fd5b806308c36d9e146100985780633116724f146100b3578063747a5663146100c85780638300df49146100d0575b600080fd5b6100a0610116565b6040519081526020015b60405180910390f35b6100c66100c1366004610321565b600055565b005b6100a0610187565b6100a06101bd565b6100a060015481565b6100a060025481565b6100a0610293565b6003546040516001600160a01b0390911681526020016100aa565b6100a060005481565b600080610121610293565b905080600054101561013557600091505090565b60025460000361014e57670de0b6b3a764000091505090565b61018160025461017b670de0b6b3a7640000610175856000546102ba90919063ffffffff16565b906102df565b90610315565b91505090565b600080610192610116565b9050600061019e6101bd565b90506101b6670de0b6b3a764000061017b83856102df565b9250505090565b6000806000600360009054906101000a90046001600160a01b03166001600160a01b03166359e02dd76040518163ffffffff1660e01b81526004016040805180830381865afa158015610214573d6000803e3d6000fd5b505050506040513d601f19601f82011682018060405250810190610238919061033a565b915091508061028d5760405162461bcd60e51b815260206004820152601c60248201527f4f7261636c652068617665206e6f20426974636f696e20507269636500000000604482015260640160405180910390fd5b50919050565b60006102b56102a06101bd565b60015461017b90670de0b6b3a76400006102df565b905090565b6000828211156102cc576102cc61036f565b6102d6828461039b565b90505b92915050565b6000826000036102f1575060006102d9565b6102fb82846103ae565b90508161030884836103c5565b146102d9576102d961036f565b60006102d682846103c5565b60006020828403121561033357600080fd5b5035919050565b6000806040838503121561034d57600080fd5b825191506020830151801515811461036457600080fd5b809150509250929050565b634e487b7160e01b600052600160045260246000fd5b634e487b7160e01b600052601160045260246000fd5b818103818111156102d9576102d9610385565b80820281158282048414176102d9576102d9610385565b6000826103e257634e487b7160e01b600052601260045260246000fd5b50049056fea2646970667358221220896df98d27cac08fce1ec343b41c954a15605860c8268e778a7e165fdf4ed6f464736f6c63430008180033",
  "linkReferences": {},
  "deployedLinkReferences": {}
}