{
  "_format": "hh-sol-artifact-1",
  "contractName": "TickStateFake",
  "sourceName": "contracts/test/TickStateFake.sol",
  "abi": [
    {
      "anonymous": false,
      "inputs": [
        {
          "indexed": true,
          "internalType": "address",
          "name": "baseTokenAddress",
          "type": "address"
        },
        {
          "indexed": true,
          "internalType": "address",
          "name": "secondaryTokenAddress",
          "type": "address"
        },
        {
          "indexed": true,
          "internalType": "uint64",
          "name": "number",
          "type": "uint64"
        },
        {
          "indexed": false,
          "internalType": "uint256",
          "name": "nextTickBlock",
          "type": "uint256"
        },
        {
          "indexed": false,
          "internalType": "uint256",
          "name": "closingPrice",
          "type": "uint256"
        }
      ],
      "name": "TickEnd",
      "type": "event"
    },
    {
      "anonymous": false,
      "inputs": [
        {
          "indexed": true,
          "internalType": "address",
          "name": "baseTokenAddress",
          "type": "address"
        },
        {
          "indexed": true,
          "internalType": "address",
          "name": "secondaryTokenAddress",
          "type": "address"
        },
        {
          "indexed": true,
          "internalType": "uint64",
          "name": "number",
          "type": "uint64"
        },
        {
          "indexed": false,
          "internalType": "uint256",
          "name": "nextTickBlock",
          "type": "uint256"
        },
        {
          "indexed": false,
          "internalType": "uint256",
          "name": "closingPrice",
          "type": "uint256"
        }
      ],
      "name": "TickEnd",
      "type": "event"
    },
    {
      "inputs": [],
      "name": "baseTokenAddress",
      "outputs": [
        {
          "internalType": "address",
          "name": "",
          "type": "address"
        }
      ],
      "stateMutability": "view",
      "type": "function"
    },
    {
      "inputs": [
        {
          "internalType": "address",
          "name": "_baseToken",
          "type": "address"
        },
        {
          "internalType": "address",
          "name": "_secondaryToken",
          "type": "address"
        },
        {
          "internalType": "uint256",
          "name": "_expectedOrdersForTick",
          "type": "uint256"
        },
        {
          "internalType": "uint256",
          "name": "_maxBlocksForTick",
          "type": "uint256"
        },
        {
          "internalType": "uint256",
          "name": "_minBlocksForTick",
          "type": "uint256"
        }
      ],
      "name": "initialize",
      "outputs": [],
      "stateMutability": "nonpayable",
      "type": "function"
    },
    {
      "inputs": [
        {
          "internalType": "uint256",
          "name": "_actualOrders",
          "type": "uint256"
        }
      ],
      "name": "nextTick",
      "outputs": [],
      "stateMutability": "nonpayable",
      "type": "function"
    },
    {
      "inputs": [],
      "name": "secondaryTokenAddress",
      "outputs": [
        {
          "internalType": "address",
          "name": "",
          "type": "address"
        }
      ],
      "stateMutability": "view",
      "type": "function"
    },
    {
      "inputs": [],
      "name": "tickConfig",
      "outputs": [
        {
          "internalType": "uint256",
          "name": "expectedOrdersForTick",
          "type": "uint256"
        },
        {
          "internalType": "uint256",
          "name": "maxBlocksForTick",
          "type": "uint256"
        },
        {
          "internalType": "uint256",
          "name": "minBlocksForTick",
          "type": "uint256"
        }
      ],
      "stateMutability": "view",
      "type": "function"
    },
    {
      "inputs": [],
      "name": "tickState",
      "outputs": [
        {
          "internalType": "uint256",
          "name": "nextTickBlock",
          "type": "uint256"
        },
        {
          "internalType": "uint256",
          "name": "lastTickBlock",
          "type": "uint256"
        },
        {
          "internalType": "uint256",
          "name": "blockNumberWhenTickStarted",
          "type": "uint256"
        },
        {
          "internalType": "uint64",
          "name": "number",
          "type": "uint64"
        }
      ],
      "stateMutability": "view",
      "type": "function"
    }
  ],
  "bytecode": "0x608060405234801561001057600080fd5b5061055f806100206000396000f3fe608060405234801561001057600080fd5b50600436106100625760003560e01c806318d3f29f146100675780637cb374bd146100b657806396a36926146100e15780639c27ee4c146100f4578063acb330bb14610121578063d13f90b414610136575b600080fd5b6005546006546007546008546100879392919067ffffffffffffffff1684565b6040805194855260208501939093529183015267ffffffffffffffff1660608201526080015b60405180910390f35b6000546100c9906001600160a01b031681565b6040516001600160a01b0390911681526020016100ad565b6001546100c9906001600160a01b031681565b60025460035460045461010692919083565b604080519384526020840192909252908201526060016100ad565b61013461012f3660046103f4565b6101df565b005b610134610144366004610429565b600080546001600160a01b039687166001600160a01b0319918216178255600180549690971695169490941785556040805160608082018352858252602080830186905291830184905260029590955560039390935560049190915580516080810182524380825292810183905290810184905290910183905260058190556006556007556008805467ffffffffffffffff19169091179055565b4360075560008054600154604080516060810182526002548152600354602082015260045491810191909152610227936005936001600160a01b03908116931691908661022a565b50565b856002015460000361023e5761023e610476565b60008660030160009054906101000a900467ffffffffffffffff1690506000610289856000015189600101548760200151886040015161027f88600161033f565b8d60020154610359565b600289015460018a018190559091506102a39082906104a2565b885560038801546102bf9067ffffffffffffffff1660016104b5565b60038901805467ffffffffffffffff191667ffffffffffffffff928316179055600060028a015588546040805191825260208201879052918416916001600160a01b0389811692908b16917f23842ef287c228d5716d3763dbe31967fde900e7f446d625d51f6579f4d18a87910160405180910390a45050505050505050565b600081831161034e5781610350565b825b90505b92915050565b60008061036687846104dd565b9050600061037e856103788b856103a3565b906103d9565b905061038a81886103e5565b9050610396818761033f565b9998505050505050505050565b6000826000036103b557506000610353565b6103bf82846104f0565b9050816103cc8483610507565b1461035357610353610476565b60006103508284610507565b600081831061034e5781610350565b60006020828403121561040657600080fd5b5035919050565b80356001600160a01b038116811461042457600080fd5b919050565b600080600080600060a0868803121561044157600080fd5b61044a8661040d565b94506104586020870161040d565b94979496505050506040830135926060810135926080909101359150565b634e487b7160e01b600052600160045260246000fd5b634e487b7160e01b600052601160045260246000fd5b808201808211156103535761035361048c565b67ffffffffffffffff8181168382160190808211156104d6576104d661048c565b5092915050565b818103818111156103535761035361048c565b80820281158282048414176103535761035361048c565b60008261052457634e487b7160e01b600052601260045260246000fd5b50049056fea264697066735822122018b29124a12ec09952921eb8ef9b99035e16cc551adfa6b4fb7638dfc0b59de764736f6c63430008180033",
  "linkReferences": {},
  "deployedLinkReferences": {}
}