{
  "_format": "hh-sol-artifact-1",
  "contractName": "WRBTC",
  "sourceName": "contracts/Token/WRBTC.sol",
  "abi": [
    {
      "inputs": [],
      "stateMutability": "nonpayable",
      "type": "constructor"
    },
    {
      "inputs": [
        {
          "internalType": "address",
          "name": "spender",
          "type": "address"
        },
        {
          "internalType": "uint256",
          "name": "allowance",
          "type": "uint256"
        },
        {
          "internalType": "uint256",
          "name": "needed",
          "type": "uint256"
        }
      ],
      "name": "ERC20InsufficientAllowance",
      "type": "error"
    },
    {
      "inputs": [
        {
          "internalType": "address",
          "name": "sender",
          "type": "address"
        },
        {
          "internalType": "uint256",
          "name": "balance",
          "type": "uint256"
        },
        {
          "internalType": "uint256",
          "name": "needed",
          "type": "uint256"
        }
      ],
      "name": "ERC20InsufficientBalance",
      "type": "error"
    },
    {
      "inputs": [
        {
          "internalType": "address",
          "name": "approver",
          "type": "address"
        }
      ],
      "name": "ERC20InvalidApprover",
      "type": "error"
    },
    {
      "inputs": [
        {
          "internalType": "address",
          "name": "receiver",
          "type": "address"
        }
      ],
      "name": "ERC20InvalidReceiver",
      "type": "error"
    },
    {
      "inputs": [
        {
          "internalType": "address",
          "name": "sender",
          "type": "address"
        }
      ],
      "name": "ERC20InvalidSender",
      "type": "error"
    },
    {
      "inputs": [
        {
          "internalType": "address",
          "name": "spender",
          "type": "address"
        }
      ],
      "name": "ERC20InvalidSpender",
      "type": "error"
    },
    {
      "anonymous": false,
      "inputs": [
        {
          "indexed": true,
          "internalType": "address",
          "name": "owner",
          "type": "address"
        },
        {
          "indexed": true,
          "internalType": "address",
          "name": "spender",
          "type": "address"
        },
        {
          "indexed": false,
          "internalType": "uint256",
          "name": "value",
          "type": "uint256"
        }
      ],
      "name": "Approval",
      "type": "event"
    },
    {
      "anonymous": false,
      "inputs": [
        {
          "indexed": true,
          "internalType": "address",
          "name": "dst",
          "type": "address"
        },
        {
          "indexed": false,
          "internalType": "uint256",
          "name": "wad",
          "type": "uint256"
        }
      ],
      "name": "Deposit",
      "type": "event"
    },
    {
      "anonymous": false,
      "inputs": [
        {
          "indexed": true,
          "internalType": "address",
          "name": "from",
          "type": "address"
        },
        {
          "indexed": true,
          "internalType": "address",
          "name": "to",
          "type": "address"
        },
        {
          "indexed": false,
          "internalType": "uint256",
          "name": "value",
          "type": "uint256"
        }
      ],
      "name": "Transfer",
      "type": "event"
    },
    {
      "anonymous": false,
      "inputs": [
        {
          "indexed": true,
          "internalType": "address",
          "name": "src",
          "type": "address"
        },
        {
          "indexed": false,
          "internalType": "uint256",
          "name": "wad",
          "type": "uint256"
        }
      ],
      "name": "Withdrawal",
      "type": "event"
    },
    {
      "inputs": [
        {
          "internalType": "address",
          "name": "",
          "type": "address"
        },
        {
          "internalType": "address",
          "name": "",
          "type": "address"
        }
      ],
      "name": "_allowance",
      "outputs": [
        {
          "internalType": "uint256",
          "name": "",
          "type": "uint256"
        }
      ],
      "stateMutability": "view",
      "type": "function"
    },
    {
      "inputs": [
        {
          "internalType": "address",
          "name": "",
          "type": "address"
        }
      ],
      "name": "_balanceOf",
      "outputs": [
        {
          "internalType": "uint256",
          "name": "",
          "type": "uint256"
        }
      ],
      "stateMutability": "view",
      "type": "function"
    },
    {
      "inputs": [
        {
          "internalType": "address",
          "name": "owner",
          "type": "address"
        },
        {
          "internalType": "address",
          "name": "spender",
          "type": "address"
        }
      ],
      "name": "allowance",
      "outputs": [
        {
          "internalType": "uint256",
          "name": "",
          "type": "uint256"
        }
      ],
      "stateMutability": "view",
      "type": "function"
    },
    {
      "inputs": [
        {
          "internalType": "address",
          "name": "guy",
          "type": "address"
        },
        {
          "internalType": "uint256",
          "name": "wad",
          "type": "uint256"
        }
      ],
      "name": "approve",
      "outputs": [
        {
          "internalType": "bool",
          "name": "",
          "type": "bool"
        }
      ],
      "stateMutability": "nonpayable",
      "type": "function"
    },
    {
      "inputs": [
        {
          "internalType": "address",
          "name": "account",
          "type": "address"
        }
      ],
      "name": "balanceOf",
      "outputs": [
        {
          "internalType": "uint256",
          "name": "",
          "type": "uint256"
        }
      ],
      "stateMutability": "view",
      "type": "function"
    },
    {
      "inputs": [],
      "name": "decimals",
      "outputs": [
        {
          "internalType": "uint8",
          "name": "",
          "type": "uint8"
        }
      ],
      "stateMutability": "view",
      "type": "function"
    },
    {
      "inputs": [],
      "name": "deposit",
      "outputs": [],
      "stateMutability": "payable",
      "type": "function"
    },
    {
      "inputs": [
        {
          "internalType": "address",
          "name": "to",
          "type": "address"
        },
        {
          "internalType": "uint256",
          "name": "amount",
          "type": "uint256"
        }
      ],
      "name": "mint",
      "outputs": [],
      "stateMutability": "nonpayable",
      "type": "function"
    },
    {
      "inputs": [],
      "name": "name",
      "outputs": [
        {
          "internalType": "string",
          "name": "",
          "type": "string"
        }
      ],
      "stateMutability": "view",
      "type": "function"
    },
    {
      "inputs": [],
      "name": "symbol",
      "outputs": [
        {
          "internalType": "string",
          "name": "",
          "type": "string"
        }
      ],
      "stateMutability": "view",
      "type": "function"
    },
    {
      "inputs": [],
      "name": "totalSupply",
      "outputs": [
        {
          "internalType": "uint256",
          "name": "",
          "type": "uint256"
        }
      ],
      "stateMutability": "view",
      "type": "function"
    },
    {
      "inputs": [
        {
          "internalType": "address",
          "name": "dst",
          "type": "address"
        },
        {
          "internalType": "uint256",
          "name": "wad",
          "type": "uint256"
        }
      ],
      "name": "transfer",
      "outputs": [
        {
          "internalType": "bool",
          "name": "",
          "type": "bool"
        }
      ],
      "stateMutability": "nonpayable",
      "type": "function"
    },
    {
      "inputs": [
        {
          "internalType": "address",
          "name": "src",
          "type": "address"
        },
        {
          "internalType": "address",
          "name": "dst",
          "type": "address"
        },
        {
          "internalType": "uint256",
          "name": "wad",
          "type": "uint256"
        }
      ],
      "name": "transferFrom",
      "outputs": [
        {
          "internalType": "bool",
          "name": "",
          "type": "bool"
        }
      ],
      "stateMutability": "nonpayable",
      "type": "function"
    },
    {
      "inputs": [
        {
          "internalType": "uint256",
          "name": "wad",
          "type": "uint256"
        }
      ],
      "name": "withdraw",
      "outputs": [],
      "stateMutability": "nonpayable",
      "type": "function"
    }
  ],
  "bytecode": "0x608060405234801561001057600080fd5b506040518060400160405280601381526020017f577261707065642052534b20426974636f696e0000000000000000000000000081525060405180604001604052806005815260200164575242544360d81b8152508160039081610074919061012a565b506004610081828261012a565b5050506101e9565b634e487b7160e01b600052604160045260246000fd5b600181811c908216806100b357607f821691505b6020821081036100d357634e487b7160e01b600052602260045260246000fd5b50919050565b601f821115610125576000816000526020600020601f850160051c810160208610156101025750805b601f850160051c820191505b818110156101215782815560010161010e565b5050505b505050565b81516001600160401b0381111561014357610143610089565b61015781610151845461009f565b846100d9565b602080601f83116001811461018c57600084156101745750858301515b600019600386901b1c1916600185901b178555610121565b600085815260208120601f198616915b828110156101bb5788860151825594840194600190910190840161019c565b50858210156101d95787850151600019600388901b60f8161c191681555b5050505050600190811b01905550565b61093f806101f86000396000f3fe6080604052600436106100dd5760003560e01c806370a082311161007f578063cca3e83211610059578063cca3e83214610243578063d0e30db014610270578063dd336c1214610278578063dd62ed3e146102b057600080fd5b806370a08231146101d857806395d89b411461020e578063a9059cbb1461022357600080fd5b806323b872dd116100bb57806323b872dd1461015a5780632e1a7d4d1461017a578063313ce5671461019c57806340c10f19146101b857600080fd5b806306fdde03146100e2578063095ea7b31461010d57806318160ddd1461013d575b600080fd5b3480156100ee57600080fd5b506100f76102f6565b604051610104919061075b565b60405180910390f35b34801561011957600080fd5b5061012d6101283660046107c6565b610388565b6040519015158152602001610104565b34801561014957600080fd5b50475b604051908152602001610104565b34801561016657600080fd5b5061012d6101753660046107f0565b6103f5565b34801561018657600080fd5b5061019a61019536600461082c565b610578565b005b3480156101a857600080fd5b5060405160128152602001610104565b3480156101c457600080fd5b5061019a6101d33660046107c6565b6105f0565b3480156101e457600080fd5b5061014c6101f3366004610845565b6001600160a01b031660009081526020819052604090205490565b34801561021a57600080fd5b506100f76105fe565b34801561022f57600080fd5b5061012d61023e3660046107c6565b61060d565b34801561024f57600080fd5b5061014c61025e366004610845565b60056020526000908152604090205481565b61019a610621565b34801561028457600080fd5b5061014c610293366004610860565b600660209081526000928352604080842090915290825290205481565b3480156102bc57600080fd5b5061014c6102cb366004610860565b6001600160a01b03918216600090815260016020908152604080832093909416825291909152205490565b60606003805461030590610893565b80601f016020809104026020016040519081016040528092919081815260200182805461033190610893565b801561037e5780601f106103535761010080835404028352916020019161037e565b820191906000526020600020905b81548152906001019060200180831161036157829003601f168201915b5050505050905090565b3360008181526006602090815260408083206001600160a01b038716808552925280832085905551919290917f8c5be1e5ebec7d5bd14f71427d1e84f3dd0314c0f7b2291e5b200ac8c7c3b925906103e39086815260200190565b60405180910390a35060015b92915050565b6001600160a01b03831660009081526005602052604081205482111561041a57600080fd5b6001600160a01b038416331480159061045757506001600160a01b0384166000908152600660209081526040808320338452909152902054600114155b156104c5576001600160a01b038416600090815260066020908152604080832033845290915290205482111561048c57600080fd5b6001600160a01b0384166000908152600660209081526040808320338452909152812080548492906104bf9084906108e3565b90915550505b6001600160a01b038416600090815260056020526040812080548492906104ed9084906108e3565b90915550506001600160a01b0383166000908152600560205260408120805484929061051a9084906108f6565b92505081905550826001600160a01b0316846001600160a01b03167fddf252ad1be2c89b69c2b068fc378daa952ba7f163c4a11628f55a4df523b3ef8460405161056691815260200190565b60405180910390a35060019392505050565b3360009081526005602052604090205481111561059457600080fd5b33600090815260056020526040812080548392906105b39084906108e3565b909155505060405181815233907f7fcf532c15f0a6db0bd6d0e038bea71d30d808c7d98cb3bf7268a95bf5081b659060200160405180910390a250565b6105fa828261067c565b5050565b60606004805461030590610893565b600061061a3384846103f5565b9392505050565b33600090815260056020526040812080543492906106409084906108f6565b909155505060405134815233907fe1fffcc4923d04b559f4d29a8bfc6cda04eb5b0d3c460751c2402c5c5cc9109c9060200160405180910390a2565b6001600160a01b0382166106aa5760405163ec442f0560e01b81526000600482015260240160405180910390fd5b6105fa6000838380600260008282546106c391906108f6565b909155506106ce9050565b6001600160a01b0382166106ea57600280548290039055610709565b6001600160a01b03821660009081526020819052604090208054820190555b816001600160a01b0316836001600160a01b03167fddf252ad1be2c89b69c2b068fc378daa952ba7f163c4a11628f55a4df523b3ef8360405161074e91815260200190565b60405180910390a3505050565b60006020808352835180602085015260005b818110156107895785810183015185820160400152820161076d565b506000604082860101526040601f19601f8301168501019250505092915050565b80356001600160a01b03811681146107c157600080fd5b919050565b600080604083850312156107d957600080fd5b6107e2836107aa565b946020939093013593505050565b60008060006060848603121561080557600080fd5b61080e846107aa565b925061081c602085016107aa565b9150604084013590509250925092565b60006020828403121561083e57600080fd5b5035919050565b60006020828403121561085757600080fd5b61061a826107aa565b6000806040838503121561087357600080fd5b61087c836107aa565b915061088a602084016107aa565b90509250929050565b600181811c908216806108a757607f821691505b6020821081036108c757634e487b7160e01b600052602260045260246000fd5b50919050565b634e487b7160e01b600052601160045260246000fd5b818103818111156103ef576103ef6108cd565b808201808211156103ef576103ef6108cd56fea264697066735822122090765eee682f64109ee81b7663e850da38e5b938068260643d5800987d56137964736f6c63430008180033",
  "linkReferences": {},
  "deployedLinkReferences": {}
}