{
  "_format": "hh-sol-artifact-1",
  "contractName": "MoCDexFake",
  "sourceName": "contracts/test/MoCDexFake.sol",
  "abi": [
    {
      "inputs": [],
      "name": "ReentrancyGuardReentrantCall",
      "type": "error"
    },
    {
      "anonymous": false,
      "inputs": [
        {
          "indexed": true,
          "internalType": "uint256",
          "name": "orderId",
          "type": "uint256"
        },
        {
          "indexed": false,
          "internalType": "uint256",
          "name": "amountSent",
          "type": "uint256"
        },
        {
          "indexed": false,
          "internalType": "uint256",
          "name": "commission",
          "type": "uint256"
        },
        {
          "indexed": false,
          "internalType": "uint256",
          "name": "change",
          "type": "uint256"
        },
        {
          "indexed": false,
          "internalType": "uint256",
          "name": "received",
          "type": "uint256"
        },
        {
          "indexed": false,
          "internalType": "uint256",
          "name": "remainingAmount",
          "type": "uint256"
        },
        {
          "indexed": false,
          "internalType": "uint256",
          "name": "matchPrice",
          "type": "uint256"
        },
        {
          "indexed": false,
          "internalType": "uint64",
          "name": "tickNumber",
          "type": "uint64"
        }
      ],
      "name": "BuyerMatch",
      "type": "event"
    },
    {
      "anonymous": false,
      "inputs": [
        {
          "indexed": true,
          "internalType": "uint256",
          "name": "orderId",
          "type": "uint256"
        },
        {
          "indexed": true,
          "internalType": "address",
          "name": "owner",
          "type": "address"
        },
        {
          "indexed": false,
          "internalType": "uint256",
          "name": "returnedAmount",
          "type": "uint256"
        },
        {
          "indexed": false,
          "internalType": "uint256",
          "name": "commission",
          "type": "uint256"
        },
        {
          "indexed": false,
          "internalType": "uint256",
          "name": "returnedCommission",
          "type": "uint256"
        }
      ],
      "name": "ExpiredOrderProcessed",
      "type": "event"
    },
    {
      "anonymous": false,
      "inputs": [
        {
          "indexed": true,
          "internalType": "uint256",
          "name": "id",
          "type": "uint256"
        },
        {
          "indexed": false,
          "internalType": "uint256",
          "name": "notIndexedArgumentSoTheThingDoesntBreak",
          "type": "uint256"
        }
      ],
      "name": "NewOrderAddedToPendingQueue",
      "type": "event"
    },
    {
      "anonymous": false,
      "inputs": [
        {
          "indexed": true,
          "internalType": "uint256",
          "name": "id",
          "type": "uint256"
        },
        {
          "indexed": true,
          "internalType": "address",
          "name": "sender",
          "type": "address"
        },
        {
          "indexed": false,
          "internalType": "address",
          "name": "baseTokenAddress",
          "type": "address"
        },
        {
          "indexed": false,
          "internalType": "address",
          "name": "secondaryTokenAddress",
          "type": "address"
        },
        {
          "indexed": false,
          "internalType": "uint256",
          "name": "exchangeableAmount",
          "type": "uint256"
        },
        {
          "indexed": false,
          "internalType": "uint256",
          "name": "reservedCommission",
          "type": "uint256"
        },
        {
          "indexed": false,
          "internalType": "uint256",
          "name": "price",
          "type": "uint256"
        },
        {
          "indexed": false,
          "internalType": "uint256",
          "name": "multiplyFactor",
          "type": "uint256"
        },
        {
          "indexed": false,
          "internalType": "uint64",
          "name": "expiresInTick",
          "type": "uint64"
        },
        {
          "indexed": false,
          "internalType": "bool",
          "name": "isBuy",
          "type": "bool"
        },
        {
          "indexed": false,
          "internalType": "enum MoCExchangeLib.OrderType",
          "name": "orderType",
          "type": "uint8"
        }
      ],
      "name": "NewOrderInserted",
      "type": "event"
    },
    {
      "anonymous": false,
      "inputs": [
        {
          "indexed": true,
          "internalType": "uint256",
          "name": "id",
          "type": "uint256"
        },
        {
          "indexed": true,
          "internalType": "address",
          "name": "sender",
          "type": "address"
        },
        {
          "indexed": false,
          "internalType": "uint256",
          "name": "returnedAmount",
          "type": "uint256"
        },
        {
          "indexed": false,
          "internalType": "uint256",
          "name": "commission",
          "type": "uint256"
        },
        {
          "indexed": false,
          "internalType": "uint256",
          "name": "returnedCommission",
          "type": "uint256"
        },
        {
          "indexed": false,
          "internalType": "bool",
          "name": "isBuy",
          "type": "bool"
        }
      ],
      "name": "OrderCancelled",
      "type": "event"
    },
    {
      "anonymous": false,
      "inputs": [
        {
          "indexed": false,
          "internalType": "address",
          "name": "account",
          "type": "address"
        }
      ],
      "name": "Paused",
      "type": "event"
    },
    {
      "anonymous": false,
      "inputs": [
        {
          "indexed": true,
          "internalType": "uint256",
          "name": "orderId",
          "type": "uint256"
        },
        {
          "indexed": false,
          "internalType": "uint256",
          "name": "amountSent",
          "type": "uint256"
        },
        {
          "indexed": false,
          "internalType": "uint256",
          "name": "commission",
          "type": "uint256"
        },
        {
          "indexed": false,
          "internalType": "uint256",
          "name": "received",
          "type": "uint256"
        },
        {
          "indexed": false,
          "internalType": "uint256",
          "name": "surplus",
          "type": "uint256"
        },
        {
          "indexed": false,
          "internalType": "uint256",
          "name": "remainingAmount",
          "type": "uint256"
        },
        {
          "indexed": false,
          "internalType": "uint256",
          "name": "matchPrice",
          "type": "uint256"
        },
        {
          "indexed": false,
          "internalType": "uint64",
          "name": "tickNumber",
          "type": "uint64"
        }
      ],
      "name": "SellerMatch",
      "type": "event"
    },
    {
      "anonymous": false,
      "inputs": [
        {
          "indexed": true,
          "internalType": "address",
          "name": "baseTokenAddress",
          "type": "address"
        },
        {
          "indexed": true,
          "internalType": "address",
          "name": "secondaryTokenAddress",
          "type": "address"
        },
        {
          "indexed": true,
          "internalType": "uint64",
          "name": "number",
          "type": "uint64"
        },
        {
          "indexed": false,
          "internalType": "uint256",
          "name": "nextTickBlock",
          "type": "uint256"
        },
        {
          "indexed": false,
          "internalType": "uint256",
          "name": "closingPrice",
          "type": "uint256"
        }
      ],
      "name": "TickEnd",
      "type": "event"
    },
    {
      "anonymous": false,
      "inputs": [
        {
          "indexed": true,
          "internalType": "address",
          "name": "baseTokenAddress",
          "type": "address"
        },
        {
          "indexed": true,
          "internalType": "address",
          "name": "secondaryTokenAddress",
          "type": "address"
        },
        {
          "indexed": false,
          "internalType": "uint64",
          "name": "number",
          "type": "uint64"
        }
      ],
      "name": "TickStart",
      "type": "event"
    },
    {
      "anonymous": false,
      "inputs": [
        {
          "indexed": false,
          "internalType": "address",
          "name": "baseToken",
          "type": "address"
        },
        {
          "indexed": false,
          "internalType": "address",
          "name": "secondaryToken",
          "type": "address"
        }
      ],
      "name": "TokenPairDisabled",
      "type": "event"
    },
    {
      "anonymous": false,
      "inputs": [
        {
          "indexed": false,
          "internalType": "address",
          "name": "baseToken",
          "type": "address"
        },
        {
          "indexed": false,
          "internalType": "address",
          "name": "secondaryToken",
          "type": "address"
        }
      ],
      "name": "TokenPairEnabled",
      "type": "event"
    },
    {
      "anonymous": false,
      "inputs": [
        {
          "indexed": true,
          "internalType": "address",
          "name": "_tokenAddress",
          "type": "address"
        },
        {
          "indexed": true,
          "internalType": "address",
          "name": "_to",
          "type": "address"
        },
        {
          "indexed": false,
          "internalType": "uint256",
          "name": "_amount",
          "type": "uint256"
        },
        {
          "indexed": false,
          "internalType": "bool",
          "name": "_isRevert",
          "type": "bool"
        }
      ],
      "name": "TransferFailed",
      "type": "event"
    },
    {
      "anonymous": false,
      "inputs": [
        {
          "indexed": false,
          "internalType": "address",
          "name": "account",
          "type": "address"
        }
      ],
      "name": "Unpaused",
      "type": "event"
    },
    {
      "inputs": [],
      "name": "PRECISION_SMOOTHING_FACTOR",
      "outputs": [
        {
          "internalType": "uint256",
          "name": "",
          "type": "uint256"
        }
      ],
      "stateMutability": "view",
      "type": "function"
    },
    {
      "inputs": [],
      "name": "SMOOTHING_FACTOR",
      "outputs": [
        {
          "internalType": "uint256",
          "name": "",
          "type": "uint256"
        }
      ],
      "stateMutability": "view",
      "type": "function"
    },
    {
      "inputs": [
        {
          "internalType": "address",
          "name": "_baseToken",
          "type": "address"
        },
        {
          "internalType": "address",
          "name": "_secondaryToken",
          "type": "address"
        },
        {
          "internalType": "address",
          "name": "_priceProvider",
          "type": "address"
        },
        {
          "internalType": "uint256",
          "name": "_priceComparisonPrecision",
          "type": "uint256"
        },
        {
          "internalType": "uint256",
          "name": "_initialPrice",
          "type": "uint256"
        }
      ],
      "name": "addTokenPair",
      "outputs": [],
      "stateMutability": "nonpayable",
      "type": "function"
    },
    {
      "inputs": [
        {
          "internalType": "address",
          "name": "_baseToken",
          "type": "address"
        },
        {
          "internalType": "address",
          "name": "_secondaryToken",
          "type": "address"
        },
        {
          "internalType": "bool",
          "name": "_evaluateBuyOrders",
          "type": "bool"
        }
      ],
      "name": "areOrdersToExpire",
      "outputs": [
        {
          "internalType": "bool",
          "name": "",
          "type": "bool"
        }
      ],
      "stateMutability": "view",
      "type": "function"
    },
    {
      "inputs": [
        {
          "internalType": "address",
          "name": "_baseToken",
          "type": "address"
        },
        {
          "internalType": "address",
          "name": "_secondaryToken",
          "type": "address"
        }
      ],
      "name": "buyOrdersLength",
      "outputs": [
        {
          "internalType": "uint256",
          "name": "",
          "type": "uint256"
        }
      ],
      "stateMutability": "view",
      "type": "function"
    },
    {
      "inputs": [
        {
          "internalType": "address",
          "name": "_baseToken",
          "type": "address"
        },
        {
          "internalType": "address",
          "name": "_secondaryToken",
          "type": "address"
        },
        {
          "internalType": "uint256",
          "name": "_orderId",
          "type": "uint256"
        },
        {
          "internalType": "uint256",
          "name": "_previousOrderIdHint",
          "type": "uint256"
        }
      ],
      "name": "cancelBuyOrder",
      "outputs": [],
      "stateMutability": "nonpayable",
      "type": "function"
    },
    {
      "inputs": [
        {
          "internalType": "address",
          "name": "_baseToken",
          "type": "address"
        },
        {
          "internalType": "address",
          "name": "_secondaryToken",
          "type": "address"
        },
        {
          "internalType": "uint256",
          "name": "_orderId",
          "type": "uint256"
        },
        {
          "internalType": "uint256",
          "name": "_previousOrderIdHint",
          "type": "uint256"
        }
      ],
      "name": "cancelSellOrder",
      "outputs": [],
      "stateMutability": "nonpayable",
      "type": "function"
    },
    {
      "inputs": [
        {
          "internalType": "contract IGovernor",
          "name": "newIGovernor",
          "type": "address"
        }
      ],
      "name": "changeIGovernor",
      "outputs": [],
      "stateMutability": "nonpayable",
      "type": "function"
    },
    {
      "inputs": [],
      "name": "commissionManager",
      "outputs": [
        {
          "internalType": "contract CommissionManager",
          "name": "",
          "type": "address"
        }
      ],
      "stateMutability": "view",
      "type": "function"
    },
    {
      "inputs": [
        {
          "internalType": "address",
          "name": "_tokenAddress",
          "type": "address"
        },
        {
          "internalType": "uint256",
          "name": "_amount",
          "type": "uint256"
        },
        {
          "internalType": "address",
          "name": "_baseAddress",
          "type": "address"
        }
      ],
      "name": "convertTokenToCommonBase",
      "outputs": [
        {
          "internalType": "uint256",
          "name": "convertedAmount",
          "type": "uint256"
        }
      ],
      "stateMutability": "view",
      "type": "function"
    },
    {
      "inputs": [
        {
          "internalType": "address",
          "name": "_baseToken",
          "type": "address"
        },
        {
          "internalType": "address",
          "name": "_secondaryToken",
          "type": "address"
        }
      ],
      "name": "disableTokenPair",
      "outputs": [],
      "stateMutability": "nonpayable",
      "type": "function"
    },
    {
      "inputs": [
        {
          "internalType": "address",
          "name": "_baseToken",
          "type": "address"
        },
        {
          "internalType": "address",
          "name": "_secondaryToken",
          "type": "address"
        },
        {
          "internalType": "uint256",
          "name": "_orderId",
          "type": "uint256"
        },
        {
          "internalType": "bool",
          "name": "_isBuy",
          "type": "bool"
        },
        {
          "internalType": "uint64",
          "name": "_newExpiresInTick",
          "type": "uint64"
        }
      ],
      "name": "editOrder",
      "outputs": [],
      "stateMutability": "nonpayable",
      "type": "function"
    },
    {
      "inputs": [
        {
          "internalType": "address",
          "name": "_baseToken",
          "type": "address"
        },
        {
          "internalType": "address",
          "name": "_secondaryToken",
          "type": "address"
        }
      ],
      "name": "enableTokenPair",
      "outputs": [],
      "stateMutability": "nonpayable",
      "type": "function"
    },
    {
      "inputs": [
        {
          "internalType": "address",
          "name": "_baseToken",
          "type": "address"
        },
        {
          "internalType": "address",
          "name": "_secondaryToken",
          "type": "address"
        }
      ],
      "name": "getEmergentPrice",
      "outputs": [
        {
          "internalType": "uint256",
          "name": "emergentPrice",
          "type": "uint256"
        },
        {
          "internalType": "uint256",
          "name": "lastBuyMatchId",
          "type": "uint256"
        },
        {
          "internalType": "uint256",
          "name": "lastBuyMatchAmount",
          "type": "uint256"
        },
        {
          "internalType": "uint256",
          "name": "lastSellMatchId",
          "type": "uint256"
        }
      ],
      "stateMutability": "view",
      "type": "function"
    },
    {
      "inputs": [
        {
          "internalType": "address",
          "name": "_baseToken",
          "type": "address"
        },
        {
          "internalType": "address",
          "name": "_secondaryToken",
          "type": "address"
        }
      ],
      "name": "getLastClosingPrice",
      "outputs": [
        {
          "internalType": "uint256",
          "name": "lastClosingPrice",
          "type": "uint256"
        }
      ],
      "stateMutability": "view",
      "type": "function"
    },
    {
      "inputs": [
        {
          "internalType": "address",
          "name": "_baseToken",
          "type": "address"
        },
        {
          "internalType": "address",
          "name": "_secondaryToken",
          "type": "address"
        }
      ],
      "name": "getMarketPrice",
      "outputs": [
        {
          "internalType": "uint256",
          "name": "",
          "type": "uint256"
        }
      ],
      "stateMutability": "view",
      "type": "function"
    },
    {
      "inputs": [
        {
          "internalType": "address",
          "name": "_baseToken",
          "type": "address"
        },
        {
          "internalType": "address",
          "name": "_secondaryToken",
          "type": "address"
        }
      ],
      "name": "getNextTick",
      "outputs": [
        {
          "internalType": "uint64",
          "name": "tickNumber",
          "type": "uint64"
        },
        {
          "internalType": "uint256",
          "name": "nextTickBlock",
          "type": "uint256"
        },
        {
          "internalType": "uint256",
          "name": "lastTickBlock",
          "type": "uint256"
        }
      ],
      "stateMutability": "view",
      "type": "function"
    },
    {
      "inputs": [
        {
          "internalType": "address",
          "name": "_baseToken",
          "type": "address"
        },
        {
          "internalType": "address",
          "name": "_secondaryToken",
          "type": "address"
        },
        {
          "internalType": "uint256",
          "name": "_index",
          "type": "uint256"
        },
        {
          "internalType": "bool",
          "name": "_isBuy",
          "type": "bool"
        }
      ],
      "name": "getOrderAtIndex",
      "outputs": [
        {
          "internalType": "uint256",
          "name": "id",
          "type": "uint256"
        },
        {
          "internalType": "address",
          "name": "owner",
          "type": "address"
        },
        {
          "internalType": "uint256",
          "name": "exchangeableAmount",
          "type": "uint256"
        },
        {
          "internalType": "uint256",
          "name": "multiplyFactor",
          "type": "uint256"
        },
        {
          "internalType": "uint256",
          "name": "reservedCommission",
          "type": "uint256"
        },
        {
          "internalType": "uint256",
          "name": "price",
          "type": "uint256"
        },
        {
          "internalType": "uint256",
          "name": "next",
          "type": "uint256"
        }
      ],
      "stateMutability": "view",
      "type": "function"
    },
    {
      "inputs": [
        {
          "internalType": "address",
          "name": "_baseToken",
          "type": "address"
        },
        {
          "internalType": "address",
          "name": "_secondaryToken",
          "type": "address"
        }
      ],
      "name": "getPageMemory",
      "outputs": [
        {
          "internalType": "uint256",
          "name": "emergentPrice",
          "type": "uint256"
        },
        {
          "internalType": "uint256",
          "name": "matchesAmount",
          "type": "uint256"
        },
        {
          "internalType": "uint256",
          "name": "lastBuyMatchId",
          "type": "uint256"
        },
        {
          "internalType": "uint256",
          "name": "lastSellMatchId",
          "type": "uint256"
        },
        {
          "internalType": "uint256",
          "name": "lastBuyMatchAmount",
          "type": "uint256"
        },
        {
          "internalType": "uint256",
          "name": "lastSellMatchAmount",
          "type": "uint256"
        },
        {
          "internalType": "uint256",
          "name": "marketPrice",
          "type": "uint256"
        }
      ],
      "stateMutability": "view",
      "type": "function"
    },
    {
      "inputs": [
        {
          "internalType": "address",
          "name": "_baseToken",
          "type": "address"
        },
        {
          "internalType": "address",
          "name": "_secondaryToken",
          "type": "address"
        }
      ],
      "name": "getPriceProvider",
      "outputs": [
        {
          "internalType": "address",
          "name": "",
          "type": "address"
        }
      ],
      "stateMutability": "view",
      "type": "function"
    },
    {
      "inputs": [
        {
          "internalType": "address",
          "name": "_baseToken",
          "type": "address"
        },
        {
          "internalType": "address",
          "name": "_secondaryToken",
          "type": "address"
        }
      ],
      "name": "getTickStage",
      "outputs": [
        {
          "internalType": "enum MoCExchangeLib.TickStage",
          "name": "stage",
          "type": "uint8"
        }
      ],
      "stateMutability": "view",
      "type": "function"
    },
    {
      "inputs": [
        {
          "internalType": "address",
          "name": "_baseToken",
          "type": "address"
        },
        {
          "internalType": "address",
          "name": "_secondaryToken",
          "type": "address"
        }
      ],
      "name": "getTokenPairStatus",
      "outputs": [
        {
          "internalType": "uint256",
          "name": "emergentPrice",
          "type": "uint256"
        },
        {
          "internalType": "uint256",
          "name": "lastBuyMatchId",
          "type": "uint256"
        },
        {
          "internalType": "uint256",
          "name": "lastBuyMatchAmount",
          "type": "uint256"
        },
        {
          "internalType": "uint256",
          "name": "lastSellMatchId",
          "type": "uint256"
        },
        {
          "internalType": "uint64",
          "name": "tickNumber",
          "type": "uint64"
        },
        {
          "internalType": "uint256",
          "name": "nextTickBlock",
          "type": "uint256"
        },
        {
          "internalType": "uint256",
          "name": "lastTickBlock",
          "type": "uint256"
        },
        {
          "internalType": "uint256",
          "name": "lastClosingPrice",
          "type": "uint256"
        },
        {
          "internalType": "bool",
          "name": "disabled",
          "type": "bool"
        },
        {
          "internalType": "uint256",
          "name": "emaPrice",
          "type": "uint256"
        },
        {
          "internalType": "uint256",
          "name": "smoothingFactor",
          "type": "uint256"
        },
        {
          "internalType": "uint256",
          "name": "marketPrice",
          "type": "uint256"
        }
      ],
      "stateMutability": "view",
      "type": "function"
    },
    {
      "inputs": [],
      "name": "getTokenPairs",
      "outputs": [
        {
          "internalType": "address[2][]",
          "name": "",
          "type": "address[2][]"
        }
      ],
      "stateMutability": "view",
      "type": "function"
    },
    {
      "inputs": [],
      "name": "governor",
      "outputs": [
        {
          "internalType": "contract IGovernor",
          "name": "",
          "type": "address"
        }
      ],
      "stateMutability": "view",
      "type": "function"
    },
    {
      "inputs": [
        {
          "internalType": "address",
          "name": "_baseToken",
          "type": "address"
        },
        {
          "internalType": "address",
          "name": "_secondaryToken",
          "type": "address"
        }
      ],
      "name": "hashAddresses",
      "outputs": [
        {
          "internalType": "bytes32",
          "name": "",
          "type": "bytes32"
        }
      ],
      "stateMutability": "pure",
      "type": "function"
    },
    {
      "inputs": [
        {
          "internalType": "address",
          "name": "_stopper",
          "type": "address"
        },
        {
          "internalType": "address",
          "name": "_governor",
          "type": "address"
        }
      ],
      "name": "initialize",
      "outputs": [],
      "stateMutability": "nonpayable",
      "type": "function"
    },
    {
      "inputs": [],
      "name": "initialize",
      "outputs": [],
      "stateMutability": "nonpayable",
      "type": "function"
    },
    {
      "inputs": [
        {
          "internalType": "address",
          "name": "_commonBaseTokenAddress",
          "type": "address"
        },
        {
          "internalType": "contract CommissionManager",
          "name": "_commissionManager",
          "type": "address"
        },
        {
          "internalType": "uint64",
          "name": "_expectedOrdersForTick",
          "type": "uint64"
        },
        {
          "internalType": "uint64",
          "name": "_maxBlocksForTick",
          "type": "uint64"
        },
        {
          "internalType": "uint64",
          "name": "_minBlocksForTick",
          "type": "uint64"
        },
        {
          "internalType": "uint256",
          "name": "_minOrderAmount",
          "type": "uint256"
        },
        {
          "internalType": "uint256",
          "name": "_minMultiplyFactor",
          "type": "uint256"
        },
        {
          "internalType": "uint256",
          "name": "_maxMultiplyFactor",
          "type": "uint256"
        },
        {
          "internalType": "uint64",
          "name": "_maxOrderLifespan",
          "type": "uint64"
        },
        {
          "internalType": "address",
          "name": "_governor",
          "type": "address"
        },
        {
          "internalType": "address",
          "name": "_stopper",
          "type": "address"
        }
      ],
      "name": "initialize",
      "outputs": [],
      "stateMutability": "nonpayable",
      "type": "function"
    },
    {
      "inputs": [
        {
          "internalType": "address",
          "name": "_governor",
          "type": "address"
        }
      ],
      "name": "initialize",
      "outputs": [],
      "stateMutability": "nonpayable",
      "type": "function"
    },
    {
      "inputs": [
        {
          "internalType": "address",
          "name": "_stopper",
          "type": "address"
        },
        {
          "internalType": "address",
          "name": "_governor",
          "type": "address"
        },
        {
          "internalType": "bool",
          "name": "_stoppable",
          "type": "bool"
        }
      ],
      "name": "initialize",
      "outputs": [],
      "stateMutability": "nonpayable",
      "type": "function"
    },
    {
      "inputs": [
        {
          "internalType": "address",
          "name": "_baseToken",
          "type": "address"
        },
        {
          "internalType": "address",
          "name": "_secondaryToken",
          "type": "address"
        },
        {
          "internalType": "uint256",
          "name": "_amount",
          "type": "uint256"
        },
        {
          "internalType": "uint256",
          "name": "_price",
          "type": "uint256"
        },
        {
          "internalType": "uint64",
          "name": "_lifespan",
          "type": "uint64"
        }
      ],
      "name": "insertBuyLimitOrder",
      "outputs": [],
      "stateMutability": "nonpayable",
      "type": "function"
    },
    {
      "inputs": [
        {
          "internalType": "address",
          "name": "_baseToken",
          "type": "address"
        },
        {
          "internalType": "address",
          "name": "_secondaryToken",
          "type": "address"
        },
        {
          "internalType": "uint256",
          "name": "_amount",
          "type": "uint256"
        },
        {
          "internalType": "uint256",
          "name": "_price",
          "type": "uint256"
        },
        {
          "internalType": "uint64",
          "name": "_lifespan",
          "type": "uint64"
        },
        {
          "internalType": "uint256",
          "name": "_previousOrderIdHint",
          "type": "uint256"
        }
      ],
      "name": "insertBuyLimitOrderAfter",
      "outputs": [],
      "stateMutability": "nonpayable",
      "type": "function"
    },
    {
      "inputs": [
        {
          "internalType": "address",
          "name": "_baseToken",
          "type": "address"
        },
        {
          "internalType": "address",
          "name": "_secondaryToken",
          "type": "address"
        },
        {
          "internalType": "uint256",
          "name": "_amount",
          "type": "uint256"
        },
        {
          "internalType": "uint256",
          "name": "_multiplyFactor",
          "type": "uint256"
        },
        {
          "internalType": "uint64",
          "name": "_lifespan",
          "type": "uint64"
        },
        {
          "internalType": "bool",
          "name": "_isBuy",
          "type": "bool"
        }
      ],
      "name": "insertMarketOrder",
      "outputs": [],
      "stateMutability": "nonpayable",
      "type": "function"
    },
    {
      "inputs": [
        {
          "internalType": "address",
          "name": "_baseToken",
          "type": "address"
        },
        {
          "internalType": "address",
          "name": "_secondaryToken",
          "type": "address"
        },
        {
          "internalType": "uint256",
          "name": "_amount",
          "type": "uint256"
        },
        {
          "internalType": "uint256",
          "name": "_price",
          "type": "uint256"
        },
        {
          "internalType": "uint64",
          "name": "_lifespan",
          "type": "uint64"
        }
      ],
      "name": "insertSellLimitOrder",
      "outputs": [],
      "stateMutability": "nonpayable",
      "type": "function"
    },
    {
      "inputs": [
        {
          "internalType": "address",
          "name": "_baseToken",
          "type": "address"
        },
        {
          "internalType": "address",
          "name": "_secondaryToken",
          "type": "address"
        },
        {
          "internalType": "uint256",
          "name": "_amount",
          "type": "uint256"
        },
        {
          "internalType": "uint256",
          "name": "_price",
          "type": "uint256"
        },
        {
          "internalType": "uint64",
          "name": "_lifespan",
          "type": "uint64"
        },
        {
          "internalType": "uint256",
          "name": "_previousOrderIdHint",
          "type": "uint256"
        }
      ],
      "name": "insertSellLimitOrderAfter",
      "outputs": [],
      "stateMutability": "nonpayable",
      "type": "function"
    },
    {
      "inputs": [],
      "name": "makeStoppable",
      "outputs": [],
      "stateMutability": "nonpayable",
      "type": "function"
    },
    {
      "inputs": [],
      "name": "makeUnstoppable",
      "outputs": [],
      "stateMutability": "nonpayable",
      "type": "function"
    },
    {
      "inputs": [
        {
          "internalType": "address",
          "name": "_baseToken",
          "type": "address"
        },
        {
          "internalType": "address",
          "name": "_secondaryToken",
          "type": "address"
        },
        {
          "internalType": "uint256",
          "name": "steps",
          "type": "uint256"
        }
      ],
      "name": "matchOrders",
      "outputs": [],
      "stateMutability": "nonpayable",
      "type": "function"
    },
    {
      "inputs": [
        {
          "internalType": "address",
          "name": "_baseToken",
          "type": "address"
        },
        {
          "internalType": "address",
          "name": "_secondaryToken",
          "type": "address"
        },
        {
          "internalType": "uint256",
          "name": "steps",
          "type": "uint256"
        },
        {
          "internalType": "uint256[]",
          "name": "hintIds",
          "type": "uint256[]"
        }
      ],
      "name": "matchOrdersWithHints",
      "outputs": [],
      "stateMutability": "nonpayable",
      "type": "function"
    },
    {
      "inputs": [],
      "name": "maxMultiplyFactor",
      "outputs": [
        {
          "internalType": "uint256",
          "name": "",
          "type": "uint256"
        }
      ],
      "stateMutability": "view",
      "type": "function"
    },
    {
      "inputs": [],
      "name": "maxOrderLifespan",
      "outputs": [
        {
          "internalType": "uint64",
          "name": "",
          "type": "uint64"
        }
      ],
      "stateMutability": "view",
      "type": "function"
    },
    {
      "inputs": [],
      "name": "minMultiplyFactor",
      "outputs": [
        {
          "internalType": "uint256",
          "name": "",
          "type": "uint256"
        }
      ],
      "stateMutability": "view",
      "type": "function"
    },
    {
      "inputs": [],
      "name": "minOrderAmount",
      "outputs": [
        {
          "internalType": "uint256",
          "name": "",
          "type": "uint256"
        }
      ],
      "stateMutability": "view",
      "type": "function"
    },
    {
      "inputs": [],
      "name": "pause",
      "outputs": [],
      "stateMutability": "nonpayable",
      "type": "function"
    },
    {
      "inputs": [],
      "name": "paused",
      "outputs": [
        {
          "internalType": "bool",
          "name": "",
          "type": "bool"
        }
      ],
      "stateMutability": "view",
      "type": "function"
    },
    {
      "inputs": [
        {
          "internalType": "address",
          "name": "_baseToken",
          "type": "address"
        },
        {
          "internalType": "address",
          "name": "_secondaryToken",
          "type": "address"
        }
      ],
      "name": "pendingBuyOrdersLength",
      "outputs": [
        {
          "internalType": "uint256",
          "name": "",
          "type": "uint256"
        }
      ],
      "stateMutability": "view",
      "type": "function"
    },
    {
      "inputs": [
        {
          "internalType": "address",
          "name": "_baseToken",
          "type": "address"
        },
        {
          "internalType": "address",
          "name": "_secondaryToken",
          "type": "address"
        },
        {
          "internalType": "bool",
          "name": "_isBuy",
          "type": "bool"
        }
      ],
      "name": "pendingMarketOrdersLength",
      "outputs": [
        {
          "internalType": "uint256",
          "name": "",
          "type": "uint256"
        }
      ],
      "stateMutability": "view",
      "type": "function"
    },
    {
      "inputs": [
        {
          "internalType": "address",
          "name": "_baseToken",
          "type": "address"
        },
        {
          "internalType": "address",
          "name": "_secondaryToken",
          "type": "address"
        }
      ],
      "name": "pendingSellOrdersLength",
      "outputs": [
        {
          "internalType": "uint256",
          "name": "",
          "type": "uint256"
        }
      ],
      "stateMutability": "view",
      "type": "function"
    },
    {
      "inputs": [
        {
          "internalType": "address",
          "name": "_baseToken",
          "type": "address"
        },
        {
          "internalType": "address",
          "name": "_secondaryToken",
          "type": "address"
        },
        {
          "internalType": "bool",
          "name": "_evaluateBuyOrders",
          "type": "bool"
        },
        {
          "internalType": "uint256",
          "name": "_orderId",
          "type": "uint256"
        },
        {
          "internalType": "uint256",
          "name": "_previousOrderIdHint",
          "type": "uint256"
        },
        {
          "internalType": "uint256",
          "name": "_steps",
          "type": "uint256"
        },
        {
          "internalType": "enum MoCExchangeLib.OrderType",
          "name": "_orderType",
          "type": "uint8"
        }
      ],
      "name": "processExpired",
      "outputs": [],
      "stateMutability": "nonpayable",
      "type": "function"
    },
    {
      "inputs": [
        {
          "internalType": "address",
          "name": "_baseToken",
          "type": "address"
        },
        {
          "internalType": "address",
          "name": "_secondaryToken",
          "type": "address"
        }
      ],
      "name": "sellOrdersLength",
      "outputs": [
        {
          "internalType": "uint256",
          "name": "",
          "type": "uint256"
        }
      ],
      "stateMutability": "view",
      "type": "function"
    },
    {
      "inputs": [
        {
          "internalType": "uint64",
          "name": "_expectedOrdersForTick",
          "type": "uint64"
        }
      ],
      "name": "setExpectedOrdersForTick",
      "outputs": [],
      "stateMutability": "nonpayable",
      "type": "function"
    },
    {
      "inputs": [
        {
          "internalType": "address",
          "name": "_baseToken",
          "type": "address"
        },
        {
          "internalType": "address",
          "name": "_secondaryToken",
          "type": "address"
        },
        {
          "internalType": "uint256",
          "name": "_price",
          "type": "uint256"
        }
      ],
      "name": "setLastClosingPrice",
      "outputs": [],
      "stateMutability": "nonpayable",
      "type": "function"
    },
    {
      "inputs": [
        {
          "internalType": "uint64",
          "name": "_maxBlocksForTick",
          "type": "uint64"
        }
      ],
      "name": "setMaxBlocksForTick",
      "outputs": [],
      "stateMutability": "nonpayable",
      "type": "function"
    },
    {
      "inputs": [
        {
          "internalType": "uint256",
          "name": "_maxMultiplyFactor",
          "type": "uint256"
        }
      ],
      "name": "setMaxMultiplyFactor",
      "outputs": [],
      "stateMutability": "nonpayable",
      "type": "function"
    },
    {
      "inputs": [
        {
          "internalType": "uint64",
          "name": "_maxOrderLifespan",
          "type": "uint64"
        }
      ],
      "name": "setMaxOrderLifespan",
      "outputs": [],
      "stateMutability": "nonpayable",
      "type": "function"
    },
    {
      "inputs": [
        {
          "internalType": "uint64",
          "name": "_minBlocksForTick",
          "type": "uint64"
        }
      ],
      "name": "setMinBlocksForTick",
      "outputs": [],
      "stateMutability": "nonpayable",
      "type": "function"
    },
    {
      "inputs": [
        {
          "internalType": "uint256",
          "name": "_minMultiplyFactor",
          "type": "uint256"
        }
      ],
      "name": "setMinMultiplyFactor",
      "outputs": [],
      "stateMutability": "nonpayable",
      "type": "function"
    },
    {
      "inputs": [
        {
          "internalType": "uint256",
          "name": "_minOrderAmount",
          "type": "uint256"
        }
      ],
      "name": "setMinOrderAmount",
      "outputs": [],
      "stateMutability": "nonpayable",
      "type": "function"
    },
    {
      "inputs": [
        {
          "internalType": "address",
          "name": "_baseToken",
          "type": "address"
        },
        {
          "internalType": "address",
          "name": "_secondaryToken",
          "type": "address"
        },
        {
          "internalType": "address",
          "name": "_priceProvider",
          "type": "address"
        }
      ],
      "name": "setPriceProvider",
      "outputs": [],
      "stateMutability": "nonpayable",
      "type": "function"
    },
    {
      "inputs": [
        {
          "internalType": "address",
          "name": "newStopper",
          "type": "address"
        }
      ],
      "name": "setStopper",
      "outputs": [],
      "stateMutability": "nonpayable",
      "type": "function"
    },
    {
      "inputs": [
        {
          "internalType": "address",
          "name": "_baseToken",
          "type": "address"
        },
        {
          "internalType": "address",
          "name": "_secondaryToken",
          "type": "address"
        },
        {
          "internalType": "uint256",
          "name": "_emaPrice",
          "type": "uint256"
        }
      ],
      "name": "setTokenPairEmaPrice",
      "outputs": [],
      "stateMutability": "nonpayable",
      "type": "function"
    },
    {
      "inputs": [
        {
          "internalType": "address",
          "name": "_baseToken",
          "type": "address"
        },
        {
          "internalType": "address",
          "name": "_secondaryToken",
          "type": "address"
        },
        {
          "internalType": "uint256",
          "name": "_smoothingFactor",
          "type": "uint256"
        }
      ],
      "name": "setTokenPairSmoothingFactor",
      "outputs": [],
      "stateMutability": "nonpayable",
      "type": "function"
    },
    {
      "inputs": [],
      "name": "stoppable",
      "outputs": [
        {
          "internalType": "bool",
          "name": "",
          "type": "bool"
        }
      ],
      "stateMutability": "view",
      "type": "function"
    },
    {
      "inputs": [],
      "name": "stopper",
      "outputs": [
        {
          "internalType": "address",
          "name": "",
          "type": "address"
        }
      ],
      "stateMutability": "view",
      "type": "function"
    },
    {
      "inputs": [],
      "name": "tickConfig",
      "outputs": [
        {
          "internalType": "uint256",
          "name": "expectedOrdersForTick",
          "type": "uint256"
        },
        {
          "internalType": "uint256",
          "name": "maxBlocksForTick",
          "type": "uint256"
        },
        {
          "internalType": "uint256",
          "name": "minBlocksForTick",
          "type": "uint256"
        }
      ],
      "stateMutability": "view",
      "type": "function"
    },
    {
      "inputs": [
        {
          "internalType": "address",
          "name": "_baseToken",
          "type": "address"
        },
        {
          "internalType": "address",
          "name": "_secondaryToken",
          "type": "address"
        }
      ],
      "name": "tickIsRunning",
      "outputs": [
        {
          "internalType": "bool",
          "name": "",
          "type": "bool"
        }
      ],
      "stateMutability": "view",
      "type": "function"
    },
    {
      "inputs": [
        {
          "internalType": "uint256",
          "name": "",
          "type": "uint256"
        },
        {
          "internalType": "uint256",
          "name": "",
          "type": "uint256"
        }
      ],
      "name": "tokenPairAddresses",
      "outputs": [
        {
          "internalType": "address",
          "name": "",
          "type": "address"
        }
      ],
      "stateMutability": "view",
      "type": "function"
    },
    {
      "inputs": [],
      "name": "tokenPairCount",
      "outputs": [
        {
          "internalType": "uint256",
          "name": "",
          "type": "uint256"
        }
      ],
      "stateMutability": "view",
      "type": "function"
    },
    {
      "inputs": [],
      "name": "unpause",
      "outputs": [],
      "stateMutability": "nonpayable",
      "type": "function"
    },
    {
      "inputs": [
        {
          "internalType": "address",
          "name": "token",
          "type": "address"
        }
      ],
      "name": "withdrawCommissions",
      "outputs": [],
      "stateMutability": "nonpayable",
      "type": "function"
    }
  ],
  "bytecode": "0x608060405234801561001057600080fd5b50600161016855614878806100266000396000f3fe608060405234801561001057600080fd5b50600436106104125760003560e01c806379c5827c11610220578063b6e0833011610130578063e24e4fdb116100b8578063f2b24da311610087578063f2b24da3146109ff578063f4ae020e14610a12578063f5b5f6cb14610a25578063fc3a496214610a38578063ff0e4bac14610a4b57600080fd5b8063e24e4fdb146109b1578063e3204b22146109c6578063e4bbb5a8146109d9578063ec62d9ef146109ec57600080fd5b8063c4d66de8116100ff578063c4d66de81461094b578063c4e82c1a1461095e578063c520bc9214610971578063d1a7671414610984578063df318d1b1461099e57600080fd5b8063b6e08330146108df578063bb4872de146108f2578063bbc92f5014610900578063c227b51c1461091357600080fd5b806395b6f0d4116101b3578063a3b8ef0411610182578063a3b8ef0414610897578063ae067854146108aa578063afac413f146108b8578063b232634c146108c2578063b5febde0146108d557600080fd5b806395b6f0d4146108245780639c27ee4c146108445780639df64e1e14610871578063a268e2121461088457600080fd5b806389f1b1e3116101ef57806389f1b1e3146107d85780638dfc0439146107eb57806391988cb8146107fe5780639221ffa61461081157600080fd5b806379c5827c146107a257806380446d87146107b55780638129fc1c146107c85780638456cb59146107d057600080fd5b80633f4ba83a116103265780635210570c116102ae5780635c975abb1161027d5780635c975abb146107075780635f913d4e1461072457806364ce594c1461077457806368274357146107875780636bf5de4d1461078f57600080fd5b80635210570c146106c657806352826184146106ce5780635394e8e6146106e15780635a3970b1146106f457600080fd5b8063485cc955116102f5578063485cc955146106675780634a2721321461067a5780634e420fd41461068d57806350090c6b146106a057806351f7a854146106b357600080fd5b80633f4ba83a1461062f57806341f3844d1461063757806342872a021461064a57806346b62c4a1461065d57600080fd5b80631c5129e9116103a9578063324773801161037857806332477380146105db57806333ccf340146105ee578063340f965a1461060157806337db0273146106145780633991dfe81461062757600080fd5b80631c5129e91461056c57806320aab0731461057f57806320ad3f011461059c578063237d9c8e146105af57600080fd5b806314fced94116103e557806314fced9414610488578063154e83221461049b5780631617b922146104e357806316dedc84146104f657600080fd5b80630a2c1470146104175780630a58f47a1461042c5780630c340a241461043f5780630ef51d0d1461046f575b600080fd5b61042a610425366004613e44565b610a7e565b005b61042a61043a366004613ec3565b610b72565b603354610452906001600160a01b031681565b6040516001600160a01b0390911681526020015b60405180910390f35b610169546104529061010090046001600160a01b031681565b61042a610496366004613ee0565b610ba5565b6104ae6104a9366004613ee0565b610bde565b604080519788526020880196909652948601939093526060850191909152608084015260a083015260c082015260e001610466565b61042a6104f1366004613f19565b610c37565b610509610504366004613ee0565b610c74565b604080519c8d5260208d019b909b52998b019890985260608a01969096526001600160401b03909416608089015260a088019290925260c087015260e0860152151561010085015261012084015261014083015261016082015261018001610466565b61042a61057a366004613ee0565b610cd1565b61058e670de0b6b3a764000081565b604051908152602001610466565b6104526105aa366004613f5f565b610d04565b61019f546105c3906001600160401b031681565b6040516001600160401b039091168152602001610466565b61042a6105e9366004613f81565b610d42565b61042a6105fc366004613f81565b610dcc565b61042a61060f366004613fd9565b610dec565b61042a610622366004613ff4565b610e5c565b609c5461058e565b61042a610f4f565b61058e610645366004613ee0565b61103b565b61058e610658366004613ee0565b611054565b61058e61019c5481565b61042a610675366004613ee0565b6110e0565b61042a610688366004613fd9565b611164565b61042a61069b36600461403f565b6111a5565b61058e6106ae366004613ee0565b611248565b61042a6106c1366004613ec3565b611262565b61042a6112f6565b61042a6106dc366004613f81565b61130b565b61058e6106ef366004613ee0565b611394565b610452610702366004613ee0565b6113b1565b61013554610100900460ff165b6040519015158152602001610466565b6107376107323660046140a2565b6113d3565b604080519788526001600160a01b039096166020880152948601939093526060850191909152608084015260a083015260c082015260e001610466565b61042a6107823660046140f5565b61141a565b61042a61147e565b61071461079d366004614163565b611496565b6107146107b0366004613ee0565b61152c565b61058e6107c3366004614163565b611553565b61042a611568565b61042a6115dd565b61042a6107e6366004613fd9565b611709565b61042a6107f93660046141a3565b611735565b61042a61080c366004613f19565b6117f3565b61042a61081f366004614264565b611828565b610837610832366004613ee0565b6118c7565b604051610466919061432b565b60665460675460685461085692919083565b60408051938452602084019290925290820152606001610466565b61058e61087f366004613ee0565b6118e1565b61042a61089236600461433e565b6118f8565b61042a6108a5366004614399565b61190f565b61058e663ab9f28a23200081565b61058e61019e5481565b61042a6108d036600461433e565b61191d565b61058e61019d5481565b61042a6108ed366004613ec3565b61192d565b610135546107149060ff1681565b61042a61090e366004614399565b611957565b610926610921366004613ee0565b611965565b604080516001600160401b039094168452602084019290925290820152606001610466565b61042a610959366004613ec3565b61199d565b61042a61096c366004614399565b611a2f565b61042a61097f3660046143b2565b611a3d565b61013554610452906201000090046001600160a01b031681565b61058e6109ac36600461440d565b611b99565b6109b9611bf8565b6040516104669190614444565b61042a6109d4366004613fd9565b611c7f565b61042a6109e7366004614163565b611cc0565b61042a6109fa36600461403f565b611d73565b61058e610a0d366004613ee0565b611e09565b61042a610a203660046144b6565b611e54565b61042a610a33366004613f81565b611ea1565b61058e610a46366004613ee0565b611f02565b610a5e610a59366004613ee0565b611f18565b604080519485526020850193909352918301526060820152608001610466565b610135546040805180820190915260128152600080516020614823833981519152602082015290610100900460ff1615610ad45760405162461bcd60e51b8152600401610acb919061450e565b60405180910390fd5b506000610ae18888611fd4565b61016954604051631a69cb3b60e31b815291925073__$4a165dabbfd6ff3f3f3890617dd1870b68$__9163d34e59d891610b3891859161010090046001600160a01b0316908b908b908b908b908b9060040161455d565b60006040518083038186803b158015610b5057600080fd5b505af4158015610b64573d6000803e3d6000fd5b505050505050505050505050565b610b7a612033565b61013580546001600160a01b03909216620100000262010000600160b01b0319909216919091179055565b8181610bb1828261152c565b15610bce5760405162461bcd60e51b8152600401610acb906145b2565b610bd884846120ec565b50505050565b600080600080600080600080610bf48a8a6121a8565b602181015460228201546026830154602e8401546027850154602f860154603990960154949d50929b509099509750955090935091505092959891949750929550565b8383610c43828261152c565b15610c605760405162461bcd60e51b8152600401610acb906145b2565b610c6c868686866121ce565b505050505050565b600080600080600080600080600080600080610c908e8e612232565b959d50939b509199509750955093509150610cab8e8e611f18565b929e50909c509a509850610cbf8e8e611054565b90509295989b509295989b509295989b565b8181610cdd828261152c565b15610cfa5760405162461bcd60e51b8152600401610acb906145b2565b610bd884846122a2565b609c8281548110610d1457600080fd5b90600052602060002090600202018160028110610d3057600080fd5b01546001600160a01b03169150829050565b610d4a612033565b6000610d568484611fd4565b9050670de0b6b3a7640000821115610dc45760405162461bcd60e51b815260206004820152602b60248201527f536d6f6f7468696e6720666163746f722073686f756c6420626520696e20726560448201526a6c6174696f6e20746f203160a81b6064820152608401610acb565b603f01555050565b610dd4612033565b6000610de08484611fd4565b603e0191909155505050565b610df4612033565b6002816001600160401b03161015610e4e5760405162461bcd60e51b815260206004820181905260248201527f4578706563746564206f726465727320666f72207469636b20746f6f206c6f776044820152606401610acb565b6001600160401b0316606655565b610e64612033565b610e6e8383612350565b610eba5760405162461bcd60e51b815260206004820152601760248201527f546865207061697220646f6573206e6f742065786973740000000000000000006044820152606401610acb565b6001600160a01b038116610f1c5760405162461bcd60e51b8152602060048201526024808201527f50726963652070726f766964657220616464726573732063616e206e6f7420626044820152630ca4060f60e31b6064820152608401610acb565b6000610f288484611fd4565b601c0180546001600160a01b0319166001600160a01b039390931692909217909155505050565b6101355460408051808201909152600b81526a3737ba2fb9ba37b83832b960a91b6020820152906201000090046001600160a01b03163314610fa45760405162461bcd60e51b8152600401610acb919061450e565b5061013554604080518082019091526012815271636f6e74726163745f69735f61637469766560701b602082015290610100900460ff16610ff85760405162461bcd60e51b8152600401610acb919061450e565b50610135805461ff00191690556040513381527f5db9ee0a495bf2e6ff9c91a7834c1ba4fdd244a5e8aa4e537bd38aeae4b073aa906020015b60405180910390a1565b600061104783836121a8565b6003015490505b92915050565b60008061106184846121a8565b60405163323bfe2160e01b81526004810182905290915073__$4a165dabbfd6ff3f3f3890617dd1870b68$__9063323bfe2190602401602060405180830381865af41580156110b4573d6000803e3d6000fd5b505050506040513d601f19601f820116820180604052508101906110d891906145db565b949350505050565b600054610100900460ff16806110f55750303b155b80611103575060005460ff16155b61111f5760405162461bcd60e51b8152600401610acb906145f4565b600054610100900460ff16158015611141576000805461ffff19166101011790555b61114d83836001611cc0565b801561115f576000805461ff00191690555b505050565b61116c612033565b6068546001600160401b03821610156111975760405162461bcd60e51b8152600401610acb90614642565b6001600160401b0316606755565b8484876111b3838383612364565b61019f5485906001600160401b0390811690821611156111e55760405162461bcd60e51b8152600401610acb9061468b565b868060000361122d5760405162461bcd60e51b815260206004820152601460248201527350726963652063616e6e6f74206265207a65726f60601b6044820152606401610acb565b61123b8b8b8b8b8b8b6123b7565b5050505050505050505050565b60006112548383612232565b509198975050505050505050565b61126a61241b565b6101695460405163a82a575960e01b81526001600160a01b038084166004830152610100909204909116602482015273__$4a165dabbfd6ff3f3f3890617dd1870b68$__9063a82a57599060440160006040518083038186803b1580156112d057600080fd5b505af41580156112e4573d6000803e3d6000fd5b505050506112f3600161016855565b50565b6112fe612033565b610135805460ff19169055565b611313612033565b6000811161137c5760405162461bcd60e51b815260206004820152603060248201527f54686520676976656e20696e697469616c2070726963652073686f756c64206260448201526f0652067726561746572207468616e20360841b6064820152608401610acb565b60006113888484611fd4565b603c0191909155505050565b60006113aa6113a384846121a8565b6018015490565b9392505050565b6000806113be84846121a8565b601c01546001600160a01b0316949350505050565b60008060008060008060006113fe6113ec8c8c8b612447565b60009182915081908190819081908190565b9650965096509650965096509650949950949992975094509450565b61019f5482906001600160401b03908116908216111561144c5760405162461bcd60e51b8152600401610acb9061468b565b8361145681612464565b826114615786611463565b875b8689611470838383612364565b61123b8b8b8b8b8b8b61253e565b611486612033565b610135805460ff19166001179055565b6000806114a38585611fd4565b604051631ce3be8560e31b815260048101829052841515602482015290915073__$4a165dabbfd6ff3f3f3890617dd1870b68$__9063e71df428906044015b602060405180830381865af41580156114ff573d6000803e3d6000fd5b505050506040513d601f19601f8201168201806040525081019061152391906146b6565b95945050505050565b60008061153984846118c7565b600381111561154a5761154a614305565b14159392505050565b60006110d861156285856121a8565b8361259d565b600054610100900460ff168061157d5750303b155b8061158b575060005460ff16155b6115a75760405162461bcd60e51b8152600401610acb906145f4565b600054610100900460ff161580156115c9576000805461ffff19166101011790555b80156112f3576000805461ff001916905550565b6101355460408051808201909152600b81526a756e73746f707061626c6560a81b60208201529060ff166116245760405162461bcd60e51b8152600401610acb919061450e565b506101355460408051808201909152600b81526a3737ba2fb9ba37b83832b960a91b6020820152906201000090046001600160a01b0316331461167a5760405162461bcd60e51b8152600401610acb919061450e565b50610135546040805180820190915260128152600080516020614823833981519152602082015290610100900460ff16156116c85760405162461bcd60e51b8152600401610acb919061450e565b50610135805461ff0019166101001790556040513381527f62e78cea01bee320cd4e420270b5ea74000d11b0c9f74754ebdbfc544b05a25890602001611031565b611711612033565b61019f805467ffffffffffffffff19166001600160401b0392909216919091179055565b600054610100900460ff168061174a5750303b155b80611758575060005460ff16155b6117745760405162461bcd60e51b8152600401610acb906145f4565b600054610100900460ff16158015611796576000805461ffff19166101011790555b6117a58c8c8c8c8c88886125b7565b61019c87905561019f805467ffffffffffffffff19166001600160401b03861617905561019d86905561019e8590558015610b64576000805461ff0019169055505050505050505050505050565b83836117ff828261152c565b1561181c5760405162461bcd60e51b8152600401610acb906145b2565b610c6c86868686612677565b610135546040805180820190915260128152600080516020614823833981519152602082015290610100900460ff16156118755760405162461bcd60e51b8152600401610acb919061450e565b5060006118828686611fd4565b602181019150611896906023018484613d51565b506118aa6118a487876126db565b856126e7565b6118b8600282016000613d9c565b60006003909101555050505050565b60006118d38383611fd4565b603a015460ff169392505050565b60006118ed83836121a8565b601101549392505050565b6119088585858585600019611d73565b5050505050565b611917612033565b61019c55565b61190885858585856000196111a5565b611935612033565b603380546001600160a01b0319166001600160a01b0392909216919091179055565b61195f612033565b61019d55565b60008060008061197586866121a8565b6020810154601d820154601e909201546001600160401b039091169891975095509350505050565b600054610100900460ff16806119b25750303b155b806119c0575060005460ff16155b6119dc5760405162461bcd60e51b8152600401610acb906145f4565b600054610100900460ff161580156119fe576000805461ffff19166101011790555b603380546001600160a01b0319166001600160a01b0384161790558015611a2b576000805461ff00191690555b5050565b611a37612033565b61019e55565b611a4a85858585856126f7565b6000611a5686866126db565b604080516003808252608082019092529192506000919060208201606080368337019050509050611a8882600061276c565b81600081518110611a9b57611a9b6146d3565b602002602001018181525050611ab282600161276c565b81600181518110611ac557611ac56146d3565b602002602001018181525050611adc82600261276c565b81600281518110611aef57611aef6146d3565b6020908102919091010152611b2681600081518110611b1057611b106146d3565b60200260200101516127816128386128cd612913565b611b5281600181518110611b3c57611b3c6146d3565b6020026020010151612922612981611a2b612913565b611b7e81600281518110611b6857611b686146d3565b60200260200101516129d2612a19611a2b612913565b611b908282612a64612a996001612b0d565b50505050505050565b60cf546000906001600160a01b0390811690851603611bb95750816113aa565b60cf54600090611bd2906001600160a01b0316866121a8565b60cf54909150611beb906001600160a01b0316846121a8565b5060001995945050505050565b6060609c805480602002602001604051908101604052809291908181526020016000905b82821015611c765760008481526020902060408051808201918290529160028581029091019182845b81546001600160a01b03168152600190910190602001808311611c4557505050505081526020019060010190611c1c565b50505050905090565b611c87612033565b6067546001600160401b0382161115611cb25760405162461bcd60e51b8152600401610acb90614642565b6001600160401b0316606855565b600054610100900460ff1680611cd55750303b155b80611ce3575060005460ff16155b611cff5760405162461bcd60e51b8152600401610acb906145f4565b600054610100900460ff16158015611d21576000805461ffff19166101011790555b610135805461ff01600160b01b03191683151562010000600160b01b03191617620100006001600160a01b03871602179055611d5c8361199d565b8015610bd8576000805461ff001916905550505050565b858487611d81838383612364565b61019f5485906001600160401b039081169082161115611db35760405162461bcd60e51b8152600401610acb9061468b565b8680600003611dfb5760405162461bcd60e51b815260206004820152601460248201527350726963652063616e6e6f74206265207a65726f60601b6044820152606401610acb565b61123b8b8b8b8b8b8b612b20565b6040516bffffffffffffffffffffffff19606084811b8216602084015283901b1660348201526000906048015b60405160208183030381529060405280519060200120905092915050565b6000611e61868685612447565b600094855260205250604090922060070180546001600160401b03909316600160a01b0267ffffffffffffffff60a01b1990931692909217909155505050565b610135546040805180820190915260128152600080516020614823833981519152602082015290610100900460ff1615611eee5760405162461bcd60e51b8152600401610acb919061450e565b5061115f611efc84846126db565b826126e7565b60006113aa611f1184846121a8565b600a015490565b6000806000806000611f2a87876121a8565b9050611f3581612b84565b611f4d57600080600080945094509450945050611fcb565b6040516303de1a8560e61b81526004810182905273__$4a165dabbfd6ff3f3f3890617dd1870b68$__9063f786a14090602401608060405180830381865af4158015611f9d573d6000803e3d6000fd5b505050506040513d601f19601f82011682018060405250810190611fc191906146e9565b9450945094509450505b92959194509250565b6000611fe083836121a8565b9050611feb81612b84565b61104e5760405162461bcd60e51b8152602060048201526019602482015278151bdad95b881c185a5c88191bd95cc81b9bdd08195e1a5cdd603a1b6044820152606401610acb565b60335460405163d994d6d560e01b81523360048201526001600160a01b039091169063d994d6d590602401602060405180830381865afa15801561207b573d6000803e3d6000fd5b505050506040513d601f19601f8201168201806040525081019061209f91906146b6565b604051806040016040528060168152602001753737ba2fb0baba3437b934bd32b22fb1b430b733b2b960511b815250906112f35760405162461bcd60e51b8152600401610acb919061450e565b6120f4612033565b60006121008383611fd4565b603d81015490915060ff16156121505760405162461bcd60e51b815260206004820152601560248201527414185a5c88185b1c9958591e48191a5cd8589b1959605a1b6044820152606401610acb565b603d8101805460ff19166001179055604080516001600160a01b038581168252841660208201527f71a055a513c927530cb6f44f826ef705d11b6b00e0912135c1f73796663138ed91015b60405180910390a1505050565b6000609b60006121b88585611e09565b8152602001908152602001600020905092915050565b610135546040805180820190915260128152600080516020614823833981519152602082015290610100900460ff161561221b5760405162461bcd60e51b8152600401610acb919061450e565b50610bd86122298585611fd4565b83836001612bc0565b600080600080600080600061228a61224a8a8a6121a8565b6020810154601d820154601e830154603c840154603d850154603e860154603f909601546001600160401b039095169693959294919360ff909116929190565b959f949e50929c50909a509850965090945092505050565b6122aa612033565b60006122b68383611fd4565b603d81015490915060ff166123045760405162461bcd60e51b815260206004820152601460248201527314185a5c88185b1c9958591e48195b98589b195960621b6044820152606401610acb565b603d8101805460ff19169055604080516001600160a01b038086168252841660208201527f53affae818baf7c49a51b11722048f56b718a0eb3ea1e4e494915a852ead79b0910161219b565b60006113aa61235f84846121a8565b612b84565b6000612371848484611b99565b905061019c54811015610bd85760405162461bcd60e51b815260206004820152600e60248201526d416d6f756e7420746f6f206c6f7760901b6044820152606401610acb565b610135546040805180820190915260128152600080516020614823833981519152602082015290610100900460ff16156124045760405162461bcd60e51b8152600401610acb919061450e565b50610c6c6124128787611fd4565b85858585612dc5565b6002610168540361243f57604051633ee5aeb560e01b815260040160405180910390fd5b600261016855565b6000806124548585611fd4565b9050826110d857600e8101611523565b806000036124ad5760405162461bcd60e51b81526020600482015260166024820152754d756c7469706c79466163746f72206973207a65726f60501b6044820152606401610acb565b61019d548110156124f55760405162461bcd60e51b81526020600482015260126024820152712637bb9026bab63a34b8363ca330b1ba37b960711b6044820152606401610acb565b61019e548111156112f35760405162461bcd60e51b81526020600482015260136024820152722434b3b41026bab63a34b8363ca330b1ba37b960691b6044820152606401610acb565b610135546040805180820190915260128152600080516020614823833981519152602082015290610100900460ff161561258b5760405162461bcd60e51b8152600401610acb919061450e565b50610c6c868686866000198787612ec3565b6000816125ae5760198301546113aa565b5050600b015490565b600054610100900460ff16806125cc5750303b155b806125da575060005460ff16155b6125f65760405162461bcd60e51b8152600401610acb906145f4565b600054610100900460ff16158015612618576000805461ffff19166101011790555b6126258887878787613028565b612630600061010255565b6101698054610100600160a81b0319166101006001600160a01b038a160217905561265b82846110e0565b801561266d576000805461ff00191690555b5050505050505050565b610135546040805180820190915260128152600080516020614823833981519152602082015290610100900460ff16156126c45760405162461bcd60e51b8152600401610acb919061450e565b50610bd86126d28585611fd4565b83836000612bc0565b60006113aa8383611e09565b611a2b6101d36101d2848461312b565b60cf546001600160a01b0386811691161480612724575060cf54612724906001600160a01b031686612350565b61275f5760405162461bcd60e51b815260206004820152600c60248201526b24b73b30b634b2102830b4b960a11b6044820152606401610acb565b6119088585858585613356565b60008282604051602001611e3692919061471f565b60008061278d85613518565b90506001603a82015460ff1660038111156127aa576127aa614305565b146127b7576127b761473e565b604051630f0ea5af60e01b81526004810182905260009073__$4a165dabbfd6ff3f3f3890617dd1870b68$__90630f0ea5af90602401602060405180830381865af415801561280a573d6000803e3d6000fd5b505050506040513d601f19601f8201168201806040525081019061282e91906146b6565b9695505050505050565b600061284383613518565b90506000603a82015460ff16600381111561286057612860614305565b1461286d5761286d61473e565b60405163354351a960e21b81526004810182905273__$4a165dabbfd6ff3f3f3890617dd1870b68$__9063d50d46a4906024015b60006040518083038186803b1580156128b957600080fd5b505af4158015611b90573d6000803e3d6000fd5b60006128d883613518565b60405163582e61a960e01b81526004810182905290915073__$4a165dabbfd6ff3f3f3890617dd1870b68$__9063582e61a9906024016128a1565b610bd86101d28585858561357c565b60008061292e85613518565b610169546040516355b1281960e11b8152600481018390526101009091046001600160a01b0316602482015290915073__$4a165dabbfd6ff3f3f3890617dd1870b68$__9063ab625032906044016114e2565b600061298c83613518565b90506001603a82015460ff1660038111156129a9576129a9614305565b146129b6576129b661473e565b603a810180546002919060ff19166001835b0217905550505050565b6000806129de85613518565b604051635219d49560e11b81526004810182905290915073__$4a165dabbfd6ff3f3f3890617dd1870b68$__9063a433a92a906024016114e2565b6000612a2483613518565b90506002603a82015460ff166003811115612a4157612a41614305565b14612a4e57612a4e61473e565b603a810180546003919060ff19166001836129c8565b6000612a6f82613518565b90506000603a82015460ff166003811115612a8c57612a8c614305565b14611a2b57611a2b61473e565b6000612aa482613518565b604051633bdb540760e21b8152600481018290526066602482015290915073__$4a165dabbfd6ff3f3f3890617dd1870b68$__9063ef6d501c9060440160006040518083038186803b158015612af957600080fd5b505af4158015610c6c573d6000803e3d6000fd5b6119086101d36101d287878787876136b1565b610135546040805180820190915260128152600080516020614823833981519152602082015290610100900460ff1615612b6d5760405162461bcd60e51b8152600401610acb919061450e565b50610c6c612b7b8787611fd4565b85858585613886565b600d8101546000906001600160a01b031615801590612baf5750601b8201546001600160a01b031615155b801561104e575050603b0154151590565b600081612bd05784600e01612bd2565b845b60405163678dd03360e11b81526004810187905260248101869052604481018590528315156064820152909150600090819073__$4a165dabbfd6ff3f3f3890617dd1870b68$__9063cf1ba066906084016040805180830381865af4158015612c3f573d6000803e3d6000fd5b505050506040513d601f19601f82011682018060405250810190612c639190614754565b61016954600d86015460405163332d3ca560e01b81526101009092046001600160a01b0390811660048401521660248201526044810183905260648101829052336084820152600060a4820181905292945090925081908190819073__$4a165dabbfd6ff3f3f3890617dd1870b68$__9063332d3ca59060c401608060405180830381865af4158015612cfa573d6000803e3d6000fd5b505050506040513d601f19601f82011682018060405250810190612d1e9190614778565b935093509350935083612d6b5760405162461bcd60e51b8152602060048201526015602482015274151bdad95b881d1c985b9cd9995c8819985a5b1959605a1b6044820152606401610acb565b6040805184815260208101849052908101829052881515606082015233908b907fd975b60b6329c797ae584f3af10b37331736bff9e1e5c69342394824d8c19b819060800160405180910390a35050505050505050505050565b601b850154600d860154600091612df2916001600160a01b0391821691670de0b6b3a76400009116611b99565b61016954604051631e2ca63d60e21b815260048101889052602481018390529192506000916101009091046001600160a01b0316906378b298f490604401602060405180830381865afa158015612e4d573d6000803e3d6000fd5b505050506040513d601f19601f82011682018060405250810190612e7191906145db565b905085811115611b905760405162461bcd60e51b815260206004820152601a60248201527f416d6f756e742069732067726561746572207468616e204665650000000000006044820152606401610acb565b610135546040805180820190915260128152600080516020614823833981519152602082015290610100900460ff1615612f105760405162461bcd60e51b8152600401610acb919061450e565b506000612f1d8888611fd4565b90506000612f4b83612f2f5788612f31565b895b670de0b6b3a764000085612f45578b611b99565b8a611b99565b61016954604051631e2ca63d60e21b8152600481018a9052602481018390529192506000916101009091046001600160a01b0316906378b298f490604401602060405180830381865afa158015612fa6573d6000803e3d6000fd5b505050506040513d601f19601f82011682018060405250810190612fca91906145db565b90508781111561301c5760405162461bcd60e51b815260206004820152601a60248201527f416d6f756e742069732067726561746572207468616e204665650000000000006044820152606401610acb565b50505050505050505050565b600054610100900460ff168061303d5750303b155b8061304b575060005460ff16155b6130675760405162461bcd60e51b8152600401610acb906145f4565b600054610100900460ff16158015613089576000805461ffff19166101011790555b6001600160a01b0386166130eb5760405162461bcd60e51b8152602060048201526024808201527f636f6d6d6f42617365546f6b656e416464726573732063616e6e6f74206265206044820152631b9d5b1b60e21b6064820152608401610acb565b60cf80546001600160a01b0319166001600160a01b038816179055613112858585856138b3565b8015610c6c576000805461ff0019169055505050505050565b6000828152602085905260409020816131b75760405162461bcd60e51b815260206004820152604260248201527f697420646f6573206e6f74206d616b652073656e736520746f2065786563757460448201527f6520612067726f7570206f66207461736b732077697468207a65726f20737465606482015261707360f01b608482015260a401610acb565b80546132055760405162461bcd60e51b815260206004820152601860248201527f7468652067726f757020646f6573206e6f7420657869737400000000000000006044820152606401610acb565b6000600182015460ff16600281111561322057613220614305565b03613251578054600382015461324091908015613dba021763ffffffff16565b6001818101805460ff191690911790555b60018082015460ff16600281111561326b5761326b614305565b03611908578160005b6000821180156132875750600283015481105b156132f55760008660008560020184815481106132a6576132a66146d3565b90600052602060002001548152602001908152602001600020905060006132d2828660000154866139fc565b90506132de8482613c27565b9350505080806132ed906147cd565b915050613274565b506133008286613c43565b15610c6c57600182018054600260ff19909116179055815460038301546133389190600160401b90048015613dba021763ffffffff16565b6003820154600160801b900460ff1615610c6c57610c6c8286613cbc565b61335e612033565b848461336a8282612350565b156133a75760405162461bcd60e51b815260206004820152600d60248201526c22bc34b9ba32b73a103830b4b960991b6044820152606401610acb565b6133b18183612350565b156133f65760405162461bcd60e51b815260206004820152601560248201527422bc34b9ba32b73a1034b73b32b939b2903830b4b960591b6044820152606401610acb565b806001600160a01b0316826001600160a01b0316036134575760405162461bcd60e51b815260206004820152601760248201527f4261736520657175616c20746f207365636f6e646172790000000000000000006044820152606401610acb565b6000831161349e5760405162461bcd60e51b8152602060048201526014602482015273696e697469616c5072696365206e6f207a65726f60601b6044820152606401610acb565b60006134aa8888611e09565b604080518082019091526001600160a01b03808b16825289166020820152609c805460018101825560009190915291925061350d9160029081027faf85b9071dfafeac1409d3f1d19bafc9bc7c37974cde8df0ee6168f0086e539c019190613dc4565b505050505050505050565b6000818152609b6020526040902061352f81612b84565b6135775760405162461bcd60e51b8152602060048201526019602482015278151bdad95b881c185a5c88191bd95cc81b9bdd08195e1a5cdd603a1b6044820152606401610acb565b919050565b836135c95760405162461bcd60e51b815260206004820152601c60248201527f61207461736b2063616e6e6f7420686176652061206e756c6c206964000000006044820152606401610acb565b60008481526020869052604090208054156136315760405162461bcd60e51b815260206004820152602260248201527f61207461736b2077697468207468617420696420616c72656164792065786973604482015261747360f01b6064820152608401610acb565b93845560018401805460038601805460ff191690556001600160401b03928316600160801b0267ffffffffffffffff60801b19948416600160401b029490941677ffffffffffffffffffffffffffffffff000000000000000019909116179290921767ffffffffffffffff19169216919091179055600060029091015550565b846136fe5760405162461bcd60e51b815260206004820152601d60248201527f612067726f75702063616e6e6f7420686176652061206e756c6c2069640000006044820152606401610acb565b60008581526020889052604090208054156137675760405162461bcd60e51b815260206004820152602360248201527f612067726f75702077697468207468617420696420616c72656164792065786960448201526273747360e81b6064820152608401610acb565b85815560005b855181101561382757600086828151811061378a5761378a6146d3565b6020908102919091018101516000818152918b905260409091208054919250906138045760405162461bcd60e51b815260206004820152602560248201527f6f6e65206f662074686520737065636966696564207461736b7320697320696e6044820152641d985b1a5960da1b6064820152608401610acb565b50600283018054600181810183556000928352602090922001919091550161376d565b506003810180546001909201805460ff19169055911515600160801b026001600160401b03938416600160401b026fffffffffffffffffffffffffffffffff1990921694909316939093179290921760ff60801b191617905550505050565b600d850154601b860154600091612df2916001600160a01b0391821691670de0b6b3a76400009116611b99565b600054610100900460ff16806138c85750303b155b806138d6575060005460ff16155b6138f25760405162461bcd60e51b8152600401610acb906145f4565b600054610100900460ff16158015613914576000805461ffff19166101011790555b6002856001600160401b0316101561396e5760405162461bcd60e51b815260206004820181905260248201527f4578706563746564206f726465727320666f72207469636b20746f6f206c6f776044820152606401610acb565b826001600160401b0316846001600160401b031610156139a05760405162461bcd60e51b8152600401610acb90614642565b604080516060810182526001600160401b0380881680835287821660208401819052918716929093018290526066929092556067919091556068556139e48261199d565b8015611908576000805461ff00191690555050505050565b6000808211613a6b5760405162461bcd60e51b815260206004820152603560248201527f697420646f6573206e6f74206d616b652073656e736520746f20657865637574604482015274652061207461736b2077697468203020737465707360581b6064820152608401610acb565b8354613ac55760405162461bcd60e51b8152602060048201526024808201527f697420697320696e76616c696420746f20657865637574652061206e756c6c206044820152637461736b60e01b6064820152608401610acb565b60028085015490600386015460ff166002811115613ae557613ae5614305565b03613af45760009150506113aa565b6000600386015460ff166002811115613b0f57613b0f614305565b03613b5457613b448486600001548760010160089054906101000a90048015613dba02176001600160401b031663ffffffff16565b60038501805460ff191660011790555b6001600386015460ff166002811115613b6f57613b6f614305565b03613c1c5760028501546000906001908290613b8b9087613cd2565b9050876002015492505b818015613ba157508083105b15613bd85787546001890154613bc491899186908015613dba021763ffffffff16565b915082613bd0816147cd565b935050613b95565b6002880183905581613c1857600388018054600260ff1990911617905587546001890154613c18918991600160801b90048015613dba021763ffffffff16565b5050505b600285015461152390825b600082821115613c3957613c3961473e565b6113aa82846147e6565b600282018054600091829184918391613c5d906001613c27565b81548110613c6d57613c6d6146d3565b906000526020600020015481526020019081526020016000209050600280811115613c9a57613c9a614305565b600382015460ff166002811115613cb357613cb3614305565b14949350505050565b60018201805460ff19169055611a2b8282613cf0565b6000613cde82846147f9565b90508281101561104e5761104e61473e565b60005b600283015481101561115f57613d49826000856002018481548110613d1a57613d1a6146d3565b9060005260206000200154815260200190815260200160002060038101805460ff191690556000600290910155565b600101613cf3565b828054828255906000526020600020908101928215613d8c579160200282015b82811115613d8c578235825591602001919060010190613d71565b50613d98929150613e0c565b5090565b50805460008255906000526020600020908101906112f39190613e0c565b613dc261480c565b565b8260028101928215613d8c579160200282015b82811115613d8c57825182546001600160a01b0319166001600160a01b03909116178255602090920191600190910190613dd7565b5b80821115613d985760008155600101613e0d565b6001600160a01b03811681146112f357600080fd5b80151581146112f357600080fd5b600080600080600080600060e0888a031215613e5f57600080fd5b8735613e6a81613e21565b96506020880135613e7a81613e21565b95506040880135613e8a81613e36565b9450606088013593506080880135925060a0880135915060c088013560028110613eb357600080fd5b8091505092959891949750929550565b600060208284031215613ed557600080fd5b81356113aa81613e21565b60008060408385031215613ef357600080fd5b8235613efe81613e21565b91506020830135613f0e81613e21565b809150509250929050565b60008060008060808587031215613f2f57600080fd5b8435613f3a81613e21565b93506020850135613f4a81613e21565b93969395505050506040820135916060013590565b60008060408385031215613f7257600080fd5b50508035926020909101359150565b600080600060608486031215613f9657600080fd5b8335613fa181613e21565b92506020840135613fb181613e21565b929592945050506040919091013590565b80356001600160401b038116811461357757600080fd5b600060208284031215613feb57600080fd5b6113aa82613fc2565b60008060006060848603121561400957600080fd5b833561401481613e21565b9250602084013561402481613e21565b9150604084013561403481613e21565b809150509250925092565b60008060008060008060c0878903121561405857600080fd5b863561406381613e21565b9550602087013561407381613e21565b9450604087013593506060870135925061408f60808801613fc2565b915060a087013590509295509295509295565b600080600080608085870312156140b857600080fd5b84356140c381613e21565b935060208501356140d381613e21565b92506040850135915060608501356140ea81613e36565b939692955090935050565b60008060008060008060c0878903121561410e57600080fd5b863561411981613e21565b9550602087013561412981613e21565b9450604087013593506060870135925061414560808801613fc2565b915060a087013561415581613e36565b809150509295509295509295565b60008060006060848603121561417857600080fd5b833561418381613e21565b9250602084013561419381613e21565b9150604084013561403481613e36565b60008060008060008060008060008060006101608c8e0312156141c557600080fd5b8b356141d081613e21565b9a5060208c01356141e081613e21565b99506141ee60408d01613fc2565b98506141fc60608d01613fc2565b975061420a60808d01613fc2565b965060a08c0135955060c08c0135945060e08c0135935061422e6101008d01613fc2565b92506101208c013561423f81613e21565b91506101408c013561425081613e21565b809150509295989b509295989b9093969950565b60008060008060006080868803121561427c57600080fd5b853561428781613e21565b9450602086013561429781613e21565b93506040860135925060608601356001600160401b03808211156142ba57600080fd5b818801915088601f8301126142ce57600080fd5b8135818111156142dd57600080fd5b8960208260051b85010111156142f257600080fd5b9699959850939650602001949392505050565b634e487b7160e01b600052602160045260246000fd5b600481106112f3576112f3614305565b602081016143388361431b565b91905290565b600080600080600060a0868803121561435657600080fd5b853561436181613e21565b9450602086013561437181613e21565b9350604086013592506060860135915061438d60808701613fc2565b90509295509295909350565b6000602082840312156143ab57600080fd5b5035919050565b600080600080600060a086880312156143ca57600080fd5b85356143d581613e21565b945060208601356143e581613e21565b935060408601356143f581613e21565b94979396509394606081013594506080013592915050565b60008060006060848603121561442257600080fd5b833561442d81613e21565b925060208401359150604084013561403481613e21565b60208082528251828201819052600091906040908185019086840185805b838110156144a857825185835b60028110156144955782516001600160a01b03168252918901919089019060010161446f565b5050509385019391860191600101614462565b509298975050505050505050565b600080600080600060a086880312156144ce57600080fd5b85356144d981613e21565b945060208601356144e981613e21565b935060408601359250606086013561450081613e36565b915061438d60808701613fc2565b60006020808352835180602085015260005b8181101561453c57858101830151858201604001528201614520565b506000604082860101526040601f19601f8301168501019250505092915050565b8781526001600160a01b03871660208201528515156040820152606081018590526080810184905260a0810183905260e08101600283106145a0576145a0614305565b8260c083015298975050505050505050565b6020808252600f908201526e5469636b2069732072756e6e696e6760881b604082015260600190565b6000602082840312156145ed57600080fd5b5051919050565b6020808252602e908201527f436f6e747261637420696e7374616e63652068617320616c726561647920626560408201526d195b881a5b9a5d1a585b1a5e995960921b606082015260800190565b60208082526029908201527f6d696e20426c6f636b466f725469636b2073686f756c64206265206c6f776572604082015268040e8d0c2dc40dac2f60bb1b606082015260800190565b602080825260119082015270098d2cccae6e0c2dc40e8dede40d0d2ced607b1b604082015260600190565b6000602082840312156146c857600080fd5b81516113aa81613e36565b634e487b7160e01b600052603260045260246000fd5b600080600080608085870312156146ff57600080fd5b505082516020840151604085015160609095015191969095509092509050565b82815261472b8261431b565b60f89190911b6020820152602101919050565b634e487b7160e01b600052600160045260246000fd5b6000806040838503121561476757600080fd5b505080516020909101519092909150565b6000806000806080858703121561478e57600080fd5b845161479981613e36565b60208601516040870151606090970151919890975090945092505050565b634e487b7160e01b600052601160045260246000fd5b6000600182016147df576147df6147b7565b5060010190565b8181038181111561104e5761104e6147b7565b8082018082111561104e5761104e6147b7565b634e487b7160e01b600052605160045260246000fdfe636f6e74726163745f69735f7061757365640000000000000000000000000000a26469706673582212206b90239d329ab1d44d02495b4f56b03a08fbe954975eec562cabab7eb94fd03964736f6c63430008180033",
  "linkReferences": {
    "contracts/libs/MoCExchangeLib.sol": {
      "MoCExchangeLib": [
        {
          "length": 20,
          "start": 2845
        },
        {
          "length": 20,
          "start": 4256
        },
        {
          "length": 20,
          "start": 4801
        },
        {
          "length": 20,
          "start": 5354
        },
        {
          "length": 20,
          "start": 8073
        },
        {
          "length": 20,
          "start": 10230
        },
        {
          "length": 20,
          "start": 10409
        },
        {
          "length": 20,
          "start": 10519
        },
        {
          "length": 20,
          "start": 10629
        },
        {
          "length": 20,
          "start": 10781
        },
        {
          "length": 20,
          "start": 10986
        },
        {
          "length": 20,
          "start": 11308
        },
        {
          "length": 20,
          "start": 11494
        }
      ]
    }
  },
  "deployedLinkReferences": {
    "contracts/libs/MoCExchangeLib.sol": {
      "MoCExchangeLib": [
        {
          "length": 20,
          "start": 2807
        },
        {
          "length": 20,
          "start": 4218
        },
        {
          "length": 20,
          "start": 4763
        },
        {
          "length": 20,
          "start": 5316
        },
        {
          "length": 20,
          "start": 8035
        },
        {
          "length": 20,
          "start": 10192
        },
        {
          "length": 20,
          "start": 10371
        },
        {
          "length": 20,
          "start": 10481
        },
        {
          "length": 20,
          "start": 10591
        },
        {
          "length": 20,
          "start": 10743
        },
        {
          "length": 20,
          "start": 10948
        },
        {
          "length": 20,
          "start": 11270
        },
        {
          "length": 20,
          "start": 11456
        }
      ]
    }
  }
}