{
  "_format": "hh-sol-artifact-1",
  "contractName": "MoCDexFake",
  "sourceName": "contracts/test/MoCDexFake.sol",
  "abi": [
    {
      "inputs": [],
      "name": "ReentrancyGuardReentrantCall",
      "type": "error"
    },
    {
      "anonymous": false,
      "inputs": [
        {
          "indexed": true,
          "internalType": "uint256",
          "name": "orderId",
          "type": "uint256"
        },
        {
          "indexed": false,
          "internalType": "uint256",
          "name": "amountSent",
          "type": "uint256"
        },
        {
          "indexed": false,
          "internalType": "uint256",
          "name": "commission",
          "type": "uint256"
        },
        {
          "indexed": false,
          "internalType": "uint256",
          "name": "change",
          "type": "uint256"
        },
        {
          "indexed": false,
          "internalType": "uint256",
          "name": "received",
          "type": "uint256"
        },
        {
          "indexed": false,
          "internalType": "uint256",
          "name": "remainingAmount",
          "type": "uint256"
        },
        {
          "indexed": false,
          "internalType": "uint256",
          "name": "matchPrice",
          "type": "uint256"
        },
        {
          "indexed": false,
          "internalType": "uint64",
          "name": "tickNumber",
          "type": "uint64"
        }
      ],
      "name": "BuyerMatch",
      "type": "event"
    },
    {
      "anonymous": false,
      "inputs": [
        {
          "indexed": true,
          "internalType": "uint256",
          "name": "orderId",
          "type": "uint256"
        },
        {
          "indexed": true,
          "internalType": "address",
          "name": "owner",
          "type": "address"
        },
        {
          "indexed": false,
          "internalType": "uint256",
          "name": "returnedAmount",
          "type": "uint256"
        },
        {
          "indexed": false,
          "internalType": "uint256",
          "name": "commission",
          "type": "uint256"
        },
        {
          "indexed": false,
          "internalType": "uint256",
          "name": "returnedCommission",
          "type": "uint256"
        }
      ],
      "name": "ExpiredOrderProcessed",
      "type": "event"
    },
    {
      "anonymous": false,
      "inputs": [
        {
          "indexed": true,
          "internalType": "uint256",
          "name": "id",
          "type": "uint256"
        },
        {
          "indexed": false,
          "internalType": "uint256",
          "name": "notIndexedArgumentSoTheThingDoesntBreak",
          "type": "uint256"
        }
      ],
      "name": "NewOrderAddedToPendingQueue",
      "type": "event"
    },
    {
      "anonymous": false,
      "inputs": [
        {
          "indexed": true,
          "internalType": "uint256",
          "name": "id",
          "type": "uint256"
        },
        {
          "indexed": true,
          "internalType": "address",
          "name": "sender",
          "type": "address"
        },
        {
          "indexed": false,
          "internalType": "address",
          "name": "baseTokenAddress",
          "type": "address"
        },
        {
          "indexed": false,
          "internalType": "address",
          "name": "secondaryTokenAddress",
          "type": "address"
        },
        {
          "indexed": false,
          "internalType": "uint256",
          "name": "exchangeableAmount",
          "type": "uint256"
        },
        {
          "indexed": false,
          "internalType": "uint256",
          "name": "reservedCommission",
          "type": "uint256"
        },
        {
          "indexed": false,
          "internalType": "uint256",
          "name": "price",
          "type": "uint256"
        },
        {
          "indexed": false,
          "internalType": "uint256",
          "name": "multiplyFactor",
          "type": "uint256"
        },
        {
          "indexed": false,
          "internalType": "uint64",
          "name": "expiresInTick",
          "type": "uint64"
        },
        {
          "indexed": false,
          "internalType": "bool",
          "name": "isBuy",
          "type": "bool"
        },
        {
          "indexed": false,
          "internalType": "enum MoCExchangeLib.OrderType",
          "name": "orderType",
          "type": "uint8"
        }
      ],
      "name": "NewOrderInserted",
      "type": "event"
    },
    {
      "anonymous": false,
      "inputs": [
        {
          "indexed": true,
          "internalType": "uint256",
          "name": "id",
          "type": "uint256"
        },
        {
          "indexed": true,
          "internalType": "address",
          "name": "sender",
          "type": "address"
        },
        {
          "indexed": false,
          "internalType": "uint256",
          "name": "returnedAmount",
          "type": "uint256"
        },
        {
          "indexed": false,
          "internalType": "uint256",
          "name": "commission",
          "type": "uint256"
        },
        {
          "indexed": false,
          "internalType": "uint256",
          "name": "returnedCommission",
          "type": "uint256"
        },
        {
          "indexed": false,
          "internalType": "bool",
          "name": "isBuy",
          "type": "bool"
        }
      ],
      "name": "OrderCancelled",
      "type": "event"
    },
    {
      "anonymous": false,
      "inputs": [
        {
          "indexed": false,
          "internalType": "address",
          "name": "account",
          "type": "address"
        }
      ],
      "name": "Paused",
      "type": "event"
    },
    {
      "anonymous": false,
      "inputs": [
        {
          "indexed": true,
          "internalType": "uint256",
          "name": "orderId",
          "type": "uint256"
        },
        {
          "indexed": false,
          "internalType": "uint256",
          "name": "amountSent",
          "type": "uint256"
        },
        {
          "indexed": false,
          "internalType": "uint256",
          "name": "commission",
          "type": "uint256"
        },
        {
          "indexed": false,
          "internalType": "uint256",
          "name": "received",
          "type": "uint256"
        },
        {
          "indexed": false,
          "internalType": "uint256",
          "name": "surplus",
          "type": "uint256"
        },
        {
          "indexed": false,
          "internalType": "uint256",
          "name": "remainingAmount",
          "type": "uint256"
        },
        {
          "indexed": false,
          "internalType": "uint256",
          "name": "matchPrice",
          "type": "uint256"
        },
        {
          "indexed": false,
          "internalType": "uint64",
          "name": "tickNumber",
          "type": "uint64"
        }
      ],
      "name": "SellerMatch",
      "type": "event"
    },
    {
      "anonymous": false,
      "inputs": [
        {
          "indexed": true,
          "internalType": "address",
          "name": "baseTokenAddress",
          "type": "address"
        },
        {
          "indexed": true,
          "internalType": "address",
          "name": "secondaryTokenAddress",
          "type": "address"
        },
        {
          "indexed": true,
          "internalType": "uint64",
          "name": "number",
          "type": "uint64"
        },
        {
          "indexed": false,
          "internalType": "uint256",
          "name": "nextTickBlock",
          "type": "uint256"
        },
        {
          "indexed": false,
          "internalType": "uint256",
          "name": "closingPrice",
          "type": "uint256"
        }
      ],
      "name": "TickEnd",
      "type": "event"
    },
    {
      "anonymous": false,
      "inputs": [
        {
          "indexed": true,
          "internalType": "address",
          "name": "baseTokenAddress",
          "type": "address"
        },
        {
          "indexed": true,
          "internalType": "address",
          "name": "secondaryTokenAddress",
          "type": "address"
        },
        {
          "indexed": false,
          "internalType": "uint64",
          "name": "number",
          "type": "uint64"
        }
      ],
      "name": "TickStart",
      "type": "event"
    },
    {
      "anonymous": false,
      "inputs": [
        {
          "indexed": false,
          "internalType": "address",
          "name": "baseToken",
          "type": "address"
        },
        {
          "indexed": false,
          "internalType": "address",
          "name": "secondaryToken",
          "type": "address"
        }
      ],
      "name": "TokenPairDisabled",
      "type": "event"
    },
    {
      "anonymous": false,
      "inputs": [
        {
          "indexed": false,
          "internalType": "address",
          "name": "baseToken",
          "type": "address"
        },
        {
          "indexed": false,
          "internalType": "address",
          "name": "secondaryToken",
          "type": "address"
        }
      ],
      "name": "TokenPairEnabled",
      "type": "event"
    },
    {
      "anonymous": false,
      "inputs": [
        {
          "indexed": true,
          "internalType": "address",
          "name": "_tokenAddress",
          "type": "address"
        },
        {
          "indexed": true,
          "internalType": "address",
          "name": "_to",
          "type": "address"
        },
        {
          "indexed": false,
          "internalType": "uint256",
          "name": "_amount",
          "type": "uint256"
        },
        {
          "indexed": false,
          "internalType": "bool",
          "name": "_isRevert",
          "type": "bool"
        }
      ],
      "name": "TransferFailed",
      "type": "event"
    },
    {
      "anonymous": false,
      "inputs": [
        {
          "indexed": false,
          "internalType": "address",
          "name": "account",
          "type": "address"
        }
      ],
      "name": "Unpaused",
      "type": "event"
    },
    {
      "inputs": [],
      "name": "PRECISION_SMOOTHING_FACTOR",
      "outputs": [
        {
          "internalType": "uint256",
          "name": "",
          "type": "uint256"
        }
      ],
      "stateMutability": "view",
      "type": "function"
    },
    {
      "inputs": [],
      "name": "SMOOTHING_FACTOR",
      "outputs": [
        {
          "internalType": "uint256",
          "name": "",
          "type": "uint256"
        }
      ],
      "stateMutability": "view",
      "type": "function"
    },
    {
      "inputs": [
        {
          "internalType": "address",
          "name": "_baseToken",
          "type": "address"
        },
        {
          "internalType": "address",
          "name": "_secondaryToken",
          "type": "address"
        },
        {
          "internalType": "address",
          "name": "_priceProvider",
          "type": "address"
        },
        {
          "internalType": "uint256",
          "name": "_priceComparisonPrecision",
          "type": "uint256"
        },
        {
          "internalType": "uint256",
          "name": "_initialPrice",
          "type": "uint256"
        }
      ],
      "name": "addTokenPair",
      "outputs": [],
      "stateMutability": "nonpayable",
      "type": "function"
    },
    {
      "inputs": [
        {
          "internalType": "address",
          "name": "_baseToken",
          "type": "address"
        },
        {
          "internalType": "address",
          "name": "_secondaryToken",
          "type": "address"
        },
        {
          "internalType": "bool",
          "name": "_evaluateBuyOrders",
          "type": "bool"
        }
      ],
      "name": "areOrdersToExpire",
      "outputs": [
        {
          "internalType": "bool",
          "name": "",
          "type": "bool"
        }
      ],
      "stateMutability": "view",
      "type": "function"
    },
    {
      "inputs": [
        {
          "internalType": "address",
          "name": "_baseToken",
          "type": "address"
        },
        {
          "internalType": "address",
          "name": "_secondaryToken",
          "type": "address"
        }
      ],
      "name": "buyOrdersLength",
      "outputs": [
        {
          "internalType": "uint256",
          "name": "",
          "type": "uint256"
        }
      ],
      "stateMutability": "view",
      "type": "function"
    },
    {
      "inputs": [
        {
          "internalType": "address",
          "name": "_baseToken",
          "type": "address"
        },
        {
          "internalType": "address",
          "name": "_secondaryToken",
          "type": "address"
        },
        {
          "internalType": "uint256",
          "name": "_orderId",
          "type": "uint256"
        },
        {
          "internalType": "uint256",
          "name": "_previousOrderIdHint",
          "type": "uint256"
        }
      ],
      "name": "cancelBuyOrder",
      "outputs": [],
      "stateMutability": "nonpayable",
      "type": "function"
    },
    {
      "inputs": [
        {
          "internalType": "address",
          "name": "_baseToken",
          "type": "address"
        },
        {
          "internalType": "address",
          "name": "_secondaryToken",
          "type": "address"
        },
        {
          "internalType": "uint256",
          "name": "_orderId",
          "type": "uint256"
        },
        {
          "internalType": "uint256",
          "name": "_previousOrderIdHint",
          "type": "uint256"
        }
      ],
      "name": "cancelSellOrder",
      "outputs": [],
      "stateMutability": "nonpayable",
      "type": "function"
    },
    {
      "inputs": [
        {
          "internalType": "contract IGovernor",
          "name": "newIGovernor",
          "type": "address"
        }
      ],
      "name": "changeIGovernor",
      "outputs": [],
      "stateMutability": "nonpayable",
      "type": "function"
    },
    {
      "inputs": [],
      "name": "commissionManager",
      "outputs": [
        {
          "internalType": "contract CommissionManager",
          "name": "",
          "type": "address"
        }
      ],
      "stateMutability": "view",
      "type": "function"
    },
    {
      "inputs": [
        {
          "internalType": "address",
          "name": "_tokenAddress",
          "type": "address"
        },
        {
          "internalType": "uint256",
          "name": "_amount",
          "type": "uint256"
        },
        {
          "internalType": "address",
          "name": "_baseAddress",
          "type": "address"
        }
      ],
      "name": "convertTokenToCommonBase",
      "outputs": [
        {
          "internalType": "uint256",
          "name": "convertedAmount",
          "type": "uint256"
        }
      ],
      "stateMutability": "view",
      "type": "function"
    },
    {
      "inputs": [
        {
          "internalType": "address",
          "name": "_baseToken",
          "type": "address"
        },
        {
          "internalType": "address",
          "name": "_secondaryToken",
          "type": "address"
        }
      ],
      "name": "disableTokenPair",
      "outputs": [],
      "stateMutability": "nonpayable",
      "type": "function"
    },
    {
      "inputs": [
        {
          "internalType": "address",
          "name": "_baseToken",
          "type": "address"
        },
        {
          "internalType": "address",
          "name": "_secondaryToken",
          "type": "address"
        },
        {
          "internalType": "uint256",
          "name": "_orderId",
          "type": "uint256"
        },
        {
          "internalType": "bool",
          "name": "_isBuy",
          "type": "bool"
        },
        {
          "internalType": "uint64",
          "name": "_newExpiresInTick",
          "type": "uint64"
        }
      ],
      "name": "editOrder",
      "outputs": [],
      "stateMutability": "nonpayable",
      "type": "function"
    },
    {
      "inputs": [
        {
          "internalType": "address",
          "name": "_baseToken",
          "type": "address"
        },
        {
          "internalType": "address",
          "name": "_secondaryToken",
          "type": "address"
        }
      ],
      "name": "enableTokenPair",
      "outputs": [],
      "stateMutability": "nonpayable",
      "type": "function"
    },
    {
      "inputs": [
        {
          "internalType": "address",
          "name": "_baseToken",
          "type": "address"
        },
        {
          "internalType": "address",
          "name": "_secondaryToken",
          "type": "address"
        }
      ],
      "name": "getEmergentPrice",
      "outputs": [
        {
          "internalType": "uint256",
          "name": "emergentPrice",
          "type": "uint256"
        },
        {
          "internalType": "uint256",
          "name": "lastBuyMatchId",
          "type": "uint256"
        },
        {
          "internalType": "uint256",
          "name": "lastBuyMatchAmount",
          "type": "uint256"
        },
        {
          "internalType": "uint256",
          "name": "lastSellMatchId",
          "type": "uint256"
        }
      ],
      "stateMutability": "view",
      "type": "function"
    },
    {
      "inputs": [
        {
          "internalType": "address",
          "name": "_baseToken",
          "type": "address"
        },
        {
          "internalType": "address",
          "name": "_secondaryToken",
          "type": "address"
        }
      ],
      "name": "getLastClosingPrice",
      "outputs": [
        {
          "internalType": "uint256",
          "name": "lastClosingPrice",
          "type": "uint256"
        }
      ],
      "stateMutability": "view",
      "type": "function"
    },
    {
      "inputs": [
        {
          "internalType": "address",
          "name": "_baseToken",
          "type": "address"
        },
        {
          "internalType": "address",
          "name": "_secondaryToken",
          "type": "address"
        }
      ],
      "name": "getMarketPrice",
      "outputs": [
        {
          "internalType": "uint256",
          "name": "",
          "type": "uint256"
        }
      ],
      "stateMutability": "view",
      "type": "function"
    },
    {
      "inputs": [
        {
          "internalType": "address",
          "name": "_baseToken",
          "type": "address"
        },
        {
          "internalType": "address",
          "name": "_secondaryToken",
          "type": "address"
        }
      ],
      "name": "getNextTick",
      "outputs": [
        {
          "internalType": "uint64",
          "name": "tickNumber",
          "type": "uint64"
        },
        {
          "internalType": "uint256",
          "name": "nextTickBlock",
          "type": "uint256"
        },
        {
          "internalType": "uint256",
          "name": "lastTickBlock",
          "type": "uint256"
        }
      ],
      "stateMutability": "view",
      "type": "function"
    },
    {
      "inputs": [
        {
          "internalType": "address",
          "name": "_baseToken",
          "type": "address"
        },
        {
          "internalType": "address",
          "name": "_secondaryToken",
          "type": "address"
        },
        {
          "internalType": "uint256",
          "name": "_index",
          "type": "uint256"
        },
        {
          "internalType": "bool",
          "name": "_isBuy",
          "type": "bool"
        }
      ],
      "name": "getOrderAtIndex",
      "outputs": [
        {
          "internalType": "uint256",
          "name": "id",
          "type": "uint256"
        },
        {
          "internalType": "address",
          "name": "owner",
          "type": "address"
        },
        {
          "internalType": "uint256",
          "name": "exchangeableAmount",
          "type": "uint256"
        },
        {
          "internalType": "uint256",
          "name": "multiplyFactor",
          "type": "uint256"
        },
        {
          "internalType": "uint256",
          "name": "reservedCommission",
          "type": "uint256"
        },
        {
          "internalType": "uint256",
          "name": "price",
          "type": "uint256"
        },
        {
          "internalType": "uint256",
          "name": "next",
          "type": "uint256"
        }
      ],
      "stateMutability": "view",
      "type": "function"
    },
    {
      "inputs": [
        {
          "internalType": "address",
          "name": "_baseToken",
          "type": "address"
        },
        {
          "internalType": "address",
          "name": "_secondaryToken",
          "type": "address"
        }
      ],
      "name": "getPageMemory",
      "outputs": [
        {
          "internalType": "uint256",
          "name": "emergentPrice",
          "type": "uint256"
        },
        {
          "internalType": "uint256",
          "name": "matchesAmount",
          "type": "uint256"
        },
        {
          "internalType": "uint256",
          "name": "lastBuyMatchId",
          "type": "uint256"
        },
        {
          "internalType": "uint256",
          "name": "lastSellMatchId",
          "type": "uint256"
        },
        {
          "internalType": "uint256",
          "name": "lastBuyMatchAmount",
          "type": "uint256"
        },
        {
          "internalType": "uint256",
          "name": "lastSellMatchAmount",
          "type": "uint256"
        },
        {
          "internalType": "uint256",
          "name": "marketPrice",
          "type": "uint256"
        }
      ],
      "stateMutability": "view",
      "type": "function"
    },
    {
      "inputs": [
        {
          "internalType": "address",
          "name": "_baseToken",
          "type": "address"
        },
        {
          "internalType": "address",
          "name": "_secondaryToken",
          "type": "address"
        }
      ],
      "name": "getPriceProvider",
      "outputs": [
        {
          "internalType": "address",
          "name": "",
          "type": "address"
        }
      ],
      "stateMutability": "view",
      "type": "function"
    },
    {
      "inputs": [
        {
          "internalType": "address",
          "name": "_baseToken",
          "type": "address"
        },
        {
          "internalType": "address",
          "name": "_secondaryToken",
          "type": "address"
        }
      ],
      "name": "getTickStage",
      "outputs": [
        {
          "internalType": "enum MoCExchangeLib.TickStage",
          "name": "stage",
          "type": "uint8"
        }
      ],
      "stateMutability": "view",
      "type": "function"
    },
    {
      "inputs": [
        {
          "internalType": "address",
          "name": "_baseToken",
          "type": "address"
        },
        {
          "internalType": "address",
          "name": "_secondaryToken",
          "type": "address"
        }
      ],
      "name": "getTokenPairStatus",
      "outputs": [
        {
          "internalType": "uint256",
          "name": "emergentPrice",
          "type": "uint256"
        },
        {
          "internalType": "uint256",
          "name": "lastBuyMatchId",
          "type": "uint256"
        },
        {
          "internalType": "uint256",
          "name": "lastBuyMatchAmount",
          "type": "uint256"
        },
        {
          "internalType": "uint256",
          "name": "lastSellMatchId",
          "type": "uint256"
        },
        {
          "internalType": "uint64",
          "name": "tickNumber",
          "type": "uint64"
        },
        {
          "internalType": "uint256",
          "name": "nextTickBlock",
          "type": "uint256"
        },
        {
          "internalType": "uint256",
          "name": "lastTickBlock",
          "type": "uint256"
        },
        {
          "internalType": "uint256",
          "name": "lastClosingPrice",
          "type": "uint256"
        },
        {
          "internalType": "bool",
          "name": "disabled",
          "type": "bool"
        },
        {
          "internalType": "uint256",
          "name": "emaPrice",
          "type": "uint256"
        },
        {
          "internalType": "uint256",
          "name": "smoothingFactor",
          "type": "uint256"
        },
        {
          "internalType": "uint256",
          "name": "marketPrice",
          "type": "uint256"
        }
      ],
      "stateMutability": "view",
      "type": "function"
    },
    {
      "inputs": [],
      "name": "getTokenPairs",
      "outputs": [
        {
          "internalType": "address[2][]",
          "name": "",
          "type": "address[2][]"
        }
      ],
      "stateMutability": "view",
      "type": "function"
    },
    {
      "inputs": [],
      "name": "governor",
      "outputs": [
        {
          "internalType": "contract IGovernor",
          "name": "",
          "type": "address"
        }
      ],
      "stateMutability": "view",
      "type": "function"
    },
    {
      "inputs": [
        {
          "internalType": "address",
          "name": "_baseToken",
          "type": "address"
        },
        {
          "internalType": "address",
          "name": "_secondaryToken",
          "type": "address"
        }
      ],
      "name": "hashAddresses",
      "outputs": [
        {
          "internalType": "bytes32",
          "name": "",
          "type": "bytes32"
        }
      ],
      "stateMutability": "pure",
      "type": "function"
    },
    {
      "inputs": [
        {
          "internalType": "address",
          "name": "_stopper",
          "type": "address"
        },
        {
          "internalType": "address",
          "name": "_governor",
          "type": "address"
        }
      ],
      "name": "initialize",
      "outputs": [],
      "stateMutability": "nonpayable",
      "type": "function"
    },
    {
      "inputs": [
        {
          "internalType": "address",
          "name": "_commonBaseTokenAddress",
          "type": "address"
        },
        {
          "internalType": "contract CommissionManager",
          "name": "_commissionManager",
          "type": "address"
        },
        {
          "internalType": "uint64",
          "name": "_expectedOrdersForTick",
          "type": "uint64"
        },
        {
          "internalType": "uint64",
          "name": "_maxBlocksForTick",
          "type": "uint64"
        },
        {
          "internalType": "uint64",
          "name": "_minBlocksForTick",
          "type": "uint64"
        },
        {
          "internalType": "uint256",
          "name": "_minOrderAmount",
          "type": "uint256"
        },
        {
          "internalType": "uint256",
          "name": "_minMultiplyFactor",
          "type": "uint256"
        },
        {
          "internalType": "uint256",
          "name": "_maxMultiplyFactor",
          "type": "uint256"
        },
        {
          "internalType": "uint64",
          "name": "_maxOrderLifespan",
          "type": "uint64"
        },
        {
          "internalType": "address",
          "name": "_governor",
          "type": "address"
        },
        {
          "internalType": "address",
          "name": "_stopper",
          "type": "address"
        }
      ],
      "name": "initialize",
      "outputs": [],
      "stateMutability": "nonpayable",
      "type": "function"
    },
    {
      "inputs": [
        {
          "internalType": "address",
          "name": "_governor",
          "type": "address"
        }
      ],
      "name": "initialize",
      "outputs": [],
      "stateMutability": "nonpayable",
      "type": "function"
    },
    {
      "inputs": [
        {
          "internalType": "address",
          "name": "_stopper",
          "type": "address"
        },
        {
          "internalType": "address",
          "name": "_governor",
          "type": "address"
        },
        {
          "internalType": "bool",
          "name": "_stoppable",
          "type": "bool"
        }
      ],
      "name": "initialize",
      "outputs": [],
      "stateMutability": "nonpayable",
      "type": "function"
    },
    {
      "inputs": [
        {
          "internalType": "address",
          "name": "_baseToken",
          "type": "address"
        },
        {
          "internalType": "address",
          "name": "_secondaryToken",
          "type": "address"
        },
        {
          "internalType": "uint256",
          "name": "_amount",
          "type": "uint256"
        },
        {
          "internalType": "uint256",
          "name": "_price",
          "type": "uint256"
        },
        {
          "internalType": "uint64",
          "name": "_lifespan",
          "type": "uint64"
        }
      ],
      "name": "insertBuyLimitOrder",
      "outputs": [],
      "stateMutability": "nonpayable",
      "type": "function"
    },
    {
      "inputs": [
        {
          "internalType": "address",
          "name": "_baseToken",
          "type": "address"
        },
        {
          "internalType": "address",
          "name": "_secondaryToken",
          "type": "address"
        },
        {
          "internalType": "uint256",
          "name": "_amount",
          "type": "uint256"
        },
        {
          "internalType": "uint256",
          "name": "_price",
          "type": "uint256"
        },
        {
          "internalType": "uint64",
          "name": "_lifespan",
          "type": "uint64"
        },
        {
          "internalType": "uint256",
          "name": "_previousOrderIdHint",
          "type": "uint256"
        }
      ],
      "name": "insertBuyLimitOrderAfter",
      "outputs": [],
      "stateMutability": "nonpayable",
      "type": "function"
    },
    {
      "inputs": [
        {
          "internalType": "address",
          "name": "_baseToken",
          "type": "address"
        },
        {
          "internalType": "address",
          "name": "_secondaryToken",
          "type": "address"
        },
        {
          "internalType": "uint256",
          "name": "_amount",
          "type": "uint256"
        },
        {
          "internalType": "uint256",
          "name": "_multiplyFactor",
          "type": "uint256"
        },
        {
          "internalType": "uint64",
          "name": "_lifespan",
          "type": "uint64"
        },
        {
          "internalType": "bool",
          "name": "_isBuy",
          "type": "bool"
        }
      ],
      "name": "insertMarketOrder",
      "outputs": [],
      "stateMutability": "nonpayable",
      "type": "function"
    },
    {
      "inputs": [
        {
          "internalType": "address",
          "name": "_baseToken",
          "type": "address"
        },
        {
          "internalType": "address",
          "name": "_secondaryToken",
          "type": "address"
        },
        {
          "internalType": "uint256",
          "name": "_amount",
          "type": "uint256"
        },
        {
          "internalType": "uint256",
          "name": "_price",
          "type": "uint256"
        },
        {
          "internalType": "uint64",
          "name": "_lifespan",
          "type": "uint64"
        }
      ],
      "name": "insertSellLimitOrder",
      "outputs": [],
      "stateMutability": "nonpayable",
      "type": "function"
    },
    {
      "inputs": [
        {
          "internalType": "address",
          "name": "_baseToken",
          "type": "address"
        },
        {
          "internalType": "address",
          "name": "_secondaryToken",
          "type": "address"
        },
        {
          "internalType": "uint256",
          "name": "_amount",
          "type": "uint256"
        },
        {
          "internalType": "uint256",
          "name": "_price",
          "type": "uint256"
        },
        {
          "internalType": "uint64",
          "name": "_lifespan",
          "type": "uint64"
        },
        {
          "internalType": "uint256",
          "name": "_previousOrderIdHint",
          "type": "uint256"
        }
      ],
      "name": "insertSellLimitOrderAfter",
      "outputs": [],
      "stateMutability": "nonpayable",
      "type": "function"
    },
    {
      "inputs": [],
      "name": "makeStoppable",
      "outputs": [],
      "stateMutability": "nonpayable",
      "type": "function"
    },
    {
      "inputs": [],
      "name": "makeUnstoppable",
      "outputs": [],
      "stateMutability": "nonpayable",
      "type": "function"
    },
    {
      "inputs": [
        {
          "internalType": "address",
          "name": "_baseToken",
          "type": "address"
        },
        {
          "internalType": "address",
          "name": "_secondaryToken",
          "type": "address"
        },
        {
          "internalType": "uint256",
          "name": "steps",
          "type": "uint256"
        }
      ],
      "name": "matchOrders",
      "outputs": [],
      "stateMutability": "nonpayable",
      "type": "function"
    },
    {
      "inputs": [
        {
          "internalType": "address",
          "name": "_baseToken",
          "type": "address"
        },
        {
          "internalType": "address",
          "name": "_secondaryToken",
          "type": "address"
        },
        {
          "internalType": "uint256",
          "name": "steps",
          "type": "uint256"
        },
        {
          "internalType": "uint256[]",
          "name": "hintIds",
          "type": "uint256[]"
        }
      ],
      "name": "matchOrdersWithHints",
      "outputs": [],
      "stateMutability": "nonpayable",
      "type": "function"
    },
    {
      "inputs": [],
      "name": "maxMultiplyFactor",
      "outputs": [
        {
          "internalType": "uint256",
          "name": "",
          "type": "uint256"
        }
      ],
      "stateMutability": "view",
      "type": "function"
    },
    {
      "inputs": [],
      "name": "maxOrderLifespan",
      "outputs": [
        {
          "internalType": "uint64",
          "name": "",
          "type": "uint64"
        }
      ],
      "stateMutability": "view",
      "type": "function"
    },
    {
      "inputs": [],
      "name": "minMultiplyFactor",
      "outputs": [
        {
          "internalType": "uint256",
          "name": "",
          "type": "uint256"
        }
      ],
      "stateMutability": "view",
      "type": "function"
    },
    {
      "inputs": [],
      "name": "minOrderAmount",
      "outputs": [
        {
          "internalType": "uint256",
          "name": "",
          "type": "uint256"
        }
      ],
      "stateMutability": "view",
      "type": "function"
    },
    {
      "inputs": [],
      "name": "pause",
      "outputs": [],
      "stateMutability": "nonpayable",
      "type": "function"
    },
    {
      "inputs": [],
      "name": "paused",
      "outputs": [
        {
          "internalType": "bool",
          "name": "",
          "type": "bool"
        }
      ],
      "stateMutability": "view",
      "type": "function"
    },
    {
      "inputs": [
        {
          "internalType": "address",
          "name": "_baseToken",
          "type": "address"
        },
        {
          "internalType": "address",
          "name": "_secondaryToken",
          "type": "address"
        }
      ],
      "name": "pendingBuyOrdersLength",
      "outputs": [
        {
          "internalType": "uint256",
          "name": "",
          "type": "uint256"
        }
      ],
      "stateMutability": "view",
      "type": "function"
    },
    {
      "inputs": [
        {
          "internalType": "address",
          "name": "_baseToken",
          "type": "address"
        },
        {
          "internalType": "address",
          "name": "_secondaryToken",
          "type": "address"
        },
        {
          "internalType": "bool",
          "name": "_isBuy",
          "type": "bool"
        }
      ],
      "name": "pendingMarketOrdersLength",
      "outputs": [
        {
          "internalType": "uint256",
          "name": "",
          "type": "uint256"
        }
      ],
      "stateMutability": "view",
      "type": "function"
    },
    {
      "inputs": [
        {
          "internalType": "address",
          "name": "_baseToken",
          "type": "address"
        },
        {
          "internalType": "address",
          "name": "_secondaryToken",
          "type": "address"
        }
      ],
      "name": "pendingSellOrdersLength",
      "outputs": [
        {
          "internalType": "uint256",
          "name": "",
          "type": "uint256"
        }
      ],
      "stateMutability": "view",
      "type": "function"
    },
    {
      "inputs": [
        {
          "internalType": "address",
          "name": "_baseToken",
          "type": "address"
        },
        {
          "internalType": "address",
          "name": "_secondaryToken",
          "type": "address"
        },
        {
          "internalType": "bool",
          "name": "_evaluateBuyOrders",
          "type": "bool"
        },
        {
          "internalType": "uint256",
          "name": "_orderId",
          "type": "uint256"
        },
        {
          "internalType": "uint256",
          "name": "_previousOrderIdHint",
          "type": "uint256"
        },
        {
          "internalType": "uint256",
          "name": "_steps",
          "type": "uint256"
        },
        {
          "internalType": "enum MoCExchangeLib.OrderType",
          "name": "_orderType",
          "type": "uint8"
        }
      ],
      "name": "processExpired",
      "outputs": [],
      "stateMutability": "nonpayable",
      "type": "function"
    },
    {
      "inputs": [
        {
          "internalType": "address",
          "name": "_baseToken",
          "type": "address"
        },
        {
          "internalType": "address",
          "name": "_secondaryToken",
          "type": "address"
        }
      ],
      "name": "sellOrdersLength",
      "outputs": [
        {
          "internalType": "uint256",
          "name": "",
          "type": "uint256"
        }
      ],
      "stateMutability": "view",
      "type": "function"
    },
    {
      "inputs": [
        {
          "internalType": "uint64",
          "name": "_expectedOrdersForTick",
          "type": "uint64"
        }
      ],
      "name": "setExpectedOrdersForTick",
      "outputs": [],
      "stateMutability": "nonpayable",
      "type": "function"
    },
    {
      "inputs": [
        {
          "internalType": "address",
          "name": "_baseToken",
          "type": "address"
        },
        {
          "internalType": "address",
          "name": "_secondaryToken",
          "type": "address"
        },
        {
          "internalType": "uint256",
          "name": "_price",
          "type": "uint256"
        }
      ],
      "name": "setLastClosingPrice",
      "outputs": [],
      "stateMutability": "nonpayable",
      "type": "function"
    },
    {
      "inputs": [
        {
          "internalType": "uint64",
          "name": "_maxBlocksForTick",
          "type": "uint64"
        }
      ],
      "name": "setMaxBlocksForTick",
      "outputs": [],
      "stateMutability": "nonpayable",
      "type": "function"
    },
    {
      "inputs": [
        {
          "internalType": "uint256",
          "name": "_maxMultiplyFactor",
          "type": "uint256"
        }
      ],
      "name": "setMaxMultiplyFactor",
      "outputs": [],
      "stateMutability": "nonpayable",
      "type": "function"
    },
    {
      "inputs": [
        {
          "internalType": "uint64",
          "name": "_maxOrderLifespan",
          "type": "uint64"
        }
      ],
      "name": "setMaxOrderLifespan",
      "outputs": [],
      "stateMutability": "nonpayable",
      "type": "function"
    },
    {
      "inputs": [
        {
          "internalType": "uint64",
          "name": "_minBlocksForTick",
          "type": "uint64"
        }
      ],
      "name": "setMinBlocksForTick",
      "outputs": [],
      "stateMutability": "nonpayable",
      "type": "function"
    },
    {
      "inputs": [
        {
          "internalType": "uint256",
          "name": "_minMultiplyFactor",
          "type": "uint256"
        }
      ],
      "name": "setMinMultiplyFactor",
      "outputs": [],
      "stateMutability": "nonpayable",
      "type": "function"
    },
    {
      "inputs": [
        {
          "internalType": "uint256",
          "name": "_minOrderAmount",
          "type": "uint256"
        }
      ],
      "name": "setMinOrderAmount",
      "outputs": [],
      "stateMutability": "nonpayable",
      "type": "function"
    },
    {
      "inputs": [
        {
          "internalType": "address",
          "name": "_baseToken",
          "type": "address"
        },
        {
          "internalType": "address",
          "name": "_secondaryToken",
          "type": "address"
        },
        {
          "internalType": "address",
          "name": "_priceProvider",
          "type": "address"
        }
      ],
      "name": "setPriceProvider",
      "outputs": [],
      "stateMutability": "nonpayable",
      "type": "function"
    },
    {
      "inputs": [
        {
          "internalType": "address",
          "name": "newStopper",
          "type": "address"
        }
      ],
      "name": "setStopper",
      "outputs": [],
      "stateMutability": "nonpayable",
      "type": "function"
    },
    {
      "inputs": [
        {
          "internalType": "address",
          "name": "_baseToken",
          "type": "address"
        },
        {
          "internalType": "address",
          "name": "_secondaryToken",
          "type": "address"
        },
        {
          "internalType": "uint256",
          "name": "_emaPrice",
          "type": "uint256"
        }
      ],
      "name": "setTokenPairEmaPrice",
      "outputs": [],
      "stateMutability": "nonpayable",
      "type": "function"
    },
    {
      "inputs": [
        {
          "internalType": "address",
          "name": "_baseToken",
          "type": "address"
        },
        {
          "internalType": "address",
          "name": "_secondaryToken",
          "type": "address"
        },
        {
          "internalType": "uint256",
          "name": "_smoothingFactor",
          "type": "uint256"
        }
      ],
      "name": "setTokenPairSmoothingFactor",
      "outputs": [],
      "stateMutability": "nonpayable",
      "type": "function"
    },
    {
      "inputs": [],
      "name": "stoppable",
      "outputs": [
        {
          "internalType": "bool",
          "name": "",
          "type": "bool"
        }
      ],
      "stateMutability": "view",
      "type": "function"
    },
    {
      "inputs": [],
      "name": "stopper",
      "outputs": [
        {
          "internalType": "address",
          "name": "",
          "type": "address"
        }
      ],
      "stateMutability": "view",
      "type": "function"
    },
    {
      "inputs": [],
      "name": "tickConfig",
      "outputs": [
        {
          "internalType": "uint256",
          "name": "expectedOrdersForTick",
          "type": "uint256"
        },
        {
          "internalType": "uint256",
          "name": "maxBlocksForTick",
          "type": "uint256"
        },
        {
          "internalType": "uint256",
          "name": "minBlocksForTick",
          "type": "uint256"
        }
      ],
      "stateMutability": "view",
      "type": "function"
    },
    {
      "inputs": [
        {
          "internalType": "address",
          "name": "_baseToken",
          "type": "address"
        },
        {
          "internalType": "address",
          "name": "_secondaryToken",
          "type": "address"
        }
      ],
      "name": "tickIsRunning",
      "outputs": [
        {
          "internalType": "bool",
          "name": "",
          "type": "bool"
        }
      ],
      "stateMutability": "view",
      "type": "function"
    },
    {
      "inputs": [
        {
          "internalType": "uint256",
          "name": "",
          "type": "uint256"
        },
        {
          "internalType": "uint256",
          "name": "",
          "type": "uint256"
        }
      ],
      "name": "tokenPairAddresses",
      "outputs": [
        {
          "internalType": "address",
          "name": "",
          "type": "address"
        }
      ],
      "stateMutability": "view",
      "type": "function"
    },
    {
      "inputs": [],
      "name": "tokenPairCount",
      "outputs": [
        {
          "internalType": "uint256",
          "name": "",
          "type": "uint256"
        }
      ],
      "stateMutability": "view",
      "type": "function"
    },
    {
      "inputs": [],
      "name": "unpause",
      "outputs": [],
      "stateMutability": "nonpayable",
      "type": "function"
    },
    {
      "inputs": [
        {
          "internalType": "address",
          "name": "token",
          "type": "address"
        }
      ],
      "name": "withdrawCommissions",
      "outputs": [],
      "stateMutability": "nonpayable",
      "type": "function"
    }
  ],
  "bytecode": "0x608060405234801561001057600080fd5b506001610168556147ca806100266000396000f3fe608060405234801561001057600080fd5b50600436106104075760003560e01c80636bf5de4d11610220578063b6e0833011610130578063e24e4fdb116100b8578063f2b24da311610087578063f2b24da3146109e7578063f4ae020e146109fa578063f5b5f6cb14610a0d578063fc3a496214610a20578063ff0e4bac14610a3357600080fd5b8063e24e4fdb14610999578063e3204b22146109ae578063e4bbb5a8146109c1578063ec62d9ef146109d457600080fd5b8063c4d66de8116100ff578063c4d66de814610933578063c4e82c1a14610946578063c520bc9214610959578063d1a767141461096c578063df318d1b1461098657600080fd5b8063b6e08330146108c7578063bb4872de146108da578063bbc92f50146108e8578063c227b51c146108fb57600080fd5b806395b6f0d4116101b3578063a3b8ef0411610182578063a3b8ef041461087f578063ae06785414610892578063afac413f146108a0578063b232634c146108aa578063b5febde0146108bd57600080fd5b806395b6f0d41461080c5780639c27ee4c1461082c5780639df64e1e14610859578063a268e2121461086c57600080fd5b806389f1b1e3116101ef57806389f1b1e3146107c05780638dfc0439146107d357806391988cb8146107e65780639221ffa6146107f957600080fd5b80636bf5de4d1461077f57806379c5827c1461079257806380446d87146107a55780638456cb59146107b857600080fd5b80633f4ba83a1161031b57806351f7a854116102ae5780635a3970b11161027d5780635a3970b1146106e45780635c975abb146106f75780635f913d4e1461071457806364ce594c14610764578063682743571461077757600080fd5b806351f7a854146106a35780635210570c146106b657806352826184146106be5780635394e8e6146106d157600080fd5b8063485cc955116102ea578063485cc955146106575780634a2721321461066a5780634e420fd41461067d57806350090c6b1461069057600080fd5b80633f4ba83a1461061f57806341f3844d1461062757806342872a021461063a57806346b62c4a1461064d57600080fd5b80631c5129e91161039e578063324773801161036d57806332477380146105cb57806333ccf340146105de578063340f965a146105f157806337db0273146106045780633991dfe81461061757600080fd5b80631c5129e91461055c57806320aab0731461056f57806320ad3f011461058c578063237d9c8e1461059f57600080fd5b806314fced94116103da57806314fced9414610478578063154e83221461048b5780631617b922146104d357806316dedc84146104e657600080fd5b80630a2c14701461040c5780630a58f47a146104215780630c340a24146104345780630ef51d0d14610464575b600080fd5b61041f61041a366004613d96565b610a66565b005b61041f61042f366004613e15565b610b55565b603354610447906001600160a01b031681565b6040516001600160a01b0390911681526020015b60405180910390f35b61016954610447906001600160a01b031681565b61041f610486366004613e32565b610b88565b61049e610499366004613e32565b610bc1565b604080519788526020880196909652948601939093526060850191909152608084015260a083015260c082015260e00161045b565b61041f6104e1366004613e6b565b610c1a565b6104f96104f4366004613e32565b610c57565b604080519c8d5260208d019b909b52998b019890985260608a01969096526001600160401b03909416608089015260a088019290925260c087015260e086015215156101008501526101208401526101408301526101608201526101800161045b565b61041f61056a366004613e32565b610cb4565b61057e670de0b6b3a764000081565b60405190815260200161045b565b61044761059a366004613eb1565b610ce7565b61019f546105b3906001600160401b031681565b6040516001600160401b03909116815260200161045b565b61041f6105d9366004613ed3565b610d25565b61041f6105ec366004613ed3565b610daf565b61041f6105ff366004613f2b565b610dcf565b61041f610612366004613f46565b610e3f565b609c5461057e565b61041f610f32565b61057e610635366004613e32565b61101e565b61057e610648366004613e32565b611037565b61057e61019c5481565b61041f610665366004613e32565b6110c3565b61041f610678366004613f2b565b611147565b61041f61068b366004613f91565b611188565b61057e61069e366004613e32565b61122b565b61041f6106b1366004613e15565b611245565b61041f6112d3565b61041f6106cc366004613ed3565b6112e8565b61057e6106df366004613e32565b611371565b6104476106f2366004613e32565b61138e565b61013554610100900460ff165b604051901515815260200161045b565b610727610722366004613ff4565b6113b0565b604080519788526001600160a01b039096166020880152948601939093526060850191909152608084015260a083015260c082015260e00161045b565b61041f610772366004614047565b6113f7565b61041f61145b565b61070461078d3660046140b5565b611473565b6107046107a0366004613e32565b611509565b61057e6107b33660046140b5565b611530565b61041f611545565b61041f6107ce366004613f2b565b611671565b61041f6107e13660046140f5565b61169d565b61041f6107f4366004613e6b565b61175b565b61041f6108073660046141b6565b611790565b61081f61081a366004613e32565b61182f565b60405161045b919061427d565b60665460675460685461083e92919083565b6040805193845260208401929092529082015260600161045b565b61057e610867366004613e32565b611849565b61041f61087a366004614290565b611860565b61041f61088d3660046142eb565b611877565b61057e663ab9f28a23200081565b61057e61019e5481565b61041f6108b8366004614290565b611885565b61057e61019d5481565b61041f6108d5366004613e15565b611895565b610135546107049060ff1681565b61041f6108f63660046142eb565b6118bf565b61090e610909366004613e32565b6118cd565b604080516001600160401b03909416845260208401929092529082015260600161045b565b61041f610941366004613e15565b611905565b61041f6109543660046142eb565b611997565b61041f610967366004614304565b6119a5565b61013554610447906201000090046001600160a01b031681565b61057e61099436600461435f565b611b01565b6109a1611b60565b60405161045b9190614396565b61041f6109bc366004613f2b565b611be7565b61041f6109cf3660046140b5565b611c28565b61041f6109e2366004613f91565b611cdb565b61057e6109f5366004613e32565b611d71565b61041f610a08366004614408565b611dbc565b61041f610a1b366004613ed3565b611e09565b61057e610a2e366004613e32565b611e6a565b610a46610a41366004613e32565b611e80565b60408051948552602085019390935291830152606082015260800161045b565b610135546040805180820190915260128152600080516020614775833981519152602082015290610100900460ff1615610abc5760405162461bcd60e51b8152600401610ab39190614460565b60405180910390fd5b506000610ac98888611f3c565b61016954604051631a69cb3b60e31b815291925073__$4a165dabbfd6ff3f3f3890617dd1870b68$__9163d34e59d891610b1b9185916001600160a01b0316908b908b908b908b908b906004016144af565b60006040518083038186803b158015610b3357600080fd5b505af4158015610b47573d6000803e3d6000fd5b505050505050505050505050565b610b5d611f9b565b61013580546001600160a01b03909216620100000262010000600160b01b0319909216919091179055565b8181610b948282611509565b15610bb15760405162461bcd60e51b8152600401610ab390614504565b610bbb8484612054565b50505050565b600080600080600080600080610bd78a8a612110565b602181015460228201546026830154602e8401546027850154602f860154603990960154949d50929b509099509750955090935091505092959891949750929550565b8383610c268282611509565b15610c435760405162461bcd60e51b8152600401610ab390614504565b610c4f86868686612136565b505050505050565b600080600080600080600080600080600080610c738e8e61219a565b959d50939b509199509750955093509150610c8e8e8e611e80565b929e50909c509a509850610ca28e8e611037565b90509295989b509295989b509295989b565b8181610cc08282611509565b15610cdd5760405162461bcd60e51b8152600401610ab390614504565b610bbb848461220a565b609c8281548110610cf757600080fd5b90600052602060002090600202018160028110610d1357600080fd5b01546001600160a01b03169150829050565b610d2d611f9b565b6000610d398484611f3c565b9050670de0b6b3a7640000821115610da75760405162461bcd60e51b815260206004820152602b60248201527f536d6f6f7468696e6720666163746f722073686f756c6420626520696e20726560448201526a6c6174696f6e20746f203160a81b6064820152608401610ab3565b603f01555050565b610db7611f9b565b6000610dc38484611f3c565b603e0191909155505050565b610dd7611f9b565b6002816001600160401b03161015610e315760405162461bcd60e51b815260206004820181905260248201527f4578706563746564206f726465727320666f72207469636b20746f6f206c6f776044820152606401610ab3565b6001600160401b0316606655565b610e47611f9b565b610e5183836122b8565b610e9d5760405162461bcd60e51b815260206004820152601760248201527f546865207061697220646f6573206e6f742065786973740000000000000000006044820152606401610ab3565b6001600160a01b038116610eff5760405162461bcd60e51b8152602060048201526024808201527f50726963652070726f766964657220616464726573732063616e206e6f7420626044820152630ca4060f60e31b6064820152608401610ab3565b6000610f0b8484611f3c565b601c0180546001600160a01b0319166001600160a01b039390931692909217909155505050565b6101355460408051808201909152600b81526a3737ba2fb9ba37b83832b960a91b6020820152906201000090046001600160a01b03163314610f875760405162461bcd60e51b8152600401610ab39190614460565b5061013554604080518082019091526012815271636f6e74726163745f69735f61637469766560701b602082015290610100900460ff16610fdb5760405162461bcd60e51b8152600401610ab39190614460565b50610135805461ff00191690556040513381527f5db9ee0a495bf2e6ff9c91a7834c1ba4fdd244a5e8aa4e537bd38aeae4b073aa906020015b60405180910390a1565b600061102a8383612110565b6003015490505b92915050565b6000806110448484612110565b60405163323bfe2160e01b81526004810182905290915073__$4a165dabbfd6ff3f3f3890617dd1870b68$__9063323bfe2190602401602060405180830381865af4158015611097573d6000803e3d6000fd5b505050506040513d601f19601f820116820180604052508101906110bb919061452d565b949350505050565b600054610100900460ff16806110d85750303b155b806110e6575060005460ff16155b6111025760405162461bcd60e51b8152600401610ab390614546565b600054610100900460ff16158015611124576000805461ffff19166101011790555b61113083836001611c28565b8015611142576000805461ff00191690555b505050565b61114f611f9b565b6068546001600160401b038216101561117a5760405162461bcd60e51b8152600401610ab390614594565b6001600160401b0316606755565b8484876111968383836122cc565b61019f5485906001600160401b0390811690821611156111c85760405162461bcd60e51b8152600401610ab3906145dd565b86806000036112105760405162461bcd60e51b815260206004820152601460248201527350726963652063616e6e6f74206265207a65726f60601b6044820152606401610ab3565b61121e8b8b8b8b8b8b61231f565b5050505050505050505050565b6000611237838361219a565b509198975050505050505050565b61124d612383565b6101695460405163a82a575960e01b81526001600160a01b038084166004830152909116602482015273__$4a165dabbfd6ff3f3f3890617dd1870b68$__9063a82a57599060440160006040518083038186803b1580156112ad57600080fd5b505af41580156112c1573d6000803e3d6000fd5b505050506112d0600161016855565b50565b6112db611f9b565b610135805460ff19169055565b6112f0611f9b565b600081116113595760405162461bcd60e51b815260206004820152603060248201527f54686520676976656e20696e697469616c2070726963652073686f756c64206260448201526f0652067726561746572207468616e20360841b6064820152608401610ab3565b60006113658484611f3c565b603c0191909155505050565b60006113876113808484612110565b6018015490565b9392505050565b60008061139b8484612110565b601c01546001600160a01b0316949350505050565b60008060008060008060006113db6113c98c8c8b6123af565b60009182915081908190819081908190565b9650965096509650965096509650949950949992975094509450565b61019f5482906001600160401b0390811690821611156114295760405162461bcd60e51b8152600401610ab3906145dd565b83611433816123cc565b8261143e5786611440565b875b868961144d8383836122cc565b61121e8b8b8b8b8b8b6124a6565b611463611f9b565b610135805460ff19166001179055565b6000806114808585611f3c565b604051631ce3be8560e31b815260048101829052841515602482015290915073__$4a165dabbfd6ff3f3f3890617dd1870b68$__9063e71df428906044015b602060405180830381865af41580156114dc573d6000803e3d6000fd5b505050506040513d601f19601f820116820180604052508101906115009190614608565b95945050505050565b600080611516848461182f565b600381111561152757611527614257565b14159392505050565b60006110bb61153f8585612110565b83612505565b6101355460408051808201909152600b81526a756e73746f707061626c6560a81b60208201529060ff1661158c5760405162461bcd60e51b8152600401610ab39190614460565b506101355460408051808201909152600b81526a3737ba2fb9ba37b83832b960a91b6020820152906201000090046001600160a01b031633146115e25760405162461bcd60e51b8152600401610ab39190614460565b50610135546040805180820190915260128152600080516020614775833981519152602082015290610100900460ff16156116305760405162461bcd60e51b8152600401610ab39190614460565b50610135805461ff0019166101001790556040513381527f62e78cea01bee320cd4e420270b5ea74000d11b0c9f74754ebdbfc544b05a25890602001611014565b611679611f9b565b61019f805467ffffffffffffffff19166001600160401b0392909216919091179055565b600054610100900460ff16806116b25750303b155b806116c0575060005460ff16155b6116dc5760405162461bcd60e51b8152600401610ab390614546565b600054610100900460ff161580156116fe576000805461ffff19166101011790555b61170d8c8c8c8c8c888861251f565b61019c87905561019f805467ffffffffffffffff19166001600160401b03861617905561019d86905561019e8590558015610b47576000805461ff0019169055505050505050505050505050565b83836117678282611509565b156117845760405162461bcd60e51b8152600401610ab390614504565b610c4f868686866125da565b610135546040805180820190915260128152600080516020614775833981519152602082015290610100900460ff16156117dd5760405162461bcd60e51b8152600401610ab39190614460565b5060006117ea8686611f3c565b6021810191506117fe906023018484613ca3565b5061181261180c878761263e565b8561264a565b611820600282016000613cee565b60006003909101555050505050565b600061183b8383611f3c565b603a015460ff169392505050565b60006118558383612110565b601101549392505050565b6118708585858585600019611cdb565b5050505050565b61187f611f9b565b61019c55565b6118708585858585600019611188565b61189d611f9b565b603380546001600160a01b0319166001600160a01b0392909216919091179055565b6118c7611f9b565b61019d55565b6000806000806118dd8686612110565b6020810154601d820154601e909201546001600160401b039091169891975095509350505050565b600054610100900460ff168061191a5750303b155b80611928575060005460ff16155b6119445760405162461bcd60e51b8152600401610ab390614546565b600054610100900460ff16158015611966576000805461ffff19166101011790555b603380546001600160a01b0319166001600160a01b0384161790558015611993576000805461ff00191690555b5050565b61199f611f9b565b61019e55565b6119b2858585858561265a565b60006119be868661263e565b6040805160038082526080820190925291925060009190602082016060803683370190505090506119f08260006126cf565b81600081518110611a0357611a03614625565b602002602001018181525050611a1a8260016126cf565b81600181518110611a2d57611a2d614625565b602002602001018181525050611a448260026126cf565b81600281518110611a5757611a57614625565b6020908102919091010152611a8e81600081518110611a7857611a78614625565b60200260200101516126e461279b612830612876565b611aba81600181518110611aa457611aa4614625565b60200260200101516128856128e0611993612876565b611ae681600281518110611ad057611ad0614625565b6020026020010151612931612978611993612876565b611af882826129c36129f86001612a6c565b50505050505050565b60cf546000906001600160a01b0390811690851603611b21575081611387565b60cf54600090611b3a906001600160a01b031686612110565b60cf54909150611b53906001600160a01b031684612110565b5060001995945050505050565b6060609c805480602002602001604051908101604052809291908181526020016000905b82821015611bde5760008481526020902060408051808201918290529160028581029091019182845b81546001600160a01b03168152600190910190602001808311611bad57505050505081526020019060010190611b84565b50505050905090565b611bef611f9b565b6067546001600160401b0382161115611c1a5760405162461bcd60e51b8152600401610ab390614594565b6001600160401b0316606855565b600054610100900460ff1680611c3d5750303b155b80611c4b575060005460ff16155b611c675760405162461bcd60e51b8152600401610ab390614546565b600054610100900460ff16158015611c89576000805461ffff19166101011790555b610135805461ff01600160b01b03191683151562010000600160b01b03191617620100006001600160a01b03871602179055611cc483611905565b8015610bbb576000805461ff001916905550505050565b858487611ce98383836122cc565b61019f5485906001600160401b039081169082161115611d1b5760405162461bcd60e51b8152600401610ab3906145dd565b8680600003611d635760405162461bcd60e51b815260206004820152601460248201527350726963652063616e6e6f74206265207a65726f60601b6044820152606401610ab3565b61121e8b8b8b8b8b8b612a7f565b6040516bffffffffffffffffffffffff19606084811b8216602084015283901b1660348201526000906048015b60405160208183030381529060405280519060200120905092915050565b6000611dc98686856123af565b600094855260205250604090922060070180546001600160401b03909316600160a01b0267ffffffffffffffff60a01b1990931692909217909155505050565b610135546040805180820190915260128152600080516020614775833981519152602082015290610100900460ff1615611e565760405162461bcd60e51b8152600401610ab39190614460565b50611142611e64848461263e565b8261264a565b6000611387611e798484612110565b600a015490565b6000806000806000611e928787612110565b9050611e9d81612ae3565b611eb557600080600080945094509450945050611f33565b6040516303de1a8560e61b81526004810182905273__$4a165dabbfd6ff3f3f3890617dd1870b68$__9063f786a14090602401608060405180830381865af4158015611f05573d6000803e3d6000fd5b505050506040513d601f19601f82011682018060405250810190611f29919061463b565b9450945094509450505b92959194509250565b6000611f488383612110565b9050611f5381612ae3565b6110315760405162461bcd60e51b8152602060048201526019602482015278151bdad95b881c185a5c88191bd95cc81b9bdd08195e1a5cdd603a1b6044820152606401610ab3565b60335460405163d994d6d560e01b81523360048201526001600160a01b039091169063d994d6d590602401602060405180830381865afa158015611fe3573d6000803e3d6000fd5b505050506040513d601f19601f820116820180604052508101906120079190614608565b604051806040016040528060168152602001753737ba2fb0baba3437b934bd32b22fb1b430b733b2b960511b815250906112d05760405162461bcd60e51b8152600401610ab39190614460565b61205c611f9b565b60006120688383611f3c565b603d81015490915060ff16156120b85760405162461bcd60e51b815260206004820152601560248201527414185a5c88185b1c9958591e48191a5cd8589b1959605a1b6044820152606401610ab3565b603d8101805460ff19166001179055604080516001600160a01b038581168252841660208201527f71a055a513c927530cb6f44f826ef705d11b6b00e0912135c1f73796663138ed91015b60405180910390a1505050565b6000609b60006121208585611d71565b8152602001908152602001600020905092915050565b610135546040805180820190915260128152600080516020614775833981519152602082015290610100900460ff16156121835760405162461bcd60e51b8152600401610ab39190614460565b50610bbb6121918585611f3c565b83836001612b1f565b60008060008060008060006121f26121b28a8a612110565b6020810154601d820154601e830154603c840154603d850154603e860154603f909601546001600160401b039095169693959294919360ff909116929190565b959f949e50929c50909a509850965090945092505050565b612212611f9b565b600061221e8383611f3c565b603d81015490915060ff1661226c5760405162461bcd60e51b815260206004820152601460248201527314185a5c88185b1c9958591e48195b98589b195960621b6044820152606401610ab3565b603d8101805460ff19169055604080516001600160a01b038086168252841660208201527f53affae818baf7c49a51b11722048f56b718a0eb3ea1e4e494915a852ead79b09101612103565b60006113876122c78484612110565b612ae3565b60006122d9848484611b01565b905061019c54811015610bbb5760405162461bcd60e51b815260206004820152600e60248201526d416d6f756e7420746f6f206c6f7760901b6044820152606401610ab3565b610135546040805180820190915260128152600080516020614775833981519152602082015290610100900460ff161561236c5760405162461bcd60e51b8152600401610ab39190614460565b50610c4f61237a8787611f3c565b85858585612d1f565b600261016854036123a757604051633ee5aeb560e01b815260040160405180910390fd5b600261016855565b6000806123bc8585611f3c565b9050826110bb57600e8101611500565b806000036124155760405162461bcd60e51b81526020600482015260166024820152754d756c7469706c79466163746f72206973207a65726f60501b6044820152606401610ab3565b61019d5481101561245d5760405162461bcd60e51b81526020600482015260126024820152712637bb9026bab63a34b8363ca330b1ba37b960711b6044820152606401610ab3565b61019e548111156112d05760405162461bcd60e51b81526020600482015260136024820152722434b3b41026bab63a34b8363ca330b1ba37b960691b6044820152606401610ab3565b610135546040805180820190915260128152600080516020614775833981519152602082015290610100900460ff16156124f35760405162461bcd60e51b8152600401610ab39190614460565b50610c4f868686866000198787612e19565b600081612516576019830154611387565b5050600b015490565b600054610100900460ff16806125345750303b155b80612542575060005460ff16155b61255e5760405162461bcd60e51b8152600401610ab390614546565b600054610100900460ff16158015612580576000805461ffff19166101011790555b61258d8887878787612f7a565b612598600061010255565b61016980546001600160a01b0319166001600160a01b0389161790556125be82846110c3565b80156125d0576000805461ff00191690555b5050505050505050565b610135546040805180820190915260128152600080516020614775833981519152602082015290610100900460ff16156126275760405162461bcd60e51b8152600401610ab39190614460565b50610bbb6126358585611f3c565b83836000612b1f565b60006113878383611d71565b6119936101d36101d2848461307d565b60cf546001600160a01b0386811691161480612687575060cf54612687906001600160a01b0316866122b8565b6126c25760405162461bcd60e51b815260206004820152600c60248201526b24b73b30b634b2102830b4b960a11b6044820152606401610ab3565b61187085858585856132a8565b60008282604051602001611d9e929190614671565b6000806126f08561346a565b90506001603a82015460ff16600381111561270d5761270d614257565b1461271a5761271a614690565b604051630f0ea5af60e01b81526004810182905260009073__$4a165dabbfd6ff3f3f3890617dd1870b68$__90630f0ea5af90602401602060405180830381865af415801561276d573d6000803e3d6000fd5b505050506040513d601f19601f820116820180604052508101906127919190614608565b9695505050505050565b60006127a68361346a565b90506000603a82015460ff1660038111156127c3576127c3614257565b146127d0576127d0614690565b60405163354351a960e21b81526004810182905273__$4a165dabbfd6ff3f3f3890617dd1870b68$__9063d50d46a4906024015b60006040518083038186803b15801561281c57600080fd5b505af4158015611af8573d6000803e3d6000fd5b600061283b8361346a565b60405163582e61a960e01b81526004810182905290915073__$4a165dabbfd6ff3f3f3890617dd1870b68$__9063582e61a990602401612804565b610bbb6101d2858585856134ce565b6000806128918561346a565b610169546040516355b1281960e11b8152600481018390526001600160a01b03909116602482015290915073__$4a165dabbfd6ff3f3f3890617dd1870b68$__9063ab625032906044016114bf565b60006128eb8361346a565b90506001603a82015460ff16600381111561290857612908614257565b1461291557612915614690565b603a810180546002919060ff19166001835b0217905550505050565b60008061293d8561346a565b604051635219d49560e11b81526004810182905290915073__$4a165dabbfd6ff3f3f3890617dd1870b68$__9063a433a92a906024016114bf565b60006129838361346a565b90506002603a82015460ff1660038111156129a0576129a0614257565b146129ad576129ad614690565b603a810180546003919060ff1916600183612927565b60006129ce8261346a565b90506000603a82015460ff1660038111156129eb576129eb614257565b1461199357611993614690565b6000612a038261346a565b604051633bdb540760e21b8152600481018290526066602482015290915073__$4a165dabbfd6ff3f3f3890617dd1870b68$__9063ef6d501c9060440160006040518083038186803b158015612a5857600080fd5b505af4158015610c4f573d6000803e3d6000fd5b6118706101d36101d28787878787613603565b610135546040805180820190915260128152600080516020614775833981519152602082015290610100900460ff1615612acc5760405162461bcd60e51b8152600401610ab39190614460565b50610c4f612ada8787611f3c565b858585856137d8565b600d8101546000906001600160a01b031615801590612b0e5750601b8201546001600160a01b031615155b8015611031575050603b0154151590565b600081612b2f5784600e01612b31565b845b60405163678dd03360e11b81526004810187905260248101869052604481018590528315156064820152909150600090819073__$4a165dabbfd6ff3f3f3890617dd1870b68$__9063cf1ba066906084016040805180830381865af4158015612b9e573d6000803e3d6000fd5b505050506040513d601f19601f82011682018060405250810190612bc291906146a6565b61016954600d86015460405163332d3ca560e01b81526001600160a01b039283166004820152911660248201526044810183905260648101829052336084820152600060a4820181905292945090925081908190819073__$4a165dabbfd6ff3f3f3890617dd1870b68$__9063332d3ca59060c401608060405180830381865af4158015612c54573d6000803e3d6000fd5b505050506040513d601f19601f82011682018060405250810190612c7891906146ca565b935093509350935083612cc55760405162461bcd60e51b8152602060048201526015602482015274151bdad95b881d1c985b9cd9995c8819985a5b1959605a1b6044820152606401610ab3565b6040805184815260208101849052908101829052881515606082015233908b907fd975b60b6329c797ae584f3af10b37331736bff9e1e5c69342394824d8c19b819060800160405180910390a35050505050505050505050565b601b850154600d860154600091612d4c916001600160a01b0391821691670de0b6b3a76400009116611b01565b61016954604051631e2ca63d60e21b815260048101889052602481018390529192506000916001600160a01b03909116906378b298f490604401602060405180830381865afa158015612da3573d6000803e3d6000fd5b505050506040513d601f19601f82011682018060405250810190612dc7919061452d565b905085811115611af85760405162461bcd60e51b815260206004820152601a60248201527f416d6f756e742069732067726561746572207468616e204665650000000000006044820152606401610ab3565b610135546040805180820190915260128152600080516020614775833981519152602082015290610100900460ff1615612e665760405162461bcd60e51b8152600401610ab39190614460565b506000612e738888611f3c565b90506000612ea183612e855788612e87565b895b670de0b6b3a764000085612e9b578b611b01565b8a611b01565b61016954604051631e2ca63d60e21b8152600481018a9052602481018390529192506000916001600160a01b03909116906378b298f490604401602060405180830381865afa158015612ef8573d6000803e3d6000fd5b505050506040513d601f19601f82011682018060405250810190612f1c919061452d565b905087811115612f6e5760405162461bcd60e51b815260206004820152601a60248201527f416d6f756e742069732067726561746572207468616e204665650000000000006044820152606401610ab3565b50505050505050505050565b600054610100900460ff1680612f8f5750303b155b80612f9d575060005460ff16155b612fb95760405162461bcd60e51b8152600401610ab390614546565b600054610100900460ff16158015612fdb576000805461ffff19166101011790555b6001600160a01b03861661303d5760405162461bcd60e51b8152602060048201526024808201527f636f6d6d6f42617365546f6b656e416464726573732063616e6e6f74206265206044820152631b9d5b1b60e21b6064820152608401610ab3565b60cf80546001600160a01b0319166001600160a01b03881617905561306485858585613805565b8015610c4f576000805461ff0019169055505050505050565b6000828152602085905260409020816131095760405162461bcd60e51b815260206004820152604260248201527f697420646f6573206e6f74206d616b652073656e736520746f2065786563757460448201527f6520612067726f7570206f66207461736b732077697468207a65726f20737465606482015261707360f01b608482015260a401610ab3565b80546131575760405162461bcd60e51b815260206004820152601860248201527f7468652067726f757020646f6573206e6f7420657869737400000000000000006044820152606401610ab3565b6000600182015460ff16600281111561317257613172614257565b036131a3578054600382015461319291908015613d0c021763ffffffff16565b6001818101805460ff191690911790555b60018082015460ff1660028111156131bd576131bd614257565b03611870578160005b6000821180156131d95750600283015481105b156132475760008660008560020184815481106131f8576131f8614625565b90600052602060002001548152602001908152602001600020905060006132248286600001548661394e565b90506132308482613b79565b93505050808061323f9061471f565b9150506131c6565b506132528286613b95565b15610c4f57600182018054600260ff199091161790558154600383015461328a9190600160401b90048015613d0c021763ffffffff16565b6003820154600160801b900460ff1615610c4f57610c4f8286613c0e565b6132b0611f9b565b84846132bc82826122b8565b156132f95760405162461bcd60e51b815260206004820152600d60248201526c22bc34b9ba32b73a103830b4b960991b6044820152606401610ab3565b61330381836122b8565b156133485760405162461bcd60e51b815260206004820152601560248201527422bc34b9ba32b73a1034b73b32b939b2903830b4b960591b6044820152606401610ab3565b806001600160a01b0316826001600160a01b0316036133a95760405162461bcd60e51b815260206004820152601760248201527f4261736520657175616c20746f207365636f6e646172790000000000000000006044820152606401610ab3565b600083116133f05760405162461bcd60e51b8152602060048201526014602482015273696e697469616c5072696365206e6f207a65726f60601b6044820152606401610ab3565b60006133fc8888611d71565b604080518082019091526001600160a01b03808b16825289166020820152609c805460018101825560009190915291925061345f9160029081027faf85b9071dfafeac1409d3f1d19bafc9bc7c37974cde8df0ee6168f0086e539c019190613d16565b505050505050505050565b6000818152609b6020526040902061348181612ae3565b6134c95760405162461bcd60e51b8152602060048201526019602482015278151bdad95b881c185a5c88191bd95cc81b9bdd08195e1a5cdd603a1b6044820152606401610ab3565b919050565b8361351b5760405162461bcd60e51b815260206004820152601c60248201527f61207461736b2063616e6e6f7420686176652061206e756c6c206964000000006044820152606401610ab3565b60008481526020869052604090208054156135835760405162461bcd60e51b815260206004820152602260248201527f61207461736b2077697468207468617420696420616c72656164792065786973604482015261747360f01b6064820152608401610ab3565b93845560018401805460038601805460ff191690556001600160401b03928316600160801b0267ffffffffffffffff60801b19948416600160401b029490941677ffffffffffffffffffffffffffffffff000000000000000019909116179290921767ffffffffffffffff19169216919091179055600060029091015550565b846136505760405162461bcd60e51b815260206004820152601d60248201527f612067726f75702063616e6e6f7420686176652061206e756c6c2069640000006044820152606401610ab3565b60008581526020889052604090208054156136b95760405162461bcd60e51b815260206004820152602360248201527f612067726f75702077697468207468617420696420616c72656164792065786960448201526273747360e81b6064820152608401610ab3565b85815560005b85518110156137795760008682815181106136dc576136dc614625565b6020908102919091018101516000818152918b905260409091208054919250906137565760405162461bcd60e51b815260206004820152602560248201527f6f6e65206f662074686520737065636966696564207461736b7320697320696e6044820152641d985b1a5960da1b6064820152608401610ab3565b5060028301805460018181018355600092835260209092200191909155016136bf565b506003810180546001909201805460ff19169055911515600160801b026001600160401b03938416600160401b026fffffffffffffffffffffffffffffffff1990921694909316939093179290921760ff60801b191617905550505050565b600d850154601b860154600091612d4c916001600160a01b0391821691670de0b6b3a76400009116611b01565b600054610100900460ff168061381a5750303b155b80613828575060005460ff16155b6138445760405162461bcd60e51b8152600401610ab390614546565b600054610100900460ff16158015613866576000805461ffff19166101011790555b6002856001600160401b031610156138c05760405162461bcd60e51b815260206004820181905260248201527f4578706563746564206f726465727320666f72207469636b20746f6f206c6f776044820152606401610ab3565b826001600160401b0316846001600160401b031610156138f25760405162461bcd60e51b8152600401610ab390614594565b604080516060810182526001600160401b03808816808352878216602084018190529187169290930182905260669290925560679190915560685561393682611905565b8015611870576000805461ff00191690555050505050565b60008082116139bd5760405162461bcd60e51b815260206004820152603560248201527f697420646f6573206e6f74206d616b652073656e736520746f20657865637574604482015274652061207461736b2077697468203020737465707360581b6064820152608401610ab3565b8354613a175760405162461bcd60e51b8152602060048201526024808201527f697420697320696e76616c696420746f20657865637574652061206e756c6c206044820152637461736b60e01b6064820152608401610ab3565b60028085015490600386015460ff166002811115613a3757613a37614257565b03613a46576000915050611387565b6000600386015460ff166002811115613a6157613a61614257565b03613aa657613a968486600001548760010160089054906101000a90048015613d0c02176001600160401b031663ffffffff16565b60038501805460ff191660011790555b6001600386015460ff166002811115613ac157613ac1614257565b03613b6e5760028501546000906001908290613add9087613c24565b9050876002015492505b818015613af357508083105b15613b2a5787546001890154613b1691899186908015613d0c021763ffffffff16565b915082613b228161471f565b935050613ae7565b6002880183905581613b6a57600388018054600260ff1990911617905587546001890154613b6a918991600160801b90048015613d0c021763ffffffff16565b5050505b600285015461150090825b600082821115613b8b57613b8b614690565b6113878284614738565b600282018054600091829184918391613baf906001613b79565b81548110613bbf57613bbf614625565b906000526020600020015481526020019081526020016000209050600280811115613bec57613bec614257565b600382015460ff166002811115613c0557613c05614257565b14949350505050565b60018201805460ff191690556119938282613c42565b6000613c30828461474b565b90508281101561103157611031614690565b60005b600283015481101561114257613c9b826000856002018481548110613c6c57613c6c614625565b9060005260206000200154815260200190815260200160002060038101805460ff191690556000600290910155565b600101613c45565b828054828255906000526020600020908101928215613cde579160200282015b82811115613cde578235825591602001919060010190613cc3565b50613cea929150613d5e565b5090565b50805460008255906000526020600020908101906112d09190613d5e565b613d1461475e565b565b8260028101928215613cde579160200282015b82811115613cde57825182546001600160a01b0319166001600160a01b03909116178255602090920191600190910190613d29565b5b80821115613cea5760008155600101613d5f565b6001600160a01b03811681146112d057600080fd5b80151581146112d057600080fd5b600080600080600080600060e0888a031215613db157600080fd5b8735613dbc81613d73565b96506020880135613dcc81613d73565b95506040880135613ddc81613d88565b9450606088013593506080880135925060a0880135915060c088013560028110613e0557600080fd5b8091505092959891949750929550565b600060208284031215613e2757600080fd5b813561138781613d73565b60008060408385031215613e4557600080fd5b8235613e5081613d73565b91506020830135613e6081613d73565b809150509250929050565b60008060008060808587031215613e8157600080fd5b8435613e8c81613d73565b93506020850135613e9c81613d73565b93969395505050506040820135916060013590565b60008060408385031215613ec457600080fd5b50508035926020909101359150565b600080600060608486031215613ee857600080fd5b8335613ef381613d73565b92506020840135613f0381613d73565b929592945050506040919091013590565b80356001600160401b03811681146134c957600080fd5b600060208284031215613f3d57600080fd5b61138782613f14565b600080600060608486031215613f5b57600080fd5b8335613f6681613d73565b92506020840135613f7681613d73565b91506040840135613f8681613d73565b809150509250925092565b60008060008060008060c08789031215613faa57600080fd5b8635613fb581613d73565b95506020870135613fc581613d73565b94506040870135935060608701359250613fe160808801613f14565b915060a087013590509295509295509295565b6000806000806080858703121561400a57600080fd5b843561401581613d73565b9350602085013561402581613d73565b925060408501359150606085013561403c81613d88565b939692955090935050565b60008060008060008060c0878903121561406057600080fd5b863561406b81613d73565b9550602087013561407b81613d73565b9450604087013593506060870135925061409760808801613f14565b915060a08701356140a781613d88565b809150509295509295509295565b6000806000606084860312156140ca57600080fd5b83356140d581613d73565b925060208401356140e581613d73565b91506040840135613f8681613d88565b60008060008060008060008060008060006101608c8e03121561411757600080fd5b8b3561412281613d73565b9a5060208c013561413281613d73565b995061414060408d01613f14565b985061414e60608d01613f14565b975061415c60808d01613f14565b965060a08c0135955060c08c0135945060e08c013593506141806101008d01613f14565b92506101208c013561419181613d73565b91506101408c01356141a281613d73565b809150509295989b509295989b9093969950565b6000806000806000608086880312156141ce57600080fd5b85356141d981613d73565b945060208601356141e981613d73565b93506040860135925060608601356001600160401b038082111561420c57600080fd5b818801915088601f83011261422057600080fd5b81358181111561422f57600080fd5b8960208260051b850101111561424457600080fd5b9699959850939650602001949392505050565b634e487b7160e01b600052602160045260246000fd5b600481106112d0576112d0614257565b6020810161428a8361426d565b91905290565b600080600080600060a086880312156142a857600080fd5b85356142b381613d73565b945060208601356142c381613d73565b935060408601359250606086013591506142df60808701613f14565b90509295509295909350565b6000602082840312156142fd57600080fd5b5035919050565b600080600080600060a0868803121561431c57600080fd5b853561432781613d73565b9450602086013561433781613d73565b9350604086013561434781613d73565b94979396509394606081013594506080013592915050565b60008060006060848603121561437457600080fd5b833561437f81613d73565b9250602084013591506040840135613f8681613d73565b60208082528251828201819052600091906040908185019086840185805b838110156143fa57825185835b60028110156143e75782516001600160a01b0316825291890191908901906001016143c1565b50505093850193918601916001016143b4565b509298975050505050505050565b600080600080600060a0868803121561442057600080fd5b853561442b81613d73565b9450602086013561443b81613d73565b935060408601359250606086013561445281613d88565b91506142df60808701613f14565b60006020808352835180602085015260005b8181101561448e57858101830151858201604001528201614472565b506000604082860101526040601f19601f8301168501019250505092915050565b8781526001600160a01b03871660208201528515156040820152606081018590526080810184905260a0810183905260e08101600283106144f2576144f2614257565b8260c083015298975050505050505050565b6020808252600f908201526e5469636b2069732072756e6e696e6760881b604082015260600190565b60006020828403121561453f57600080fd5b5051919050565b6020808252602e908201527f436f6e747261637420696e7374616e63652068617320616c726561647920626560408201526d195b881a5b9a5d1a585b1a5e995960921b606082015260800190565b60208082526029908201527f6d696e20426c6f636b466f725469636b2073686f756c64206265206c6f776572604082015268040e8d0c2dc40dac2f60bb1b606082015260800190565b602080825260119082015270098d2cccae6e0c2dc40e8dede40d0d2ced607b1b604082015260600190565b60006020828403121561461a57600080fd5b815161138781613d88565b634e487b7160e01b600052603260045260246000fd5b6000806000806080858703121561465157600080fd5b505082516020840151604085015160609095015191969095509092509050565b82815261467d8261426d565b60f89190911b6020820152602101919050565b634e487b7160e01b600052600160045260246000fd5b600080604083850312156146b957600080fd5b505080516020909101519092909150565b600080600080608085870312156146e057600080fd5b84516146eb81613d88565b60208601516040870151606090970151919890975090945092505050565b634e487b7160e01b600052601160045260246000fd5b60006001820161473157614731614709565b5060010190565b8181038181111561103157611031614709565b8082018082111561103157611031614709565b634e487b7160e01b600052605160045260246000fdfe636f6e74726163745f69735f7061757365640000000000000000000000000000a264697066735822122003ec0ff1ed96205b461e88af25a592e6c98eff920c75e30a24261f774432090664736f6c63430008180033",
  "linkReferences": {
    "contracts/libs/MoCExchangeLib.sol": {
      "MoCExchangeLib": [
        {
          "length": 20,
          "start": 2821
        },
        {
          "length": 20,
          "start": 4227
        },
        {
          "length": 20,
          "start": 4766
        },
        {
          "length": 20,
          "start": 5319
        },
        {
          "length": 20,
          "start": 7921
        },
        {
          "length": 20,
          "start": 10073
        },
        {
          "length": 20,
          "start": 10252
        },
        {
          "length": 20,
          "start": 10362
        },
        {
          "length": 20,
          "start": 10468
        },
        {
          "length": 20,
          "start": 10620
        },
        {
          "length": 20,
          "start": 10825
        },
        {
          "length": 20,
          "start": 11147
        },
        {
          "length": 20,
          "start": 11328
        }
      ]
    }
  },
  "deployedLinkReferences": {
    "contracts/libs/MoCExchangeLib.sol": {
      "MoCExchangeLib": [
        {
          "length": 20,
          "start": 2783
        },
        {
          "length": 20,
          "start": 4189
        },
        {
          "length": 20,
          "start": 4728
        },
        {
          "length": 20,
          "start": 5281
        },
        {
          "length": 20,
          "start": 7883
        },
        {
          "length": 20,
          "start": 10035
        },
        {
          "length": 20,
          "start": 10214
        },
        {
          "length": 20,
          "start": 10324
        },
        {
          "length": 20,
          "start": 10430
        },
        {
          "length": 20,
          "start": 10582
        },
        {
          "length": 20,
          "start": 10787
        },
        {
          "length": 20,
          "start": 11109
        },
        {
          "length": 20,
          "start": 11290
        }
      ]
    }
  }
}