{
  "_format": "hh-sol-artifact-1",
  "contractName": "MinOrderAmountChanger",
  "sourceName": "contracts/changers/MinOrderAmountChanger.sol",
  "abi": [
    {
      "inputs": [
        {
          "internalType": "contract RestrictiveOrderListing",
          "name": "_restrictiveOrderListing",
          "type": "address"
        },
        {
          "internalType": "uint256",
          "name": "_minOrderAmount",
          "type": "uint256"
        }
      ],
      "stateMutability": "nonpayable",
      "type": "constructor"
    },
    {
      "inputs": [],
      "name": "execute",
      "outputs": [],
      "stateMutability": "nonpayable",
      "type": "function"
    },
    {
      "inputs": [],
      "name": "minOrderAmount",
      "outputs": [
        {
          "internalType": "uint256",
          "name": "",
          "type": "uint256"
        }
      ],
      "stateMutability": "view",
      "type": "function"
    },
    {
      "inputs": [],
      "name": "restrictiveOrderListing",
      "outputs": [
        {
          "internalType": "contract RestrictiveOrderListing",
          "name": "",
          "type": "address"
        }
      ],
      "stateMutability": "view",
      "type": "function"
    }
  ],
  "bytecode": "0x608060405234801561001057600080fd5b506040516101ca3803806101ca83398101604081905261002f91610058565b600080546001600160a01b0319166001600160a01b039390931692909217909155600155610092565b6000806040838503121561006b57600080fd5b82516001600160a01b038116811461008257600080fd5b6020939093015192949293505050565b610129806100a16000396000f3fe6080604052348015600f57600080fd5b5060043610603c5760003560e01c806346b62c4a1460415780636146195414605c578063b293045e146064575b600080fd5b604960015481565b6040519081526020015b60405180910390f35b6062608d565b005b6000546076906001600160a01b031681565b6040516001600160a01b0390911681526020016053565b6000546001546040516328ee3bc160e21b81526001600160a01b039092169163a3b8ef049160c19160040190815260200190565b600060405180830381600087803b15801560da57600080fd5b505af115801560ed573d6000803e3d6000fd5b5050505056fea264697066735822122010e889db65f29582ad119a191b49d25005395b809c0932d0fdba21a4e9cb941d64736f6c63430008180033",
  "linkReferences": {},
  "deployedLinkReferences": {}
}