{
  "_format": "hh-sol-artifact-1",
  "contractName": "UpgradeDelegator",
  "sourceName": "contracts/Upgradeability/UpgradeDelegator.sol",
  "abi": [
    {
      "inputs": [
        {
          "internalType": "contract IGovernor",
          "name": "newIGovernor",
          "type": "address"
        }
      ],
      "name": "changeIGovernor",
      "outputs": [],
      "stateMutability": "nonpayable",
      "type": "function"
    },
    {
      "inputs": [
        {
          "internalType": "contract AdminUpgradeabilityProxy",
          "name": "proxy",
          "type": "address"
        },
        {
          "internalType": "address",
          "name": "newAdmin",
          "type": "address"
        }
      ],
      "name": "changeProxyAdmin",
      "outputs": [],
      "stateMutability": "nonpayable",
      "type": "function"
    },
    {
      "inputs": [
        {
          "internalType": "contract AdminUpgradeabilityProxy",
          "name": "proxy",
          "type": "address"
        }
      ],
      "name": "getProxyAdmin",
      "outputs": [
        {
          "internalType": "address",
          "name": "",
          "type": "address"
        }
      ],
      "stateMutability": "view",
      "type": "function"
    },
    {
      "inputs": [
        {
          "internalType": "contract AdminUpgradeabilityProxy",
          "name": "proxy",
          "type": "address"
        }
      ],
      "name": "getProxyImplementation",
      "outputs": [
        {
          "internalType": "address",
          "name": "",
          "type": "address"
        }
      ],
      "stateMutability": "view",
      "type": "function"
    },
    {
      "inputs": [],
      "name": "governor",
      "outputs": [
        {
          "internalType": "contract IGovernor",
          "name": "",
          "type": "address"
        }
      ],
      "stateMutability": "view",
      "type": "function"
    },
    {
      "inputs": [
        {
          "internalType": "address",
          "name": "_governor",
          "type": "address"
        },
        {
          "internalType": "contract ProxyAdmin",
          "name": "_proxyAdmin",
          "type": "address"
        }
      ],
      "name": "initialize",
      "outputs": [],
      "stateMutability": "nonpayable",
      "type": "function"
    },
    {
      "inputs": [
        {
          "internalType": "address",
          "name": "_governor",
          "type": "address"
        }
      ],
      "name": "initialize",
      "outputs": [],
      "stateMutability": "nonpayable",
      "type": "function"
    },
    {
      "inputs": [],
      "name": "proxyAdmin",
      "outputs": [
        {
          "internalType": "contract ProxyAdmin",
          "name": "",
          "type": "address"
        }
      ],
      "stateMutability": "view",
      "type": "function"
    },
    {
      "inputs": [
        {
          "internalType": "contract AdminUpgradeabilityProxy",
          "name": "proxy",
          "type": "address"
        },
        {
          "internalType": "address",
          "name": "implementation",
          "type": "address"
        }
      ],
      "name": "upgrade",
      "outputs": [],
      "stateMutability": "nonpayable",
      "type": "function"
    },
    {
      "inputs": [
        {
          "internalType": "contract AdminUpgradeabilityProxy",
          "name": "proxy",
          "type": "address"
        },
        {
          "internalType": "address",
          "name": "implementation",
          "type": "address"
        },
        {
          "internalType": "bytes",
          "name": "data",
          "type": "bytes"
        }
      ],
      "name": "upgradeAndCall",
      "outputs": [],
      "stateMutability": "payable",
      "type": "function"
    }
  ],
  "bytecode": "0x608060405234801561001057600080fd5b50610885806100206000396000f3fe6080604052600436106100915760003560e01c80639623609d116100595780639623609d1461015457806399a88ec414610167578063b6e0833014610187578063c4d66de8146101a7578063f3b7dead146101c757600080fd5b80630c340a2414610096578063204e1c7a146100d25780633e47158c146100f2578063485cc955146101125780637eff275e14610134575b600080fd5b3480156100a257600080fd5b506033546100b6906001600160a01b031681565b6040516001600160a01b03909116815260200160405180910390f35b3480156100de57600080fd5b506100b66100ed3660046105eb565b6101e7565b3480156100fe57600080fd5b506066546100b6906001600160a01b031681565b34801561011e57600080fd5b5061013261012d36600461060f565b61025d565b005b34801561014057600080fd5b5061013261014f36600461060f565b610302565b61013261016236600461065e565b610376565b34801561017357600080fd5b5061013261018236600461060f565b6103e9565b34801561019357600080fd5b506101326101a23660046105eb565b61042b565b3480156101b357600080fd5b506101326101c23660046105eb565b610455565b3480156101d357600080fd5b506100b66101e23660046105eb565b6104e7565b6066546040516310270e3d60e11b81526001600160a01b038381166004830152600092169063204e1c7a906024015b602060405180830381865afa158015610233573d6000803e3d6000fd5b505050506040513d601f19601f820116820180604052508101906102579190610734565b92915050565b600054610100900460ff16806102725750303b155b80610280575060005460ff16155b6102a55760405162461bcd60e51b815260040161029c90610751565b60405180910390fd5b600054610100900460ff161580156102c7576000805461ffff19166101011790555b6102d083610455565b606680546001600160a01b0319166001600160a01b03841617905580156102fd576000805461ff00191690555b505050565b61030a61051a565b606654604051633f7f93af60e11b81526001600160a01b038481166004830152838116602483015290911690637eff275e906044015b600060405180830381600087803b15801561035a57600080fd5b505af115801561036e573d6000803e3d6000fd5b505050505050565b61037e61051a565b606654604051639623609d60e01b81526001600160a01b0390911690639623609d906103b2908690869086906004016107e5565b600060405180830381600087803b1580156103cc57600080fd5b505af11580156103e0573d6000803e3d6000fd5b50505050505050565b6103f161051a565b60665460405163266a23b160e21b81526001600160a01b0384811660048301528381166024830152909116906399a88ec490604401610340565b61043361051a565b603380546001600160a01b0319166001600160a01b0392909216919091179055565b600054610100900460ff168061046a5750303b155b80610478575060005460ff16155b6104945760405162461bcd60e51b815260040161029c90610751565b600054610100900460ff161580156104b6576000805461ffff19166101011790555b603380546001600160a01b0319166001600160a01b03841617905580156104e3576000805461ff00191690555b5050565b60665460405163f3b7dead60e01b81526001600160a01b038381166004830152600092169063f3b7dead90602401610216565b60335460405163d994d6d560e01b81523360048201526001600160a01b039091169063d994d6d590602401602060405180830381865afa158015610562573d6000803e3d6000fd5b505050506040513d601f19601f82011682018060405250810190610586919061081a565b604051806040016040528060168152602001753737ba2fb0baba3437b934bd32b22fb1b430b733b2b960511b815250906105d35760405162461bcd60e51b815260040161029c919061083c565b50565b6001600160a01b03811681146105d357600080fd5b6000602082840312156105fd57600080fd5b8135610608816105d6565b9392505050565b6000806040838503121561062257600080fd5b823561062d816105d6565b9150602083013561063d816105d6565b809150509250929050565b634e487b7160e01b600052604160045260246000fd5b60008060006060848603121561067357600080fd5b833561067e816105d6565b9250602084013561068e816105d6565b9150604084013567ffffffffffffffff808211156106ab57600080fd5b818601915086601f8301126106bf57600080fd5b8135818111156106d1576106d1610648565b604051601f8201601f19908116603f011681019083821181831017156106f9576106f9610648565b8160405282815289602084870101111561071257600080fd5b8260208601602083013760006020848301015280955050505050509250925092565b60006020828403121561074657600080fd5b8151610608816105d6565b6020808252602e908201527f436f6e747261637420696e7374616e63652068617320616c726561647920626560408201526d195b881a5b9a5d1a585b1a5e995960921b606082015260800190565b6000815180845260005b818110156107c5576020818501810151868301820152016107a9565b506000602082860101526020601f19601f83011685010191505092915050565b6001600160a01b038481168252831660208201526060604082018190526000906108119083018461079f565b95945050505050565b60006020828403121561082c57600080fd5b8151801515811461060857600080fd5b602081526000610608602083018461079f56fea26469706673582212202288276b3be4e8429fa24e2a0ec3e9cef76775b28e5ebd2ab4a55fde6a10c16d64736f6c63430008180033",
  "linkReferences": {},
  "deployedLinkReferences": {}
}