{
  "_format": "hh-sol-artifact-1",
  "contractName": "YourInsertOrder",
  "sourceName": "contracts/YourInsertOrder.sol",
  "abi": [
    {
      "inputs": [
        {
          "internalType": "contract MoCDecentralizedExchange",
          "name": "_tex",
          "type": "address"
        },
        {
          "internalType": "address",
          "name": "_base",
          "type": "address"
        },
        {
          "internalType": "address",
          "name": "_secondary",
          "type": "address"
        },
        {
          "internalType": "address",
          "name": "_commissionAddress",
          "type": "address"
        }
      ],
      "stateMutability": "nonpayable",
      "type": "constructor"
    },
    {
      "inputs": [],
      "name": "baseTokenAddress",
      "outputs": [
        {
          "internalType": "address",
          "name": "",
          "type": "address"
        }
      ],
      "stateMutability": "view",
      "type": "function"
    },
    {
      "inputs": [],
      "name": "buyOperations",
      "outputs": [
        {
          "internalType": "uint256",
          "name": "",
          "type": "uint256"
        }
      ],
      "stateMutability": "view",
      "type": "function"
    },
    {
      "inputs": [
        {
          "internalType": "uint256",
          "name": "_amount",
          "type": "uint256"
        }
      ],
      "name": "calcCommissions",
      "outputs": [
        {
          "internalType": "uint256",
          "name": "",
          "type": "uint256"
        }
      ],
      "stateMutability": "pure",
      "type": "function"
    },
    {
      "inputs": [],
      "name": "commissionAddress",
      "outputs": [
        {
          "internalType": "address",
          "name": "",
          "type": "address"
        }
      ],
      "stateMutability": "view",
      "type": "function"
    },
    {
      "inputs": [],
      "name": "secondaryTokenAddress",
      "outputs": [
        {
          "internalType": "address",
          "name": "",
          "type": "address"
        }
      ],
      "stateMutability": "view",
      "type": "function"
    },
    {
      "inputs": [
        {
          "internalType": "address",
          "name": "_tokenAddress",
          "type": "address"
        },
        {
          "internalType": "uint256",
          "name": "_amount",
          "type": "uint256"
        }
      ],
      "name": "setAllowance",
      "outputs": [],
      "stateMutability": "nonpayable",
      "type": "function"
    },
    {
      "inputs": [],
      "name": "tex",
      "outputs": [
        {
          "internalType": "contract MoCDecentralizedExchange",
          "name": "",
          "type": "address"
        }
      ],
      "stateMutability": "view",
      "type": "function"
    },
    {
      "inputs": [],
      "name": "totalAmountOfBuyWithoutCommissions",
      "outputs": [
        {
          "internalType": "uint256",
          "name": "",
          "type": "uint256"
        }
      ],
      "stateMutability": "view",
      "type": "function"
    },
    {
      "inputs": [
        {
          "internalType": "uint256",
          "name": "_amount",
          "type": "uint256"
        },
        {
          "internalType": "uint256",
          "name": "_price",
          "type": "uint256"
        },
        {
          "internalType": "uint64",
          "name": "_lifespan",
          "type": "uint64"
        }
      ],
      "name": "yourInsertBuyOrderFirst",
      "outputs": [],
      "stateMutability": "nonpayable",
      "type": "function"
    }
  ],
  "bytecode": "0x60806040526000600455600060055534801561001a57600080fd5b5060405161077c38038061077c833981016040819052610039916100a4565b600080546001600160a01b039586166001600160a01b0319918216179091556001805494861694821694909417909355600280549285169284169290921790915560038054919093169116179055610103565b6001600160a01b03811681146100a157600080fd5b50565b600080600080608085870312156100ba57600080fd5b84516100c58161008c565b60208601519094506100d68161008c565b60408601519093506100e78161008c565b60608601519092506100f88161008c565b939692955090935050565b61066a806101126000396000f3fe608060405234801561001057600080fd5b50600436106100935760003560e01c8063931742d311610066578063931742d31461010757806396a369261461011a578063b94662be1461012d578063be9e16a614610136578063d695f11d1461014957600080fd5b8063310ec4a7146100985780634dfc3b0f146100ad5780634e243db2146100dd5780637cb374bd146100f4575b600080fd5b6100ab6100a63660046104ee565b61015c565b005b6000546100c0906001600160a01b031681565b6040516001600160a01b0390911681526020015b60405180910390f35b6100e660045481565b6040519081526020016100d4565b6001546100c0906001600160a01b031681565b6003546100c0906001600160a01b031681565b6002546100c0906001600160a01b031681565b6100e660055481565b6100e6610144366004610526565b610224565b6100ab61015736600461053f565b610237565b6000805460405163095ea7b360e01b81526001600160a01b0391821660048201526024810184905284929183169063095ea7b3906044016020604051808303816000875af11580156101b2573d6000803e3d6000fd5b505050506040513d601f19601f820116820180604052508101906101d69190610585565b90508061021e5760405162461bcd60e51b8152602060048201526011602482015270417070726f76616c206e6f7420646f6e6560781b60448201526064015b60405180910390fd5b50505050565b60006102318260646104a1565b92915050565b60015460008054604051636eb1769f60e11b81523360048201526001600160a01b039182166024820152921691829063dd62ed3e90604401602060405180830381865afa15801561028c573d6000803e3d6000fd5b505050506040513d601f19601f820116820180604052508101906102b091906105a7565b116102fd5760405162461bcd60e51b815260206004820152601c60248201527f4261736520746f6b656e20776974686f757420616c6c6f77616e6365000000006044820152606401610215565b600061030885610224565b60035460405163a9059cbb60e01b81526001600160a01b039182166004820152602481018390529192506000919084169063a9059cbb906044016020604051808303816000875af1158015610361573d6000803e3d6000fd5b505050506040513d601f19601f820116820180604052508101906103859190610585565b9050806103d45760405162461bcd60e51b815260206004820152601a60248201527f436f6d6d697373696f6e207472616e73666572206661696c65640000000000006044820152606401610215565b6000546001546002546001600160a01b039283169263a268e21292811691166103fd8a876104b4565b6040516001600160e01b031960e086901b1681526001600160a01b03938416600482015292909116602483015260448201526064810188905267ffffffffffffffff8716608482015260a401600060405180830381600087803b15801561046357600080fd5b505af1158015610477573d6000803e3d6000fd5b505060055461048992509050876104d0565b506004546104989060016104d0565b50505050505050565b60006104ad82846105d6565b9392505050565b6000828211156104c6576104c66105f8565b6104ad828461060e565b60006104dc8284610621565b905082811015610231576102316105f8565b6000806040838503121561050157600080fd5b82356001600160a01b038116811461051857600080fd5b946020939093013593505050565b60006020828403121561053857600080fd5b5035919050565b60008060006060848603121561055457600080fd5b8335925060208401359150604084013567ffffffffffffffff8116811461057a57600080fd5b809150509250925092565b60006020828403121561059757600080fd5b815180151581146104ad57600080fd5b6000602082840312156105b957600080fd5b5051919050565b634e487b7160e01b600052601160045260246000fd5b6000826105f357634e487b7160e01b600052601260045260246000fd5b500490565b634e487b7160e01b600052600160045260246000fd5b81810381811115610231576102316105c0565b80820180821115610231576102316105c056fea2646970667358221220d9e0e20900327d0108439358391eefdf86379281a90ca91a276cfa0cf3bcc72f64736f6c63430008180033",
  "linkReferences": {},
  "deployedLinkReferences": {}
}