{
  "_format": "hh-sol-artifact-1",
  "contractName": "MoCDecentralizedExchange",
  "sourceName": "contracts/MoCDecentralizedExchange.sol",
  "abi": [
    {
      "inputs": [],
      "name": "ReentrancyGuardReentrantCall",
      "type": "error"
    },
    {
      "anonymous": false,
      "inputs": [
        {
          "indexed": true,
          "internalType": "uint256",
          "name": "orderId",
          "type": "uint256"
        },
        {
          "indexed": false,
          "internalType": "uint256",
          "name": "amountSent",
          "type": "uint256"
        },
        {
          "indexed": false,
          "internalType": "uint256",
          "name": "commission",
          "type": "uint256"
        },
        {
          "indexed": false,
          "internalType": "uint256",
          "name": "change",
          "type": "uint256"
        },
        {
          "indexed": false,
          "internalType": "uint256",
          "name": "received",
          "type": "uint256"
        },
        {
          "indexed": false,
          "internalType": "uint256",
          "name": "remainingAmount",
          "type": "uint256"
        },
        {
          "indexed": false,
          "internalType": "uint256",
          "name": "matchPrice",
          "type": "uint256"
        },
        {
          "indexed": false,
          "internalType": "uint64",
          "name": "tickNumber",
          "type": "uint64"
        }
      ],
      "name": "BuyerMatch",
      "type": "event"
    },
    {
      "anonymous": false,
      "inputs": [
        {
          "indexed": true,
          "internalType": "uint256",
          "name": "orderId",
          "type": "uint256"
        },
        {
          "indexed": true,
          "internalType": "address",
          "name": "owner",
          "type": "address"
        },
        {
          "indexed": false,
          "internalType": "uint256",
          "name": "returnedAmount",
          "type": "uint256"
        },
        {
          "indexed": false,
          "internalType": "uint256",
          "name": "commission",
          "type": "uint256"
        },
        {
          "indexed": false,
          "internalType": "uint256",
          "name": "returnedCommission",
          "type": "uint256"
        }
      ],
      "name": "ExpiredOrderProcessed",
      "type": "event"
    },
    {
      "anonymous": false,
      "inputs": [
        {
          "indexed": true,
          "internalType": "uint256",
          "name": "id",
          "type": "uint256"
        },
        {
          "indexed": false,
          "internalType": "uint256",
          "name": "notIndexedArgumentSoTheThingDoesntBreak",
          "type": "uint256"
        }
      ],
      "name": "NewOrderAddedToPendingQueue",
      "type": "event"
    },
    {
      "anonymous": false,
      "inputs": [
        {
          "indexed": true,
          "internalType": "uint256",
          "name": "id",
          "type": "uint256"
        },
        {
          "indexed": true,
          "internalType": "address",
          "name": "sender",
          "type": "address"
        },
        {
          "indexed": false,
          "internalType": "address",
          "name": "baseTokenAddress",
          "type": "address"
        },
        {
          "indexed": false,
          "internalType": "address",
          "name": "secondaryTokenAddress",
          "type": "address"
        },
        {
          "indexed": false,
          "internalType": "uint256",
          "name": "exchangeableAmount",
          "type": "uint256"
        },
        {
          "indexed": false,
          "internalType": "uint256",
          "name": "reservedCommission",
          "type": "uint256"
        },
        {
          "indexed": false,
          "internalType": "uint256",
          "name": "price",
          "type": "uint256"
        },
        {
          "indexed": false,
          "internalType": "uint256",
          "name": "multiplyFactor",
          "type": "uint256"
        },
        {
          "indexed": false,
          "internalType": "uint64",
          "name": "expiresInTick",
          "type": "uint64"
        },
        {
          "indexed": false,
          "internalType": "bool",
          "name": "isBuy",
          "type": "bool"
        },
        {
          "indexed": false,
          "internalType": "enum MoCExchangeLib.OrderType",
          "name": "orderType",
          "type": "uint8"
        }
      ],
      "name": "NewOrderInserted",
      "type": "event"
    },
    {
      "anonymous": false,
      "inputs": [
        {
          "indexed": true,
          "internalType": "uint256",
          "name": "id",
          "type": "uint256"
        },
        {
          "indexed": true,
          "internalType": "address",
          "name": "sender",
          "type": "address"
        },
        {
          "indexed": false,
          "internalType": "uint256",
          "name": "returnedAmount",
          "type": "uint256"
        },
        {
          "indexed": false,
          "internalType": "uint256",
          "name": "commission",
          "type": "uint256"
        },
        {
          "indexed": false,
          "internalType": "uint256",
          "name": "returnedCommission",
          "type": "uint256"
        },
        {
          "indexed": false,
          "internalType": "bool",
          "name": "isBuy",
          "type": "bool"
        }
      ],
      "name": "OrderCancelled",
      "type": "event"
    },
    {
      "anonymous": false,
      "inputs": [
        {
          "indexed": false,
          "internalType": "address",
          "name": "account",
          "type": "address"
        }
      ],
      "name": "Paused",
      "type": "event"
    },
    {
      "anonymous": false,
      "inputs": [
        {
          "indexed": true,
          "internalType": "uint256",
          "name": "orderId",
          "type": "uint256"
        },
        {
          "indexed": false,
          "internalType": "uint256",
          "name": "amountSent",
          "type": "uint256"
        },
        {
          "indexed": false,
          "internalType": "uint256",
          "name": "commission",
          "type": "uint256"
        },
        {
          "indexed": false,
          "internalType": "uint256",
          "name": "received",
          "type": "uint256"
        },
        {
          "indexed": false,
          "internalType": "uint256",
          "name": "surplus",
          "type": "uint256"
        },
        {
          "indexed": false,
          "internalType": "uint256",
          "name": "remainingAmount",
          "type": "uint256"
        },
        {
          "indexed": false,
          "internalType": "uint256",
          "name": "matchPrice",
          "type": "uint256"
        },
        {
          "indexed": false,
          "internalType": "uint64",
          "name": "tickNumber",
          "type": "uint64"
        }
      ],
      "name": "SellerMatch",
      "type": "event"
    },
    {
      "anonymous": false,
      "inputs": [
        {
          "indexed": true,
          "internalType": "address",
          "name": "baseTokenAddress",
          "type": "address"
        },
        {
          "indexed": true,
          "internalType": "address",
          "name": "secondaryTokenAddress",
          "type": "address"
        },
        {
          "indexed": true,
          "internalType": "uint64",
          "name": "number",
          "type": "uint64"
        },
        {
          "indexed": false,
          "internalType": "uint256",
          "name": "nextTickBlock",
          "type": "uint256"
        },
        {
          "indexed": false,
          "internalType": "uint256",
          "name": "closingPrice",
          "type": "uint256"
        }
      ],
      "name": "TickEnd",
      "type": "event"
    },
    {
      "anonymous": false,
      "inputs": [
        {
          "indexed": true,
          "internalType": "address",
          "name": "baseTokenAddress",
          "type": "address"
        },
        {
          "indexed": true,
          "internalType": "address",
          "name": "secondaryTokenAddress",
          "type": "address"
        },
        {
          "indexed": false,
          "internalType": "uint64",
          "name": "number",
          "type": "uint64"
        }
      ],
      "name": "TickStart",
      "type": "event"
    },
    {
      "anonymous": false,
      "inputs": [
        {
          "indexed": false,
          "internalType": "address",
          "name": "baseToken",
          "type": "address"
        },
        {
          "indexed": false,
          "internalType": "address",
          "name": "secondaryToken",
          "type": "address"
        }
      ],
      "name": "TokenPairDisabled",
      "type": "event"
    },
    {
      "anonymous": false,
      "inputs": [
        {
          "indexed": false,
          "internalType": "address",
          "name": "baseToken",
          "type": "address"
        },
        {
          "indexed": false,
          "internalType": "address",
          "name": "secondaryToken",
          "type": "address"
        }
      ],
      "name": "TokenPairEnabled",
      "type": "event"
    },
    {
      "anonymous": false,
      "inputs": [
        {
          "indexed": true,
          "internalType": "address",
          "name": "_tokenAddress",
          "type": "address"
        },
        {
          "indexed": true,
          "internalType": "address",
          "name": "_to",
          "type": "address"
        },
        {
          "indexed": false,
          "internalType": "uint256",
          "name": "_amount",
          "type": "uint256"
        },
        {
          "indexed": false,
          "internalType": "bool",
          "name": "_isRevert",
          "type": "bool"
        }
      ],
      "name": "TransferFailed",
      "type": "event"
    },
    {
      "anonymous": false,
      "inputs": [
        {
          "indexed": false,
          "internalType": "address",
          "name": "account",
          "type": "address"
        }
      ],
      "name": "Unpaused",
      "type": "event"
    },
    {
      "inputs": [],
      "name": "PRECISION_SMOOTHING_FACTOR",
      "outputs": [
        {
          "internalType": "uint256",
          "name": "",
          "type": "uint256"
        }
      ],
      "stateMutability": "view",
      "type": "function"
    },
    {
      "inputs": [],
      "name": "SMOOTHING_FACTOR",
      "outputs": [
        {
          "internalType": "uint256",
          "name": "",
          "type": "uint256"
        }
      ],
      "stateMutability": "view",
      "type": "function"
    },
    {
      "inputs": [
        {
          "internalType": "address",
          "name": "_baseToken",
          "type": "address"
        },
        {
          "internalType": "address",
          "name": "_secondaryToken",
          "type": "address"
        },
        {
          "internalType": "address",
          "name": "_priceProvider",
          "type": "address"
        },
        {
          "internalType": "uint256",
          "name": "_priceComparisonPrecision",
          "type": "uint256"
        },
        {
          "internalType": "uint256",
          "name": "_initialPrice",
          "type": "uint256"
        }
      ],
      "name": "addTokenPair",
      "outputs": [],
      "stateMutability": "nonpayable",
      "type": "function"
    },
    {
      "inputs": [
        {
          "internalType": "address",
          "name": "_baseToken",
          "type": "address"
        },
        {
          "internalType": "address",
          "name": "_secondaryToken",
          "type": "address"
        },
        {
          "internalType": "bool",
          "name": "_evaluateBuyOrders",
          "type": "bool"
        }
      ],
      "name": "areOrdersToExpire",
      "outputs": [
        {
          "internalType": "bool",
          "name": "",
          "type": "bool"
        }
      ],
      "stateMutability": "view",
      "type": "function"
    },
    {
      "inputs": [
        {
          "internalType": "address",
          "name": "_baseToken",
          "type": "address"
        },
        {
          "internalType": "address",
          "name": "_secondaryToken",
          "type": "address"
        }
      ],
      "name": "buyOrdersLength",
      "outputs": [
        {
          "internalType": "uint256",
          "name": "",
          "type": "uint256"
        }
      ],
      "stateMutability": "view",
      "type": "function"
    },
    {
      "inputs": [
        {
          "internalType": "address",
          "name": "_baseToken",
          "type": "address"
        },
        {
          "internalType": "address",
          "name": "_secondaryToken",
          "type": "address"
        },
        {
          "internalType": "uint256",
          "name": "_orderId",
          "type": "uint256"
        },
        {
          "internalType": "uint256",
          "name": "_previousOrderIdHint",
          "type": "uint256"
        }
      ],
      "name": "cancelBuyOrder",
      "outputs": [],
      "stateMutability": "nonpayable",
      "type": "function"
    },
    {
      "inputs": [
        {
          "internalType": "address",
          "name": "_baseToken",
          "type": "address"
        },
        {
          "internalType": "address",
          "name": "_secondaryToken",
          "type": "address"
        },
        {
          "internalType": "uint256",
          "name": "_orderId",
          "type": "uint256"
        },
        {
          "internalType": "uint256",
          "name": "_previousOrderIdHint",
          "type": "uint256"
        }
      ],
      "name": "cancelSellOrder",
      "outputs": [],
      "stateMutability": "nonpayable",
      "type": "function"
    },
    {
      "inputs": [
        {
          "internalType": "contract IGovernor",
          "name": "newIGovernor",
          "type": "address"
        }
      ],
      "name": "changeIGovernor",
      "outputs": [],
      "stateMutability": "nonpayable",
      "type": "function"
    },
    {
      "inputs": [],
      "name": "commissionManager",
      "outputs": [
        {
          "internalType": "contract CommissionManager",
          "name": "",
          "type": "address"
        }
      ],
      "stateMutability": "view",
      "type": "function"
    },
    {
      "inputs": [
        {
          "internalType": "address",
          "name": "_tokenAddress",
          "type": "address"
        },
        {
          "internalType": "uint256",
          "name": "_amount",
          "type": "uint256"
        },
        {
          "internalType": "address",
          "name": "_baseAddress",
          "type": "address"
        }
      ],
      "name": "convertTokenToCommonBase",
      "outputs": [
        {
          "internalType": "uint256",
          "name": "convertedAmount",
          "type": "uint256"
        }
      ],
      "stateMutability": "view",
      "type": "function"
    },
    {
      "inputs": [
        {
          "internalType": "address",
          "name": "_baseToken",
          "type": "address"
        },
        {
          "internalType": "address",
          "name": "_secondaryToken",
          "type": "address"
        }
      ],
      "name": "disableTokenPair",
      "outputs": [],
      "stateMutability": "nonpayable",
      "type": "function"
    },
    {
      "inputs": [
        {
          "internalType": "address",
          "name": "_baseToken",
          "type": "address"
        },
        {
          "internalType": "address",
          "name": "_secondaryToken",
          "type": "address"
        }
      ],
      "name": "enableTokenPair",
      "outputs": [],
      "stateMutability": "nonpayable",
      "type": "function"
    },
    {
      "inputs": [
        {
          "internalType": "address",
          "name": "_baseToken",
          "type": "address"
        },
        {
          "internalType": "address",
          "name": "_secondaryToken",
          "type": "address"
        }
      ],
      "name": "getEmergentPrice",
      "outputs": [
        {
          "internalType": "uint256",
          "name": "emergentPrice",
          "type": "uint256"
        },
        {
          "internalType": "uint256",
          "name": "lastBuyMatchId",
          "type": "uint256"
        },
        {
          "internalType": "uint256",
          "name": "lastBuyMatchAmount",
          "type": "uint256"
        },
        {
          "internalType": "uint256",
          "name": "lastSellMatchId",
          "type": "uint256"
        }
      ],
      "stateMutability": "view",
      "type": "function"
    },
    {
      "inputs": [
        {
          "internalType": "address",
          "name": "_baseToken",
          "type": "address"
        },
        {
          "internalType": "address",
          "name": "_secondaryToken",
          "type": "address"
        }
      ],
      "name": "getLastClosingPrice",
      "outputs": [
        {
          "internalType": "uint256",
          "name": "lastClosingPrice",
          "type": "uint256"
        }
      ],
      "stateMutability": "view",
      "type": "function"
    },
    {
      "inputs": [
        {
          "internalType": "address",
          "name": "_baseToken",
          "type": "address"
        },
        {
          "internalType": "address",
          "name": "_secondaryToken",
          "type": "address"
        }
      ],
      "name": "getMarketPrice",
      "outputs": [
        {
          "internalType": "uint256",
          "name": "",
          "type": "uint256"
        }
      ],
      "stateMutability": "view",
      "type": "function"
    },
    {
      "inputs": [
        {
          "internalType": "address",
          "name": "_baseToken",
          "type": "address"
        },
        {
          "internalType": "address",
          "name": "_secondaryToken",
          "type": "address"
        }
      ],
      "name": "getNextTick",
      "outputs": [
        {
          "internalType": "uint64",
          "name": "tickNumber",
          "type": "uint64"
        },
        {
          "internalType": "uint256",
          "name": "nextTickBlock",
          "type": "uint256"
        },
        {
          "internalType": "uint256",
          "name": "lastTickBlock",
          "type": "uint256"
        }
      ],
      "stateMutability": "view",
      "type": "function"
    },
    {
      "inputs": [
        {
          "internalType": "address",
          "name": "_baseToken",
          "type": "address"
        },
        {
          "internalType": "address",
          "name": "_secondaryToken",
          "type": "address"
        }
      ],
      "name": "getPriceProvider",
      "outputs": [
        {
          "internalType": "address",
          "name": "",
          "type": "address"
        }
      ],
      "stateMutability": "view",
      "type": "function"
    },
    {
      "inputs": [
        {
          "internalType": "address",
          "name": "_baseToken",
          "type": "address"
        },
        {
          "internalType": "address",
          "name": "_secondaryToken",
          "type": "address"
        }
      ],
      "name": "getTickStage",
      "outputs": [
        {
          "internalType": "enum MoCExchangeLib.TickStage",
          "name": "stage",
          "type": "uint8"
        }
      ],
      "stateMutability": "view",
      "type": "function"
    },
    {
      "inputs": [
        {
          "internalType": "address",
          "name": "_baseToken",
          "type": "address"
        },
        {
          "internalType": "address",
          "name": "_secondaryToken",
          "type": "address"
        }
      ],
      "name": "getTokenPairStatus",
      "outputs": [
        {
          "internalType": "uint256",
          "name": "emergentPrice",
          "type": "uint256"
        },
        {
          "internalType": "uint256",
          "name": "lastBuyMatchId",
          "type": "uint256"
        },
        {
          "internalType": "uint256",
          "name": "lastBuyMatchAmount",
          "type": "uint256"
        },
        {
          "internalType": "uint256",
          "name": "lastSellMatchId",
          "type": "uint256"
        },
        {
          "internalType": "uint64",
          "name": "tickNumber",
          "type": "uint64"
        },
        {
          "internalType": "uint256",
          "name": "nextTickBlock",
          "type": "uint256"
        },
        {
          "internalType": "uint256",
          "name": "lastTickBlock",
          "type": "uint256"
        },
        {
          "internalType": "uint256",
          "name": "lastClosingPrice",
          "type": "uint256"
        },
        {
          "internalType": "bool",
          "name": "disabled",
          "type": "bool"
        },
        {
          "internalType": "uint256",
          "name": "emaPrice",
          "type": "uint256"
        },
        {
          "internalType": "uint256",
          "name": "smoothingFactor",
          "type": "uint256"
        },
        {
          "internalType": "uint256",
          "name": "marketPrice",
          "type": "uint256"
        }
      ],
      "stateMutability": "view",
      "type": "function"
    },
    {
      "inputs": [],
      "name": "getTokenPairs",
      "outputs": [
        {
          "internalType": "address[2][]",
          "name": "",
          "type": "address[2][]"
        }
      ],
      "stateMutability": "view",
      "type": "function"
    },
    {
      "inputs": [],
      "name": "governor",
      "outputs": [
        {
          "internalType": "contract IGovernor",
          "name": "",
          "type": "address"
        }
      ],
      "stateMutability": "view",
      "type": "function"
    },
    {
      "inputs": [
        {
          "internalType": "address",
          "name": "_baseToken",
          "type": "address"
        },
        {
          "internalType": "address",
          "name": "_secondaryToken",
          "type": "address"
        }
      ],
      "name": "hashAddresses",
      "outputs": [
        {
          "internalType": "bytes32",
          "name": "",
          "type": "bytes32"
        }
      ],
      "stateMutability": "pure",
      "type": "function"
    },
    {
      "inputs": [
        {
          "internalType": "address",
          "name": "_stopper",
          "type": "address"
        },
        {
          "internalType": "address",
          "name": "_governor",
          "type": "address"
        }
      ],
      "name": "initialize",
      "outputs": [],
      "stateMutability": "nonpayable",
      "type": "function"
    },
    {
      "inputs": [
        {
          "internalType": "address",
          "name": "_commonBaseTokenAddress",
          "type": "address"
        },
        {
          "internalType": "contract CommissionManager",
          "name": "_commissionManager",
          "type": "address"
        },
        {
          "internalType": "uint64",
          "name": "_expectedOrdersForTick",
          "type": "uint64"
        },
        {
          "internalType": "uint64",
          "name": "_maxBlocksForTick",
          "type": "uint64"
        },
        {
          "internalType": "uint64",
          "name": "_minBlocksForTick",
          "type": "uint64"
        },
        {
          "internalType": "uint256",
          "name": "_minOrderAmount",
          "type": "uint256"
        },
        {
          "internalType": "uint256",
          "name": "_minMultiplyFactor",
          "type": "uint256"
        },
        {
          "internalType": "uint256",
          "name": "_maxMultiplyFactor",
          "type": "uint256"
        },
        {
          "internalType": "uint64",
          "name": "_maxOrderLifespan",
          "type": "uint64"
        },
        {
          "internalType": "address",
          "name": "_governor",
          "type": "address"
        },
        {
          "internalType": "address",
          "name": "_stopper",
          "type": "address"
        }
      ],
      "name": "initialize",
      "outputs": [],
      "stateMutability": "nonpayable",
      "type": "function"
    },
    {
      "inputs": [
        {
          "internalType": "address",
          "name": "_governor",
          "type": "address"
        }
      ],
      "name": "initialize",
      "outputs": [],
      "stateMutability": "nonpayable",
      "type": "function"
    },
    {
      "inputs": [
        {
          "internalType": "address",
          "name": "_stopper",
          "type": "address"
        },
        {
          "internalType": "address",
          "name": "_governor",
          "type": "address"
        },
        {
          "internalType": "bool",
          "name": "_stoppable",
          "type": "bool"
        }
      ],
      "name": "initialize",
      "outputs": [],
      "stateMutability": "nonpayable",
      "type": "function"
    },
    {
      "inputs": [
        {
          "internalType": "address",
          "name": "_baseToken",
          "type": "address"
        },
        {
          "internalType": "address",
          "name": "_secondaryToken",
          "type": "address"
        },
        {
          "internalType": "uint256",
          "name": "_amount",
          "type": "uint256"
        },
        {
          "internalType": "uint256",
          "name": "_price",
          "type": "uint256"
        },
        {
          "internalType": "uint64",
          "name": "_lifespan",
          "type": "uint64"
        }
      ],
      "name": "insertBuyLimitOrder",
      "outputs": [],
      "stateMutability": "nonpayable",
      "type": "function"
    },
    {
      "inputs": [
        {
          "internalType": "address",
          "name": "_baseToken",
          "type": "address"
        },
        {
          "internalType": "address",
          "name": "_secondaryToken",
          "type": "address"
        },
        {
          "internalType": "uint256",
          "name": "_amount",
          "type": "uint256"
        },
        {
          "internalType": "uint256",
          "name": "_price",
          "type": "uint256"
        },
        {
          "internalType": "uint64",
          "name": "_lifespan",
          "type": "uint64"
        },
        {
          "internalType": "uint256",
          "name": "_previousOrderIdHint",
          "type": "uint256"
        }
      ],
      "name": "insertBuyLimitOrderAfter",
      "outputs": [],
      "stateMutability": "nonpayable",
      "type": "function"
    },
    {
      "inputs": [
        {
          "internalType": "address",
          "name": "_baseToken",
          "type": "address"
        },
        {
          "internalType": "address",
          "name": "_secondaryToken",
          "type": "address"
        },
        {
          "internalType": "uint256",
          "name": "_amount",
          "type": "uint256"
        },
        {
          "internalType": "uint256",
          "name": "_multiplyFactor",
          "type": "uint256"
        },
        {
          "internalType": "uint64",
          "name": "_lifespan",
          "type": "uint64"
        },
        {
          "internalType": "bool",
          "name": "_isBuy",
          "type": "bool"
        }
      ],
      "name": "insertMarketOrder",
      "outputs": [],
      "stateMutability": "nonpayable",
      "type": "function"
    },
    {
      "inputs": [
        {
          "internalType": "address",
          "name": "_baseToken",
          "type": "address"
        },
        {
          "internalType": "address",
          "name": "_secondaryToken",
          "type": "address"
        },
        {
          "internalType": "uint256",
          "name": "_amount",
          "type": "uint256"
        },
        {
          "internalType": "uint256",
          "name": "_price",
          "type": "uint256"
        },
        {
          "internalType": "uint64",
          "name": "_lifespan",
          "type": "uint64"
        }
      ],
      "name": "insertSellLimitOrder",
      "outputs": [],
      "stateMutability": "nonpayable",
      "type": "function"
    },
    {
      "inputs": [
        {
          "internalType": "address",
          "name": "_baseToken",
          "type": "address"
        },
        {
          "internalType": "address",
          "name": "_secondaryToken",
          "type": "address"
        },
        {
          "internalType": "uint256",
          "name": "_amount",
          "type": "uint256"
        },
        {
          "internalType": "uint256",
          "name": "_price",
          "type": "uint256"
        },
        {
          "internalType": "uint64",
          "name": "_lifespan",
          "type": "uint64"
        },
        {
          "internalType": "uint256",
          "name": "_previousOrderIdHint",
          "type": "uint256"
        }
      ],
      "name": "insertSellLimitOrderAfter",
      "outputs": [],
      "stateMutability": "nonpayable",
      "type": "function"
    },
    {
      "inputs": [],
      "name": "makeStoppable",
      "outputs": [],
      "stateMutability": "nonpayable",
      "type": "function"
    },
    {
      "inputs": [],
      "name": "makeUnstoppable",
      "outputs": [],
      "stateMutability": "nonpayable",
      "type": "function"
    },
    {
      "inputs": [
        {
          "internalType": "address",
          "name": "_baseToken",
          "type": "address"
        },
        {
          "internalType": "address",
          "name": "_secondaryToken",
          "type": "address"
        },
        {
          "internalType": "uint256",
          "name": "steps",
          "type": "uint256"
        }
      ],
      "name": "matchOrders",
      "outputs": [],
      "stateMutability": "nonpayable",
      "type": "function"
    },
    {
      "inputs": [
        {
          "internalType": "address",
          "name": "_baseToken",
          "type": "address"
        },
        {
          "internalType": "address",
          "name": "_secondaryToken",
          "type": "address"
        },
        {
          "internalType": "uint256",
          "name": "steps",
          "type": "uint256"
        },
        {
          "internalType": "uint256[]",
          "name": "hintIds",
          "type": "uint256[]"
        }
      ],
      "name": "matchOrdersWithHints",
      "outputs": [],
      "stateMutability": "nonpayable",
      "type": "function"
    },
    {
      "inputs": [],
      "name": "maxMultiplyFactor",
      "outputs": [
        {
          "internalType": "uint256",
          "name": "",
          "type": "uint256"
        }
      ],
      "stateMutability": "view",
      "type": "function"
    },
    {
      "inputs": [],
      "name": "maxOrderLifespan",
      "outputs": [
        {
          "internalType": "uint64",
          "name": "",
          "type": "uint64"
        }
      ],
      "stateMutability": "view",
      "type": "function"
    },
    {
      "inputs": [],
      "name": "minMultiplyFactor",
      "outputs": [
        {
          "internalType": "uint256",
          "name": "",
          "type": "uint256"
        }
      ],
      "stateMutability": "view",
      "type": "function"
    },
    {
      "inputs": [],
      "name": "minOrderAmount",
      "outputs": [
        {
          "internalType": "uint256",
          "name": "",
          "type": "uint256"
        }
      ],
      "stateMutability": "view",
      "type": "function"
    },
    {
      "inputs": [],
      "name": "pause",
      "outputs": [],
      "stateMutability": "nonpayable",
      "type": "function"
    },
    {
      "inputs": [],
      "name": "paused",
      "outputs": [
        {
          "internalType": "bool",
          "name": "",
          "type": "bool"
        }
      ],
      "stateMutability": "view",
      "type": "function"
    },
    {
      "inputs": [
        {
          "internalType": "address",
          "name": "_baseToken",
          "type": "address"
        },
        {
          "internalType": "address",
          "name": "_secondaryToken",
          "type": "address"
        }
      ],
      "name": "pendingBuyOrdersLength",
      "outputs": [
        {
          "internalType": "uint256",
          "name": "",
          "type": "uint256"
        }
      ],
      "stateMutability": "view",
      "type": "function"
    },
    {
      "inputs": [
        {
          "internalType": "address",
          "name": "_baseToken",
          "type": "address"
        },
        {
          "internalType": "address",
          "name": "_secondaryToken",
          "type": "address"
        },
        {
          "internalType": "bool",
          "name": "_isBuy",
          "type": "bool"
        }
      ],
      "name": "pendingMarketOrdersLength",
      "outputs": [
        {
          "internalType": "uint256",
          "name": "",
          "type": "uint256"
        }
      ],
      "stateMutability": "view",
      "type": "function"
    },
    {
      "inputs": [
        {
          "internalType": "address",
          "name": "_baseToken",
          "type": "address"
        },
        {
          "internalType": "address",
          "name": "_secondaryToken",
          "type": "address"
        }
      ],
      "name": "pendingSellOrdersLength",
      "outputs": [
        {
          "internalType": "uint256",
          "name": "",
          "type": "uint256"
        }
      ],
      "stateMutability": "view",
      "type": "function"
    },
    {
      "inputs": [
        {
          "internalType": "address",
          "name": "_baseToken",
          "type": "address"
        },
        {
          "internalType": "address",
          "name": "_secondaryToken",
          "type": "address"
        },
        {
          "internalType": "bool",
          "name": "_evaluateBuyOrders",
          "type": "bool"
        },
        {
          "internalType": "uint256",
          "name": "_orderId",
          "type": "uint256"
        },
        {
          "internalType": "uint256",
          "name": "_previousOrderIdHint",
          "type": "uint256"
        },
        {
          "internalType": "uint256",
          "name": "_steps",
          "type": "uint256"
        },
        {
          "internalType": "enum MoCExchangeLib.OrderType",
          "name": "_orderType",
          "type": "uint8"
        }
      ],
      "name": "processExpired",
      "outputs": [],
      "stateMutability": "nonpayable",
      "type": "function"
    },
    {
      "inputs": [
        {
          "internalType": "address",
          "name": "_baseToken",
          "type": "address"
        },
        {
          "internalType": "address",
          "name": "_secondaryToken",
          "type": "address"
        }
      ],
      "name": "sellOrdersLength",
      "outputs": [
        {
          "internalType": "uint256",
          "name": "",
          "type": "uint256"
        }
      ],
      "stateMutability": "view",
      "type": "function"
    },
    {
      "inputs": [
        {
          "internalType": "uint64",
          "name": "_expectedOrdersForTick",
          "type": "uint64"
        }
      ],
      "name": "setExpectedOrdersForTick",
      "outputs": [],
      "stateMutability": "nonpayable",
      "type": "function"
    },
    {
      "inputs": [
        {
          "internalType": "address",
          "name": "_baseToken",
          "type": "address"
        },
        {
          "internalType": "address",
          "name": "_secondaryToken",
          "type": "address"
        },
        {
          "internalType": "uint256",
          "name": "_price",
          "type": "uint256"
        }
      ],
      "name": "setLastClosingPrice",
      "outputs": [],
      "stateMutability": "nonpayable",
      "type": "function"
    },
    {
      "inputs": [
        {
          "internalType": "uint64",
          "name": "_maxBlocksForTick",
          "type": "uint64"
        }
      ],
      "name": "setMaxBlocksForTick",
      "outputs": [],
      "stateMutability": "nonpayable",
      "type": "function"
    },
    {
      "inputs": [
        {
          "internalType": "uint256",
          "name": "_maxMultiplyFactor",
          "type": "uint256"
        }
      ],
      "name": "setMaxMultiplyFactor",
      "outputs": [],
      "stateMutability": "nonpayable",
      "type": "function"
    },
    {
      "inputs": [
        {
          "internalType": "uint64",
          "name": "_maxOrderLifespan",
          "type": "uint64"
        }
      ],
      "name": "setMaxOrderLifespan",
      "outputs": [],
      "stateMutability": "nonpayable",
      "type": "function"
    },
    {
      "inputs": [
        {
          "internalType": "uint64",
          "name": "_minBlocksForTick",
          "type": "uint64"
        }
      ],
      "name": "setMinBlocksForTick",
      "outputs": [],
      "stateMutability": "nonpayable",
      "type": "function"
    },
    {
      "inputs": [
        {
          "internalType": "uint256",
          "name": "_minMultiplyFactor",
          "type": "uint256"
        }
      ],
      "name": "setMinMultiplyFactor",
      "outputs": [],
      "stateMutability": "nonpayable",
      "type": "function"
    },
    {
      "inputs": [
        {
          "internalType": "uint256",
          "name": "_minOrderAmount",
          "type": "uint256"
        }
      ],
      "name": "setMinOrderAmount",
      "outputs": [],
      "stateMutability": "nonpayable",
      "type": "function"
    },
    {
      "inputs": [
        {
          "internalType": "address",
          "name": "_baseToken",
          "type": "address"
        },
        {
          "internalType": "address",
          "name": "_secondaryToken",
          "type": "address"
        },
        {
          "internalType": "address",
          "name": "_priceProvider",
          "type": "address"
        }
      ],
      "name": "setPriceProvider",
      "outputs": [],
      "stateMutability": "nonpayable",
      "type": "function"
    },
    {
      "inputs": [
        {
          "internalType": "address",
          "name": "newStopper",
          "type": "address"
        }
      ],
      "name": "setStopper",
      "outputs": [],
      "stateMutability": "nonpayable",
      "type": "function"
    },
    {
      "inputs": [
        {
          "internalType": "address",
          "name": "_baseToken",
          "type": "address"
        },
        {
          "internalType": "address",
          "name": "_secondaryToken",
          "type": "address"
        },
        {
          "internalType": "uint256",
          "name": "_emaPrice",
          "type": "uint256"
        }
      ],
      "name": "setTokenPairEmaPrice",
      "outputs": [],
      "stateMutability": "nonpayable",
      "type": "function"
    },
    {
      "inputs": [
        {
          "internalType": "address",
          "name": "_baseToken",
          "type": "address"
        },
        {
          "internalType": "address",
          "name": "_secondaryToken",
          "type": "address"
        },
        {
          "internalType": "uint256",
          "name": "_smoothingFactor",
          "type": "uint256"
        }
      ],
      "name": "setTokenPairSmoothingFactor",
      "outputs": [],
      "stateMutability": "nonpayable",
      "type": "function"
    },
    {
      "inputs": [],
      "name": "stoppable",
      "outputs": [
        {
          "internalType": "bool",
          "name": "",
          "type": "bool"
        }
      ],
      "stateMutability": "view",
      "type": "function"
    },
    {
      "inputs": [],
      "name": "stopper",
      "outputs": [
        {
          "internalType": "address",
          "name": "",
          "type": "address"
        }
      ],
      "stateMutability": "view",
      "type": "function"
    },
    {
      "inputs": [],
      "name": "tickConfig",
      "outputs": [
        {
          "internalType": "uint256",
          "name": "expectedOrdersForTick",
          "type": "uint256"
        },
        {
          "internalType": "uint256",
          "name": "maxBlocksForTick",
          "type": "uint256"
        },
        {
          "internalType": "uint256",
          "name": "minBlocksForTick",
          "type": "uint256"
        }
      ],
      "stateMutability": "view",
      "type": "function"
    },
    {
      "inputs": [
        {
          "internalType": "address",
          "name": "_baseToken",
          "type": "address"
        },
        {
          "internalType": "address",
          "name": "_secondaryToken",
          "type": "address"
        }
      ],
      "name": "tickIsRunning",
      "outputs": [
        {
          "internalType": "bool",
          "name": "",
          "type": "bool"
        }
      ],
      "stateMutability": "view",
      "type": "function"
    },
    {
      "inputs": [
        {
          "internalType": "uint256",
          "name": "",
          "type": "uint256"
        },
        {
          "internalType": "uint256",
          "name": "",
          "type": "uint256"
        }
      ],
      "name": "tokenPairAddresses",
      "outputs": [
        {
          "internalType": "address",
          "name": "",
          "type": "address"
        }
      ],
      "stateMutability": "view",
      "type": "function"
    },
    {
      "inputs": [],
      "name": "tokenPairCount",
      "outputs": [
        {
          "internalType": "uint256",
          "name": "",
          "type": "uint256"
        }
      ],
      "stateMutability": "view",
      "type": "function"
    },
    {
      "inputs": [],
      "name": "unpause",
      "outputs": [],
      "stateMutability": "nonpayable",
      "type": "function"
    },
    {
      "inputs": [
        {
          "internalType": "address",
          "name": "token",
          "type": "address"
        }
      ],
      "name": "withdrawCommissions",
      "outputs": [],
      "stateMutability": "nonpayable",
      "type": "function"
    }
  ],
  "bytecode": "0x608060405234801561001057600080fd5b50600161016855614549806100266000396000f3fe608060405234801561001057600080fd5b50600436106103e65760003560e01c806379c5827c1161020a578063b6e0833011610125578063df318d1b116100b8578063ec62d9ef11610087578063ec62d9ef1461091b578063f2b24da31461092e578063f5b5f6cb14610941578063fc3a496214610954578063ff0e4bac1461096757600080fd5b8063df318d1b146108cd578063e24e4fdb146108e0578063e3204b22146108f5578063e4bbb5a81461090857600080fd5b8063c4d66de8116100f4578063c4d66de81461087a578063c4e82c1a1461088d578063c520bc92146108a0578063d1a76714146108b357600080fd5b8063b6e083301461080e578063bb4872de14610821578063bbc92f501461082f578063c227b51c1461084257600080fd5b80639c27ee4c1161019d578063ae0678541161016c578063ae067854146107d9578063afac413f146107e7578063b232634c146107f1578063b5febde01461080457600080fd5b80639c27ee4c146107735780639df64e1e146107a0578063a268e212146107b3578063a3b8ef04146107c657600080fd5b80638dfc0439116101d95780638dfc04391461071a57806391988cb81461072d5780639221ffa61461074057806395b6f0d41461075357600080fd5b806379c5827c146106d957806380446d87146106ec5780638456cb59146106ff57806389f1b1e31461070757600080fd5b80633f4ba83a1161030557806351f7a854116102985780635a3970b1116102675780635a3970b11461067b5780635c975abb1461068e57806364ce594c146106ab57806368274357146106be5780636bf5de4d146106c657600080fd5b806351f7a8541461063a5780635210570c1461064d57806352826184146106555780635394e8e61461066857600080fd5b8063485cc955116102d4578063485cc955146105ee5780634a272132146106015780634e420fd41461061457806350090c6b1461062757600080fd5b80633f4ba83a146105b657806341f3844d146105be57806342872a02146105d157806346b62c4a146105e457600080fd5b806320aab0731161037d57806333ccf3401161034c57806333ccf34014610575578063340f965a1461058857806337db02731461059b5780633991dfe8146105ae57600080fd5b806320aab0731461050657806320ad3f0114610523578063237d9c8e14610536578063324773801461056257600080fd5b806314fced94116103b957806314fced94146104575780631617b9221461046a57806316dedc841461047d5780631c5129e9146104f357600080fd5b80630a2c1470146103eb5780630a58f47a146104005780630c340a24146104135780630ef51d0d14610443575b600080fd5b6103fe6103f9366004613bc0565b61099a565b005b6103fe61040e366004613c3f565b610a89565b603354610426906001600160a01b031681565b6040516001600160a01b0390911681526020015b60405180910390f35b61016954610426906001600160a01b031681565b6103fe610465366004613c5c565b610abc565b6103fe610478366004613c95565b610af5565b61049061048b366004613c5c565b610b32565b604080519c8d5260208d019b909b52998b019890985260608a01969096526001600160401b03909416608089015260a088019290925260c087015260e086015215156101008501526101208401526101408301526101608201526101800161043a565b6103fe610501366004613c5c565b610b8f565b610515670de0b6b3a764000081565b60405190815260200161043a565b610426610531366004613cdb565b610bc2565b61019f5461054a906001600160401b031681565b6040516001600160401b03909116815260200161043a565b6103fe610570366004613cfd565b610c00565b6103fe610583366004613cfd565b610c8a565b6103fe610596366004613d55565b610caa565b6103fe6105a9366004613d70565b610d1a565b609c54610515565b6103fe610e0d565b6105156105cc366004613c5c565b610ef9565b6105156105df366004613c5c565b610f12565b61051561019c5481565b6103fe6105fc366004613c5c565b610f9e565b6103fe61060f366004613d55565b611022565b6103fe610622366004613dbb565b611063565b610515610635366004613c5c565b611106565b6103fe610648366004613c3f565b611120565b6103fe6111ae565b6103fe610663366004613cfd565b6111c3565b610515610676366004613c5c565b61124c565b610426610689366004613c5c565b611269565b61013554610100900460ff165b604051901515815260200161043a565b6103fe6106b9366004613e1e565b61128b565b6103fe6112ef565b61069b6106d4366004613e8c565b611307565b61069b6106e7366004613c5c565b61139d565b6105156106fa366004613e8c565b6113c4565b6103fe6113d9565b6103fe610715366004613d55565b611505565b6103fe610728366004613ecc565b611531565b6103fe61073b366004613c95565b6115ef565b6103fe61074e366004613f8d565b611624565b610766610761366004613c5c565b6116c3565b60405161043a9190614054565b60665460675460685461078592919083565b6040805193845260208401929092529082015260600161043a565b6105156107ae366004613c5c565b6116dd565b6103fe6107c1366004614067565b6116f4565b6103fe6107d43660046140c2565b61170b565b610515663ab9f28a23200081565b61051561019e5481565b6103fe6107ff366004614067565b611719565b61051561019d5481565b6103fe61081c366004613c3f565b611729565b6101355461069b9060ff1681565b6103fe61083d3660046140c2565b611753565b610855610850366004613c5c565b611761565b604080516001600160401b03909416845260208401929092529082015260600161043a565b6103fe610888366004613c3f565b611799565b6103fe61089b3660046140c2565b61182b565b6103fe6108ae3660046140db565b611839565b61013554610426906201000090046001600160a01b031681565b6105156108db366004614136565b611995565b6108e86119f4565b60405161043a919061416d565b6103fe610903366004613d55565b611a7b565b6103fe610916366004613e8c565b611abc565b6103fe610929366004613dbb565b611b6f565b61051561093c366004613c5c565b611c05565b6103fe61094f366004613cfd565b611c50565b610515610962366004613c5c565b611cb1565b61097a610975366004613c5c565b611cc7565b60408051948552602085019390935291830152606082015260800161043a565b6101355460408051808201909152601281526000805160206144f4833981519152602082015290610100900460ff16156109f05760405162461bcd60e51b81526004016109e791906141df565b60405180910390fd5b5060006109fd8888611d83565b61016954604051631a69cb3b60e31b815291925073__$4a165dabbfd6ff3f3f3890617dd1870b68$__9163d34e59d891610a4f9185916001600160a01b0316908b908b908b908b908b9060040161422e565b60006040518083038186803b158015610a6757600080fd5b505af4158015610a7b573d6000803e3d6000fd5b505050505050505050505050565b610a91611de2565b61013580546001600160a01b03909216620100000262010000600160b01b0319909216919091179055565b8181610ac8828261139d565b15610ae55760405162461bcd60e51b81526004016109e790614283565b610aef8484611e9b565b50505050565b8383610b01828261139d565b15610b1e5760405162461bcd60e51b81526004016109e790614283565b610b2a86868686611f57565b505050505050565b600080600080600080600080600080600080610b4e8e8e611fbb565b959d50939b509199509750955093509150610b698e8e611cc7565b929e50909c509a509850610b7d8e8e610f12565b90509295989b509295989b509295989b565b8181610b9b828261139d565b15610bb85760405162461bcd60e51b81526004016109e790614283565b610aef848461202b565b609c8281548110610bd257600080fd5b90600052602060002090600202018160028110610bee57600080fd5b01546001600160a01b03169150829050565b610c08611de2565b6000610c148484611d83565b9050670de0b6b3a7640000821115610c825760405162461bcd60e51b815260206004820152602b60248201527f536d6f6f7468696e6720666163746f722073686f756c6420626520696e20726560448201526a6c6174696f6e20746f203160a81b60648201526084016109e7565b603f01555050565b610c92611de2565b6000610c9e8484611d83565b603e0191909155505050565b610cb2611de2565b6002816001600160401b03161015610d0c5760405162461bcd60e51b815260206004820181905260248201527f4578706563746564206f726465727320666f72207469636b20746f6f206c6f7760448201526064016109e7565b6001600160401b0316606655565b610d22611de2565b610d2c83836120d9565b610d785760405162461bcd60e51b815260206004820152601760248201527f546865207061697220646f6573206e6f7420657869737400000000000000000060448201526064016109e7565b6001600160a01b038116610dda5760405162461bcd60e51b8152602060048201526024808201527f50726963652070726f766964657220616464726573732063616e206e6f7420626044820152630ca4060f60e31b60648201526084016109e7565b6000610de68484611d83565b601c0180546001600160a01b0319166001600160a01b039390931692909217909155505050565b6101355460408051808201909152600b81526a3737ba2fb9ba37b83832b960a91b6020820152906201000090046001600160a01b03163314610e625760405162461bcd60e51b81526004016109e791906141df565b5061013554604080518082019091526012815271636f6e74726163745f69735f61637469766560701b602082015290610100900460ff16610eb65760405162461bcd60e51b81526004016109e791906141df565b50610135805461ff00191690556040513381527f5db9ee0a495bf2e6ff9c91a7834c1ba4fdd244a5e8aa4e537bd38aeae4b073aa906020015b60405180910390a1565b6000610f0583836120ed565b6003015490505b92915050565b600080610f1f84846120ed565b60405163323bfe2160e01b81526004810182905290915073__$4a165dabbfd6ff3f3f3890617dd1870b68$__9063323bfe2190602401602060405180830381865af4158015610f72573d6000803e3d6000fd5b505050506040513d601f19601f82011682018060405250810190610f9691906142ac565b949350505050565b600054610100900460ff1680610fb35750303b155b80610fc1575060005460ff16155b610fdd5760405162461bcd60e51b81526004016109e7906142c5565b600054610100900460ff16158015610fff576000805461ffff19166101011790555b61100b83836001611abc565b801561101d576000805461ff00191690555b505050565b61102a611de2565b6068546001600160401b03821610156110555760405162461bcd60e51b81526004016109e790614313565b6001600160401b0316606755565b848487611071838383612113565b61019f5485906001600160401b0390811690821611156110a35760405162461bcd60e51b81526004016109e79061435c565b86806000036110eb5760405162461bcd60e51b815260206004820152601460248201527350726963652063616e6e6f74206265207a65726f60601b60448201526064016109e7565b6110f98b8b8b8b8b8b612166565b5050505050505050505050565b60006111128383611fbb565b509198975050505050505050565b6111286121ca565b6101695460405163a82a575960e01b81526001600160a01b038084166004830152909116602482015273__$4a165dabbfd6ff3f3f3890617dd1870b68$__9063a82a57599060440160006040518083038186803b15801561118857600080fd5b505af415801561119c573d6000803e3d6000fd5b505050506111ab600161016855565b50565b6111b6611de2565b610135805460ff19169055565b6111cb611de2565b600081116112345760405162461bcd60e51b815260206004820152603060248201527f54686520676976656e20696e697469616c2070726963652073686f756c64206260448201526f0652067726561746572207468616e20360841b60648201526084016109e7565b60006112408484611d83565b603c0191909155505050565b600061126261125b84846120ed565b6018015490565b9392505050565b60008061127684846120ed565b601c01546001600160a01b0316949350505050565b61019f5482906001600160401b0390811690821611156112bd5760405162461bcd60e51b81526004016109e79061435c565b836112c7816121f6565b826112d257866112d4565b875b86896112e1838383612113565b6110f98b8b8b8b8b8b6122d0565b6112f7611de2565b610135805460ff19166001179055565b6000806113148585611d83565b604051631ce3be8560e31b815260048101829052841515602482015290915073__$4a165dabbfd6ff3f3f3890617dd1870b68$__9063e71df428906044015b602060405180830381865af4158015611370573d6000803e3d6000fd5b505050506040513d601f19601f820116820180604052508101906113949190614387565b95945050505050565b6000806113aa84846116c3565b60038111156113bb576113bb61402e565b14159392505050565b6000610f966113d385856120ed565b8361232f565b6101355460408051808201909152600b81526a756e73746f707061626c6560a81b60208201529060ff166114205760405162461bcd60e51b81526004016109e791906141df565b506101355460408051808201909152600b81526a3737ba2fb9ba37b83832b960a91b6020820152906201000090046001600160a01b031633146114765760405162461bcd60e51b81526004016109e791906141df565b506101355460408051808201909152601281526000805160206144f4833981519152602082015290610100900460ff16156114c45760405162461bcd60e51b81526004016109e791906141df565b50610135805461ff0019166101001790556040513381527f62e78cea01bee320cd4e420270b5ea74000d11b0c9f74754ebdbfc544b05a25890602001610eef565b61150d611de2565b61019f805467ffffffffffffffff19166001600160401b0392909216919091179055565b600054610100900460ff16806115465750303b155b80611554575060005460ff16155b6115705760405162461bcd60e51b81526004016109e7906142c5565b600054610100900460ff16158015611592576000805461ffff19166101011790555b6115a18c8c8c8c8c8888612349565b61019c87905561019f805467ffffffffffffffff19166001600160401b03861617905561019d86905561019e8590558015610a7b576000805461ff0019169055505050505050505050505050565b83836115fb828261139d565b156116185760405162461bcd60e51b81526004016109e790614283565b610b2a86868686612404565b6101355460408051808201909152601281526000805160206144f4833981519152602082015290610100900460ff16156116715760405162461bcd60e51b81526004016109e791906141df565b50600061167e8686611d83565b602181019150611692906023018484613acd565b506116a66116a08787612468565b85612474565b6116b4600282016000613b18565b60006003909101555050505050565b60006116cf8383611d83565b603a015460ff169392505050565b60006116e983836120ed565b601101549392505050565b6117048585858585600019611b6f565b5050505050565b611713611de2565b61019c55565b6117048585858585600019611063565b611731611de2565b603380546001600160a01b0319166001600160a01b0392909216919091179055565b61175b611de2565b61019d55565b60008060008061177186866120ed565b6020810154601d820154601e909201546001600160401b039091169891975095509350505050565b600054610100900460ff16806117ae5750303b155b806117bc575060005460ff16155b6117d85760405162461bcd60e51b81526004016109e7906142c5565b600054610100900460ff161580156117fa576000805461ffff19166101011790555b603380546001600160a01b0319166001600160a01b0384161790558015611827576000805461ff00191690555b5050565b611833611de2565b61019e55565b6118468585858585612484565b60006118528686612468565b6040805160038082526080820190925291925060009190602082016060803683370190505090506118848260006124f9565b81600081518110611897576118976143a4565b6020026020010181815250506118ae8260016124f9565b816001815181106118c1576118c16143a4565b6020026020010181815250506118d88260026124f9565b816002815181106118eb576118eb6143a4565b60209081029190910101526119228160008151811061190c5761190c6143a4565b602002602001015161250e6125c561265a6126a0565b61194e81600181518110611938576119386143a4565b60200260200101516126af61270a6118276126a0565b61197a81600281518110611964576119646143a4565b602002602001015161275b6127a26118276126a0565b61198c82826127ed6128226001612896565b50505050505050565b60cf546000906001600160a01b03908116908516036119b5575081611262565b60cf546000906119ce906001600160a01b0316866120ed565b60cf549091506119e7906001600160a01b0316846120ed565b5060001995945050505050565b6060609c805480602002602001604051908101604052809291908181526020016000905b82821015611a725760008481526020902060408051808201918290529160028581029091019182845b81546001600160a01b03168152600190910190602001808311611a4157505050505081526020019060010190611a18565b50505050905090565b611a83611de2565b6067546001600160401b0382161115611aae5760405162461bcd60e51b81526004016109e790614313565b6001600160401b0316606855565b600054610100900460ff1680611ad15750303b155b80611adf575060005460ff16155b611afb5760405162461bcd60e51b81526004016109e7906142c5565b600054610100900460ff16158015611b1d576000805461ffff19166101011790555b610135805461ff01600160b01b03191683151562010000600160b01b03191617620100006001600160a01b03871602179055611b5883611799565b8015610aef576000805461ff001916905550505050565b858487611b7d838383612113565b61019f5485906001600160401b039081169082161115611baf5760405162461bcd60e51b81526004016109e79061435c565b8680600003611bf75760405162461bcd60e51b815260206004820152601460248201527350726963652063616e6e6f74206265207a65726f60601b60448201526064016109e7565b6110f98b8b8b8b8b8b6128a9565b6040516bffffffffffffffffffffffff19606084811b8216602084015283901b1660348201526000906048015b60405160208183030381529060405280519060200120905092915050565b6101355460408051808201909152601281526000805160206144f4833981519152602082015290610100900460ff1615611c9d5760405162461bcd60e51b81526004016109e791906141df565b5061101d611cab8484612468565b82612474565b6000611262611cc084846120ed565b600a015490565b6000806000806000611cd987876120ed565b9050611ce48161290d565b611cfc57600080600080945094509450945050611d7a565b6040516303de1a8560e61b81526004810182905273__$4a165dabbfd6ff3f3f3890617dd1870b68$__9063f786a14090602401608060405180830381865af4158015611d4c573d6000803e3d6000fd5b505050506040513d601f19601f82011682018060405250810190611d7091906143ba565b9450945094509450505b92959194509250565b6000611d8f83836120ed565b9050611d9a8161290d565b610f0c5760405162461bcd60e51b8152602060048201526019602482015278151bdad95b881c185a5c88191bd95cc81b9bdd08195e1a5cdd603a1b60448201526064016109e7565b60335460405163d994d6d560e01b81523360048201526001600160a01b039091169063d994d6d590602401602060405180830381865afa158015611e2a573d6000803e3d6000fd5b505050506040513d601f19601f82011682018060405250810190611e4e9190614387565b604051806040016040528060168152602001753737ba2fb0baba3437b934bd32b22fb1b430b733b2b960511b815250906111ab5760405162461bcd60e51b81526004016109e791906141df565b611ea3611de2565b6000611eaf8383611d83565b603d81015490915060ff1615611eff5760405162461bcd60e51b815260206004820152601560248201527414185a5c88185b1c9958591e48191a5cd8589b1959605a1b60448201526064016109e7565b603d8101805460ff19166001179055604080516001600160a01b038581168252841660208201527f71a055a513c927530cb6f44f826ef705d11b6b00e0912135c1f73796663138ed91015b60405180910390a1505050565b6101355460408051808201909152601281526000805160206144f4833981519152602082015290610100900460ff1615611fa45760405162461bcd60e51b81526004016109e791906141df565b50610aef611fb28585611d83565b83836001612949565b6000806000806000806000612013611fd38a8a6120ed565b6020810154601d820154601e830154603c840154603d850154603e860154603f909601546001600160401b039095169693959294919360ff909116929190565b959f949e50929c50909a509850965090945092505050565b612033611de2565b600061203f8383611d83565b603d81015490915060ff1661208d5760405162461bcd60e51b815260206004820152601460248201527314185a5c88185b1c9958591e48195b98589b195960621b60448201526064016109e7565b603d8101805460ff19169055604080516001600160a01b038086168252841660208201527f53affae818baf7c49a51b11722048f56b718a0eb3ea1e4e494915a852ead79b09101611f4a565b60006112626120e884846120ed565b61290d565b6000609b60006120fd8585611c05565b8152602001908152602001600020905092915050565b6000612120848484611995565b905061019c54811015610aef5760405162461bcd60e51b815260206004820152600e60248201526d416d6f756e7420746f6f206c6f7760901b60448201526064016109e7565b6101355460408051808201909152601281526000805160206144f4833981519152602082015290610100900460ff16156121b35760405162461bcd60e51b81526004016109e791906141df565b50610b2a6121c18787611d83565b85858585612b49565b600261016854036121ee57604051633ee5aeb560e01b815260040160405180910390fd5b600261016855565b8060000361223f5760405162461bcd60e51b81526020600482015260166024820152754d756c7469706c79466163746f72206973207a65726f60501b60448201526064016109e7565b61019d548110156122875760405162461bcd60e51b81526020600482015260126024820152712637bb9026bab63a34b8363ca330b1ba37b960711b60448201526064016109e7565b61019e548111156111ab5760405162461bcd60e51b81526020600482015260136024820152722434b3b41026bab63a34b8363ca330b1ba37b960691b60448201526064016109e7565b6101355460408051808201909152601281526000805160206144f4833981519152602082015290610100900460ff161561231d5760405162461bcd60e51b81526004016109e791906141df565b50610b2a868686866000198787612c43565b600081612340576019830154611262565b5050600b015490565b600054610100900460ff168061235e5750303b155b8061236c575060005460ff16155b6123885760405162461bcd60e51b81526004016109e7906142c5565b600054610100900460ff161580156123aa576000805461ffff19166101011790555b6123b78887878787612da4565b6123c2600061010255565b61016980546001600160a01b0319166001600160a01b0389161790556123e88284610f9e565b80156123fa576000805461ff00191690555b5050505050505050565b6101355460408051808201909152601281526000805160206144f4833981519152602082015290610100900460ff16156124515760405162461bcd60e51b81526004016109e791906141df565b50610aef61245f8585611d83565b83836000612949565b60006112628383611c05565b6118276101d36101d28484612ea7565b60cf546001600160a01b03868116911614806124b1575060cf546124b1906001600160a01b0316866120d9565b6124ec5760405162461bcd60e51b815260206004820152600c60248201526b24b73b30b634b2102830b4b960a11b60448201526064016109e7565b61170485858585856130d2565b60008282604051602001611c329291906143f0565b60008061251a85613294565b90506001603a82015460ff1660038111156125375761253761402e565b146125445761254461440f565b604051630f0ea5af60e01b81526004810182905260009073__$4a165dabbfd6ff3f3f3890617dd1870b68$__90630f0ea5af90602401602060405180830381865af4158015612597573d6000803e3d6000fd5b505050506040513d601f19601f820116820180604052508101906125bb9190614387565b9695505050505050565b60006125d083613294565b90506000603a82015460ff1660038111156125ed576125ed61402e565b146125fa576125fa61440f565b60405163354351a960e21b81526004810182905273__$4a165dabbfd6ff3f3f3890617dd1870b68$__9063d50d46a4906024015b60006040518083038186803b15801561264657600080fd5b505af415801561198c573d6000803e3d6000fd5b600061266583613294565b60405163582e61a960e01b81526004810182905290915073__$4a165dabbfd6ff3f3f3890617dd1870b68$__9063582e61a99060240161262e565b610aef6101d2858585856132f8565b6000806126bb85613294565b610169546040516355b1281960e11b8152600481018390526001600160a01b03909116602482015290915073__$4a165dabbfd6ff3f3f3890617dd1870b68$__9063ab62503290604401611353565b600061271583613294565b90506001603a82015460ff1660038111156127325761273261402e565b1461273f5761273f61440f565b603a810180546002919060ff19166001835b0217905550505050565b60008061276785613294565b604051635219d49560e11b81526004810182905290915073__$4a165dabbfd6ff3f3f3890617dd1870b68$__9063a433a92a90602401611353565b60006127ad83613294565b90506002603a82015460ff1660038111156127ca576127ca61402e565b146127d7576127d761440f565b603a810180546003919060ff1916600183612751565b60006127f882613294565b90506000603a82015460ff1660038111156128155761281561402e565b146118275761182761440f565b600061282d82613294565b604051633bdb540760e21b8152600481018290526066602482015290915073__$4a165dabbfd6ff3f3f3890617dd1870b68$__9063ef6d501c9060440160006040518083038186803b15801561288257600080fd5b505af4158015610b2a573d6000803e3d6000fd5b6117046101d36101d2878787878761342d565b6101355460408051808201909152601281526000805160206144f4833981519152602082015290610100900460ff16156128f65760405162461bcd60e51b81526004016109e791906141df565b50610b2a6129048787611d83565b85858585613602565b600d8101546000906001600160a01b0316158015906129385750601b8201546001600160a01b031615155b8015610f0c575050603b0154151590565b6000816129595784600e0161295b565b845b60405163678dd03360e11b81526004810187905260248101869052604481018590528315156064820152909150600090819073__$4a165dabbfd6ff3f3f3890617dd1870b68$__9063cf1ba066906084016040805180830381865af41580156129c8573d6000803e3d6000fd5b505050506040513d601f19601f820116820180604052508101906129ec9190614425565b61016954600d86015460405163332d3ca560e01b81526001600160a01b039283166004820152911660248201526044810183905260648101829052336084820152600060a4820181905292945090925081908190819073__$4a165dabbfd6ff3f3f3890617dd1870b68$__9063332d3ca59060c401608060405180830381865af4158015612a7e573d6000803e3d6000fd5b505050506040513d601f19601f82011682018060405250810190612aa29190614449565b935093509350935083612aef5760405162461bcd60e51b8152602060048201526015602482015274151bdad95b881d1c985b9cd9995c8819985a5b1959605a1b60448201526064016109e7565b6040805184815260208101849052908101829052881515606082015233908b907fd975b60b6329c797ae584f3af10b37331736bff9e1e5c69342394824d8c19b819060800160405180910390a35050505050505050505050565b601b850154600d860154600091612b76916001600160a01b0391821691670de0b6b3a76400009116611995565b61016954604051631e2ca63d60e21b815260048101889052602481018390529192506000916001600160a01b03909116906378b298f490604401602060405180830381865afa158015612bcd573d6000803e3d6000fd5b505050506040513d601f19601f82011682018060405250810190612bf191906142ac565b90508581111561198c5760405162461bcd60e51b815260206004820152601a60248201527f416d6f756e742069732067726561746572207468616e2046656500000000000060448201526064016109e7565b6101355460408051808201909152601281526000805160206144f4833981519152602082015290610100900460ff1615612c905760405162461bcd60e51b81526004016109e791906141df565b506000612c9d8888611d83565b90506000612ccb83612caf5788612cb1565b895b670de0b6b3a764000085612cc5578b611995565b8a611995565b61016954604051631e2ca63d60e21b8152600481018a9052602481018390529192506000916001600160a01b03909116906378b298f490604401602060405180830381865afa158015612d22573d6000803e3d6000fd5b505050506040513d601f19601f82011682018060405250810190612d4691906142ac565b905087811115612d985760405162461bcd60e51b815260206004820152601a60248201527f416d6f756e742069732067726561746572207468616e2046656500000000000060448201526064016109e7565b50505050505050505050565b600054610100900460ff1680612db95750303b155b80612dc7575060005460ff16155b612de35760405162461bcd60e51b81526004016109e7906142c5565b600054610100900460ff16158015612e05576000805461ffff19166101011790555b6001600160a01b038616612e675760405162461bcd60e51b8152602060048201526024808201527f636f6d6d6f42617365546f6b656e416464726573732063616e6e6f74206265206044820152631b9d5b1b60e21b60648201526084016109e7565b60cf80546001600160a01b0319166001600160a01b038816179055612e8e8585858561362f565b8015610b2a576000805461ff0019169055505050505050565b600082815260208590526040902081612f335760405162461bcd60e51b815260206004820152604260248201527f697420646f6573206e6f74206d616b652073656e736520746f2065786563757460448201527f6520612067726f7570206f66207461736b732077697468207a65726f20737465606482015261707360f01b608482015260a4016109e7565b8054612f815760405162461bcd60e51b815260206004820152601860248201527f7468652067726f757020646f6573206e6f74206578697374000000000000000060448201526064016109e7565b6000600182015460ff166002811115612f9c57612f9c61402e565b03612fcd5780546003820154612fbc91908015613b36021763ffffffff16565b6001818101805460ff191690911790555b60018082015460ff166002811115612fe757612fe761402e565b03611704578160005b6000821180156130035750600283015481105b15613071576000866000856002018481548110613022576130226143a4565b906000526020600020015481526020019081526020016000209050600061304e82866000015486613778565b905061305a84826139a3565b9350505080806130699061449e565b915050612ff0565b5061307c82866139bf565b15610b2a57600182018054600260ff19909116179055815460038301546130b49190600160401b90048015613b36021763ffffffff16565b6003820154600160801b900460ff1615610b2a57610b2a8286613a38565b6130da611de2565b84846130e682826120d9565b156131235760405162461bcd60e51b815260206004820152600d60248201526c22bc34b9ba32b73a103830b4b960991b60448201526064016109e7565b61312d81836120d9565b156131725760405162461bcd60e51b815260206004820152601560248201527422bc34b9ba32b73a1034b73b32b939b2903830b4b960591b60448201526064016109e7565b806001600160a01b0316826001600160a01b0316036131d35760405162461bcd60e51b815260206004820152601760248201527f4261736520657175616c20746f207365636f6e6461727900000000000000000060448201526064016109e7565b6000831161321a5760405162461bcd60e51b8152602060048201526014602482015273696e697469616c5072696365206e6f207a65726f60601b60448201526064016109e7565b60006132268888611c05565b604080518082019091526001600160a01b03808b16825289166020820152609c80546001810182556000919091529192506132899160029081027faf85b9071dfafeac1409d3f1d19bafc9bc7c37974cde8df0ee6168f0086e539c019190613b40565b505050505050505050565b6000818152609b602052604090206132ab8161290d565b6132f35760405162461bcd60e51b8152602060048201526019602482015278151bdad95b881c185a5c88191bd95cc81b9bdd08195e1a5cdd603a1b60448201526064016109e7565b919050565b836133455760405162461bcd60e51b815260206004820152601c60248201527f61207461736b2063616e6e6f7420686176652061206e756c6c2069640000000060448201526064016109e7565b60008481526020869052604090208054156133ad5760405162461bcd60e51b815260206004820152602260248201527f61207461736b2077697468207468617420696420616c72656164792065786973604482015261747360f01b60648201526084016109e7565b93845560018401805460038601805460ff191690556001600160401b03928316600160801b0267ffffffffffffffff60801b19948416600160401b029490941677ffffffffffffffffffffffffffffffff000000000000000019909116179290921767ffffffffffffffff19169216919091179055600060029091015550565b8461347a5760405162461bcd60e51b815260206004820152601d60248201527f612067726f75702063616e6e6f7420686176652061206e756c6c20696400000060448201526064016109e7565b60008581526020889052604090208054156134e35760405162461bcd60e51b815260206004820152602360248201527f612067726f75702077697468207468617420696420616c72656164792065786960448201526273747360e81b60648201526084016109e7565b85815560005b85518110156135a3576000868281518110613506576135066143a4565b6020908102919091018101516000818152918b905260409091208054919250906135805760405162461bcd60e51b815260206004820152602560248201527f6f6e65206f662074686520737065636966696564207461736b7320697320696e6044820152641d985b1a5960da1b60648201526084016109e7565b5060028301805460018181018355600092835260209092200191909155016134e9565b506003810180546001909201805460ff19169055911515600160801b026001600160401b03938416600160401b026fffffffffffffffffffffffffffffffff1990921694909316939093179290921760ff60801b191617905550505050565b600d850154601b860154600091612b76916001600160a01b0391821691670de0b6b3a76400009116611995565b600054610100900460ff16806136445750303b155b80613652575060005460ff16155b61366e5760405162461bcd60e51b81526004016109e7906142c5565b600054610100900460ff16158015613690576000805461ffff19166101011790555b6002856001600160401b031610156136ea5760405162461bcd60e51b815260206004820181905260248201527f4578706563746564206f726465727320666f72207469636b20746f6f206c6f7760448201526064016109e7565b826001600160401b0316846001600160401b0316101561371c5760405162461bcd60e51b81526004016109e790614313565b604080516060810182526001600160401b03808816808352878216602084018190529187169290930182905260669290925560679190915560685561376082611799565b8015611704576000805461ff00191690555050505050565b60008082116137e75760405162461bcd60e51b815260206004820152603560248201527f697420646f6573206e6f74206d616b652073656e736520746f20657865637574604482015274652061207461736b2077697468203020737465707360581b60648201526084016109e7565b83546138415760405162461bcd60e51b8152602060048201526024808201527f697420697320696e76616c696420746f20657865637574652061206e756c6c206044820152637461736b60e01b60648201526084016109e7565b60028085015490600386015460ff1660028111156138615761386161402e565b03613870576000915050611262565b6000600386015460ff16600281111561388b5761388b61402e565b036138d0576138c08486600001548760010160089054906101000a90048015613b3602176001600160401b031663ffffffff16565b60038501805460ff191660011790555b6001600386015460ff1660028111156138eb576138eb61402e565b0361399857600285015460009060019082906139079087613a4e565b9050876002015492505b81801561391d57508083105b15613954578754600189015461394091899186908015613b36021763ffffffff16565b91508261394c8161449e565b935050613911565b600288018390558161399457600388018054600260ff1990911617905587546001890154613994918991600160801b90048015613b36021763ffffffff16565b5050505b600285015461139490825b6000828211156139b5576139b561440f565b61126282846144b7565b6002820180546000918291849183916139d99060016139a3565b815481106139e9576139e96143a4565b906000526020600020015481526020019081526020016000209050600280811115613a1657613a1661402e565b600382015460ff166002811115613a2f57613a2f61402e565b14949350505050565b60018201805460ff191690556118278282613a6c565b6000613a5a82846144ca565b905082811015610f0c57610f0c61440f565b60005b600283015481101561101d57613ac5826000856002018481548110613a9657613a966143a4565b9060005260206000200154815260200190815260200160002060038101805460ff191690556000600290910155565b600101613a6f565b828054828255906000526020600020908101928215613b08579160200282015b82811115613b08578235825591602001919060010190613aed565b50613b14929150613b88565b5090565b50805460008255906000526020600020908101906111ab9190613b88565b613b3e6144dd565b565b8260028101928215613b08579160200282015b82811115613b0857825182546001600160a01b0319166001600160a01b03909116178255602090920191600190910190613b53565b5b80821115613b145760008155600101613b89565b6001600160a01b03811681146111ab57600080fd5b80151581146111ab57600080fd5b600080600080600080600060e0888a031215613bdb57600080fd5b8735613be681613b9d565b96506020880135613bf681613b9d565b95506040880135613c0681613bb2565b9450606088013593506080880135925060a0880135915060c088013560028110613c2f57600080fd5b8091505092959891949750929550565b600060208284031215613c5157600080fd5b813561126281613b9d565b60008060408385031215613c6f57600080fd5b8235613c7a81613b9d565b91506020830135613c8a81613b9d565b809150509250929050565b60008060008060808587031215613cab57600080fd5b8435613cb681613b9d565b93506020850135613cc681613b9d565b93969395505050506040820135916060013590565b60008060408385031215613cee57600080fd5b50508035926020909101359150565b600080600060608486031215613d1257600080fd5b8335613d1d81613b9d565b92506020840135613d2d81613b9d565b929592945050506040919091013590565b80356001600160401b03811681146132f357600080fd5b600060208284031215613d6757600080fd5b61126282613d3e565b600080600060608486031215613d8557600080fd5b8335613d9081613b9d565b92506020840135613da081613b9d565b91506040840135613db081613b9d565b809150509250925092565b60008060008060008060c08789031215613dd457600080fd5b8635613ddf81613b9d565b95506020870135613def81613b9d565b94506040870135935060608701359250613e0b60808801613d3e565b915060a087013590509295509295509295565b60008060008060008060c08789031215613e3757600080fd5b8635613e4281613b9d565b95506020870135613e5281613b9d565b94506040870135935060608701359250613e6e60808801613d3e565b915060a0870135613e7e81613bb2565b809150509295509295509295565b600080600060608486031215613ea157600080fd5b8335613eac81613b9d565b92506020840135613ebc81613b9d565b91506040840135613db081613bb2565b60008060008060008060008060008060006101608c8e031215613eee57600080fd5b8b35613ef981613b9d565b9a5060208c0135613f0981613b9d565b9950613f1760408d01613d3e565b9850613f2560608d01613d3e565b9750613f3360808d01613d3e565b965060a08c0135955060c08c0135945060e08c01359350613f576101008d01613d3e565b92506101208c0135613f6881613b9d565b91506101408c0135613f7981613b9d565b809150509295989b509295989b9093969950565b600080600080600060808688031215613fa557600080fd5b8535613fb081613b9d565b94506020860135613fc081613b9d565b93506040860135925060608601356001600160401b0380821115613fe357600080fd5b818801915088601f830112613ff757600080fd5b81358181111561400657600080fd5b8960208260051b850101111561401b57600080fd5b9699959850939650602001949392505050565b634e487b7160e01b600052602160045260246000fd5b600481106111ab576111ab61402e565b6020810161406183614044565b91905290565b600080600080600060a0868803121561407f57600080fd5b853561408a81613b9d565b9450602086013561409a81613b9d565b935060408601359250606086013591506140b660808701613d3e565b90509295509295909350565b6000602082840312156140d457600080fd5b5035919050565b600080600080600060a086880312156140f357600080fd5b85356140fe81613b9d565b9450602086013561410e81613b9d565b9350604086013561411e81613b9d565b94979396509394606081013594506080013592915050565b60008060006060848603121561414b57600080fd5b833561415681613b9d565b9250602084013591506040840135613db081613b9d565b60208082528251828201819052600091906040908185019086840185805b838110156141d157825185835b60028110156141be5782516001600160a01b031682529189019190890190600101614198565b505050938501939186019160010161418b565b509298975050505050505050565b60006020808352835180602085015260005b8181101561420d578581018301518582016040015282016141f1565b506000604082860101526040601f19601f8301168501019250505092915050565b8781526001600160a01b03871660208201528515156040820152606081018590526080810184905260a0810183905260e08101600283106142715761427161402e565b8260c083015298975050505050505050565b6020808252600f908201526e5469636b2069732072756e6e696e6760881b604082015260600190565b6000602082840312156142be57600080fd5b5051919050565b6020808252602e908201527f436f6e747261637420696e7374616e63652068617320616c726561647920626560408201526d195b881a5b9a5d1a585b1a5e995960921b606082015260800190565b60208082526029908201527f6d696e20426c6f636b466f725469636b2073686f756c64206265206c6f776572604082015268040e8d0c2dc40dac2f60bb1b606082015260800190565b602080825260119082015270098d2cccae6e0c2dc40e8dede40d0d2ced607b1b604082015260600190565b60006020828403121561439957600080fd5b815161126281613bb2565b634e487b7160e01b600052603260045260246000fd5b600080600080608085870312156143d057600080fd5b505082516020840151604085015160609095015191969095509092509050565b8281526143fc82614044565b60f89190911b6020820152602101919050565b634e487b7160e01b600052600160045260246000fd5b6000806040838503121561443857600080fd5b505080516020909101519092909150565b6000806000806080858703121561445f57600080fd5b845161446a81613bb2565b60208601516040870151606090970151919890975090945092505050565b634e487b7160e01b600052601160045260246000fd5b6000600182016144b0576144b0614488565b5060010190565b81810381811115610f0c57610f0c614488565b80820180821115610f0c57610f0c614488565b634e487b7160e01b600052605160045260246000fdfe636f6e74726163745f69735f7061757365640000000000000000000000000000a2646970667358221220890512d32c56738742dd252c6898860ffe8acb996f0ee33e72ce890a084b489b64736f6c63430008180033",
  "linkReferences": {
    "contracts/libs/MoCExchangeLib.sol": {
      "MoCExchangeLib": [
        {
          "length": 20,
          "start": 2617
        },
        {
          "length": 20,
          "start": 3934
        },
        {
          "length": 20,
          "start": 4473
        },
        {
          "length": 20,
          "start": 4955
        },
        {
          "length": 20,
          "start": 7480
        },
        {
          "length": 20,
          "start": 9603
        },
        {
          "length": 20,
          "start": 9782
        },
        {
          "length": 20,
          "start": 9892
        },
        {
          "length": 20,
          "start": 9998
        },
        {
          "length": 20,
          "start": 10150
        },
        {
          "length": 20,
          "start": 10355
        },
        {
          "length": 20,
          "start": 10677
        },
        {
          "length": 20,
          "start": 10858
        }
      ]
    }
  },
  "deployedLinkReferences": {
    "contracts/libs/MoCExchangeLib.sol": {
      "MoCExchangeLib": [
        {
          "length": 20,
          "start": 2579
        },
        {
          "length": 20,
          "start": 3896
        },
        {
          "length": 20,
          "start": 4435
        },
        {
          "length": 20,
          "start": 4917
        },
        {
          "length": 20,
          "start": 7442
        },
        {
          "length": 20,
          "start": 9565
        },
        {
          "length": 20,
          "start": 9744
        },
        {
          "length": 20,
          "start": 9854
        },
        {
          "length": 20,
          "start": 9960
        },
        {
          "length": 20,
          "start": 10112
        },
        {
          "length": 20,
          "start": 10317
        },
        {
          "length": 20,
          "start": 10639
        },
        {
          "length": 20,
          "start": 10820
        }
      ]
    }
  }
}