{
  "_format": "hh-sol-artifact-1",
  "contractName": "MoCDecentralizedExchange",
  "sourceName": "contracts/MoCDecentralizedExchange.sol",
  "abi": [
    {
      "inputs": [],
      "name": "ReentrancyGuardReentrantCall",
      "type": "error"
    },
    {
      "anonymous": false,
      "inputs": [
        {
          "indexed": true,
          "internalType": "uint256",
          "name": "orderId",
          "type": "uint256"
        },
        {
          "indexed": false,
          "internalType": "uint256",
          "name": "amountSent",
          "type": "uint256"
        },
        {
          "indexed": false,
          "internalType": "uint256",
          "name": "commission",
          "type": "uint256"
        },
        {
          "indexed": false,
          "internalType": "uint256",
          "name": "change",
          "type": "uint256"
        },
        {
          "indexed": false,
          "internalType": "uint256",
          "name": "received",
          "type": "uint256"
        },
        {
          "indexed": false,
          "internalType": "uint256",
          "name": "remainingAmount",
          "type": "uint256"
        },
        {
          "indexed": false,
          "internalType": "uint256",
          "name": "matchPrice",
          "type": "uint256"
        },
        {
          "indexed": false,
          "internalType": "uint64",
          "name": "tickNumber",
          "type": "uint64"
        }
      ],
      "name": "BuyerMatch",
      "type": "event"
    },
    {
      "anonymous": false,
      "inputs": [
        {
          "indexed": true,
          "internalType": "uint256",
          "name": "orderId",
          "type": "uint256"
        },
        {
          "indexed": true,
          "internalType": "address",
          "name": "owner",
          "type": "address"
        },
        {
          "indexed": false,
          "internalType": "uint256",
          "name": "returnedAmount",
          "type": "uint256"
        },
        {
          "indexed": false,
          "internalType": "uint256",
          "name": "commission",
          "type": "uint256"
        },
        {
          "indexed": false,
          "internalType": "uint256",
          "name": "returnedCommission",
          "type": "uint256"
        }
      ],
      "name": "ExpiredOrderProcessed",
      "type": "event"
    },
    {
      "anonymous": false,
      "inputs": [
        {
          "indexed": true,
          "internalType": "uint256",
          "name": "id",
          "type": "uint256"
        },
        {
          "indexed": false,
          "internalType": "uint256",
          "name": "notIndexedArgumentSoTheThingDoesntBreak",
          "type": "uint256"
        }
      ],
      "name": "NewOrderAddedToPendingQueue",
      "type": "event"
    },
    {
      "anonymous": false,
      "inputs": [
        {
          "indexed": true,
          "internalType": "uint256",
          "name": "id",
          "type": "uint256"
        },
        {
          "indexed": true,
          "internalType": "address",
          "name": "sender",
          "type": "address"
        },
        {
          "indexed": false,
          "internalType": "address",
          "name": "baseTokenAddress",
          "type": "address"
        },
        {
          "indexed": false,
          "internalType": "address",
          "name": "secondaryTokenAddress",
          "type": "address"
        },
        {
          "indexed": false,
          "internalType": "uint256",
          "name": "exchangeableAmount",
          "type": "uint256"
        },
        {
          "indexed": false,
          "internalType": "uint256",
          "name": "reservedCommission",
          "type": "uint256"
        },
        {
          "indexed": false,
          "internalType": "uint256",
          "name": "price",
          "type": "uint256"
        },
        {
          "indexed": false,
          "internalType": "uint256",
          "name": "multiplyFactor",
          "type": "uint256"
        },
        {
          "indexed": false,
          "internalType": "uint64",
          "name": "expiresInTick",
          "type": "uint64"
        },
        {
          "indexed": false,
          "internalType": "bool",
          "name": "isBuy",
          "type": "bool"
        },
        {
          "indexed": false,
          "internalType": "enum MoCExchangeLib.OrderType",
          "name": "orderType",
          "type": "uint8"
        }
      ],
      "name": "NewOrderInserted",
      "type": "event"
    },
    {
      "anonymous": false,
      "inputs": [
        {
          "indexed": true,
          "internalType": "uint256",
          "name": "id",
          "type": "uint256"
        },
        {
          "indexed": true,
          "internalType": "address",
          "name": "sender",
          "type": "address"
        },
        {
          "indexed": false,
          "internalType": "uint256",
          "name": "returnedAmount",
          "type": "uint256"
        },
        {
          "indexed": false,
          "internalType": "uint256",
          "name": "commission",
          "type": "uint256"
        },
        {
          "indexed": false,
          "internalType": "uint256",
          "name": "returnedCommission",
          "type": "uint256"
        },
        {
          "indexed": false,
          "internalType": "bool",
          "name": "isBuy",
          "type": "bool"
        }
      ],
      "name": "OrderCancelled",
      "type": "event"
    },
    {
      "anonymous": false,
      "inputs": [
        {
          "indexed": false,
          "internalType": "address",
          "name": "account",
          "type": "address"
        }
      ],
      "name": "Paused",
      "type": "event"
    },
    {
      "anonymous": false,
      "inputs": [
        {
          "indexed": true,
          "internalType": "uint256",
          "name": "orderId",
          "type": "uint256"
        },
        {
          "indexed": false,
          "internalType": "uint256",
          "name": "amountSent",
          "type": "uint256"
        },
        {
          "indexed": false,
          "internalType": "uint256",
          "name": "commission",
          "type": "uint256"
        },
        {
          "indexed": false,
          "internalType": "uint256",
          "name": "received",
          "type": "uint256"
        },
        {
          "indexed": false,
          "internalType": "uint256",
          "name": "surplus",
          "type": "uint256"
        },
        {
          "indexed": false,
          "internalType": "uint256",
          "name": "remainingAmount",
          "type": "uint256"
        },
        {
          "indexed": false,
          "internalType": "uint256",
          "name": "matchPrice",
          "type": "uint256"
        },
        {
          "indexed": false,
          "internalType": "uint64",
          "name": "tickNumber",
          "type": "uint64"
        }
      ],
      "name": "SellerMatch",
      "type": "event"
    },
    {
      "anonymous": false,
      "inputs": [
        {
          "indexed": true,
          "internalType": "address",
          "name": "baseTokenAddress",
          "type": "address"
        },
        {
          "indexed": true,
          "internalType": "address",
          "name": "secondaryTokenAddress",
          "type": "address"
        },
        {
          "indexed": true,
          "internalType": "uint64",
          "name": "number",
          "type": "uint64"
        },
        {
          "indexed": false,
          "internalType": "uint256",
          "name": "nextTickBlock",
          "type": "uint256"
        },
        {
          "indexed": false,
          "internalType": "uint256",
          "name": "closingPrice",
          "type": "uint256"
        }
      ],
      "name": "TickEnd",
      "type": "event"
    },
    {
      "anonymous": false,
      "inputs": [
        {
          "indexed": true,
          "internalType": "address",
          "name": "baseTokenAddress",
          "type": "address"
        },
        {
          "indexed": true,
          "internalType": "address",
          "name": "secondaryTokenAddress",
          "type": "address"
        },
        {
          "indexed": false,
          "internalType": "uint64",
          "name": "number",
          "type": "uint64"
        }
      ],
      "name": "TickStart",
      "type": "event"
    },
    {
      "anonymous": false,
      "inputs": [
        {
          "indexed": false,
          "internalType": "address",
          "name": "baseToken",
          "type": "address"
        },
        {
          "indexed": false,
          "internalType": "address",
          "name": "secondaryToken",
          "type": "address"
        }
      ],
      "name": "TokenPairDisabled",
      "type": "event"
    },
    {
      "anonymous": false,
      "inputs": [
        {
          "indexed": false,
          "internalType": "address",
          "name": "baseToken",
          "type": "address"
        },
        {
          "indexed": false,
          "internalType": "address",
          "name": "secondaryToken",
          "type": "address"
        }
      ],
      "name": "TokenPairEnabled",
      "type": "event"
    },
    {
      "anonymous": false,
      "inputs": [
        {
          "indexed": true,
          "internalType": "address",
          "name": "_tokenAddress",
          "type": "address"
        },
        {
          "indexed": true,
          "internalType": "address",
          "name": "_to",
          "type": "address"
        },
        {
          "indexed": false,
          "internalType": "uint256",
          "name": "_amount",
          "type": "uint256"
        },
        {
          "indexed": false,
          "internalType": "bool",
          "name": "_isRevert",
          "type": "bool"
        }
      ],
      "name": "TransferFailed",
      "type": "event"
    },
    {
      "anonymous": false,
      "inputs": [
        {
          "indexed": false,
          "internalType": "address",
          "name": "account",
          "type": "address"
        }
      ],
      "name": "Unpaused",
      "type": "event"
    },
    {
      "inputs": [],
      "name": "PRECISION_SMOOTHING_FACTOR",
      "outputs": [
        {
          "internalType": "uint256",
          "name": "",
          "type": "uint256"
        }
      ],
      "stateMutability": "view",
      "type": "function"
    },
    {
      "inputs": [],
      "name": "SMOOTHING_FACTOR",
      "outputs": [
        {
          "internalType": "uint256",
          "name": "",
          "type": "uint256"
        }
      ],
      "stateMutability": "view",
      "type": "function"
    },
    {
      "inputs": [
        {
          "internalType": "address",
          "name": "_baseToken",
          "type": "address"
        },
        {
          "internalType": "address",
          "name": "_secondaryToken",
          "type": "address"
        },
        {
          "internalType": "address",
          "name": "_priceProvider",
          "type": "address"
        },
        {
          "internalType": "uint256",
          "name": "_priceComparisonPrecision",
          "type": "uint256"
        },
        {
          "internalType": "uint256",
          "name": "_initialPrice",
          "type": "uint256"
        }
      ],
      "name": "addTokenPair",
      "outputs": [],
      "stateMutability": "nonpayable",
      "type": "function"
    },
    {
      "inputs": [
        {
          "internalType": "address",
          "name": "_baseToken",
          "type": "address"
        },
        {
          "internalType": "address",
          "name": "_secondaryToken",
          "type": "address"
        },
        {
          "internalType": "bool",
          "name": "_evaluateBuyOrders",
          "type": "bool"
        }
      ],
      "name": "areOrdersToExpire",
      "outputs": [
        {
          "internalType": "bool",
          "name": "",
          "type": "bool"
        }
      ],
      "stateMutability": "view",
      "type": "function"
    },
    {
      "inputs": [
        {
          "internalType": "address",
          "name": "_baseToken",
          "type": "address"
        },
        {
          "internalType": "address",
          "name": "_secondaryToken",
          "type": "address"
        }
      ],
      "name": "buyOrdersLength",
      "outputs": [
        {
          "internalType": "uint256",
          "name": "",
          "type": "uint256"
        }
      ],
      "stateMutability": "view",
      "type": "function"
    },
    {
      "inputs": [
        {
          "internalType": "address",
          "name": "_baseToken",
          "type": "address"
        },
        {
          "internalType": "address",
          "name": "_secondaryToken",
          "type": "address"
        },
        {
          "internalType": "uint256",
          "name": "_orderId",
          "type": "uint256"
        },
        {
          "internalType": "uint256",
          "name": "_previousOrderIdHint",
          "type": "uint256"
        }
      ],
      "name": "cancelBuyOrder",
      "outputs": [],
      "stateMutability": "nonpayable",
      "type": "function"
    },
    {
      "inputs": [
        {
          "internalType": "address",
          "name": "_baseToken",
          "type": "address"
        },
        {
          "internalType": "address",
          "name": "_secondaryToken",
          "type": "address"
        },
        {
          "internalType": "uint256",
          "name": "_orderId",
          "type": "uint256"
        },
        {
          "internalType": "uint256",
          "name": "_previousOrderIdHint",
          "type": "uint256"
        }
      ],
      "name": "cancelSellOrder",
      "outputs": [],
      "stateMutability": "nonpayable",
      "type": "function"
    },
    {
      "inputs": [
        {
          "internalType": "contract IGovernor",
          "name": "newIGovernor",
          "type": "address"
        }
      ],
      "name": "changeIGovernor",
      "outputs": [],
      "stateMutability": "nonpayable",
      "type": "function"
    },
    {
      "inputs": [],
      "name": "commissionManager",
      "outputs": [
        {
          "internalType": "contract CommissionManager",
          "name": "",
          "type": "address"
        }
      ],
      "stateMutability": "view",
      "type": "function"
    },
    {
      "inputs": [
        {
          "internalType": "address",
          "name": "_tokenAddress",
          "type": "address"
        },
        {
          "internalType": "uint256",
          "name": "_amount",
          "type": "uint256"
        },
        {
          "internalType": "address",
          "name": "_baseAddress",
          "type": "address"
        }
      ],
      "name": "convertTokenToCommonBase",
      "outputs": [
        {
          "internalType": "uint256",
          "name": "convertedAmount",
          "type": "uint256"
        }
      ],
      "stateMutability": "view",
      "type": "function"
    },
    {
      "inputs": [
        {
          "internalType": "address",
          "name": "_baseToken",
          "type": "address"
        },
        {
          "internalType": "address",
          "name": "_secondaryToken",
          "type": "address"
        }
      ],
      "name": "disableTokenPair",
      "outputs": [],
      "stateMutability": "nonpayable",
      "type": "function"
    },
    {
      "inputs": [
        {
          "internalType": "address",
          "name": "_baseToken",
          "type": "address"
        },
        {
          "internalType": "address",
          "name": "_secondaryToken",
          "type": "address"
        }
      ],
      "name": "enableTokenPair",
      "outputs": [],
      "stateMutability": "nonpayable",
      "type": "function"
    },
    {
      "inputs": [
        {
          "internalType": "address",
          "name": "_baseToken",
          "type": "address"
        },
        {
          "internalType": "address",
          "name": "_secondaryToken",
          "type": "address"
        }
      ],
      "name": "getEmergentPrice",
      "outputs": [
        {
          "internalType": "uint256",
          "name": "emergentPrice",
          "type": "uint256"
        },
        {
          "internalType": "uint256",
          "name": "lastBuyMatchId",
          "type": "uint256"
        },
        {
          "internalType": "uint256",
          "name": "lastBuyMatchAmount",
          "type": "uint256"
        },
        {
          "internalType": "uint256",
          "name": "lastSellMatchId",
          "type": "uint256"
        }
      ],
      "stateMutability": "view",
      "type": "function"
    },
    {
      "inputs": [
        {
          "internalType": "address",
          "name": "_baseToken",
          "type": "address"
        },
        {
          "internalType": "address",
          "name": "_secondaryToken",
          "type": "address"
        }
      ],
      "name": "getLastClosingPrice",
      "outputs": [
        {
          "internalType": "uint256",
          "name": "lastClosingPrice",
          "type": "uint256"
        }
      ],
      "stateMutability": "view",
      "type": "function"
    },
    {
      "inputs": [
        {
          "internalType": "address",
          "name": "_baseToken",
          "type": "address"
        },
        {
          "internalType": "address",
          "name": "_secondaryToken",
          "type": "address"
        }
      ],
      "name": "getMarketPrice",
      "outputs": [
        {
          "internalType": "uint256",
          "name": "",
          "type": "uint256"
        }
      ],
      "stateMutability": "view",
      "type": "function"
    },
    {
      "inputs": [
        {
          "internalType": "address",
          "name": "_baseToken",
          "type": "address"
        },
        {
          "internalType": "address",
          "name": "_secondaryToken",
          "type": "address"
        }
      ],
      "name": "getNextTick",
      "outputs": [
        {
          "internalType": "uint64",
          "name": "tickNumber",
          "type": "uint64"
        },
        {
          "internalType": "uint256",
          "name": "nextTickBlock",
          "type": "uint256"
        },
        {
          "internalType": "uint256",
          "name": "lastTickBlock",
          "type": "uint256"
        }
      ],
      "stateMutability": "view",
      "type": "function"
    },
    {
      "inputs": [
        {
          "internalType": "address",
          "name": "_baseToken",
          "type": "address"
        },
        {
          "internalType": "address",
          "name": "_secondaryToken",
          "type": "address"
        }
      ],
      "name": "getPriceProvider",
      "outputs": [
        {
          "internalType": "address",
          "name": "",
          "type": "address"
        }
      ],
      "stateMutability": "view",
      "type": "function"
    },
    {
      "inputs": [
        {
          "internalType": "address",
          "name": "_baseToken",
          "type": "address"
        },
        {
          "internalType": "address",
          "name": "_secondaryToken",
          "type": "address"
        }
      ],
      "name": "getTickStage",
      "outputs": [
        {
          "internalType": "enum MoCExchangeLib.TickStage",
          "name": "stage",
          "type": "uint8"
        }
      ],
      "stateMutability": "view",
      "type": "function"
    },
    {
      "inputs": [
        {
          "internalType": "address",
          "name": "_baseToken",
          "type": "address"
        },
        {
          "internalType": "address",
          "name": "_secondaryToken",
          "type": "address"
        }
      ],
      "name": "getTokenPairStatus",
      "outputs": [
        {
          "internalType": "uint256",
          "name": "emergentPrice",
          "type": "uint256"
        },
        {
          "internalType": "uint256",
          "name": "lastBuyMatchId",
          "type": "uint256"
        },
        {
          "internalType": "uint256",
          "name": "lastBuyMatchAmount",
          "type": "uint256"
        },
        {
          "internalType": "uint256",
          "name": "lastSellMatchId",
          "type": "uint256"
        },
        {
          "internalType": "uint64",
          "name": "tickNumber",
          "type": "uint64"
        },
        {
          "internalType": "uint256",
          "name": "nextTickBlock",
          "type": "uint256"
        },
        {
          "internalType": "uint256",
          "name": "lastTickBlock",
          "type": "uint256"
        },
        {
          "internalType": "uint256",
          "name": "lastClosingPrice",
          "type": "uint256"
        },
        {
          "internalType": "bool",
          "name": "disabled",
          "type": "bool"
        },
        {
          "internalType": "uint256",
          "name": "emaPrice",
          "type": "uint256"
        },
        {
          "internalType": "uint256",
          "name": "smoothingFactor",
          "type": "uint256"
        },
        {
          "internalType": "uint256",
          "name": "marketPrice",
          "type": "uint256"
        }
      ],
      "stateMutability": "view",
      "type": "function"
    },
    {
      "inputs": [],
      "name": "getTokenPairs",
      "outputs": [
        {
          "internalType": "address[2][]",
          "name": "",
          "type": "address[2][]"
        }
      ],
      "stateMutability": "view",
      "type": "function"
    },
    {
      "inputs": [],
      "name": "governor",
      "outputs": [
        {
          "internalType": "contract IGovernor",
          "name": "",
          "type": "address"
        }
      ],
      "stateMutability": "view",
      "type": "function"
    },
    {
      "inputs": [
        {
          "internalType": "address",
          "name": "_baseToken",
          "type": "address"
        },
        {
          "internalType": "address",
          "name": "_secondaryToken",
          "type": "address"
        }
      ],
      "name": "hashAddresses",
      "outputs": [
        {
          "internalType": "bytes32",
          "name": "",
          "type": "bytes32"
        }
      ],
      "stateMutability": "pure",
      "type": "function"
    },
    {
      "inputs": [
        {
          "internalType": "address",
          "name": "_stopper",
          "type": "address"
        },
        {
          "internalType": "address",
          "name": "_governor",
          "type": "address"
        }
      ],
      "name": "initialize",
      "outputs": [],
      "stateMutability": "nonpayable",
      "type": "function"
    },
    {
      "inputs": [],
      "name": "initialize",
      "outputs": [],
      "stateMutability": "nonpayable",
      "type": "function"
    },
    {
      "inputs": [
        {
          "internalType": "address",
          "name": "_commonBaseTokenAddress",
          "type": "address"
        },
        {
          "internalType": "contract CommissionManager",
          "name": "_commissionManager",
          "type": "address"
        },
        {
          "internalType": "uint64",
          "name": "_expectedOrdersForTick",
          "type": "uint64"
        },
        {
          "internalType": "uint64",
          "name": "_maxBlocksForTick",
          "type": "uint64"
        },
        {
          "internalType": "uint64",
          "name": "_minBlocksForTick",
          "type": "uint64"
        },
        {
          "internalType": "uint256",
          "name": "_minOrderAmount",
          "type": "uint256"
        },
        {
          "internalType": "uint256",
          "name": "_minMultiplyFactor",
          "type": "uint256"
        },
        {
          "internalType": "uint256",
          "name": "_maxMultiplyFactor",
          "type": "uint256"
        },
        {
          "internalType": "uint64",
          "name": "_maxOrderLifespan",
          "type": "uint64"
        },
        {
          "internalType": "address",
          "name": "_governor",
          "type": "address"
        },
        {
          "internalType": "address",
          "name": "_stopper",
          "type": "address"
        }
      ],
      "name": "initialize",
      "outputs": [],
      "stateMutability": "nonpayable",
      "type": "function"
    },
    {
      "inputs": [
        {
          "internalType": "address",
          "name": "_governor",
          "type": "address"
        }
      ],
      "name": "initialize",
      "outputs": [],
      "stateMutability": "nonpayable",
      "type": "function"
    },
    {
      "inputs": [
        {
          "internalType": "address",
          "name": "_stopper",
          "type": "address"
        },
        {
          "internalType": "address",
          "name": "_governor",
          "type": "address"
        },
        {
          "internalType": "bool",
          "name": "_stoppable",
          "type": "bool"
        }
      ],
      "name": "initialize",
      "outputs": [],
      "stateMutability": "nonpayable",
      "type": "function"
    },
    {
      "inputs": [
        {
          "internalType": "address",
          "name": "_baseToken",
          "type": "address"
        },
        {
          "internalType": "address",
          "name": "_secondaryToken",
          "type": "address"
        },
        {
          "internalType": "uint256",
          "name": "_amount",
          "type": "uint256"
        },
        {
          "internalType": "uint256",
          "name": "_price",
          "type": "uint256"
        },
        {
          "internalType": "uint64",
          "name": "_lifespan",
          "type": "uint64"
        }
      ],
      "name": "insertBuyLimitOrder",
      "outputs": [],
      "stateMutability": "nonpayable",
      "type": "function"
    },
    {
      "inputs": [
        {
          "internalType": "address",
          "name": "_baseToken",
          "type": "address"
        },
        {
          "internalType": "address",
          "name": "_secondaryToken",
          "type": "address"
        },
        {
          "internalType": "uint256",
          "name": "_amount",
          "type": "uint256"
        },
        {
          "internalType": "uint256",
          "name": "_price",
          "type": "uint256"
        },
        {
          "internalType": "uint64",
          "name": "_lifespan",
          "type": "uint64"
        },
        {
          "internalType": "uint256",
          "name": "_previousOrderIdHint",
          "type": "uint256"
        }
      ],
      "name": "insertBuyLimitOrderAfter",
      "outputs": [],
      "stateMutability": "nonpayable",
      "type": "function"
    },
    {
      "inputs": [
        {
          "internalType": "address",
          "name": "_baseToken",
          "type": "address"
        },
        {
          "internalType": "address",
          "name": "_secondaryToken",
          "type": "address"
        },
        {
          "internalType": "uint256",
          "name": "_amount",
          "type": "uint256"
        },
        {
          "internalType": "uint256",
          "name": "_multiplyFactor",
          "type": "uint256"
        },
        {
          "internalType": "uint64",
          "name": "_lifespan",
          "type": "uint64"
        },
        {
          "internalType": "bool",
          "name": "_isBuy",
          "type": "bool"
        }
      ],
      "name": "insertMarketOrder",
      "outputs": [],
      "stateMutability": "nonpayable",
      "type": "function"
    },
    {
      "inputs": [
        {
          "internalType": "address",
          "name": "_baseToken",
          "type": "address"
        },
        {
          "internalType": "address",
          "name": "_secondaryToken",
          "type": "address"
        },
        {
          "internalType": "uint256",
          "name": "_amount",
          "type": "uint256"
        },
        {
          "internalType": "uint256",
          "name": "_price",
          "type": "uint256"
        },
        {
          "internalType": "uint64",
          "name": "_lifespan",
          "type": "uint64"
        }
      ],
      "name": "insertSellLimitOrder",
      "outputs": [],
      "stateMutability": "nonpayable",
      "type": "function"
    },
    {
      "inputs": [
        {
          "internalType": "address",
          "name": "_baseToken",
          "type": "address"
        },
        {
          "internalType": "address",
          "name": "_secondaryToken",
          "type": "address"
        },
        {
          "internalType": "uint256",
          "name": "_amount",
          "type": "uint256"
        },
        {
          "internalType": "uint256",
          "name": "_price",
          "type": "uint256"
        },
        {
          "internalType": "uint64",
          "name": "_lifespan",
          "type": "uint64"
        },
        {
          "internalType": "uint256",
          "name": "_previousOrderIdHint",
          "type": "uint256"
        }
      ],
      "name": "insertSellLimitOrderAfter",
      "outputs": [],
      "stateMutability": "nonpayable",
      "type": "function"
    },
    {
      "inputs": [],
      "name": "makeStoppable",
      "outputs": [],
      "stateMutability": "nonpayable",
      "type": "function"
    },
    {
      "inputs": [],
      "name": "makeUnstoppable",
      "outputs": [],
      "stateMutability": "nonpayable",
      "type": "function"
    },
    {
      "inputs": [
        {
          "internalType": "address",
          "name": "_baseToken",
          "type": "address"
        },
        {
          "internalType": "address",
          "name": "_secondaryToken",
          "type": "address"
        },
        {
          "internalType": "uint256",
          "name": "steps",
          "type": "uint256"
        }
      ],
      "name": "matchOrders",
      "outputs": [],
      "stateMutability": "nonpayable",
      "type": "function"
    },
    {
      "inputs": [
        {
          "internalType": "address",
          "name": "_baseToken",
          "type": "address"
        },
        {
          "internalType": "address",
          "name": "_secondaryToken",
          "type": "address"
        },
        {
          "internalType": "uint256",
          "name": "steps",
          "type": "uint256"
        },
        {
          "internalType": "uint256[]",
          "name": "hintIds",
          "type": "uint256[]"
        }
      ],
      "name": "matchOrdersWithHints",
      "outputs": [],
      "stateMutability": "nonpayable",
      "type": "function"
    },
    {
      "inputs": [],
      "name": "maxMultiplyFactor",
      "outputs": [
        {
          "internalType": "uint256",
          "name": "",
          "type": "uint256"
        }
      ],
      "stateMutability": "view",
      "type": "function"
    },
    {
      "inputs": [],
      "name": "maxOrderLifespan",
      "outputs": [
        {
          "internalType": "uint64",
          "name": "",
          "type": "uint64"
        }
      ],
      "stateMutability": "view",
      "type": "function"
    },
    {
      "inputs": [],
      "name": "minMultiplyFactor",
      "outputs": [
        {
          "internalType": "uint256",
          "name": "",
          "type": "uint256"
        }
      ],
      "stateMutability": "view",
      "type": "function"
    },
    {
      "inputs": [],
      "name": "minOrderAmount",
      "outputs": [
        {
          "internalType": "uint256",
          "name": "",
          "type": "uint256"
        }
      ],
      "stateMutability": "view",
      "type": "function"
    },
    {
      "inputs": [],
      "name": "pause",
      "outputs": [],
      "stateMutability": "nonpayable",
      "type": "function"
    },
    {
      "inputs": [],
      "name": "paused",
      "outputs": [
        {
          "internalType": "bool",
          "name": "",
          "type": "bool"
        }
      ],
      "stateMutability": "view",
      "type": "function"
    },
    {
      "inputs": [
        {
          "internalType": "address",
          "name": "_baseToken",
          "type": "address"
        },
        {
          "internalType": "address",
          "name": "_secondaryToken",
          "type": "address"
        }
      ],
      "name": "pendingBuyOrdersLength",
      "outputs": [
        {
          "internalType": "uint256",
          "name": "",
          "type": "uint256"
        }
      ],
      "stateMutability": "view",
      "type": "function"
    },
    {
      "inputs": [
        {
          "internalType": "address",
          "name": "_baseToken",
          "type": "address"
        },
        {
          "internalType": "address",
          "name": "_secondaryToken",
          "type": "address"
        },
        {
          "internalType": "bool",
          "name": "_isBuy",
          "type": "bool"
        }
      ],
      "name": "pendingMarketOrdersLength",
      "outputs": [
        {
          "internalType": "uint256",
          "name": "",
          "type": "uint256"
        }
      ],
      "stateMutability": "view",
      "type": "function"
    },
    {
      "inputs": [
        {
          "internalType": "address",
          "name": "_baseToken",
          "type": "address"
        },
        {
          "internalType": "address",
          "name": "_secondaryToken",
          "type": "address"
        }
      ],
      "name": "pendingSellOrdersLength",
      "outputs": [
        {
          "internalType": "uint256",
          "name": "",
          "type": "uint256"
        }
      ],
      "stateMutability": "view",
      "type": "function"
    },
    {
      "inputs": [
        {
          "internalType": "address",
          "name": "_baseToken",
          "type": "address"
        },
        {
          "internalType": "address",
          "name": "_secondaryToken",
          "type": "address"
        },
        {
          "internalType": "bool",
          "name": "_evaluateBuyOrders",
          "type": "bool"
        },
        {
          "internalType": "uint256",
          "name": "_orderId",
          "type": "uint256"
        },
        {
          "internalType": "uint256",
          "name": "_previousOrderIdHint",
          "type": "uint256"
        },
        {
          "internalType": "uint256",
          "name": "_steps",
          "type": "uint256"
        },
        {
          "internalType": "enum MoCExchangeLib.OrderType",
          "name": "_orderType",
          "type": "uint8"
        }
      ],
      "name": "processExpired",
      "outputs": [],
      "stateMutability": "nonpayable",
      "type": "function"
    },
    {
      "inputs": [
        {
          "internalType": "address",
          "name": "_baseToken",
          "type": "address"
        },
        {
          "internalType": "address",
          "name": "_secondaryToken",
          "type": "address"
        }
      ],
      "name": "sellOrdersLength",
      "outputs": [
        {
          "internalType": "uint256",
          "name": "",
          "type": "uint256"
        }
      ],
      "stateMutability": "view",
      "type": "function"
    },
    {
      "inputs": [
        {
          "internalType": "uint64",
          "name": "_expectedOrdersForTick",
          "type": "uint64"
        }
      ],
      "name": "setExpectedOrdersForTick",
      "outputs": [],
      "stateMutability": "nonpayable",
      "type": "function"
    },
    {
      "inputs": [
        {
          "internalType": "address",
          "name": "_baseToken",
          "type": "address"
        },
        {
          "internalType": "address",
          "name": "_secondaryToken",
          "type": "address"
        },
        {
          "internalType": "uint256",
          "name": "_price",
          "type": "uint256"
        }
      ],
      "name": "setLastClosingPrice",
      "outputs": [],
      "stateMutability": "nonpayable",
      "type": "function"
    },
    {
      "inputs": [
        {
          "internalType": "uint64",
          "name": "_maxBlocksForTick",
          "type": "uint64"
        }
      ],
      "name": "setMaxBlocksForTick",
      "outputs": [],
      "stateMutability": "nonpayable",
      "type": "function"
    },
    {
      "inputs": [
        {
          "internalType": "uint256",
          "name": "_maxMultiplyFactor",
          "type": "uint256"
        }
      ],
      "name": "setMaxMultiplyFactor",
      "outputs": [],
      "stateMutability": "nonpayable",
      "type": "function"
    },
    {
      "inputs": [
        {
          "internalType": "uint64",
          "name": "_maxOrderLifespan",
          "type": "uint64"
        }
      ],
      "name": "setMaxOrderLifespan",
      "outputs": [],
      "stateMutability": "nonpayable",
      "type": "function"
    },
    {
      "inputs": [
        {
          "internalType": "uint64",
          "name": "_minBlocksForTick",
          "type": "uint64"
        }
      ],
      "name": "setMinBlocksForTick",
      "outputs": [],
      "stateMutability": "nonpayable",
      "type": "function"
    },
    {
      "inputs": [
        {
          "internalType": "uint256",
          "name": "_minMultiplyFactor",
          "type": "uint256"
        }
      ],
      "name": "setMinMultiplyFactor",
      "outputs": [],
      "stateMutability": "nonpayable",
      "type": "function"
    },
    {
      "inputs": [
        {
          "internalType": "uint256",
          "name": "_minOrderAmount",
          "type": "uint256"
        }
      ],
      "name": "setMinOrderAmount",
      "outputs": [],
      "stateMutability": "nonpayable",
      "type": "function"
    },
    {
      "inputs": [
        {
          "internalType": "address",
          "name": "_baseToken",
          "type": "address"
        },
        {
          "internalType": "address",
          "name": "_secondaryToken",
          "type": "address"
        },
        {
          "internalType": "address",
          "name": "_priceProvider",
          "type": "address"
        }
      ],
      "name": "setPriceProvider",
      "outputs": [],
      "stateMutability": "nonpayable",
      "type": "function"
    },
    {
      "inputs": [
        {
          "internalType": "address",
          "name": "newStopper",
          "type": "address"
        }
      ],
      "name": "setStopper",
      "outputs": [],
      "stateMutability": "nonpayable",
      "type": "function"
    },
    {
      "inputs": [
        {
          "internalType": "address",
          "name": "_baseToken",
          "type": "address"
        },
        {
          "internalType": "address",
          "name": "_secondaryToken",
          "type": "address"
        },
        {
          "internalType": "uint256",
          "name": "_emaPrice",
          "type": "uint256"
        }
      ],
      "name": "setTokenPairEmaPrice",
      "outputs": [],
      "stateMutability": "nonpayable",
      "type": "function"
    },
    {
      "inputs": [
        {
          "internalType": "address",
          "name": "_baseToken",
          "type": "address"
        },
        {
          "internalType": "address",
          "name": "_secondaryToken",
          "type": "address"
        },
        {
          "internalType": "uint256",
          "name": "_smoothingFactor",
          "type": "uint256"
        }
      ],
      "name": "setTokenPairSmoothingFactor",
      "outputs": [],
      "stateMutability": "nonpayable",
      "type": "function"
    },
    {
      "inputs": [],
      "name": "stoppable",
      "outputs": [
        {
          "internalType": "bool",
          "name": "",
          "type": "bool"
        }
      ],
      "stateMutability": "view",
      "type": "function"
    },
    {
      "inputs": [],
      "name": "stopper",
      "outputs": [
        {
          "internalType": "address",
          "name": "",
          "type": "address"
        }
      ],
      "stateMutability": "view",
      "type": "function"
    },
    {
      "inputs": [],
      "name": "tickConfig",
      "outputs": [
        {
          "internalType": "uint256",
          "name": "expectedOrdersForTick",
          "type": "uint256"
        },
        {
          "internalType": "uint256",
          "name": "maxBlocksForTick",
          "type": "uint256"
        },
        {
          "internalType": "uint256",
          "name": "minBlocksForTick",
          "type": "uint256"
        }
      ],
      "stateMutability": "view",
      "type": "function"
    },
    {
      "inputs": [
        {
          "internalType": "address",
          "name": "_baseToken",
          "type": "address"
        },
        {
          "internalType": "address",
          "name": "_secondaryToken",
          "type": "address"
        }
      ],
      "name": "tickIsRunning",
      "outputs": [
        {
          "internalType": "bool",
          "name": "",
          "type": "bool"
        }
      ],
      "stateMutability": "view",
      "type": "function"
    },
    {
      "inputs": [
        {
          "internalType": "uint256",
          "name": "",
          "type": "uint256"
        },
        {
          "internalType": "uint256",
          "name": "",
          "type": "uint256"
        }
      ],
      "name": "tokenPairAddresses",
      "outputs": [
        {
          "internalType": "address",
          "name": "",
          "type": "address"
        }
      ],
      "stateMutability": "view",
      "type": "function"
    },
    {
      "inputs": [],
      "name": "tokenPairCount",
      "outputs": [
        {
          "internalType": "uint256",
          "name": "",
          "type": "uint256"
        }
      ],
      "stateMutability": "view",
      "type": "function"
    },
    {
      "inputs": [],
      "name": "unpause",
      "outputs": [],
      "stateMutability": "nonpayable",
      "type": "function"
    },
    {
      "inputs": [
        {
          "internalType": "address",
          "name": "token",
          "type": "address"
        }
      ],
      "name": "withdrawCommissions",
      "outputs": [],
      "stateMutability": "nonpayable",
      "type": "function"
    }
  ],
  "bytecode": "0x608060405234801561001057600080fd5b506001610168556145f7806100266000396000f3fe608060405234801561001057600080fd5b50600436106103f15760003560e01c806379c5827c11610215578063b6e0833011610125578063df318d1b116100b8578063ec62d9ef11610087578063ec62d9ef14610933578063f2b24da314610946578063f5b5f6cb14610959578063fc3a49621461096c578063ff0e4bac1461097f57600080fd5b8063df318d1b146108e5578063e24e4fdb146108f8578063e3204b221461090d578063e4bbb5a81461092057600080fd5b8063c4d66de8116100f4578063c4d66de814610892578063c4e82c1a146108a5578063c520bc92146108b8578063d1a76714146108cb57600080fd5b8063b6e0833014610826578063bb4872de14610839578063bbc92f5014610847578063c227b51c1461085a57600080fd5b806395b6f0d4116101a8578063a3b8ef0411610177578063a3b8ef04146107de578063ae067854146107f1578063afac413f146107ff578063b232634c14610809578063b5febde01461081c57600080fd5b806395b6f0d41461076b5780639c27ee4c1461078b5780639df64e1e146107b8578063a268e212146107cb57600080fd5b806389f1b1e3116101e457806389f1b1e31461071f5780638dfc04391461073257806391988cb8146107455780639221ffa61461075857600080fd5b806379c5827c146106e957806380446d87146106fc5780638129fc1c1461070f5780638456cb591461071757600080fd5b80633f4ba83a1161031057806351f7a854116102a35780635a3970b1116102725780635a3970b11461068b5780635c975abb1461069e57806364ce594c146106bb57806368274357146106ce5780636bf5de4d146106d657600080fd5b806351f7a8541461064a5780635210570c1461065d57806352826184146106655780635394e8e61461067857600080fd5b8063485cc955116102df578063485cc955146105fe5780634a272132146106115780634e420fd41461062457806350090c6b1461063757600080fd5b80633f4ba83a146105c657806341f3844d146105ce57806342872a02146105e157806346b62c4a146105f457600080fd5b806320aab0731161038857806333ccf3401161035757806333ccf34014610585578063340f965a1461059857806337db0273146105ab5780633991dfe8146105be57600080fd5b806320aab0731461051657806320ad3f0114610533578063237d9c8e14610546578063324773801461057257600080fd5b806314fced94116103c457806314fced94146104675780631617b9221461047a57806316dedc841461048d5780631c5129e91461050357600080fd5b80630a2c1470146103f65780630a58f47a1461040b5780630c340a241461041e5780630ef51d0d1461044e575b600080fd5b610409610404366004613c6e565b6109b2565b005b610409610419366004613ced565b610aa6565b603354610431906001600160a01b031681565b6040516001600160a01b0390911681526020015b60405180910390f35b610169546104319061010090046001600160a01b031681565b610409610475366004613d0a565b610ad9565b610409610488366004613d43565b610b12565b6104a061049b366004613d0a565b610b4f565b604080519c8d5260208d019b909b52998b019890985260608a01969096526001600160401b03909416608089015260a088019290925260c087015260e0860152151561010085015261012084015261014083015261016082015261018001610445565b610409610511366004613d0a565b610bac565b610525670de0b6b3a764000081565b604051908152602001610445565b610431610541366004613d89565b610bdf565b61019f5461055a906001600160401b031681565b6040516001600160401b039091168152602001610445565b610409610580366004613dab565b610c1d565b610409610593366004613dab565b610ca7565b6104096105a6366004613e03565b610cc7565b6104096105b9366004613e1e565b610d37565b609c54610525565b610409610e2a565b6105256105dc366004613d0a565b610f16565b6105256105ef366004613d0a565b610f2f565b61052561019c5481565b61040961060c366004613d0a565b610fbb565b61040961061f366004613e03565b61103f565b610409610632366004613e69565b611080565b610525610645366004613d0a565b611123565b610409610658366004613ced565b61113d565b6104096111d1565b610409610673366004613dab565b6111e6565b610525610686366004613d0a565b61126f565b610431610699366004613d0a565b61128c565b61013554610100900460ff165b6040519015158152602001610445565b6104096106c9366004613ecc565b6112ae565b610409611312565b6106ab6106e4366004613f3a565b61132a565b6106ab6106f7366004613d0a565b6113c0565b61052561070a366004613f3a565b6113e7565b6104096113fc565b610409611471565b61040961072d366004613e03565b61159d565b610409610740366004613f7a565b6115c9565b610409610753366004613d43565b611687565b61040961076636600461403b565b6116bc565b61077e610779366004613d0a565b61175b565b6040516104459190614102565b60665460675460685461079d92919083565b60408051938452602084019290925290820152606001610445565b6105256107c6366004613d0a565b611775565b6104096107d9366004614115565b61178c565b6104096107ec366004614170565b6117a3565b610525663ab9f28a23200081565b61052561019e5481565b610409610817366004614115565b6117b1565b61052561019d5481565b610409610834366004613ced565b6117c1565b610135546106ab9060ff1681565b610409610855366004614170565b6117eb565b61086d610868366004613d0a565b6117f9565b604080516001600160401b039094168452602084019290925290820152606001610445565b6104096108a0366004613ced565b611831565b6104096108b3366004614170565b6118c3565b6104096108c6366004614189565b6118d1565b61013554610431906201000090046001600160a01b031681565b6105256108f33660046141e4565b611a2d565b610900611a8c565b604051610445919061421b565b61040961091b366004613e03565b611b13565b61040961092e366004613f3a565b611b54565b610409610941366004613e69565b611c07565b610525610954366004613d0a565b611c9d565b610409610967366004613dab565b611ce8565b61052561097a366004613d0a565b611d49565b61099261098d366004613d0a565b611d5f565b604080519485526020850193909352918301526060820152608001610445565b6101355460408051808201909152601281526000805160206145a2833981519152602082015290610100900460ff1615610a085760405162461bcd60e51b81526004016109ff919061428d565b60405180910390fd5b506000610a158888611e1b565b61016954604051631a69cb3b60e31b815291925073__$4a165dabbfd6ff3f3f3890617dd1870b68$__9163d34e59d891610a6c91859161010090046001600160a01b0316908b908b908b908b908b906004016142dc565b60006040518083038186803b158015610a8457600080fd5b505af4158015610a98573d6000803e3d6000fd5b505050505050505050505050565b610aae611e7a565b61013580546001600160a01b03909216620100000262010000600160b01b0319909216919091179055565b8181610ae582826113c0565b15610b025760405162461bcd60e51b81526004016109ff90614331565b610b0c8484611f33565b50505050565b8383610b1e82826113c0565b15610b3b5760405162461bcd60e51b81526004016109ff90614331565b610b4786868686611fef565b505050505050565b600080600080600080600080600080600080610b6b8e8e612053565b959d50939b509199509750955093509150610b868e8e611d5f565b929e50909c509a509850610b9a8e8e610f2f565b90509295989b509295989b509295989b565b8181610bb882826113c0565b15610bd55760405162461bcd60e51b81526004016109ff90614331565b610b0c84846120c3565b609c8281548110610bef57600080fd5b90600052602060002090600202018160028110610c0b57600080fd5b01546001600160a01b03169150829050565b610c25611e7a565b6000610c318484611e1b565b9050670de0b6b3a7640000821115610c9f5760405162461bcd60e51b815260206004820152602b60248201527f536d6f6f7468696e6720666163746f722073686f756c6420626520696e20726560448201526a6c6174696f6e20746f203160a81b60648201526084016109ff565b603f01555050565b610caf611e7a565b6000610cbb8484611e1b565b603e0191909155505050565b610ccf611e7a565b6002816001600160401b03161015610d295760405162461bcd60e51b815260206004820181905260248201527f4578706563746564206f726465727320666f72207469636b20746f6f206c6f7760448201526064016109ff565b6001600160401b0316606655565b610d3f611e7a565b610d498383612171565b610d955760405162461bcd60e51b815260206004820152601760248201527f546865207061697220646f6573206e6f7420657869737400000000000000000060448201526064016109ff565b6001600160a01b038116610df75760405162461bcd60e51b8152602060048201526024808201527f50726963652070726f766964657220616464726573732063616e206e6f7420626044820152630ca4060f60e31b60648201526084016109ff565b6000610e038484611e1b565b601c0180546001600160a01b0319166001600160a01b039390931692909217909155505050565b6101355460408051808201909152600b81526a3737ba2fb9ba37b83832b960a91b6020820152906201000090046001600160a01b03163314610e7f5760405162461bcd60e51b81526004016109ff919061428d565b5061013554604080518082019091526012815271636f6e74726163745f69735f61637469766560701b602082015290610100900460ff16610ed35760405162461bcd60e51b81526004016109ff919061428d565b50610135805461ff00191690556040513381527f5db9ee0a495bf2e6ff9c91a7834c1ba4fdd244a5e8aa4e537bd38aeae4b073aa906020015b60405180910390a1565b6000610f228383612185565b6003015490505b92915050565b600080610f3c8484612185565b60405163323bfe2160e01b81526004810182905290915073__$4a165dabbfd6ff3f3f3890617dd1870b68$__9063323bfe2190602401602060405180830381865af4158015610f8f573d6000803e3d6000fd5b505050506040513d601f19601f82011682018060405250810190610fb3919061435a565b949350505050565b600054610100900460ff1680610fd05750303b155b80610fde575060005460ff16155b610ffa5760405162461bcd60e51b81526004016109ff90614373565b600054610100900460ff1615801561101c576000805461ffff19166101011790555b61102883836001611b54565b801561103a576000805461ff00191690555b505050565b611047611e7a565b6068546001600160401b03821610156110725760405162461bcd60e51b81526004016109ff906143c1565b6001600160401b0316606755565b84848761108e8383836121ab565b61019f5485906001600160401b0390811690821611156110c05760405162461bcd60e51b81526004016109ff9061440a565b86806000036111085760405162461bcd60e51b815260206004820152601460248201527350726963652063616e6e6f74206265207a65726f60601b60448201526064016109ff565b6111168b8b8b8b8b8b6121fe565b5050505050505050505050565b600061112f8383612053565b509198975050505050505050565b611145612262565b6101695460405163a82a575960e01b81526001600160a01b038084166004830152610100909204909116602482015273__$4a165dabbfd6ff3f3f3890617dd1870b68$__9063a82a57599060440160006040518083038186803b1580156111ab57600080fd5b505af41580156111bf573d6000803e3d6000fd5b505050506111ce600161016855565b50565b6111d9611e7a565b610135805460ff19169055565b6111ee611e7a565b600081116112575760405162461bcd60e51b815260206004820152603060248201527f54686520676976656e20696e697469616c2070726963652073686f756c64206260448201526f0652067726561746572207468616e20360841b60648201526084016109ff565b60006112638484611e1b565b603c0191909155505050565b600061128561127e8484612185565b6018015490565b9392505050565b6000806112998484612185565b601c01546001600160a01b0316949350505050565b61019f5482906001600160401b0390811690821611156112e05760405162461bcd60e51b81526004016109ff9061440a565b836112ea8161228e565b826112f557866112f7565b875b86896113048383836121ab565b6111168b8b8b8b8b8b612368565b61131a611e7a565b610135805460ff19166001179055565b6000806113378585611e1b565b604051631ce3be8560e31b815260048101829052841515602482015290915073__$4a165dabbfd6ff3f3f3890617dd1870b68$__9063e71df428906044015b602060405180830381865af4158015611393573d6000803e3d6000fd5b505050506040513d601f19601f820116820180604052508101906113b79190614435565b95945050505050565b6000806113cd848461175b565b60038111156113de576113de6140dc565b14159392505050565b6000610fb36113f68585612185565b836123c7565b600054610100900460ff16806114115750303b155b8061141f575060005460ff16155b61143b5760405162461bcd60e51b81526004016109ff90614373565b600054610100900460ff1615801561145d576000805461ffff19166101011790555b80156111ce576000805461ff001916905550565b6101355460408051808201909152600b81526a756e73746f707061626c6560a81b60208201529060ff166114b85760405162461bcd60e51b81526004016109ff919061428d565b506101355460408051808201909152600b81526a3737ba2fb9ba37b83832b960a91b6020820152906201000090046001600160a01b0316331461150e5760405162461bcd60e51b81526004016109ff919061428d565b506101355460408051808201909152601281526000805160206145a2833981519152602082015290610100900460ff161561155c5760405162461bcd60e51b81526004016109ff919061428d565b50610135805461ff0019166101001790556040513381527f62e78cea01bee320cd4e420270b5ea74000d11b0c9f74754ebdbfc544b05a25890602001610f0c565b6115a5611e7a565b61019f805467ffffffffffffffff19166001600160401b0392909216919091179055565b600054610100900460ff16806115de5750303b155b806115ec575060005460ff16155b6116085760405162461bcd60e51b81526004016109ff90614373565b600054610100900460ff1615801561162a576000805461ffff19166101011790555b6116398c8c8c8c8c88886123e1565b61019c87905561019f805467ffffffffffffffff19166001600160401b03861617905561019d86905561019e8590558015610a98576000805461ff0019169055505050505050505050505050565b838361169382826113c0565b156116b05760405162461bcd60e51b81526004016109ff90614331565b610b47868686866124a1565b6101355460408051808201909152601281526000805160206145a2833981519152602082015290610100900460ff16156117095760405162461bcd60e51b81526004016109ff919061428d565b5060006117168686611e1b565b60218101915061172a906023018484613b7b565b5061173e6117388787612505565b85612511565b61174c600282016000613bc6565b60006003909101555050505050565b60006117678383611e1b565b603a015460ff169392505050565b60006117818383612185565b601101549392505050565b61179c8585858585600019611c07565b5050505050565b6117ab611e7a565b61019c55565b61179c8585858585600019611080565b6117c9611e7a565b603380546001600160a01b0319166001600160a01b0392909216919091179055565b6117f3611e7a565b61019d55565b6000806000806118098686612185565b6020810154601d820154601e909201546001600160401b039091169891975095509350505050565b600054610100900460ff16806118465750303b155b80611854575060005460ff16155b6118705760405162461bcd60e51b81526004016109ff90614373565b600054610100900460ff16158015611892576000805461ffff19166101011790555b603380546001600160a01b0319166001600160a01b03841617905580156118bf576000805461ff00191690555b5050565b6118cb611e7a565b61019e55565b6118de8585858585612521565b60006118ea8686612505565b60408051600380825260808201909252919250600091906020820160608036833701905050905061191c826000612596565b8160008151811061192f5761192f614452565b602002602001018181525050611946826001612596565b8160018151811061195957611959614452565b602002602001018181525050611970826002612596565b8160028151811061198357611983614452565b60209081029190910101526119ba816000815181106119a4576119a4614452565b60200260200101516125ab6126626126f761273d565b6119e6816001815181106119d0576119d0614452565b602002602001015161274c6127ab6118bf61273d565b611a12816002815181106119fc576119fc614452565b60200260200101516127fc6128436118bf61273d565b611a24828261288e6128c36001612937565b50505050505050565b60cf546000906001600160a01b0390811690851603611a4d575081611285565b60cf54600090611a66906001600160a01b031686612185565b60cf54909150611a7f906001600160a01b031684612185565b5060001995945050505050565b6060609c805480602002602001604051908101604052809291908181526020016000905b82821015611b0a5760008481526020902060408051808201918290529160028581029091019182845b81546001600160a01b03168152600190910190602001808311611ad957505050505081526020019060010190611ab0565b50505050905090565b611b1b611e7a565b6067546001600160401b0382161115611b465760405162461bcd60e51b81526004016109ff906143c1565b6001600160401b0316606855565b600054610100900460ff1680611b695750303b155b80611b77575060005460ff16155b611b935760405162461bcd60e51b81526004016109ff90614373565b600054610100900460ff16158015611bb5576000805461ffff19166101011790555b610135805461ff01600160b01b03191683151562010000600160b01b03191617620100006001600160a01b03871602179055611bf083611831565b8015610b0c576000805461ff001916905550505050565b858487611c158383836121ab565b61019f5485906001600160401b039081169082161115611c475760405162461bcd60e51b81526004016109ff9061440a565b8680600003611c8f5760405162461bcd60e51b815260206004820152601460248201527350726963652063616e6e6f74206265207a65726f60601b60448201526064016109ff565b6111168b8b8b8b8b8b61294a565b6040516bffffffffffffffffffffffff19606084811b8216602084015283901b1660348201526000906048015b60405160208183030381529060405280519060200120905092915050565b6101355460408051808201909152601281526000805160206145a2833981519152602082015290610100900460ff1615611d355760405162461bcd60e51b81526004016109ff919061428d565b5061103a611d438484612505565b82612511565b6000611285611d588484612185565b600a015490565b6000806000806000611d718787612185565b9050611d7c816129ae565b611d9457600080600080945094509450945050611e12565b6040516303de1a8560e61b81526004810182905273__$4a165dabbfd6ff3f3f3890617dd1870b68$__9063f786a14090602401608060405180830381865af4158015611de4573d6000803e3d6000fd5b505050506040513d601f19601f82011682018060405250810190611e089190614468565b9450945094509450505b92959194509250565b6000611e278383612185565b9050611e32816129ae565b610f295760405162461bcd60e51b8152602060048201526019602482015278151bdad95b881c185a5c88191bd95cc81b9bdd08195e1a5cdd603a1b60448201526064016109ff565b60335460405163d994d6d560e01b81523360048201526001600160a01b039091169063d994d6d590602401602060405180830381865afa158015611ec2573d6000803e3d6000fd5b505050506040513d601f19601f82011682018060405250810190611ee69190614435565b604051806040016040528060168152602001753737ba2fb0baba3437b934bd32b22fb1b430b733b2b960511b815250906111ce5760405162461bcd60e51b81526004016109ff919061428d565b611f3b611e7a565b6000611f478383611e1b565b603d81015490915060ff1615611f975760405162461bcd60e51b815260206004820152601560248201527414185a5c88185b1c9958591e48191a5cd8589b1959605a1b60448201526064016109ff565b603d8101805460ff19166001179055604080516001600160a01b038581168252841660208201527f71a055a513c927530cb6f44f826ef705d11b6b00e0912135c1f73796663138ed91015b60405180910390a1505050565b6101355460408051808201909152601281526000805160206145a2833981519152602082015290610100900460ff161561203c5760405162461bcd60e51b81526004016109ff919061428d565b50610b0c61204a8585611e1b565b838360016129ea565b60008060008060008060006120ab61206b8a8a612185565b6020810154601d820154601e830154603c840154603d850154603e860154603f909601546001600160401b039095169693959294919360ff909116929190565b959f949e50929c50909a509850965090945092505050565b6120cb611e7a565b60006120d78383611e1b565b603d81015490915060ff166121255760405162461bcd60e51b815260206004820152601460248201527314185a5c88185b1c9958591e48195b98589b195960621b60448201526064016109ff565b603d8101805460ff19169055604080516001600160a01b038086168252841660208201527f53affae818baf7c49a51b11722048f56b718a0eb3ea1e4e494915a852ead79b09101611fe2565b60006112856121808484612185565b6129ae565b6000609b60006121958585611c9d565b8152602001908152602001600020905092915050565b60006121b8848484611a2d565b905061019c54811015610b0c5760405162461bcd60e51b815260206004820152600e60248201526d416d6f756e7420746f6f206c6f7760901b60448201526064016109ff565b6101355460408051808201909152601281526000805160206145a2833981519152602082015290610100900460ff161561224b5760405162461bcd60e51b81526004016109ff919061428d565b50610b476122598787611e1b565b85858585612bef565b6002610168540361228657604051633ee5aeb560e01b815260040160405180910390fd5b600261016855565b806000036122d75760405162461bcd60e51b81526020600482015260166024820152754d756c7469706c79466163746f72206973207a65726f60501b60448201526064016109ff565b61019d5481101561231f5760405162461bcd60e51b81526020600482015260126024820152712637bb9026bab63a34b8363ca330b1ba37b960711b60448201526064016109ff565b61019e548111156111ce5760405162461bcd60e51b81526020600482015260136024820152722434b3b41026bab63a34b8363ca330b1ba37b960691b60448201526064016109ff565b6101355460408051808201909152601281526000805160206145a2833981519152602082015290610100900460ff16156123b55760405162461bcd60e51b81526004016109ff919061428d565b50610b47868686866000198787612ced565b6000816123d8576019830154611285565b5050600b015490565b600054610100900460ff16806123f65750303b155b80612404575060005460ff16155b6124205760405162461bcd60e51b81526004016109ff90614373565b600054610100900460ff16158015612442576000805461ffff19166101011790555b61244f8887878787612e52565b61245a600061010255565b6101698054610100600160a81b0319166101006001600160a01b038a16021790556124858284610fbb565b8015612497576000805461ff00191690555b5050505050505050565b6101355460408051808201909152601281526000805160206145a2833981519152602082015290610100900460ff16156124ee5760405162461bcd60e51b81526004016109ff919061428d565b50610b0c6124fc8585611e1b565b838360006129ea565b60006112858383611c9d565b6118bf6101d36101d28484612f55565b60cf546001600160a01b038681169116148061254e575060cf5461254e906001600160a01b031686612171565b6125895760405162461bcd60e51b815260206004820152600c60248201526b24b73b30b634b2102830b4b960a11b60448201526064016109ff565b61179c8585858585613180565b60008282604051602001611cca92919061449e565b6000806125b785613342565b90506001603a82015460ff1660038111156125d4576125d46140dc565b146125e1576125e16144bd565b604051630f0ea5af60e01b81526004810182905260009073__$4a165dabbfd6ff3f3f3890617dd1870b68$__90630f0ea5af90602401602060405180830381865af4158015612634573d6000803e3d6000fd5b505050506040513d601f19601f820116820180604052508101906126589190614435565b9695505050505050565b600061266d83613342565b90506000603a82015460ff16600381111561268a5761268a6140dc565b14612697576126976144bd565b60405163354351a960e21b81526004810182905273__$4a165dabbfd6ff3f3f3890617dd1870b68$__9063d50d46a4906024015b60006040518083038186803b1580156126e357600080fd5b505af4158015611a24573d6000803e3d6000fd5b600061270283613342565b60405163582e61a960e01b81526004810182905290915073__$4a165dabbfd6ff3f3f3890617dd1870b68$__9063582e61a9906024016126cb565b610b0c6101d2858585856133a6565b60008061275885613342565b610169546040516355b1281960e11b8152600481018390526101009091046001600160a01b0316602482015290915073__$4a165dabbfd6ff3f3f3890617dd1870b68$__9063ab62503290604401611376565b60006127b683613342565b90506001603a82015460ff1660038111156127d3576127d36140dc565b146127e0576127e06144bd565b603a810180546002919060ff19166001835b0217905550505050565b60008061280885613342565b604051635219d49560e11b81526004810182905290915073__$4a165dabbfd6ff3f3f3890617dd1870b68$__9063a433a92a90602401611376565b600061284e83613342565b90506002603a82015460ff16600381111561286b5761286b6140dc565b14612878576128786144bd565b603a810180546003919060ff19166001836127f2565b600061289982613342565b90506000603a82015460ff1660038111156128b6576128b66140dc565b146118bf576118bf6144bd565b60006128ce82613342565b604051633bdb540760e21b8152600481018290526066602482015290915073__$4a165dabbfd6ff3f3f3890617dd1870b68$__9063ef6d501c9060440160006040518083038186803b15801561292357600080fd5b505af4158015610b47573d6000803e3d6000fd5b61179c6101d36101d287878787876134db565b6101355460408051808201909152601281526000805160206145a2833981519152602082015290610100900460ff16156129975760405162461bcd60e51b81526004016109ff919061428d565b50610b476129a58787611e1b565b858585856136b0565b600d8101546000906001600160a01b0316158015906129d95750601b8201546001600160a01b031615155b8015610f29575050603b0154151590565b6000816129fa5784600e016129fc565b845b60405163678dd03360e11b81526004810187905260248101869052604481018590528315156064820152909150600090819073__$4a165dabbfd6ff3f3f3890617dd1870b68$__9063cf1ba066906084016040805180830381865af4158015612a69573d6000803e3d6000fd5b505050506040513d601f19601f82011682018060405250810190612a8d91906144d3565b61016954600d86015460405163332d3ca560e01b81526101009092046001600160a01b0390811660048401521660248201526044810183905260648101829052336084820152600060a4820181905292945090925081908190819073__$4a165dabbfd6ff3f3f3890617dd1870b68$__9063332d3ca59060c401608060405180830381865af4158015612b24573d6000803e3d6000fd5b505050506040513d601f19601f82011682018060405250810190612b4891906144f7565b935093509350935083612b955760405162461bcd60e51b8152602060048201526015602482015274151bdad95b881d1c985b9cd9995c8819985a5b1959605a1b60448201526064016109ff565b6040805184815260208101849052908101829052881515606082015233908b907fd975b60b6329c797ae584f3af10b37331736bff9e1e5c69342394824d8c19b819060800160405180910390a35050505050505050505050565b601b850154600d860154600091612c1c916001600160a01b0391821691670de0b6b3a76400009116611a2d565b61016954604051631e2ca63d60e21b815260048101889052602481018390529192506000916101009091046001600160a01b0316906378b298f490604401602060405180830381865afa158015612c77573d6000803e3d6000fd5b505050506040513d601f19601f82011682018060405250810190612c9b919061435a565b905085811115611a245760405162461bcd60e51b815260206004820152601a60248201527f416d6f756e742069732067726561746572207468616e2046656500000000000060448201526064016109ff565b6101355460408051808201909152601281526000805160206145a2833981519152602082015290610100900460ff1615612d3a5760405162461bcd60e51b81526004016109ff919061428d565b506000612d478888611e1b565b90506000612d7583612d595788612d5b565b895b670de0b6b3a764000085612d6f578b611a2d565b8a611a2d565b61016954604051631e2ca63d60e21b8152600481018a9052602481018390529192506000916101009091046001600160a01b0316906378b298f490604401602060405180830381865afa158015612dd0573d6000803e3d6000fd5b505050506040513d601f19601f82011682018060405250810190612df4919061435a565b905087811115612e465760405162461bcd60e51b815260206004820152601a60248201527f416d6f756e742069732067726561746572207468616e2046656500000000000060448201526064016109ff565b50505050505050505050565b600054610100900460ff1680612e675750303b155b80612e75575060005460ff16155b612e915760405162461bcd60e51b81526004016109ff90614373565b600054610100900460ff16158015612eb3576000805461ffff19166101011790555b6001600160a01b038616612f155760405162461bcd60e51b8152602060048201526024808201527f636f6d6d6f42617365546f6b656e416464726573732063616e6e6f74206265206044820152631b9d5b1b60e21b60648201526084016109ff565b60cf80546001600160a01b0319166001600160a01b038816179055612f3c858585856136dd565b8015610b47576000805461ff0019169055505050505050565b600082815260208590526040902081612fe15760405162461bcd60e51b815260206004820152604260248201527f697420646f6573206e6f74206d616b652073656e736520746f2065786563757460448201527f6520612067726f7570206f66207461736b732077697468207a65726f20737465606482015261707360f01b608482015260a4016109ff565b805461302f5760405162461bcd60e51b815260206004820152601860248201527f7468652067726f757020646f6573206e6f74206578697374000000000000000060448201526064016109ff565b6000600182015460ff16600281111561304a5761304a6140dc565b0361307b578054600382015461306a91908015613be4021763ffffffff16565b6001818101805460ff191690911790555b60018082015460ff166002811115613095576130956140dc565b0361179c578160005b6000821180156130b15750600283015481105b1561311f5760008660008560020184815481106130d0576130d0614452565b90600052602060002001548152602001908152602001600020905060006130fc82866000015486613826565b90506131088482613a51565b9350505080806131179061454c565b91505061309e565b5061312a8286613a6d565b15610b4757600182018054600260ff19909116179055815460038301546131629190600160401b90048015613be4021763ffffffff16565b6003820154600160801b900460ff1615610b4757610b478286613ae6565b613188611e7a565b84846131948282612171565b156131d15760405162461bcd60e51b815260206004820152600d60248201526c22bc34b9ba32b73a103830b4b960991b60448201526064016109ff565b6131db8183612171565b156132205760405162461bcd60e51b815260206004820152601560248201527422bc34b9ba32b73a1034b73b32b939b2903830b4b960591b60448201526064016109ff565b806001600160a01b0316826001600160a01b0316036132815760405162461bcd60e51b815260206004820152601760248201527f4261736520657175616c20746f207365636f6e6461727900000000000000000060448201526064016109ff565b600083116132c85760405162461bcd60e51b8152602060048201526014602482015273696e697469616c5072696365206e6f207a65726f60601b60448201526064016109ff565b60006132d48888611c9d565b604080518082019091526001600160a01b03808b16825289166020820152609c80546001810182556000919091529192506133379160029081027faf85b9071dfafeac1409d3f1d19bafc9bc7c37974cde8df0ee6168f0086e539c019190613bee565b505050505050505050565b6000818152609b60205260409020613359816129ae565b6133a15760405162461bcd60e51b8152602060048201526019602482015278151bdad95b881c185a5c88191bd95cc81b9bdd08195e1a5cdd603a1b60448201526064016109ff565b919050565b836133f35760405162461bcd60e51b815260206004820152601c60248201527f61207461736b2063616e6e6f7420686176652061206e756c6c2069640000000060448201526064016109ff565b600084815260208690526040902080541561345b5760405162461bcd60e51b815260206004820152602260248201527f61207461736b2077697468207468617420696420616c72656164792065786973604482015261747360f01b60648201526084016109ff565b93845560018401805460038601805460ff191690556001600160401b03928316600160801b0267ffffffffffffffff60801b19948416600160401b029490941677ffffffffffffffffffffffffffffffff000000000000000019909116179290921767ffffffffffffffff19169216919091179055600060029091015550565b846135285760405162461bcd60e51b815260206004820152601d60248201527f612067726f75702063616e6e6f7420686176652061206e756c6c20696400000060448201526064016109ff565b60008581526020889052604090208054156135915760405162461bcd60e51b815260206004820152602360248201527f612067726f75702077697468207468617420696420616c72656164792065786960448201526273747360e81b60648201526084016109ff565b85815560005b85518110156136515760008682815181106135b4576135b4614452565b6020908102919091018101516000818152918b9052604090912080549192509061362e5760405162461bcd60e51b815260206004820152602560248201527f6f6e65206f662074686520737065636966696564207461736b7320697320696e6044820152641d985b1a5960da1b60648201526084016109ff565b506002830180546001818101835560009283526020909220019190915501613597565b506003810180546001909201805460ff19169055911515600160801b026001600160401b03938416600160401b026fffffffffffffffffffffffffffffffff1990921694909316939093179290921760ff60801b191617905550505050565b600d850154601b860154600091612c1c916001600160a01b0391821691670de0b6b3a76400009116611a2d565b600054610100900460ff16806136f25750303b155b80613700575060005460ff16155b61371c5760405162461bcd60e51b81526004016109ff90614373565b600054610100900460ff1615801561373e576000805461ffff19166101011790555b6002856001600160401b031610156137985760405162461bcd60e51b815260206004820181905260248201527f4578706563746564206f726465727320666f72207469636b20746f6f206c6f7760448201526064016109ff565b826001600160401b0316846001600160401b031610156137ca5760405162461bcd60e51b81526004016109ff906143c1565b604080516060810182526001600160401b03808816808352878216602084018190529187169290930182905260669290925560679190915560685561380e82611831565b801561179c576000805461ff00191690555050505050565b60008082116138955760405162461bcd60e51b815260206004820152603560248201527f697420646f6573206e6f74206d616b652073656e736520746f20657865637574604482015274652061207461736b2077697468203020737465707360581b60648201526084016109ff565b83546138ef5760405162461bcd60e51b8152602060048201526024808201527f697420697320696e76616c696420746f20657865637574652061206e756c6c206044820152637461736b60e01b60648201526084016109ff565b60028085015490600386015460ff16600281111561390f5761390f6140dc565b0361391e576000915050611285565b6000600386015460ff166002811115613939576139396140dc565b0361397e5761396e8486600001548760010160089054906101000a90048015613be402176001600160401b031663ffffffff16565b60038501805460ff191660011790555b6001600386015460ff166002811115613999576139996140dc565b03613a4657600285015460009060019082906139b59087613afc565b9050876002015492505b8180156139cb57508083105b15613a0257875460018901546139ee91899186908015613be4021763ffffffff16565b9150826139fa8161454c565b9350506139bf565b6002880183905581613a4257600388018054600260ff1990911617905587546001890154613a42918991600160801b90048015613be4021763ffffffff16565b5050505b60028501546113b790825b600082821115613a6357613a636144bd565b6112858284614565565b600282018054600091829184918391613a87906001613a51565b81548110613a9757613a97614452565b906000526020600020015481526020019081526020016000209050600280811115613ac457613ac46140dc565b600382015460ff166002811115613add57613add6140dc565b14949350505050565b60018201805460ff191690556118bf8282613b1a565b6000613b088284614578565b905082811015610f2957610f296144bd565b60005b600283015481101561103a57613b73826000856002018481548110613b4457613b44614452565b9060005260206000200154815260200190815260200160002060038101805460ff191690556000600290910155565b600101613b1d565b828054828255906000526020600020908101928215613bb6579160200282015b82811115613bb6578235825591602001919060010190613b9b565b50613bc2929150613c36565b5090565b50805460008255906000526020600020908101906111ce9190613c36565b613bec61458b565b565b8260028101928215613bb6579160200282015b82811115613bb657825182546001600160a01b0319166001600160a01b03909116178255602090920191600190910190613c01565b5b80821115613bc25760008155600101613c37565b6001600160a01b03811681146111ce57600080fd5b80151581146111ce57600080fd5b600080600080600080600060e0888a031215613c8957600080fd5b8735613c9481613c4b565b96506020880135613ca481613c4b565b95506040880135613cb481613c60565b9450606088013593506080880135925060a0880135915060c088013560028110613cdd57600080fd5b8091505092959891949750929550565b600060208284031215613cff57600080fd5b813561128581613c4b565b60008060408385031215613d1d57600080fd5b8235613d2881613c4b565b91506020830135613d3881613c4b565b809150509250929050565b60008060008060808587031215613d5957600080fd5b8435613d6481613c4b565b93506020850135613d7481613c4b565b93969395505050506040820135916060013590565b60008060408385031215613d9c57600080fd5b50508035926020909101359150565b600080600060608486031215613dc057600080fd5b8335613dcb81613c4b565b92506020840135613ddb81613c4b565b929592945050506040919091013590565b80356001600160401b03811681146133a157600080fd5b600060208284031215613e1557600080fd5b61128582613dec565b600080600060608486031215613e3357600080fd5b8335613e3e81613c4b565b92506020840135613e4e81613c4b565b91506040840135613e5e81613c4b565b809150509250925092565b60008060008060008060c08789031215613e8257600080fd5b8635613e8d81613c4b565b95506020870135613e9d81613c4b565b94506040870135935060608701359250613eb960808801613dec565b915060a087013590509295509295509295565b60008060008060008060c08789031215613ee557600080fd5b8635613ef081613c4b565b95506020870135613f0081613c4b565b94506040870135935060608701359250613f1c60808801613dec565b915060a0870135613f2c81613c60565b809150509295509295509295565b600080600060608486031215613f4f57600080fd5b8335613f5a81613c4b565b92506020840135613f6a81613c4b565b91506040840135613e5e81613c60565b60008060008060008060008060008060006101608c8e031215613f9c57600080fd5b8b35613fa781613c4b565b9a5060208c0135613fb781613c4b565b9950613fc560408d01613dec565b9850613fd360608d01613dec565b9750613fe160808d01613dec565b965060a08c0135955060c08c0135945060e08c013593506140056101008d01613dec565b92506101208c013561401681613c4b565b91506101408c013561402781613c4b565b809150509295989b509295989b9093969950565b60008060008060006080868803121561405357600080fd5b853561405e81613c4b565b9450602086013561406e81613c4b565b93506040860135925060608601356001600160401b038082111561409157600080fd5b818801915088601f8301126140a557600080fd5b8135818111156140b457600080fd5b8960208260051b85010111156140c957600080fd5b9699959850939650602001949392505050565b634e487b7160e01b600052602160045260246000fd5b600481106111ce576111ce6140dc565b6020810161410f836140f2565b91905290565b600080600080600060a0868803121561412d57600080fd5b853561413881613c4b565b9450602086013561414881613c4b565b9350604086013592506060860135915061416460808701613dec565b90509295509295909350565b60006020828403121561418257600080fd5b5035919050565b600080600080600060a086880312156141a157600080fd5b85356141ac81613c4b565b945060208601356141bc81613c4b565b935060408601356141cc81613c4b565b94979396509394606081013594506080013592915050565b6000806000606084860312156141f957600080fd5b833561420481613c4b565b9250602084013591506040840135613e5e81613c4b565b60208082528251828201819052600091906040908185019086840185805b8381101561427f57825185835b600281101561426c5782516001600160a01b031682529189019190890190600101614246565b5050509385019391860191600101614239565b509298975050505050505050565b60006020808352835180602085015260005b818110156142bb5785810183015185820160400152820161429f565b506000604082860101526040601f19601f8301168501019250505092915050565b8781526001600160a01b03871660208201528515156040820152606081018590526080810184905260a0810183905260e081016002831061431f5761431f6140dc565b8260c083015298975050505050505050565b6020808252600f908201526e5469636b2069732072756e6e696e6760881b604082015260600190565b60006020828403121561436c57600080fd5b5051919050565b6020808252602e908201527f436f6e747261637420696e7374616e63652068617320616c726561647920626560408201526d195b881a5b9a5d1a585b1a5e995960921b606082015260800190565b60208082526029908201527f6d696e20426c6f636b466f725469636b2073686f756c64206265206c6f776572604082015268040e8d0c2dc40dac2f60bb1b606082015260800190565b602080825260119082015270098d2cccae6e0c2dc40e8dede40d0d2ced607b1b604082015260600190565b60006020828403121561444757600080fd5b815161128581613c60565b634e487b7160e01b600052603260045260246000fd5b6000806000806080858703121561447e57600080fd5b505082516020840151604085015160609095015191969095509092509050565b8281526144aa826140f2565b60f89190911b6020820152602101919050565b634e487b7160e01b600052600160045260246000fd5b600080604083850312156144e657600080fd5b505080516020909101519092909150565b6000806000806080858703121561450d57600080fd5b845161451881613c60565b60208601516040870151606090970151919890975090945092505050565b634e487b7160e01b600052601160045260246000fd5b60006001820161455e5761455e614536565b5060010190565b81810381811115610f2957610f29614536565b80820180821115610f2957610f29614536565b634e487b7160e01b600052605160045260246000fdfe636f6e74726163745f69735f7061757365640000000000000000000000000000a264697066735822122041b295c45180ce0615806ddac5b1b7577e8507b9fbf5e9fa69a9159692cdcfae64736f6c63430008180033",
  "linkReferences": {
    "contracts/libs/MoCExchangeLib.sol": {
      "MoCExchangeLib": [
        {
          "length": 20,
          "start": 2641
        },
        {
          "length": 20,
          "start": 3963
        },
        {
          "length": 20,
          "start": 4508
        },
        {
          "length": 20,
          "start": 4990
        },
        {
          "length": 20,
          "start": 7632
        },
        {
          "length": 20,
          "start": 9760
        },
        {
          "length": 20,
          "start": 9939
        },
        {
          "length": 20,
          "start": 10049
        },
        {
          "length": 20,
          "start": 10159
        },
        {
          "length": 20,
          "start": 10311
        },
        {
          "length": 20,
          "start": 10516
        },
        {
          "length": 20,
          "start": 10838
        },
        {
          "length": 20,
          "start": 11024
        }
      ]
    }
  },
  "deployedLinkReferences": {
    "contracts/libs/MoCExchangeLib.sol": {
      "MoCExchangeLib": [
        {
          "length": 20,
          "start": 2603
        },
        {
          "length": 20,
          "start": 3925
        },
        {
          "length": 20,
          "start": 4470
        },
        {
          "length": 20,
          "start": 4952
        },
        {
          "length": 20,
          "start": 7594
        },
        {
          "length": 20,
          "start": 9722
        },
        {
          "length": 20,
          "start": 9901
        },
        {
          "length": 20,
          "start": 10011
        },
        {
          "length": 20,
          "start": 10121
        },
        {
          "length": 20,
          "start": 10273
        },
        {
          "length": 20,
          "start": 10478
        },
        {
          "length": 20,
          "start": 10800
        },
        {
          "length": 20,
          "start": 10986
        }
      ]
    }
  }
}