{
  "_format": "hh-sol-artifact-1",
  "contractName": "TokenPairListing",
  "sourceName": "contracts/TokenPairListing.sol",
  "abi": [
    {
      "anonymous": false,
      "inputs": [
        {
          "indexed": false,
          "internalType": "address",
          "name": "baseToken",
          "type": "address"
        },
        {
          "indexed": false,
          "internalType": "address",
          "name": "secondaryToken",
          "type": "address"
        }
      ],
      "name": "TokenPairDisabled",
      "type": "event"
    },
    {
      "anonymous": false,
      "inputs": [
        {
          "indexed": false,
          "internalType": "address",
          "name": "baseToken",
          "type": "address"
        },
        {
          "indexed": false,
          "internalType": "address",
          "name": "secondaryToken",
          "type": "address"
        }
      ],
      "name": "TokenPairEnabled",
      "type": "event"
    },
    {
      "inputs": [],
      "name": "PRECISION_SMOOTHING_FACTOR",
      "outputs": [
        {
          "internalType": "uint256",
          "name": "",
          "type": "uint256"
        }
      ],
      "stateMutability": "view",
      "type": "function"
    },
    {
      "inputs": [],
      "name": "SMOOTHING_FACTOR",
      "outputs": [
        {
          "internalType": "uint256",
          "name": "",
          "type": "uint256"
        }
      ],
      "stateMutability": "view",
      "type": "function"
    },
    {
      "inputs": [
        {
          "internalType": "address",
          "name": "_baseToken",
          "type": "address"
        },
        {
          "internalType": "address",
          "name": "_secondaryToken",
          "type": "address"
        },
        {
          "internalType": "address",
          "name": "_priceProvider",
          "type": "address"
        },
        {
          "internalType": "uint256",
          "name": "_priceComparisonPrecision",
          "type": "uint256"
        },
        {
          "internalType": "uint256",
          "name": "_initialPrice",
          "type": "uint256"
        }
      ],
      "name": "addTokenPair",
      "outputs": [],
      "stateMutability": "nonpayable",
      "type": "function"
    },
    {
      "inputs": [
        {
          "internalType": "contract IGovernor",
          "name": "newIGovernor",
          "type": "address"
        }
      ],
      "name": "changeIGovernor",
      "outputs": [],
      "stateMutability": "nonpayable",
      "type": "function"
    },
    {
      "inputs": [
        {
          "internalType": "address",
          "name": "_baseToken",
          "type": "address"
        },
        {
          "internalType": "address",
          "name": "_secondaryToken",
          "type": "address"
        }
      ],
      "name": "disableTokenPair",
      "outputs": [],
      "stateMutability": "nonpayable",
      "type": "function"
    },
    {
      "inputs": [
        {
          "internalType": "address",
          "name": "_baseToken",
          "type": "address"
        },
        {
          "internalType": "address",
          "name": "_secondaryToken",
          "type": "address"
        }
      ],
      "name": "enableTokenPair",
      "outputs": [],
      "stateMutability": "nonpayable",
      "type": "function"
    },
    {
      "inputs": [
        {
          "internalType": "address",
          "name": "_baseToken",
          "type": "address"
        },
        {
          "internalType": "address",
          "name": "_secondaryToken",
          "type": "address"
        }
      ],
      "name": "getNextTick",
      "outputs": [
        {
          "internalType": "uint64",
          "name": "tickNumber",
          "type": "uint64"
        },
        {
          "internalType": "uint256",
          "name": "nextTickBlock",
          "type": "uint256"
        },
        {
          "internalType": "uint256",
          "name": "lastTickBlock",
          "type": "uint256"
        }
      ],
      "stateMutability": "view",
      "type": "function"
    },
    {
      "inputs": [],
      "name": "getTokenPairs",
      "outputs": [
        {
          "internalType": "address[2][]",
          "name": "",
          "type": "address[2][]"
        }
      ],
      "stateMutability": "view",
      "type": "function"
    },
    {
      "inputs": [],
      "name": "governor",
      "outputs": [
        {
          "internalType": "contract IGovernor",
          "name": "",
          "type": "address"
        }
      ],
      "stateMutability": "view",
      "type": "function"
    },
    {
      "inputs": [
        {
          "internalType": "address",
          "name": "_baseToken",
          "type": "address"
        },
        {
          "internalType": "address",
          "name": "_secondaryToken",
          "type": "address"
        }
      ],
      "name": "hashAddresses",
      "outputs": [
        {
          "internalType": "bytes32",
          "name": "",
          "type": "bytes32"
        }
      ],
      "stateMutability": "pure",
      "type": "function"
    },
    {
      "inputs": [
        {
          "internalType": "address",
          "name": "_governor",
          "type": "address"
        }
      ],
      "name": "initialize",
      "outputs": [],
      "stateMutability": "nonpayable",
      "type": "function"
    },
    {
      "inputs": [
        {
          "internalType": "uint64",
          "name": "_expectedOrdersForTick",
          "type": "uint64"
        }
      ],
      "name": "setExpectedOrdersForTick",
      "outputs": [],
      "stateMutability": "nonpayable",
      "type": "function"
    },
    {
      "inputs": [
        {
          "internalType": "address",
          "name": "_baseToken",
          "type": "address"
        },
        {
          "internalType": "address",
          "name": "_secondaryToken",
          "type": "address"
        },
        {
          "internalType": "uint256",
          "name": "_price",
          "type": "uint256"
        }
      ],
      "name": "setLastClosingPrice",
      "outputs": [],
      "stateMutability": "nonpayable",
      "type": "function"
    },
    {
      "inputs": [
        {
          "internalType": "uint64",
          "name": "_maxBlocksForTick",
          "type": "uint64"
        }
      ],
      "name": "setMaxBlocksForTick",
      "outputs": [],
      "stateMutability": "nonpayable",
      "type": "function"
    },
    {
      "inputs": [
        {
          "internalType": "uint64",
          "name": "_minBlocksForTick",
          "type": "uint64"
        }
      ],
      "name": "setMinBlocksForTick",
      "outputs": [],
      "stateMutability": "nonpayable",
      "type": "function"
    },
    {
      "inputs": [
        {
          "internalType": "address",
          "name": "_baseToken",
          "type": "address"
        },
        {
          "internalType": "address",
          "name": "_secondaryToken",
          "type": "address"
        },
        {
          "internalType": "address",
          "name": "_priceProvider",
          "type": "address"
        }
      ],
      "name": "setPriceProvider",
      "outputs": [],
      "stateMutability": "nonpayable",
      "type": "function"
    },
    {
      "inputs": [
        {
          "internalType": "address",
          "name": "_baseToken",
          "type": "address"
        },
        {
          "internalType": "address",
          "name": "_secondaryToken",
          "type": "address"
        },
        {
          "internalType": "uint256",
          "name": "_emaPrice",
          "type": "uint256"
        }
      ],
      "name": "setTokenPairEmaPrice",
      "outputs": [],
      "stateMutability": "nonpayable",
      "type": "function"
    },
    {
      "inputs": [
        {
          "internalType": "address",
          "name": "_baseToken",
          "type": "address"
        },
        {
          "internalType": "address",
          "name": "_secondaryToken",
          "type": "address"
        },
        {
          "internalType": "uint256",
          "name": "_smoothingFactor",
          "type": "uint256"
        }
      ],
      "name": "setTokenPairSmoothingFactor",
      "outputs": [],
      "stateMutability": "nonpayable",
      "type": "function"
    },
    {
      "inputs": [],
      "name": "tickConfig",
      "outputs": [
        {
          "internalType": "uint256",
          "name": "expectedOrdersForTick",
          "type": "uint256"
        },
        {
          "internalType": "uint256",
          "name": "maxBlocksForTick",
          "type": "uint256"
        },
        {
          "internalType": "uint256",
          "name": "minBlocksForTick",
          "type": "uint256"
        }
      ],
      "stateMutability": "view",
      "type": "function"
    },
    {
      "inputs": [
        {
          "internalType": "uint256",
          "name": "",
          "type": "uint256"
        },
        {
          "internalType": "uint256",
          "name": "",
          "type": "uint256"
        }
      ],
      "name": "tokenPairAddresses",
      "outputs": [
        {
          "internalType": "address",
          "name": "",
          "type": "address"
        }
      ],
      "stateMutability": "view",
      "type": "function"
    },
    {
      "inputs": [],
      "name": "tokenPairCount",
      "outputs": [
        {
          "internalType": "uint256",
          "name": "",
          "type": "uint256"
        }
      ],
      "stateMutability": "view",
      "type": "function"
    }
  ],
  "bytecode": "0x608060405234801561001057600080fd5b506110ca806100206000396000f3fe608060405234801561001057600080fd5b50600436106101375760003560e01c80634a272132116100b8578063c227b51c1161007c578063c227b51c1461028c578063c4d66de8146102c5578063c520bc92146102d8578063e24e4fdb146102eb578063e3204b2214610300578063f2b24da31461031357600080fd5b80634a27213214610218578063528261841461022b5780639c27ee4c1461023e578063ae0678541461026b578063b6e083301461027957600080fd5b806332477380116100ff57806332477380146101c457806333ccf340146101d7578063340f965a146101ea57806337db0273146101fd5780633991dfe81461021057600080fd5b80630c340a241461013c57806314fced941461016c5780631c5129e91461018157806320aab0731461019457806320ad3f01146101b1575b600080fd5b60335461014f906001600160a01b031681565b6040516001600160a01b0390911681526020015b60405180910390f35b61017f61017a366004610ddf565b610326565b005b61017f61018f366004610ddf565b6103e7565b6101a3670de0b6b3a764000081565b604051908152602001610163565b61014f6101bf366004610e18565b610495565b61017f6101d2366004610e3a565b6104d3565b61017f6101e5366004610e3a565b61055d565b61017f6101f8366004610e7b565b61057d565b61017f61020b366004610ea5565b6105ef565b609c546101a3565b61017f610226366004610e7b565b6106e2565b61017f610239366004610e3a565b610725565b60665460675460685461025092919083565b60408051938452602084019290925290820152606001610163565b6101a3663ab9f28a23200081565b61017f610287366004610ef0565b6107ae565b61029f61029a366004610ddf565b6107d8565b6040805167ffffffffffffffff9094168452602084019290925290820152606001610163565b61017f6102d3366004610ef0565b610811565b61017f6102e6366004610f0d565b6108ea565b6102f3610aac565b6040516101639190610f68565b61017f61030e366004610e7b565b610b33565b6101a3610321366004610ddf565b610b76565b61032e610bc1565b600061033a8383610c7d565b603d81015490915060ff161561038f5760405162461bcd60e51b815260206004820152601560248201527414185a5c88185b1c9958591e48191a5cd8589b1959605a1b60448201526064015b60405180910390fd5b603d8101805460ff19166001179055604080516001600160a01b038581168252841660208201527f71a055a513c927530cb6f44f826ef705d11b6b00e0912135c1f73796663138ed91015b60405180910390a1505050565b6103ef610bc1565b60006103fb8383610c7d565b603d81015490915060ff166104495760405162461bcd60e51b815260206004820152601460248201527314185a5c88185b1c9958591e48195b98589b195960621b6044820152606401610386565b603d8101805460ff19169055604080516001600160a01b038086168252841660208201527f53affae818baf7c49a51b11722048f56b718a0eb3ea1e4e494915a852ead79b091016103da565b609c82815481106104a557600080fd5b906000526020600020906002020181600281106104c157600080fd5b01546001600160a01b03169150829050565b6104db610bc1565b60006104e78484610c7d565b9050670de0b6b3a76400008211156105555760405162461bcd60e51b815260206004820152602b60248201527f536d6f6f7468696e6720666163746f722073686f756c6420626520696e20726560448201526a6c6174696f6e20746f203160a81b6064820152608401610386565b603f01555050565b610565610bc1565b60006105718484610c7d565b603e0191909155505050565b610585610bc1565b60028167ffffffffffffffff1610156105e05760405162461bcd60e51b815260206004820181905260248201527f4578706563746564206f726465727320666f72207469636b20746f6f206c6f776044820152606401610386565b67ffffffffffffffff16606655565b6105f7610bc1565b6106018383610ce0565b61064d5760405162461bcd60e51b815260206004820152601760248201527f546865207061697220646f6573206e6f742065786973740000000000000000006044820152606401610386565b6001600160a01b0381166106af5760405162461bcd60e51b8152602060048201526024808201527f50726963652070726f766964657220616464726573732063616e206e6f7420626044820152630ca4060f60e31b6064820152608401610386565b60006106bb8484610c7d565b601c0180546001600160a01b0319166001600160a01b039390931692909217909155505050565b6106ea610bc1565b60685467ffffffffffffffff821610156107165760405162461bcd60e51b815260040161038690610fda565b67ffffffffffffffff16606755565b61072d610bc1565b600081116107965760405162461bcd60e51b815260206004820152603060248201527f54686520676976656e20696e697469616c2070726963652073686f756c64206260448201526f0652067726561746572207468616e20360841b6064820152608401610386565b60006107a28484610c7d565b603c0191909155505050565b6107b6610bc1565b603380546001600160a01b0319166001600160a01b0392909216919091179055565b6000806000806107e88686610cfb565b6020810154601d820154601e9092015467ffffffffffffffff9091169891975095509350505050565b600054610100900460ff16806108265750303b155b80610834575060005460ff16155b6108975760405162461bcd60e51b815260206004820152602e60248201527f436f6e747261637420696e7374616e63652068617320616c726561647920626560448201526d195b881a5b9a5d1a585b1a5e995960921b6064820152608401610386565b600054610100900460ff161580156108b9576000805461ffff19166101011790555b603380546001600160a01b0319166001600160a01b03841617905580156108e6576000805461ff00191690555b5050565b6108f2610bc1565b84846108fe8282610ce0565b1561093b5760405162461bcd60e51b815260206004820152600d60248201526c22bc34b9ba32b73a103830b4b960991b6044820152606401610386565b6109458183610ce0565b1561098a5760405162461bcd60e51b815260206004820152601560248201527422bc34b9ba32b73a1034b73b32b939b2903830b4b960591b6044820152606401610386565b806001600160a01b0316826001600160a01b0316036109eb5760405162461bcd60e51b815260206004820152601760248201527f4261736520657175616c20746f207365636f6e646172790000000000000000006044820152606401610386565b60008311610a325760405162461bcd60e51b8152602060048201526014602482015273696e697469616c5072696365206e6f207a65726f60601b6044820152606401610386565b6000610a3e8888610b76565b604080518082019091526001600160a01b03808b16825289166020820152609c8054600181018255600091909152919250610aa19160029081027faf85b9071dfafeac1409d3f1d19bafc9bc7c37974cde8df0ee6168f0086e539c019190610d5d565b505050505050505050565b6060609c805480602002602001604051908101604052809291908181526020016000905b82821015610b2a5760008481526020902060408051808201918290529160028581029091019182845b81546001600160a01b03168152600190910190602001808311610af957505050505081526020019060010190610ad0565b50505050905090565b610b3b610bc1565b60675467ffffffffffffffff82161115610b675760405162461bcd60e51b815260040161038690610fda565b67ffffffffffffffff16606855565b6040516bffffffffffffffffffffffff19606084811b8216602084015283901b1660348201526000906048016040516020818303038152906040528051906020012090505b92915050565b60335460405163d994d6d560e01b81523360048201526001600160a01b039091169063d994d6d590602401602060405180830381865afa158015610c09573d6000803e3d6000fd5b505050506040513d601f19601f82011682018060405250810190610c2d9190611023565b604051806040016040528060168152602001753737ba2fb0baba3437b934bd32b22fb1b430b733b2b960511b81525090610c7a5760405162461bcd60e51b81526004016103869190611045565b50565b6000610c898383610cfb565b9050610c9481610d21565b610bbb5760405162461bcd60e51b815260206004820152601960248201527f546f6b656e207061697220646f6573206e6f74206578697374000000000000006044820152606401610386565b6000610cf4610cef8484610cfb565b610d21565b9392505050565b6000609b6000610d0b8585610b76565b8152602001908152602001600020905092915050565b600d8101546000906001600160a01b031615801590610d4c5750601b8201546001600160a01b031615155b8015610bbb575050603b0154151590565b8260028101928215610da5579160200282015b82811115610da557825182546001600160a01b0319166001600160a01b03909116178255602090920191600190910190610d70565b50610db1929150610db5565b5090565b5b80821115610db15760008155600101610db6565b6001600160a01b0381168114610c7a57600080fd5b60008060408385031215610df257600080fd5b8235610dfd81610dca565b91506020830135610e0d81610dca565b809150509250929050565b60008060408385031215610e2b57600080fd5b50508035926020909101359150565b600080600060608486031215610e4f57600080fd5b8335610e5a81610dca565b92506020840135610e6a81610dca565b929592945050506040919091013590565b600060208284031215610e8d57600080fd5b813567ffffffffffffffff81168114610cf457600080fd5b600080600060608486031215610eba57600080fd5b8335610ec581610dca565b92506020840135610ed581610dca565b91506040840135610ee581610dca565b809150509250925092565b600060208284031215610f0257600080fd5b8135610cf481610dca565b600080600080600060a08688031215610f2557600080fd5b8535610f3081610dca565b94506020860135610f4081610dca565b93506040860135610f5081610dca565b94979396509394606081013594506080013592915050565b60208082528251828201819052600091906040908185019086840185805b83811015610fcc57825185835b6002811015610fb95782516001600160a01b031682529189019190890190600101610f93565b5050509385019391860191600101610f86565b509298975050505050505050565b60208082526029908201527f6d696e20426c6f636b466f725469636b2073686f756c64206265206c6f776572604082015268040e8d0c2dc40dac2f60bb1b606082015260800190565b60006020828403121561103557600080fd5b81518015158114610cf457600080fd5b60006020808352835180602085015260005b8181101561107357858101830151858201604001528201611057565b506000604082860101526040601f19601f830116850101925050509291505056fea2646970667358221220d6b0ce7566fdbb580bb9972f4ec370a251510ae3b30701939ebecb083682e7d864736f6c63430008180033",
  "linkReferences": {},
  "deployedLinkReferences": {}
}