{
  "_format": "hh-sol-artifact-1",
  "contractName": "OrderListing",
  "sourceName": "contracts/OrderListing.sol",
  "abi": [
    {
      "inputs": [],
      "name": "ReentrancyGuardReentrantCall",
      "type": "error"
    },
    {
      "anonymous": false,
      "inputs": [
        {
          "indexed": true,
          "internalType": "uint256",
          "name": "id",
          "type": "uint256"
        },
        {
          "indexed": true,
          "internalType": "address",
          "name": "sender",
          "type": "address"
        },
        {
          "indexed": false,
          "internalType": "address",
          "name": "baseTokenAddress",
          "type": "address"
        },
        {
          "indexed": false,
          "internalType": "address",
          "name": "secondaryTokenAddress",
          "type": "address"
        },
        {
          "indexed": false,
          "internalType": "uint256",
          "name": "exchangeableAmount",
          "type": "uint256"
        },
        {
          "indexed": false,
          "internalType": "uint256",
          "name": "reservedCommission",
          "type": "uint256"
        },
        {
          "indexed": false,
          "internalType": "uint256",
          "name": "price",
          "type": "uint256"
        },
        {
          "indexed": false,
          "internalType": "uint256",
          "name": "multiplyFactor",
          "type": "uint256"
        },
        {
          "indexed": false,
          "internalType": "uint64",
          "name": "expiresInTick",
          "type": "uint64"
        },
        {
          "indexed": false,
          "internalType": "bool",
          "name": "isBuy",
          "type": "bool"
        },
        {
          "indexed": false,
          "internalType": "enum MoCExchangeLib.OrderType",
          "name": "orderType",
          "type": "uint8"
        }
      ],
      "name": "NewOrderInserted",
      "type": "event"
    },
    {
      "anonymous": false,
      "inputs": [
        {
          "indexed": true,
          "internalType": "uint256",
          "name": "id",
          "type": "uint256"
        },
        {
          "indexed": true,
          "internalType": "address",
          "name": "sender",
          "type": "address"
        },
        {
          "indexed": false,
          "internalType": "uint256",
          "name": "returnedAmount",
          "type": "uint256"
        },
        {
          "indexed": false,
          "internalType": "uint256",
          "name": "commission",
          "type": "uint256"
        },
        {
          "indexed": false,
          "internalType": "uint256",
          "name": "returnedCommission",
          "type": "uint256"
        },
        {
          "indexed": false,
          "internalType": "bool",
          "name": "isBuy",
          "type": "bool"
        }
      ],
      "name": "OrderCancelled",
      "type": "event"
    },
    {
      "anonymous": false,
      "inputs": [
        {
          "indexed": false,
          "internalType": "address",
          "name": "account",
          "type": "address"
        }
      ],
      "name": "Paused",
      "type": "event"
    },
    {
      "anonymous": false,
      "inputs": [
        {
          "indexed": false,
          "internalType": "address",
          "name": "baseToken",
          "type": "address"
        },
        {
          "indexed": false,
          "internalType": "address",
          "name": "secondaryToken",
          "type": "address"
        }
      ],
      "name": "TokenPairDisabled",
      "type": "event"
    },
    {
      "anonymous": false,
      "inputs": [
        {
          "indexed": false,
          "internalType": "address",
          "name": "baseToken",
          "type": "address"
        },
        {
          "indexed": false,
          "internalType": "address",
          "name": "secondaryToken",
          "type": "address"
        }
      ],
      "name": "TokenPairEnabled",
      "type": "event"
    },
    {
      "anonymous": false,
      "inputs": [
        {
          "indexed": true,
          "internalType": "address",
          "name": "_tokenAddress",
          "type": "address"
        },
        {
          "indexed": true,
          "internalType": "address",
          "name": "_to",
          "type": "address"
        },
        {
          "indexed": false,
          "internalType": "uint256",
          "name": "_amount",
          "type": "uint256"
        },
        {
          "indexed": false,
          "internalType": "bool",
          "name": "_isRevert",
          "type": "bool"
        }
      ],
      "name": "TransferFailed",
      "type": "event"
    },
    {
      "anonymous": false,
      "inputs": [
        {
          "indexed": false,
          "internalType": "address",
          "name": "account",
          "type": "address"
        }
      ],
      "name": "Unpaused",
      "type": "event"
    },
    {
      "inputs": [],
      "name": "PRECISION_SMOOTHING_FACTOR",
      "outputs": [
        {
          "internalType": "uint256",
          "name": "",
          "type": "uint256"
        }
      ],
      "stateMutability": "view",
      "type": "function"
    },
    {
      "inputs": [],
      "name": "SMOOTHING_FACTOR",
      "outputs": [
        {
          "internalType": "uint256",
          "name": "",
          "type": "uint256"
        }
      ],
      "stateMutability": "view",
      "type": "function"
    },
    {
      "inputs": [
        {
          "internalType": "address",
          "name": "_baseToken",
          "type": "address"
        },
        {
          "internalType": "address",
          "name": "_secondaryToken",
          "type": "address"
        },
        {
          "internalType": "address",
          "name": "_priceProvider",
          "type": "address"
        },
        {
          "internalType": "uint256",
          "name": "_priceComparisonPrecision",
          "type": "uint256"
        },
        {
          "internalType": "uint256",
          "name": "_initialPrice",
          "type": "uint256"
        }
      ],
      "name": "addTokenPair",
      "outputs": [],
      "stateMutability": "nonpayable",
      "type": "function"
    },
    {
      "inputs": [
        {
          "internalType": "address",
          "name": "_baseToken",
          "type": "address"
        },
        {
          "internalType": "address",
          "name": "_secondaryToken",
          "type": "address"
        }
      ],
      "name": "buyOrdersLength",
      "outputs": [
        {
          "internalType": "uint256",
          "name": "",
          "type": "uint256"
        }
      ],
      "stateMutability": "view",
      "type": "function"
    },
    {
      "inputs": [
        {
          "internalType": "address",
          "name": "_baseToken",
          "type": "address"
        },
        {
          "internalType": "address",
          "name": "_secondaryToken",
          "type": "address"
        },
        {
          "internalType": "uint256",
          "name": "_orderId",
          "type": "uint256"
        },
        {
          "internalType": "uint256",
          "name": "_previousOrderIdHint",
          "type": "uint256"
        }
      ],
      "name": "cancelBuyOrder",
      "outputs": [],
      "stateMutability": "nonpayable",
      "type": "function"
    },
    {
      "inputs": [
        {
          "internalType": "address",
          "name": "_baseToken",
          "type": "address"
        },
        {
          "internalType": "address",
          "name": "_secondaryToken",
          "type": "address"
        },
        {
          "internalType": "uint256",
          "name": "_orderId",
          "type": "uint256"
        },
        {
          "internalType": "uint256",
          "name": "_previousOrderIdHint",
          "type": "uint256"
        }
      ],
      "name": "cancelSellOrder",
      "outputs": [],
      "stateMutability": "nonpayable",
      "type": "function"
    },
    {
      "inputs": [
        {
          "internalType": "contract IGovernor",
          "name": "newIGovernor",
          "type": "address"
        }
      ],
      "name": "changeIGovernor",
      "outputs": [],
      "stateMutability": "nonpayable",
      "type": "function"
    },
    {
      "inputs": [],
      "name": "commissionManager",
      "outputs": [
        {
          "internalType": "contract CommissionManager",
          "name": "",
          "type": "address"
        }
      ],
      "stateMutability": "view",
      "type": "function"
    },
    {
      "inputs": [
        {
          "internalType": "address",
          "name": "_tokenAddress",
          "type": "address"
        },
        {
          "internalType": "uint256",
          "name": "_amount",
          "type": "uint256"
        },
        {
          "internalType": "address",
          "name": "_baseAddress",
          "type": "address"
        }
      ],
      "name": "convertTokenToCommonBase",
      "outputs": [
        {
          "internalType": "uint256",
          "name": "convertedAmount",
          "type": "uint256"
        }
      ],
      "stateMutability": "view",
      "type": "function"
    },
    {
      "inputs": [
        {
          "internalType": "address",
          "name": "_baseToken",
          "type": "address"
        },
        {
          "internalType": "address",
          "name": "_secondaryToken",
          "type": "address"
        }
      ],
      "name": "disableTokenPair",
      "outputs": [],
      "stateMutability": "nonpayable",
      "type": "function"
    },
    {
      "inputs": [
        {
          "internalType": "address",
          "name": "_baseToken",
          "type": "address"
        },
        {
          "internalType": "address",
          "name": "_secondaryToken",
          "type": "address"
        }
      ],
      "name": "enableTokenPair",
      "outputs": [],
      "stateMutability": "nonpayable",
      "type": "function"
    },
    {
      "inputs": [
        {
          "internalType": "address",
          "name": "_baseToken",
          "type": "address"
        },
        {
          "internalType": "address",
          "name": "_secondaryToken",
          "type": "address"
        }
      ],
      "name": "getNextTick",
      "outputs": [
        {
          "internalType": "uint64",
          "name": "tickNumber",
          "type": "uint64"
        },
        {
          "internalType": "uint256",
          "name": "nextTickBlock",
          "type": "uint256"
        },
        {
          "internalType": "uint256",
          "name": "lastTickBlock",
          "type": "uint256"
        }
      ],
      "stateMutability": "view",
      "type": "function"
    },
    {
      "inputs": [
        {
          "internalType": "address",
          "name": "_baseToken",
          "type": "address"
        },
        {
          "internalType": "address",
          "name": "_secondaryToken",
          "type": "address"
        }
      ],
      "name": "getPriceProvider",
      "outputs": [
        {
          "internalType": "address",
          "name": "",
          "type": "address"
        }
      ],
      "stateMutability": "view",
      "type": "function"
    },
    {
      "inputs": [],
      "name": "getTokenPairs",
      "outputs": [
        {
          "internalType": "address[2][]",
          "name": "",
          "type": "address[2][]"
        }
      ],
      "stateMutability": "view",
      "type": "function"
    },
    {
      "inputs": [],
      "name": "governor",
      "outputs": [
        {
          "internalType": "contract IGovernor",
          "name": "",
          "type": "address"
        }
      ],
      "stateMutability": "view",
      "type": "function"
    },
    {
      "inputs": [
        {
          "internalType": "address",
          "name": "_baseToken",
          "type": "address"
        },
        {
          "internalType": "address",
          "name": "_secondaryToken",
          "type": "address"
        }
      ],
      "name": "hashAddresses",
      "outputs": [
        {
          "internalType": "bytes32",
          "name": "",
          "type": "bytes32"
        }
      ],
      "stateMutability": "pure",
      "type": "function"
    },
    {
      "inputs": [
        {
          "internalType": "address",
          "name": "_stopper",
          "type": "address"
        },
        {
          "internalType": "address",
          "name": "_governor",
          "type": "address"
        }
      ],
      "name": "initialize",
      "outputs": [],
      "stateMutability": "nonpayable",
      "type": "function"
    },
    {
      "inputs": [
        {
          "internalType": "address",
          "name": "_governor",
          "type": "address"
        }
      ],
      "name": "initialize",
      "outputs": [],
      "stateMutability": "nonpayable",
      "type": "function"
    },
    {
      "inputs": [
        {
          "internalType": "address",
          "name": "_stopper",
          "type": "address"
        },
        {
          "internalType": "address",
          "name": "_governor",
          "type": "address"
        },
        {
          "internalType": "bool",
          "name": "_stoppable",
          "type": "bool"
        }
      ],
      "name": "initialize",
      "outputs": [],
      "stateMutability": "nonpayable",
      "type": "function"
    },
    {
      "inputs": [
        {
          "internalType": "address",
          "name": "_baseToken",
          "type": "address"
        },
        {
          "internalType": "address",
          "name": "_secondaryToken",
          "type": "address"
        },
        {
          "internalType": "uint256",
          "name": "_amount",
          "type": "uint256"
        },
        {
          "internalType": "uint256",
          "name": "_price",
          "type": "uint256"
        },
        {
          "internalType": "uint64",
          "name": "_lifespan",
          "type": "uint64"
        }
      ],
      "name": "insertBuyLimitOrder",
      "outputs": [],
      "stateMutability": "nonpayable",
      "type": "function"
    },
    {
      "inputs": [
        {
          "internalType": "address",
          "name": "_baseToken",
          "type": "address"
        },
        {
          "internalType": "address",
          "name": "_secondaryToken",
          "type": "address"
        },
        {
          "internalType": "uint256",
          "name": "_amount",
          "type": "uint256"
        },
        {
          "internalType": "uint256",
          "name": "_price",
          "type": "uint256"
        },
        {
          "internalType": "uint64",
          "name": "_lifespan",
          "type": "uint64"
        },
        {
          "internalType": "uint256",
          "name": "_previousOrderIdHint",
          "type": "uint256"
        }
      ],
      "name": "insertBuyLimitOrderAfter",
      "outputs": [],
      "stateMutability": "nonpayable",
      "type": "function"
    },
    {
      "inputs": [
        {
          "internalType": "address",
          "name": "_baseToken",
          "type": "address"
        },
        {
          "internalType": "address",
          "name": "_secondaryToken",
          "type": "address"
        },
        {
          "internalType": "uint256",
          "name": "_amount",
          "type": "uint256"
        },
        {
          "internalType": "uint256",
          "name": "_multiplyFactor",
          "type": "uint256"
        },
        {
          "internalType": "uint64",
          "name": "_lifespan",
          "type": "uint64"
        },
        {
          "internalType": "bool",
          "name": "_isBuy",
          "type": "bool"
        }
      ],
      "name": "insertMarketOrder",
      "outputs": [],
      "stateMutability": "nonpayable",
      "type": "function"
    },
    {
      "inputs": [
        {
          "internalType": "address",
          "name": "_baseToken",
          "type": "address"
        },
        {
          "internalType": "address",
          "name": "_secondaryToken",
          "type": "address"
        },
        {
          "internalType": "uint256",
          "name": "_amount",
          "type": "uint256"
        },
        {
          "internalType": "uint256",
          "name": "_price",
          "type": "uint256"
        },
        {
          "internalType": "uint64",
          "name": "_lifespan",
          "type": "uint64"
        }
      ],
      "name": "insertSellLimitOrder",
      "outputs": [],
      "stateMutability": "nonpayable",
      "type": "function"
    },
    {
      "inputs": [
        {
          "internalType": "address",
          "name": "_baseToken",
          "type": "address"
        },
        {
          "internalType": "address",
          "name": "_secondaryToken",
          "type": "address"
        },
        {
          "internalType": "uint256",
          "name": "_amount",
          "type": "uint256"
        },
        {
          "internalType": "uint256",
          "name": "_price",
          "type": "uint256"
        },
        {
          "internalType": "uint64",
          "name": "_lifespan",
          "type": "uint64"
        },
        {
          "internalType": "uint256",
          "name": "_previousOrderIdHint",
          "type": "uint256"
        }
      ],
      "name": "insertSellLimitOrderAfter",
      "outputs": [],
      "stateMutability": "nonpayable",
      "type": "function"
    },
    {
      "inputs": [],
      "name": "makeStoppable",
      "outputs": [],
      "stateMutability": "nonpayable",
      "type": "function"
    },
    {
      "inputs": [],
      "name": "makeUnstoppable",
      "outputs": [],
      "stateMutability": "nonpayable",
      "type": "function"
    },
    {
      "inputs": [],
      "name": "pause",
      "outputs": [],
      "stateMutability": "nonpayable",
      "type": "function"
    },
    {
      "inputs": [],
      "name": "paused",
      "outputs": [
        {
          "internalType": "bool",
          "name": "",
          "type": "bool"
        }
      ],
      "stateMutability": "view",
      "type": "function"
    },
    {
      "inputs": [
        {
          "internalType": "address",
          "name": "_baseToken",
          "type": "address"
        },
        {
          "internalType": "address",
          "name": "_secondaryToken",
          "type": "address"
        }
      ],
      "name": "pendingBuyOrdersLength",
      "outputs": [
        {
          "internalType": "uint256",
          "name": "",
          "type": "uint256"
        }
      ],
      "stateMutability": "view",
      "type": "function"
    },
    {
      "inputs": [
        {
          "internalType": "address",
          "name": "_baseToken",
          "type": "address"
        },
        {
          "internalType": "address",
          "name": "_secondaryToken",
          "type": "address"
        },
        {
          "internalType": "bool",
          "name": "_isBuy",
          "type": "bool"
        }
      ],
      "name": "pendingMarketOrdersLength",
      "outputs": [
        {
          "internalType": "uint256",
          "name": "",
          "type": "uint256"
        }
      ],
      "stateMutability": "view",
      "type": "function"
    },
    {
      "inputs": [
        {
          "internalType": "address",
          "name": "_baseToken",
          "type": "address"
        },
        {
          "internalType": "address",
          "name": "_secondaryToken",
          "type": "address"
        }
      ],
      "name": "pendingSellOrdersLength",
      "outputs": [
        {
          "internalType": "uint256",
          "name": "",
          "type": "uint256"
        }
      ],
      "stateMutability": "view",
      "type": "function"
    },
    {
      "inputs": [
        {
          "internalType": "address",
          "name": "_baseToken",
          "type": "address"
        },
        {
          "internalType": "address",
          "name": "_secondaryToken",
          "type": "address"
        }
      ],
      "name": "sellOrdersLength",
      "outputs": [
        {
          "internalType": "uint256",
          "name": "",
          "type": "uint256"
        }
      ],
      "stateMutability": "view",
      "type": "function"
    },
    {
      "inputs": [
        {
          "internalType": "uint64",
          "name": "_expectedOrdersForTick",
          "type": "uint64"
        }
      ],
      "name": "setExpectedOrdersForTick",
      "outputs": [],
      "stateMutability": "nonpayable",
      "type": "function"
    },
    {
      "inputs": [
        {
          "internalType": "address",
          "name": "_baseToken",
          "type": "address"
        },
        {
          "internalType": "address",
          "name": "_secondaryToken",
          "type": "address"
        },
        {
          "internalType": "uint256",
          "name": "_price",
          "type": "uint256"
        }
      ],
      "name": "setLastClosingPrice",
      "outputs": [],
      "stateMutability": "nonpayable",
      "type": "function"
    },
    {
      "inputs": [
        {
          "internalType": "uint64",
          "name": "_maxBlocksForTick",
          "type": "uint64"
        }
      ],
      "name": "setMaxBlocksForTick",
      "outputs": [],
      "stateMutability": "nonpayable",
      "type": "function"
    },
    {
      "inputs": [
        {
          "internalType": "uint64",
          "name": "_minBlocksForTick",
          "type": "uint64"
        }
      ],
      "name": "setMinBlocksForTick",
      "outputs": [],
      "stateMutability": "nonpayable",
      "type": "function"
    },
    {
      "inputs": [
        {
          "internalType": "address",
          "name": "_baseToken",
          "type": "address"
        },
        {
          "internalType": "address",
          "name": "_secondaryToken",
          "type": "address"
        },
        {
          "internalType": "address",
          "name": "_priceProvider",
          "type": "address"
        }
      ],
      "name": "setPriceProvider",
      "outputs": [],
      "stateMutability": "nonpayable",
      "type": "function"
    },
    {
      "inputs": [
        {
          "internalType": "address",
          "name": "newStopper",
          "type": "address"
        }
      ],
      "name": "setStopper",
      "outputs": [],
      "stateMutability": "nonpayable",
      "type": "function"
    },
    {
      "inputs": [
        {
          "internalType": "address",
          "name": "_baseToken",
          "type": "address"
        },
        {
          "internalType": "address",
          "name": "_secondaryToken",
          "type": "address"
        },
        {
          "internalType": "uint256",
          "name": "_emaPrice",
          "type": "uint256"
        }
      ],
      "name": "setTokenPairEmaPrice",
      "outputs": [],
      "stateMutability": "nonpayable",
      "type": "function"
    },
    {
      "inputs": [
        {
          "internalType": "address",
          "name": "_baseToken",
          "type": "address"
        },
        {
          "internalType": "address",
          "name": "_secondaryToken",
          "type": "address"
        },
        {
          "internalType": "uint256",
          "name": "_smoothingFactor",
          "type": "uint256"
        }
      ],
      "name": "setTokenPairSmoothingFactor",
      "outputs": [],
      "stateMutability": "nonpayable",
      "type": "function"
    },
    {
      "inputs": [],
      "name": "stoppable",
      "outputs": [
        {
          "internalType": "bool",
          "name": "",
          "type": "bool"
        }
      ],
      "stateMutability": "view",
      "type": "function"
    },
    {
      "inputs": [],
      "name": "stopper",
      "outputs": [
        {
          "internalType": "address",
          "name": "",
          "type": "address"
        }
      ],
      "stateMutability": "view",
      "type": "function"
    },
    {
      "inputs": [],
      "name": "tickConfig",
      "outputs": [
        {
          "internalType": "uint256",
          "name": "expectedOrdersForTick",
          "type": "uint256"
        },
        {
          "internalType": "uint256",
          "name": "maxBlocksForTick",
          "type": "uint256"
        },
        {
          "internalType": "uint256",
          "name": "minBlocksForTick",
          "type": "uint256"
        }
      ],
      "stateMutability": "view",
      "type": "function"
    },
    {
      "inputs": [
        {
          "internalType": "uint256",
          "name": "",
          "type": "uint256"
        },
        {
          "internalType": "uint256",
          "name": "",
          "type": "uint256"
        }
      ],
      "name": "tokenPairAddresses",
      "outputs": [
        {
          "internalType": "address",
          "name": "",
          "type": "address"
        }
      ],
      "stateMutability": "view",
      "type": "function"
    },
    {
      "inputs": [],
      "name": "tokenPairCount",
      "outputs": [
        {
          "internalType": "uint256",
          "name": "",
          "type": "uint256"
        }
      ],
      "stateMutability": "view",
      "type": "function"
    },
    {
      "inputs": [],
      "name": "unpause",
      "outputs": [],
      "stateMutability": "nonpayable",
      "type": "function"
    },
    {
      "inputs": [
        {
          "internalType": "address",
          "name": "token",
          "type": "address"
        }
      ],
      "name": "withdrawCommissions",
      "outputs": [],
      "stateMutability": "nonpayable",
      "type": "function"
    }
  ],
  "bytecode": "0x608060405234801561001057600080fd5b5060016101685561234e806100266000396000f3fe608060405234801561001057600080fd5b50600436106102955760003560e01c80635c975abb11610167578063bb4872de116100ce578063e24e4fdb11610087578063e24e4fdb146105df578063e3204b22146105f4578063e4bbb5a814610607578063ec62d9ef1461061a578063f2b24da31461062d578063fc3a49621461064057600080fd5b8063bb4872de14610545578063c227b51c14610553578063c4d66de81461058c578063c520bc921461059f578063d1a76714146105b2578063df318d1b146105cc57600080fd5b80639c27ee4c116101205780639c27ee4c146104be5780639df64e1e146104eb578063a268e212146104fe578063ae06785414610511578063b232634c1461051f578063b6e083301461053257600080fd5b80635c975abb1461045857806364ce594c14610475578063682743571461048857806380446d87146104905780638456cb59146104a357806391988cb8146104ab57600080fd5b806337db02731161020b5780634e420fd4116101c45780634e420fd4146103f157806351f7a854146104045780635210570c14610417578063528261841461041f5780635394e8e6146104325780635a3970b11461044557600080fd5b806337db0273146103955780633991dfe8146103a85780633f4ba83a146103b057806341f3844d146103b8578063485cc955146103cb5780634a272132146103de57600080fd5b80631c5129e91161025d5780631c5129e91461031957806320aab0731461032c57806320ad3f0114610349578063324773801461035c57806333ccf3401461036f578063340f965a1461038257600080fd5b80630a58f47a1461029a5780630c340a24146102af5780630ef51d0d146102df57806314fced94146102f35780631617b92214610306575b600080fd5b6102ad6102a8366004611d99565b610653565b005b6033546102c2906001600160a01b031681565b6040516001600160a01b0390911681526020015b60405180910390f35b610169546102c2906001600160a01b031681565b6102ad610301366004611db6565b610686565b6102ad610314366004611def565b610747565b6102ad610327366004611db6565b6107b8565b61033b670de0b6b3a764000081565b6040519081526020016102d6565b6102c2610357366004611e35565b610866565b6102ad61036a366004611e57565b6108a4565b6102ad61037d366004611e57565b61092e565b6102ad610390366004611eb5565b61094e565b6102ad6103a3366004611ed0565b6109c0565b609c5461033b565b6102ad610ab3565b61033b6103c6366004611db6565b610b9f565b6102ad6103d9366004611db6565b610bb8565b6102ad6103ec366004611eb5565b610c3c565b6102ad6103ff366004611f1b565b610c7f565b6102ad610412366004611d99565b610cf2565b6102ad610d80565b6102ad61042d366004611e57565b610d95565b61033b610440366004611db6565b610e1e565b6102c2610453366004611db6565b610e3b565b61013554610100900460ff165b60405190151581526020016102d6565b6102ad610483366004611f8c565b610e5d565b6102ad610ec3565b61033b61049e366004611ffa565b610edb565b6102ad610ef8565b6102ad6104b9366004611def565b61102b565b6066546067546068546104d092919083565b604080519384526020840192909252908201526060016102d6565b61033b6104f9366004611db6565b611096565b6102ad61050c36600461203a565b6110ad565b61033b663ab9f28a23200081565b6102ad61052d36600461203a565b6110c4565b6102ad610540366004611d99565b6110d4565b610135546104659060ff1681565b610566610561366004611db6565b6110fe565b6040805167ffffffffffffffff90941684526020840192909252908201526060016102d6565b6102ad61059a366004611d99565b611137565b6102ad6105ad366004612095565b6111c9565b610135546102c2906201000090046001600160a01b031681565b61033b6105da3660046120f0565b61123e565b6105e761129d565b6040516102d69190612127565b6102ad610602366004611eb5565b611324565b6102ad610615366004611ffa565b611367565b6102ad610628366004611f1b565b61141a565b61033b61063b366004611db6565b611485565b61033b61064e366004611db6565b6114cf565b61065b6114e5565b61013580546001600160a01b03909216620100000262010000600160b01b0319909216919091179055565b61068e6114e5565b600061069a838361159e565b603d81015490915060ff16156106ef5760405162461bcd60e51b815260206004820152601560248201527414185a5c88185b1c9958591e48191a5cd8589b1959605a1b60448201526064015b60405180910390fd5b603d8101805460ff19166001179055604080516001600160a01b038581168252841660208201527f71a055a513c927530cb6f44f826ef705d11b6b00e0912135c1f73796663138ed91015b60405180910390a1505050565b6101355460408051808201909152601281527118dbdb9d1c9858dd17da5cd7dc185d5cd95960721b602082015290610100900460ff161561079b5760405162461bcd60e51b81526004016106e69190612199565b506107b26107a9858561159e565b83836001611601565b50505050565b6107c06114e5565b60006107cc838361159e565b603d81015490915060ff1661081a5760405162461bcd60e51b815260206004820152601460248201527314185a5c88185b1c9958591e48195b98589b195960621b60448201526064016106e6565b603d8101805460ff19169055604080516001600160a01b038086168252841660208201527f53affae818baf7c49a51b11722048f56b718a0eb3ea1e4e494915a852ead79b0910161073a565b609c828154811061087657600080fd5b9060005260206000209060020201816002811061089257600080fd5b01546001600160a01b03169150829050565b6108ac6114e5565b60006108b8848461159e565b9050670de0b6b3a76400008211156109265760405162461bcd60e51b815260206004820152602b60248201527f536d6f6f7468696e6720666163746f722073686f756c6420626520696e20726560448201526a6c6174696f6e20746f203160a81b60648201526084016106e6565b603f01555050565b6109366114e5565b6000610942848461159e565b603e0191909155505050565b6109566114e5565b60028167ffffffffffffffff1610156109b15760405162461bcd60e51b815260206004820181905260248201527f4578706563746564206f726465727320666f72207469636b20746f6f206c6f7760448201526064016106e6565b67ffffffffffffffff16606655565b6109c86114e5565b6109d28383611801565b610a1e5760405162461bcd60e51b815260206004820152601760248201527f546865207061697220646f6573206e6f7420657869737400000000000000000060448201526064016106e6565b6001600160a01b038116610a805760405162461bcd60e51b8152602060048201526024808201527f50726963652070726f766964657220616464726573732063616e206e6f7420626044820152630ca4060f60e31b60648201526084016106e6565b6000610a8c848461159e565b601c0180546001600160a01b0319166001600160a01b039390931692909217909155505050565b6101355460408051808201909152600b81526a3737ba2fb9ba37b83832b960a91b6020820152906201000090046001600160a01b03163314610b085760405162461bcd60e51b81526004016106e69190612199565b5061013554604080518082019091526012815271636f6e74726163745f69735f61637469766560701b602082015290610100900460ff16610b5c5760405162461bcd60e51b81526004016106e69190612199565b50610135805461ff00191690556040513381527f5db9ee0a495bf2e6ff9c91a7834c1ba4fdd244a5e8aa4e537bd38aeae4b073aa906020015b60405180910390a1565b6000610bab8383611815565b6003015490505b92915050565b600054610100900460ff1680610bcd5750303b155b80610bdb575060005460ff16155b610bf75760405162461bcd60e51b81526004016106e6906121e8565b600054610100900460ff16158015610c19576000805461ffff19166101011790555b610c2583836001611367565b8015610c37576000805461ff00191690555b505050565b610c446114e5565b60685467ffffffffffffffff82161015610c705760405162461bcd60e51b81526004016106e690612236565b67ffffffffffffffff16606755565b6101355460408051808201909152601281527118dbdb9d1c9858dd17da5cd7dc185d5cd95960721b602082015290610100900460ff1615610cd35760405162461bcd60e51b81526004016106e69190612199565b50610cea610ce1878761159e565b8585858561183b565b505050505050565b610cfa61193e565b6101695460405163a82a575960e01b81526001600160a01b038084166004830152909116602482015273__$4a165dabbfd6ff3f3f3890617dd1870b68$__9063a82a57599060440160006040518083038186803b158015610d5a57600080fd5b505af4158015610d6e573d6000803e3d6000fd5b50505050610d7d600161016855565b50565b610d886114e5565b610135805460ff19169055565b610d9d6114e5565b60008111610e065760405162461bcd60e51b815260206004820152603060248201527f54686520676976656e20696e697469616c2070726963652073686f756c64206260448201526f0652067726561746572207468616e20360841b60648201526084016106e6565b6000610e12848461159e565b603c0191909155505050565b6000610e34610e2d8484611815565b6018015490565b9392505050565b600080610e488484611815565b601c01546001600160a01b0316949350505050565b6101355460408051808201909152601281527118dbdb9d1c9858dd17da5cd7dc185d5cd95960721b602082015290610100900460ff1615610eb15760405162461bcd60e51b81526004016106e69190612199565b50610cea86868686600019878761196a565b610ecb6114e5565b610135805460ff19166001179055565b6000610ef0610eea8585611815565b83611ad2565b949350505050565b6101355460408051808201909152600b81526a756e73746f707061626c6560a81b60208201529060ff16610f3f5760405162461bcd60e51b81526004016106e69190612199565b506101355460408051808201909152600b81526a3737ba2fb9ba37b83832b960a91b6020820152906201000090046001600160a01b03163314610f955760405162461bcd60e51b81526004016106e69190612199565b506101355460408051808201909152601281527118dbdb9d1c9858dd17da5cd7dc185d5cd95960721b602082015290610100900460ff1615610fea5760405162461bcd60e51b81526004016106e69190612199565b50610135805461ff0019166101001790556040513381527f62e78cea01bee320cd4e420270b5ea74000d11b0c9f74754ebdbfc544b05a25890602001610b95565b6101355460408051808201909152601281527118dbdb9d1c9858dd17da5cd7dc185d5cd95960721b602082015290610100900460ff161561107f5760405162461bcd60e51b81526004016106e69190612199565b506107b261108d858561159e565b83836000611601565b60006110a28383611815565b601101549392505050565b6110bd858585858560001961141a565b5050505050565b6110bd8585858585600019610c7f565b6110dc6114e5565b603380546001600160a01b0319166001600160a01b0392909216919091179055565b60008060008061110e8686611815565b6020810154601d820154601e9092015467ffffffffffffffff9091169891975095509350505050565b600054610100900460ff168061114c5750303b155b8061115a575060005460ff16155b6111765760405162461bcd60e51b81526004016106e6906121e8565b600054610100900460ff16158015611198576000805461ffff19166101011790555b603380546001600160a01b0319166001600160a01b03841617905580156111c5576000805461ff00191690555b5050565b60cf546001600160a01b03868116911614806111f6575060cf546111f6906001600160a01b031686611801565b6112315760405162461bcd60e51b815260206004820152600c60248201526b24b73b30b634b2102830b4b960a11b60448201526064016106e6565b6110bd8585858585611aec565b60cf546000906001600160a01b039081169085160361125e575081610e34565b60cf54600090611277906001600160a01b031686611815565b60cf54909150611290906001600160a01b031684611815565b5060001995945050505050565b6060609c805480602002602001604051908101604052809291908181526020016000905b8282101561131b5760008481526020902060408051808201918290529160028581029091019182845b81546001600160a01b031681526001909101906020018083116112ea575050505050815260200190600101906112c1565b50505050905090565b61132c6114e5565b60675467ffffffffffffffff821611156113585760405162461bcd60e51b81526004016106e690612236565b67ffffffffffffffff16606855565b600054610100900460ff168061137c5750303b155b8061138a575060005460ff16155b6113a65760405162461bcd60e51b81526004016106e6906121e8565b600054610100900460ff161580156113c8576000805461ffff19166101011790555b610135805461ff01600160b01b03191683151562010000600160b01b03191617620100006001600160a01b0387160217905561140383611137565b80156107b2576000805461ff001916905550505050565b6101355460408051808201909152601281527118dbdb9d1c9858dd17da5cd7dc185d5cd95960721b602082015290610100900460ff161561146e5760405162461bcd60e51b81526004016106e69190612199565b50610cea61147c878761159e565b85858585611cae565b6040516bffffffffffffffffffffffff19606084811b8216602084015283901b16603482015260009060480160405160208183030381529060405280519060200120905092915050565b6000610e346114de8484611815565b600a015490565b60335460405163d994d6d560e01b81523360048201526001600160a01b039091169063d994d6d590602401602060405180830381865afa15801561152d573d6000803e3d6000fd5b505050506040513d601f19601f82011682018060405250810190611551919061227f565b604051806040016040528060168152602001753737ba2fb0baba3437b934bd32b22fb1b430b733b2b960511b81525090610d7d5760405162461bcd60e51b81526004016106e69190612199565b60006115aa8383611815565b90506115b581611cdb565b610bb25760405162461bcd60e51b815260206004820152601960248201527f546f6b656e207061697220646f6573206e6f742065786973740000000000000060448201526064016106e6565b6000816116115784600e01611613565b845b60405163678dd03360e11b81526004810187905260248101869052604481018590528315156064820152909150600090819073__$4a165dabbfd6ff3f3f3890617dd1870b68$__9063cf1ba066906084016040805180830381865af4158015611680573d6000803e3d6000fd5b505050506040513d601f19601f820116820180604052508101906116a4919061229c565b61016954600d86015460405163332d3ca560e01b81526001600160a01b039283166004820152911660248201526044810183905260648101829052336084820152600060a4820181905292945090925081908190819073__$4a165dabbfd6ff3f3f3890617dd1870b68$__9063332d3ca59060c401608060405180830381865af4158015611736573d6000803e3d6000fd5b505050506040513d601f19601f8201168201806040525081019061175a91906122c0565b9350935093509350836117a75760405162461bcd60e51b8152602060048201526015602482015274151bdad95b881d1c985b9cd9995c8819985a5b1959605a1b60448201526064016106e6565b6040805184815260208101849052908101829052881515606082015233908b907fd975b60b6329c797ae584f3af10b37331736bff9e1e5c69342394824d8c19b819060800160405180910390a35050505050505050505050565b6000610e346118108484611815565b611cdb565b6000609b60006118258585611485565b8152602001908152602001600020905092915050565b601b850154600d860154600091611868916001600160a01b0391821691670de0b6b3a7640000911661123e565b61016954604051631e2ca63d60e21b815260048101889052602481018390529192506000916001600160a01b03909116906378b298f490604401602060405180830381865afa1580156118bf573d6000803e3d6000fd5b505050506040513d601f19601f820116820180604052508101906118e391906122ff565b9050858111156119355760405162461bcd60e51b815260206004820152601a60248201527f416d6f756e742069732067726561746572207468616e2046656500000000000060448201526064016106e6565b50505050505050565b6002610168540361196257604051633ee5aeb560e01b815260040160405180910390fd5b600261016855565b6101355460408051808201909152601281527118dbdb9d1c9858dd17da5cd7dc185d5cd95960721b602082015290610100900460ff16156119be5760405162461bcd60e51b81526004016106e69190612199565b5060006119cb888861159e565b905060006119f9836119dd57886119df565b895b670de0b6b3a7640000856119f3578b61123e565b8a61123e565b61016954604051631e2ca63d60e21b8152600481018a9052602481018390529192506000916001600160a01b03909116906378b298f490604401602060405180830381865afa158015611a50573d6000803e3d6000fd5b505050506040513d601f19601f82011682018060405250810190611a7491906122ff565b905087811115611ac65760405162461bcd60e51b815260206004820152601a60248201527f416d6f756e742069732067726561746572207468616e2046656500000000000060448201526064016106e6565b50505050505050505050565b600081611ae3576019830154610e34565b5050600b015490565b611af46114e5565b8484611b008282611801565b15611b3d5760405162461bcd60e51b815260206004820152600d60248201526c22bc34b9ba32b73a103830b4b960991b60448201526064016106e6565b611b478183611801565b15611b8c5760405162461bcd60e51b815260206004820152601560248201527422bc34b9ba32b73a1034b73b32b939b2903830b4b960591b60448201526064016106e6565b806001600160a01b0316826001600160a01b031603611bed5760405162461bcd60e51b815260206004820152601760248201527f4261736520657175616c20746f207365636f6e6461727900000000000000000060448201526064016106e6565b60008311611c345760405162461bcd60e51b8152602060048201526014602482015273696e697469616c5072696365206e6f207a65726f60601b60448201526064016106e6565b6000611c408888611485565b604080518082019091526001600160a01b03808b16825289166020820152609c8054600181018255600091909152919250611ca39160029081027faf85b9071dfafeac1409d3f1d19bafc9bc7c37974cde8df0ee6168f0086e539c019190611d17565b505050505050505050565b600d850154601b860154600091611868916001600160a01b0391821691670de0b6b3a7640000911661123e565b600d8101546000906001600160a01b031615801590611d065750601b8201546001600160a01b031615155b8015610bb2575050603b0154151590565b8260028101928215611d5f579160200282015b82811115611d5f57825182546001600160a01b0319166001600160a01b03909116178255602090920191600190910190611d2a565b50611d6b929150611d6f565b5090565b5b80821115611d6b5760008155600101611d70565b6001600160a01b0381168114610d7d57600080fd5b600060208284031215611dab57600080fd5b8135610e3481611d84565b60008060408385031215611dc957600080fd5b8235611dd481611d84565b91506020830135611de481611d84565b809150509250929050565b60008060008060808587031215611e0557600080fd5b8435611e1081611d84565b93506020850135611e2081611d84565b93969395505050506040820135916060013590565b60008060408385031215611e4857600080fd5b50508035926020909101359150565b600080600060608486031215611e6c57600080fd5b8335611e7781611d84565b92506020840135611e8781611d84565b929592945050506040919091013590565b803567ffffffffffffffff81168114611eb057600080fd5b919050565b600060208284031215611ec757600080fd5b610e3482611e98565b600080600060608486031215611ee557600080fd5b8335611ef081611d84565b92506020840135611f0081611d84565b91506040840135611f1081611d84565b809150509250925092565b60008060008060008060c08789031215611f3457600080fd5b8635611f3f81611d84565b95506020870135611f4f81611d84565b94506040870135935060608701359250611f6b60808801611e98565b915060a087013590509295509295509295565b8015158114610d7d57600080fd5b60008060008060008060c08789031215611fa557600080fd5b8635611fb081611d84565b95506020870135611fc081611d84565b94506040870135935060608701359250611fdc60808801611e98565b915060a0870135611fec81611f7e565b809150509295509295509295565b60008060006060848603121561200f57600080fd5b833561201a81611d84565b9250602084013561202a81611d84565b91506040840135611f1081611f7e565b600080600080600060a0868803121561205257600080fd5b853561205d81611d84565b9450602086013561206d81611d84565b9350604086013592506060860135915061208960808701611e98565b90509295509295909350565b600080600080600060a086880312156120ad57600080fd5b85356120b881611d84565b945060208601356120c881611d84565b935060408601356120d881611d84565b94979396509394606081013594506080013592915050565b60008060006060848603121561210557600080fd5b833561211081611d84565b9250602084013591506040840135611f1081611d84565b60208082528251828201819052600091906040908185019086840185805b8381101561218b57825185835b60028110156121785782516001600160a01b031682529189019190890190600101612152565b5050509385019391860191600101612145565b509298975050505050505050565b60006020808352835180602085015260005b818110156121c7578581018301518582016040015282016121ab565b506000604082860101526040601f19601f8301168501019250505092915050565b6020808252602e908201527f436f6e747261637420696e7374616e63652068617320616c726561647920626560408201526d195b881a5b9a5d1a585b1a5e995960921b606082015260800190565b60208082526029908201527f6d696e20426c6f636b466f725469636b2073686f756c64206265206c6f776572604082015268040e8d0c2dc40dac2f60bb1b606082015260800190565b60006020828403121561229157600080fd5b8151610e3481611f7e565b600080604083850312156122af57600080fd5b505080516020909101519092909150565b600080600080608085870312156122d657600080fd5b84516122e181611f7e565b60208601516040870151606090970151919890975090945092505050565b60006020828403121561231157600080fd5b505191905056fea2646970667358221220158187b23ef58cb528d566f2ec4faf1721ab8f49d9c2978ae4ac4e047901631764736f6c63430008180033",
  "linkReferences": {
    "contracts/libs/MoCExchangeLib.sol": {
      "MoCExchangeLib": [
        {
          "length": 20,
          "start": 3403
        },
        {
          "length": 20,
          "start": 5741
        },
        {
          "length": 20,
          "start": 5922
        }
      ]
    }
  },
  "deployedLinkReferences": {
    "contracts/libs/MoCExchangeLib.sol": {
      "MoCExchangeLib": [
        {
          "length": 20,
          "start": 3365
        },
        {
          "length": 20,
          "start": 5703
        },
        {
          "length": 20,
          "start": 5884
        }
      ]
    }
  }
}