{
  "_format": "hh-sol-artifact-1",
  "contractName": "OrderListing",
  "sourceName": "contracts/OrderListing.sol",
  "abi": [
    {
      "inputs": [],
      "name": "ReentrancyGuardReentrantCall",
      "type": "error"
    },
    {
      "anonymous": false,
      "inputs": [
        {
          "indexed": true,
          "internalType": "uint256",
          "name": "id",
          "type": "uint256"
        },
        {
          "indexed": true,
          "internalType": "address",
          "name": "sender",
          "type": "address"
        },
        {
          "indexed": false,
          "internalType": "address",
          "name": "baseTokenAddress",
          "type": "address"
        },
        {
          "indexed": false,
          "internalType": "address",
          "name": "secondaryTokenAddress",
          "type": "address"
        },
        {
          "indexed": false,
          "internalType": "uint256",
          "name": "exchangeableAmount",
          "type": "uint256"
        },
        {
          "indexed": false,
          "internalType": "uint256",
          "name": "reservedCommission",
          "type": "uint256"
        },
        {
          "indexed": false,
          "internalType": "uint256",
          "name": "price",
          "type": "uint256"
        },
        {
          "indexed": false,
          "internalType": "uint256",
          "name": "multiplyFactor",
          "type": "uint256"
        },
        {
          "indexed": false,
          "internalType": "uint64",
          "name": "expiresInTick",
          "type": "uint64"
        },
        {
          "indexed": false,
          "internalType": "bool",
          "name": "isBuy",
          "type": "bool"
        },
        {
          "indexed": false,
          "internalType": "enum MoCExchangeLib.OrderType",
          "name": "orderType",
          "type": "uint8"
        }
      ],
      "name": "NewOrderInserted",
      "type": "event"
    },
    {
      "anonymous": false,
      "inputs": [
        {
          "indexed": true,
          "internalType": "uint256",
          "name": "id",
          "type": "uint256"
        },
        {
          "indexed": true,
          "internalType": "address",
          "name": "sender",
          "type": "address"
        },
        {
          "indexed": false,
          "internalType": "uint256",
          "name": "returnedAmount",
          "type": "uint256"
        },
        {
          "indexed": false,
          "internalType": "uint256",
          "name": "commission",
          "type": "uint256"
        },
        {
          "indexed": false,
          "internalType": "uint256",
          "name": "returnedCommission",
          "type": "uint256"
        },
        {
          "indexed": false,
          "internalType": "bool",
          "name": "isBuy",
          "type": "bool"
        }
      ],
      "name": "OrderCancelled",
      "type": "event"
    },
    {
      "anonymous": false,
      "inputs": [
        {
          "indexed": false,
          "internalType": "address",
          "name": "account",
          "type": "address"
        }
      ],
      "name": "Paused",
      "type": "event"
    },
    {
      "anonymous": false,
      "inputs": [
        {
          "indexed": false,
          "internalType": "address",
          "name": "baseToken",
          "type": "address"
        },
        {
          "indexed": false,
          "internalType": "address",
          "name": "secondaryToken",
          "type": "address"
        }
      ],
      "name": "TokenPairDisabled",
      "type": "event"
    },
    {
      "anonymous": false,
      "inputs": [
        {
          "indexed": false,
          "internalType": "address",
          "name": "baseToken",
          "type": "address"
        },
        {
          "indexed": false,
          "internalType": "address",
          "name": "secondaryToken",
          "type": "address"
        }
      ],
      "name": "TokenPairEnabled",
      "type": "event"
    },
    {
      "anonymous": false,
      "inputs": [
        {
          "indexed": true,
          "internalType": "address",
          "name": "_tokenAddress",
          "type": "address"
        },
        {
          "indexed": true,
          "internalType": "address",
          "name": "_to",
          "type": "address"
        },
        {
          "indexed": false,
          "internalType": "uint256",
          "name": "_amount",
          "type": "uint256"
        },
        {
          "indexed": false,
          "internalType": "bool",
          "name": "_isRevert",
          "type": "bool"
        }
      ],
      "name": "TransferFailed",
      "type": "event"
    },
    {
      "anonymous": false,
      "inputs": [
        {
          "indexed": false,
          "internalType": "address",
          "name": "account",
          "type": "address"
        }
      ],
      "name": "Unpaused",
      "type": "event"
    },
    {
      "inputs": [],
      "name": "PRECISION_SMOOTHING_FACTOR",
      "outputs": [
        {
          "internalType": "uint256",
          "name": "",
          "type": "uint256"
        }
      ],
      "stateMutability": "view",
      "type": "function"
    },
    {
      "inputs": [],
      "name": "SMOOTHING_FACTOR",
      "outputs": [
        {
          "internalType": "uint256",
          "name": "",
          "type": "uint256"
        }
      ],
      "stateMutability": "view",
      "type": "function"
    },
    {
      "inputs": [
        {
          "internalType": "address",
          "name": "_baseToken",
          "type": "address"
        },
        {
          "internalType": "address",
          "name": "_secondaryToken",
          "type": "address"
        },
        {
          "internalType": "address",
          "name": "_priceProvider",
          "type": "address"
        },
        {
          "internalType": "uint256",
          "name": "_priceComparisonPrecision",
          "type": "uint256"
        },
        {
          "internalType": "uint256",
          "name": "_initialPrice",
          "type": "uint256"
        }
      ],
      "name": "addTokenPair",
      "outputs": [],
      "stateMutability": "nonpayable",
      "type": "function"
    },
    {
      "inputs": [
        {
          "internalType": "address",
          "name": "_baseToken",
          "type": "address"
        },
        {
          "internalType": "address",
          "name": "_secondaryToken",
          "type": "address"
        }
      ],
      "name": "buyOrdersLength",
      "outputs": [
        {
          "internalType": "uint256",
          "name": "",
          "type": "uint256"
        }
      ],
      "stateMutability": "view",
      "type": "function"
    },
    {
      "inputs": [
        {
          "internalType": "address",
          "name": "_baseToken",
          "type": "address"
        },
        {
          "internalType": "address",
          "name": "_secondaryToken",
          "type": "address"
        },
        {
          "internalType": "uint256",
          "name": "_orderId",
          "type": "uint256"
        },
        {
          "internalType": "uint256",
          "name": "_previousOrderIdHint",
          "type": "uint256"
        }
      ],
      "name": "cancelBuyOrder",
      "outputs": [],
      "stateMutability": "nonpayable",
      "type": "function"
    },
    {
      "inputs": [
        {
          "internalType": "address",
          "name": "_baseToken",
          "type": "address"
        },
        {
          "internalType": "address",
          "name": "_secondaryToken",
          "type": "address"
        },
        {
          "internalType": "uint256",
          "name": "_orderId",
          "type": "uint256"
        },
        {
          "internalType": "uint256",
          "name": "_previousOrderIdHint",
          "type": "uint256"
        }
      ],
      "name": "cancelSellOrder",
      "outputs": [],
      "stateMutability": "nonpayable",
      "type": "function"
    },
    {
      "inputs": [
        {
          "internalType": "contract IGovernor",
          "name": "newIGovernor",
          "type": "address"
        }
      ],
      "name": "changeIGovernor",
      "outputs": [],
      "stateMutability": "nonpayable",
      "type": "function"
    },
    {
      "inputs": [],
      "name": "commissionManager",
      "outputs": [
        {
          "internalType": "contract CommissionManager",
          "name": "",
          "type": "address"
        }
      ],
      "stateMutability": "view",
      "type": "function"
    },
    {
      "inputs": [
        {
          "internalType": "address",
          "name": "_tokenAddress",
          "type": "address"
        },
        {
          "internalType": "uint256",
          "name": "_amount",
          "type": "uint256"
        },
        {
          "internalType": "address",
          "name": "_baseAddress",
          "type": "address"
        }
      ],
      "name": "convertTokenToCommonBase",
      "outputs": [
        {
          "internalType": "uint256",
          "name": "convertedAmount",
          "type": "uint256"
        }
      ],
      "stateMutability": "view",
      "type": "function"
    },
    {
      "inputs": [
        {
          "internalType": "address",
          "name": "_baseToken",
          "type": "address"
        },
        {
          "internalType": "address",
          "name": "_secondaryToken",
          "type": "address"
        }
      ],
      "name": "disableTokenPair",
      "outputs": [],
      "stateMutability": "nonpayable",
      "type": "function"
    },
    {
      "inputs": [
        {
          "internalType": "address",
          "name": "_baseToken",
          "type": "address"
        },
        {
          "internalType": "address",
          "name": "_secondaryToken",
          "type": "address"
        }
      ],
      "name": "enableTokenPair",
      "outputs": [],
      "stateMutability": "nonpayable",
      "type": "function"
    },
    {
      "inputs": [
        {
          "internalType": "address",
          "name": "_baseToken",
          "type": "address"
        },
        {
          "internalType": "address",
          "name": "_secondaryToken",
          "type": "address"
        }
      ],
      "name": "getNextTick",
      "outputs": [
        {
          "internalType": "uint64",
          "name": "tickNumber",
          "type": "uint64"
        },
        {
          "internalType": "uint256",
          "name": "nextTickBlock",
          "type": "uint256"
        },
        {
          "internalType": "uint256",
          "name": "lastTickBlock",
          "type": "uint256"
        }
      ],
      "stateMutability": "view",
      "type": "function"
    },
    {
      "inputs": [
        {
          "internalType": "address",
          "name": "_baseToken",
          "type": "address"
        },
        {
          "internalType": "address",
          "name": "_secondaryToken",
          "type": "address"
        }
      ],
      "name": "getPriceProvider",
      "outputs": [
        {
          "internalType": "address",
          "name": "",
          "type": "address"
        }
      ],
      "stateMutability": "view",
      "type": "function"
    },
    {
      "inputs": [],
      "name": "getTokenPairs",
      "outputs": [
        {
          "internalType": "address[2][]",
          "name": "",
          "type": "address[2][]"
        }
      ],
      "stateMutability": "view",
      "type": "function"
    },
    {
      "inputs": [],
      "name": "governor",
      "outputs": [
        {
          "internalType": "contract IGovernor",
          "name": "",
          "type": "address"
        }
      ],
      "stateMutability": "view",
      "type": "function"
    },
    {
      "inputs": [
        {
          "internalType": "address",
          "name": "_baseToken",
          "type": "address"
        },
        {
          "internalType": "address",
          "name": "_secondaryToken",
          "type": "address"
        }
      ],
      "name": "hashAddresses",
      "outputs": [
        {
          "internalType": "bytes32",
          "name": "",
          "type": "bytes32"
        }
      ],
      "stateMutability": "pure",
      "type": "function"
    },
    {
      "inputs": [
        {
          "internalType": "address",
          "name": "_stopper",
          "type": "address"
        },
        {
          "internalType": "address",
          "name": "_governor",
          "type": "address"
        }
      ],
      "name": "initialize",
      "outputs": [],
      "stateMutability": "nonpayable",
      "type": "function"
    },
    {
      "inputs": [
        {
          "internalType": "address",
          "name": "_governor",
          "type": "address"
        }
      ],
      "name": "initialize",
      "outputs": [],
      "stateMutability": "nonpayable",
      "type": "function"
    },
    {
      "inputs": [
        {
          "internalType": "address",
          "name": "_stopper",
          "type": "address"
        },
        {
          "internalType": "address",
          "name": "_governor",
          "type": "address"
        },
        {
          "internalType": "bool",
          "name": "_stoppable",
          "type": "bool"
        }
      ],
      "name": "initialize",
      "outputs": [],
      "stateMutability": "nonpayable",
      "type": "function"
    },
    {
      "inputs": [
        {
          "internalType": "address",
          "name": "_baseToken",
          "type": "address"
        },
        {
          "internalType": "address",
          "name": "_secondaryToken",
          "type": "address"
        },
        {
          "internalType": "uint256",
          "name": "_amount",
          "type": "uint256"
        },
        {
          "internalType": "uint256",
          "name": "_price",
          "type": "uint256"
        },
        {
          "internalType": "uint64",
          "name": "_lifespan",
          "type": "uint64"
        }
      ],
      "name": "insertBuyLimitOrder",
      "outputs": [],
      "stateMutability": "nonpayable",
      "type": "function"
    },
    {
      "inputs": [
        {
          "internalType": "address",
          "name": "_baseToken",
          "type": "address"
        },
        {
          "internalType": "address",
          "name": "_secondaryToken",
          "type": "address"
        },
        {
          "internalType": "uint256",
          "name": "_amount",
          "type": "uint256"
        },
        {
          "internalType": "uint256",
          "name": "_price",
          "type": "uint256"
        },
        {
          "internalType": "uint64",
          "name": "_lifespan",
          "type": "uint64"
        },
        {
          "internalType": "uint256",
          "name": "_previousOrderIdHint",
          "type": "uint256"
        }
      ],
      "name": "insertBuyLimitOrderAfter",
      "outputs": [],
      "stateMutability": "nonpayable",
      "type": "function"
    },
    {
      "inputs": [
        {
          "internalType": "address",
          "name": "_baseToken",
          "type": "address"
        },
        {
          "internalType": "address",
          "name": "_secondaryToken",
          "type": "address"
        },
        {
          "internalType": "uint256",
          "name": "_amount",
          "type": "uint256"
        },
        {
          "internalType": "uint256",
          "name": "_multiplyFactor",
          "type": "uint256"
        },
        {
          "internalType": "uint64",
          "name": "_lifespan",
          "type": "uint64"
        },
        {
          "internalType": "bool",
          "name": "_isBuy",
          "type": "bool"
        }
      ],
      "name": "insertMarketOrder",
      "outputs": [],
      "stateMutability": "nonpayable",
      "type": "function"
    },
    {
      "inputs": [
        {
          "internalType": "address",
          "name": "_baseToken",
          "type": "address"
        },
        {
          "internalType": "address",
          "name": "_secondaryToken",
          "type": "address"
        },
        {
          "internalType": "uint256",
          "name": "_amount",
          "type": "uint256"
        },
        {
          "internalType": "uint256",
          "name": "_price",
          "type": "uint256"
        },
        {
          "internalType": "uint64",
          "name": "_lifespan",
          "type": "uint64"
        }
      ],
      "name": "insertSellLimitOrder",
      "outputs": [],
      "stateMutability": "nonpayable",
      "type": "function"
    },
    {
      "inputs": [
        {
          "internalType": "address",
          "name": "_baseToken",
          "type": "address"
        },
        {
          "internalType": "address",
          "name": "_secondaryToken",
          "type": "address"
        },
        {
          "internalType": "uint256",
          "name": "_amount",
          "type": "uint256"
        },
        {
          "internalType": "uint256",
          "name": "_price",
          "type": "uint256"
        },
        {
          "internalType": "uint64",
          "name": "_lifespan",
          "type": "uint64"
        },
        {
          "internalType": "uint256",
          "name": "_previousOrderIdHint",
          "type": "uint256"
        }
      ],
      "name": "insertSellLimitOrderAfter",
      "outputs": [],
      "stateMutability": "nonpayable",
      "type": "function"
    },
    {
      "inputs": [],
      "name": "makeStoppable",
      "outputs": [],
      "stateMutability": "nonpayable",
      "type": "function"
    },
    {
      "inputs": [],
      "name": "makeUnstoppable",
      "outputs": [],
      "stateMutability": "nonpayable",
      "type": "function"
    },
    {
      "inputs": [],
      "name": "pause",
      "outputs": [],
      "stateMutability": "nonpayable",
      "type": "function"
    },
    {
      "inputs": [],
      "name": "paused",
      "outputs": [
        {
          "internalType": "bool",
          "name": "",
          "type": "bool"
        }
      ],
      "stateMutability": "view",
      "type": "function"
    },
    {
      "inputs": [
        {
          "internalType": "address",
          "name": "_baseToken",
          "type": "address"
        },
        {
          "internalType": "address",
          "name": "_secondaryToken",
          "type": "address"
        }
      ],
      "name": "pendingBuyOrdersLength",
      "outputs": [
        {
          "internalType": "uint256",
          "name": "",
          "type": "uint256"
        }
      ],
      "stateMutability": "view",
      "type": "function"
    },
    {
      "inputs": [
        {
          "internalType": "address",
          "name": "_baseToken",
          "type": "address"
        },
        {
          "internalType": "address",
          "name": "_secondaryToken",
          "type": "address"
        },
        {
          "internalType": "bool",
          "name": "_isBuy",
          "type": "bool"
        }
      ],
      "name": "pendingMarketOrdersLength",
      "outputs": [
        {
          "internalType": "uint256",
          "name": "",
          "type": "uint256"
        }
      ],
      "stateMutability": "view",
      "type": "function"
    },
    {
      "inputs": [
        {
          "internalType": "address",
          "name": "_baseToken",
          "type": "address"
        },
        {
          "internalType": "address",
          "name": "_secondaryToken",
          "type": "address"
        }
      ],
      "name": "pendingSellOrdersLength",
      "outputs": [
        {
          "internalType": "uint256",
          "name": "",
          "type": "uint256"
        }
      ],
      "stateMutability": "view",
      "type": "function"
    },
    {
      "inputs": [
        {
          "internalType": "address",
          "name": "_baseToken",
          "type": "address"
        },
        {
          "internalType": "address",
          "name": "_secondaryToken",
          "type": "address"
        }
      ],
      "name": "sellOrdersLength",
      "outputs": [
        {
          "internalType": "uint256",
          "name": "",
          "type": "uint256"
        }
      ],
      "stateMutability": "view",
      "type": "function"
    },
    {
      "inputs": [
        {
          "internalType": "uint64",
          "name": "_expectedOrdersForTick",
          "type": "uint64"
        }
      ],
      "name": "setExpectedOrdersForTick",
      "outputs": [],
      "stateMutability": "nonpayable",
      "type": "function"
    },
    {
      "inputs": [
        {
          "internalType": "address",
          "name": "_baseToken",
          "type": "address"
        },
        {
          "internalType": "address",
          "name": "_secondaryToken",
          "type": "address"
        },
        {
          "internalType": "uint256",
          "name": "_price",
          "type": "uint256"
        }
      ],
      "name": "setLastClosingPrice",
      "outputs": [],
      "stateMutability": "nonpayable",
      "type": "function"
    },
    {
      "inputs": [
        {
          "internalType": "uint64",
          "name": "_maxBlocksForTick",
          "type": "uint64"
        }
      ],
      "name": "setMaxBlocksForTick",
      "outputs": [],
      "stateMutability": "nonpayable",
      "type": "function"
    },
    {
      "inputs": [
        {
          "internalType": "uint64",
          "name": "_minBlocksForTick",
          "type": "uint64"
        }
      ],
      "name": "setMinBlocksForTick",
      "outputs": [],
      "stateMutability": "nonpayable",
      "type": "function"
    },
    {
      "inputs": [
        {
          "internalType": "address",
          "name": "_baseToken",
          "type": "address"
        },
        {
          "internalType": "address",
          "name": "_secondaryToken",
          "type": "address"
        },
        {
          "internalType": "address",
          "name": "_priceProvider",
          "type": "address"
        }
      ],
      "name": "setPriceProvider",
      "outputs": [],
      "stateMutability": "nonpayable",
      "type": "function"
    },
    {
      "inputs": [
        {
          "internalType": "address",
          "name": "newStopper",
          "type": "address"
        }
      ],
      "name": "setStopper",
      "outputs": [],
      "stateMutability": "nonpayable",
      "type": "function"
    },
    {
      "inputs": [
        {
          "internalType": "address",
          "name": "_baseToken",
          "type": "address"
        },
        {
          "internalType": "address",
          "name": "_secondaryToken",
          "type": "address"
        },
        {
          "internalType": "uint256",
          "name": "_emaPrice",
          "type": "uint256"
        }
      ],
      "name": "setTokenPairEmaPrice",
      "outputs": [],
      "stateMutability": "nonpayable",
      "type": "function"
    },
    {
      "inputs": [
        {
          "internalType": "address",
          "name": "_baseToken",
          "type": "address"
        },
        {
          "internalType": "address",
          "name": "_secondaryToken",
          "type": "address"
        },
        {
          "internalType": "uint256",
          "name": "_smoothingFactor",
          "type": "uint256"
        }
      ],
      "name": "setTokenPairSmoothingFactor",
      "outputs": [],
      "stateMutability": "nonpayable",
      "type": "function"
    },
    {
      "inputs": [],
      "name": "stoppable",
      "outputs": [
        {
          "internalType": "bool",
          "name": "",
          "type": "bool"
        }
      ],
      "stateMutability": "view",
      "type": "function"
    },
    {
      "inputs": [],
      "name": "stopper",
      "outputs": [
        {
          "internalType": "address",
          "name": "",
          "type": "address"
        }
      ],
      "stateMutability": "view",
      "type": "function"
    },
    {
      "inputs": [],
      "name": "tickConfig",
      "outputs": [
        {
          "internalType": "uint256",
          "name": "expectedOrdersForTick",
          "type": "uint256"
        },
        {
          "internalType": "uint256",
          "name": "maxBlocksForTick",
          "type": "uint256"
        },
        {
          "internalType": "uint256",
          "name": "minBlocksForTick",
          "type": "uint256"
        }
      ],
      "stateMutability": "view",
      "type": "function"
    },
    {
      "inputs": [
        {
          "internalType": "uint256",
          "name": "",
          "type": "uint256"
        },
        {
          "internalType": "uint256",
          "name": "",
          "type": "uint256"
        }
      ],
      "name": "tokenPairAddresses",
      "outputs": [
        {
          "internalType": "address",
          "name": "",
          "type": "address"
        }
      ],
      "stateMutability": "view",
      "type": "function"
    },
    {
      "inputs": [],
      "name": "tokenPairCount",
      "outputs": [
        {
          "internalType": "uint256",
          "name": "",
          "type": "uint256"
        }
      ],
      "stateMutability": "view",
      "type": "function"
    },
    {
      "inputs": [],
      "name": "unpause",
      "outputs": [],
      "stateMutability": "nonpayable",
      "type": "function"
    },
    {
      "inputs": [
        {
          "internalType": "address",
          "name": "token",
          "type": "address"
        }
      ],
      "name": "withdrawCommissions",
      "outputs": [],
      "stateMutability": "nonpayable",
      "type": "function"
    }
  ],
  "bytecode": "0x608060405234801561001057600080fd5b50600161016855612366806100266000396000f3fe608060405234801561001057600080fd5b50600436106102955760003560e01c80635c975abb11610167578063bb4872de116100ce578063e24e4fdb11610087578063e24e4fdb146105e4578063e3204b22146105f9578063e4bbb5a81461060c578063ec62d9ef1461061f578063f2b24da314610632578063fc3a49621461064557600080fd5b8063bb4872de1461054a578063c227b51c14610558578063c4d66de814610591578063c520bc92146105a4578063d1a76714146105b7578063df318d1b146105d157600080fd5b80639c27ee4c116101205780639c27ee4c146104c35780639df64e1e146104f0578063a268e21214610503578063ae06785414610516578063b232634c14610524578063b6e083301461053757600080fd5b80635c975abb1461045d57806364ce594c1461047a578063682743571461048d57806380446d87146104955780638456cb59146104a857806391988cb8146104b057600080fd5b806337db02731161020b5780634e420fd4116101c45780634e420fd4146103f657806351f7a854146104095780635210570c1461041c57806352826184146104245780635394e8e6146104375780635a3970b11461044a57600080fd5b806337db02731461039a5780633991dfe8146103ad5780633f4ba83a146103b557806341f3844d146103bd578063485cc955146103d05780634a272132146103e357600080fd5b80631c5129e91161025d5780631c5129e91461031e57806320aab0731461033157806320ad3f011461034e578063324773801461036157806333ccf34014610374578063340f965a1461038757600080fd5b80630a58f47a1461029a5780630c340a24146102af5780630ef51d0d146102df57806314fced94146102f85780631617b9221461030b575b600080fd5b6102ad6102a8366004611db1565b610658565b005b6033546102c2906001600160a01b031681565b6040516001600160a01b0390911681526020015b60405180910390f35b610169546102c29061010090046001600160a01b031681565b6102ad610306366004611dce565b61068b565b6102ad610319366004611e07565b61074c565b6102ad61032c366004611dce565b6107bd565b610340670de0b6b3a764000081565b6040519081526020016102d6565b6102c261035c366004611e4d565b61086b565b6102ad61036f366004611e6f565b6108a9565b6102ad610382366004611e6f565b610933565b6102ad610395366004611ecd565b610953565b6102ad6103a8366004611ee8565b6109c5565b609c54610340565b6102ad610ab8565b6103406103cb366004611dce565b610ba4565b6102ad6103de366004611dce565b610bbd565b6102ad6103f1366004611ecd565b610c41565b6102ad610404366004611f33565b610c84565b6102ad610417366004611db1565b610cf7565b6102ad610d8b565b6102ad610432366004611e6f565b610da0565b610340610445366004611dce565b610e29565b6102c2610458366004611dce565b610e46565b61013554610100900460ff165b60405190151581526020016102d6565b6102ad610488366004611fa4565b610e68565b6102ad610ece565b6103406104a3366004612012565b610ee6565b6102ad610f03565b6102ad6104be366004611e07565b611036565b6066546067546068546104d592919083565b604080519384526020840192909252908201526060016102d6565b6103406104fe366004611dce565b6110a1565b6102ad610511366004612052565b6110b8565b610340663ab9f28a23200081565b6102ad610532366004612052565b6110cf565b6102ad610545366004611db1565b6110df565b6101355461046a9060ff1681565b61056b610566366004611dce565b611109565b6040805167ffffffffffffffff90941684526020840192909252908201526060016102d6565b6102ad61059f366004611db1565b611142565b6102ad6105b23660046120ad565b6111d4565b610135546102c2906201000090046001600160a01b031681565b6103406105df366004612108565b611249565b6105ec6112a8565b6040516102d6919061213f565b6102ad610607366004611ecd565b61132f565b6102ad61061a366004612012565b611372565b6102ad61062d366004611f33565b611425565b610340610640366004611dce565b611490565b610340610653366004611dce565b6114da565b6106606114f0565b61013580546001600160a01b03909216620100000262010000600160b01b0319909216919091179055565b6106936114f0565b600061069f83836115a9565b603d81015490915060ff16156106f45760405162461bcd60e51b815260206004820152601560248201527414185a5c88185b1c9958591e48191a5cd8589b1959605a1b60448201526064015b60405180910390fd5b603d8101805460ff19166001179055604080516001600160a01b038581168252841660208201527f71a055a513c927530cb6f44f826ef705d11b6b00e0912135c1f73796663138ed91015b60405180910390a1505050565b6101355460408051808201909152601281527118dbdb9d1c9858dd17da5cd7dc185d5cd95960721b602082015290610100900460ff16156107a05760405162461bcd60e51b81526004016106eb91906121b1565b506107b76107ae85856115a9565b8383600161160c565b50505050565b6107c56114f0565b60006107d183836115a9565b603d81015490915060ff1661081f5760405162461bcd60e51b815260206004820152601460248201527314185a5c88185b1c9958591e48195b98589b195960621b60448201526064016106eb565b603d8101805460ff19169055604080516001600160a01b038086168252841660208201527f53affae818baf7c49a51b11722048f56b718a0eb3ea1e4e494915a852ead79b0910161073f565b609c828154811061087b57600080fd5b9060005260206000209060020201816002811061089757600080fd5b01546001600160a01b03169150829050565b6108b16114f0565b60006108bd84846115a9565b9050670de0b6b3a764000082111561092b5760405162461bcd60e51b815260206004820152602b60248201527f536d6f6f7468696e6720666163746f722073686f756c6420626520696e20726560448201526a6c6174696f6e20746f203160a81b60648201526084016106eb565b603f01555050565b61093b6114f0565b600061094784846115a9565b603e0191909155505050565b61095b6114f0565b60028167ffffffffffffffff1610156109b65760405162461bcd60e51b815260206004820181905260248201527f4578706563746564206f726465727320666f72207469636b20746f6f206c6f7760448201526064016106eb565b67ffffffffffffffff16606655565b6109cd6114f0565b6109d78383611811565b610a235760405162461bcd60e51b815260206004820152601760248201527f546865207061697220646f6573206e6f7420657869737400000000000000000060448201526064016106eb565b6001600160a01b038116610a855760405162461bcd60e51b8152602060048201526024808201527f50726963652070726f766964657220616464726573732063616e206e6f7420626044820152630ca4060f60e31b60648201526084016106eb565b6000610a9184846115a9565b601c0180546001600160a01b0319166001600160a01b039390931692909217909155505050565b6101355460408051808201909152600b81526a3737ba2fb9ba37b83832b960a91b6020820152906201000090046001600160a01b03163314610b0d5760405162461bcd60e51b81526004016106eb91906121b1565b5061013554604080518082019091526012815271636f6e74726163745f69735f61637469766560701b602082015290610100900460ff16610b615760405162461bcd60e51b81526004016106eb91906121b1565b50610135805461ff00191690556040513381527f5db9ee0a495bf2e6ff9c91a7834c1ba4fdd244a5e8aa4e537bd38aeae4b073aa906020015b60405180910390a1565b6000610bb08383611825565b6003015490505b92915050565b600054610100900460ff1680610bd25750303b155b80610be0575060005460ff16155b610bfc5760405162461bcd60e51b81526004016106eb90612200565b600054610100900460ff16158015610c1e576000805461ffff19166101011790555b610c2a83836001611372565b8015610c3c576000805461ff00191690555b505050565b610c496114f0565b60685467ffffffffffffffff82161015610c755760405162461bcd60e51b81526004016106eb9061224e565b67ffffffffffffffff16606755565b6101355460408051808201909152601281527118dbdb9d1c9858dd17da5cd7dc185d5cd95960721b602082015290610100900460ff1615610cd85760405162461bcd60e51b81526004016106eb91906121b1565b50610cef610ce687876115a9565b8585858561184b565b505050505050565b610cff611952565b6101695460405163a82a575960e01b81526001600160a01b038084166004830152610100909204909116602482015273__$4a165dabbfd6ff3f3f3890617dd1870b68$__9063a82a57599060440160006040518083038186803b158015610d6557600080fd5b505af4158015610d79573d6000803e3d6000fd5b50505050610d88600161016855565b50565b610d936114f0565b610135805460ff19169055565b610da86114f0565b60008111610e115760405162461bcd60e51b815260206004820152603060248201527f54686520676976656e20696e697469616c2070726963652073686f756c64206260448201526f0652067726561746572207468616e20360841b60648201526084016106eb565b6000610e1d84846115a9565b603c0191909155505050565b6000610e3f610e388484611825565b6018015490565b9392505050565b600080610e538484611825565b601c01546001600160a01b0316949350505050565b6101355460408051808201909152601281527118dbdb9d1c9858dd17da5cd7dc185d5cd95960721b602082015290610100900460ff1615610ebc5760405162461bcd60e51b81526004016106eb91906121b1565b50610cef86868686600019878761197e565b610ed66114f0565b610135805460ff19166001179055565b6000610efb610ef58585611825565b83611aea565b949350505050565b6101355460408051808201909152600b81526a756e73746f707061626c6560a81b60208201529060ff16610f4a5760405162461bcd60e51b81526004016106eb91906121b1565b506101355460408051808201909152600b81526a3737ba2fb9ba37b83832b960a91b6020820152906201000090046001600160a01b03163314610fa05760405162461bcd60e51b81526004016106eb91906121b1565b506101355460408051808201909152601281527118dbdb9d1c9858dd17da5cd7dc185d5cd95960721b602082015290610100900460ff1615610ff55760405162461bcd60e51b81526004016106eb91906121b1565b50610135805461ff0019166101001790556040513381527f62e78cea01bee320cd4e420270b5ea74000d11b0c9f74754ebdbfc544b05a25890602001610b9a565b6101355460408051808201909152601281527118dbdb9d1c9858dd17da5cd7dc185d5cd95960721b602082015290610100900460ff161561108a5760405162461bcd60e51b81526004016106eb91906121b1565b506107b761109885856115a9565b8383600061160c565b60006110ad8383611825565b601101549392505050565b6110c88585858585600019611425565b5050505050565b6110c88585858585600019610c84565b6110e76114f0565b603380546001600160a01b0319166001600160a01b0392909216919091179055565b6000806000806111198686611825565b6020810154601d820154601e9092015467ffffffffffffffff9091169891975095509350505050565b600054610100900460ff16806111575750303b155b80611165575060005460ff16155b6111815760405162461bcd60e51b81526004016106eb90612200565b600054610100900460ff161580156111a3576000805461ffff19166101011790555b603380546001600160a01b0319166001600160a01b03841617905580156111d0576000805461ff00191690555b5050565b60cf546001600160a01b0386811691161480611201575060cf54611201906001600160a01b031686611811565b61123c5760405162461bcd60e51b815260206004820152600c60248201526b24b73b30b634b2102830b4b960a11b60448201526064016106eb565b6110c88585858585611b04565b60cf546000906001600160a01b0390811690851603611269575081610e3f565b60cf54600090611282906001600160a01b031686611825565b60cf5490915061129b906001600160a01b031684611825565b5060001995945050505050565b6060609c805480602002602001604051908101604052809291908181526020016000905b828210156113265760008481526020902060408051808201918290529160028581029091019182845b81546001600160a01b031681526001909101906020018083116112f5575050505050815260200190600101906112cc565b50505050905090565b6113376114f0565b60675467ffffffffffffffff821611156113635760405162461bcd60e51b81526004016106eb9061224e565b67ffffffffffffffff16606855565b600054610100900460ff16806113875750303b155b80611395575060005460ff16155b6113b15760405162461bcd60e51b81526004016106eb90612200565b600054610100900460ff161580156113d3576000805461ffff19166101011790555b610135805461ff01600160b01b03191683151562010000600160b01b03191617620100006001600160a01b0387160217905561140e83611142565b80156107b7576000805461ff001916905550505050565b6101355460408051808201909152601281527118dbdb9d1c9858dd17da5cd7dc185d5cd95960721b602082015290610100900460ff16156114795760405162461bcd60e51b81526004016106eb91906121b1565b50610cef61148787876115a9565b85858585611cc6565b6040516bffffffffffffffffffffffff19606084811b8216602084015283901b16603482015260009060480160405160208183030381529060405280519060200120905092915050565b6000610e3f6114e98484611825565b600a015490565b60335460405163d994d6d560e01b81523360048201526001600160a01b039091169063d994d6d590602401602060405180830381865afa158015611538573d6000803e3d6000fd5b505050506040513d601f19601f8201168201806040525081019061155c9190612297565b604051806040016040528060168152602001753737ba2fb0baba3437b934bd32b22fb1b430b733b2b960511b81525090610d885760405162461bcd60e51b81526004016106eb91906121b1565b60006115b58383611825565b90506115c081611cf3565b610bb75760405162461bcd60e51b815260206004820152601960248201527f546f6b656e207061697220646f6573206e6f742065786973740000000000000060448201526064016106eb565b60008161161c5784600e0161161e565b845b60405163678dd03360e11b81526004810187905260248101869052604481018590528315156064820152909150600090819073__$4a165dabbfd6ff3f3f3890617dd1870b68$__9063cf1ba066906084016040805180830381865af415801561168b573d6000803e3d6000fd5b505050506040513d601f19601f820116820180604052508101906116af91906122b4565b61016954600d86015460405163332d3ca560e01b81526101009092046001600160a01b0390811660048401521660248201526044810183905260648101829052336084820152600060a4820181905292945090925081908190819073__$4a165dabbfd6ff3f3f3890617dd1870b68$__9063332d3ca59060c401608060405180830381865af4158015611746573d6000803e3d6000fd5b505050506040513d601f19601f8201168201806040525081019061176a91906122d8565b9350935093509350836117b75760405162461bcd60e51b8152602060048201526015602482015274151bdad95b881d1c985b9cd9995c8819985a5b1959605a1b60448201526064016106eb565b6040805184815260208101849052908101829052881515606082015233908b907fd975b60b6329c797ae584f3af10b37331736bff9e1e5c69342394824d8c19b819060800160405180910390a35050505050505050505050565b6000610e3f6118208484611825565b611cf3565b6000609b60006118358585611490565b8152602001908152602001600020905092915050565b601b850154600d860154600091611878916001600160a01b0391821691670de0b6b3a76400009116611249565b61016954604051631e2ca63d60e21b815260048101889052602481018390529192506000916101009091046001600160a01b0316906378b298f490604401602060405180830381865afa1580156118d3573d6000803e3d6000fd5b505050506040513d601f19601f820116820180604052508101906118f79190612317565b9050858111156119495760405162461bcd60e51b815260206004820152601a60248201527f416d6f756e742069732067726561746572207468616e2046656500000000000060448201526064016106eb565b50505050505050565b6002610168540361197657604051633ee5aeb560e01b815260040160405180910390fd5b600261016855565b6101355460408051808201909152601281527118dbdb9d1c9858dd17da5cd7dc185d5cd95960721b602082015290610100900460ff16156119d25760405162461bcd60e51b81526004016106eb91906121b1565b5060006119df88886115a9565b90506000611a0d836119f157886119f3565b895b670de0b6b3a764000085611a07578b611249565b8a611249565b61016954604051631e2ca63d60e21b8152600481018a9052602481018390529192506000916101009091046001600160a01b0316906378b298f490604401602060405180830381865afa158015611a68573d6000803e3d6000fd5b505050506040513d601f19601f82011682018060405250810190611a8c9190612317565b905087811115611ade5760405162461bcd60e51b815260206004820152601a60248201527f416d6f756e742069732067726561746572207468616e2046656500000000000060448201526064016106eb565b50505050505050505050565b600081611afb576019830154610e3f565b5050600b015490565b611b0c6114f0565b8484611b188282611811565b15611b555760405162461bcd60e51b815260206004820152600d60248201526c22bc34b9ba32b73a103830b4b960991b60448201526064016106eb565b611b5f8183611811565b15611ba45760405162461bcd60e51b815260206004820152601560248201527422bc34b9ba32b73a1034b73b32b939b2903830b4b960591b60448201526064016106eb565b806001600160a01b0316826001600160a01b031603611c055760405162461bcd60e51b815260206004820152601760248201527f4261736520657175616c20746f207365636f6e6461727900000000000000000060448201526064016106eb565b60008311611c4c5760405162461bcd60e51b8152602060048201526014602482015273696e697469616c5072696365206e6f207a65726f60601b60448201526064016106eb565b6000611c588888611490565b604080518082019091526001600160a01b03808b16825289166020820152609c8054600181018255600091909152919250611cbb9160029081027faf85b9071dfafeac1409d3f1d19bafc9bc7c37974cde8df0ee6168f0086e539c019190611d2f565b505050505050505050565b600d850154601b860154600091611878916001600160a01b0391821691670de0b6b3a76400009116611249565b600d8101546000906001600160a01b031615801590611d1e5750601b8201546001600160a01b031615155b8015610bb7575050603b0154151590565b8260028101928215611d77579160200282015b82811115611d7757825182546001600160a01b0319166001600160a01b03909116178255602090920191600190910190611d42565b50611d83929150611d87565b5090565b5b80821115611d835760008155600101611d88565b6001600160a01b0381168114610d8857600080fd5b600060208284031215611dc357600080fd5b8135610e3f81611d9c565b60008060408385031215611de157600080fd5b8235611dec81611d9c565b91506020830135611dfc81611d9c565b809150509250929050565b60008060008060808587031215611e1d57600080fd5b8435611e2881611d9c565b93506020850135611e3881611d9c565b93969395505050506040820135916060013590565b60008060408385031215611e6057600080fd5b50508035926020909101359150565b600080600060608486031215611e8457600080fd5b8335611e8f81611d9c565b92506020840135611e9f81611d9c565b929592945050506040919091013590565b803567ffffffffffffffff81168114611ec857600080fd5b919050565b600060208284031215611edf57600080fd5b610e3f82611eb0565b600080600060608486031215611efd57600080fd5b8335611f0881611d9c565b92506020840135611f1881611d9c565b91506040840135611f2881611d9c565b809150509250925092565b60008060008060008060c08789031215611f4c57600080fd5b8635611f5781611d9c565b95506020870135611f6781611d9c565b94506040870135935060608701359250611f8360808801611eb0565b915060a087013590509295509295509295565b8015158114610d8857600080fd5b60008060008060008060c08789031215611fbd57600080fd5b8635611fc881611d9c565b95506020870135611fd881611d9c565b94506040870135935060608701359250611ff460808801611eb0565b915060a087013561200481611f96565b809150509295509295509295565b60008060006060848603121561202757600080fd5b833561203281611d9c565b9250602084013561204281611d9c565b91506040840135611f2881611f96565b600080600080600060a0868803121561206a57600080fd5b853561207581611d9c565b9450602086013561208581611d9c565b935060408601359250606086013591506120a160808701611eb0565b90509295509295909350565b600080600080600060a086880312156120c557600080fd5b85356120d081611d9c565b945060208601356120e081611d9c565b935060408601356120f081611d9c565b94979396509394606081013594506080013592915050565b60008060006060848603121561211d57600080fd5b833561212881611d9c565b9250602084013591506040840135611f2881611d9c565b60208082528251828201819052600091906040908185019086840185805b838110156121a357825185835b60028110156121905782516001600160a01b03168252918901919089019060010161216a565b505050938501939186019160010161215d565b509298975050505050505050565b60006020808352835180602085015260005b818110156121df578581018301518582016040015282016121c3565b506000604082860101526040601f19601f8301168501019250505092915050565b6020808252602e908201527f436f6e747261637420696e7374616e63652068617320616c726561647920626560408201526d195b881a5b9a5d1a585b1a5e995960921b606082015260800190565b60208082526029908201527f6d696e20426c6f636b466f725469636b2073686f756c64206265206c6f776572604082015268040e8d0c2dc40dac2f60bb1b606082015260800190565b6000602082840312156122a957600080fd5b8151610e3f81611f96565b600080604083850312156122c757600080fd5b505080516020909101519092909150565b600080600080608085870312156122ee57600080fd5b84516122f981611f96565b60208601516040870151606090970151919890975090945092505050565b60006020828403121561232957600080fd5b505191905056fea26469706673582212205f2f16cee65cfd50291bd5ad298e402f9df83c60d808fa9847e618c658e086b064736f6c63430008180033",
  "linkReferences": {
    "contracts/libs/MoCExchangeLib.sol": {
      "MoCExchangeLib": [
        {
          "length": 20,
          "start": 3414
        },
        {
          "length": 20,
          "start": 5752
        },
        {
          "length": 20,
          "start": 5938
        }
      ]
    }
  },
  "deployedLinkReferences": {
    "contracts/libs/MoCExchangeLib.sol": {
      "MoCExchangeLib": [
        {
          "length": 20,
          "start": 3376
        },
        {
          "length": 20,
          "start": 5714
        },
        {
          "length": 20,
          "start": 5900
        }
      ]
    }
  }
}