{
  "_format": "hh-sol-artifact-1",
  "contractName": "Stopper",
  "sourceName": "contracts/Stopper/Stopper.sol",
  "abi": [
    {
      "inputs": [],
      "stateMutability": "nonpayable",
      "type": "constructor"
    },
    {
      "inputs": [
        {
          "internalType": "address",
          "name": "owner",
          "type": "address"
        }
      ],
      "name": "OwnableInvalidOwner",
      "type": "error"
    },
    {
      "inputs": [
        {
          "internalType": "address",
          "name": "account",
          "type": "address"
        }
      ],
      "name": "OwnableUnauthorizedAccount",
      "type": "error"
    },
    {
      "anonymous": false,
      "inputs": [
        {
          "indexed": true,
          "internalType": "address",
          "name": "previousOwner",
          "type": "address"
        },
        {
          "indexed": true,
          "internalType": "address",
          "name": "newOwner",
          "type": "address"
        }
      ],
      "name": "OwnershipTransferred",
      "type": "event"
    },
    {
      "inputs": [],
      "name": "owner",
      "outputs": [
        {
          "internalType": "address",
          "name": "",
          "type": "address"
        }
      ],
      "stateMutability": "view",
      "type": "function"
    },
    {
      "inputs": [
        {
          "internalType": "contract Stoppable",
          "name": "activeContract",
          "type": "address"
        }
      ],
      "name": "pause",
      "outputs": [],
      "stateMutability": "nonpayable",
      "type": "function"
    },
    {
      "inputs": [],
      "name": "renounceOwnership",
      "outputs": [],
      "stateMutability": "nonpayable",
      "type": "function"
    },
    {
      "inputs": [
        {
          "internalType": "contract GasPriceLimited",
          "name": "gasPriceLimitedContract",
          "type": "address"
        },
        {
          "internalType": "uint256",
          "name": "maxGasPrice_",
          "type": "uint256"
        }
      ],
      "name": "setMaxGasPrice",
      "outputs": [],
      "stateMutability": "nonpayable",
      "type": "function"
    },
    {
      "inputs": [
        {
          "internalType": "address",
          "name": "newOwner",
          "type": "address"
        }
      ],
      "name": "transferOwnership",
      "outputs": [],
      "stateMutability": "nonpayable",
      "type": "function"
    },
    {
      "inputs": [
        {
          "internalType": "contract Stoppable",
          "name": "pausedContract",
          "type": "address"
        }
      ],
      "name": "unpause",
      "outputs": [],
      "stateMutability": "nonpayable",
      "type": "function"
    }
  ],
  "bytecode": "0x608060405234801561001057600080fd5b50338061003757604051631e4fbdf760e01b81526000600482015260240160405180910390fd5b61004081610046565b50610096565b600080546001600160a01b038381166001600160a01b0319831681178455604051919092169283917f8be0079c531659141344cd1fd0a4f28419497f9722a3daafe3b4186f6b6457e09190a35050565b610352806100a56000396000f3fe608060405234801561001057600080fd5b50600436106100625760003560e01c806357b001f914610067578063715018a61461007c57806376a67a51146100845780638bf22c46146100975780638da5cb5b146100aa578063f2fde38b146100c9575b600080fd5b61007a6100753660046102cc565b6100dc565b005b61007a61013a565b61007a6100923660046102cc565b61014e565b61007a6100a53660046102f0565b610191565b600054604080516001600160a01b039092168252519081900360200190f35b61007a6100d73660046102cc565b6101f7565b6100e461023a565b806001600160a01b0316633f4ba83a6040518163ffffffff1660e01b8152600401600060405180830381600087803b15801561011f57600080fd5b505af1158015610133573d6000803e3d6000fd5b5050505050565b61014261023a565b61014c6000610267565b565b61015661023a565b806001600160a01b0316638456cb596040518163ffffffff1660e01b8152600401600060405180830381600087803b15801561011f57600080fd5b61019961023a565b60405163697d31af60e11b8152600481018290526001600160a01b0383169063d2fa635e90602401600060405180830381600087803b1580156101db57600080fd5b505af11580156101ef573d6000803e3d6000fd5b505050505050565b6101ff61023a565b6001600160a01b03811661022e57604051631e4fbdf760e01b8152600060048201526024015b60405180910390fd5b61023781610267565b50565b6000546001600160a01b0316331461014c5760405163118cdaa760e01b8152336004820152602401610225565b600080546001600160a01b038381166001600160a01b0319831681178455604051919092169283917f8be0079c531659141344cd1fd0a4f28419497f9722a3daafe3b4186f6b6457e09190a35050565b6001600160a01b038116811461023757600080fd5b6000602082840312156102de57600080fd5b81356102e9816102b7565b9392505050565b6000806040838503121561030357600080fd5b823561030e816102b7565b94602093909301359350505056fea26469706673582212201f586dfd53d138be4761c9fc414455f1849ccf934c40689515b2e0d5549ffa0f64736f6c63430008180033",
  "linkReferences": {},
  "deployedLinkReferences": {}
}