{
  "_format": "hh-sol-artifact-1",
  "contractName": "MinimumCommissionChanger",
  "sourceName": "contracts/changers/MinimumCommissionChanger.sol",
  "abi": [
    {
      "inputs": [
        {
          "internalType": "contract CommissionManager",
          "name": "_commissionManager",
          "type": "address"
        },
        {
          "internalType": "uint256",
          "name": "_minimumCommission",
          "type": "uint256"
        }
      ],
      "stateMutability": "nonpayable",
      "type": "constructor"
    },
    {
      "inputs": [],
      "name": "commissionManager",
      "outputs": [
        {
          "internalType": "contract CommissionManager",
          "name": "",
          "type": "address"
        }
      ],
      "stateMutability": "view",
      "type": "function"
    },
    {
      "inputs": [],
      "name": "execute",
      "outputs": [],
      "stateMutability": "nonpayable",
      "type": "function"
    },
    {
      "inputs": [],
      "name": "minimumCommission",
      "outputs": [
        {
          "internalType": "uint256",
          "name": "",
          "type": "uint256"
        }
      ],
      "stateMutability": "view",
      "type": "function"
    }
  ],
  "bytecode": "0x608060405234801561001057600080fd5b506040516101ca3803806101ca83398101604081905261002f91610058565b600080546001600160a01b0319166001600160a01b039390931692909217909155600155610092565b6000806040838503121561006b57600080fd5b82516001600160a01b038116811461008257600080fd5b6020939093015192949293505050565b610129806100a16000396000f3fe6080604052348015600f57600080fd5b5060043610603c5760003560e01c80630ef51d0d146041578063614619541460705780636514aaca146078575b600080fd5b6000546053906001600160a01b031681565b6040516001600160a01b0390911681526020015b60405180910390f35b6076608d565b005b608060015481565b6040519081526020016067565b6000546001546040516334c7989f60e11b81526001600160a01b039092169163698f313e9160c19160040190815260200190565b600060405180830381600087803b15801560da57600080fd5b505af115801560ed573d6000803e3d6000fd5b5050505056fea26469706673582212204c172689e7bc5bb44d4a27fa00434f160afb08388f3ffc6505af8f9741eb828764736f6c63430008180033",
  "linkReferences": {},
  "deployedLinkReferences": {}
}