{
  "_format": "hh-sol-artifact-1",
  "contractName": "ExpectedOrdersForTickChanger",
  "sourceName": "contracts/changers/ExpectedOrdersForTickChanger.sol",
  "abi": [
    {
      "inputs": [
        {
          "internalType": "contract TokenPairListing",
          "name": "_tokenPair",
          "type": "address"
        },
        {
          "internalType": "uint64",
          "name": "_expectedOrdersForTick",
          "type": "uint64"
        }
      ],
      "stateMutability": "nonpayable",
      "type": "constructor"
    },
    {
      "inputs": [],
      "name": "execute",
      "outputs": [],
      "stateMutability": "nonpayable",
      "type": "function"
    },
    {
      "inputs": [],
      "name": "expectedOrdersForTick",
      "outputs": [
        {
          "internalType": "uint64",
          "name": "",
          "type": "uint64"
        }
      ],
      "stateMutability": "view",
      "type": "function"
    },
    {
      "inputs": [],
      "name": "tokenPair",
      "outputs": [
        {
          "internalType": "contract TokenPairListing",
          "name": "",
          "type": "address"
        }
      ],
      "stateMutability": "view",
      "type": "function"
    }
  ],
  "bytecode": "0x608060405234801561001057600080fd5b5060405161022138038061022183398101604081905261002f91610067565b600080546001600160401b03909216600160a01b026001600160e01b03199092166001600160a01b03909316929092171790556100b9565b6000806040838503121561007a57600080fd5b82516001600160a01b038116811461009157600080fd5b60208401519092506001600160401b03811681146100ae57600080fd5b809150509250929050565b610159806100c86000396000f3fe608060405234801561001057600080fd5b50600436106100415760003560e01c8063600cae8114610046578063614619541461007f578063ee16c16014610089575b600080fd5b60005461006190600160a01b900467ffffffffffffffff1681565b60405167ffffffffffffffff90911681526020015b60405180910390f35b6100876100b4565b005b60005461009c906001600160a01b031681565b6040516001600160a01b039091168152602001610076565b600054604051631a07cb2d60e11b8152600160a01b820467ffffffffffffffff1660048201526001600160a01b039091169063340f965a90602401600060405180830381600087803b15801561010957600080fd5b505af115801561011d573d6000803e3d6000fd5b5050505056fea264697066735822122042abb89c727c57ab5262cf6d57e1eea8f267f54844ea4cc32ef51075db740b6864736f6c63430008180033",
  "linkReferences": {},
  "deployedLinkReferences": {}
}