{
  "_format": "hh-sol-artifact-1",
  "contractName": "Stoppable",
  "sourceName": "contracts/Stopper/Stoppable.sol",
  "abi": [
    {
      "anonymous": false,
      "inputs": [
        {
          "indexed": false,
          "internalType": "address",
          "name": "account",
          "type": "address"
        }
      ],
      "name": "Paused",
      "type": "event"
    },
    {
      "anonymous": false,
      "inputs": [
        {
          "indexed": false,
          "internalType": "address",
          "name": "account",
          "type": "address"
        }
      ],
      "name": "Unpaused",
      "type": "event"
    },
    {
      "inputs": [
        {
          "internalType": "contract IGovernor",
          "name": "newIGovernor",
          "type": "address"
        }
      ],
      "name": "changeIGovernor",
      "outputs": [],
      "stateMutability": "nonpayable",
      "type": "function"
    },
    {
      "inputs": [],
      "name": "governor",
      "outputs": [
        {
          "internalType": "contract IGovernor",
          "name": "",
          "type": "address"
        }
      ],
      "stateMutability": "view",
      "type": "function"
    },
    {
      "inputs": [
        {
          "internalType": "address",
          "name": "_stopper",
          "type": "address"
        },
        {
          "internalType": "address",
          "name": "_governor",
          "type": "address"
        }
      ],
      "name": "initialize",
      "outputs": [],
      "stateMutability": "nonpayable",
      "type": "function"
    },
    {
      "inputs": [
        {
          "internalType": "address",
          "name": "_governor",
          "type": "address"
        }
      ],
      "name": "initialize",
      "outputs": [],
      "stateMutability": "nonpayable",
      "type": "function"
    },
    {
      "inputs": [
        {
          "internalType": "address",
          "name": "_stopper",
          "type": "address"
        },
        {
          "internalType": "address",
          "name": "_governor",
          "type": "address"
        },
        {
          "internalType": "bool",
          "name": "_stoppable",
          "type": "bool"
        }
      ],
      "name": "initialize",
      "outputs": [],
      "stateMutability": "nonpayable",
      "type": "function"
    },
    {
      "inputs": [],
      "name": "makeStoppable",
      "outputs": [],
      "stateMutability": "nonpayable",
      "type": "function"
    },
    {
      "inputs": [],
      "name": "makeUnstoppable",
      "outputs": [],
      "stateMutability": "nonpayable",
      "type": "function"
    },
    {
      "inputs": [],
      "name": "pause",
      "outputs": [],
      "stateMutability": "nonpayable",
      "type": "function"
    },
    {
      "inputs": [],
      "name": "paused",
      "outputs": [
        {
          "internalType": "bool",
          "name": "",
          "type": "bool"
        }
      ],
      "stateMutability": "view",
      "type": "function"
    },
    {
      "inputs": [
        {
          "internalType": "address",
          "name": "newStopper",
          "type": "address"
        }
      ],
      "name": "setStopper",
      "outputs": [],
      "stateMutability": "nonpayable",
      "type": "function"
    },
    {
      "inputs": [],
      "name": "stoppable",
      "outputs": [
        {
          "internalType": "bool",
          "name": "",
          "type": "bool"
        }
      ],
      "stateMutability": "view",
      "type": "function"
    },
    {
      "inputs": [],
      "name": "stopper",
      "outputs": [
        {
          "internalType": "address",
          "name": "",
          "type": "address"
        }
      ],
      "stateMutability": "view",
      "type": "function"
    },
    {
      "inputs": [],
      "name": "unpause",
      "outputs": [],
      "stateMutability": "nonpayable",
      "type": "function"
    }
  ],
  "bytecode": "0x608060405234801561001057600080fd5b506108af806100206000396000f3fe608060405234801561001057600080fd5b50600436106100cf5760003560e01c8063682743571161008c578063bb4872de11610066578063bb4872de1461017b578063c4d66de814610188578063d1a767141461019b578063e4bbb5a8146101b457600080fd5b806368274357146101585780638456cb5914610160578063b6e083301461016857600080fd5b80630a58f47a146100d45780630c340a24146100e95780633f4ba83a14610119578063485cc955146101215780635210570c146101345780635c975abb1461013c575b600080fd5b6100e76100e2366004610709565b6101c7565b005b6033546100fc906001600160a01b031681565b6040516001600160a01b0390911681526020015b60405180910390f35b6100e76101f9565b6100e761012f36600461072d565b6102eb565b6100e761036f565b606654610100900460ff165b6040519015158152602001610110565b6100e7610383565b6100e761039a565b6100e7610176366004610709565b6104c9565b6066546101489060ff1681565b6100e7610196366004610709565b6104f3565b6066546100fc906201000090046001600160a01b031681565b6100e76101c2366004610774565b610585565b6101cf610638565b606680546001600160a01b03909216620100000262010000600160b01b0319909216919091179055565b60665460408051808201909152600b81526a3737ba2fb9ba37b83832b960a91b6020820152906201000090046001600160a01b031633146102565760405162461bcd60e51b815260040161024d91906107bf565b60405180910390fd5b50606654604080518082019091526012815271636f6e74726163745f69735f61637469766560701b602082015290610100900460ff166102a95760405162461bcd60e51b815260040161024d91906107bf565b506066805461ff00191690556040513381527f5db9ee0a495bf2e6ff9c91a7834c1ba4fdd244a5e8aa4e537bd38aeae4b073aa906020015b60405180910390a1565b600054610100900460ff16806103005750303b155b8061030e575060005460ff16155b61032a5760405162461bcd60e51b815260040161024d9061080e565b600054610100900460ff1615801561034c576000805461ffff19166101011790555b61035883836001610585565b801561036a576000805461ff00191690555b505050565b610377610638565b6066805460ff19169055565b61038b610638565b6066805460ff19166001179055565b60665460408051808201909152600b81526a756e73746f707061626c6560a81b60208201529060ff166103e05760405162461bcd60e51b815260040161024d91906107bf565b5060665460408051808201909152600b81526a3737ba2fb9ba37b83832b960a91b6020820152906201000090046001600160a01b031633146104355760405162461bcd60e51b815260040161024d91906107bf565b5060665460408051808201909152601281527118dbdb9d1c9858dd17da5cd7dc185d5cd95960721b602082015290610100900460ff16156104895760405162461bcd60e51b815260040161024d91906107bf565b506066805461ff0019166101001790556040513381527f62e78cea01bee320cd4e420270b5ea74000d11b0c9f74754ebdbfc544b05a258906020016102e1565b6104d1610638565b603380546001600160a01b0319166001600160a01b0392909216919091179055565b600054610100900460ff16806105085750303b155b80610516575060005460ff16155b6105325760405162461bcd60e51b815260040161024d9061080e565b600054610100900460ff16158015610554576000805461ffff19166101011790555b603380546001600160a01b0319166001600160a01b0384161790558015610581576000805461ff00191690555b5050565b600054610100900460ff168061059a5750303b155b806105a8575060005460ff16155b6105c45760405162461bcd60e51b815260040161024d9061080e565b600054610100900460ff161580156105e6576000805461ffff19166101011790555b6066805461ff01600160b01b03191683151562010000600160b01b03191617620100006001600160a01b03871602179055610620836104f3565b8015610632576000805461ff00191690555b50505050565b60335460405163d994d6d560e01b81523360048201526001600160a01b039091169063d994d6d590602401602060405180830381865afa158015610680573d6000803e3d6000fd5b505050506040513d601f19601f820116820180604052508101906106a4919061085c565b604051806040016040528060168152602001753737ba2fb0baba3437b934bd32b22fb1b430b733b2b960511b815250906106f15760405162461bcd60e51b815260040161024d91906107bf565b50565b6001600160a01b03811681146106f157600080fd5b60006020828403121561071b57600080fd5b8135610726816106f4565b9392505050565b6000806040838503121561074057600080fd5b823561074b816106f4565b9150602083013561075b816106f4565b809150509250929050565b80151581146106f157600080fd5b60008060006060848603121561078957600080fd5b8335610794816106f4565b925060208401356107a4816106f4565b915060408401356107b481610766565b809150509250925092565b60006020808352835180602085015260005b818110156107ed578581018301518582016040015282016107d1565b506000604082860101526040601f19601f8301168501019250505092915050565b6020808252602e908201527f436f6e747261637420696e7374616e63652068617320616c726561647920626560408201526d195b881a5b9a5d1a585b1a5e995960921b606082015260800190565b60006020828403121561086e57600080fd5b81516107268161076656fea26469706673582212202169126bd5ea62881efb8d8268a5fbface006923984df0e34fd6b7f50c1fccec64736f6c63430008180033",
  "linkReferences": {},
  "deployedLinkReferences": {}
}