{
  "_format": "hh-sol-artifact-1",
  "contractName": "CancelationPenaltyRateChanger",
  "sourceName": "contracts/changers/CancelationPenaltyRateChanger.sol",
  "abi": [
    {
      "inputs": [
        {
          "internalType": "contract CommissionManager",
          "name": "_commissionManager",
          "type": "address"
        },
        {
          "internalType": "uint256",
          "name": "_cancelationPenaltyRate",
          "type": "uint256"
        }
      ],
      "stateMutability": "nonpayable",
      "type": "constructor"
    },
    {
      "inputs": [],
      "name": "cancelationPenaltyRate",
      "outputs": [
        {
          "internalType": "uint256",
          "name": "",
          "type": "uint256"
        }
      ],
      "stateMutability": "view",
      "type": "function"
    },
    {
      "inputs": [],
      "name": "commissionManager",
      "outputs": [
        {
          "internalType": "contract CommissionManager",
          "name": "",
          "type": "address"
        }
      ],
      "stateMutability": "view",
      "type": "function"
    },
    {
      "inputs": [],
      "name": "execute",
      "outputs": [],
      "stateMutability": "nonpayable",
      "type": "function"
    }
  ],
  "bytecode": "0x608060405234801561001057600080fd5b506040516101ca3803806101ca83398101604081905261002f91610058565b600080546001600160a01b0319166001600160a01b039390931692909217909155600155610092565b6000806040838503121561006b57600080fd5b82516001600160a01b038116811461008257600080fd5b6020939093015192949293505050565b610129806100a16000396000f3fe6080604052348015600f57600080fd5b5060043610603c5760003560e01c8063084cb5dc1460415780630ef51d0d14605c57806361461954146085575b600080fd5b604960015481565b6040519081526020015b60405180910390f35b600054606e906001600160a01b031681565b6040516001600160a01b0390911681526020016053565b608b608d565b005b60005460015460405163196be06960e31b81526001600160a01b039092169163cb5f03489160c19160040190815260200190565b600060405180830381600087803b15801560da57600080fd5b505af115801560ed573d6000803e3d6000fd5b5050505056fea26469706673582212207de9be56f2cc38a261bd4bd93543592fa4a9f76d32ffab8d9c35685203c6f48764736f6c63430008180033",
  "linkReferences": {},
  "deployedLinkReferences": {}
}