{
  "_format": "hh-sol-artifact-1",
  "contractName": "MarketOrderSettingsChanger",
  "sourceName": "contracts/changers/MarketOrderSettingsChanger.sol",
  "abi": [
    {
      "inputs": [
        {
          "internalType": "contract RestrictiveOrderListing",
          "name": "_restrictiveOrderListing",
          "type": "address"
        },
        {
          "internalType": "uint256",
          "name": "_minMultiplyFactor",
          "type": "uint256"
        },
        {
          "internalType": "uint256",
          "name": "_maxMultiplyFactor",
          "type": "uint256"
        }
      ],
      "stateMutability": "nonpayable",
      "type": "constructor"
    },
    {
      "inputs": [],
      "name": "execute",
      "outputs": [],
      "stateMutability": "nonpayable",
      "type": "function"
    },
    {
      "inputs": [],
      "name": "maxMultiplyFactor",
      "outputs": [
        {
          "internalType": "uint256",
          "name": "",
          "type": "uint256"
        }
      ],
      "stateMutability": "view",
      "type": "function"
    },
    {
      "inputs": [],
      "name": "minMultiplyFactor",
      "outputs": [
        {
          "internalType": "uint256",
          "name": "",
          "type": "uint256"
        }
      ],
      "stateMutability": "view",
      "type": "function"
    },
    {
      "inputs": [],
      "name": "restrictiveOrderListing",
      "outputs": [
        {
          "internalType": "contract RestrictiveOrderListing",
          "name": "",
          "type": "address"
        }
      ],
      "stateMutability": "view",
      "type": "function"
    }
  ],
  "bytecode": "0x608060405234801561001057600080fd5b5060405161025e38038061025e83398101604081905261002f9161005b565b600080546001600160a01b0319166001600160a01b03949094169390931790925560015560025561009e565b60008060006060848603121561007057600080fd5b83516001600160a01b038116811461008757600080fd5b602085015160409095015190969495509392505050565b6101b1806100ad6000396000f3fe608060405234801561001057600080fd5b506004361061004c5760003560e01c80636146195414610051578063afac413f1461005b578063b293045e14610077578063b5febde0146100a2575b600080fd5b6100596100ab565b005b61006460025481565b6040519081526020015b60405180910390f35b60005461008a906001600160a01b031681565b6040516001600160a01b03909116815260200161006e565b61006460015481565b600054600154604051630bbc92f560e41b81526001600160a01b039092169163bbc92f50916100e09160040190815260200190565b600060405180830381600087803b1580156100fa57600080fd5b505af115801561010e573d6000803e3d6000fd5b5050600054600254604051636274160d60e11b81526001600160a01b03909216935063c4e82c1a92506101479160040190815260200190565b600060405180830381600087803b15801561016157600080fd5b505af1158015610175573d6000803e3d6000fd5b5050505056fea26469706673582212201897c965ad3913ace65f0c0bdfe36e506434fd8ede7852bdbaeb7f2dc028c5b964736f6c63430008180033",
  "linkReferences": {},
  "deployedLinkReferences": {}
}