{
  "_format": "hh-sol-artifact-1",
  "contractName": "TokenPriceProviderLastClosingPrice",
  "sourceName": "contracts/price-providers/TokenPriceProviderLastClosingPrice.sol",
  "abi": [
    {
      "inputs": [
        {
          "internalType": "contract IMoCDecentralizedExchange",
          "name": "_dex",
          "type": "address"
        },
        {
          "internalType": "address",
          "name": "_baseToken",
          "type": "address"
        },
        {
          "internalType": "address",
          "name": "_secondaryToken",
          "type": "address"
        }
      ],
      "stateMutability": "nonpayable",
      "type": "constructor"
    },
    {
      "inputs": [],
      "name": "baseToken",
      "outputs": [
        {
          "internalType": "address",
          "name": "",
          "type": "address"
        }
      ],
      "stateMutability": "view",
      "type": "function"
    },
    {
      "inputs": [],
      "name": "dex",
      "outputs": [
        {
          "internalType": "contract IMoCDecentralizedExchange",
          "name": "",
          "type": "address"
        }
      ],
      "stateMutability": "view",
      "type": "function"
    },
    {
      "inputs": [],
      "name": "peek",
      "outputs": [
        {
          "internalType": "bytes32",
          "name": "",
          "type": "bytes32"
        },
        {
          "internalType": "bool",
          "name": "",
          "type": "bool"
        }
      ],
      "stateMutability": "view",
      "type": "function"
    },
    {
      "inputs": [],
      "name": "secondaryToken",
      "outputs": [
        {
          "internalType": "address",
          "name": "",
          "type": "address"
        }
      ],
      "stateMutability": "view",
      "type": "function"
    }
  ],
  "bytecode": "0x608060405234801561001057600080fd5b5060405161028138038061028183398101604081905261002f91610089565b600080546001600160a01b039485166001600160a01b0319918216179091556001805493851693821693909317909255600280549190931691161790556100d6565b6001600160a01b038116811461008657600080fd5b50565b60008060006060848603121561009e57600080fd5b83516100a981610071565b60208501519093506100ba81610071565b60408501519092506100cb81610071565b809150509250925092565b61019c806100e56000396000f3fe608060405234801561001057600080fd5b506004361061004c5760003560e01c806359e02dd714610051578063692058c214610073578063c55dae631461009e578063f4eb08db146100b1575b600080fd5b6100596100c4565b604080519283529015156020830152015b60405180910390f35b600054610086906001600160a01b031681565b6040516001600160a01b03909116815260200161006a565b600154610086906001600160a01b031681565b600254610086906001600160a01b031681565b600080546001546002546040516350090c6b60e01b81526001600160a01b03928316600482015290821660248201528392839216906350090c6b90604401602060405180830381865afa15801561011f573d6000803e3d6000fd5b505050506040513d601f19601f82011682018060405250810190610143919061014d565b9360019350915050565b60006020828403121561015f57600080fd5b505191905056fea2646970667358221220d05099f06fa9b26daddb0b0805881d9a9128fbc26e4689190aa2a384901ad39664736f6c63430008180033",
  "linkReferences": {},
  "deployedLinkReferences": {}
}