{
  "_format": "hh-sol-artifact-1",
  "contractName": "ExternalOraclePriceProviderFallback",
  "sourceName": "contracts/price-providers/ExternalOraclePriceProviderFallback.sol",
  "abi": [
    {
      "inputs": [
        {
          "internalType": "contract IPriceProvider",
          "name": "_externalPriceProvider",
          "type": "address"
        },
        {
          "internalType": "contract IMoCDecentralizedExchange",
          "name": "_dex",
          "type": "address"
        },
        {
          "internalType": "address",
          "name": "_baseToken",
          "type": "address"
        },
        {
          "internalType": "address",
          "name": "_secondaryToken",
          "type": "address"
        }
      ],
      "stateMutability": "nonpayable",
      "type": "constructor"
    },
    {
      "inputs": [],
      "name": "baseToken",
      "outputs": [
        {
          "internalType": "address",
          "name": "",
          "type": "address"
        }
      ],
      "stateMutability": "view",
      "type": "function"
    },
    {
      "inputs": [],
      "name": "dex",
      "outputs": [
        {
          "internalType": "contract IMoCDecentralizedExchange",
          "name": "",
          "type": "address"
        }
      ],
      "stateMutability": "view",
      "type": "function"
    },
    {
      "inputs": [],
      "name": "externalPriceProvider",
      "outputs": [
        {
          "internalType": "contract IPriceProvider",
          "name": "",
          "type": "address"
        }
      ],
      "stateMutability": "view",
      "type": "function"
    },
    {
      "inputs": [],
      "name": "peek",
      "outputs": [
        {
          "internalType": "bytes32",
          "name": "",
          "type": "bytes32"
        },
        {
          "internalType": "bool",
          "name": "",
          "type": "bool"
        }
      ],
      "stateMutability": "view",
      "type": "function"
    },
    {
      "inputs": [],
      "name": "secondaryToken",
      "outputs": [
        {
          "internalType": "address",
          "name": "",
          "type": "address"
        }
      ],
      "stateMutability": "view",
      "type": "function"
    }
  ],
  "bytecode": "0x608060405234801561001057600080fd5b506040516103a03803806103a083398101604081905261002f9161009b565b600080546001600160a01b03199081166001600160a01b03958616179091556001805482169385169390931790925560028054831691841691909117905560038054909116929091169190911790556100fa565b6001600160a01b038116811461009857600080fd5b50565b600080600080608085870312156100b157600080fd5b84516100bc81610083565b60208601519094506100cd81610083565b60408601519093506100de81610083565b60608601519092506100ef81610083565b939692955090935050565b610297806101096000396000f3fe608060405234801561001057600080fd5b50600436106100575760003560e01c806359e02dd71461005c578063692058c21461007e5780638336aef3146100a9578063c55dae63146100bc578063f4eb08db146100cf575b600080fd5b6100646100e2565b604080519283529015156020830152015b60405180910390f35b600054610091906001600160a01b031681565b6040516001600160a01b039091168152602001610075565b600354610091906001600160a01b031681565b600154610091906001600160a01b031681565b600254610091906001600160a01b031681565b6000806000806100f0610117565b915091506000816101085761010361018d565b61010a565b825b9586151595509350505050565b600354604080516359e02dd760e01b8152815160009384936001600160a01b03909116926359e02dd792600480830193928290030181865afa158015610161573d6000803e3d6000fd5b505050506040513d601f19601f820116820180604052508101906101859190610213565b915091509091565b600080546001546002546040516350090c6b60e01b81526001600160a01b0392831660048201529082166024820152839291909116906350090c6b90604401602060405180830381865afa1580156101e9573d6000803e3d6000fd5b505050506040513d601f19601f8201168201806040525081019061020d9190610248565b92915050565b6000806040838503121561022657600080fd5b825191506020830151801515811461023d57600080fd5b809150509250929050565b60006020828403121561025a57600080fd5b505191905056fea26469706673582212206f77a0895c535aa1b9371823930b181c8a78a17fb0807e6b0486e5a7440fb89864736f6c63430008180033",
  "linkReferences": {},
  "deployedLinkReferences": {}
}