{
  "_format": "hh-sol-artifact-1",
  "contractName": "ProxyAdmin",
  "sourceName": "@openzeppelin/upgrades/contracts/upgradeability/ProxyAdmin.sol",
  "abi": [
    {
      "anonymous": false,
      "inputs": [
        {
          "indexed": true,
          "internalType": "address",
          "name": "previousOwner",
          "type": "address"
        },
        {
          "indexed": true,
          "internalType": "address",
          "name": "newOwner",
          "type": "address"
        }
      ],
      "name": "OwnershipTransferred",
      "type": "event"
    },
    {
      "inputs": [
        {
          "internalType": "contract AdminUpgradeabilityProxy",
          "name": "proxy",
          "type": "address"
        },
        {
          "internalType": "address",
          "name": "newAdmin",
          "type": "address"
        }
      ],
      "name": "changeProxyAdmin",
      "outputs": [],
      "stateMutability": "nonpayable",
      "type": "function"
    },
    {
      "inputs": [
        {
          "internalType": "contract AdminUpgradeabilityProxy",
          "name": "proxy",
          "type": "address"
        }
      ],
      "name": "getProxyAdmin",
      "outputs": [
        {
          "internalType": "address",
          "name": "",
          "type": "address"
        }
      ],
      "stateMutability": "view",
      "type": "function"
    },
    {
      "inputs": [
        {
          "internalType": "contract AdminUpgradeabilityProxy",
          "name": "proxy",
          "type": "address"
        }
      ],
      "name": "getProxyImplementation",
      "outputs": [
        {
          "internalType": "address",
          "name": "",
          "type": "address"
        }
      ],
      "stateMutability": "view",
      "type": "function"
    },
    {
      "inputs": [],
      "name": "isOwner",
      "outputs": [
        {
          "internalType": "bool",
          "name": "",
          "type": "bool"
        }
      ],
      "stateMutability": "view",
      "type": "function"
    },
    {
      "inputs": [],
      "name": "owner",
      "outputs": [
        {
          "internalType": "address",
          "name": "",
          "type": "address"
        }
      ],
      "stateMutability": "view",
      "type": "function"
    },
    {
      "inputs": [],
      "name": "renounceOwnership",
      "outputs": [],
      "stateMutability": "nonpayable",
      "type": "function"
    },
    {
      "inputs": [
        {
          "internalType": "address",
          "name": "newOwner",
          "type": "address"
        }
      ],
      "name": "transferOwnership",
      "outputs": [],
      "stateMutability": "nonpayable",
      "type": "function"
    },
    {
      "inputs": [
        {
          "internalType": "contract AdminUpgradeabilityProxy",
          "name": "proxy",
          "type": "address"
        },
        {
          "internalType": "address",
          "name": "implementation",
          "type": "address"
        }
      ],
      "name": "upgrade",
      "outputs": [],
      "stateMutability": "nonpayable",
      "type": "function"
    },
    {
      "inputs": [
        {
          "internalType": "contract AdminUpgradeabilityProxy",
          "name": "proxy",
          "type": "address"
        },
        {
          "internalType": "address",
          "name": "implementation",
          "type": "address"
        },
        {
          "internalType": "bytes",
          "name": "data",
          "type": "bytes"
        }
      ],
      "name": "upgradeAndCall",
      "outputs": [],
      "stateMutability": "payable",
      "type": "function"
    }
  ],
  "bytecode": "0x608060405234801561001057600080fd5b50600080546001600160a01b0319163390811782556040519091907f8be0079c531659141344cd1fd0a4f28419497f9722a3daafe3b4186f6b6457e0908290a36106ae8061005f6000396000f3fe6080604052600436106100865760003560e01c80638f32d59b116100595780638f32d59b1461011d5780639623609d1461014857806399a88ec41461015b578063f2fde38b1461017b578063f3b7dead1461019b57600080fd5b8063204e1c7a1461008b578063715018a6146100c85780637eff275e146100df5780638da5cb5b146100ff575b600080fd5b34801561009757600080fd5b506100ab6100a63660046104b3565b6101bb565b6040516001600160a01b0390911681526020015b60405180910390f35b3480156100d457600080fd5b506100dd61024c565b005b3480156100eb57600080fd5b506100dd6100fa3660046104d7565b6102ad565b34801561010b57600080fd5b506000546001600160a01b03166100ab565b34801561012957600080fd5b506000546001600160a01b0316331460405190151581526020016100bf565b6100dd610156366004610526565b610324565b34801561016757600080fd5b506100dd6101763660046104d7565b6103a2565b34801561018757600080fd5b506100dd6101963660046104b3565b6103e7565b3480156101a757600080fd5b506100ab6101b63660046104b3565b61040a565b6000806000836001600160a01b03166040516101e190635c60da1b60e01b815260040190565b600060405180830381855afa9150503d806000811461021c576040519150601f19603f3d011682016040523d82523d6000602084013e610221565b606091505b50915091508161023057600080fd5b8080602001905181019061024491906105fc565b949350505050565b6000546001600160a01b0316331461026357600080fd5b600080546040516001600160a01b03909116907f8be0079c531659141344cd1fd0a4f28419497f9722a3daafe3b4186f6b6457e0908390a3600080546001600160a01b0319169055565b6000546001600160a01b031633146102c457600080fd5b6040516308f2839760e41b81526001600160a01b038281166004830152831690638f283970906024015b600060405180830381600087803b15801561030857600080fd5b505af115801561031c573d6000803e3d6000fd5b505050505050565b6000546001600160a01b0316331461033b57600080fd5b60405163278f794360e11b81526001600160a01b03841690634f1ef28690349061036b9086908690600401610619565b6000604051808303818588803b15801561038457600080fd5b505af1158015610398573d6000803e3d6000fd5b5050505050505050565b6000546001600160a01b031633146103b957600080fd5b604051631b2ce7f360e11b81526001600160a01b038281166004830152831690633659cfe6906024016102ee565b6000546001600160a01b031633146103fe57600080fd5b61040781610430565b50565b6000806000836001600160a01b03166040516101e1906303e1469160e61b815260040190565b6001600160a01b03811661044357600080fd5b600080546040516001600160a01b03808516939216917f8be0079c531659141344cd1fd0a4f28419497f9722a3daafe3b4186f6b6457e091a3600080546001600160a01b0319166001600160a01b0392909216919091179055565b6001600160a01b038116811461040757600080fd5b6000602082840312156104c557600080fd5b81356104d08161049e565b9392505050565b600080604083850312156104ea57600080fd5b82356104f58161049e565b915060208301356105058161049e565b809150509250929050565b634e487b7160e01b600052604160045260246000fd5b60008060006060848603121561053b57600080fd5b83356105468161049e565b925060208401356105568161049e565b9150604084013567ffffffffffffffff8082111561057357600080fd5b818601915086601f83011261058757600080fd5b81358181111561059957610599610510565b604051601f8201601f19908116603f011681019083821181831017156105c1576105c1610510565b816040528281528960208487010111156105da57600080fd5b8260208601602083013760006020848301015280955050505050509250925092565b60006020828403121561060e57600080fd5b81516104d08161049e565b60018060a01b03831681526000602060406020840152835180604085015260005b818110156106565785810183015185820160600152820161063a565b506000606082860101526060601f19601f83011685010192505050939250505056fea2646970667358221220b8427c3fb66aaa33968d66399cbbe241dfb581175d4d80f1f9fc04e02c413bc564736f6c63430008180033",
  "linkReferences": {},
  "deployedLinkReferences": {}
}