{
  "_format": "hh-sol-artifact-1",
  "contractName": "BeneficiaryAddressChanger",
  "sourceName": "contracts/changers/BeneficiaryAddressChanger.sol",
  "abi": [
    {
      "inputs": [
        {
          "internalType": "contract CommissionManager",
          "name": "_commissionManager",
          "type": "address"
        },
        {
          "internalType": "address",
          "name": "_beneficiaryAddress",
          "type": "address"
        }
      ],
      "stateMutability": "nonpayable",
      "type": "constructor"
    },
    {
      "inputs": [],
      "name": "beneficiaryAddress",
      "outputs": [
        {
          "internalType": "address",
          "name": "",
          "type": "address"
        }
      ],
      "stateMutability": "view",
      "type": "function"
    },
    {
      "inputs": [],
      "name": "commissionManager",
      "outputs": [
        {
          "internalType": "contract CommissionManager",
          "name": "",
          "type": "address"
        }
      ],
      "stateMutability": "view",
      "type": "function"
    },
    {
      "inputs": [],
      "name": "execute",
      "outputs": [],
      "stateMutability": "nonpayable",
      "type": "function"
    }
  ],
  "bytecode": "0x608060405234801561001057600080fd5b506040516101e13803806101e183398101604081905261002f91610078565b600080546001600160a01b039384166001600160a01b031991821617909155600180549290931691161790556100b2565b6001600160a01b038116811461007557600080fd5b50565b6000806040838503121561008b57600080fd5b825161009681610060565b60208401519092506100a781610060565b809150509250929050565b610120806100c16000396000f3fe6080604052348015600f57600080fd5b5060043610603c5760003560e01c80630ef51d0d1460415780636146195414606f578063d9c4870e146077575b600080fd5b6000546053906001600160a01b031681565b6040516001600160a01b03909116815260200160405180910390f35b60756089565b005b6001546053906001600160a01b031681565b600054600154604051637635f03760e11b81526001600160a01b03918216600482015291169063ec6be06e90602401600060405180830381600087803b15801560d157600080fd5b505af115801560e4573d6000803e3d6000fd5b5050505056fea26469706673582212202146e7e1a37b1c4f05d47551212af1a36034898cd579a2911d57b86b107e470264736f6c63430008180033",
  "linkReferences": {},
  "deployedLinkReferences": {}
}